{
	"contracts/FinaSwap.sol": {
		"FinaSwap": {
			"abi": [
				{
					"inputs": [
						{
							"internalType": "address",
							"name": "ecdsa",
							"type": "address"
						},
						{
							"internalType": "address",
							"name": "token",
							"type": "address"
						},
						{
							"internalType": "bytes1",
							"name": "prefix",
							"type": "bytes1"
						},
						{
							"internalType": "uint256",
							"name": "nativeValue",
							"type": "uint256"
						}
					],
					"stateMutability": "nonpayable",
					"type": "constructor"
				},
				{
					"anonymous": false,
					"inputs": [
						{
							"indexed": false,
							"internalType": "address",
							"name": "account",
							"type": "address"
						}
					],
					"name": "Paused",
					"type": "event"
				},
				{
					"anonymous": false,
					"inputs": [
						{
							"indexed": true,
							"internalType": "bytes32",
							"name": "role",
							"type": "bytes32"
						},
						{
							"indexed": true,
							"internalType": "bytes32",
							"name": "previousAdminRole",
							"type": "bytes32"
						},
						{
							"indexed": true,
							"internalType": "bytes32",
							"name": "newAdminRole",
							"type": "bytes32"
						}
					],
					"name": "RoleAdminChanged",
					"type": "event"
				},
				{
					"anonymous": false,
					"inputs": [
						{
							"indexed": true,
							"internalType": "bytes32",
							"name": "role",
							"type": "bytes32"
						},
						{
							"indexed": true,
							"internalType": "address",
							"name": "account",
							"type": "address"
						},
						{
							"indexed": true,
							"internalType": "address",
							"name": "sender",
							"type": "address"
						}
					],
					"name": "RoleGranted",
					"type": "event"
				},
				{
					"anonymous": false,
					"inputs": [
						{
							"indexed": true,
							"internalType": "bytes32",
							"name": "role",
							"type": "bytes32"
						},
						{
							"indexed": true,
							"internalType": "address",
							"name": "account",
							"type": "address"
						},
						{
							"indexed": true,
							"internalType": "address",
							"name": "sender",
							"type": "address"
						}
					],
					"name": "RoleRevoked",
					"type": "event"
				},
				{
					"anonymous": false,
					"inputs": [
						{
							"indexed": false,
							"internalType": "address",
							"name": "account",
							"type": "address"
						}
					],
					"name": "Unpaused",
					"type": "event"
				},
				{
					"inputs": [],
					"name": "ADMIN_ROLE",
					"outputs": [
						{
							"internalType": "bytes32",
							"name": "",
							"type": "bytes32"
						}
					],
					"stateMutability": "view",
					"type": "function"
				},
				{
					"inputs": [],
					"name": "DEFAULT_ADMIN_ROLE",
					"outputs": [
						{
							"internalType": "bytes32",
							"name": "",
							"type": "bytes32"
						}
					],
					"stateMutability": "view",
					"type": "function"
				},
				{
					"inputs": [],
					"name": "PAUSER_ROLE",
					"outputs": [
						{
							"internalType": "bytes32",
							"name": "",
							"type": "bytes32"
						}
					],
					"stateMutability": "view",
					"type": "function"
				},
				{
					"inputs": [
						{
							"internalType": "bytes",
							"name": "source",
							"type": "bytes"
						},
						{
							"internalType": "uint256",
							"name": "balance",
							"type": "uint256"
						}
					],
					"name": "addBalance",
					"outputs": [],
					"stateMutability": "nonpayable",
					"type": "function"
				},
				{
					"inputs": [
						{
							"internalType": "bytes",
							"name": "source",
							"type": "bytes"
						}
					],
					"name": "balanceOf",
					"outputs": [
						{
							"internalType": "uint256",
							"name": "",
							"type": "uint256"
						}
					],
					"stateMutability": "view",
					"type": "function"
				},
				{
					"inputs": [
						{
							"internalType": "address",
							"name": "target",
							"type": "address"
						},
						{
							"internalType": "bytes32",
							"name": "hash",
							"type": "bytes32"
						},
						{
							"internalType": "bytes",
							"name": "signature",
							"type": "bytes"
						}
					],
					"name": "claim",
					"outputs": [],
					"stateMutability": "nonpayable",
					"type": "function"
				},
				{
					"inputs": [
						{
							"internalType": "bytes32",
							"name": "role",
							"type": "bytes32"
						}
					],
					"name": "getRoleAdmin",
					"outputs": [
						{
							"internalType": "bytes32",
							"name": "",
							"type": "bytes32"
						}
					],
					"stateMutability": "view",
					"type": "function"
				},
				{
					"inputs": [
						{
							"internalType": "bytes32",
							"name": "role",
							"type": "bytes32"
						},
						{
							"internalType": "address",
							"name": "account",
							"type": "address"
						}
					],
					"name": "grantRole",
					"outputs": [],
					"stateMutability": "nonpayable",
					"type": "function"
				},
				{
					"inputs": [
						{
							"internalType": "bytes32",
							"name": "role",
							"type": "bytes32"
						},
						{
							"internalType": "address",
							"name": "account",
							"type": "address"
						}
					],
					"name": "hasRole",
					"outputs": [
						{
							"internalType": "bool",
							"name": "",
							"type": "bool"
						}
					],
					"stateMutability": "view",
					"type": "function"
				},
				{
					"inputs": [],
					"name": "pause",
					"outputs": [],
					"stateMutability": "nonpayable",
					"type": "function"
				},
				{
					"inputs": [],
					"name": "paused",
					"outputs": [
						{
							"internalType": "bool",
							"name": "",
							"type": "bool"
						}
					],
					"stateMutability": "view",
					"type": "function"
				},
				{
					"inputs": [
						{
							"internalType": "bytes",
							"name": "source",
							"type": "bytes"
						}
					],
					"name": "removeBalance",
					"outputs": [],
					"stateMutability": "nonpayable",
					"type": "function"
				},
				{
					"inputs": [
						{
							"internalType": "bytes32",
							"name": "role",
							"type": "bytes32"
						},
						{
							"internalType": "address",
							"name": "account",
							"type": "address"
						}
					],
					"name": "renounceRole",
					"outputs": [],
					"stateMutability": "nonpayable",
					"type": "function"
				},
				{
					"inputs": [
						{
							"internalType": "bytes32",
							"name": "role",
							"type": "bytes32"
						},
						{
							"internalType": "address",
							"name": "account",
							"type": "address"
						}
					],
					"name": "revokeRole",
					"outputs": [],
					"stateMutability": "nonpayable",
					"type": "function"
				},
				{
					"inputs": [
						{
							"internalType": "uint256",
							"name": "nativeValue",
							"type": "uint256"
						}
					],
					"name": "setNativeValue",
					"outputs": [],
					"stateMutability": "nonpayable",
					"type": "function"
				},
				{
					"inputs": [
						{
							"internalType": "bytes4",
							"name": "interfaceId",
							"type": "bytes4"
						}
					],
					"name": "supportsInterface",
					"outputs": [
						{
							"internalType": "bool",
							"name": "",
							"type": "bool"
						}
					],
					"stateMutability": "view",
					"type": "function"
				},
				{
					"inputs": [],
					"name": "unpause",
					"outputs": [],
					"stateMutability": "nonpayable",
					"type": "function"
				}
			],
			"devdoc": {
				"kind": "dev",
				"methods": {
					"getRoleAdmin(bytes32)": {
						"details": "Returns the admin role that controls `role`. See {grantRole} and {revokeRole}. To change a role's admin, use {_setRoleAdmin}."
					},
					"grantRole(bytes32,address)": {
						"details": "Grants `role` to `account`. If `account` had not been already granted `role`, emits a {RoleGranted} event. Requirements: - the caller must have ``role``'s admin role."
					},
					"hasRole(bytes32,address)": {
						"details": "Returns `true` if `account` has been granted `role`."
					},
					"paused()": {
						"details": "Returns true if the contract is paused, and false otherwise."
					},
					"renounceRole(bytes32,address)": {
						"details": "Revokes `role` from the calling account. Roles are often managed via {grantRole} and {revokeRole}: this function's purpose is to provide a mechanism for accounts to lose their privileges if they are compromised (such as when a trusted device is misplaced). If the calling account had been revoked `role`, emits a {RoleRevoked} event. Requirements: - the caller must be `account`."
					},
					"revokeRole(bytes32,address)": {
						"details": "Revokes `role` from `account`. If `account` had been granted `role`, emits a {RoleRevoked} event. Requirements: - the caller must have ``role``'s admin role."
					},
					"supportsInterface(bytes4)": {
						"details": "See {IERC165-supportsInterface}."
					}
				},
				"version": 1
			},
			"evm": {
				"assembly": "    /* \"contracts/FinaSwap.sol\":295:3874  contract FinaSwap is Pausable, AccessControl {\r... */\n  mstore(0x40, 0xe0)\n    /* \"contracts/FinaSwap.sol\":701:1023  constructor(address ecdsa, address token, bytes1 prefix, uint256 nativeValue)\r... */\n  callvalue\n  dup1\n  iszero\n  tag_1\n  jumpi\n  0x00\n  dup1\n  revert\ntag_1:\n  pop\n  mload(0x40)\n  sub(codesize, bytecodeSize)\n  dup1\n  bytecodeSize\n  dup4\n  codecopy\n  dup2\n  dup2\n  add\n  0x40\n  mstore\n  dup2\n  add\n  swap1\n  tag_2\n  swap2\n  swap1\n  tag_3\n  jump\t// in\ntag_2:\n    /* \"@openzeppelin/contracts/security/Pausable.sol\":991:996  false */\n  0x00\n    /* \"@openzeppelin/contracts/security/Pausable.sol\":981:988  _paused */\n  dup1\n  0x00\n    /* \"@openzeppelin/contracts/security/Pausable.sol\":981:996  _paused = false */\n  0x0100\n  exp\n  dup2\n  sload\n  dup2\n  0xff\n  mul\n  not\n  and\n  swap1\n  dup4\n  iszero\n  iszero\n  mul\n  or\n  swap1\n  sstore\n  pop\n    /* \"contracts/FinaSwap.sol\":811:816  ecdsa */\n  dup4\n    /* \"contracts/FinaSwap.sol\":795:817  _ecdsa = IECDSA(ecdsa) */\n  0xffffffffffffffffffffffffffffffffffffffff\n  and\n  0x80\n  dup2\n  0xffffffffffffffffffffffffffffffffffffffff\n  and\n  0x60\n  shl\n  dup2\n  mstore\n  pop\n  pop\n    /* \"contracts/FinaSwap.sol\":852:857  token */\n  dup3\n    /* \"contracts/FinaSwap.sol\":828:858  _token = IERC20Mintable(token) */\n  0xffffffffffffffffffffffffffffffffffffffff\n  and\n  0xa0\n  dup2\n  0xffffffffffffffffffffffffffffffffffffffff\n  and\n  0x60\n  shl\n  dup2\n  mstore\n  pop\n  pop\n    /* \"contracts/FinaSwap.sol\":879:885  prefix */\n  dup2\n    /* \"contracts/FinaSwap.sol\":869:885  _prefix = prefix */\n  not(0xffffffffffffffffffffffffffffffffffffffffffffffffffffffffffffff)\n  and\n  0xc0\n  dup2\n  not(0xffffffffffffffffffffffffffffffffffffffffffffffffffffffffffffff)\n  and\n  dup2\n  mstore\n  pop\n  pop\n    /* \"contracts/FinaSwap.sol\":911:922  nativeValue */\n  dup1\n    /* \"contracts/FinaSwap.sol\":896:908  _nativeValue */\n  0x02\n    /* \"contracts/FinaSwap.sol\":896:922  _nativeValue = nativeValue */\n  dup2\n  swap1\n  sstore\n  pop\n    /* \"contracts/FinaSwap.sol\":935:969  _grantRole(ADMIN_ROLE, msg.sender) */\n  tag_8\n    /* \"contracts/FinaSwap.sol\":384:407  keccak256(\"ADMIN_ROLE\") */\n  0xa49807205ce4d355092ef5a8a18f56e8913cf4a201fbe287825b095693c21775\n    /* \"contracts/FinaSwap.sol\":958:968  msg.sender */\n  caller\n    /* \"contracts/FinaSwap.sol\":935:945  _grantRole */\n  shl(0x20, tag_9)\n    /* \"contracts/FinaSwap.sol\":935:969  _grantRole(ADMIN_ROLE, msg.sender) */\n  0x20\n  shr\n  jump\t// in\ntag_8:\n    /* \"contracts/FinaSwap.sol\":980:1015  _grantRole(PAUSER_ROLE, msg.sender) */\n  tag_10\n    /* \"contracts/FinaSwap.sol\":452:476  keccak256(\"PAUSER_ROLE\") */\n  0x65d7a28e3265b37a6474929f336521b332c1681b933f6cb9f3376673440d862a\n    /* \"contracts/FinaSwap.sol\":1004:1014  msg.sender */\n  caller\n    /* \"contracts/FinaSwap.sol\":980:990  _grantRole */\n  shl(0x20, tag_9)\n    /* \"contracts/FinaSwap.sol\":980:1015  _grantRole(PAUSER_ROLE, msg.sender) */\n  0x20\n  shr\n  jump\t// in\ntag_10:\n    /* \"contracts/FinaSwap.sol\":701:1023  constructor(address ecdsa, address token, bytes1 prefix, uint256 nativeValue)\r... */\n  pop\n  pop\n  pop\n  pop\n    /* \"contracts/FinaSwap.sol\":295:3874  contract FinaSwap is Pausable, AccessControl {\r... */\n  jump(tag_11)\n    /* \"@openzeppelin/contracts/access/AccessControl.sol\":6861:7094  function _grantRole(bytes32 role, address account) internal virtual {... */\ntag_9:\n    /* \"@openzeppelin/contracts/access/AccessControl.sol\":6944:6966  hasRole(role, account) */\n  tag_13\n    /* \"@openzeppelin/contracts/access/AccessControl.sol\":6952:6956  role */\n  dup3\n    /* \"@openzeppelin/contracts/access/AccessControl.sol\":6958:6965  account */\n  dup3\n    /* \"@openzeppelin/contracts/access/AccessControl.sol\":6944:6951  hasRole */\n  shl(0x20, tag_14)\n    /* \"@openzeppelin/contracts/access/AccessControl.sol\":6944:6966  hasRole(role, account) */\n  0x20\n  shr\n  jump\t// in\ntag_13:\n    /* \"@openzeppelin/contracts/access/AccessControl.sol\":6939:7088  if (!hasRole(role, account)) {... */\n  tag_15\n  jumpi\n    /* \"@openzeppelin/contracts/access/AccessControl.sol\":7014:7018  true */\n  0x01\n    /* \"@openzeppelin/contracts/access/AccessControl.sol\":6982:6988  _roles */\n  dup1\n    /* \"@openzeppelin/contracts/access/AccessControl.sol\":6982:6994  _roles[role] */\n  0x00\n    /* \"@openzeppelin/contracts/access/AccessControl.sol\":6989:6993  role */\n  dup5\n    /* \"@openzeppelin/contracts/access/AccessControl.sol\":6982:6994  _roles[role] */\n  dup2\n  mstore\n  0x20\n  add\n  swap1\n  dup2\n  mstore\n  0x20\n  add\n  0x00\n  keccak256\n    /* \"@openzeppelin/contracts/access/AccessControl.sol\":6982:7002  _roles[role].members */\n  0x00\n  add\n    /* \"@openzeppelin/contracts/access/AccessControl.sol\":6982:7011  _roles[role].members[account] */\n  0x00\n    /* \"@openzeppelin/contracts/access/AccessControl.sol\":7003:7010  account */\n  dup4\n    /* \"@openzeppelin/contracts/access/AccessControl.sol\":6982:7011  _roles[role].members[account] */\n  0xffffffffffffffffffffffffffffffffffffffff\n  and\n  0xffffffffffffffffffffffffffffffffffffffff\n  and\n  dup2\n  mstore\n  0x20\n  add\n  swap1\n  dup2\n  mstore\n  0x20\n  add\n  0x00\n  keccak256\n  0x00\n    /* \"@openzeppelin/contracts/access/AccessControl.sol\":6982:7018  _roles[role].members[account] = true */\n  0x0100\n  exp\n  dup2\n  sload\n  dup2\n  0xff\n  mul\n  not\n  and\n  swap1\n  dup4\n  iszero\n  iszero\n  mul\n  or\n  swap1\n  sstore\n  pop\n    /* \"@openzeppelin/contracts/access/AccessControl.sol\":7064:7076  _msgSender() */\n  tag_16\n    /* \"@openzeppelin/contracts/access/AccessControl.sol\":7064:7074  _msgSender */\n  shl(0x20, tag_17)\n    /* \"@openzeppelin/contracts/access/AccessControl.sol\":7064:7076  _msgSender() */\n  0x20\n  shr\n  jump\t// in\ntag_16:\n    /* \"@openzeppelin/contracts/access/AccessControl.sol\":7037:7077  RoleGranted(role, account, _msgSender()) */\n  0xffffffffffffffffffffffffffffffffffffffff\n  and\n    /* \"@openzeppelin/contracts/access/AccessControl.sol\":7055:7062  account */\n  dup2\n    /* \"@openzeppelin/contracts/access/AccessControl.sol\":7037:7077  RoleGranted(role, account, _msgSender()) */\n  0xffffffffffffffffffffffffffffffffffffffff\n  and\n    /* \"@openzeppelin/contracts/access/AccessControl.sol\":7049:7053  role */\n  dup4\n    /* \"@openzeppelin/contracts/access/AccessControl.sol\":7037:7077  RoleGranted(role, account, _msgSender()) */\n  0x2f8788117e7eff1d82e926ec794901d17c78024a50270940304540a733656f0d\n  mload(0x40)\n  mload(0x40)\n  dup1\n  swap2\n  sub\n  swap1\n  log4\n    /* \"@openzeppelin/contracts/access/AccessControl.sol\":6939:7088  if (!hasRole(role, account)) {... */\ntag_15:\n    /* \"@openzeppelin/contracts/access/AccessControl.sol\":6861:7094  function _grantRole(bytes32 role, address account) internal virtual {... */\n  pop\n  pop\n  jump\t// out\n    /* \"@openzeppelin/contracts/access/AccessControl.sol\":2909:3054  function hasRole(bytes32 role, address account) public view virtual override returns (bool) {... */\ntag_14:\n    /* \"@openzeppelin/contracts/access/AccessControl.sol\":2995:2999  bool */\n  0x00\n    /* \"@openzeppelin/contracts/access/AccessControl.sol\":3018:3024  _roles */\n  0x01\n    /* \"@openzeppelin/contracts/access/AccessControl.sol\":3018:3030  _roles[role] */\n  0x00\n    /* \"@openzeppelin/contracts/access/AccessControl.sol\":3025:3029  role */\n  dup5\n    /* \"@openzeppelin/contracts/access/AccessControl.sol\":3018:3030  _roles[role] */\n  dup2\n  mstore\n  0x20\n  add\n  swap1\n  dup2\n  mstore\n  0x20\n  add\n  0x00\n  keccak256\n    /* \"@openzeppelin/contracts/access/AccessControl.sol\":3018:3038  _roles[role].members */\n  0x00\n  add\n    /* \"@openzeppelin/contracts/access/AccessControl.sol\":3018:3047  _roles[role].members[account] */\n  0x00\n    /* \"@openzeppelin/contracts/access/AccessControl.sol\":3039:3046  account */\n  dup4\n    /* \"@openzeppelin/contracts/access/AccessControl.sol\":3018:3047  _roles[role].members[account] */\n  0xffffffffffffffffffffffffffffffffffffffff\n  and\n  0xffffffffffffffffffffffffffffffffffffffff\n  and\n  dup2\n  mstore\n  0x20\n  add\n  swap1\n  dup2\n  mstore\n  0x20\n  add\n  0x00\n  keccak256\n  0x00\n  swap1\n  sload\n  swap1\n  0x0100\n  exp\n  swap1\n  div\n  0xff\n  and\n    /* \"@openzeppelin/contracts/access/AccessControl.sol\":3011:3047  return _roles[role].members[account] */\n  swap1\n  pop\n    /* \"@openzeppelin/contracts/access/AccessControl.sol\":2909:3054  function hasRole(bytes32 role, address account) public view virtual override returns (bool) {... */\n  swap3\n  swap2\n  pop\n  pop\n  jump\t// out\n    /* \"@openzeppelin/contracts/utils/Context.sol\":640:736  function _msgSender() internal view virtual returns (address) {... */\ntag_17:\n    /* \"@openzeppelin/contracts/utils/Context.sol\":693:700  address */\n  0x00\n    /* \"@openzeppelin/contracts/utils/Context.sol\":719:729  msg.sender */\n  caller\n    /* \"@openzeppelin/contracts/utils/Context.sol\":712:729  return msg.sender */\n  swap1\n  pop\n    /* \"@openzeppelin/contracts/utils/Context.sol\":640:736  function _msgSender() internal view virtual returns (address) {... */\n  swap1\n  jump\t// out\n    /* \"#utility.yul\":7:150   */\ntag_21:\n    /* \"#utility.yul\":64:69   */\n  0x00\n    /* \"#utility.yul\":95:101   */\n  dup2\n    /* \"#utility.yul\":89:102   */\n  mload\n    /* \"#utility.yul\":80:102   */\n  swap1\n  pop\n    /* \"#utility.yul\":111:144   */\n  tag_23\n    /* \"#utility.yul\":138:143   */\n  dup2\n    /* \"#utility.yul\":111:144   */\n  tag_24\n  jump\t// in\ntag_23:\n    /* \"#utility.yul\":70:150   */\n  swap3\n  swap2\n  pop\n  pop\n  jump\t// out\n    /* \"#utility.yul\":156:297   */\ntag_25:\n    /* \"#utility.yul\":212:217   */\n  0x00\n    /* \"#utility.yul\":243:249   */\n  dup2\n    /* \"#utility.yul\":237:250   */\n  mload\n    /* \"#utility.yul\":228:250   */\n  swap1\n  pop\n    /* \"#utility.yul\":259:291   */\n  tag_27\n    /* \"#utility.yul\":285:290   */\n  dup2\n    /* \"#utility.yul\":259:291   */\n  tag_28\n  jump\t// in\ntag_27:\n    /* \"#utility.yul\":218:297   */\n  swap3\n  swap2\n  pop\n  pop\n  jump\t// out\n    /* \"#utility.yul\":303:446   */\ntag_29:\n    /* \"#utility.yul\":360:365   */\n  0x00\n    /* \"#utility.yul\":391:397   */\n  dup2\n    /* \"#utility.yul\":385:398   */\n  mload\n    /* \"#utility.yul\":376:398   */\n  swap1\n  pop\n    /* \"#utility.yul\":407:440   */\n  tag_31\n    /* \"#utility.yul\":434:439   */\n  dup2\n    /* \"#utility.yul\":407:440   */\n  tag_32\n  jump\t// in\ntag_31:\n    /* \"#utility.yul\":366:446   */\n  swap3\n  swap2\n  pop\n  pop\n  jump\t// out\n    /* \"#utility.yul\":452:1203   */\ntag_3:\n    /* \"#utility.yul\":548:554   */\n  0x00\n    /* \"#utility.yul\":556:562   */\n  dup1\n    /* \"#utility.yul\":564:570   */\n  0x00\n    /* \"#utility.yul\":572:578   */\n  dup1\n    /* \"#utility.yul\":621:624   */\n  0x80\n    /* \"#utility.yul\":609:618   */\n  dup6\n    /* \"#utility.yul\":600:607   */\n  dup8\n    /* \"#utility.yul\":596:619   */\n  sub\n    /* \"#utility.yul\":592:625   */\n  slt\n    /* \"#utility.yul\":589:591   */\n  iszero\n  tag_34\n  jumpi\n    /* \"#utility.yul\":638:639   */\n  0x00\n    /* \"#utility.yul\":635:636   */\n  dup1\n    /* \"#utility.yul\":628:640   */\n  revert\n    /* \"#utility.yul\":589:591   */\ntag_34:\n    /* \"#utility.yul\":681:682   */\n  0x00\n    /* \"#utility.yul\":706:770   */\n  tag_35\n    /* \"#utility.yul\":762:769   */\n  dup8\n    /* \"#utility.yul\":753:759   */\n  dup3\n    /* \"#utility.yul\":742:751   */\n  dup9\n    /* \"#utility.yul\":738:760   */\n  add\n    /* \"#utility.yul\":706:770   */\n  tag_21\n  jump\t// in\ntag_35:\n    /* \"#utility.yul\":696:770   */\n  swap5\n  pop\n    /* \"#utility.yul\":652:780   */\n  pop\n    /* \"#utility.yul\":819:821   */\n  0x20\n    /* \"#utility.yul\":845:909   */\n  tag_36\n    /* \"#utility.yul\":901:908   */\n  dup8\n    /* \"#utility.yul\":892:898   */\n  dup3\n    /* \"#utility.yul\":881:890   */\n  dup9\n    /* \"#utility.yul\":877:899   */\n  add\n    /* \"#utility.yul\":845:909   */\n  tag_21\n  jump\t// in\ntag_36:\n    /* \"#utility.yul\":835:909   */\n  swap4\n  pop\n    /* \"#utility.yul\":790:919   */\n  pop\n    /* \"#utility.yul\":958:960   */\n  0x40\n    /* \"#utility.yul\":984:1047   */\n  tag_37\n    /* \"#utility.yul\":1039:1046   */\n  dup8\n    /* \"#utility.yul\":1030:1036   */\n  dup3\n    /* \"#utility.yul\":1019:1028   */\n  dup9\n    /* \"#utility.yul\":1015:1037   */\n  add\n    /* \"#utility.yul\":984:1047   */\n  tag_25\n  jump\t// in\ntag_37:\n    /* \"#utility.yul\":974:1047   */\n  swap3\n  pop\n    /* \"#utility.yul\":929:1057   */\n  pop\n    /* \"#utility.yul\":1096:1098   */\n  0x60\n    /* \"#utility.yul\":1122:1186   */\n  tag_38\n    /* \"#utility.yul\":1178:1185   */\n  dup8\n    /* \"#utility.yul\":1169:1175   */\n  dup3\n    /* \"#utility.yul\":1158:1167   */\n  dup9\n    /* \"#utility.yul\":1154:1176   */\n  add\n    /* \"#utility.yul\":1122:1186   */\n  tag_29\n  jump\t// in\ntag_38:\n    /* \"#utility.yul\":1112:1186   */\n  swap2\n  pop\n    /* \"#utility.yul\":1067:1196   */\n  pop\n    /* \"#utility.yul\":579:1203   */\n  swap3\n  swap6\n  swap2\n  swap5\n  pop\n  swap3\n  pop\n  jump\t// out\n    /* \"#utility.yul\":1209:1305   */\ntag_39:\n    /* \"#utility.yul\":1246:1253   */\n  0x00\n    /* \"#utility.yul\":1275:1299   */\n  tag_41\n    /* \"#utility.yul\":1293:1298   */\n  dup3\n    /* \"#utility.yul\":1275:1299   */\n  tag_42\n  jump\t// in\ntag_41:\n    /* \"#utility.yul\":1264:1299   */\n  swap1\n  pop\n    /* \"#utility.yul\":1254:1305   */\n  swap2\n  swap1\n  pop\n  jump\t// out\n    /* \"#utility.yul\":1311:1460   */\ntag_43:\n    /* \"#utility.yul\":1347:1354   */\n  0x00\n    /* \"#utility.yul\":1387:1453   */\n  0xff00000000000000000000000000000000000000000000000000000000000000\n    /* \"#utility.yul\":1380:1385   */\n  dup3\n    /* \"#utility.yul\":1376:1454   */\n  and\n    /* \"#utility.yul\":1365:1454   */\n  swap1\n  pop\n    /* \"#utility.yul\":1355:1460   */\n  swap2\n  swap1\n  pop\n  jump\t// out\n    /* \"#utility.yul\":1466:1592   */\ntag_42:\n    /* \"#utility.yul\":1503:1510   */\n  0x00\n    /* \"#utility.yul\":1543:1585   */\n  0xffffffffffffffffffffffffffffffffffffffff\n    /* \"#utility.yul\":1536:1541   */\n  dup3\n    /* \"#utility.yul\":1532:1586   */\n  and\n    /* \"#utility.yul\":1521:1586   */\n  swap1\n  pop\n    /* \"#utility.yul\":1511:1592   */\n  swap2\n  swap1\n  pop\n  jump\t// out\n    /* \"#utility.yul\":1598:1675   */\ntag_46:\n    /* \"#utility.yul\":1635:1642   */\n  0x00\n    /* \"#utility.yul\":1664:1669   */\n  dup2\n    /* \"#utility.yul\":1653:1669   */\n  swap1\n  pop\n    /* \"#utility.yul\":1643:1675   */\n  swap2\n  swap1\n  pop\n  jump\t// out\n    /* \"#utility.yul\":1681:1803   */\ntag_24:\n    /* \"#utility.yul\":1754:1778   */\n  tag_49\n    /* \"#utility.yul\":1772:1777   */\n  dup2\n    /* \"#utility.yul\":1754:1778   */\n  tag_39\n  jump\t// in\ntag_49:\n    /* \"#utility.yul\":1747:1752   */\n  dup2\n    /* \"#utility.yul\":1744:1779   */\n  eq\n    /* \"#utility.yul\":1734:1736   */\n  tag_50\n  jumpi\n    /* \"#utility.yul\":1793:1794   */\n  0x00\n    /* \"#utility.yul\":1790:1791   */\n  dup1\n    /* \"#utility.yul\":1783:1795   */\n  revert\n    /* \"#utility.yul\":1734:1736   */\ntag_50:\n    /* \"#utility.yul\":1724:1803   */\n  pop\n  jump\t// out\n    /* \"#utility.yul\":1809:1929   */\ntag_28:\n    /* \"#utility.yul\":1881:1904   */\n  tag_52\n    /* \"#utility.yul\":1898:1903   */\n  dup2\n    /* \"#utility.yul\":1881:1904   */\n  tag_43\n  jump\t// in\ntag_52:\n    /* \"#utility.yul\":1874:1879   */\n  dup2\n    /* \"#utility.yul\":1871:1905   */\n  eq\n    /* \"#utility.yul\":1861:1863   */\n  tag_53\n  jumpi\n    /* \"#utility.yul\":1919:1920   */\n  0x00\n    /* \"#utility.yul\":1916:1917   */\n  dup1\n    /* \"#utility.yul\":1909:1921   */\n  revert\n    /* \"#utility.yul\":1861:1863   */\ntag_53:\n    /* \"#utility.yul\":1851:1929   */\n  pop\n  jump\t// out\n    /* \"#utility.yul\":1935:2057   */\ntag_32:\n    /* \"#utility.yul\":2008:2032   */\n  tag_55\n    /* \"#utility.yul\":2026:2031   */\n  dup2\n    /* \"#utility.yul\":2008:2032   */\n  tag_46\n  jump\t// in\ntag_55:\n    /* \"#utility.yul\":2001:2006   */\n  dup2\n    /* \"#utility.yul\":1998:2033   */\n  eq\n    /* \"#utility.yul\":1988:1990   */\n  tag_56\n  jumpi\n    /* \"#utility.yul\":2047:2048   */\n  0x00\n    /* \"#utility.yul\":2044:2045   */\n  dup1\n    /* \"#utility.yul\":2037:2049   */\n  revert\n    /* \"#utility.yul\":1988:1990   */\ntag_56:\n    /* \"#utility.yul\":1978:2057   */\n  pop\n  jump\t// out\n    /* \"contracts/FinaSwap.sol\":295:3874  contract FinaSwap is Pausable, AccessControl {\r... */\ntag_11:\n  shr(0x60, mload(0x80))\n  shr(0x60, mload(0xa0))\n  shl(0xf8, shr(0xf8, mload(0xc0)))\n  codecopy(0x00, dataOffset(sub_0), dataSize(sub_0))\n  0x00\n  assignImmutable(\"0x9b0d5a2681b52b4560ba0a55dc00d44d52ed130b12e9b1ecacbe9f4e75788d40\")\n  0x00\n  assignImmutable(\"0xb0c7bc42bdbc6fc210fecd6a5f5b923061cceb0f8ca5c7d964d5c22fc0e4b0b6\")\n  0x00\n  assignImmutable(\"0x8aa1c539d88d2917ab61113c1a4fcdb5d84bdff1b85c257152c86b49e7f24537\")\n  return(0x00, dataSize(sub_0))\nstop\n\nsub_0: assembly {\n        /* \"contracts/FinaSwap.sol\":295:3874  contract FinaSwap is Pausable, AccessControl {\r... */\n      mstore(0x40, 0x80)\n      callvalue\n      dup1\n      iszero\n      tag_1\n      jumpi\n      0x00\n      dup1\n      revert\n    tag_1:\n      pop\n      jumpi(tag_2, lt(calldatasize, 0x04))\n      shr(0xe0, calldataload(0x00))\n      dup1\n      0x736c76ee\n      gt\n      tag_20\n      jumpi\n      dup1\n      0x91d14854\n      gt\n      tag_21\n      jumpi\n      dup1\n      0x91d14854\n      eq\n      tag_15\n      jumpi\n      dup1\n      0xa217fddf\n      eq\n      tag_16\n      jumpi\n      dup1\n      0xc71c6490\n      eq\n      tag_17\n      jumpi\n      dup1\n      0xd547741f\n      eq\n      tag_18\n      jumpi\n      dup1\n      0xe63ab1e9\n      eq\n      tag_19\n      jumpi\n      jump(tag_2)\n    tag_21:\n      dup1\n      0x736c76ee\n      eq\n      tag_11\n      jumpi\n      dup1\n      0x75b238fc\n      eq\n      tag_12\n      jumpi\n      dup1\n      0x78415365\n      eq\n      tag_13\n      jumpi\n      dup1\n      0x8456cb59\n      eq\n      tag_14\n      jumpi\n      jump(tag_2)\n    tag_20:\n      dup1\n      0x36568abe\n      gt\n      tag_22\n      jumpi\n      dup1\n      0x36568abe\n      eq\n      tag_7\n      jumpi\n      dup1\n      0x3f4ba83a\n      eq\n      tag_8\n      jumpi\n      dup1\n      0x5b06a1d5\n      eq\n      tag_9\n      jumpi\n      dup1\n      0x5c975abb\n      eq\n      tag_10\n      jumpi\n      jump(tag_2)\n    tag_22:\n      dup1\n      0x01ffc9a7\n      eq\n      tag_3\n      jumpi\n      dup1\n      0x248a9ca3\n      eq\n      tag_4\n      jumpi\n      dup1\n      0x2f2ff15d\n      eq\n      tag_5\n      jumpi\n      dup1\n      0x3636f669\n      eq\n      tag_6\n      jumpi\n    tag_2:\n      0x00\n      dup1\n      revert\n        /* \"@openzeppelin/contracts/access/AccessControl.sol\":2620:2822  function supportsInterface(bytes4 interfaceId) public view virtual override returns (bool) {... */\n    tag_3:\n      tag_23\n      0x04\n      dup1\n      calldatasize\n      sub\n      dup2\n      add\n      swap1\n      tag_24\n      swap2\n      swap1\n      tag_25\n      jump\t// in\n    tag_24:\n      tag_26\n      jump\t// in\n    tag_23:\n      mload(0x40)\n      tag_27\n      swap2\n      swap1\n      tag_28\n      jump\t// in\n    tag_27:\n      mload(0x40)\n      dup1\n      swap2\n      sub\n      swap1\n      return\n        /* \"@openzeppelin/contracts/access/AccessControl.sol\":4008:4137  function getRoleAdmin(bytes32 role) public view virtual override returns (bytes32) {... */\n    tag_4:\n      tag_29\n      0x04\n      dup1\n      calldatasize\n      sub\n      dup2\n      add\n      swap1\n      tag_30\n      swap2\n      swap1\n      tag_31\n      jump\t// in\n    tag_30:\n      tag_32\n      jump\t// in\n    tag_29:\n      mload(0x40)\n      tag_33\n      swap2\n      swap1\n      tag_34\n      jump\t// in\n    tag_33:\n      mload(0x40)\n      dup1\n      swap2\n      sub\n      swap1\n      return\n        /* \"@openzeppelin/contracts/access/AccessControl.sol\":4387:4532  function grantRole(bytes32 role, address account) public virtual override onlyRole(getRoleAdmin(role)) {... */\n    tag_5:\n      tag_35\n      0x04\n      dup1\n      calldatasize\n      sub\n      dup2\n      add\n      swap1\n      tag_36\n      swap2\n      swap1\n      tag_37\n      jump\t// in\n    tag_36:\n      tag_38\n      jump\t// in\n    tag_35:\n      stop\n        /* \"contracts/FinaSwap.sol\":3327:3444  function removeBalance(bytes memory source) public onlyRole(ADMIN_ROLE)\r... */\n    tag_6:\n      tag_39\n      0x04\n      dup1\n      calldatasize\n      sub\n      dup2\n      add\n      swap1\n      tag_40\n      swap2\n      swap1\n      tag_41\n      jump\t// in\n    tag_40:\n      tag_42\n      jump\t// in\n    tag_39:\n      stop\n        /* \"@openzeppelin/contracts/access/AccessControl.sol\":5404:5618  function renounceRole(bytes32 role, address account) public virtual override {... */\n    tag_7:\n      tag_43\n      0x04\n      dup1\n      calldatasize\n      sub\n      dup2\n      add\n      swap1\n      tag_44\n      swap2\n      swap1\n      tag_37\n      jump\t// in\n    tag_44:\n      tag_45\n      jump\t// in\n    tag_43:\n      stop\n        /* \"contracts/FinaSwap.sol\":3790:3867  function unpause() public onlyRole(PAUSER_ROLE) {\r... */\n    tag_8:\n      tag_46\n      tag_47\n      jump\t// in\n    tag_46:\n      stop\n        /* \"contracts/FinaSwap.sol\":3452:3575  function setNativeValue(uint256 nativeValue) public onlyRole(ADMIN_ROLE)\r... */\n    tag_9:\n      tag_48\n      0x04\n      dup1\n      calldatasize\n      sub\n      dup2\n      add\n      swap1\n      tag_49\n      swap2\n      swap1\n      tag_50\n      jump\t// in\n    tag_49:\n      tag_51\n      jump\t// in\n    tag_48:\n      stop\n        /* \"@openzeppelin/contracts/security/Pausable.sol\":1098:1182  function paused() public view virtual returns (bool) {... */\n    tag_10:\n      tag_52\n      tag_53\n      jump\t// in\n    tag_52:\n      mload(0x40)\n      tag_54\n      swap2\n      swap1\n      tag_28\n      jump\t// in\n    tag_54:\n      mload(0x40)\n      dup1\n      swap2\n      sub\n      swap1\n      return\n        /* \"contracts/FinaSwap.sol\":1031:3174  function claim(address target, bytes32 hash, bytes memory signature) public whenNotPaused\r... */\n    tag_11:\n      tag_55\n      0x04\n      dup1\n      calldatasize\n      sub\n      dup2\n      add\n      swap1\n      tag_56\n      swap2\n      swap1\n      tag_57\n      jump\t// in\n    tag_56:\n      tag_58\n      jump\t// in\n    tag_55:\n      stop\n        /* \"contracts/FinaSwap.sol\":347:407  bytes32 public constant ADMIN_ROLE = keccak256(\"ADMIN_ROLE\") */\n    tag_12:\n      tag_59\n      tag_60\n      jump\t// in\n    tag_59:\n      mload(0x40)\n      tag_61\n      swap2\n      swap1\n      tag_34\n      jump\t// in\n    tag_61:\n      mload(0x40)\n      dup1\n      swap2\n      sub\n      swap1\n      return\n        /* \"contracts/FinaSwap.sol\":3583:3701  function balanceOf(bytes memory source) public view returns (uint256)\r... */\n    tag_13:\n      tag_62\n      0x04\n      dup1\n      calldatasize\n      sub\n      dup2\n      add\n      swap1\n      tag_63\n      swap2\n      swap1\n      tag_41\n      jump\t// in\n    tag_63:\n      tag_64\n      jump\t// in\n    tag_62:\n      mload(0x40)\n      tag_65\n      swap2\n      swap1\n      tag_66\n      jump\t// in\n    tag_65:\n      mload(0x40)\n      dup1\n      swap2\n      sub\n      swap1\n      return\n        /* \"contracts/FinaSwap.sol\":3709:3782  function pause() public onlyRole(PAUSER_ROLE) {\r... */\n    tag_14:\n      tag_67\n      tag_68\n      jump\t// in\n    tag_67:\n      stop\n        /* \"@openzeppelin/contracts/access/AccessControl.sol\":2909:3054  function hasRole(bytes32 role, address account) public view virtual override returns (bool) {... */\n    tag_15:\n      tag_69\n      0x04\n      dup1\n      calldatasize\n      sub\n      dup2\n      add\n      swap1\n      tag_70\n      swap2\n      swap1\n      tag_37\n      jump\t// in\n    tag_70:\n      tag_71\n      jump\t// in\n    tag_69:\n      mload(0x40)\n      tag_72\n      swap2\n      swap1\n      tag_28\n      jump\t// in\n    tag_72:\n      mload(0x40)\n      dup1\n      swap2\n      sub\n      swap1\n      return\n        /* \"@openzeppelin/contracts/access/AccessControl.sol\":2027:2076  bytes32 public constant DEFAULT_ADMIN_ROLE = 0x00 */\n    tag_16:\n      tag_73\n      tag_74\n      jump\t// in\n    tag_73:\n      mload(0x40)\n      tag_75\n      swap2\n      swap1\n      tag_34\n      jump\t// in\n    tag_75:\n      mload(0x40)\n      dup1\n      swap2\n      sub\n      swap1\n      return\n        /* \"contracts/FinaSwap.sol\":3182:3319  function addBalance(bytes memory source, uint256 balance) public onlyRole(ADMIN_ROLE)\r... */\n    tag_17:\n      tag_76\n      0x04\n      dup1\n      calldatasize\n      sub\n      dup2\n      add\n      swap1\n      tag_77\n      swap2\n      swap1\n      tag_78\n      jump\t// in\n    tag_77:\n      tag_79\n      jump\t// in\n    tag_76:\n      stop\n        /* \"@openzeppelin/contracts/access/AccessControl.sol\":4766:4913  function revokeRole(bytes32 role, address account) public virtual override onlyRole(getRoleAdmin(role)) {... */\n    tag_18:\n      tag_80\n      0x04\n      dup1\n      calldatasize\n      sub\n      dup2\n      add\n      swap1\n      tag_81\n      swap2\n      swap1\n      tag_37\n      jump\t// in\n    tag_81:\n      tag_82\n      jump\t// in\n    tag_80:\n      stop\n        /* \"contracts/FinaSwap.sol\":414:476  bytes32 public constant PAUSER_ROLE = keccak256(\"PAUSER_ROLE\") */\n    tag_19:\n      tag_83\n      tag_84\n      jump\t// in\n    tag_83:\n      mload(0x40)\n      tag_85\n      swap2\n      swap1\n      tag_34\n      jump\t// in\n    tag_85:\n      mload(0x40)\n      dup1\n      swap2\n      sub\n      swap1\n      return\n        /* \"@openzeppelin/contracts/access/AccessControl.sol\":2620:2822  function supportsInterface(bytes4 interfaceId) public view virtual override returns (bool) {... */\n    tag_26:\n        /* \"@openzeppelin/contracts/access/AccessControl.sol\":2705:2709  bool */\n      0x00\n        /* \"@openzeppelin/contracts/access/AccessControl.sol\":2743:2775  type(IAccessControl).interfaceId */\n      0x7965db0b00000000000000000000000000000000000000000000000000000000\n        /* \"@openzeppelin/contracts/access/AccessControl.sol\":2728:2775  interfaceId == type(IAccessControl).interfaceId */\n      not(0xffffffffffffffffffffffffffffffffffffffffffffffffffffffff)\n      and\n        /* \"@openzeppelin/contracts/access/AccessControl.sol\":2728:2739  interfaceId */\n      dup3\n        /* \"@openzeppelin/contracts/access/AccessControl.sol\":2728:2775  interfaceId == type(IAccessControl).interfaceId */\n      not(0xffffffffffffffffffffffffffffffffffffffffffffffffffffffff)\n      and\n      eq\n        /* \"@openzeppelin/contracts/access/AccessControl.sol\":2728:2815  interfaceId == type(IAccessControl).interfaceId || super.supportsInterface(interfaceId) */\n      dup1\n      tag_87\n      jumpi\n      pop\n        /* \"@openzeppelin/contracts/access/AccessControl.sol\":2779:2815  super.supportsInterface(interfaceId) */\n      tag_88\n        /* \"@openzeppelin/contracts/access/AccessControl.sol\":2803:2814  interfaceId */\n      dup3\n        /* \"@openzeppelin/contracts/access/AccessControl.sol\":2779:2802  super.supportsInterface */\n      tag_89\n        /* \"@openzeppelin/contracts/access/AccessControl.sol\":2779:2815  super.supportsInterface(interfaceId) */\n      jump\t// in\n    tag_88:\n        /* \"@openzeppelin/contracts/access/AccessControl.sol\":2728:2815  interfaceId == type(IAccessControl).interfaceId || super.supportsInterface(interfaceId) */\n    tag_87:\n        /* \"@openzeppelin/contracts/access/AccessControl.sol\":2721:2815  return interfaceId == type(IAccessControl).interfaceId || super.supportsInterface(interfaceId) */\n      swap1\n      pop\n        /* \"@openzeppelin/contracts/access/AccessControl.sol\":2620:2822  function supportsInterface(bytes4 interfaceId) public view virtual override returns (bool) {... */\n      swap2\n      swap1\n      pop\n      jump\t// out\n        /* \"@openzeppelin/contracts/access/AccessControl.sol\":4008:4137  function getRoleAdmin(bytes32 role) public view virtual override returns (bytes32) {... */\n    tag_32:\n        /* \"@openzeppelin/contracts/access/AccessControl.sol\":4082:4089  bytes32 */\n      0x00\n        /* \"@openzeppelin/contracts/access/AccessControl.sol\":4108:4114  _roles */\n      0x01\n        /* \"@openzeppelin/contracts/access/AccessControl.sol\":4108:4120  _roles[role] */\n      0x00\n        /* \"@openzeppelin/contracts/access/AccessControl.sol\":4115:4119  role */\n      dup4\n        /* \"@openzeppelin/contracts/access/AccessControl.sol\":4108:4120  _roles[role] */\n      dup2\n      mstore\n      0x20\n      add\n      swap1\n      dup2\n      mstore\n      0x20\n      add\n      0x00\n      keccak256\n        /* \"@openzeppelin/contracts/access/AccessControl.sol\":4108:4130  _roles[role].adminRole */\n      0x01\n      add\n      sload\n        /* \"@openzeppelin/contracts/access/AccessControl.sol\":4101:4130  return _roles[role].adminRole */\n      swap1\n      pop\n        /* \"@openzeppelin/contracts/access/AccessControl.sol\":4008:4137  function getRoleAdmin(bytes32 role) public view virtual override returns (bytes32) {... */\n      swap2\n      swap1\n      pop\n      jump\t// out\n        /* \"@openzeppelin/contracts/access/AccessControl.sol\":4387:4532  function grantRole(bytes32 role, address account) public virtual override onlyRole(getRoleAdmin(role)) {... */\n    tag_38:\n        /* \"@openzeppelin/contracts/access/AccessControl.sol\":4470:4488  getRoleAdmin(role) */\n      tag_91\n        /* \"@openzeppelin/contracts/access/AccessControl.sol\":4483:4487  role */\n      dup3\n        /* \"@openzeppelin/contracts/access/AccessControl.sol\":4470:4482  getRoleAdmin */\n      tag_32\n        /* \"@openzeppelin/contracts/access/AccessControl.sol\":4470:4488  getRoleAdmin(role) */\n      jump\t// in\n    tag_91:\n        /* \"@openzeppelin/contracts/access/AccessControl.sol\":2505:2535  _checkRole(role, _msgSender()) */\n      tag_93\n        /* \"@openzeppelin/contracts/access/AccessControl.sol\":2516:2520  role */\n      dup2\n        /* \"@openzeppelin/contracts/access/AccessControl.sol\":2522:2534  _msgSender() */\n      tag_94\n        /* \"@openzeppelin/contracts/access/AccessControl.sol\":2522:2532  _msgSender */\n      tag_95\n        /* \"@openzeppelin/contracts/access/AccessControl.sol\":2522:2534  _msgSender() */\n      jump\t// in\n    tag_94:\n        /* \"@openzeppelin/contracts/access/AccessControl.sol\":2505:2515  _checkRole */\n      tag_96\n        /* \"@openzeppelin/contracts/access/AccessControl.sol\":2505:2535  _checkRole(role, _msgSender()) */\n      jump\t// in\n    tag_93:\n        /* \"@openzeppelin/contracts/access/AccessControl.sol\":4500:4525  _grantRole(role, account) */\n      tag_98\n        /* \"@openzeppelin/contracts/access/AccessControl.sol\":4511:4515  role */\n      dup4\n        /* \"@openzeppelin/contracts/access/AccessControl.sol\":4517:4524  account */\n      dup4\n        /* \"@openzeppelin/contracts/access/AccessControl.sol\":4500:4510  _grantRole */\n      tag_99\n        /* \"@openzeppelin/contracts/access/AccessControl.sol\":4500:4525  _grantRole(role, account) */\n      jump\t// in\n    tag_98:\n        /* \"@openzeppelin/contracts/access/AccessControl.sol\":4387:4532  function grantRole(bytes32 role, address account) public virtual override onlyRole(getRoleAdmin(role)) {... */\n      pop\n      pop\n      pop\n      jump\t// out\n        /* \"contracts/FinaSwap.sol\":3327:3444  function removeBalance(bytes memory source) public onlyRole(ADMIN_ROLE)\r... */\n    tag_42:\n        /* \"contracts/FinaSwap.sol\":384:407  keccak256(\"ADMIN_ROLE\") */\n      0xa49807205ce4d355092ef5a8a18f56e8913cf4a201fbe287825b095693c21775\n        /* \"@openzeppelin/contracts/access/AccessControl.sol\":2505:2535  _checkRole(role, _msgSender()) */\n      tag_101\n        /* \"@openzeppelin/contracts/access/AccessControl.sol\":2516:2520  role */\n      dup2\n        /* \"@openzeppelin/contracts/access/AccessControl.sol\":2522:2534  _msgSender() */\n      tag_102\n        /* \"@openzeppelin/contracts/access/AccessControl.sol\":2522:2532  _msgSender */\n      tag_95\n        /* \"@openzeppelin/contracts/access/AccessControl.sol\":2522:2534  _msgSender() */\n      jump\t// in\n    tag_102:\n        /* \"@openzeppelin/contracts/access/AccessControl.sol\":2505:2515  _checkRole */\n      tag_96\n        /* \"@openzeppelin/contracts/access/AccessControl.sol\":2505:2535  _checkRole(role, _msgSender()) */\n      jump\t// in\n    tag_101:\n        /* \"contracts/FinaSwap.sol\":3435:3436  0 */\n      0x00\n        /* \"contracts/FinaSwap.sol\":3415:3424  _balances */\n      0x03\n        /* \"contracts/FinaSwap.sol\":3425:3431  source */\n      dup4\n        /* \"contracts/FinaSwap.sol\":3415:3432  _balances[source] */\n      mload(0x40)\n      tag_104\n      swap2\n      swap1\n      tag_105\n      jump\t// in\n    tag_104:\n      swap1\n      dup2\n      mstore\n      0x20\n      add\n      mload(0x40)\n      dup1\n      swap2\n      sub\n      swap1\n      keccak256\n        /* \"contracts/FinaSwap.sol\":3415:3436  _balances[source] = 0 */\n      dup2\n      swap1\n      sstore\n      pop\n        /* \"contracts/FinaSwap.sol\":3327:3444  function removeBalance(bytes memory source) public onlyRole(ADMIN_ROLE)\r... */\n      pop\n      pop\n      jump\t// out\n        /* \"@openzeppelin/contracts/access/AccessControl.sol\":5404:5618  function renounceRole(bytes32 role, address account) public virtual override {... */\n    tag_45:\n        /* \"@openzeppelin/contracts/access/AccessControl.sol\":5510:5522  _msgSender() */\n      tag_107\n        /* \"@openzeppelin/contracts/access/AccessControl.sol\":5510:5520  _msgSender */\n      tag_95\n        /* \"@openzeppelin/contracts/access/AccessControl.sol\":5510:5522  _msgSender() */\n      jump\t// in\n    tag_107:\n        /* \"@openzeppelin/contracts/access/AccessControl.sol\":5499:5522  account == _msgSender() */\n      0xffffffffffffffffffffffffffffffffffffffff\n      and\n        /* \"@openzeppelin/contracts/access/AccessControl.sol\":5499:5506  account */\n      dup2\n        /* \"@openzeppelin/contracts/access/AccessControl.sol\":5499:5522  account == _msgSender() */\n      0xffffffffffffffffffffffffffffffffffffffff\n      and\n      eq\n        /* \"@openzeppelin/contracts/access/AccessControl.sol\":5491:5574  require(account == _msgSender(), \"AccessControl: can only renounce roles for self\") */\n      tag_108\n      jumpi\n      mload(0x40)\n      0x08c379a000000000000000000000000000000000000000000000000000000000\n      dup2\n      mstore\n      0x04\n      add\n      tag_109\n      swap1\n      tag_110\n      jump\t// in\n    tag_109:\n      mload(0x40)\n      dup1\n      swap2\n      sub\n      swap1\n      revert\n    tag_108:\n        /* \"@openzeppelin/contracts/access/AccessControl.sol\":5585:5611  _revokeRole(role, account) */\n      tag_111\n        /* \"@openzeppelin/contracts/access/AccessControl.sol\":5597:5601  role */\n      dup3\n        /* \"@openzeppelin/contracts/access/AccessControl.sol\":5603:5610  account */\n      dup3\n        /* \"@openzeppelin/contracts/access/AccessControl.sol\":5585:5596  _revokeRole */\n      tag_112\n        /* \"@openzeppelin/contracts/access/AccessControl.sol\":5585:5611  _revokeRole(role, account) */\n      jump\t// in\n    tag_111:\n        /* \"@openzeppelin/contracts/access/AccessControl.sol\":5404:5618  function renounceRole(bytes32 role, address account) public virtual override {... */\n      pop\n      pop\n      jump\t// out\n        /* \"contracts/FinaSwap.sol\":3790:3867  function unpause() public onlyRole(PAUSER_ROLE) {\r... */\n    tag_47:\n        /* \"contracts/FinaSwap.sol\":452:476  keccak256(\"PAUSER_ROLE\") */\n      0x65d7a28e3265b37a6474929f336521b332c1681b933f6cb9f3376673440d862a\n        /* \"@openzeppelin/contracts/access/AccessControl.sol\":2505:2535  _checkRole(role, _msgSender()) */\n      tag_114\n        /* \"@openzeppelin/contracts/access/AccessControl.sol\":2516:2520  role */\n      dup2\n        /* \"@openzeppelin/contracts/access/AccessControl.sol\":2522:2534  _msgSender() */\n      tag_115\n        /* \"@openzeppelin/contracts/access/AccessControl.sol\":2522:2532  _msgSender */\n      tag_95\n        /* \"@openzeppelin/contracts/access/AccessControl.sol\":2522:2534  _msgSender() */\n      jump\t// in\n    tag_115:\n        /* \"@openzeppelin/contracts/access/AccessControl.sol\":2505:2515  _checkRole */\n      tag_96\n        /* \"@openzeppelin/contracts/access/AccessControl.sol\":2505:2535  _checkRole(role, _msgSender()) */\n      jump\t// in\n    tag_114:\n        /* \"contracts/FinaSwap.sol\":3849:3859  _unpause() */\n      tag_117\n        /* \"contracts/FinaSwap.sol\":3849:3857  _unpause */\n      tag_118\n        /* \"contracts/FinaSwap.sol\":3849:3859  _unpause() */\n      jump\t// in\n    tag_117:\n        /* \"contracts/FinaSwap.sol\":3790:3867  function unpause() public onlyRole(PAUSER_ROLE) {\r... */\n      pop\n      jump\t// out\n        /* \"contracts/FinaSwap.sol\":3452:3575  function setNativeValue(uint256 nativeValue) public onlyRole(ADMIN_ROLE)\r... */\n    tag_51:\n        /* \"contracts/FinaSwap.sol\":384:407  keccak256(\"ADMIN_ROLE\") */\n      0xa49807205ce4d355092ef5a8a18f56e8913cf4a201fbe287825b095693c21775\n        /* \"@openzeppelin/contracts/access/AccessControl.sol\":2505:2535  _checkRole(role, _msgSender()) */\n      tag_120\n        /* \"@openzeppelin/contracts/access/AccessControl.sol\":2516:2520  role */\n      dup2\n        /* \"@openzeppelin/contracts/access/AccessControl.sol\":2522:2534  _msgSender() */\n      tag_121\n        /* \"@openzeppelin/contracts/access/AccessControl.sol\":2522:2532  _msgSender */\n      tag_95\n        /* \"@openzeppelin/contracts/access/AccessControl.sol\":2522:2534  _msgSender() */\n      jump\t// in\n    tag_121:\n        /* \"@openzeppelin/contracts/access/AccessControl.sol\":2505:2515  _checkRole */\n      tag_96\n        /* \"@openzeppelin/contracts/access/AccessControl.sol\":2505:2535  _checkRole(role, _msgSender()) */\n      jump\t// in\n    tag_120:\n        /* \"contracts/FinaSwap.sol\":3556:3567  nativeValue */\n      dup2\n        /* \"contracts/FinaSwap.sol\":3541:3553  _nativeValue */\n      0x02\n        /* \"contracts/FinaSwap.sol\":3541:3567  _nativeValue = nativeValue */\n      dup2\n      swap1\n      sstore\n      pop\n        /* \"contracts/FinaSwap.sol\":3452:3575  function setNativeValue(uint256 nativeValue) public onlyRole(ADMIN_ROLE)\r... */\n      pop\n      pop\n      jump\t// out\n        /* \"@openzeppelin/contracts/security/Pausable.sol\":1098:1182  function paused() public view virtual returns (bool) {... */\n    tag_53:\n        /* \"@openzeppelin/contracts/security/Pausable.sol\":1145:1149  bool */\n      0x00\n        /* \"@openzeppelin/contracts/security/Pausable.sol\":1168:1175  _paused */\n      dup1\n      0x00\n      swap1\n      sload\n      swap1\n      0x0100\n      exp\n      swap1\n      div\n      0xff\n      and\n        /* \"@openzeppelin/contracts/security/Pausable.sol\":1161:1175  return _paused */\n      swap1\n      pop\n        /* \"@openzeppelin/contracts/security/Pausable.sol\":1098:1182  function paused() public view virtual returns (bool) {... */\n      swap1\n      jump\t// out\n        /* \"contracts/FinaSwap.sol\":1031:3174  function claim(address target, bytes32 hash, bytes memory signature) public whenNotPaused\r... */\n    tag_58:\n        /* \"@openzeppelin/contracts/security/Pausable.sol\":1412:1420  paused() */\n      tag_125\n        /* \"@openzeppelin/contracts/security/Pausable.sol\":1412:1418  paused */\n      tag_53\n        /* \"@openzeppelin/contracts/security/Pausable.sol\":1412:1420  paused() */\n      jump\t// in\n    tag_125:\n        /* \"@openzeppelin/contracts/security/Pausable.sol\":1411:1420  !paused() */\n      iszero\n        /* \"@openzeppelin/contracts/security/Pausable.sol\":1403:1441  require(!paused(), \"Pausable: paused\") */\n      tag_126\n      jumpi\n      mload(0x40)\n      0x08c379a000000000000000000000000000000000000000000000000000000000\n      dup2\n      mstore\n      0x04\n      add\n      tag_127\n      swap1\n      tag_128\n      jump\t// in\n    tag_127:\n      mload(0x40)\n      dup1\n      swap2\n      sub\n      swap1\n      revert\n    tag_126:\n        /* \"contracts/FinaSwap.sol\":1163:1164  0 */\n      0x00\n        /* \"contracts/FinaSwap.sol\":1145:1165  target != address(0) */\n      0xffffffffffffffffffffffffffffffffffffffff\n      and\n        /* \"contracts/FinaSwap.sol\":1145:1151  target */\n      dup4\n        /* \"contracts/FinaSwap.sol\":1145:1165  target != address(0) */\n      0xffffffffffffffffffffffffffffffffffffffff\n      and\n      eq\n      iszero\n        /* \"contracts/FinaSwap.sol\":1137:1214  require(target != address(0), \"FinaSwap:claim Target address cannot be zero\") */\n      tag_130\n      jumpi\n      mload(0x40)\n      0x08c379a000000000000000000000000000000000000000000000000000000000\n      dup2\n      mstore\n      0x04\n      add\n      tag_131\n      swap1\n      tag_132\n      jump\t// in\n    tag_131:\n      mload(0x40)\n      dup1\n      swap2\n      sub\n      swap1\n      revert\n    tag_130:\n        /* \"contracts/FinaSwap.sol\":1244:1245  0 */\n      0x00\n        /* \"contracts/FinaSwap.sol\":1233:1245  hash[0] != 0 */\n      0xf8\n      shl\n        /* \"contracts/FinaSwap.sol\":1233:1237  hash */\n      dup3\n        /* \"contracts/FinaSwap.sol\":1238:1239  0 */\n      0x00\n        /* \"contracts/FinaSwap.sol\":1233:1240  hash[0] */\n      0x20\n      dup2\n      lt\n      tag_133\n      jumpi\n      mstore(0x00, 0x4e487b7100000000000000000000000000000000000000000000000000000000)\n      mstore(0x04, 0x32)\n      revert(0x00, 0x24)\n    tag_133:\n      byte\n      0xf8\n      shl\n        /* \"contracts/FinaSwap.sol\":1233:1245  hash[0] != 0 */\n      not(0xffffffffffffffffffffffffffffffffffffffffffffffffffffffffffffff)\n      and\n      eq\n      iszero\n        /* \"contracts/FinaSwap.sol\":1225:1291  require(hash[0] != 0, \"FinaSwap:claim Signature hash is required\") */\n      tag_134\n      jumpi\n      mload(0x40)\n      0x08c379a000000000000000000000000000000000000000000000000000000000\n      dup2\n      mstore\n      0x04\n      add\n      tag_135\n      swap1\n      tag_136\n      jump\t// in\n    tag_135:\n      mload(0x40)\n      dup1\n      swap2\n      sub\n      swap1\n      revert\n    tag_134:\n        /* \"contracts/FinaSwap.sol\":1330:1332  65 */\n      0x41\n        /* \"contracts/FinaSwap.sol\":1310:1319  signature */\n      dup2\n        /* \"contracts/FinaSwap.sol\":1310:1326  signature.length */\n      mload\n        /* \"contracts/FinaSwap.sol\":1310:1332  signature.length == 65 */\n      eq\n        /* \"contracts/FinaSwap.sol\":1302:1416  require(signature.length == 65, \"FinaSwap:claim Invalid signature length. The signature must be exactly 65 bytes\") */\n      tag_137\n      jumpi\n      mload(0x40)\n      0x08c379a000000000000000000000000000000000000000000000000000000000\n      dup2\n      mstore\n      0x04\n      add\n      tag_138\n      swap1\n      tag_139\n      jump\t// in\n    tag_138:\n      mload(0x40)\n      dup1\n      swap2\n      sub\n      swap1\n      revert\n    tag_137:\n        /* \"contracts/FinaSwap.sol\":1482:1504  bytes memory publicKey */\n      0x00\n        /* \"contracts/FinaSwap.sol\":1507:1513  _ecdsa */\n      immutable(\"0x8aa1c539d88d2917ab61113c1a4fcdb5d84bdff1b85c257152c86b49e7f24537\")\n        /* \"contracts/FinaSwap.sol\":1507:1521  _ecdsa.recover */\n      0xffffffffffffffffffffffffffffffffffffffff\n      and\n      0x19045a25\n        /* \"contracts/FinaSwap.sol\":1522:1526  hash */\n      dup5\n        /* \"contracts/FinaSwap.sol\":1528:1537  signature */\n      dup5\n        /* \"contracts/FinaSwap.sol\":1507:1538  _ecdsa.recover(hash, signature) */\n      mload(0x40)\n      dup4\n      0xffffffff\n      and\n      0xe0\n      shl\n      dup2\n      mstore\n      0x04\n      add\n      tag_140\n      swap3\n      swap2\n      swap1\n      tag_141\n      jump\t// in\n    tag_140:\n      0x00\n      mload(0x40)\n      dup1\n      dup4\n      sub\n      dup2\n      dup7\n      dup1\n      extcodesize\n      iszero\n      dup1\n      iszero\n      tag_142\n      jumpi\n      0x00\n      dup1\n      revert\n    tag_142:\n      pop\n      gas\n      staticcall\n      iszero\n      dup1\n      iszero\n      tag_144\n      jumpi\n      returndatasize\n      0x00\n      dup1\n      returndatacopy\n      revert(0x00, returndatasize)\n    tag_144:\n      pop\n      pop\n      pop\n      pop\n      mload(0x40)\n      returndatasize\n      0x00\n      dup3\n      returndatacopy\n      returndatasize\n      not(0x1f)\n      0x1f\n      dup3\n      add\n      and\n      dup3\n      add\n      dup1\n      0x40\n      mstore\n      pop\n      dup2\n      add\n      swap1\n      tag_145\n      swap2\n      swap1\n      tag_146\n      jump\t// in\n    tag_145:\n        /* \"contracts/FinaSwap.sol\":1482:1538  bytes memory publicKey = _ecdsa.recover(hash, signature) */\n      swap1\n      pop\n        /* \"contracts/FinaSwap.sol\":1649:1651  33 */\n      0x21\n        /* \"contracts/FinaSwap.sol\":1629:1638  publicKey */\n      dup2\n        /* \"contracts/FinaSwap.sol\":1629:1645  publicKey.length */\n      mload\n        /* \"contracts/FinaSwap.sol\":1629:1651  publicKey.length == 33 */\n      eq\n        /* \"contracts/FinaSwap.sol\":1621:1739  require(publicKey.length == 33, \"FinaSwap:claim Invalid signature. The recovered public key must be exactly 33 bytes\") */\n      tag_147\n      jumpi\n      mload(0x40)\n      0x08c379a000000000000000000000000000000000000000000000000000000000\n      dup2\n      mstore\n      0x04\n      add\n      tag_148\n      swap1\n      tag_149\n      jump\t// in\n    tag_148:\n      mload(0x40)\n      dup1\n      swap2\n      sub\n      swap1\n      revert\n    tag_147:\n        /* \"contracts/FinaSwap.sol\":1813:1840  bytes32 publicKeySha256Hash */\n      0x00\n        /* \"contracts/FinaSwap.sol\":1843:1860  sha256(publicKey) */\n      0x02\n        /* \"contracts/FinaSwap.sol\":1850:1859  publicKey */\n      dup3\n        /* \"contracts/FinaSwap.sol\":1843:1860  sha256(publicKey) */\n      mload(0x40)\n      tag_150\n      swap2\n      swap1\n      tag_105\n      jump\t// in\n    tag_150:\n      0x20\n      mload(0x40)\n      dup1\n      dup4\n      sub\n      dup2\n      dup6\n      gas\n      staticcall\n      iszero\n      dup1\n      iszero\n      tag_152\n      jumpi\n      returndatasize\n      0x00\n      dup1\n      returndatacopy\n      revert(0x00, returndatasize)\n    tag_152:\n      pop\n      pop\n      pop\n      mload(0x40)\n      returndatasize\n      not(0x1f)\n      0x1f\n      dup3\n      add\n      and\n      dup3\n      add\n      dup1\n      0x40\n      mstore\n      pop\n      dup2\n      add\n      swap1\n      tag_153\n      swap2\n      swap1\n      tag_154\n      jump\t// in\n    tag_153:\n        /* \"contracts/FinaSwap.sol\":1813:1860  bytes32 publicKeySha256Hash = sha256(publicKey) */\n      swap1\n      pop\n        /* \"contracts/FinaSwap.sol\":1957:1990  bytes memory publicKeyRipe160Hash */\n      0x00\n        /* \"contracts/FinaSwap.sol\":2010:2058  ripemd160(abi.encodePacked(publicKeySha256Hash)) */\n      0x03\n        /* \"contracts/FinaSwap.sol\":2037:2056  publicKeySha256Hash */\n      dup3\n        /* \"contracts/FinaSwap.sol\":2020:2057  abi.encodePacked(publicKeySha256Hash) */\n      add(0x20, mload(0x40))\n      tag_155\n      swap2\n      swap1\n      tag_156\n      jump\t// in\n    tag_155:\n      mload(0x40)\n      0x20\n      dup2\n      dup4\n      sub\n      sub\n      dup2\n      mstore\n      swap1\n      0x40\n      mstore\n        /* \"contracts/FinaSwap.sol\":2010:2058  ripemd160(abi.encodePacked(publicKeySha256Hash)) */\n      mload(0x40)\n      tag_157\n      swap2\n      swap1\n      tag_105\n      jump\t// in\n    tag_157:\n      0x20\n      mload(0x40)\n      dup1\n      dup4\n      sub\n      dup2\n      dup6\n      gas\n      staticcall\n      iszero\n      dup1\n      iszero\n      tag_159\n      jumpi\n      returndatasize\n      0x00\n      dup1\n      returndatacopy\n      revert(0x00, returndatasize)\n    tag_159:\n      pop\n      pop\n      pop\n      shl(0x60, mload(mload(0x40)))\n        /* \"contracts/FinaSwap.sol\":1993:2059  abi.encodePacked(ripemd160(abi.encodePacked(publicKeySha256Hash))) */\n      add(0x20, mload(0x40))\n      tag_160\n      swap2\n      swap1\n      tag_161\n      jump\t// in\n    tag_160:\n      mload(0x40)\n      0x20\n      dup2\n      dup4\n      sub\n      sub\n      dup2\n      mstore\n      swap1\n      0x40\n      mstore\n        /* \"contracts/FinaSwap.sol\":1957:2059  bytes memory publicKeyRipe160Hash = abi.encodePacked(ripemd160(abi.encodePacked(publicKeySha256Hash))) */\n      swap1\n      pop\n        /* \"contracts/FinaSwap.sol\":2127:2161  bytes memory publicKeyPrefixedHash */\n      0x00\n        /* \"contracts/FinaSwap.sol\":2177:2184  _prefix */\n      immutable(\"0x9b0d5a2681b52b4560ba0a55dc00d44d52ed130b12e9b1ecacbe9f4e75788d40\")\n        /* \"contracts/FinaSwap.sol\":2186:2206  publicKeyRipe160Hash */\n      dup3\n        /* \"contracts/FinaSwap.sol\":2164:2207  bytes.concat(_prefix, publicKeyRipe160Hash) */\n      add(0x20, mload(0x40))\n      tag_162\n      swap3\n      swap2\n      swap1\n      tag_163\n      jump\t// in\n    tag_162:\n      mload(0x40)\n      0x20\n      dup2\n      dup4\n      sub\n      sub\n      dup2\n      mstore\n      swap1\n      0x40\n      mstore\n        /* \"contracts/FinaSwap.sol\":2127:2207  bytes memory publicKeyPrefixedHash = bytes.concat(_prefix, publicKeyRipe160Hash) */\n      swap1\n      pop\n        /* \"contracts/FinaSwap.sol\":2301:2339  bytes memory publicKeyDoubleSha256Hash */\n      0x00\n        /* \"contracts/FinaSwap.sol\":2359:2414  sha256(abi.encodePacked(sha256(publicKeyPrefixedHash))) */\n      0x02\n        /* \"contracts/FinaSwap.sol\":2383:2412  sha256(publicKeyPrefixedHash) */\n      dup1\n        /* \"contracts/FinaSwap.sol\":2390:2411  publicKeyPrefixedHash */\n      dup4\n        /* \"contracts/FinaSwap.sol\":2383:2412  sha256(publicKeyPrefixedHash) */\n      mload(0x40)\n      tag_164\n      swap2\n      swap1\n      tag_105\n      jump\t// in\n    tag_164:\n      0x20\n      mload(0x40)\n      dup1\n      dup4\n      sub\n      dup2\n      dup6\n      gas\n      staticcall\n      iszero\n      dup1\n      iszero\n      tag_166\n      jumpi\n      returndatasize\n      0x00\n      dup1\n      returndatacopy\n      revert(0x00, returndatasize)\n    tag_166:\n      pop\n      pop\n      pop\n      mload(0x40)\n      returndatasize\n      not(0x1f)\n      0x1f\n      dup3\n      add\n      and\n      dup3\n      add\n      dup1\n      0x40\n      mstore\n      pop\n      dup2\n      add\n      swap1\n      tag_167\n      swap2\n      swap1\n      tag_154\n      jump\t// in\n    tag_167:\n        /* \"contracts/FinaSwap.sol\":2366:2413  abi.encodePacked(sha256(publicKeyPrefixedHash)) */\n      add(0x20, mload(0x40))\n      tag_168\n      swap2\n      swap1\n      tag_156\n      jump\t// in\n    tag_168:\n      mload(0x40)\n      0x20\n      dup2\n      dup4\n      sub\n      sub\n      dup2\n      mstore\n      swap1\n      0x40\n      mstore\n        /* \"contracts/FinaSwap.sol\":2359:2414  sha256(abi.encodePacked(sha256(publicKeyPrefixedHash))) */\n      mload(0x40)\n      tag_169\n      swap2\n      swap1\n      tag_105\n      jump\t// in\n    tag_169:\n      0x20\n      mload(0x40)\n      dup1\n      dup4\n      sub\n      dup2\n      dup6\n      gas\n      staticcall\n      iszero\n      dup1\n      iszero\n      tag_171\n      jumpi\n      returndatasize\n      0x00\n      dup1\n      returndatacopy\n      revert(0x00, returndatasize)\n    tag_171:\n      pop\n      pop\n      pop\n      mload(0x40)\n      returndatasize\n      not(0x1f)\n      0x1f\n      dup3\n      add\n      and\n      dup3\n      add\n      dup1\n      0x40\n      mstore\n      pop\n      dup2\n      add\n      swap1\n      tag_172\n      swap2\n      swap1\n      tag_154\n      jump\t// in\n    tag_172:\n        /* \"contracts/FinaSwap.sol\":2342:2415  abi.encodePacked(sha256(abi.encodePacked(sha256(publicKeyPrefixedHash)))) */\n      add(0x20, mload(0x40))\n      tag_173\n      swap2\n      swap1\n      tag_156\n      jump\t// in\n    tag_173:\n      mload(0x40)\n      0x20\n      dup2\n      dup4\n      sub\n      sub\n      dup2\n      mstore\n      swap1\n      0x40\n      mstore\n        /* \"contracts/FinaSwap.sol\":2301:2415  bytes memory publicKeyDoubleSha256Hash = abi.encodePacked(sha256(abi.encodePacked(sha256(publicKeyPrefixedHash)))) */\n      swap1\n      pop\n        /* \"contracts/FinaSwap.sol\":2496:2522  bytes memory publicKeyPart */\n      0x00\n        /* \"contracts/FinaSwap.sol\":2525:2574  BytesUtils.slice(publicKeyDoubleSha256Hash, 0, 4) */\n      tag_174\n        /* \"contracts/FinaSwap.sol\":2542:2567  publicKeyDoubleSha256Hash */\n      dup3\n        /* \"contracts/FinaSwap.sol\":2569:2570  0 */\n      0x00\n        /* \"contracts/FinaSwap.sol\":2572:2573  4 */\n      0x04\n        /* \"contracts/FinaSwap.sol\":2525:2541  BytesUtils.slice */\n      tag_175\n        /* \"contracts/FinaSwap.sol\":2525:2574  BytesUtils.slice(publicKeyDoubleSha256Hash, 0, 4) */\n      jump\t// in\n    tag_174:\n        /* \"contracts/FinaSwap.sol\":2496:2574  bytes memory publicKeyPart = BytesUtils.slice(publicKeyDoubleSha256Hash, 0, 4) */\n      swap1\n      pop\n        /* \"contracts/FinaSwap.sol\":2693:2722  bytes memory publicKeyAddress */\n      0x00\n        /* \"contracts/FinaSwap.sol\":2738:2759  publicKeyPrefixedHash */\n      dup4\n        /* \"contracts/FinaSwap.sol\":2761:2774  publicKeyPart */\n      dup3\n        /* \"contracts/FinaSwap.sol\":2725:2775  bytes.concat(publicKeyPrefixedHash, publicKeyPart) */\n      add(0x20, mload(0x40))\n      tag_176\n      swap3\n      swap2\n      swap1\n      tag_177\n      jump\t// in\n    tag_176:\n      mload(0x40)\n      0x20\n      dup2\n      dup4\n      sub\n      sub\n      dup2\n      mstore\n      swap1\n      0x40\n      mstore\n        /* \"contracts/FinaSwap.sol\":2693:2775  bytes memory publicKeyAddress = bytes.concat(publicKeyPrefixedHash, publicKeyPart) */\n      swap1\n      pop\n        /* \"contracts/FinaSwap.sol\":2788:2803  uint256 balance */\n      0x00\n        /* \"contracts/FinaSwap.sol\":2806:2815  _balances */\n      0x03\n        /* \"contracts/FinaSwap.sol\":2816:2832  publicKeyAddress */\n      dup3\n        /* \"contracts/FinaSwap.sol\":2806:2833  _balances[publicKeyAddress] */\n      mload(0x40)\n      tag_178\n      swap2\n      swap1\n      tag_105\n      jump\t// in\n    tag_178:\n      swap1\n      dup2\n      mstore\n      0x20\n      add\n      mload(0x40)\n      dup1\n      swap2\n      sub\n      swap1\n      keccak256\n      sload\n        /* \"contracts/FinaSwap.sol\":2788:2833  uint256 balance = _balances[publicKeyAddress] */\n      swap1\n      pop\n        /* \"contracts/FinaSwap.sol\":2862:2863  0 */\n      0x00\n        /* \"contracts/FinaSwap.sol\":2852:2859  balance */\n      dup2\n        /* \"contracts/FinaSwap.sol\":2852:2863  balance > 0 */\n      gt\n        /* \"contracts/FinaSwap.sol\":2844:2898  require(balance > 0, \"FinaSwap:claim already swapped\") */\n      tag_179\n      jumpi\n      mload(0x40)\n      0x08c379a000000000000000000000000000000000000000000000000000000000\n      dup2\n      mstore\n      0x04\n      add\n      tag_180\n      swap1\n      tag_181\n      jump\t// in\n    tag_180:\n      mload(0x40)\n      dup1\n      swap2\n      sub\n      swap1\n      revert\n    tag_179:\n        /* \"contracts/FinaSwap.sol\":2941:2942  0 */\n      0x00\n        /* \"contracts/FinaSwap.sol\":2911:2920  _balances */\n      0x03\n        /* \"contracts/FinaSwap.sol\":2921:2937  publicKeyAddress */\n      dup4\n        /* \"contracts/FinaSwap.sol\":2911:2938  _balances[publicKeyAddress] */\n      mload(0x40)\n      tag_182\n      swap2\n      swap1\n      tag_105\n      jump\t// in\n    tag_182:\n      swap1\n      dup2\n      mstore\n      0x20\n      add\n      mload(0x40)\n      dup1\n      swap2\n      sub\n      swap1\n      keccak256\n        /* \"contracts/FinaSwap.sol\":2911:2942  _balances[publicKeyAddress] = 0 */\n      dup2\n      swap1\n      sstore\n      pop\n        /* \"contracts/FinaSwap.sol\":2955:2961  _token */\n      immutable(\"0xb0c7bc42bdbc6fc210fecd6a5f5b923061cceb0f8ca5c7d964d5c22fc0e4b0b6\")\n        /* \"contracts/FinaSwap.sol\":2955:2966  _token.mint */\n      0xffffffffffffffffffffffffffffffffffffffff\n      and\n      0x40c10f19\n        /* \"contracts/FinaSwap.sol\":2967:2973  target */\n      dup13\n        /* \"contracts/FinaSwap.sol\":2975:2982  balance */\n      dup4\n        /* \"contracts/FinaSwap.sol\":2955:2983  _token.mint(target, balance) */\n      mload(0x40)\n      dup4\n      0xffffffff\n      and\n      0xe0\n      shl\n      dup2\n      mstore\n      0x04\n      add\n      tag_183\n      swap3\n      swap2\n      swap1\n      tag_184\n      jump\t// in\n    tag_183:\n      0x00\n      mload(0x40)\n      dup1\n      dup4\n      sub\n      dup2\n      dup7\n      dup1\n      extcodesize\n      iszero\n      dup1\n      iszero\n      tag_185\n      jumpi\n      0x00\n      dup1\n      revert\n    tag_185:\n      pop\n      gas\n      staticcall\n      iszero\n      dup1\n      iszero\n      tag_187\n      jumpi\n      returndatasize\n      0x00\n      dup1\n      returndatacopy\n      revert(0x00, returndatasize)\n    tag_187:\n      pop\n      pop\n      pop\n      pop\n        /* \"contracts/FinaSwap.sol\":3015:3016  0 */\n      0x00\n        /* \"contracts/FinaSwap.sol\":3000:3012  _nativeValue */\n      sload(0x02)\n        /* \"contracts/FinaSwap.sol\":3000:3016  _nativeValue > 0 */\n      gt\n        /* \"contracts/FinaSwap.sol\":2996:3167  if (_nativeValue > 0)\r... */\n      iszero\n      tag_188\n      jumpi\n        /* \"contracts/FinaSwap.sol\":3043:3052  bool sent */\n      0x00\n        /* \"contracts/FinaSwap.sol\":3057:3063  target */\n      dup12\n        /* \"contracts/FinaSwap.sol\":3057:3068  target.call */\n      0xffffffffffffffffffffffffffffffffffffffff\n      and\n        /* \"contracts/FinaSwap.sol\":3076:3088  _nativeValue */\n      sload(0x02)\n        /* \"contracts/FinaSwap.sol\":3057:3093  target.call{value: _nativeValue}(\"\") */\n      mload(0x40)\n      tag_189\n      swap1\n      tag_190\n      jump\t// in\n    tag_189:\n      0x00\n      mload(0x40)\n      dup1\n      dup4\n      sub\n      dup2\n      dup6\n      dup8\n      gas\n      call\n      swap3\n      pop\n      pop\n      pop\n      returndatasize\n      dup1\n      0x00\n      dup2\n      eq\n      tag_193\n      jumpi\n      mload(0x40)\n      swap2\n      pop\n      and(add(returndatasize, 0x3f), not(0x1f))\n      dup3\n      add\n      0x40\n      mstore\n      returndatasize\n      dup3\n      mstore\n      returndatasize\n      0x00\n      0x20\n      dup5\n      add\n      returndatacopy\n      jump(tag_192)\n    tag_193:\n      0x60\n      swap2\n      pop\n    tag_192:\n      pop\n        /* \"contracts/FinaSwap.sol\":3042:3093  (bool sent,) = target.call{value: _nativeValue}(\"\") */\n      pop\n      swap1\n      pop\n        /* \"contracts/FinaSwap.sol\":3116:3120  sent */\n      dup1\n        /* \"contracts/FinaSwap.sol\":3108:3155  require(sent, \"Failed to send native currency\") */\n      tag_194\n      jumpi\n      mload(0x40)\n      0x08c379a000000000000000000000000000000000000000000000000000000000\n      dup2\n      mstore\n      0x04\n      add\n      tag_195\n      swap1\n      tag_196\n      jump\t// in\n    tag_195:\n      mload(0x40)\n      dup1\n      swap2\n      sub\n      swap1\n      revert\n    tag_194:\n        /* \"contracts/FinaSwap.sol\":2996:3167  if (_nativeValue > 0)\r... */\n      pop\n    tag_188:\n        /* \"@openzeppelin/contracts/security/Pausable.sol\":1451:1452  _ */\n      pop\n      pop\n      pop\n      pop\n      pop\n      pop\n      pop\n      pop\n        /* \"contracts/FinaSwap.sol\":1031:3174  function claim(address target, bytes32 hash, bytes memory signature) public whenNotPaused\r... */\n      pop\n      pop\n      pop\n      jump\t// out\n        /* \"contracts/FinaSwap.sol\":347:407  bytes32 public constant ADMIN_ROLE = keccak256(\"ADMIN_ROLE\") */\n    tag_60:\n        /* \"contracts/FinaSwap.sol\":384:407  keccak256(\"ADMIN_ROLE\") */\n      0xa49807205ce4d355092ef5a8a18f56e8913cf4a201fbe287825b095693c21775\n        /* \"contracts/FinaSwap.sol\":347:407  bytes32 public constant ADMIN_ROLE = keccak256(\"ADMIN_ROLE\") */\n      dup2\n      jump\t// out\n        /* \"contracts/FinaSwap.sol\":3583:3701  function balanceOf(bytes memory source) public view returns (uint256)\r... */\n    tag_64:\n        /* \"contracts/FinaSwap.sol\":3644:3651  uint256 */\n      0x00\n        /* \"contracts/FinaSwap.sol\":3676:3685  _balances */\n      0x03\n        /* \"contracts/FinaSwap.sol\":3686:3692  source */\n      dup3\n        /* \"contracts/FinaSwap.sol\":3676:3693  _balances[source] */\n      mload(0x40)\n      tag_198\n      swap2\n      swap1\n      tag_105\n      jump\t// in\n    tag_198:\n      swap1\n      dup2\n      mstore\n      0x20\n      add\n      mload(0x40)\n      dup1\n      swap2\n      sub\n      swap1\n      keccak256\n      sload\n        /* \"contracts/FinaSwap.sol\":3669:3693  return _balances[source] */\n      swap1\n      pop\n        /* \"contracts/FinaSwap.sol\":3583:3701  function balanceOf(bytes memory source) public view returns (uint256)\r... */\n      swap2\n      swap1\n      pop\n      jump\t// out\n        /* \"contracts/FinaSwap.sol\":3709:3782  function pause() public onlyRole(PAUSER_ROLE) {\r... */\n    tag_68:\n        /* \"contracts/FinaSwap.sol\":452:476  keccak256(\"PAUSER_ROLE\") */\n      0x65d7a28e3265b37a6474929f336521b332c1681b933f6cb9f3376673440d862a\n        /* \"@openzeppelin/contracts/access/AccessControl.sol\":2505:2535  _checkRole(role, _msgSender()) */\n      tag_200\n        /* \"@openzeppelin/contracts/access/AccessControl.sol\":2516:2520  role */\n      dup2\n        /* \"@openzeppelin/contracts/access/AccessControl.sol\":2522:2534  _msgSender() */\n      tag_201\n        /* \"@openzeppelin/contracts/access/AccessControl.sol\":2522:2532  _msgSender */\n      tag_95\n        /* \"@openzeppelin/contracts/access/AccessControl.sol\":2522:2534  _msgSender() */\n      jump\t// in\n    tag_201:\n        /* \"@openzeppelin/contracts/access/AccessControl.sol\":2505:2515  _checkRole */\n      tag_96\n        /* \"@openzeppelin/contracts/access/AccessControl.sol\":2505:2535  _checkRole(role, _msgSender()) */\n      jump\t// in\n    tag_200:\n        /* \"contracts/FinaSwap.sol\":3766:3774  _pause() */\n      tag_203\n        /* \"contracts/FinaSwap.sol\":3766:3772  _pause */\n      tag_204\n        /* \"contracts/FinaSwap.sol\":3766:3774  _pause() */\n      jump\t// in\n    tag_203:\n        /* \"contracts/FinaSwap.sol\":3709:3782  function pause() public onlyRole(PAUSER_ROLE) {\r... */\n      pop\n      jump\t// out\n        /* \"@openzeppelin/contracts/access/AccessControl.sol\":2909:3054  function hasRole(bytes32 role, address account) public view virtual override returns (bool) {... */\n    tag_71:\n        /* \"@openzeppelin/contracts/access/AccessControl.sol\":2995:2999  bool */\n      0x00\n        /* \"@openzeppelin/contracts/access/AccessControl.sol\":3018:3024  _roles */\n      0x01\n        /* \"@openzeppelin/contracts/access/AccessControl.sol\":3018:3030  _roles[role] */\n      0x00\n        /* \"@openzeppelin/contracts/access/AccessControl.sol\":3025:3029  role */\n      dup5\n        /* \"@openzeppelin/contracts/access/AccessControl.sol\":3018:3030  _roles[role] */\n      dup2\n      mstore\n      0x20\n      add\n      swap1\n      dup2\n      mstore\n      0x20\n      add\n      0x00\n      keccak256\n        /* \"@openzeppelin/contracts/access/AccessControl.sol\":3018:3038  _roles[role].members */\n      0x00\n      add\n        /* \"@openzeppelin/contracts/access/AccessControl.sol\":3018:3047  _roles[role].members[account] */\n      0x00\n        /* \"@openzeppelin/contracts/access/AccessControl.sol\":3039:3046  account */\n      dup4\n        /* \"@openzeppelin/contracts/access/AccessControl.sol\":3018:3047  _roles[role].members[account] */\n      0xffffffffffffffffffffffffffffffffffffffff\n      and\n      0xffffffffffffffffffffffffffffffffffffffff\n      and\n      dup2\n      mstore\n      0x20\n      add\n      swap1\n      dup2\n      mstore\n      0x20\n      add\n      0x00\n      keccak256\n      0x00\n      swap1\n      sload\n      swap1\n      0x0100\n      exp\n      swap1\n      div\n      0xff\n      and\n        /* \"@openzeppelin/contracts/access/AccessControl.sol\":3011:3047  return _roles[role].members[account] */\n      swap1\n      pop\n        /* \"@openzeppelin/contracts/access/AccessControl.sol\":2909:3054  function hasRole(bytes32 role, address account) public view virtual override returns (bool) {... */\n      swap3\n      swap2\n      pop\n      pop\n      jump\t// out\n        /* \"@openzeppelin/contracts/access/AccessControl.sol\":2027:2076  bytes32 public constant DEFAULT_ADMIN_ROLE = 0x00 */\n    tag_74:\n        /* \"@openzeppelin/contracts/access/AccessControl.sol\":2072:2076  0x00 */\n      0x00\n        /* \"@openzeppelin/contracts/access/AccessControl.sol\":2027:2076  bytes32 public constant DEFAULT_ADMIN_ROLE = 0x00 */\n      dup1\n      shl\n      dup2\n      jump\t// out\n        /* \"contracts/FinaSwap.sol\":3182:3319  function addBalance(bytes memory source, uint256 balance) public onlyRole(ADMIN_ROLE)\r... */\n    tag_79:\n        /* \"contracts/FinaSwap.sol\":384:407  keccak256(\"ADMIN_ROLE\") */\n      0xa49807205ce4d355092ef5a8a18f56e8913cf4a201fbe287825b095693c21775\n        /* \"@openzeppelin/contracts/access/AccessControl.sol\":2505:2535  _checkRole(role, _msgSender()) */\n      tag_207\n        /* \"@openzeppelin/contracts/access/AccessControl.sol\":2516:2520  role */\n      dup2\n        /* \"@openzeppelin/contracts/access/AccessControl.sol\":2522:2534  _msgSender() */\n      tag_208\n        /* \"@openzeppelin/contracts/access/AccessControl.sol\":2522:2532  _msgSender */\n      tag_95\n        /* \"@openzeppelin/contracts/access/AccessControl.sol\":2522:2534  _msgSender() */\n      jump\t// in\n    tag_208:\n        /* \"@openzeppelin/contracts/access/AccessControl.sol\":2505:2515  _checkRole */\n      tag_96\n        /* \"@openzeppelin/contracts/access/AccessControl.sol\":2505:2535  _checkRole(role, _msgSender()) */\n      jump\t// in\n    tag_207:\n        /* \"contracts/FinaSwap.sol\":3304:3311  balance */\n      dup2\n        /* \"contracts/FinaSwap.sol\":3284:3293  _balances */\n      0x03\n        /* \"contracts/FinaSwap.sol\":3294:3300  source */\n      dup5\n        /* \"contracts/FinaSwap.sol\":3284:3301  _balances[source] */\n      mload(0x40)\n      tag_210\n      swap2\n      swap1\n      tag_105\n      jump\t// in\n    tag_210:\n      swap1\n      dup2\n      mstore\n      0x20\n      add\n      mload(0x40)\n      dup1\n      swap2\n      sub\n      swap1\n      keccak256\n        /* \"contracts/FinaSwap.sol\":3284:3311  _balances[source] = balance */\n      dup2\n      swap1\n      sstore\n      pop\n        /* \"contracts/FinaSwap.sol\":3182:3319  function addBalance(bytes memory source, uint256 balance) public onlyRole(ADMIN_ROLE)\r... */\n      pop\n      pop\n      pop\n      jump\t// out\n        /* \"@openzeppelin/contracts/access/AccessControl.sol\":4766:4913  function revokeRole(bytes32 role, address account) public virtual override onlyRole(getRoleAdmin(role)) {... */\n    tag_82:\n        /* \"@openzeppelin/contracts/access/AccessControl.sol\":4850:4868  getRoleAdmin(role) */\n      tag_211\n        /* \"@openzeppelin/contracts/access/AccessControl.sol\":4863:4867  role */\n      dup3\n        /* \"@openzeppelin/contracts/access/AccessControl.sol\":4850:4862  getRoleAdmin */\n      tag_32\n        /* \"@openzeppelin/contracts/access/AccessControl.sol\":4850:4868  getRoleAdmin(role) */\n      jump\t// in\n    tag_211:\n        /* \"@openzeppelin/contracts/access/AccessControl.sol\":2505:2535  _checkRole(role, _msgSender()) */\n      tag_213\n        /* \"@openzeppelin/contracts/access/AccessControl.sol\":2516:2520  role */\n      dup2\n        /* \"@openzeppelin/contracts/access/AccessControl.sol\":2522:2534  _msgSender() */\n      tag_214\n        /* \"@openzeppelin/contracts/access/AccessControl.sol\":2522:2532  _msgSender */\n      tag_95\n        /* \"@openzeppelin/contracts/access/AccessControl.sol\":2522:2534  _msgSender() */\n      jump\t// in\n    tag_214:\n        /* \"@openzeppelin/contracts/access/AccessControl.sol\":2505:2515  _checkRole */\n      tag_96\n        /* \"@openzeppelin/contracts/access/AccessControl.sol\":2505:2535  _checkRole(role, _msgSender()) */\n      jump\t// in\n    tag_213:\n        /* \"@openzeppelin/contracts/access/AccessControl.sol\":4880:4906  _revokeRole(role, account) */\n      tag_216\n        /* \"@openzeppelin/contracts/access/AccessControl.sol\":4892:4896  role */\n      dup4\n        /* \"@openzeppelin/contracts/access/AccessControl.sol\":4898:4905  account */\n      dup4\n        /* \"@openzeppelin/contracts/access/AccessControl.sol\":4880:4891  _revokeRole */\n      tag_112\n        /* \"@openzeppelin/contracts/access/AccessControl.sol\":4880:4906  _revokeRole(role, account) */\n      jump\t// in\n    tag_216:\n        /* \"@openzeppelin/contracts/access/AccessControl.sol\":4766:4913  function revokeRole(bytes32 role, address account) public virtual override onlyRole(getRoleAdmin(role)) {... */\n      pop\n      pop\n      pop\n      jump\t// out\n        /* \"contracts/FinaSwap.sol\":414:476  bytes32 public constant PAUSER_ROLE = keccak256(\"PAUSER_ROLE\") */\n    tag_84:\n        /* \"contracts/FinaSwap.sol\":452:476  keccak256(\"PAUSER_ROLE\") */\n      0x65d7a28e3265b37a6474929f336521b332c1681b933f6cb9f3376673440d862a\n        /* \"contracts/FinaSwap.sol\":414:476  bytes32 public constant PAUSER_ROLE = keccak256(\"PAUSER_ROLE\") */\n      dup2\n      jump\t// out\n        /* \"@openzeppelin/contracts/utils/introspection/ERC165.sol\":829:984  function supportsInterface(bytes4 interfaceId) public view virtual override returns (bool) {... */\n    tag_89:\n        /* \"@openzeppelin/contracts/utils/introspection/ERC165.sol\":914:918  bool */\n      0x00\n        /* \"@openzeppelin/contracts/utils/introspection/ERC165.sol\":952:977  type(IERC165).interfaceId */\n      0x01ffc9a700000000000000000000000000000000000000000000000000000000\n        /* \"@openzeppelin/contracts/utils/introspection/ERC165.sol\":937:977  interfaceId == type(IERC165).interfaceId */\n      not(0xffffffffffffffffffffffffffffffffffffffffffffffffffffffff)\n      and\n        /* \"@openzeppelin/contracts/utils/introspection/ERC165.sol\":937:948  interfaceId */\n      dup3\n        /* \"@openzeppelin/contracts/utils/introspection/ERC165.sol\":937:977  interfaceId == type(IERC165).interfaceId */\n      not(0xffffffffffffffffffffffffffffffffffffffffffffffffffffffff)\n      and\n      eq\n        /* \"@openzeppelin/contracts/utils/introspection/ERC165.sol\":930:977  return interfaceId == type(IERC165).interfaceId */\n      swap1\n      pop\n        /* \"@openzeppelin/contracts/utils/introspection/ERC165.sol\":829:984  function supportsInterface(bytes4 interfaceId) public view virtual override returns (bool) {... */\n      swap2\n      swap1\n      pop\n      jump\t// out\n        /* \"@openzeppelin/contracts/utils/Context.sol\":640:736  function _msgSender() internal view virtual returns (address) {... */\n    tag_95:\n        /* \"@openzeppelin/contracts/utils/Context.sol\":693:700  address */\n      0x00\n        /* \"@openzeppelin/contracts/utils/Context.sol\":719:729  msg.sender */\n      caller\n        /* \"@openzeppelin/contracts/utils/Context.sol\":712:729  return msg.sender */\n      swap1\n      pop\n        /* \"@openzeppelin/contracts/utils/Context.sol\":640:736  function _msgSender() internal view virtual returns (address) {... */\n      swap1\n      jump\t// out\n        /* \"@openzeppelin/contracts/access/AccessControl.sol\":3335:3827  function _checkRole(bytes32 role, address account) internal view virtual {... */\n    tag_96:\n        /* \"@openzeppelin/contracts/access/AccessControl.sol\":3423:3445  hasRole(role, account) */\n      tag_220\n        /* \"@openzeppelin/contracts/access/AccessControl.sol\":3431:3435  role */\n      dup3\n        /* \"@openzeppelin/contracts/access/AccessControl.sol\":3437:3444  account */\n      dup3\n        /* \"@openzeppelin/contracts/access/AccessControl.sol\":3423:3430  hasRole */\n      tag_71\n        /* \"@openzeppelin/contracts/access/AccessControl.sol\":3423:3445  hasRole(role, account) */\n      jump\t// in\n    tag_220:\n        /* \"@openzeppelin/contracts/access/AccessControl.sol\":3418:3821  if (!hasRole(role, account)) {... */\n      tag_221\n      jumpi\n        /* \"@openzeppelin/contracts/access/AccessControl.sol\":3606:3647  Strings.toHexString(uint160(account), 20) */\n      tag_222\n        /* \"@openzeppelin/contracts/access/AccessControl.sol\":3634:3641  account */\n      dup2\n        /* \"@openzeppelin/contracts/access/AccessControl.sol\":3606:3647  Strings.toHexString(uint160(account), 20) */\n      0xffffffffffffffffffffffffffffffffffffffff\n      and\n        /* \"@openzeppelin/contracts/access/AccessControl.sol\":3644:3646  20 */\n      0x14\n        /* \"@openzeppelin/contracts/access/AccessControl.sol\":3606:3625  Strings.toHexString */\n      tag_223\n        /* \"@openzeppelin/contracts/access/AccessControl.sol\":3606:3647  Strings.toHexString(uint160(account), 20) */\n      jump\t// in\n    tag_222:\n        /* \"@openzeppelin/contracts/access/AccessControl.sol\":3718:3756  Strings.toHexString(uint256(role), 32) */\n      tag_224\n        /* \"@openzeppelin/contracts/access/AccessControl.sol\":3746:3750  role */\n      dup4\n        /* \"@openzeppelin/contracts/access/AccessControl.sol\":3738:3751  uint256(role) */\n      0x00\n      shr\n        /* \"@openzeppelin/contracts/access/AccessControl.sol\":3753:3755  32 */\n      0x20\n        /* \"@openzeppelin/contracts/access/AccessControl.sol\":3718:3737  Strings.toHexString */\n      tag_223\n        /* \"@openzeppelin/contracts/access/AccessControl.sol\":3718:3756  Strings.toHexString(uint256(role), 32) */\n      jump\t// in\n    tag_224:\n        /* \"@openzeppelin/contracts/access/AccessControl.sol\":3513:3778  abi.encodePacked(... */\n      add(0x20, mload(0x40))\n      tag_225\n      swap3\n      swap2\n      swap1\n      tag_226\n      jump\t// in\n    tag_225:\n      mload(0x40)\n      0x20\n      dup2\n      dup4\n      sub\n      sub\n      dup2\n      mstore\n      swap1\n      0x40\n      mstore\n        /* \"@openzeppelin/contracts/access/AccessControl.sol\":3461:3810  revert(... */\n      mload(0x40)\n      0x08c379a000000000000000000000000000000000000000000000000000000000\n      dup2\n      mstore\n      0x04\n      add\n      tag_227\n      swap2\n      swap1\n      tag_228\n      jump\t// in\n    tag_227:\n      mload(0x40)\n      dup1\n      swap2\n      sub\n      swap1\n      revert\n        /* \"@openzeppelin/contracts/access/AccessControl.sol\":3418:3821  if (!hasRole(role, account)) {... */\n    tag_221:\n        /* \"@openzeppelin/contracts/access/AccessControl.sol\":3335:3827  function _checkRole(bytes32 role, address account) internal view virtual {... */\n      pop\n      pop\n      jump\t// out\n        /* \"@openzeppelin/contracts/access/AccessControl.sol\":6861:7094  function _grantRole(bytes32 role, address account) internal virtual {... */\n    tag_99:\n        /* \"@openzeppelin/contracts/access/AccessControl.sol\":6944:6966  hasRole(role, account) */\n      tag_230\n        /* \"@openzeppelin/contracts/access/AccessControl.sol\":6952:6956  role */\n      dup3\n        /* \"@openzeppelin/contracts/access/AccessControl.sol\":6958:6965  account */\n      dup3\n        /* \"@openzeppelin/contracts/access/AccessControl.sol\":6944:6951  hasRole */\n      tag_71\n        /* \"@openzeppelin/contracts/access/AccessControl.sol\":6944:6966  hasRole(role, account) */\n      jump\t// in\n    tag_230:\n        /* \"@openzeppelin/contracts/access/AccessControl.sol\":6939:7088  if (!hasRole(role, account)) {... */\n      tag_231\n      jumpi\n        /* \"@openzeppelin/contracts/access/AccessControl.sol\":7014:7018  true */\n      0x01\n        /* \"@openzeppelin/contracts/access/AccessControl.sol\":6982:6988  _roles */\n      dup1\n        /* \"@openzeppelin/contracts/access/AccessControl.sol\":6982:6994  _roles[role] */\n      0x00\n        /* \"@openzeppelin/contracts/access/AccessControl.sol\":6989:6993  role */\n      dup5\n        /* \"@openzeppelin/contracts/access/AccessControl.sol\":6982:6994  _roles[role] */\n      dup2\n      mstore\n      0x20\n      add\n      swap1\n      dup2\n      mstore\n      0x20\n      add\n      0x00\n      keccak256\n        /* \"@openzeppelin/contracts/access/AccessControl.sol\":6982:7002  _roles[role].members */\n      0x00\n      add\n        /* \"@openzeppelin/contracts/access/AccessControl.sol\":6982:7011  _roles[role].members[account] */\n      0x00\n        /* \"@openzeppelin/contracts/access/AccessControl.sol\":7003:7010  account */\n      dup4\n        /* \"@openzeppelin/contracts/access/AccessControl.sol\":6982:7011  _roles[role].members[account] */\n      0xffffffffffffffffffffffffffffffffffffffff\n      and\n      0xffffffffffffffffffffffffffffffffffffffff\n      and\n      dup2\n      mstore\n      0x20\n      add\n      swap1\n      dup2\n      mstore\n      0x20\n      add\n      0x00\n      keccak256\n      0x00\n        /* \"@openzeppelin/contracts/access/AccessControl.sol\":6982:7018  _roles[role].members[account] = true */\n      0x0100\n      exp\n      dup2\n      sload\n      dup2\n      0xff\n      mul\n      not\n      and\n      swap1\n      dup4\n      iszero\n      iszero\n      mul\n      or\n      swap1\n      sstore\n      pop\n        /* \"@openzeppelin/contracts/access/AccessControl.sol\":7064:7076  _msgSender() */\n      tag_232\n        /* \"@openzeppelin/contracts/access/AccessControl.sol\":7064:7074  _msgSender */\n      tag_95\n        /* \"@openzeppelin/contracts/access/AccessControl.sol\":7064:7076  _msgSender() */\n      jump\t// in\n    tag_232:\n        /* \"@openzeppelin/contracts/access/AccessControl.sol\":7037:7077  RoleGranted(role, account, _msgSender()) */\n      0xffffffffffffffffffffffffffffffffffffffff\n      and\n        /* \"@openzeppelin/contracts/access/AccessControl.sol\":7055:7062  account */\n      dup2\n        /* \"@openzeppelin/contracts/access/AccessControl.sol\":7037:7077  RoleGranted(role, account, _msgSender()) */\n      0xffffffffffffffffffffffffffffffffffffffff\n      and\n        /* \"@openzeppelin/contracts/access/AccessControl.sol\":7049:7053  role */\n      dup4\n        /* \"@openzeppelin/contracts/access/AccessControl.sol\":7037:7077  RoleGranted(role, account, _msgSender()) */\n      0x2f8788117e7eff1d82e926ec794901d17c78024a50270940304540a733656f0d\n      mload(0x40)\n      mload(0x40)\n      dup1\n      swap2\n      sub\n      swap1\n      log4\n        /* \"@openzeppelin/contracts/access/AccessControl.sol\":6939:7088  if (!hasRole(role, account)) {... */\n    tag_231:\n        /* \"@openzeppelin/contracts/access/AccessControl.sol\":6861:7094  function _grantRole(bytes32 role, address account) internal virtual {... */\n      pop\n      pop\n      jump\t// out\n        /* \"@openzeppelin/contracts/access/AccessControl.sol\":7219:7453  function _revokeRole(bytes32 role, address account) internal virtual {... */\n    tag_112:\n        /* \"@openzeppelin/contracts/access/AccessControl.sol\":7302:7324  hasRole(role, account) */\n      tag_234\n        /* \"@openzeppelin/contracts/access/AccessControl.sol\":7310:7314  role */\n      dup3\n        /* \"@openzeppelin/contracts/access/AccessControl.sol\":7316:7323  account */\n      dup3\n        /* \"@openzeppelin/contracts/access/AccessControl.sol\":7302:7309  hasRole */\n      tag_71\n        /* \"@openzeppelin/contracts/access/AccessControl.sol\":7302:7324  hasRole(role, account) */\n      jump\t// in\n    tag_234:\n        /* \"@openzeppelin/contracts/access/AccessControl.sol\":7298:7447  if (hasRole(role, account)) {... */\n      iszero\n      tag_235\n      jumpi\n        /* \"@openzeppelin/contracts/access/AccessControl.sol\":7372:7377  false */\n      0x00\n        /* \"@openzeppelin/contracts/access/AccessControl.sol\":7340:7346  _roles */\n      0x01\n        /* \"@openzeppelin/contracts/access/AccessControl.sol\":7340:7352  _roles[role] */\n      0x00\n        /* \"@openzeppelin/contracts/access/AccessControl.sol\":7347:7351  role */\n      dup5\n        /* \"@openzeppelin/contracts/access/AccessControl.sol\":7340:7352  _roles[role] */\n      dup2\n      mstore\n      0x20\n      add\n      swap1\n      dup2\n      mstore\n      0x20\n      add\n      0x00\n      keccak256\n        /* \"@openzeppelin/contracts/access/AccessControl.sol\":7340:7360  _roles[role].members */\n      0x00\n      add\n        /* \"@openzeppelin/contracts/access/AccessControl.sol\":7340:7369  _roles[role].members[account] */\n      0x00\n        /* \"@openzeppelin/contracts/access/AccessControl.sol\":7361:7368  account */\n      dup4\n        /* \"@openzeppelin/contracts/access/AccessControl.sol\":7340:7369  _roles[role].members[account] */\n      0xffffffffffffffffffffffffffffffffffffffff\n      and\n      0xffffffffffffffffffffffffffffffffffffffff\n      and\n      dup2\n      mstore\n      0x20\n      add\n      swap1\n      dup2\n      mstore\n      0x20\n      add\n      0x00\n      keccak256\n      0x00\n        /* \"@openzeppelin/contracts/access/AccessControl.sol\":7340:7377  _roles[role].members[account] = false */\n      0x0100\n      exp\n      dup2\n      sload\n      dup2\n      0xff\n      mul\n      not\n      and\n      swap1\n      dup4\n      iszero\n      iszero\n      mul\n      or\n      swap1\n      sstore\n      pop\n        /* \"@openzeppelin/contracts/access/AccessControl.sol\":7423:7435  _msgSender() */\n      tag_236\n        /* \"@openzeppelin/contracts/access/AccessControl.sol\":7423:7433  _msgSender */\n      tag_95\n        /* \"@openzeppelin/contracts/access/AccessControl.sol\":7423:7435  _msgSender() */\n      jump\t// in\n    tag_236:\n        /* \"@openzeppelin/contracts/access/AccessControl.sol\":7396:7436  RoleRevoked(role, account, _msgSender()) */\n      0xffffffffffffffffffffffffffffffffffffffff\n      and\n        /* \"@openzeppelin/contracts/access/AccessControl.sol\":7414:7421  account */\n      dup2\n        /* \"@openzeppelin/contracts/access/AccessControl.sol\":7396:7436  RoleRevoked(role, account, _msgSender()) */\n      0xffffffffffffffffffffffffffffffffffffffff\n      and\n        /* \"@openzeppelin/contracts/access/AccessControl.sol\":7408:7412  role */\n      dup4\n        /* \"@openzeppelin/contracts/access/AccessControl.sol\":7396:7436  RoleRevoked(role, account, _msgSender()) */\n      0xf6391f5c32d9c69d2a47ea670b442974b53935d1edc7fd64eb21e047a839171b\n      mload(0x40)\n      mload(0x40)\n      dup1\n      swap2\n      sub\n      swap1\n      log4\n        /* \"@openzeppelin/contracts/access/AccessControl.sol\":7298:7447  if (hasRole(role, account)) {... */\n    tag_235:\n        /* \"@openzeppelin/contracts/access/AccessControl.sol\":7219:7453  function _revokeRole(bytes32 role, address account) internal virtual {... */\n      pop\n      pop\n      jump\t// out\n        /* \"@openzeppelin/contracts/security/Pausable.sol\":2110:2227  function _unpause() internal virtual whenPaused {... */\n    tag_118:\n        /* \"@openzeppelin/contracts/security/Pausable.sol\":1677:1685  paused() */\n      tag_238\n        /* \"@openzeppelin/contracts/security/Pausable.sol\":1677:1683  paused */\n      tag_53\n        /* \"@openzeppelin/contracts/security/Pausable.sol\":1677:1685  paused() */\n      jump\t// in\n    tag_238:\n        /* \"@openzeppelin/contracts/security/Pausable.sol\":1669:1710  require(paused(), \"Pausable: not paused\") */\n      tag_239\n      jumpi\n      mload(0x40)\n      0x08c379a000000000000000000000000000000000000000000000000000000000\n      dup2\n      mstore\n      0x04\n      add\n      tag_240\n      swap1\n      tag_241\n      jump\t// in\n    tag_240:\n      mload(0x40)\n      dup1\n      swap2\n      sub\n      swap1\n      revert\n    tag_239:\n        /* \"@openzeppelin/contracts/security/Pausable.sol\":2178:2183  false */\n      0x00\n        /* \"@openzeppelin/contracts/security/Pausable.sol\":2168:2175  _paused */\n      dup1\n      0x00\n        /* \"@openzeppelin/contracts/security/Pausable.sol\":2168:2183  _paused = false */\n      0x0100\n      exp\n      dup2\n      sload\n      dup2\n      0xff\n      mul\n      not\n      and\n      swap1\n      dup4\n      iszero\n      iszero\n      mul\n      or\n      swap1\n      sstore\n      pop\n        /* \"@openzeppelin/contracts/security/Pausable.sol\":2198:2220  Unpaused(_msgSender()) */\n      0x5db9ee0a495bf2e6ff9c91a7834c1ba4fdd244a5e8aa4e537bd38aeae4b073aa\n        /* \"@openzeppelin/contracts/security/Pausable.sol\":2207:2219  _msgSender() */\n      tag_243\n        /* \"@openzeppelin/contracts/security/Pausable.sol\":2207:2217  _msgSender */\n      tag_95\n        /* \"@openzeppelin/contracts/security/Pausable.sol\":2207:2219  _msgSender() */\n      jump\t// in\n    tag_243:\n        /* \"@openzeppelin/contracts/security/Pausable.sol\":2198:2220  Unpaused(_msgSender()) */\n      mload(0x40)\n      tag_244\n      swap2\n      swap1\n      tag_245\n      jump\t// in\n    tag_244:\n      mload(0x40)\n      dup1\n      swap2\n      sub\n      swap1\n      log1\n        /* \"@openzeppelin/contracts/security/Pausable.sol\":2110:2227  function _unpause() internal virtual whenPaused {... */\n      jump\t// out\n        /* \"contracts/utils/BytesUtils.sol\":86:349  function slice(bytes memory source, uint256 start, uint256 end) internal pure returns (bytes memory) {\r... */\n    tag_175:\n        /* \"contracts/utils/BytesUtils.sol\":173:185  bytes memory */\n      0x60\n        /* \"contracts/utils/BytesUtils.sol\":198:212  bytes memory a */\n      0x00\n        /* \"contracts/utils/BytesUtils.sol\":231:236  start */\n      dup4\n        /* \"contracts/utils/BytesUtils.sol\":225:228  end */\n      dup4\n        /* \"contracts/utils/BytesUtils.sol\":225:236  end - start */\n      tag_247\n      swap2\n      swap1\n      tag_248\n      jump\t// in\n    tag_247:\n        /* \"contracts/utils/BytesUtils.sol\":215:237  new bytes(end - start) */\n      0xffffffffffffffff\n      dup2\n      gt\n      iszero\n      tag_249\n      jumpi\n      mstore(0x00, 0x4e487b7100000000000000000000000000000000000000000000000000000000)\n      mstore(0x04, 0x41)\n      revert(0x00, 0x24)\n    tag_249:\n      mload(0x40)\n      swap1\n      dup1\n      dup3\n      mstore\n      dup1\n      0x1f\n      add\n      not(0x1f)\n      and\n      0x20\n      add\n      dup3\n      add\n      0x40\n      mstore\n      dup1\n      iszero\n      tag_250\n      jumpi\n      dup2\n      0x20\n      add\n      0x01\n      dup3\n      mul\n      dup1\n      calldatasize\n      dup4\n      calldatacopy\n      dup1\n      dup3\n      add\n      swap2\n      pop\n      pop\n      swap1\n      pop\n    tag_250:\n      pop\n        /* \"contracts/utils/BytesUtils.sol\":198:237  bytes memory a = new bytes(end - start) */\n      swap1\n      pop\n        /* \"contracts/utils/BytesUtils.sol\":252:258  uint i */\n      0x00\n        /* \"contracts/utils/BytesUtils.sol\":248:323  for(uint i=0;i<=end-start-1;i++){\r... */\n    tag_251:\n        /* \"contracts/utils/BytesUtils.sol\":274:275  1 */\n      0x01\n        /* \"contracts/utils/BytesUtils.sol\":268:273  start */\n      dup6\n        /* \"contracts/utils/BytesUtils.sol\":264:267  end */\n      dup6\n        /* \"contracts/utils/BytesUtils.sol\":264:273  end-start */\n      tag_254\n      swap2\n      swap1\n      tag_248\n      jump\t// in\n    tag_254:\n        /* \"contracts/utils/BytesUtils.sol\":264:275  end-start-1 */\n      tag_255\n      swap2\n      swap1\n      tag_248\n      jump\t// in\n    tag_255:\n        /* \"contracts/utils/BytesUtils.sol\":261:262  i */\n      dup2\n        /* \"contracts/utils/BytesUtils.sol\":261:275  i<=end-start-1 */\n      gt\n        /* \"contracts/utils/BytesUtils.sol\":248:323  for(uint i=0;i<=end-start-1;i++){\r... */\n      tag_252\n      jumpi\n        /* \"contracts/utils/BytesUtils.sol\":302:308  source */\n      dup6\n        /* \"contracts/utils/BytesUtils.sol\":309:310  i */\n      dup2\n        /* \"contracts/utils/BytesUtils.sol\":302:311  source[i] */\n      dup2\n      mload\n      dup2\n      lt\n      tag_256\n      jumpi\n      mstore(0x00, 0x4e487b7100000000000000000000000000000000000000000000000000000000)\n      mstore(0x04, 0x32)\n      revert(0x00, 0x24)\n    tag_256:\n      0x20\n      add\n      add\n      mload\n      0xf8\n      shr\n      0xf8\n      shl\n        /* \"contracts/utils/BytesUtils.sol\":295:296  a */\n      dup3\n        /* \"contracts/utils/BytesUtils.sol\":297:298  i */\n      dup3\n        /* \"contracts/utils/BytesUtils.sol\":295:299  a[i] */\n      dup2\n      mload\n      dup2\n      lt\n      tag_257\n      jumpi\n      mstore(0x00, 0x4e487b7100000000000000000000000000000000000000000000000000000000)\n      mstore(0x04, 0x32)\n      revert(0x00, 0x24)\n    tag_257:\n      0x20\n      add\n      add\n        /* \"contracts/utils/BytesUtils.sol\":295:311  a[i] = source[i] */\n      swap1\n      not(0xffffffffffffffffffffffffffffffffffffffffffffffffffffffffffffff)\n      and\n      swap1\n      dup2\n      0x00\n      byte\n      swap1\n      mstore8\n      pop\n        /* \"contracts/utils/BytesUtils.sol\":276:279  i++ */\n      dup1\n      dup1\n      tag_258\n      swap1\n      tag_259\n      jump\t// in\n    tag_258:\n      swap2\n      pop\n      pop\n        /* \"contracts/utils/BytesUtils.sol\":248:323  for(uint i=0;i<=end-start-1;i++){\r... */\n      jump(tag_251)\n    tag_252:\n      pop\n        /* \"contracts/utils/BytesUtils.sol\":340:341  a */\n      dup1\n        /* \"contracts/utils/BytesUtils.sol\":333:341  return a */\n      swap2\n      pop\n      pop\n        /* \"contracts/utils/BytesUtils.sol\":86:349  function slice(bytes memory source, uint256 start, uint256 end) internal pure returns (bytes memory) {\r... */\n      swap4\n      swap3\n      pop\n      pop\n      pop\n      jump\t// out\n        /* \"@openzeppelin/contracts/security/Pausable.sol\":1863:1978  function _pause() internal virtual whenNotPaused {... */\n    tag_204:\n        /* \"@openzeppelin/contracts/security/Pausable.sol\":1412:1420  paused() */\n      tag_261\n        /* \"@openzeppelin/contracts/security/Pausable.sol\":1412:1418  paused */\n      tag_53\n        /* \"@openzeppelin/contracts/security/Pausable.sol\":1412:1420  paused() */\n      jump\t// in\n    tag_261:\n        /* \"@openzeppelin/contracts/security/Pausable.sol\":1411:1420  !paused() */\n      iszero\n        /* \"@openzeppelin/contracts/security/Pausable.sol\":1403:1441  require(!paused(), \"Pausable: paused\") */\n      tag_262\n      jumpi\n      mload(0x40)\n      0x08c379a000000000000000000000000000000000000000000000000000000000\n      dup2\n      mstore\n      0x04\n      add\n      tag_263\n      swap1\n      tag_128\n      jump\t// in\n    tag_263:\n      mload(0x40)\n      dup1\n      swap2\n      sub\n      swap1\n      revert\n    tag_262:\n        /* \"@openzeppelin/contracts/security/Pausable.sol\":1932:1936  true */\n      0x01\n        /* \"@openzeppelin/contracts/security/Pausable.sol\":1922:1929  _paused */\n      0x00\n      dup1\n        /* \"@openzeppelin/contracts/security/Pausable.sol\":1922:1936  _paused = true */\n      0x0100\n      exp\n      dup2\n      sload\n      dup2\n      0xff\n      mul\n      not\n      and\n      swap1\n      dup4\n      iszero\n      iszero\n      mul\n      or\n      swap1\n      sstore\n      pop\n        /* \"@openzeppelin/contracts/security/Pausable.sol\":1951:1971  Paused(_msgSender()) */\n      0x62e78cea01bee320cd4e420270b5ea74000d11b0c9f74754ebdbfc544b05a258\n        /* \"@openzeppelin/contracts/security/Pausable.sol\":1958:1970  _msgSender() */\n      tag_265\n        /* \"@openzeppelin/contracts/security/Pausable.sol\":1958:1968  _msgSender */\n      tag_95\n        /* \"@openzeppelin/contracts/security/Pausable.sol\":1958:1970  _msgSender() */\n      jump\t// in\n    tag_265:\n        /* \"@openzeppelin/contracts/security/Pausable.sol\":1951:1971  Paused(_msgSender()) */\n      mload(0x40)\n      tag_266\n      swap2\n      swap1\n      tag_245\n      jump\t// in\n    tag_266:\n      mload(0x40)\n      dup1\n      swap2\n      sub\n      swap1\n      log1\n        /* \"@openzeppelin/contracts/security/Pausable.sol\":1863:1978  function _pause() internal virtual whenNotPaused {... */\n      jump\t// out\n        /* \"@openzeppelin/contracts/utils/Strings.sol\":1588:2029  function toHexString(uint256 value, uint256 length) internal pure returns (string memory) {... */\n    tag_223:\n        /* \"@openzeppelin/contracts/utils/Strings.sol\":1663:1676  string memory */\n      0x60\n        /* \"@openzeppelin/contracts/utils/Strings.sol\":1688:1707  bytes memory buffer */\n      0x00\n        /* \"@openzeppelin/contracts/utils/Strings.sol\":1733:1734  2 */\n      0x02\n        /* \"@openzeppelin/contracts/utils/Strings.sol\":1724:1730  length */\n      dup4\n        /* \"@openzeppelin/contracts/utils/Strings.sol\":1720:1721  2 */\n      0x02\n        /* \"@openzeppelin/contracts/utils/Strings.sol\":1720:1730  2 * length */\n      tag_268\n      swap2\n      swap1\n      tag_269\n      jump\t// in\n    tag_268:\n        /* \"@openzeppelin/contracts/utils/Strings.sol\":1720:1734  2 * length + 2 */\n      tag_270\n      swap2\n      swap1\n      tag_271\n      jump\t// in\n    tag_270:\n        /* \"@openzeppelin/contracts/utils/Strings.sol\":1710:1735  new bytes(2 * length + 2) */\n      0xffffffffffffffff\n      dup2\n      gt\n      iszero\n      tag_272\n      jumpi\n      mstore(0x00, 0x4e487b7100000000000000000000000000000000000000000000000000000000)\n      mstore(0x04, 0x41)\n      revert(0x00, 0x24)\n    tag_272:\n      mload(0x40)\n      swap1\n      dup1\n      dup3\n      mstore\n      dup1\n      0x1f\n      add\n      not(0x1f)\n      and\n      0x20\n      add\n      dup3\n      add\n      0x40\n      mstore\n      dup1\n      iszero\n      tag_273\n      jumpi\n      dup2\n      0x20\n      add\n      0x01\n      dup3\n      mul\n      dup1\n      calldatasize\n      dup4\n      calldatacopy\n      dup1\n      dup3\n      add\n      swap2\n      pop\n      pop\n      swap1\n      pop\n    tag_273:\n      pop\n        /* \"@openzeppelin/contracts/utils/Strings.sol\":1688:1735  bytes memory buffer = new bytes(2 * length + 2) */\n      swap1\n      pop\n        /* \"@openzeppelin/contracts/utils/Strings.sol\":1745:1760  buffer[0] = \"0\" */\n      0x3000000000000000000000000000000000000000000000000000000000000000\n        /* \"@openzeppelin/contracts/utils/Strings.sol\":1745:1751  buffer */\n      dup2\n        /* \"@openzeppelin/contracts/utils/Strings.sol\":1752:1753  0 */\n      0x00\n        /* \"@openzeppelin/contracts/utils/Strings.sol\":1745:1754  buffer[0] */\n      dup2\n      mload\n      dup2\n      lt\n      tag_274\n      jumpi\n      mstore(0x00, 0x4e487b7100000000000000000000000000000000000000000000000000000000)\n      mstore(0x04, 0x32)\n      revert(0x00, 0x24)\n    tag_274:\n      0x20\n      add\n      add\n        /* \"@openzeppelin/contracts/utils/Strings.sol\":1745:1760  buffer[0] = \"0\" */\n      swap1\n      not(0xffffffffffffffffffffffffffffffffffffffffffffffffffffffffffffff)\n      and\n      swap1\n      dup2\n      0x00\n      byte\n      swap1\n      mstore8\n      pop\n        /* \"@openzeppelin/contracts/utils/Strings.sol\":1770:1785  buffer[1] = \"x\" */\n      0x7800000000000000000000000000000000000000000000000000000000000000\n        /* \"@openzeppelin/contracts/utils/Strings.sol\":1770:1776  buffer */\n      dup2\n        /* \"@openzeppelin/contracts/utils/Strings.sol\":1777:1778  1 */\n      0x01\n        /* \"@openzeppelin/contracts/utils/Strings.sol\":1770:1779  buffer[1] */\n      dup2\n      mload\n      dup2\n      lt\n      tag_275\n      jumpi\n      mstore(0x00, 0x4e487b7100000000000000000000000000000000000000000000000000000000)\n      mstore(0x04, 0x32)\n      revert(0x00, 0x24)\n    tag_275:\n      0x20\n      add\n      add\n        /* \"@openzeppelin/contracts/utils/Strings.sol\":1770:1785  buffer[1] = \"x\" */\n      swap1\n      not(0xffffffffffffffffffffffffffffffffffffffffffffffffffffffffffffff)\n      and\n      swap1\n      dup2\n      0x00\n      byte\n      swap1\n      mstore8\n      pop\n        /* \"@openzeppelin/contracts/utils/Strings.sol\":1800:1809  uint256 i */\n      0x00\n        /* \"@openzeppelin/contracts/utils/Strings.sol\":1825:1826  1 */\n      0x01\n        /* \"@openzeppelin/contracts/utils/Strings.sol\":1816:1822  length */\n      dup5\n        /* \"@openzeppelin/contracts/utils/Strings.sol\":1812:1813  2 */\n      0x02\n        /* \"@openzeppelin/contracts/utils/Strings.sol\":1812:1822  2 * length */\n      tag_279\n      swap2\n      swap1\n      tag_269\n      jump\t// in\n    tag_279:\n        /* \"@openzeppelin/contracts/utils/Strings.sol\":1812:1826  2 * length + 1 */\n      tag_280\n      swap2\n      swap1\n      tag_271\n      jump\t// in\n    tag_280:\n        /* \"@openzeppelin/contracts/utils/Strings.sol\":1800:1826  uint256 i = 2 * length + 1 */\n      swap1\n      pop\n        /* \"@openzeppelin/contracts/utils/Strings.sol\":1795:1927  for (uint256 i = 2 * length + 1; i > 1; --i) {... */\n    tag_276:\n        /* \"@openzeppelin/contracts/utils/Strings.sol\":1832:1833  1 */\n      0x01\n        /* \"@openzeppelin/contracts/utils/Strings.sol\":1828:1829  i */\n      dup2\n        /* \"@openzeppelin/contracts/utils/Strings.sol\":1828:1833  i > 1 */\n      gt\n        /* \"@openzeppelin/contracts/utils/Strings.sol\":1795:1927  for (uint256 i = 2 * length + 1; i > 1; --i) {... */\n      iszero\n      tag_277\n      jumpi\n        /* \"@openzeppelin/contracts/utils/Strings.sol\":1866:1878  _HEX_SYMBOLS */\n      0x3031323334353637383961626364656600000000000000000000000000000000\n        /* \"@openzeppelin/contracts/utils/Strings.sol\":1887:1890  0xf */\n      0x0f\n        /* \"@openzeppelin/contracts/utils/Strings.sol\":1879:1884  value */\n      dup7\n        /* \"@openzeppelin/contracts/utils/Strings.sol\":1879:1890  value & 0xf */\n      and\n        /* \"@openzeppelin/contracts/utils/Strings.sol\":1866:1891  _HEX_SYMBOLS[value & 0xf] */\n      0x10\n      dup2\n      lt\n      tag_281\n      jumpi\n      mstore(0x00, 0x4e487b7100000000000000000000000000000000000000000000000000000000)\n      mstore(0x04, 0x32)\n      revert(0x00, 0x24)\n    tag_281:\n      byte\n      0xf8\n      shl\n        /* \"@openzeppelin/contracts/utils/Strings.sol\":1854:1860  buffer */\n      dup3\n        /* \"@openzeppelin/contracts/utils/Strings.sol\":1861:1862  i */\n      dup3\n        /* \"@openzeppelin/contracts/utils/Strings.sol\":1854:1863  buffer[i] */\n      dup2\n      mload\n      dup2\n      lt\n      tag_282\n      jumpi\n      mstore(0x00, 0x4e487b7100000000000000000000000000000000000000000000000000000000)\n      mstore(0x04, 0x32)\n      revert(0x00, 0x24)\n    tag_282:\n      0x20\n      add\n      add\n        /* \"@openzeppelin/contracts/utils/Strings.sol\":1854:1891  buffer[i] = _HEX_SYMBOLS[value & 0xf] */\n      swap1\n      not(0xffffffffffffffffffffffffffffffffffffffffffffffffffffffffffffff)\n      and\n      swap1\n      dup2\n      0x00\n      byte\n      swap1\n      mstore8\n      pop\n        /* \"@openzeppelin/contracts/utils/Strings.sol\":1915:1916  4 */\n      0x04\n        /* \"@openzeppelin/contracts/utils/Strings.sol\":1905:1916  value >>= 4 */\n      dup6\n      swap1\n      shr\n      swap5\n      pop\n        /* \"@openzeppelin/contracts/utils/Strings.sol\":1835:1838  --i */\n      dup1\n      tag_283\n      swap1\n      tag_284\n      jump\t// in\n    tag_283:\n      swap1\n      pop\n        /* \"@openzeppelin/contracts/utils/Strings.sol\":1795:1927  for (uint256 i = 2 * length + 1; i > 1; --i) {... */\n      jump(tag_276)\n    tag_277:\n      pop\n        /* \"@openzeppelin/contracts/utils/Strings.sol\":1953:1954  0 */\n      0x00\n        /* \"@openzeppelin/contracts/utils/Strings.sol\":1944:1949  value */\n      dup5\n        /* \"@openzeppelin/contracts/utils/Strings.sol\":1944:1954  value == 0 */\n      eq\n        /* \"@openzeppelin/contracts/utils/Strings.sol\":1936:1991  require(value == 0, \"Strings: hex length insufficient\") */\n      tag_285\n      jumpi\n      mload(0x40)\n      0x08c379a000000000000000000000000000000000000000000000000000000000\n      dup2\n      mstore\n      0x04\n      add\n      tag_286\n      swap1\n      tag_287\n      jump\t// in\n    tag_286:\n      mload(0x40)\n      dup1\n      swap2\n      sub\n      swap1\n      revert\n    tag_285:\n        /* \"@openzeppelin/contracts/utils/Strings.sol\":2015:2021  buffer */\n      dup1\n        /* \"@openzeppelin/contracts/utils/Strings.sol\":2001:2022  return string(buffer) */\n      swap2\n      pop\n      pop\n        /* \"@openzeppelin/contracts/utils/Strings.sol\":1588:2029  function toHexString(uint256 value, uint256 length) internal pure returns (string memory) {... */\n      swap3\n      swap2\n      pop\n      pop\n      jump\t// out\n        /* \"#utility.yul\":7:350   */\n    tag_289:\n        /* \"#utility.yul\":84:89   */\n      0x00\n        /* \"#utility.yul\":109:174   */\n      tag_291\n        /* \"#utility.yul\":125:173   */\n      tag_292\n        /* \"#utility.yul\":166:172   */\n      dup5\n        /* \"#utility.yul\":125:173   */\n      tag_293\n      jump\t// in\n    tag_292:\n        /* \"#utility.yul\":109:174   */\n      tag_294\n      jump\t// in\n    tag_291:\n        /* \"#utility.yul\":100:174   */\n      swap1\n      pop\n        /* \"#utility.yul\":197:203   */\n      dup3\n        /* \"#utility.yul\":190:195   */\n      dup2\n        /* \"#utility.yul\":183:204   */\n      mstore\n        /* \"#utility.yul\":235:239   */\n      0x20\n        /* \"#utility.yul\":228:233   */\n      dup2\n        /* \"#utility.yul\":224:240   */\n      add\n        /* \"#utility.yul\":273:276   */\n      dup5\n        /* \"#utility.yul\":264:270   */\n      dup5\n        /* \"#utility.yul\":259:262   */\n      dup5\n        /* \"#utility.yul\":255:271   */\n      add\n        /* \"#utility.yul\":252:277   */\n      gt\n        /* \"#utility.yul\":249:251   */\n      iszero\n      tag_295\n      jumpi\n        /* \"#utility.yul\":290:291   */\n      0x00\n        /* \"#utility.yul\":287:288   */\n      dup1\n        /* \"#utility.yul\":280:292   */\n      revert\n        /* \"#utility.yul\":249:251   */\n    tag_295:\n        /* \"#utility.yul\":303:344   */\n      tag_296\n        /* \"#utility.yul\":337:343   */\n      dup5\n        /* \"#utility.yul\":332:335   */\n      dup3\n        /* \"#utility.yul\":327:330   */\n      dup6\n        /* \"#utility.yul\":303:344   */\n      tag_297\n      jump\t// in\n    tag_296:\n        /* \"#utility.yul\":90:350   */\n      pop\n      swap4\n      swap3\n      pop\n      pop\n      pop\n      jump\t// out\n        /* \"#utility.yul\":356:708   */\n    tag_298:\n        /* \"#utility.yul\":444:449   */\n      0x00\n        /* \"#utility.yul\":469:534   */\n      tag_300\n        /* \"#utility.yul\":485:533   */\n      tag_301\n        /* \"#utility.yul\":526:532   */\n      dup5\n        /* \"#utility.yul\":485:533   */\n      tag_293\n      jump\t// in\n    tag_301:\n        /* \"#utility.yul\":469:534   */\n      tag_294\n      jump\t// in\n    tag_300:\n        /* \"#utility.yul\":460:534   */\n      swap1\n      pop\n        /* \"#utility.yul\":557:563   */\n      dup3\n        /* \"#utility.yul\":550:555   */\n      dup2\n        /* \"#utility.yul\":543:564   */\n      mstore\n        /* \"#utility.yul\":595:599   */\n      0x20\n        /* \"#utility.yul\":588:593   */\n      dup2\n        /* \"#utility.yul\":584:600   */\n      add\n        /* \"#utility.yul\":633:636   */\n      dup5\n        /* \"#utility.yul\":624:630   */\n      dup5\n        /* \"#utility.yul\":619:622   */\n      dup5\n        /* \"#utility.yul\":615:631   */\n      add\n        /* \"#utility.yul\":612:637   */\n      gt\n        /* \"#utility.yul\":609:611   */\n      iszero\n      tag_302\n      jumpi\n        /* \"#utility.yul\":650:651   */\n      0x00\n        /* \"#utility.yul\":647:648   */\n      dup1\n        /* \"#utility.yul\":640:652   */\n      revert\n        /* \"#utility.yul\":609:611   */\n    tag_302:\n        /* \"#utility.yul\":663:702   */\n      tag_303\n        /* \"#utility.yul\":695:701   */\n      dup5\n        /* \"#utility.yul\":690:693   */\n      dup3\n        /* \"#utility.yul\":685:688   */\n      dup6\n        /* \"#utility.yul\":663:702   */\n      tag_304\n      jump\t// in\n    tag_303:\n        /* \"#utility.yul\":450:708   */\n      pop\n      swap4\n      swap3\n      pop\n      pop\n      pop\n      jump\t// out\n        /* \"#utility.yul\":714:853   */\n    tag_305:\n        /* \"#utility.yul\":760:765   */\n      0x00\n        /* \"#utility.yul\":798:804   */\n      dup2\n        /* \"#utility.yul\":785:805   */\n      calldataload\n        /* \"#utility.yul\":776:805   */\n      swap1\n      pop\n        /* \"#utility.yul\":814:847   */\n      tag_307\n        /* \"#utility.yul\":841:846   */\n      dup2\n        /* \"#utility.yul\":814:847   */\n      tag_308\n      jump\t// in\n    tag_307:\n        /* \"#utility.yul\":766:853   */\n      swap3\n      swap2\n      pop\n      pop\n      jump\t// out\n        /* \"#utility.yul\":859:998   */\n    tag_309:\n        /* \"#utility.yul\":905:910   */\n      0x00\n        /* \"#utility.yul\":943:949   */\n      dup2\n        /* \"#utility.yul\":930:950   */\n      calldataload\n        /* \"#utility.yul\":921:950   */\n      swap1\n      pop\n        /* \"#utility.yul\":959:992   */\n      tag_311\n        /* \"#utility.yul\":986:991   */\n      dup2\n        /* \"#utility.yul\":959:992   */\n      tag_312\n      jump\t// in\n    tag_311:\n        /* \"#utility.yul\":911:998   */\n      swap3\n      swap2\n      pop\n      pop\n      jump\t// out\n        /* \"#utility.yul\":1004:1147   */\n    tag_313:\n        /* \"#utility.yul\":1061:1066   */\n      0x00\n        /* \"#utility.yul\":1092:1098   */\n      dup2\n        /* \"#utility.yul\":1086:1099   */\n      mload\n        /* \"#utility.yul\":1077:1099   */\n      swap1\n      pop\n        /* \"#utility.yul\":1108:1141   */\n      tag_315\n        /* \"#utility.yul\":1135:1140   */\n      dup2\n        /* \"#utility.yul\":1108:1141   */\n      tag_312\n      jump\t// in\n    tag_315:\n        /* \"#utility.yul\":1067:1147   */\n      swap3\n      swap2\n      pop\n      pop\n      jump\t// out\n        /* \"#utility.yul\":1153:1290   */\n    tag_316:\n        /* \"#utility.yul\":1198:1203   */\n      0x00\n        /* \"#utility.yul\":1236:1242   */\n      dup2\n        /* \"#utility.yul\":1223:1243   */\n      calldataload\n        /* \"#utility.yul\":1214:1243   */\n      swap1\n      pop\n        /* \"#utility.yul\":1252:1284   */\n      tag_318\n        /* \"#utility.yul\":1278:1283   */\n      dup2\n        /* \"#utility.yul\":1252:1284   */\n      tag_319\n      jump\t// in\n    tag_318:\n        /* \"#utility.yul\":1204:1290   */\n      swap3\n      swap2\n      pop\n      pop\n      jump\t// out\n        /* \"#utility.yul\":1309:1580   */\n    tag_320:\n        /* \"#utility.yul\":1364:1369   */\n      0x00\n        /* \"#utility.yul\":1413:1416   */\n      dup3\n        /* \"#utility.yul\":1406:1410   */\n      0x1f\n        /* \"#utility.yul\":1398:1404   */\n      dup4\n        /* \"#utility.yul\":1394:1411   */\n      add\n        /* \"#utility.yul\":1390:1417   */\n      slt\n        /* \"#utility.yul\":1380:1382   */\n      tag_322\n      jumpi\n        /* \"#utility.yul\":1431:1432   */\n      0x00\n        /* \"#utility.yul\":1428:1429   */\n      dup1\n        /* \"#utility.yul\":1421:1433   */\n      revert\n        /* \"#utility.yul\":1380:1382   */\n    tag_322:\n        /* \"#utility.yul\":1471:1477   */\n      dup2\n        /* \"#utility.yul\":1458:1478   */\n      calldataload\n        /* \"#utility.yul\":1496:1574   */\n      tag_323\n        /* \"#utility.yul\":1570:1573   */\n      dup5\n        /* \"#utility.yul\":1562:1568   */\n      dup3\n        /* \"#utility.yul\":1555:1559   */\n      0x20\n        /* \"#utility.yul\":1547:1553   */\n      dup7\n        /* \"#utility.yul\":1543:1560   */\n      add\n        /* \"#utility.yul\":1496:1574   */\n      tag_289\n      jump\t// in\n    tag_323:\n        /* \"#utility.yul\":1487:1574   */\n      swap2\n      pop\n        /* \"#utility.yul\":1370:1580   */\n      pop\n      swap3\n      swap2\n      pop\n      pop\n      jump\t// out\n        /* \"#utility.yul\":1599:1885   */\n    tag_324:\n        /* \"#utility.yul\":1665:1670   */\n      0x00\n        /* \"#utility.yul\":1714:1717   */\n      dup3\n        /* \"#utility.yul\":1707:1711   */\n      0x1f\n        /* \"#utility.yul\":1699:1705   */\n      dup4\n        /* \"#utility.yul\":1695:1712   */\n      add\n        /* \"#utility.yul\":1691:1718   */\n      slt\n        /* \"#utility.yul\":1681:1683   */\n      tag_326\n      jumpi\n        /* \"#utility.yul\":1732:1733   */\n      0x00\n        /* \"#utility.yul\":1729:1730   */\n      dup1\n        /* \"#utility.yul\":1722:1734   */\n      revert\n        /* \"#utility.yul\":1681:1683   */\n    tag_326:\n        /* \"#utility.yul\":1765:1771   */\n      dup2\n        /* \"#utility.yul\":1759:1772   */\n      mload\n        /* \"#utility.yul\":1790:1879   */\n      tag_327\n        /* \"#utility.yul\":1875:1878   */\n      dup5\n        /* \"#utility.yul\":1867:1873   */\n      dup3\n        /* \"#utility.yul\":1860:1864   */\n      0x20\n        /* \"#utility.yul\":1852:1858   */\n      dup7\n        /* \"#utility.yul\":1848:1865   */\n      add\n        /* \"#utility.yul\":1790:1879   */\n      tag_298\n      jump\t// in\n    tag_327:\n        /* \"#utility.yul\":1781:1879   */\n      swap2\n      pop\n        /* \"#utility.yul\":1671:1885   */\n      pop\n      swap3\n      swap2\n      pop\n      pop\n      jump\t// out\n        /* \"#utility.yul\":1891:2030   */\n    tag_328:\n        /* \"#utility.yul\":1937:1942   */\n      0x00\n        /* \"#utility.yul\":1975:1981   */\n      dup2\n        /* \"#utility.yul\":1962:1982   */\n      calldataload\n        /* \"#utility.yul\":1953:1982   */\n      swap1\n      pop\n        /* \"#utility.yul\":1991:2024   */\n      tag_330\n        /* \"#utility.yul\":2018:2023   */\n      dup2\n        /* \"#utility.yul\":1991:2024   */\n      tag_331\n      jump\t// in\n    tag_330:\n        /* \"#utility.yul\":1943:2030   */\n      swap3\n      swap2\n      pop\n      pop\n      jump\t// out\n        /* \"#utility.yul\":2036:2699   */\n    tag_57:\n        /* \"#utility.yul\":2122:2128   */\n      0x00\n        /* \"#utility.yul\":2130:2136   */\n      dup1\n        /* \"#utility.yul\":2138:2144   */\n      0x00\n        /* \"#utility.yul\":2187:2189   */\n      0x60\n        /* \"#utility.yul\":2175:2184   */\n      dup5\n        /* \"#utility.yul\":2166:2173   */\n      dup7\n        /* \"#utility.yul\":2162:2185   */\n      sub\n        /* \"#utility.yul\":2158:2190   */\n      slt\n        /* \"#utility.yul\":2155:2157   */\n      iszero\n      tag_333\n      jumpi\n        /* \"#utility.yul\":2203:2204   */\n      0x00\n        /* \"#utility.yul\":2200:2201   */\n      dup1\n        /* \"#utility.yul\":2193:2205   */\n      revert\n        /* \"#utility.yul\":2155:2157   */\n    tag_333:\n        /* \"#utility.yul\":2246:2247   */\n      0x00\n        /* \"#utility.yul\":2271:2324   */\n      tag_334\n        /* \"#utility.yul\":2316:2323   */\n      dup7\n        /* \"#utility.yul\":2307:2313   */\n      dup3\n        /* \"#utility.yul\":2296:2305   */\n      dup8\n        /* \"#utility.yul\":2292:2314   */\n      add\n        /* \"#utility.yul\":2271:2324   */\n      tag_305\n      jump\t// in\n    tag_334:\n        /* \"#utility.yul\":2261:2324   */\n      swap4\n      pop\n        /* \"#utility.yul\":2217:2334   */\n      pop\n        /* \"#utility.yul\":2373:2375   */\n      0x20\n        /* \"#utility.yul\":2399:2452   */\n      tag_335\n        /* \"#utility.yul\":2444:2451   */\n      dup7\n        /* \"#utility.yul\":2435:2441   */\n      dup3\n        /* \"#utility.yul\":2424:2433   */\n      dup8\n        /* \"#utility.yul\":2420:2442   */\n      add\n        /* \"#utility.yul\":2399:2452   */\n      tag_309\n      jump\t// in\n    tag_335:\n        /* \"#utility.yul\":2389:2452   */\n      swap3\n      pop\n        /* \"#utility.yul\":2344:2462   */\n      pop\n        /* \"#utility.yul\":2529:2531   */\n      0x40\n        /* \"#utility.yul\":2518:2527   */\n      dup5\n        /* \"#utility.yul\":2514:2532   */\n      add\n        /* \"#utility.yul\":2501:2533   */\n      calldataload\n        /* \"#utility.yul\":2560:2578   */\n      0xffffffffffffffff\n        /* \"#utility.yul\":2552:2558   */\n      dup2\n        /* \"#utility.yul\":2549:2579   */\n      gt\n        /* \"#utility.yul\":2546:2548   */\n      iszero\n      tag_336\n      jumpi\n        /* \"#utility.yul\":2592:2593   */\n      0x00\n        /* \"#utility.yul\":2589:2590   */\n      dup1\n        /* \"#utility.yul\":2582:2594   */\n      revert\n        /* \"#utility.yul\":2546:2548   */\n    tag_336:\n        /* \"#utility.yul\":2620:2682   */\n      tag_337\n        /* \"#utility.yul\":2674:2681   */\n      dup7\n        /* \"#utility.yul\":2665:2671   */\n      dup3\n        /* \"#utility.yul\":2654:2663   */\n      dup8\n        /* \"#utility.yul\":2650:2672   */\n      add\n        /* \"#utility.yul\":2620:2682   */\n      tag_320\n      jump\t// in\n    tag_337:\n        /* \"#utility.yul\":2610:2682   */\n      swap2\n      pop\n        /* \"#utility.yul\":2472:2692   */\n      pop\n        /* \"#utility.yul\":2145:2699   */\n      swap3\n      pop\n      swap3\n      pop\n      swap3\n      jump\t// out\n        /* \"#utility.yul\":2705:2967   */\n    tag_31:\n        /* \"#utility.yul\":2764:2770   */\n      0x00\n        /* \"#utility.yul\":2813:2815   */\n      0x20\n        /* \"#utility.yul\":2801:2810   */\n      dup3\n        /* \"#utility.yul\":2792:2799   */\n      dup5\n        /* \"#utility.yul\":2788:2811   */\n      sub\n        /* \"#utility.yul\":2784:2816   */\n      slt\n        /* \"#utility.yul\":2781:2783   */\n      iszero\n      tag_339\n      jumpi\n        /* \"#utility.yul\":2829:2830   */\n      0x00\n        /* \"#utility.yul\":2826:2827   */\n      dup1\n        /* \"#utility.yul\":2819:2831   */\n      revert\n        /* \"#utility.yul\":2781:2783   */\n    tag_339:\n        /* \"#utility.yul\":2872:2873   */\n      0x00\n        /* \"#utility.yul\":2897:2950   */\n      tag_340\n        /* \"#utility.yul\":2942:2949   */\n      dup5\n        /* \"#utility.yul\":2933:2939   */\n      dup3\n        /* \"#utility.yul\":2922:2931   */\n      dup6\n        /* \"#utility.yul\":2918:2940   */\n      add\n        /* \"#utility.yul\":2897:2950   */\n      tag_309\n      jump\t// in\n    tag_340:\n        /* \"#utility.yul\":2887:2950   */\n      swap2\n      pop\n        /* \"#utility.yul\":2843:2960   */\n      pop\n        /* \"#utility.yul\":2771:2967   */\n      swap3\n      swap2\n      pop\n      pop\n      jump\t// out\n        /* \"#utility.yul\":2973:3257   */\n    tag_154:\n        /* \"#utility.yul\":3043:3049   */\n      0x00\n        /* \"#utility.yul\":3092:3094   */\n      0x20\n        /* \"#utility.yul\":3080:3089   */\n      dup3\n        /* \"#utility.yul\":3071:3078   */\n      dup5\n        /* \"#utility.yul\":3067:3090   */\n      sub\n        /* \"#utility.yul\":3063:3095   */\n      slt\n        /* \"#utility.yul\":3060:3062   */\n      iszero\n      tag_342\n      jumpi\n        /* \"#utility.yul\":3108:3109   */\n      0x00\n        /* \"#utility.yul\":3105:3106   */\n      dup1\n        /* \"#utility.yul\":3098:3110   */\n      revert\n        /* \"#utility.yul\":3060:3062   */\n    tag_342:\n        /* \"#utility.yul\":3151:3152   */\n      0x00\n        /* \"#utility.yul\":3176:3240   */\n      tag_343\n        /* \"#utility.yul\":3232:3239   */\n      dup5\n        /* \"#utility.yul\":3223:3229   */\n      dup3\n        /* \"#utility.yul\":3212:3221   */\n      dup6\n        /* \"#utility.yul\":3208:3230   */\n      add\n        /* \"#utility.yul\":3176:3240   */\n      tag_313\n      jump\t// in\n    tag_343:\n        /* \"#utility.yul\":3166:3240   */\n      swap2\n      pop\n        /* \"#utility.yul\":3122:3250   */\n      pop\n        /* \"#utility.yul\":3050:3257   */\n      swap3\n      swap2\n      pop\n      pop\n      jump\t// out\n        /* \"#utility.yul\":3263:3670   */\n    tag_37:\n        /* \"#utility.yul\":3331:3337   */\n      0x00\n        /* \"#utility.yul\":3339:3345   */\n      dup1\n        /* \"#utility.yul\":3388:3390   */\n      0x40\n        /* \"#utility.yul\":3376:3385   */\n      dup4\n        /* \"#utility.yul\":3367:3374   */\n      dup6\n        /* \"#utility.yul\":3363:3386   */\n      sub\n        /* \"#utility.yul\":3359:3391   */\n      slt\n        /* \"#utility.yul\":3356:3358   */\n      iszero\n      tag_345\n      jumpi\n        /* \"#utility.yul\":3404:3405   */\n      0x00\n        /* \"#utility.yul\":3401:3402   */\n      dup1\n        /* \"#utility.yul\":3394:3406   */\n      revert\n        /* \"#utility.yul\":3356:3358   */\n    tag_345:\n        /* \"#utility.yul\":3447:3448   */\n      0x00\n        /* \"#utility.yul\":3472:3525   */\n      tag_346\n        /* \"#utility.yul\":3517:3524   */\n      dup6\n        /* \"#utility.yul\":3508:3514   */\n      dup3\n        /* \"#utility.yul\":3497:3506   */\n      dup7\n        /* \"#utility.yul\":3493:3515   */\n      add\n        /* \"#utility.yul\":3472:3525   */\n      tag_309\n      jump\t// in\n    tag_346:\n        /* \"#utility.yul\":3462:3525   */\n      swap3\n      pop\n        /* \"#utility.yul\":3418:3535   */\n      pop\n        /* \"#utility.yul\":3574:3576   */\n      0x20\n        /* \"#utility.yul\":3600:3653   */\n      tag_347\n        /* \"#utility.yul\":3645:3652   */\n      dup6\n        /* \"#utility.yul\":3636:3642   */\n      dup3\n        /* \"#utility.yul\":3625:3634   */\n      dup7\n        /* \"#utility.yul\":3621:3643   */\n      add\n        /* \"#utility.yul\":3600:3653   */\n      tag_305\n      jump\t// in\n    tag_347:\n        /* \"#utility.yul\":3590:3653   */\n      swap2\n      pop\n        /* \"#utility.yul\":3545:3663   */\n      pop\n        /* \"#utility.yul\":3346:3670   */\n      swap3\n      pop\n      swap3\n      swap1\n      pop\n      jump\t// out\n        /* \"#utility.yul\":3676:3936   */\n    tag_25:\n        /* \"#utility.yul\":3734:3740   */\n      0x00\n        /* \"#utility.yul\":3783:3785   */\n      0x20\n        /* \"#utility.yul\":3771:3780   */\n      dup3\n        /* \"#utility.yul\":3762:3769   */\n      dup5\n        /* \"#utility.yul\":3758:3781   */\n      sub\n        /* \"#utility.yul\":3754:3786   */\n      slt\n        /* \"#utility.yul\":3751:3753   */\n      iszero\n      tag_349\n      jumpi\n        /* \"#utility.yul\":3799:3800   */\n      0x00\n        /* \"#utility.yul\":3796:3797   */\n      dup1\n        /* \"#utility.yul\":3789:3801   */\n      revert\n        /* \"#utility.yul\":3751:3753   */\n    tag_349:\n        /* \"#utility.yul\":3842:3843   */\n      0x00\n        /* \"#utility.yul\":3867:3919   */\n      tag_350\n        /* \"#utility.yul\":3911:3918   */\n      dup5\n        /* \"#utility.yul\":3902:3908   */\n      dup3\n        /* \"#utility.yul\":3891:3900   */\n      dup6\n        /* \"#utility.yul\":3887:3909   */\n      add\n        /* \"#utility.yul\":3867:3919   */\n      tag_316\n      jump\t// in\n    tag_350:\n        /* \"#utility.yul\":3857:3919   */\n      swap2\n      pop\n        /* \"#utility.yul\":3813:3929   */\n      pop\n        /* \"#utility.yul\":3741:3936   */\n      swap3\n      swap2\n      pop\n      pop\n      jump\t// out\n        /* \"#utility.yul\":3942:4315   */\n    tag_41:\n        /* \"#utility.yul\":4010:4016   */\n      0x00\n        /* \"#utility.yul\":4059:4061   */\n      0x20\n        /* \"#utility.yul\":4047:4056   */\n      dup3\n        /* \"#utility.yul\":4038:4045   */\n      dup5\n        /* \"#utility.yul\":4034:4057   */\n      sub\n        /* \"#utility.yul\":4030:4062   */\n      slt\n        /* \"#utility.yul\":4027:4029   */\n      iszero\n      tag_352\n      jumpi\n        /* \"#utility.yul\":4075:4076   */\n      0x00\n        /* \"#utility.yul\":4072:4073   */\n      dup1\n        /* \"#utility.yul\":4065:4077   */\n      revert\n        /* \"#utility.yul\":4027:4029   */\n    tag_352:\n        /* \"#utility.yul\":4146:4147   */\n      0x00\n        /* \"#utility.yul\":4135:4144   */\n      dup3\n        /* \"#utility.yul\":4131:4148   */\n      add\n        /* \"#utility.yul\":4118:4149   */\n      calldataload\n        /* \"#utility.yul\":4176:4194   */\n      0xffffffffffffffff\n        /* \"#utility.yul\":4168:4174   */\n      dup2\n        /* \"#utility.yul\":4165:4195   */\n      gt\n        /* \"#utility.yul\":4162:4164   */\n      iszero\n      tag_353\n      jumpi\n        /* \"#utility.yul\":4208:4209   */\n      0x00\n        /* \"#utility.yul\":4205:4206   */\n      dup1\n        /* \"#utility.yul\":4198:4210   */\n      revert\n        /* \"#utility.yul\":4162:4164   */\n    tag_353:\n        /* \"#utility.yul\":4236:4298   */\n      tag_354\n        /* \"#utility.yul\":4290:4297   */\n      dup5\n        /* \"#utility.yul\":4281:4287   */\n      dup3\n        /* \"#utility.yul\":4270:4279   */\n      dup6\n        /* \"#utility.yul\":4266:4288   */\n      add\n        /* \"#utility.yul\":4236:4298   */\n      tag_320\n      jump\t// in\n    tag_354:\n        /* \"#utility.yul\":4226:4298   */\n      swap2\n      pop\n        /* \"#utility.yul\":4089:4308   */\n      pop\n        /* \"#utility.yul\":4017:4315   */\n      swap3\n      swap2\n      pop\n      pop\n      jump\t// out\n        /* \"#utility.yul\":4321:4709   */\n    tag_146:\n        /* \"#utility.yul\":4400:4406   */\n      0x00\n        /* \"#utility.yul\":4449:4451   */\n      0x20\n        /* \"#utility.yul\":4437:4446   */\n      dup3\n        /* \"#utility.yul\":4428:4435   */\n      dup5\n        /* \"#utility.yul\":4424:4447   */\n      sub\n        /* \"#utility.yul\":4420:4452   */\n      slt\n        /* \"#utility.yul\":4417:4419   */\n      iszero\n      tag_356\n      jumpi\n        /* \"#utility.yul\":4465:4466   */\n      0x00\n        /* \"#utility.yul\":4462:4463   */\n      dup1\n        /* \"#utility.yul\":4455:4467   */\n      revert\n        /* \"#utility.yul\":4417:4419   */\n    tag_356:\n        /* \"#utility.yul\":4529:4530   */\n      0x00\n        /* \"#utility.yul\":4518:4527   */\n      dup3\n        /* \"#utility.yul\":4514:4531   */\n      add\n        /* \"#utility.yul\":4508:4532   */\n      mload\n        /* \"#utility.yul\":4559:4577   */\n      0xffffffffffffffff\n        /* \"#utility.yul\":4551:4557   */\n      dup2\n        /* \"#utility.yul\":4548:4578   */\n      gt\n        /* \"#utility.yul\":4545:4547   */\n      iszero\n      tag_357\n      jumpi\n        /* \"#utility.yul\":4591:4592   */\n      0x00\n        /* \"#utility.yul\":4588:4589   */\n      dup1\n        /* \"#utility.yul\":4581:4593   */\n      revert\n        /* \"#utility.yul\":4545:4547   */\n    tag_357:\n        /* \"#utility.yul\":4619:4692   */\n      tag_358\n        /* \"#utility.yul\":4684:4691   */\n      dup5\n        /* \"#utility.yul\":4675:4681   */\n      dup3\n        /* \"#utility.yul\":4664:4673   */\n      dup6\n        /* \"#utility.yul\":4660:4682   */\n      add\n        /* \"#utility.yul\":4619:4692   */\n      tag_324\n      jump\t// in\n    tag_358:\n        /* \"#utility.yul\":4609:4692   */\n      swap2\n      pop\n        /* \"#utility.yul\":4479:4702   */\n      pop\n        /* \"#utility.yul\":4407:4709   */\n      swap3\n      swap2\n      pop\n      pop\n      jump\t// out\n        /* \"#utility.yul\":4715:5233   */\n    tag_78:\n        /* \"#utility.yul\":4792:4798   */\n      0x00\n        /* \"#utility.yul\":4800:4806   */\n      dup1\n        /* \"#utility.yul\":4849:4851   */\n      0x40\n        /* \"#utility.yul\":4837:4846   */\n      dup4\n        /* \"#utility.yul\":4828:4835   */\n      dup6\n        /* \"#utility.yul\":4824:4847   */\n      sub\n        /* \"#utility.yul\":4820:4852   */\n      slt\n        /* \"#utility.yul\":4817:4819   */\n      iszero\n      tag_360\n      jumpi\n        /* \"#utility.yul\":4865:4866   */\n      0x00\n        /* \"#utility.yul\":4862:4863   */\n      dup1\n        /* \"#utility.yul\":4855:4867   */\n      revert\n        /* \"#utility.yul\":4817:4819   */\n    tag_360:\n        /* \"#utility.yul\":4936:4937   */\n      0x00\n        /* \"#utility.yul\":4925:4934   */\n      dup4\n        /* \"#utility.yul\":4921:4938   */\n      add\n        /* \"#utility.yul\":4908:4939   */\n      calldataload\n        /* \"#utility.yul\":4966:4984   */\n      0xffffffffffffffff\n        /* \"#utility.yul\":4958:4964   */\n      dup2\n        /* \"#utility.yul\":4955:4985   */\n      gt\n        /* \"#utility.yul\":4952:4954   */\n      iszero\n      tag_361\n      jumpi\n        /* \"#utility.yul\":4998:4999   */\n      0x00\n        /* \"#utility.yul\":4995:4996   */\n      dup1\n        /* \"#utility.yul\":4988:5000   */\n      revert\n        /* \"#utility.yul\":4952:4954   */\n    tag_361:\n        /* \"#utility.yul\":5026:5088   */\n      tag_362\n        /* \"#utility.yul\":5080:5087   */\n      dup6\n        /* \"#utility.yul\":5071:5077   */\n      dup3\n        /* \"#utility.yul\":5060:5069   */\n      dup7\n        /* \"#utility.yul\":5056:5078   */\n      add\n        /* \"#utility.yul\":5026:5088   */\n      tag_320\n      jump\t// in\n    tag_362:\n        /* \"#utility.yul\":5016:5088   */\n      swap3\n      pop\n        /* \"#utility.yul\":4879:5098   */\n      pop\n        /* \"#utility.yul\":5137:5139   */\n      0x20\n        /* \"#utility.yul\":5163:5216   */\n      tag_363\n        /* \"#utility.yul\":5208:5215   */\n      dup6\n        /* \"#utility.yul\":5199:5205   */\n      dup3\n        /* \"#utility.yul\":5188:5197   */\n      dup7\n        /* \"#utility.yul\":5184:5206   */\n      add\n        /* \"#utility.yul\":5163:5216   */\n      tag_328\n      jump\t// in\n    tag_363:\n        /* \"#utility.yul\":5153:5216   */\n      swap2\n      pop\n        /* \"#utility.yul\":5108:5226   */\n      pop\n        /* \"#utility.yul\":4807:5233   */\n      swap3\n      pop\n      swap3\n      swap1\n      pop\n      jump\t// out\n        /* \"#utility.yul\":5239:5501   */\n    tag_50:\n        /* \"#utility.yul\":5298:5304   */\n      0x00\n        /* \"#utility.yul\":5347:5349   */\n      0x20\n        /* \"#utility.yul\":5335:5344   */\n      dup3\n        /* \"#utility.yul\":5326:5333   */\n      dup5\n        /* \"#utility.yul\":5322:5345   */\n      sub\n        /* \"#utility.yul\":5318:5350   */\n      slt\n        /* \"#utility.yul\":5315:5317   */\n      iszero\n      tag_365\n      jumpi\n        /* \"#utility.yul\":5363:5364   */\n      0x00\n        /* \"#utility.yul\":5360:5361   */\n      dup1\n        /* \"#utility.yul\":5353:5365   */\n      revert\n        /* \"#utility.yul\":5315:5317   */\n    tag_365:\n        /* \"#utility.yul\":5406:5407   */\n      0x00\n        /* \"#utility.yul\":5431:5484   */\n      tag_366\n        /* \"#utility.yul\":5476:5483   */\n      dup5\n        /* \"#utility.yul\":5467:5473   */\n      dup3\n        /* \"#utility.yul\":5456:5465   */\n      dup6\n        /* \"#utility.yul\":5452:5474   */\n      add\n        /* \"#utility.yul\":5431:5484   */\n      tag_328\n      jump\t// in\n    tag_366:\n        /* \"#utility.yul\":5421:5484   */\n      swap2\n      pop\n        /* \"#utility.yul\":5377:5494   */\n      pop\n        /* \"#utility.yul\":5305:5501   */\n      swap3\n      swap2\n      pop\n      pop\n      jump\t// out\n        /* \"#utility.yul\":5507:5625   */\n    tag_367:\n        /* \"#utility.yul\":5594:5618   */\n      tag_369\n        /* \"#utility.yul\":5612:5617   */\n      dup2\n        /* \"#utility.yul\":5594:5618   */\n      tag_370\n      jump\t// in\n    tag_369:\n        /* \"#utility.yul\":5589:5592   */\n      dup3\n        /* \"#utility.yul\":5582:5619   */\n      mstore\n        /* \"#utility.yul\":5572:5625   */\n      pop\n      pop\n      jump\t// out\n        /* \"#utility.yul\":5631:5740   */\n    tag_371:\n        /* \"#utility.yul\":5712:5733   */\n      tag_373\n        /* \"#utility.yul\":5727:5732   */\n      dup2\n        /* \"#utility.yul\":5712:5733   */\n      tag_374\n      jump\t// in\n    tag_373:\n        /* \"#utility.yul\":5707:5710   */\n      dup3\n        /* \"#utility.yul\":5700:5734   */\n      mstore\n        /* \"#utility.yul\":5690:5740   */\n      pop\n      pop\n      jump\t// out\n        /* \"#utility.yul\":5746:5899   */\n    tag_375:\n        /* \"#utility.yul\":5849:5892   */\n      tag_377\n        /* \"#utility.yul\":5868:5891   */\n      tag_378\n        /* \"#utility.yul\":5885:5890   */\n      dup3\n        /* \"#utility.yul\":5868:5891   */\n      tag_379\n      jump\t// in\n    tag_378:\n        /* \"#utility.yul\":5849:5892   */\n      tag_380\n      jump\t// in\n    tag_377:\n        /* \"#utility.yul\":5844:5847   */\n      dup3\n        /* \"#utility.yul\":5837:5893   */\n      mstore\n        /* \"#utility.yul\":5827:5899   */\n      pop\n      pop\n      jump\t// out\n        /* \"#utility.yul\":5905:6062   */\n    tag_381:\n        /* \"#utility.yul\":6010:6055   */\n      tag_383\n        /* \"#utility.yul\":6030:6054   */\n      tag_384\n        /* \"#utility.yul\":6048:6053   */\n      dup3\n        /* \"#utility.yul\":6030:6054   */\n      tag_385\n      jump\t// in\n    tag_384:\n        /* \"#utility.yul\":6010:6055   */\n      tag_386\n      jump\t// in\n    tag_383:\n        /* \"#utility.yul\":6005:6008   */\n      dup3\n        /* \"#utility.yul\":5998:6056   */\n      mstore\n        /* \"#utility.yul\":5988:6062   */\n      pop\n      pop\n      jump\t// out\n        /* \"#utility.yul\":6068:6186   */\n    tag_387:\n        /* \"#utility.yul\":6155:6179   */\n      tag_389\n        /* \"#utility.yul\":6173:6178   */\n      dup2\n        /* \"#utility.yul\":6155:6179   */\n      tag_390\n      jump\t// in\n    tag_389:\n        /* \"#utility.yul\":6150:6153   */\n      dup3\n        /* \"#utility.yul\":6143:6180   */\n      mstore\n        /* \"#utility.yul\":6133:6186   */\n      pop\n      pop\n      jump\t// out\n        /* \"#utility.yul\":6192:6349   */\n    tag_391:\n        /* \"#utility.yul\":6297:6342   */\n      tag_393\n        /* \"#utility.yul\":6317:6341   */\n      tag_394\n        /* \"#utility.yul\":6335:6340   */\n      dup3\n        /* \"#utility.yul\":6317:6341   */\n      tag_390\n      jump\t// in\n    tag_394:\n        /* \"#utility.yul\":6297:6342   */\n      tag_395\n      jump\t// in\n    tag_393:\n        /* \"#utility.yul\":6292:6295   */\n      dup3\n        /* \"#utility.yul\":6285:6343   */\n      mstore\n        /* \"#utility.yul\":6275:6349   */\n      pop\n      pop\n      jump\t// out\n        /* \"#utility.yul\":6355:6715   */\n    tag_396:\n        /* \"#utility.yul\":6441:6444   */\n      0x00\n        /* \"#utility.yul\":6469:6507   */\n      tag_398\n        /* \"#utility.yul\":6501:6506   */\n      dup3\n        /* \"#utility.yul\":6469:6507   */\n      tag_399\n      jump\t// in\n    tag_398:\n        /* \"#utility.yul\":6523:6593   */\n      tag_400\n        /* \"#utility.yul\":6586:6592   */\n      dup2\n        /* \"#utility.yul\":6581:6584   */\n      dup6\n        /* \"#utility.yul\":6523:6593   */\n      tag_401\n      jump\t// in\n    tag_400:\n        /* \"#utility.yul\":6516:6593   */\n      swap4\n      pop\n        /* \"#utility.yul\":6602:6654   */\n      tag_402\n        /* \"#utility.yul\":6647:6653   */\n      dup2\n        /* \"#utility.yul\":6642:6645   */\n      dup6\n        /* \"#utility.yul\":6635:6639   */\n      0x20\n        /* \"#utility.yul\":6628:6633   */\n      dup7\n        /* \"#utility.yul\":6624:6640   */\n      add\n        /* \"#utility.yul\":6602:6654   */\n      tag_304\n      jump\t// in\n    tag_402:\n        /* \"#utility.yul\":6679:6708   */\n      tag_403\n        /* \"#utility.yul\":6701:6707   */\n      dup2\n        /* \"#utility.yul\":6679:6708   */\n      tag_404\n      jump\t// in\n    tag_403:\n        /* \"#utility.yul\":6674:6677   */\n      dup5\n        /* \"#utility.yul\":6670:6709   */\n      add\n        /* \"#utility.yul\":6663:6709   */\n      swap2\n      pop\n        /* \"#utility.yul\":6445:6715   */\n      pop\n      swap3\n      swap2\n      pop\n      pop\n      jump\t// out\n        /* \"#utility.yul\":6721:7094   */\n    tag_405:\n        /* \"#utility.yul\":6825:6828   */\n      0x00\n        /* \"#utility.yul\":6853:6891   */\n      tag_407\n        /* \"#utility.yul\":6885:6890   */\n      dup3\n        /* \"#utility.yul\":6853:6891   */\n      tag_399\n      jump\t// in\n    tag_407:\n        /* \"#utility.yul\":6907:6995   */\n      tag_408\n        /* \"#utility.yul\":6988:6994   */\n      dup2\n        /* \"#utility.yul\":6983:6986   */\n      dup6\n        /* \"#utility.yul\":6907:6995   */\n      tag_409\n      jump\t// in\n    tag_408:\n        /* \"#utility.yul\":6900:6995   */\n      swap4\n      pop\n        /* \"#utility.yul\":7004:7056   */\n      tag_410\n        /* \"#utility.yul\":7049:7055   */\n      dup2\n        /* \"#utility.yul\":7044:7047   */\n      dup6\n        /* \"#utility.yul\":7037:7041   */\n      0x20\n        /* \"#utility.yul\":7030:7035   */\n      dup7\n        /* \"#utility.yul\":7026:7042   */\n      add\n        /* \"#utility.yul\":7004:7056   */\n      tag_304\n      jump\t// in\n    tag_410:\n        /* \"#utility.yul\":7081:7087   */\n      dup1\n        /* \"#utility.yul\":7076:7079   */\n      dup5\n        /* \"#utility.yul\":7072:7088   */\n      add\n        /* \"#utility.yul\":7065:7088   */\n      swap2\n      pop\n        /* \"#utility.yul\":6829:7094   */\n      pop\n      swap3\n      swap2\n      pop\n      pop\n      jump\t// out\n        /* \"#utility.yul\":7100:7464   */\n    tag_411:\n        /* \"#utility.yul\":7188:7191   */\n      0x00\n        /* \"#utility.yul\":7216:7255   */\n      tag_413\n        /* \"#utility.yul\":7249:7254   */\n      dup3\n        /* \"#utility.yul\":7216:7255   */\n      tag_414\n      jump\t// in\n    tag_413:\n        /* \"#utility.yul\":7271:7342   */\n      tag_415\n        /* \"#utility.yul\":7335:7341   */\n      dup2\n        /* \"#utility.yul\":7330:7333   */\n      dup6\n        /* \"#utility.yul\":7271:7342   */\n      tag_416\n      jump\t// in\n    tag_415:\n        /* \"#utility.yul\":7264:7342   */\n      swap4\n      pop\n        /* \"#utility.yul\":7351:7403   */\n      tag_417\n        /* \"#utility.yul\":7396:7402   */\n      dup2\n        /* \"#utility.yul\":7391:7394   */\n      dup6\n        /* \"#utility.yul\":7384:7388   */\n      0x20\n        /* \"#utility.yul\":7377:7382   */\n      dup7\n        /* \"#utility.yul\":7373:7389   */\n      add\n        /* \"#utility.yul\":7351:7403   */\n      tag_304\n      jump\t// in\n    tag_417:\n        /* \"#utility.yul\":7428:7457   */\n      tag_418\n        /* \"#utility.yul\":7450:7456   */\n      dup2\n        /* \"#utility.yul\":7428:7457   */\n      tag_404\n      jump\t// in\n    tag_418:\n        /* \"#utility.yul\":7423:7426   */\n      dup5\n        /* \"#utility.yul\":7419:7458   */\n      add\n        /* \"#utility.yul\":7412:7458   */\n      swap2\n      pop\n        /* \"#utility.yul\":7192:7464   */\n      pop\n      swap3\n      swap2\n      pop\n      pop\n      jump\t// out\n        /* \"#utility.yul\":7470:7847   */\n    tag_419:\n        /* \"#utility.yul\":7576:7579   */\n      0x00\n        /* \"#utility.yul\":7604:7643   */\n      tag_421\n        /* \"#utility.yul\":7637:7642   */\n      dup3\n        /* \"#utility.yul\":7604:7643   */\n      tag_414\n      jump\t// in\n    tag_421:\n        /* \"#utility.yul\":7659:7748   */\n      tag_422\n        /* \"#utility.yul\":7741:7747   */\n      dup2\n        /* \"#utility.yul\":7736:7739   */\n      dup6\n        /* \"#utility.yul\":7659:7748   */\n      tag_423\n      jump\t// in\n    tag_422:\n        /* \"#utility.yul\":7652:7748   */\n      swap4\n      pop\n        /* \"#utility.yul\":7757:7809   */\n      tag_424\n        /* \"#utility.yul\":7802:7808   */\n      dup2\n        /* \"#utility.yul\":7797:7800   */\n      dup6\n        /* \"#utility.yul\":7790:7794   */\n      0x20\n        /* \"#utility.yul\":7783:7788   */\n      dup7\n        /* \"#utility.yul\":7779:7795   */\n      add\n        /* \"#utility.yul\":7757:7809   */\n      tag_304\n      jump\t// in\n    tag_424:\n        /* \"#utility.yul\":7834:7840   */\n      dup1\n        /* \"#utility.yul\":7829:7832   */\n      dup5\n        /* \"#utility.yul\":7825:7841   */\n      add\n        /* \"#utility.yul\":7818:7841   */\n      swap2\n      pop\n        /* \"#utility.yul\":7580:7847   */\n      pop\n      swap3\n      swap2\n      pop\n      pop\n      jump\t// out\n        /* \"#utility.yul\":7853:8219   */\n    tag_425:\n        /* \"#utility.yul\":7995:7998   */\n      0x00\n        /* \"#utility.yul\":8016:8083   */\n      tag_427\n        /* \"#utility.yul\":8080:8082   */\n      0x20\n        /* \"#utility.yul\":8075:8078   */\n      dup4\n        /* \"#utility.yul\":8016:8083   */\n      tag_416\n      jump\t// in\n    tag_427:\n        /* \"#utility.yul\":8009:8083   */\n      swap2\n      pop\n        /* \"#utility.yul\":8092:8185   */\n      tag_428\n        /* \"#utility.yul\":8181:8184   */\n      dup3\n        /* \"#utility.yul\":8092:8185   */\n      tag_429\n      jump\t// in\n    tag_428:\n        /* \"#utility.yul\":8210:8212   */\n      0x20\n        /* \"#utility.yul\":8205:8208   */\n      dup3\n        /* \"#utility.yul\":8201:8213   */\n      add\n        /* \"#utility.yul\":8194:8213   */\n      swap1\n      pop\n        /* \"#utility.yul\":7999:8219   */\n      swap2\n      swap1\n      pop\n      jump\t// out\n        /* \"#utility.yul\":8225:8591   */\n    tag_430:\n        /* \"#utility.yul\":8367:8370   */\n      0x00\n        /* \"#utility.yul\":8388:8455   */\n      tag_432\n        /* \"#utility.yul\":8452:8454   */\n      0x14\n        /* \"#utility.yul\":8447:8450   */\n      dup4\n        /* \"#utility.yul\":8388:8455   */\n      tag_416\n      jump\t// in\n    tag_432:\n        /* \"#utility.yul\":8381:8455   */\n      swap2\n      pop\n        /* \"#utility.yul\":8464:8557   */\n      tag_433\n        /* \"#utility.yul\":8553:8556   */\n      dup3\n        /* \"#utility.yul\":8464:8557   */\n      tag_434\n      jump\t// in\n    tag_433:\n        /* \"#utility.yul\":8582:8584   */\n      0x20\n        /* \"#utility.yul\":8577:8580   */\n      dup3\n        /* \"#utility.yul\":8573:8585   */\n      add\n        /* \"#utility.yul\":8566:8585   */\n      swap1\n      pop\n        /* \"#utility.yul\":8371:8591   */\n      swap2\n      swap1\n      pop\n      jump\t// out\n        /* \"#utility.yul\":8597:8963   */\n    tag_435:\n        /* \"#utility.yul\":8739:8742   */\n      0x00\n        /* \"#utility.yul\":8760:8827   */\n      tag_437\n        /* \"#utility.yul\":8824:8826   */\n      0x1e\n        /* \"#utility.yul\":8819:8822   */\n      dup4\n        /* \"#utility.yul\":8760:8827   */\n      tag_416\n      jump\t// in\n    tag_437:\n        /* \"#utility.yul\":8753:8827   */\n      swap2\n      pop\n        /* \"#utility.yul\":8836:8929   */\n      tag_438\n        /* \"#utility.yul\":8925:8928   */\n      dup3\n        /* \"#utility.yul\":8836:8929   */\n      tag_439\n      jump\t// in\n    tag_438:\n        /* \"#utility.yul\":8954:8956   */\n      0x20\n        /* \"#utility.yul\":8949:8952   */\n      dup3\n        /* \"#utility.yul\":8945:8957   */\n      add\n        /* \"#utility.yul\":8938:8957   */\n      swap1\n      pop\n        /* \"#utility.yul\":8743:8963   */\n      swap2\n      swap1\n      pop\n      jump\t// out\n        /* \"#utility.yul\":8969:9335   */\n    tag_440:\n        /* \"#utility.yul\":9111:9114   */\n      0x00\n        /* \"#utility.yul\":9132:9199   */\n      tag_442\n        /* \"#utility.yul\":9196:9198   */\n      0x4f\n        /* \"#utility.yul\":9191:9194   */\n      dup4\n        /* \"#utility.yul\":9132:9199   */\n      tag_416\n      jump\t// in\n    tag_442:\n        /* \"#utility.yul\":9125:9199   */\n      swap2\n      pop\n        /* \"#utility.yul\":9208:9301   */\n      tag_443\n        /* \"#utility.yul\":9297:9300   */\n      dup3\n        /* \"#utility.yul\":9208:9301   */\n      tag_444\n      jump\t// in\n    tag_443:\n        /* \"#utility.yul\":9326:9328   */\n      0x60\n        /* \"#utility.yul\":9321:9324   */\n      dup3\n        /* \"#utility.yul\":9317:9329   */\n      add\n        /* \"#utility.yul\":9310:9329   */\n      swap1\n      pop\n        /* \"#utility.yul\":9115:9335   */\n      swap2\n      swap1\n      pop\n      jump\t// out\n        /* \"#utility.yul\":9341:9707   */\n    tag_445:\n        /* \"#utility.yul\":9483:9486   */\n      0x00\n        /* \"#utility.yul\":9504:9571   */\n      tag_447\n        /* \"#utility.yul\":9568:9570   */\n      0x10\n        /* \"#utility.yul\":9563:9566   */\n      dup4\n        /* \"#utility.yul\":9504:9571   */\n      tag_416\n      jump\t// in\n    tag_447:\n        /* \"#utility.yul\":9497:9571   */\n      swap2\n      pop\n        /* \"#utility.yul\":9580:9673   */\n      tag_448\n        /* \"#utility.yul\":9669:9672   */\n      dup3\n        /* \"#utility.yul\":9580:9673   */\n      tag_449\n      jump\t// in\n    tag_448:\n        /* \"#utility.yul\":9698:9700   */\n      0x20\n        /* \"#utility.yul\":9693:9696   */\n      dup3\n        /* \"#utility.yul\":9689:9701   */\n      add\n        /* \"#utility.yul\":9682:9701   */\n      swap1\n      pop\n        /* \"#utility.yul\":9487:9707   */\n      swap2\n      swap1\n      pop\n      jump\t// out\n        /* \"#utility.yul\":9713:10079   */\n    tag_450:\n        /* \"#utility.yul\":9855:9858   */\n      0x00\n        /* \"#utility.yul\":9876:9943   */\n      tag_452\n        /* \"#utility.yul\":9940:9942   */\n      0x53\n        /* \"#utility.yul\":9935:9938   */\n      dup4\n        /* \"#utility.yul\":9876:9943   */\n      tag_416\n      jump\t// in\n    tag_452:\n        /* \"#utility.yul\":9869:9943   */\n      swap2\n      pop\n        /* \"#utility.yul\":9952:10045   */\n      tag_453\n        /* \"#utility.yul\":10041:10044   */\n      dup3\n        /* \"#utility.yul\":9952:10045   */\n      tag_454\n      jump\t// in\n    tag_453:\n        /* \"#utility.yul\":10070:10072   */\n      0x60\n        /* \"#utility.yul\":10065:10068   */\n      dup3\n        /* \"#utility.yul\":10061:10073   */\n      add\n        /* \"#utility.yul\":10054:10073   */\n      swap1\n      pop\n        /* \"#utility.yul\":9859:10079   */\n      swap2\n      swap1\n      pop\n      jump\t// out\n        /* \"#utility.yul\":10085:10483   */\n    tag_455:\n        /* \"#utility.yul\":10244:10247   */\n      0x00\n        /* \"#utility.yul\":10265:10348   */\n      tag_457\n        /* \"#utility.yul\":10346:10347   */\n      0x00\n        /* \"#utility.yul\":10341:10344   */\n      dup4\n        /* \"#utility.yul\":10265:10348   */\n      tag_409\n      jump\t// in\n    tag_457:\n        /* \"#utility.yul\":10258:10348   */\n      swap2\n      pop\n        /* \"#utility.yul\":10357:10450   */\n      tag_458\n        /* \"#utility.yul\":10446:10449   */\n      dup3\n        /* \"#utility.yul\":10357:10450   */\n      tag_459\n      jump\t// in\n    tag_458:\n        /* \"#utility.yul\":10475:10476   */\n      0x00\n        /* \"#utility.yul\":10470:10473   */\n      dup3\n        /* \"#utility.yul\":10466:10477   */\n      add\n        /* \"#utility.yul\":10459:10477   */\n      swap1\n      pop\n        /* \"#utility.yul\":10248:10483   */\n      swap2\n      swap1\n      pop\n      jump\t// out\n        /* \"#utility.yul\":10489:10855   */\n    tag_460:\n        /* \"#utility.yul\":10631:10634   */\n      0x00\n        /* \"#utility.yul\":10652:10719   */\n      tag_462\n        /* \"#utility.yul\":10716:10718   */\n      0x2c\n        /* \"#utility.yul\":10711:10714   */\n      dup4\n        /* \"#utility.yul\":10652:10719   */\n      tag_416\n      jump\t// in\n    tag_462:\n        /* \"#utility.yul\":10645:10719   */\n      swap2\n      pop\n        /* \"#utility.yul\":10728:10821   */\n      tag_463\n        /* \"#utility.yul\":10817:10820   */\n      dup3\n        /* \"#utility.yul\":10728:10821   */\n      tag_464\n      jump\t// in\n    tag_463:\n        /* \"#utility.yul\":10846:10848   */\n      0x40\n        /* \"#utility.yul\":10841:10844   */\n      dup3\n        /* \"#utility.yul\":10837:10849   */\n      add\n        /* \"#utility.yul\":10830:10849   */\n      swap1\n      pop\n        /* \"#utility.yul\":10635:10855   */\n      swap2\n      swap1\n      pop\n      jump\t// out\n        /* \"#utility.yul\":10861:11263   */\n    tag_465:\n        /* \"#utility.yul\":11021:11024   */\n      0x00\n        /* \"#utility.yul\":11042:11127   */\n      tag_467\n        /* \"#utility.yul\":11124:11126   */\n      0x17\n        /* \"#utility.yul\":11119:11122   */\n      dup4\n        /* \"#utility.yul\":11042:11127   */\n      tag_423\n      jump\t// in\n    tag_467:\n        /* \"#utility.yul\":11035:11127   */\n      swap2\n      pop\n        /* \"#utility.yul\":11136:11229   */\n      tag_468\n        /* \"#utility.yul\":11225:11228   */\n      dup3\n        /* \"#utility.yul\":11136:11229   */\n      tag_469\n      jump\t// in\n    tag_468:\n        /* \"#utility.yul\":11254:11256   */\n      0x17\n        /* \"#utility.yul\":11249:11252   */\n      dup3\n        /* \"#utility.yul\":11245:11257   */\n      add\n        /* \"#utility.yul\":11238:11257   */\n      swap1\n      pop\n        /* \"#utility.yul\":11025:11263   */\n      swap2\n      swap1\n      pop\n      jump\t// out\n        /* \"#utility.yul\":11269:11635   */\n    tag_470:\n        /* \"#utility.yul\":11411:11414   */\n      0x00\n        /* \"#utility.yul\":11432:11499   */\n      tag_472\n        /* \"#utility.yul\":11496:11498   */\n      0x1e\n        /* \"#utility.yul\":11491:11494   */\n      dup4\n        /* \"#utility.yul\":11432:11499   */\n      tag_416\n      jump\t// in\n    tag_472:\n        /* \"#utility.yul\":11425:11499   */\n      swap2\n      pop\n        /* \"#utility.yul\":11508:11601   */\n      tag_473\n        /* \"#utility.yul\":11597:11600   */\n      dup3\n        /* \"#utility.yul\":11508:11601   */\n      tag_474\n      jump\t// in\n    tag_473:\n        /* \"#utility.yul\":11626:11628   */\n      0x20\n        /* \"#utility.yul\":11621:11624   */\n      dup3\n        /* \"#utility.yul\":11617:11629   */\n      add\n        /* \"#utility.yul\":11610:11629   */\n      swap1\n      pop\n        /* \"#utility.yul\":11415:11635   */\n      swap2\n      swap1\n      pop\n      jump\t// out\n        /* \"#utility.yul\":11641:12007   */\n    tag_475:\n        /* \"#utility.yul\":11783:11786   */\n      0x00\n        /* \"#utility.yul\":11804:11871   */\n      tag_477\n        /* \"#utility.yul\":11868:11870   */\n      0x29\n        /* \"#utility.yul\":11863:11866   */\n      dup4\n        /* \"#utility.yul\":11804:11871   */\n      tag_416\n      jump\t// in\n    tag_477:\n        /* \"#utility.yul\":11797:11871   */\n      swap2\n      pop\n        /* \"#utility.yul\":11880:11973   */\n      tag_478\n        /* \"#utility.yul\":11969:11972   */\n      dup3\n        /* \"#utility.yul\":11880:11973   */\n      tag_479\n      jump\t// in\n    tag_478:\n        /* \"#utility.yul\":11998:12000   */\n      0x40\n        /* \"#utility.yul\":11993:11996   */\n      dup3\n        /* \"#utility.yul\":11989:12001   */\n      add\n        /* \"#utility.yul\":11982:12001   */\n      swap1\n      pop\n        /* \"#utility.yul\":11787:12007   */\n      swap2\n      swap1\n      pop\n      jump\t// out\n        /* \"#utility.yul\":12013:12415   */\n    tag_480:\n        /* \"#utility.yul\":12173:12176   */\n      0x00\n        /* \"#utility.yul\":12194:12279   */\n      tag_482\n        /* \"#utility.yul\":12276:12278   */\n      0x11\n        /* \"#utility.yul\":12271:12274   */\n      dup4\n        /* \"#utility.yul\":12194:12279   */\n      tag_423\n      jump\t// in\n    tag_482:\n        /* \"#utility.yul\":12187:12279   */\n      swap2\n      pop\n        /* \"#utility.yul\":12288:12381   */\n      tag_483\n        /* \"#utility.yul\":12377:12380   */\n      dup3\n        /* \"#utility.yul\":12288:12381   */\n      tag_484\n      jump\t// in\n    tag_483:\n        /* \"#utility.yul\":12406:12408   */\n      0x11\n        /* \"#utility.yul\":12401:12404   */\n      dup3\n        /* \"#utility.yul\":12397:12409   */\n      add\n        /* \"#utility.yul\":12390:12409   */\n      swap1\n      pop\n        /* \"#utility.yul\":12177:12415   */\n      swap2\n      swap1\n      pop\n      jump\t// out\n        /* \"#utility.yul\":12421:12787   */\n    tag_485:\n        /* \"#utility.yul\":12563:12566   */\n      0x00\n        /* \"#utility.yul\":12584:12651   */\n      tag_487\n        /* \"#utility.yul\":12648:12650   */\n      0x2f\n        /* \"#utility.yul\":12643:12646   */\n      dup4\n        /* \"#utility.yul\":12584:12651   */\n      tag_416\n      jump\t// in\n    tag_487:\n        /* \"#utility.yul\":12577:12651   */\n      swap2\n      pop\n        /* \"#utility.yul\":12660:12753   */\n      tag_488\n        /* \"#utility.yul\":12749:12752   */\n      dup3\n        /* \"#utility.yul\":12660:12753   */\n      tag_489\n      jump\t// in\n    tag_488:\n        /* \"#utility.yul\":12778:12780   */\n      0x40\n        /* \"#utility.yul\":12773:12776   */\n      dup3\n        /* \"#utility.yul\":12769:12781   */\n      add\n        /* \"#utility.yul\":12762:12781   */\n      swap1\n      pop\n        /* \"#utility.yul\":12567:12787   */\n      swap2\n      swap1\n      pop\n      jump\t// out\n        /* \"#utility.yul\":12793:12911   */\n    tag_490:\n        /* \"#utility.yul\":12880:12904   */\n      tag_492\n        /* \"#utility.yul\":12898:12903   */\n      dup2\n        /* \"#utility.yul\":12880:12904   */\n      tag_493\n      jump\t// in\n    tag_492:\n        /* \"#utility.yul\":12875:12878   */\n      dup3\n        /* \"#utility.yul\":12868:12905   */\n      mstore\n        /* \"#utility.yul\":12858:12911   */\n      pop\n      pop\n      jump\t// out\n        /* \"#utility.yul\":12917:13324   */\n    tag_163:\n        /* \"#utility.yul\":13073:13076   */\n      0x00\n        /* \"#utility.yul\":13088:13161   */\n      tag_495\n        /* \"#utility.yul\":13157:13160   */\n      dup3\n        /* \"#utility.yul\":13148:13154   */\n      dup6\n        /* \"#utility.yul\":13088:13161   */\n      tag_375\n      jump\t// in\n    tag_495:\n        /* \"#utility.yul\":13186:13187   */\n      0x01\n        /* \"#utility.yul\":13181:13184   */\n      dup3\n        /* \"#utility.yul\":13177:13188   */\n      add\n        /* \"#utility.yul\":13170:13188   */\n      swap2\n      pop\n        /* \"#utility.yul\":13205:13298   */\n      tag_496\n        /* \"#utility.yul\":13294:13297   */\n      dup3\n        /* \"#utility.yul\":13285:13291   */\n      dup5\n        /* \"#utility.yul\":13205:13298   */\n      tag_405\n      jump\t// in\n    tag_496:\n        /* \"#utility.yul\":13198:13298   */\n      swap2\n      pop\n        /* \"#utility.yul\":13315:13318   */\n      dup2\n        /* \"#utility.yul\":13308:13318   */\n      swap1\n      pop\n        /* \"#utility.yul\":13077:13324   */\n      swap4\n      swap3\n      pop\n      pop\n      pop\n      jump\t// out\n        /* \"#utility.yul\":13330:13586   */\n    tag_161:\n        /* \"#utility.yul\":13442:13445   */\n      0x00\n        /* \"#utility.yul\":13457:13532   */\n      tag_498\n        /* \"#utility.yul\":13528:13531   */\n      dup3\n        /* \"#utility.yul\":13519:13525   */\n      dup5\n        /* \"#utility.yul\":13457:13532   */\n      tag_381\n      jump\t// in\n    tag_498:\n        /* \"#utility.yul\":13557:13559   */\n      0x14\n        /* \"#utility.yul\":13552:13555   */\n      dup3\n        /* \"#utility.yul\":13548:13560   */\n      add\n        /* \"#utility.yul\":13541:13560   */\n      swap2\n      pop\n        /* \"#utility.yul\":13577:13580   */\n      dup2\n        /* \"#utility.yul\":13570:13580   */\n      swap1\n      pop\n        /* \"#utility.yul\":13446:13586   */\n      swap3\n      swap2\n      pop\n      pop\n      jump\t// out\n        /* \"#utility.yul\":13592:13848   */\n    tag_156:\n        /* \"#utility.yul\":13704:13707   */\n      0x00\n        /* \"#utility.yul\":13719:13794   */\n      tag_500\n        /* \"#utility.yul\":13790:13793   */\n      dup3\n        /* \"#utility.yul\":13781:13787   */\n      dup5\n        /* \"#utility.yul\":13719:13794   */\n      tag_391\n      jump\t// in\n    tag_500:\n        /* \"#utility.yul\":13819:13821   */\n      0x20\n        /* \"#utility.yul\":13814:13817   */\n      dup3\n        /* \"#utility.yul\":13810:13822   */\n      add\n        /* \"#utility.yul\":13803:13822   */\n      swap2\n      pop\n        /* \"#utility.yul\":13839:13842   */\n      dup2\n        /* \"#utility.yul\":13832:13842   */\n      swap1\n      pop\n        /* \"#utility.yul\":13708:13848   */\n      swap3\n      swap2\n      pop\n      pop\n      jump\t// out\n        /* \"#utility.yul\":13854:14125   */\n    tag_105:\n        /* \"#utility.yul\":13984:13987   */\n      0x00\n        /* \"#utility.yul\":14006:14099   */\n      tag_502\n        /* \"#utility.yul\":14095:14098   */\n      dup3\n        /* \"#utility.yul\":14086:14092   */\n      dup5\n        /* \"#utility.yul\":14006:14099   */\n      tag_405\n      jump\t// in\n    tag_502:\n        /* \"#utility.yul\":13999:14099   */\n      swap2\n      pop\n        /* \"#utility.yul\":14116:14119   */\n      dup2\n        /* \"#utility.yul\":14109:14119   */\n      swap1\n      pop\n        /* \"#utility.yul\":13988:14125   */\n      swap3\n      swap2\n      pop\n      pop\n      jump\t// out\n        /* \"#utility.yul\":14131:14558   */\n    tag_177:\n        /* \"#utility.yul\":14307:14310   */\n      0x00\n        /* \"#utility.yul\":14329:14422   */\n      tag_504\n        /* \"#utility.yul\":14418:14421   */\n      dup3\n        /* \"#utility.yul\":14409:14415   */\n      dup6\n        /* \"#utility.yul\":14329:14422   */\n      tag_405\n      jump\t// in\n    tag_504:\n        /* \"#utility.yul\":14322:14422   */\n      swap2\n      pop\n        /* \"#utility.yul\":14439:14532   */\n      tag_505\n        /* \"#utility.yul\":14528:14531   */\n      dup3\n        /* \"#utility.yul\":14519:14525   */\n      dup5\n        /* \"#utility.yul\":14439:14532   */\n      tag_405\n      jump\t// in\n    tag_505:\n        /* \"#utility.yul\":14432:14532   */\n      swap2\n      pop\n        /* \"#utility.yul\":14549:14552   */\n      dup2\n        /* \"#utility.yul\":14542:14552   */\n      swap1\n      pop\n        /* \"#utility.yul\":14311:14558   */\n      swap4\n      swap3\n      pop\n      pop\n      pop\n      jump\t// out\n        /* \"#utility.yul\":14564:14943   */\n    tag_190:\n        /* \"#utility.yul\":14748:14751   */\n      0x00\n        /* \"#utility.yul\":14770:14917   */\n      tag_507\n        /* \"#utility.yul\":14913:14916   */\n      dup3\n        /* \"#utility.yul\":14770:14917   */\n      tag_455\n      jump\t// in\n    tag_507:\n        /* \"#utility.yul\":14763:14917   */\n      swap2\n      pop\n        /* \"#utility.yul\":14934:14937   */\n      dup2\n        /* \"#utility.yul\":14927:14937   */\n      swap1\n      pop\n        /* \"#utility.yul\":14752:14943   */\n      swap2\n      swap1\n      pop\n      jump\t// out\n        /* \"#utility.yul\":14949:15916   */\n    tag_226:\n        /* \"#utility.yul\":15331:15334   */\n      0x00\n        /* \"#utility.yul\":15353:15501   */\n      tag_509\n        /* \"#utility.yul\":15497:15500   */\n      dup3\n        /* \"#utility.yul\":15353:15501   */\n      tag_465\n      jump\t// in\n    tag_509:\n        /* \"#utility.yul\":15346:15501   */\n      swap2\n      pop\n        /* \"#utility.yul\":15518:15613   */\n      tag_510\n        /* \"#utility.yul\":15609:15612   */\n      dup3\n        /* \"#utility.yul\":15600:15606   */\n      dup6\n        /* \"#utility.yul\":15518:15613   */\n      tag_419\n      jump\t// in\n    tag_510:\n        /* \"#utility.yul\":15511:15613   */\n      swap2\n      pop\n        /* \"#utility.yul\":15630:15778   */\n      tag_511\n        /* \"#utility.yul\":15774:15777   */\n      dup3\n        /* \"#utility.yul\":15630:15778   */\n      tag_480\n      jump\t// in\n    tag_511:\n        /* \"#utility.yul\":15623:15778   */\n      swap2\n      pop\n        /* \"#utility.yul\":15795:15890   */\n      tag_512\n        /* \"#utility.yul\":15886:15889   */\n      dup3\n        /* \"#utility.yul\":15877:15883   */\n      dup5\n        /* \"#utility.yul\":15795:15890   */\n      tag_419\n      jump\t// in\n    tag_512:\n        /* \"#utility.yul\":15788:15890   */\n      swap2\n      pop\n        /* \"#utility.yul\":15907:15910   */\n      dup2\n        /* \"#utility.yul\":15900:15910   */\n      swap1\n      pop\n        /* \"#utility.yul\":15335:15916   */\n      swap4\n      swap3\n      pop\n      pop\n      pop\n      jump\t// out\n        /* \"#utility.yul\":15922:16144   */\n    tag_245:\n        /* \"#utility.yul\":16015:16019   */\n      0x00\n        /* \"#utility.yul\":16053:16055   */\n      0x20\n        /* \"#utility.yul\":16042:16051   */\n      dup3\n        /* \"#utility.yul\":16038:16056   */\n      add\n        /* \"#utility.yul\":16030:16056   */\n      swap1\n      pop\n        /* \"#utility.yul\":16066:16137   */\n      tag_514\n        /* \"#utility.yul\":16134:16135   */\n      0x00\n        /* \"#utility.yul\":16123:16132   */\n      dup4\n        /* \"#utility.yul\":16119:16136   */\n      add\n        /* \"#utility.yul\":16110:16116   */\n      dup5\n        /* \"#utility.yul\":16066:16137   */\n      tag_367\n      jump\t// in\n    tag_514:\n        /* \"#utility.yul\":16020:16144   */\n      swap3\n      swap2\n      pop\n      pop\n      jump\t// out\n        /* \"#utility.yul\":16150:16482   */\n    tag_184:\n        /* \"#utility.yul\":16271:16275   */\n      0x00\n        /* \"#utility.yul\":16309:16311   */\n      0x40\n        /* \"#utility.yul\":16298:16307   */\n      dup3\n        /* \"#utility.yul\":16294:16312   */\n      add\n        /* \"#utility.yul\":16286:16312   */\n      swap1\n      pop\n        /* \"#utility.yul\":16322:16393   */\n      tag_516\n        /* \"#utility.yul\":16390:16391   */\n      0x00\n        /* \"#utility.yul\":16379:16388   */\n      dup4\n        /* \"#utility.yul\":16375:16392   */\n      add\n        /* \"#utility.yul\":16366:16372   */\n      dup6\n        /* \"#utility.yul\":16322:16393   */\n      tag_367\n      jump\t// in\n    tag_516:\n        /* \"#utility.yul\":16403:16475   */\n      tag_517\n        /* \"#utility.yul\":16471:16473   */\n      0x20\n        /* \"#utility.yul\":16460:16469   */\n      dup4\n        /* \"#utility.yul\":16456:16474   */\n      add\n        /* \"#utility.yul\":16447:16453   */\n      dup5\n        /* \"#utility.yul\":16403:16475   */\n      tag_490\n      jump\t// in\n    tag_517:\n        /* \"#utility.yul\":16276:16482   */\n      swap4\n      swap3\n      pop\n      pop\n      pop\n      jump\t// out\n        /* \"#utility.yul\":16488:16698   */\n    tag_28:\n        /* \"#utility.yul\":16575:16579   */\n      0x00\n        /* \"#utility.yul\":16613:16615   */\n      0x20\n        /* \"#utility.yul\":16602:16611   */\n      dup3\n        /* \"#utility.yul\":16598:16616   */\n      add\n        /* \"#utility.yul\":16590:16616   */\n      swap1\n      pop\n        /* \"#utility.yul\":16626:16691   */\n      tag_519\n        /* \"#utility.yul\":16688:16689   */\n      0x00\n        /* \"#utility.yul\":16677:16686   */\n      dup4\n        /* \"#utility.yul\":16673:16690   */\n      add\n        /* \"#utility.yul\":16664:16670   */\n      dup5\n        /* \"#utility.yul\":16626:16691   */\n      tag_371\n      jump\t// in\n    tag_519:\n        /* \"#utility.yul\":16580:16698   */\n      swap3\n      swap2\n      pop\n      pop\n      jump\t// out\n        /* \"#utility.yul\":16704:16926   */\n    tag_34:\n        /* \"#utility.yul\":16797:16801   */\n      0x00\n        /* \"#utility.yul\":16835:16837   */\n      0x20\n        /* \"#utility.yul\":16824:16833   */\n      dup3\n        /* \"#utility.yul\":16820:16838   */\n      add\n        /* \"#utility.yul\":16812:16838   */\n      swap1\n      pop\n        /* \"#utility.yul\":16848:16919   */\n      tag_521\n        /* \"#utility.yul\":16916:16917   */\n      0x00\n        /* \"#utility.yul\":16905:16914   */\n      dup4\n        /* \"#utility.yul\":16901:16918   */\n      add\n        /* \"#utility.yul\":16892:16898   */\n      dup5\n        /* \"#utility.yul\":16848:16919   */\n      tag_387\n      jump\t// in\n    tag_521:\n        /* \"#utility.yul\":16802:16926   */\n      swap3\n      swap2\n      pop\n      pop\n      jump\t// out\n        /* \"#utility.yul\":16932:17351   */\n    tag_141:\n        /* \"#utility.yul\":17071:17075   */\n      0x00\n        /* \"#utility.yul\":17109:17111   */\n      0x40\n        /* \"#utility.yul\":17098:17107   */\n      dup3\n        /* \"#utility.yul\":17094:17112   */\n      add\n        /* \"#utility.yul\":17086:17112   */\n      swap1\n      pop\n        /* \"#utility.yul\":17122:17193   */\n      tag_523\n        /* \"#utility.yul\":17190:17191   */\n      0x00\n        /* \"#utility.yul\":17179:17188   */\n      dup4\n        /* \"#utility.yul\":17175:17192   */\n      add\n        /* \"#utility.yul\":17166:17172   */\n      dup6\n        /* \"#utility.yul\":17122:17193   */\n      tag_387\n      jump\t// in\n    tag_523:\n        /* \"#utility.yul\":17240:17249   */\n      dup2\n        /* \"#utility.yul\":17234:17238   */\n      dup2\n        /* \"#utility.yul\":17230:17250   */\n      sub\n        /* \"#utility.yul\":17225:17227   */\n      0x20\n        /* \"#utility.yul\":17214:17223   */\n      dup4\n        /* \"#utility.yul\":17210:17228   */\n      add\n        /* \"#utility.yul\":17203:17251   */\n      mstore\n        /* \"#utility.yul\":17268:17344   */\n      tag_524\n        /* \"#utility.yul\":17339:17343   */\n      dup2\n        /* \"#utility.yul\":17330:17336   */\n      dup5\n        /* \"#utility.yul\":17268:17344   */\n      tag_396\n      jump\t// in\n    tag_524:\n        /* \"#utility.yul\":17260:17344   */\n      swap1\n      pop\n        /* \"#utility.yul\":17076:17351   */\n      swap4\n      swap3\n      pop\n      pop\n      pop\n      jump\t// out\n        /* \"#utility.yul\":17357:17670   */\n    tag_228:\n        /* \"#utility.yul\":17470:17474   */\n      0x00\n        /* \"#utility.yul\":17508:17510   */\n      0x20\n        /* \"#utility.yul\":17497:17506   */\n      dup3\n        /* \"#utility.yul\":17493:17511   */\n      add\n        /* \"#utility.yul\":17485:17511   */\n      swap1\n      pop\n        /* \"#utility.yul\":17557:17566   */\n      dup2\n        /* \"#utility.yul\":17551:17555   */\n      dup2\n        /* \"#utility.yul\":17547:17567   */\n      sub\n        /* \"#utility.yul\":17543:17544   */\n      0x00\n        /* \"#utility.yul\":17532:17541   */\n      dup4\n        /* \"#utility.yul\":17528:17545   */\n      add\n        /* \"#utility.yul\":17521:17568   */\n      mstore\n        /* \"#utility.yul\":17585:17663   */\n      tag_526\n        /* \"#utility.yul\":17658:17662   */\n      dup2\n        /* \"#utility.yul\":17649:17655   */\n      dup5\n        /* \"#utility.yul\":17585:17663   */\n      tag_411\n      jump\t// in\n    tag_526:\n        /* \"#utility.yul\":17577:17663   */\n      swap1\n      pop\n        /* \"#utility.yul\":17475:17670   */\n      swap3\n      swap2\n      pop\n      pop\n      jump\t// out\n        /* \"#utility.yul\":17676:18095   */\n    tag_287:\n        /* \"#utility.yul\":17842:17846   */\n      0x00\n        /* \"#utility.yul\":17880:17882   */\n      0x20\n        /* \"#utility.yul\":17869:17878   */\n      dup3\n        /* \"#utility.yul\":17865:17883   */\n      add\n        /* \"#utility.yul\":17857:17883   */\n      swap1\n      pop\n        /* \"#utility.yul\":17929:17938   */\n      dup2\n        /* \"#utility.yul\":17923:17927   */\n      dup2\n        /* \"#utility.yul\":17919:17939   */\n      sub\n        /* \"#utility.yul\":17915:17916   */\n      0x00\n        /* \"#utility.yul\":17904:17913   */\n      dup4\n        /* \"#utility.yul\":17900:17917   */\n      add\n        /* \"#utility.yul\":17893:17940   */\n      mstore\n        /* \"#utility.yul\":17957:18088   */\n      tag_528\n        /* \"#utility.yul\":18083:18087   */\n      dup2\n        /* \"#utility.yul\":17957:18088   */\n      tag_425\n      jump\t// in\n    tag_528:\n        /* \"#utility.yul\":17949:18088   */\n      swap1\n      pop\n        /* \"#utility.yul\":17847:18095   */\n      swap2\n      swap1\n      pop\n      jump\t// out\n        /* \"#utility.yul\":18101:18520   */\n    tag_241:\n        /* \"#utility.yul\":18267:18271   */\n      0x00\n        /* \"#utility.yul\":18305:18307   */\n      0x20\n        /* \"#utility.yul\":18294:18303   */\n      dup3\n        /* \"#utility.yul\":18290:18308   */\n      add\n        /* \"#utility.yul\":18282:18308   */\n      swap1\n      pop\n        /* \"#utility.yul\":18354:18363   */\n      dup2\n        /* \"#utility.yul\":18348:18352   */\n      dup2\n        /* \"#utility.yul\":18344:18364   */\n      sub\n        /* \"#utility.yul\":18340:18341   */\n      0x00\n        /* \"#utility.yul\":18329:18338   */\n      dup4\n        /* \"#utility.yul\":18325:18342   */\n      add\n        /* \"#utility.yul\":18318:18365   */\n      mstore\n        /* \"#utility.yul\":18382:18513   */\n      tag_530\n        /* \"#utility.yul\":18508:18512   */\n      dup2\n        /* \"#utility.yul\":18382:18513   */\n      tag_430\n      jump\t// in\n    tag_530:\n        /* \"#utility.yul\":18374:18513   */\n      swap1\n      pop\n        /* \"#utility.yul\":18272:18520   */\n      swap2\n      swap1\n      pop\n      jump\t// out\n        /* \"#utility.yul\":18526:18945   */\n    tag_196:\n        /* \"#utility.yul\":18692:18696   */\n      0x00\n        /* \"#utility.yul\":18730:18732   */\n      0x20\n        /* \"#utility.yul\":18719:18728   */\n      dup3\n        /* \"#utility.yul\":18715:18733   */\n      add\n        /* \"#utility.yul\":18707:18733   */\n      swap1\n      pop\n        /* \"#utility.yul\":18779:18788   */\n      dup2\n        /* \"#utility.yul\":18773:18777   */\n      dup2\n        /* \"#utility.yul\":18769:18789   */\n      sub\n        /* \"#utility.yul\":18765:18766   */\n      0x00\n        /* \"#utility.yul\":18754:18763   */\n      dup4\n        /* \"#utility.yul\":18750:18767   */\n      add\n        /* \"#utility.yul\":18743:18790   */\n      mstore\n        /* \"#utility.yul\":18807:18938   */\n      tag_532\n        /* \"#utility.yul\":18933:18937   */\n      dup2\n        /* \"#utility.yul\":18807:18938   */\n      tag_435\n      jump\t// in\n    tag_532:\n        /* \"#utility.yul\":18799:18938   */\n      swap1\n      pop\n        /* \"#utility.yul\":18697:18945   */\n      swap2\n      swap1\n      pop\n      jump\t// out\n        /* \"#utility.yul\":18951:19370   */\n    tag_139:\n        /* \"#utility.yul\":19117:19121   */\n      0x00\n        /* \"#utility.yul\":19155:19157   */\n      0x20\n        /* \"#utility.yul\":19144:19153   */\n      dup3\n        /* \"#utility.yul\":19140:19158   */\n      add\n        /* \"#utility.yul\":19132:19158   */\n      swap1\n      pop\n        /* \"#utility.yul\":19204:19213   */\n      dup2\n        /* \"#utility.yul\":19198:19202   */\n      dup2\n        /* \"#utility.yul\":19194:19214   */\n      sub\n        /* \"#utility.yul\":19190:19191   */\n      0x00\n        /* \"#utility.yul\":19179:19188   */\n      dup4\n        /* \"#utility.yul\":19175:19192   */\n      add\n        /* \"#utility.yul\":19168:19215   */\n      mstore\n        /* \"#utility.yul\":19232:19363   */\n      tag_534\n        /* \"#utility.yul\":19358:19362   */\n      dup2\n        /* \"#utility.yul\":19232:19363   */\n      tag_440\n      jump\t// in\n    tag_534:\n        /* \"#utility.yul\":19224:19363   */\n      swap1\n      pop\n        /* \"#utility.yul\":19122:19370   */\n      swap2\n      swap1\n      pop\n      jump\t// out\n        /* \"#utility.yul\":19376:19795   */\n    tag_128:\n        /* \"#utility.yul\":19542:19546   */\n      0x00\n        /* \"#utility.yul\":19580:19582   */\n      0x20\n        /* \"#utility.yul\":19569:19578   */\n      dup3\n        /* \"#utility.yul\":19565:19583   */\n      add\n        /* \"#utility.yul\":19557:19583   */\n      swap1\n      pop\n        /* \"#utility.yul\":19629:19638   */\n      dup2\n        /* \"#utility.yul\":19623:19627   */\n      dup2\n        /* \"#utility.yul\":19619:19639   */\n      sub\n        /* \"#utility.yul\":19615:19616   */\n      0x00\n        /* \"#utility.yul\":19604:19613   */\n      dup4\n        /* \"#utility.yul\":19600:19617   */\n      add\n        /* \"#utility.yul\":19593:19640   */\n      mstore\n        /* \"#utility.yul\":19657:19788   */\n      tag_536\n        /* \"#utility.yul\":19783:19787   */\n      dup2\n        /* \"#utility.yul\":19657:19788   */\n      tag_445\n      jump\t// in\n    tag_536:\n        /* \"#utility.yul\":19649:19788   */\n      swap1\n      pop\n        /* \"#utility.yul\":19547:19795   */\n      swap2\n      swap1\n      pop\n      jump\t// out\n        /* \"#utility.yul\":19801:20220   */\n    tag_149:\n        /* \"#utility.yul\":19967:19971   */\n      0x00\n        /* \"#utility.yul\":20005:20007   */\n      0x20\n        /* \"#utility.yul\":19994:20003   */\n      dup3\n        /* \"#utility.yul\":19990:20008   */\n      add\n        /* \"#utility.yul\":19982:20008   */\n      swap1\n      pop\n        /* \"#utility.yul\":20054:20063   */\n      dup2\n        /* \"#utility.yul\":20048:20052   */\n      dup2\n        /* \"#utility.yul\":20044:20064   */\n      sub\n        /* \"#utility.yul\":20040:20041   */\n      0x00\n        /* \"#utility.yul\":20029:20038   */\n      dup4\n        /* \"#utility.yul\":20025:20042   */\n      add\n        /* \"#utility.yul\":20018:20065   */\n      mstore\n        /* \"#utility.yul\":20082:20213   */\n      tag_538\n        /* \"#utility.yul\":20208:20212   */\n      dup2\n        /* \"#utility.yul\":20082:20213   */\n      tag_450\n      jump\t// in\n    tag_538:\n        /* \"#utility.yul\":20074:20213   */\n      swap1\n      pop\n        /* \"#utility.yul\":19972:20220   */\n      swap2\n      swap1\n      pop\n      jump\t// out\n        /* \"#utility.yul\":20226:20645   */\n    tag_132:\n        /* \"#utility.yul\":20392:20396   */\n      0x00\n        /* \"#utility.yul\":20430:20432   */\n      0x20\n        /* \"#utility.yul\":20419:20428   */\n      dup3\n        /* \"#utility.yul\":20415:20433   */\n      add\n        /* \"#utility.yul\":20407:20433   */\n      swap1\n      pop\n        /* \"#utility.yul\":20479:20488   */\n      dup2\n        /* \"#utility.yul\":20473:20477   */\n      dup2\n        /* \"#utility.yul\":20469:20489   */\n      sub\n        /* \"#utility.yul\":20465:20466   */\n      0x00\n        /* \"#utility.yul\":20454:20463   */\n      dup4\n        /* \"#utility.yul\":20450:20467   */\n      add\n        /* \"#utility.yul\":20443:20490   */\n      mstore\n        /* \"#utility.yul\":20507:20638   */\n      tag_540\n        /* \"#utility.yul\":20633:20637   */\n      dup2\n        /* \"#utility.yul\":20507:20638   */\n      tag_460\n      jump\t// in\n    tag_540:\n        /* \"#utility.yul\":20499:20638   */\n      swap1\n      pop\n        /* \"#utility.yul\":20397:20645   */\n      swap2\n      swap1\n      pop\n      jump\t// out\n        /* \"#utility.yul\":20651:21070   */\n    tag_181:\n        /* \"#utility.yul\":20817:20821   */\n      0x00\n        /* \"#utility.yul\":20855:20857   */\n      0x20\n        /* \"#utility.yul\":20844:20853   */\n      dup3\n        /* \"#utility.yul\":20840:20858   */\n      add\n        /* \"#utility.yul\":20832:20858   */\n      swap1\n      pop\n        /* \"#utility.yul\":20904:20913   */\n      dup2\n        /* \"#utility.yul\":20898:20902   */\n      dup2\n        /* \"#utility.yul\":20894:20914   */\n      sub\n        /* \"#utility.yul\":20890:20891   */\n      0x00\n        /* \"#utility.yul\":20879:20888   */\n      dup4\n        /* \"#utility.yul\":20875:20892   */\n      add\n        /* \"#utility.yul\":20868:20915   */\n      mstore\n        /* \"#utility.yul\":20932:21063   */\n      tag_542\n        /* \"#utility.yul\":21058:21062   */\n      dup2\n        /* \"#utility.yul\":20932:21063   */\n      tag_470\n      jump\t// in\n    tag_542:\n        /* \"#utility.yul\":20924:21063   */\n      swap1\n      pop\n        /* \"#utility.yul\":20822:21070   */\n      swap2\n      swap1\n      pop\n      jump\t// out\n        /* \"#utility.yul\":21076:21495   */\n    tag_136:\n        /* \"#utility.yul\":21242:21246   */\n      0x00\n        /* \"#utility.yul\":21280:21282   */\n      0x20\n        /* \"#utility.yul\":21269:21278   */\n      dup3\n        /* \"#utility.yul\":21265:21283   */\n      add\n        /* \"#utility.yul\":21257:21283   */\n      swap1\n      pop\n        /* \"#utility.yul\":21329:21338   */\n      dup2\n        /* \"#utility.yul\":21323:21327   */\n      dup2\n        /* \"#utility.yul\":21319:21339   */\n      sub\n        /* \"#utility.yul\":21315:21316   */\n      0x00\n        /* \"#utility.yul\":21304:21313   */\n      dup4\n        /* \"#utility.yul\":21300:21317   */\n      add\n        /* \"#utility.yul\":21293:21340   */\n      mstore\n        /* \"#utility.yul\":21357:21488   */\n      tag_544\n        /* \"#utility.yul\":21483:21487   */\n      dup2\n        /* \"#utility.yul\":21357:21488   */\n      tag_475\n      jump\t// in\n    tag_544:\n        /* \"#utility.yul\":21349:21488   */\n      swap1\n      pop\n        /* \"#utility.yul\":21247:21495   */\n      swap2\n      swap1\n      pop\n      jump\t// out\n        /* \"#utility.yul\":21501:21920   */\n    tag_110:\n        /* \"#utility.yul\":21667:21671   */\n      0x00\n        /* \"#utility.yul\":21705:21707   */\n      0x20\n        /* \"#utility.yul\":21694:21703   */\n      dup3\n        /* \"#utility.yul\":21690:21708   */\n      add\n        /* \"#utility.yul\":21682:21708   */\n      swap1\n      pop\n        /* \"#utility.yul\":21754:21763   */\n      dup2\n        /* \"#utility.yul\":21748:21752   */\n      dup2\n        /* \"#utility.yul\":21744:21764   */\n      sub\n        /* \"#utility.yul\":21740:21741   */\n      0x00\n        /* \"#utility.yul\":21729:21738   */\n      dup4\n        /* \"#utility.yul\":21725:21742   */\n      add\n        /* \"#utility.yul\":21718:21765   */\n      mstore\n        /* \"#utility.yul\":21782:21913   */\n      tag_546\n        /* \"#utility.yul\":21908:21912   */\n      dup2\n        /* \"#utility.yul\":21782:21913   */\n      tag_485\n      jump\t// in\n    tag_546:\n        /* \"#utility.yul\":21774:21913   */\n      swap1\n      pop\n        /* \"#utility.yul\":21672:21920   */\n      swap2\n      swap1\n      pop\n      jump\t// out\n        /* \"#utility.yul\":21926:22148   */\n    tag_66:\n        /* \"#utility.yul\":22019:22023   */\n      0x00\n        /* \"#utility.yul\":22057:22059   */\n      0x20\n        /* \"#utility.yul\":22046:22055   */\n      dup3\n        /* \"#utility.yul\":22042:22060   */\n      add\n        /* \"#utility.yul\":22034:22060   */\n      swap1\n      pop\n        /* \"#utility.yul\":22070:22141   */\n      tag_548\n        /* \"#utility.yul\":22138:22139   */\n      0x00\n        /* \"#utility.yul\":22127:22136   */\n      dup4\n        /* \"#utility.yul\":22123:22140   */\n      add\n        /* \"#utility.yul\":22114:22120   */\n      dup5\n        /* \"#utility.yul\":22070:22141   */\n      tag_490\n      jump\t// in\n    tag_548:\n        /* \"#utility.yul\":22024:22148   */\n      swap3\n      swap2\n      pop\n      pop\n      jump\t// out\n        /* \"#utility.yul\":22154:22283   */\n    tag_294:\n        /* \"#utility.yul\":22188:22194   */\n      0x00\n        /* \"#utility.yul\":22215:22235   */\n      tag_550\n      tag_551\n      jump\t// in\n    tag_550:\n        /* \"#utility.yul\":22205:22235   */\n      swap1\n      pop\n        /* \"#utility.yul\":22244:22277   */\n      tag_552\n        /* \"#utility.yul\":22272:22276   */\n      dup3\n        /* \"#utility.yul\":22264:22270   */\n      dup3\n        /* \"#utility.yul\":22244:22277   */\n      tag_553\n      jump\t// in\n    tag_552:\n        /* \"#utility.yul\":22195:22283   */\n      swap2\n      swap1\n      pop\n      jump\t// out\n        /* \"#utility.yul\":22289:22364   */\n    tag_551:\n        /* \"#utility.yul\":22322:22328   */\n      0x00\n        /* \"#utility.yul\":22355:22357   */\n      0x40\n        /* \"#utility.yul\":22349:22358   */\n      mload\n        /* \"#utility.yul\":22339:22358   */\n      swap1\n      pop\n        /* \"#utility.yul\":22329:22364   */\n      swap1\n      jump\t// out\n        /* \"#utility.yul\":22370:22677   */\n    tag_293:\n        /* \"#utility.yul\":22431:22435   */\n      0x00\n        /* \"#utility.yul\":22521:22539   */\n      0xffffffffffffffff\n        /* \"#utility.yul\":22513:22519   */\n      dup3\n        /* \"#utility.yul\":22510:22540   */\n      gt\n        /* \"#utility.yul\":22507:22509   */\n      iszero\n      tag_556\n      jumpi\n        /* \"#utility.yul\":22543:22561   */\n      tag_557\n      tag_558\n      jump\t// in\n    tag_557:\n        /* \"#utility.yul\":22507:22509   */\n    tag_556:\n        /* \"#utility.yul\":22581:22610   */\n      tag_559\n        /* \"#utility.yul\":22603:22609   */\n      dup3\n        /* \"#utility.yul\":22581:22610   */\n      tag_404\n      jump\t// in\n    tag_559:\n        /* \"#utility.yul\":22573:22610   */\n      swap1\n      pop\n        /* \"#utility.yul\":22665:22669   */\n      0x20\n        /* \"#utility.yul\":22659:22663   */\n      dup2\n        /* \"#utility.yul\":22655:22670   */\n      add\n        /* \"#utility.yul\":22647:22670   */\n      swap1\n      pop\n        /* \"#utility.yul\":22436:22677   */\n      swap2\n      swap1\n      pop\n      jump\t// out\n        /* \"#utility.yul\":22683:22781   */\n    tag_399:\n        /* \"#utility.yul\":22734:22740   */\n      0x00\n        /* \"#utility.yul\":22768:22773   */\n      dup2\n        /* \"#utility.yul\":22762:22774   */\n      mload\n        /* \"#utility.yul\":22752:22774   */\n      swap1\n      pop\n        /* \"#utility.yul\":22741:22781   */\n      swap2\n      swap1\n      pop\n      jump\t// out\n        /* \"#utility.yul\":22787:22886   */\n    tag_414:\n        /* \"#utility.yul\":22839:22845   */\n      0x00\n        /* \"#utility.yul\":22873:22878   */\n      dup2\n        /* \"#utility.yul\":22867:22879   */\n      mload\n        /* \"#utility.yul\":22857:22879   */\n      swap1\n      pop\n        /* \"#utility.yul\":22846:22886   */\n      swap2\n      swap1\n      pop\n      jump\t// out\n        /* \"#utility.yul\":22892:23060   */\n    tag_401:\n        /* \"#utility.yul\":22975:22986   */\n      0x00\n        /* \"#utility.yul\":23009:23015   */\n      dup3\n        /* \"#utility.yul\":23004:23007   */\n      dup3\n        /* \"#utility.yul\":22997:23016   */\n      mstore\n        /* \"#utility.yul\":23049:23053   */\n      0x20\n        /* \"#utility.yul\":23044:23047   */\n      dup3\n        /* \"#utility.yul\":23040:23054   */\n      add\n        /* \"#utility.yul\":23025:23054   */\n      swap1\n      pop\n        /* \"#utility.yul\":22987:23060   */\n      swap3\n      swap2\n      pop\n      pop\n      jump\t// out\n        /* \"#utility.yul\":23066:23213   */\n    tag_409:\n        /* \"#utility.yul\":23167:23178   */\n      0x00\n        /* \"#utility.yul\":23204:23207   */\n      dup2\n        /* \"#utility.yul\":23189:23207   */\n      swap1\n      pop\n        /* \"#utility.yul\":23179:23213   */\n      swap3\n      swap2\n      pop\n      pop\n      jump\t// out\n        /* \"#utility.yul\":23219:23388   */\n    tag_416:\n        /* \"#utility.yul\":23303:23314   */\n      0x00\n        /* \"#utility.yul\":23337:23343   */\n      dup3\n        /* \"#utility.yul\":23332:23335   */\n      dup3\n        /* \"#utility.yul\":23325:23344   */\n      mstore\n        /* \"#utility.yul\":23377:23381   */\n      0x20\n        /* \"#utility.yul\":23372:23375   */\n      dup3\n        /* \"#utility.yul\":23368:23382   */\n      add\n        /* \"#utility.yul\":23353:23382   */\n      swap1\n      pop\n        /* \"#utility.yul\":23315:23388   */\n      swap3\n      swap2\n      pop\n      pop\n      jump\t// out\n        /* \"#utility.yul\":23394:23542   */\n    tag_423:\n        /* \"#utility.yul\":23496:23507   */\n      0x00\n        /* \"#utility.yul\":23533:23536   */\n      dup2\n        /* \"#utility.yul\":23518:23536   */\n      swap1\n      pop\n        /* \"#utility.yul\":23508:23542   */\n      swap3\n      swap2\n      pop\n      pop\n      jump\t// out\n        /* \"#utility.yul\":23548:23853   */\n    tag_271:\n        /* \"#utility.yul\":23588:23591   */\n      0x00\n        /* \"#utility.yul\":23607:23627   */\n      tag_567\n        /* \"#utility.yul\":23625:23626   */\n      dup3\n        /* \"#utility.yul\":23607:23627   */\n      tag_493\n      jump\t// in\n    tag_567:\n        /* \"#utility.yul\":23602:23627   */\n      swap2\n      pop\n        /* \"#utility.yul\":23641:23661   */\n      tag_568\n        /* \"#utility.yul\":23659:23660   */\n      dup4\n        /* \"#utility.yul\":23641:23661   */\n      tag_493\n      jump\t// in\n    tag_568:\n        /* \"#utility.yul\":23636:23661   */\n      swap3\n      pop\n        /* \"#utility.yul\":23795:23796   */\n      dup3\n        /* \"#utility.yul\":23727:23793   */\n      0xffffffffffffffffffffffffffffffffffffffffffffffffffffffffffffffff\n        /* \"#utility.yul\":23723:23797   */\n      sub\n        /* \"#utility.yul\":23720:23721   */\n      dup3\n        /* \"#utility.yul\":23717:23798   */\n      gt\n        /* \"#utility.yul\":23714:23716   */\n      iszero\n      tag_569\n      jumpi\n        /* \"#utility.yul\":23801:23819   */\n      tag_570\n      tag_571\n      jump\t// in\n    tag_570:\n        /* \"#utility.yul\":23714:23716   */\n    tag_569:\n        /* \"#utility.yul\":23845:23846   */\n      dup3\n        /* \"#utility.yul\":23842:23843   */\n      dup3\n        /* \"#utility.yul\":23838:23847   */\n      add\n        /* \"#utility.yul\":23831:23847   */\n      swap1\n      pop\n        /* \"#utility.yul\":23592:23853   */\n      swap3\n      swap2\n      pop\n      pop\n      jump\t// out\n        /* \"#utility.yul\":23859:24207   */\n    tag_269:\n        /* \"#utility.yul\":23899:23906   */\n      0x00\n        /* \"#utility.yul\":23922:23942   */\n      tag_573\n        /* \"#utility.yul\":23940:23941   */\n      dup3\n        /* \"#utility.yul\":23922:23942   */\n      tag_493\n      jump\t// in\n    tag_573:\n        /* \"#utility.yul\":23917:23942   */\n      swap2\n      pop\n        /* \"#utility.yul\":23956:23976   */\n      tag_574\n        /* \"#utility.yul\":23974:23975   */\n      dup4\n        /* \"#utility.yul\":23956:23976   */\n      tag_493\n      jump\t// in\n    tag_574:\n        /* \"#utility.yul\":23951:23976   */\n      swap3\n      pop\n        /* \"#utility.yul\":24144:24145   */\n      dup2\n        /* \"#utility.yul\":24076:24142   */\n      0xffffffffffffffffffffffffffffffffffffffffffffffffffffffffffffffff\n        /* \"#utility.yul\":24072:24146   */\n      div\n        /* \"#utility.yul\":24069:24070   */\n      dup4\n        /* \"#utility.yul\":24066:24147   */\n      gt\n        /* \"#utility.yul\":24061:24062   */\n      dup3\n        /* \"#utility.yul\":24054:24063   */\n      iszero\n        /* \"#utility.yul\":24047:24064   */\n      iszero\n        /* \"#utility.yul\":24043:24148   */\n      and\n        /* \"#utility.yul\":24040:24042   */\n      iszero\n      tag_575\n      jumpi\n        /* \"#utility.yul\":24151:24169   */\n      tag_576\n      tag_571\n      jump\t// in\n    tag_576:\n        /* \"#utility.yul\":24040:24042   */\n    tag_575:\n        /* \"#utility.yul\":24199:24200   */\n      dup3\n        /* \"#utility.yul\":24196:24197   */\n      dup3\n        /* \"#utility.yul\":24192:24201   */\n      mul\n        /* \"#utility.yul\":24181:24201   */\n      swap1\n      pop\n        /* \"#utility.yul\":23907:24207   */\n      swap3\n      swap2\n      pop\n      pop\n      jump\t// out\n        /* \"#utility.yul\":24213:24404   */\n    tag_248:\n        /* \"#utility.yul\":24253:24257   */\n      0x00\n        /* \"#utility.yul\":24273:24293   */\n      tag_578\n        /* \"#utility.yul\":24291:24292   */\n      dup3\n        /* \"#utility.yul\":24273:24293   */\n      tag_493\n      jump\t// in\n    tag_578:\n        /* \"#utility.yul\":24268:24293   */\n      swap2\n      pop\n        /* \"#utility.yul\":24307:24327   */\n      tag_579\n        /* \"#utility.yul\":24325:24326   */\n      dup4\n        /* \"#utility.yul\":24307:24327   */\n      tag_493\n      jump\t// in\n    tag_579:\n        /* \"#utility.yul\":24302:24327   */\n      swap3\n      pop\n        /* \"#utility.yul\":24346:24347   */\n      dup3\n        /* \"#utility.yul\":24343:24344   */\n      dup3\n        /* \"#utility.yul\":24340:24348   */\n      lt\n        /* \"#utility.yul\":24337:24339   */\n      iszero\n      tag_580\n      jumpi\n        /* \"#utility.yul\":24351:24369   */\n      tag_581\n      tag_571\n      jump\t// in\n    tag_581:\n        /* \"#utility.yul\":24337:24339   */\n    tag_580:\n        /* \"#utility.yul\":24396:24397   */\n      dup3\n        /* \"#utility.yul\":24393:24394   */\n      dup3\n        /* \"#utility.yul\":24389:24398   */\n      sub\n        /* \"#utility.yul\":24381:24398   */\n      swap1\n      pop\n        /* \"#utility.yul\":24258:24404   */\n      swap3\n      swap2\n      pop\n      pop\n      jump\t// out\n        /* \"#utility.yul\":24410:24506   */\n    tag_370:\n        /* \"#utility.yul\":24447:24454   */\n      0x00\n        /* \"#utility.yul\":24476:24500   */\n      tag_583\n        /* \"#utility.yul\":24494:24499   */\n      dup3\n        /* \"#utility.yul\":24476:24500   */\n      tag_584\n      jump\t// in\n    tag_583:\n        /* \"#utility.yul\":24465:24500   */\n      swap1\n      pop\n        /* \"#utility.yul\":24455:24506   */\n      swap2\n      swap1\n      pop\n      jump\t// out\n        /* \"#utility.yul\":24512:24602   */\n    tag_374:\n        /* \"#utility.yul\":24546:24553   */\n      0x00\n        /* \"#utility.yul\":24589:24594   */\n      dup2\n        /* \"#utility.yul\":24582:24595   */\n      iszero\n        /* \"#utility.yul\":24575:24596   */\n      iszero\n        /* \"#utility.yul\":24564:24596   */\n      swap1\n      pop\n        /* \"#utility.yul\":24554:24602   */\n      swap2\n      swap1\n      pop\n      jump\t// out\n        /* \"#utility.yul\":24608:24757   */\n    tag_379:\n        /* \"#utility.yul\":24644:24651   */\n      0x00\n        /* \"#utility.yul\":24684:24750   */\n      0xff00000000000000000000000000000000000000000000000000000000000000\n        /* \"#utility.yul\":24677:24682   */\n      dup3\n        /* \"#utility.yul\":24673:24751   */\n      and\n        /* \"#utility.yul\":24662:24751   */\n      swap1\n      pop\n        /* \"#utility.yul\":24652:24757   */\n      swap2\n      swap1\n      pop\n      jump\t// out\n        /* \"#utility.yul\":24763:24913   */\n    tag_385:\n        /* \"#utility.yul\":24800:24807   */\n      0x00\n        /* \"#utility.yul\":24840:24906   */\n      0xffffffffffffffffffffffffffffffffffffffff000000000000000000000000\n        /* \"#utility.yul\":24833:24838   */\n      dup3\n        /* \"#utility.yul\":24829:24907   */\n      and\n        /* \"#utility.yul\":24818:24907   */\n      swap1\n      pop\n        /* \"#utility.yul\":24808:24913   */\n      swap2\n      swap1\n      pop\n      jump\t// out\n        /* \"#utility.yul\":24919:24996   */\n    tag_390:\n        /* \"#utility.yul\":24956:24963   */\n      0x00\n        /* \"#utility.yul\":24985:24990   */\n      dup2\n        /* \"#utility.yul\":24974:24990   */\n      swap1\n      pop\n        /* \"#utility.yul\":24964:24996   */\n      swap2\n      swap1\n      pop\n      jump\t// out\n        /* \"#utility.yul\":25002:25151   */\n    tag_589:\n        /* \"#utility.yul\":25038:25045   */\n      0x00\n        /* \"#utility.yul\":25078:25144   */\n      0xffffffff00000000000000000000000000000000000000000000000000000000\n        /* \"#utility.yul\":25071:25076   */\n      dup3\n        /* \"#utility.yul\":25067:25145   */\n      and\n        /* \"#utility.yul\":25056:25145   */\n      swap1\n      pop\n        /* \"#utility.yul\":25046:25151   */\n      swap2\n      swap1\n      pop\n      jump\t// out\n        /* \"#utility.yul\":25157:25283   */\n    tag_584:\n        /* \"#utility.yul\":25194:25201   */\n      0x00\n        /* \"#utility.yul\":25234:25276   */\n      0xffffffffffffffffffffffffffffffffffffffff\n        /* \"#utility.yul\":25227:25232   */\n      dup3\n        /* \"#utility.yul\":25223:25277   */\n      and\n        /* \"#utility.yul\":25212:25277   */\n      swap1\n      pop\n        /* \"#utility.yul\":25202:25283   */\n      swap2\n      swap1\n      pop\n      jump\t// out\n        /* \"#utility.yul\":25289:25366   */\n    tag_493:\n        /* \"#utility.yul\":25326:25333   */\n      0x00\n        /* \"#utility.yul\":25355:25360   */\n      dup2\n        /* \"#utility.yul\":25344:25360   */\n      swap1\n      pop\n        /* \"#utility.yul\":25334:25366   */\n      swap2\n      swap1\n      pop\n      jump\t// out\n        /* \"#utility.yul\":25372:25526   */\n    tag_297:\n        /* \"#utility.yul\":25456:25462   */\n      dup3\n        /* \"#utility.yul\":25451:25454   */\n      dup2\n        /* \"#utility.yul\":25446:25449   */\n      dup4\n        /* \"#utility.yul\":25433:25463   */\n      calldatacopy\n        /* \"#utility.yul\":25518:25519   */\n      0x00\n        /* \"#utility.yul\":25509:25515   */\n      dup4\n        /* \"#utility.yul\":25504:25507   */\n      dup4\n        /* \"#utility.yul\":25500:25516   */\n      add\n        /* \"#utility.yul\":25493:25520   */\n      mstore\n        /* \"#utility.yul\":25423:25526   */\n      pop\n      pop\n      pop\n      jump\t// out\n        /* \"#utility.yul\":25532:25839   */\n    tag_304:\n        /* \"#utility.yul\":25600:25601   */\n      0x00\n        /* \"#utility.yul\":25610:25723   */\n    tag_595:\n        /* \"#utility.yul\":25624:25630   */\n      dup4\n        /* \"#utility.yul\":25621:25622   */\n      dup2\n        /* \"#utility.yul\":25618:25631   */\n      lt\n        /* \"#utility.yul\":25610:25723   */\n      iszero\n      tag_597\n      jumpi\n        /* \"#utility.yul\":25709:25710   */\n      dup1\n        /* \"#utility.yul\":25704:25707   */\n      dup3\n        /* \"#utility.yul\":25700:25711   */\n      add\n        /* \"#utility.yul\":25694:25712   */\n      mload\n        /* \"#utility.yul\":25690:25691   */\n      dup2\n        /* \"#utility.yul\":25685:25688   */\n      dup5\n        /* \"#utility.yul\":25681:25692   */\n      add\n        /* \"#utility.yul\":25674:25713   */\n      mstore\n        /* \"#utility.yul\":25646:25648   */\n      0x20\n        /* \"#utility.yul\":25643:25644   */\n      dup2\n        /* \"#utility.yul\":25639:25649   */\n      add\n        /* \"#utility.yul\":25634:25649   */\n      swap1\n      pop\n        /* \"#utility.yul\":25610:25723   */\n      jump(tag_595)\n    tag_597:\n        /* \"#utility.yul\":25741:25747   */\n      dup4\n        /* \"#utility.yul\":25738:25739   */\n      dup2\n        /* \"#utility.yul\":25735:25748   */\n      gt\n        /* \"#utility.yul\":25732:25734   */\n      iszero\n      tag_598\n      jumpi\n        /* \"#utility.yul\":25821:25822   */\n      0x00\n        /* \"#utility.yul\":25812:25818   */\n      dup5\n        /* \"#utility.yul\":25807:25810   */\n      dup5\n        /* \"#utility.yul\":25803:25819   */\n      add\n        /* \"#utility.yul\":25796:25823   */\n      mstore\n        /* \"#utility.yul\":25732:25734   */\n    tag_598:\n        /* \"#utility.yul\":25581:25839   */\n      pop\n      pop\n      pop\n      pop\n      jump\t// out\n        /* \"#utility.yul\":25845:26016   */\n    tag_284:\n        /* \"#utility.yul\":25884:25887   */\n      0x00\n        /* \"#utility.yul\":25907:25931   */\n      tag_600\n        /* \"#utility.yul\":25925:25930   */\n      dup3\n        /* \"#utility.yul\":25907:25931   */\n      tag_493\n      jump\t// in\n    tag_600:\n        /* \"#utility.yul\":25898:25931   */\n      swap2\n      pop\n        /* \"#utility.yul\":25953:25957   */\n      0x00\n        /* \"#utility.yul\":25946:25951   */\n      dup3\n        /* \"#utility.yul\":25943:25958   */\n      eq\n        /* \"#utility.yul\":25940:25942   */\n      iszero\n      tag_601\n      jumpi\n        /* \"#utility.yul\":25961:25979   */\n      tag_602\n      tag_571\n      jump\t// in\n    tag_602:\n        /* \"#utility.yul\":25940:25942   */\n    tag_601:\n        /* \"#utility.yul\":26008:26009   */\n      0x01\n        /* \"#utility.yul\":26001:26006   */\n      dup3\n        /* \"#utility.yul\":25997:26010   */\n      sub\n        /* \"#utility.yul\":25990:26010   */\n      swap1\n      pop\n        /* \"#utility.yul\":25888:26016   */\n      swap2\n      swap1\n      pop\n      jump\t// out\n        /* \"#utility.yul\":26022:26303   */\n    tag_553:\n        /* \"#utility.yul\":26105:26132   */\n      tag_604\n        /* \"#utility.yul\":26127:26131   */\n      dup3\n        /* \"#utility.yul\":26105:26132   */\n      tag_404\n      jump\t// in\n    tag_604:\n        /* \"#utility.yul\":26097:26103   */\n      dup2\n        /* \"#utility.yul\":26093:26133   */\n      add\n        /* \"#utility.yul\":26235:26241   */\n      dup2\n        /* \"#utility.yul\":26223:26233   */\n      dup2\n        /* \"#utility.yul\":26220:26242   */\n      lt\n        /* \"#utility.yul\":26199:26217   */\n      0xffffffffffffffff\n        /* \"#utility.yul\":26187:26197   */\n      dup3\n        /* \"#utility.yul\":26184:26218   */\n      gt\n        /* \"#utility.yul\":26181:26243   */\n      or\n        /* \"#utility.yul\":26178:26180   */\n      iszero\n      tag_605\n      jumpi\n        /* \"#utility.yul\":26246:26264   */\n      tag_606\n      tag_558\n      jump\t// in\n    tag_606:\n        /* \"#utility.yul\":26178:26180   */\n    tag_605:\n        /* \"#utility.yul\":26286:26296   */\n      dup1\n        /* \"#utility.yul\":26282:26284   */\n      0x40\n        /* \"#utility.yul\":26275:26297   */\n      mstore\n        /* \"#utility.yul\":26065:26303   */\n      pop\n      pop\n      pop\n      jump\t// out\n        /* \"#utility.yul\":26309:26542   */\n    tag_259:\n        /* \"#utility.yul\":26348:26351   */\n      0x00\n        /* \"#utility.yul\":26371:26395   */\n      tag_608\n        /* \"#utility.yul\":26389:26394   */\n      dup3\n        /* \"#utility.yul\":26371:26395   */\n      tag_493\n      jump\t// in\n    tag_608:\n        /* \"#utility.yul\":26362:26395   */\n      swap2\n      pop\n        /* \"#utility.yul\":26417:26483   */\n      0xffffffffffffffffffffffffffffffffffffffffffffffffffffffffffffffff\n        /* \"#utility.yul\":26410:26415   */\n      dup3\n        /* \"#utility.yul\":26407:26484   */\n      eq\n        /* \"#utility.yul\":26404:26406   */\n      iszero\n      tag_609\n      jumpi\n        /* \"#utility.yul\":26487:26505   */\n      tag_610\n      tag_571\n      jump\t// in\n    tag_610:\n        /* \"#utility.yul\":26404:26406   */\n    tag_609:\n        /* \"#utility.yul\":26534:26535   */\n      0x01\n        /* \"#utility.yul\":26527:26532   */\n      dup3\n        /* \"#utility.yul\":26523:26536   */\n      add\n        /* \"#utility.yul\":26516:26536   */\n      swap1\n      pop\n        /* \"#utility.yul\":26352:26542   */\n      swap2\n      swap1\n      pop\n      jump\t// out\n        /* \"#utility.yul\":26548:26626   */\n    tag_380:\n        /* \"#utility.yul\":26586:26593   */\n      0x00\n        /* \"#utility.yul\":26615:26620   */\n      dup2\n        /* \"#utility.yul\":26604:26620   */\n      swap1\n      pop\n        /* \"#utility.yul\":26594:26626   */\n      swap2\n      swap1\n      pop\n      jump\t// out\n        /* \"#utility.yul\":26632:26711   */\n    tag_386:\n        /* \"#utility.yul\":26671:26678   */\n      0x00\n        /* \"#utility.yul\":26700:26705   */\n      dup2\n        /* \"#utility.yul\":26689:26705   */\n      swap1\n      pop\n        /* \"#utility.yul\":26679:26711   */\n      swap2\n      swap1\n      pop\n      jump\t// out\n        /* \"#utility.yul\":26717:26796   */\n    tag_395:\n        /* \"#utility.yul\":26756:26763   */\n      0x00\n        /* \"#utility.yul\":26785:26790   */\n      dup2\n        /* \"#utility.yul\":26774:26790   */\n      swap1\n      pop\n        /* \"#utility.yul\":26764:26796   */\n      swap2\n      swap1\n      pop\n      jump\t// out\n        /* \"#utility.yul\":26802:26982   */\n    tag_571:\n        /* \"#utility.yul\":26850:26927   */\n      0x4e487b7100000000000000000000000000000000000000000000000000000000\n        /* \"#utility.yul\":26847:26848   */\n      0x00\n        /* \"#utility.yul\":26840:26928   */\n      mstore\n        /* \"#utility.yul\":26947:26951   */\n      0x11\n        /* \"#utility.yul\":26944:26945   */\n      0x04\n        /* \"#utility.yul\":26937:26952   */\n      mstore\n        /* \"#utility.yul\":26971:26975   */\n      0x24\n        /* \"#utility.yul\":26968:26969   */\n      0x00\n        /* \"#utility.yul\":26961:26976   */\n      revert\n        /* \"#utility.yul\":26988:27168   */\n    tag_558:\n        /* \"#utility.yul\":27036:27113   */\n      0x4e487b7100000000000000000000000000000000000000000000000000000000\n        /* \"#utility.yul\":27033:27034   */\n      0x00\n        /* \"#utility.yul\":27026:27114   */\n      mstore\n        /* \"#utility.yul\":27133:27137   */\n      0x41\n        /* \"#utility.yul\":27130:27131   */\n      0x04\n        /* \"#utility.yul\":27123:27138   */\n      mstore\n        /* \"#utility.yul\":27157:27161   */\n      0x24\n        /* \"#utility.yul\":27154:27155   */\n      0x00\n        /* \"#utility.yul\":27147:27162   */\n      revert\n        /* \"#utility.yul\":27174:27276   */\n    tag_404:\n        /* \"#utility.yul\":27215:27221   */\n      0x00\n        /* \"#utility.yul\":27266:27268   */\n      0x1f\n        /* \"#utility.yul\":27262:27269   */\n      not\n        /* \"#utility.yul\":27257:27259   */\n      0x1f\n        /* \"#utility.yul\":27250:27255   */\n      dup4\n        /* \"#utility.yul\":27246:27260   */\n      add\n        /* \"#utility.yul\":27242:27270   */\n      and\n        /* \"#utility.yul\":27232:27270   */\n      swap1\n      pop\n        /* \"#utility.yul\":27222:27276   */\n      swap2\n      swap1\n      pop\n      jump\t// out\n        /* \"#utility.yul\":27282:27464   */\n    tag_429:\n        /* \"#utility.yul\":27422:27456   */\n      0x537472696e67733a20686578206c656e67746820696e73756666696369656e74\n        /* \"#utility.yul\":27418:27419   */\n      0x00\n        /* \"#utility.yul\":27410:27416   */\n      dup3\n        /* \"#utility.yul\":27406:27420   */\n      add\n        /* \"#utility.yul\":27399:27457   */\n      mstore\n        /* \"#utility.yul\":27388:27464   */\n      pop\n      jump\t// out\n        /* \"#utility.yul\":27470:27640   */\n    tag_434:\n        /* \"#utility.yul\":27610:27632   */\n      0x5061757361626c653a206e6f7420706175736564000000000000000000000000\n        /* \"#utility.yul\":27606:27607   */\n      0x00\n        /* \"#utility.yul\":27598:27604   */\n      dup3\n        /* \"#utility.yul\":27594:27608   */\n      add\n        /* \"#utility.yul\":27587:27633   */\n      mstore\n        /* \"#utility.yul\":27576:27640   */\n      pop\n      jump\t// out\n        /* \"#utility.yul\":27646:27826   */\n    tag_439:\n        /* \"#utility.yul\":27786:27818   */\n      0x4661696c656420746f2073656e64206e61746976652063757272656e63790000\n        /* \"#utility.yul\":27782:27783   */\n      0x00\n        /* \"#utility.yul\":27774:27780   */\n      dup3\n        /* \"#utility.yul\":27770:27784   */\n      add\n        /* \"#utility.yul\":27763:27819   */\n      mstore\n        /* \"#utility.yul\":27752:27826   */\n      pop\n      jump\t// out\n        /* \"#utility.yul\":27832:28135   */\n    tag_444:\n        /* \"#utility.yul\":27972:28006   */\n      0x46696e61537761703a636c61696d20496e76616c6964207369676e6174757265\n        /* \"#utility.yul\":27968:27969   */\n      0x00\n        /* \"#utility.yul\":27960:27966   */\n      dup3\n        /* \"#utility.yul\":27956:27970   */\n      add\n        /* \"#utility.yul\":27949:28007   */\n      mstore\n        /* \"#utility.yul\":28041:28075   */\n      0x206c656e6774682e20546865207369676e6174757265206d7573742062652065\n        /* \"#utility.yul\":28036:28038   */\n      0x20\n        /* \"#utility.yul\":28028:28034   */\n      dup3\n        /* \"#utility.yul\":28024:28039   */\n      add\n        /* \"#utility.yul\":28017:28076   */\n      mstore\n        /* \"#utility.yul\":28110:28127   */\n      0x786163746c792036352062797465730000000000000000000000000000000000\n        /* \"#utility.yul\":28105:28107   */\n      0x40\n        /* \"#utility.yul\":28097:28103   */\n      dup3\n        /* \"#utility.yul\":28093:28108   */\n      add\n        /* \"#utility.yul\":28086:28128   */\n      mstore\n        /* \"#utility.yul\":27938:28135   */\n      pop\n      jump\t// out\n        /* \"#utility.yul\":28141:28307   */\n    tag_449:\n        /* \"#utility.yul\":28281:28299   */\n      0x5061757361626c653a2070617573656400000000000000000000000000000000\n        /* \"#utility.yul\":28277:28278   */\n      0x00\n        /* \"#utility.yul\":28269:28275   */\n      dup3\n        /* \"#utility.yul\":28265:28279   */\n      add\n        /* \"#utility.yul\":28258:28300   */\n      mstore\n        /* \"#utility.yul\":28247:28307   */\n      pop\n      jump\t// out\n        /* \"#utility.yul\":28313:28620   */\n    tag_454:\n        /* \"#utility.yul\":28453:28487   */\n      0x46696e61537761703a636c61696d20496e76616c6964207369676e6174757265\n        /* \"#utility.yul\":28449:28450   */\n      0x00\n        /* \"#utility.yul\":28441:28447   */\n      dup3\n        /* \"#utility.yul\":28437:28451   */\n      add\n        /* \"#utility.yul\":28430:28488   */\n      mstore\n        /* \"#utility.yul\":28522:28556   */\n      0x2e20546865207265636f7665726564207075626c6963206b6579206d75737420\n        /* \"#utility.yul\":28517:28519   */\n      0x20\n        /* \"#utility.yul\":28509:28515   */\n      dup3\n        /* \"#utility.yul\":28505:28520   */\n      add\n        /* \"#utility.yul\":28498:28557   */\n      mstore\n        /* \"#utility.yul\":28591:28612   */\n      0x62652065786163746c7920333320627974657300000000000000000000000000\n        /* \"#utility.yul\":28586:28588   */\n      0x40\n        /* \"#utility.yul\":28578:28584   */\n      dup3\n        /* \"#utility.yul\":28574:28589   */\n      add\n        /* \"#utility.yul\":28567:28613   */\n      mstore\n        /* \"#utility.yul\":28419:28620   */\n      pop\n      jump\t// out\n        /* \"#utility.yul\":28626:28740   */\n    tag_459:\n        /* \"#utility.yul\":28732:28740   */\n      pop\n      jump\t// out\n        /* \"#utility.yul\":28746:28977   */\n    tag_464:\n        /* \"#utility.yul\":28886:28920   */\n      0x46696e61537761703a636c61696d205461726765742061646472657373206361\n        /* \"#utility.yul\":28882:28883   */\n      0x00\n        /* \"#utility.yul\":28874:28880   */\n      dup3\n        /* \"#utility.yul\":28870:28884   */\n      add\n        /* \"#utility.yul\":28863:28921   */\n      mstore\n        /* \"#utility.yul\":28955:28969   */\n      0x6e6e6f74206265207a65726f0000000000000000000000000000000000000000\n        /* \"#utility.yul\":28950:28952   */\n      0x20\n        /* \"#utility.yul\":28942:28948   */\n      dup3\n        /* \"#utility.yul\":28938:28953   */\n      add\n        /* \"#utility.yul\":28931:28970   */\n      mstore\n        /* \"#utility.yul\":28852:28977   */\n      pop\n      jump\t// out\n        /* \"#utility.yul\":28983:29156   */\n    tag_469:\n        /* \"#utility.yul\":29123:29148   */\n      0x416363657373436f6e74726f6c3a206163636f756e7420000000000000000000\n        /* \"#utility.yul\":29119:29120   */\n      0x00\n        /* \"#utility.yul\":29111:29117   */\n      dup3\n        /* \"#utility.yul\":29107:29121   */\n      add\n        /* \"#utility.yul\":29100:29149   */\n      mstore\n        /* \"#utility.yul\":29089:29156   */\n      pop\n      jump\t// out\n        /* \"#utility.yul\":29162:29342   */\n    tag_474:\n        /* \"#utility.yul\":29302:29334   */\n      0x46696e61537761703a636c61696d20616c726561647920737761707065640000\n        /* \"#utility.yul\":29298:29299   */\n      0x00\n        /* \"#utility.yul\":29290:29296   */\n      dup3\n        /* \"#utility.yul\":29286:29300   */\n      add\n        /* \"#utility.yul\":29279:29335   */\n      mstore\n        /* \"#utility.yul\":29268:29342   */\n      pop\n      jump\t// out\n        /* \"#utility.yul\":29348:29576   */\n    tag_479:\n        /* \"#utility.yul\":29488:29522   */\n      0x46696e61537761703a636c61696d205369676e61747572652068617368206973\n        /* \"#utility.yul\":29484:29485   */\n      0x00\n        /* \"#utility.yul\":29476:29482   */\n      dup3\n        /* \"#utility.yul\":29472:29486   */\n      add\n        /* \"#utility.yul\":29465:29523   */\n      mstore\n        /* \"#utility.yul\":29557:29568   */\n      0x2072657175697265640000000000000000000000000000000000000000000000\n        /* \"#utility.yul\":29552:29554   */\n      0x20\n        /* \"#utility.yul\":29544:29550   */\n      dup3\n        /* \"#utility.yul\":29540:29555   */\n      add\n        /* \"#utility.yul\":29533:29569   */\n      mstore\n        /* \"#utility.yul\":29454:29576   */\n      pop\n      jump\t// out\n        /* \"#utility.yul\":29582:29749   */\n    tag_484:\n        /* \"#utility.yul\":29722:29741   */\n      0x206973206d697373696e6720726f6c6520000000000000000000000000000000\n        /* \"#utility.yul\":29718:29719   */\n      0x00\n        /* \"#utility.yul\":29710:29716   */\n      dup3\n        /* \"#utility.yul\":29706:29720   */\n      add\n        /* \"#utility.yul\":29699:29742   */\n      mstore\n        /* \"#utility.yul\":29688:29749   */\n      pop\n      jump\t// out\n        /* \"#utility.yul\":29755:29989   */\n    tag_489:\n        /* \"#utility.yul\":29895:29929   */\n      0x416363657373436f6e74726f6c3a2063616e206f6e6c792072656e6f756e6365\n        /* \"#utility.yul\":29891:29892   */\n      0x00\n        /* \"#utility.yul\":29883:29889   */\n      dup3\n        /* \"#utility.yul\":29879:29893   */\n      add\n        /* \"#utility.yul\":29872:29930   */\n      mstore\n        /* \"#utility.yul\":29964:29981   */\n      0x20726f6c657320666f722073656c660000000000000000000000000000000000\n        /* \"#utility.yul\":29959:29961   */\n      0x20\n        /* \"#utility.yul\":29951:29957   */\n      dup3\n        /* \"#utility.yul\":29947:29962   */\n      add\n        /* \"#utility.yul\":29940:29982   */\n      mstore\n        /* \"#utility.yul\":29861:29989   */\n      pop\n      jump\t// out\n        /* \"#utility.yul\":29995:30117   */\n    tag_308:\n        /* \"#utility.yul\":30068:30092   */\n      tag_631\n        /* \"#utility.yul\":30086:30091   */\n      dup2\n        /* \"#utility.yul\":30068:30092   */\n      tag_370\n      jump\t// in\n    tag_631:\n        /* \"#utility.yul\":30061:30066   */\n      dup2\n        /* \"#utility.yul\":30058:30093   */\n      eq\n        /* \"#utility.yul\":30048:30050   */\n      tag_632\n      jumpi\n        /* \"#utility.yul\":30107:30108   */\n      0x00\n        /* \"#utility.yul\":30104:30105   */\n      dup1\n        /* \"#utility.yul\":30097:30109   */\n      revert\n        /* \"#utility.yul\":30048:30050   */\n    tag_632:\n        /* \"#utility.yul\":30038:30117   */\n      pop\n      jump\t// out\n        /* \"#utility.yul\":30123:30245   */\n    tag_312:\n        /* \"#utility.yul\":30196:30220   */\n      tag_634\n        /* \"#utility.yul\":30214:30219   */\n      dup2\n        /* \"#utility.yul\":30196:30220   */\n      tag_390\n      jump\t// in\n    tag_634:\n        /* \"#utility.yul\":30189:30194   */\n      dup2\n        /* \"#utility.yul\":30186:30221   */\n      eq\n        /* \"#utility.yul\":30176:30178   */\n      tag_635\n      jumpi\n        /* \"#utility.yul\":30235:30236   */\n      0x00\n        /* \"#utility.yul\":30232:30233   */\n      dup1\n        /* \"#utility.yul\":30225:30237   */\n      revert\n        /* \"#utility.yul\":30176:30178   */\n    tag_635:\n        /* \"#utility.yul\":30166:30245   */\n      pop\n      jump\t// out\n        /* \"#utility.yul\":30251:30371   */\n    tag_319:\n        /* \"#utility.yul\":30323:30346   */\n      tag_637\n        /* \"#utility.yul\":30340:30345   */\n      dup2\n        /* \"#utility.yul\":30323:30346   */\n      tag_589\n      jump\t// in\n    tag_637:\n        /* \"#utility.yul\":30316:30321   */\n      dup2\n        /* \"#utility.yul\":30313:30347   */\n      eq\n        /* \"#utility.yul\":30303:30305   */\n      tag_638\n      jumpi\n        /* \"#utility.yul\":30361:30362   */\n      0x00\n        /* \"#utility.yul\":30358:30359   */\n      dup1\n        /* \"#utility.yul\":30351:30363   */\n      revert\n        /* \"#utility.yul\":30303:30305   */\n    tag_638:\n        /* \"#utility.yul\":30293:30371   */\n      pop\n      jump\t// out\n        /* \"#utility.yul\":30377:30499   */\n    tag_331:\n        /* \"#utility.yul\":30450:30474   */\n      tag_640\n        /* \"#utility.yul\":30468:30473   */\n      dup2\n        /* \"#utility.yul\":30450:30474   */\n      tag_493\n      jump\t// in\n    tag_640:\n        /* \"#utility.yul\":30443:30448   */\n      dup2\n        /* \"#utility.yul\":30440:30475   */\n      eq\n        /* \"#utility.yul\":30430:30432   */\n      tag_641\n      jumpi\n        /* \"#utility.yul\":30489:30490   */\n      0x00\n        /* \"#utility.yul\":30486:30487   */\n      dup1\n        /* \"#utility.yul\":30479:30491   */\n      revert\n        /* \"#utility.yul\":30430:30432   */\n    tag_641:\n        /* \"#utility.yul\":30420:30499   */\n      pop\n      jump\t// out\n\n    auxdata: 0xa2646970667358221220d9e05a0f072439e3d4087543088321c8d16c29f542ab3783c1ce06dbbe844b6564736f6c63430008040033\n}\n",
				"bytecode": {
					"linkReferences": {},
					"object": "60e06040523480156200001157600080fd5b5060405162002b7738038062002b77833981810160405281019062000037919062000329565b60008060006101000a81548160ff0219169083151502179055508373ffffffffffffffffffffffffffffffffffffffff1660808173ffffffffffffffffffffffffffffffffffffffff1660601b815250508273ffffffffffffffffffffffffffffffffffffffff1660a08173ffffffffffffffffffffffffffffffffffffffff1660601b81525050817effffffffffffffffffffffffffffffffffffffffffffffffffffffffffffff191660c0817effffffffffffffffffffffffffffffffffffffffffffffffffffffffffffff19168152505080600281905550620001447fa49807205ce4d355092ef5a8a18f56e8913cf4a201fbe287825b095693c21775336200018060201b60201c565b620001767f65d7a28e3265b37a6474929f336521b332c1681b933f6cb9f3376673440d862a336200018060201b60201c565b505050506200044d565b6200019282826200027160201b60201c565b6200026d57600180600084815260200190815260200160002060000160008373ffffffffffffffffffffffffffffffffffffffff1673ffffffffffffffffffffffffffffffffffffffff16815260200190815260200160002060006101000a81548160ff02191690831515021790555062000212620002dc60201b60201c565b73ffffffffffffffffffffffffffffffffffffffff168173ffffffffffffffffffffffffffffffffffffffff16837f2f8788117e7eff1d82e926ec794901d17c78024a50270940304540a733656f0d60405160405180910390a45b5050565b60006001600084815260200190815260200160002060000160008373ffffffffffffffffffffffffffffffffffffffff1673ffffffffffffffffffffffffffffffffffffffff16815260200190815260200160002060009054906101000a900460ff16905092915050565b600033905090565b600081519050620002f581620003ff565b92915050565b6000815190506200030c8162000419565b92915050565b600081519050620003238162000433565b92915050565b600080600080608085870312156200034057600080fd5b60006200035087828801620002e4565b94505060206200036387828801620002e4565b93505060406200037687828801620002fb565b9250506060620003898782880162000312565b91505092959194509250565b6000620003a282620003d5565b9050919050565b60007fff0000000000000000000000000000000000000000000000000000000000000082169050919050565b600073ffffffffffffffffffffffffffffffffffffffff82169050919050565b6000819050919050565b6200040a8162000395565b81146200041657600080fd5b50565b6200042481620003a9565b81146200043057600080fd5b50565b6200043e81620003f5565b81146200044a57600080fd5b50565b60805160601c60a05160601c60c05160f81c60f81b6126ee6200048960003960006108bb01526000610aa0015260006106f601526126ee6000f3fe608060405234801561001057600080fd5b506004361061010b5760003560e01c8063736c76ee116100a257806391d148541161007157806391d148541461027c578063a217fddf146102ac578063c71c6490146102ca578063d547741f146102e6578063e63ab1e9146103025761010b565b8063736c76ee1461020857806375b238fc1461022457806378415365146102425780638456cb59146102725761010b565b806336568abe116100de57806336568abe146101a85780633f4ba83a146101c45780635b06a1d5146101ce5780635c975abb146101ea5761010b565b806301ffc9a714610110578063248a9ca3146101405780632f2ff15d146101705780633636f6691461018c575b600080fd5b61012a6004803603810190610125919061183f565b610320565b6040516101379190611daf565b60405180910390f35b61015a600480360381019061015591906117b1565b61039a565b6040516101679190611dca565b60405180910390f35b61018a60048036038101906101859190611803565b6103ba565b005b6101a660048036038101906101a19190611868565b6103e3565b005b6101c260048036038101906101bd9190611803565b61043d565b005b6101cc6104c0565b005b6101e860048036038101906101e3919061193e565b6104fd565b005b6101f261053a565b6040516101ff9190611daf565b60405180910390f35b610222600480360381019061021d919061174a565b610550565b005b61022c610bf1565b6040516102399190611dca565b60405180910390f35b61025c60048036038101906102579190611868565b610c15565b6040516102699190611f77565b60405180910390f35b61027a610c3d565b005b61029660048036038101906102919190611803565b610c7a565b6040516102a39190611daf565b60405180910390f35b6102b4610ce5565b6040516102c19190611dca565b60405180910390f35b6102e460048036038101906102df91906118ea565b610cec565b005b61030060048036038101906102fb9190611803565b610d46565b005b61030a610d6f565b6040516103179190611dca565b60405180910390f35b60007f7965db0b000000000000000000000000000000000000000000000000000000007bffffffffffffffffffffffffffffffffffffffffffffffffffffffff1916827bffffffffffffffffffffffffffffffffffffffffffffffffffffffff19161480610393575061039282610d93565b5b9050919050565b600060016000838152602001908152602001600020600101549050919050565b6103c38261039a565b6103d4816103cf610dfd565b610e05565b6103de8383610ea2565b505050565b7fa49807205ce4d355092ef5a8a18f56e8913cf4a201fbe287825b095693c2177561041581610410610dfd565b610e05565b60006003836040516104279190611ce1565b9081526020016040518091039020819055505050565b610445610dfd565b73ffffffffffffffffffffffffffffffffffffffff168173ffffffffffffffffffffffffffffffffffffffff16146104b2576040517f08c379a00000000000000000000000000000000000000000000000000000000081526004016104a990611f57565b60405180910390fd5b6104bc8282610f82565b5050565b7f65d7a28e3265b37a6474929f336521b332c1681b933f6cb9f3376673440d862a6104f2816104ed610dfd565b610e05565b6104fa611064565b50565b7fa49807205ce4d355092ef5a8a18f56e8913cf4a201fbe287825b095693c2177561052f8161052a610dfd565b610e05565b816002819055505050565b60008060009054906101000a900460ff16905090565b61055861053a565b15610598576040517f08c379a000000000000000000000000000000000000000000000000000000000815260040161058f90611eb7565b60405180910390fd5b600073ffffffffffffffffffffffffffffffffffffffff168373ffffffffffffffffffffffffffffffffffffffff161415610608576040517f08c379a00000000000000000000000000000000000000000000000000000000081526004016105ff90611ef7565b60405180910390fd5b600060f81b82600060208110610647577f4e487b7100000000000000000000000000000000000000000000000000000000600052603260045260246000fd5b1a60f81b7effffffffffffffffffffffffffffffffffffffffffffffffffffffffffffff191614156106ae576040517f08c379a00000000000000000000000000000000000000000000000000000000081526004016106a590611f37565b60405180910390fd5b60418151146106f2576040517f08c379a00000000000000000000000000000000000000000000000000000000081526004016106e990611e97565b60405180910390fd5b60007f000000000000000000000000000000000000000000000000000000000000000073ffffffffffffffffffffffffffffffffffffffff166319045a2584846040518363ffffffff1660e01b815260040161074f929190611de5565b60006040518083038186803b15801561076757600080fd5b505afa15801561077b573d6000803e3d6000fd5b505050506040513d6000823e3d601f19601f820116820180604052508101906107a491906118a9565b905060218151146107ea576040517f08c379a00000000000000000000000000000000000000000000000000000000081526004016107e190611ed7565b60405180910390fd5b60006002826040516107fc9190611ce1565b602060405180830381855afa158015610819573d6000803e3d6000fd5b5050506040513d601f19601f8201168201806040525081019061083c91906117da565b905060006003826040516020016108539190611cc6565b60405160208183030381529060405260405161086f9190611ce1565b602060405180830381855afa15801561088c573d6000803e3d6000fd5b5050506040515160601b6040516020016108a69190611cab565b604051602081830303815290604052905060007f0000000000000000000000000000000000000000000000000000000000000000826040516020016108ec929190611c83565b60405160208183030381529060405290506000600280836040516109109190611ce1565b602060405180830381855afa15801561092d573d6000803e3d6000fd5b5050506040513d601f19601f8201168201806040525081019061095091906117da565b6040516020016109609190611cc6565b60405160208183030381529060405260405161097c9190611ce1565b602060405180830381855afa158015610999573d6000803e3d6000fd5b5050506040513d601f19601f820116820180604052508101906109bc91906117da565b6040516020016109cc9190611cc6565b604051602081830303815290604052905060006109ec8260006004611105565b905060008382604051602001610a03929190611cf8565b60405160208183030381529060405290506000600382604051610a269190611ce1565b908152602001604051809103902054905060008111610a7a576040517f08c379a0000000000000000000000000000000000000000000000000000000008152600401610a7190611f17565b60405180910390fd5b6000600383604051610a8c9190611ce1565b9081526020016040518091039020819055507f000000000000000000000000000000000000000000000000000000000000000073ffffffffffffffffffffffffffffffffffffffff166340c10f198c836040518363ffffffff1660e01b8152600401610af9929190611d86565b60006040518083038186803b158015610b1157600080fd5b505afa158015610b25573d6000803e3d6000fd5b5050505060006002541115610be45760008b73ffffffffffffffffffffffffffffffffffffffff16600254604051610b5c90611d1c565b60006040518083038185875af1925050503d8060008114610b99576040519150601f19603f3d011682016040523d82523d6000602084013e610b9e565b606091505b5050905080610be2576040517f08c379a0000000000000000000000000000000000000000000000000000000008152600401610bd990611e77565b60405180910390fd5b505b5050505050505050505050565b7fa49807205ce4d355092ef5a8a18f56e8913cf4a201fbe287825b095693c2177581565b6000600382604051610c279190611ce1565b9081526020016040518091039020549050919050565b7f65d7a28e3265b37a6474929f336521b332c1681b933f6cb9f3376673440d862a610c6f81610c6a610dfd565b610e05565b610c77611275565b50565b60006001600084815260200190815260200160002060000160008373ffffffffffffffffffffffffffffffffffffffff1673ffffffffffffffffffffffffffffffffffffffff16815260200190815260200160002060009054906101000a900460ff16905092915050565b6000801b81565b7fa49807205ce4d355092ef5a8a18f56e8913cf4a201fbe287825b095693c21775610d1e81610d19610dfd565b610e05565b81600384604051610d2f9190611ce1565b908152602001604051809103902081905550505050565b610d4f8261039a565b610d6081610d5b610dfd565b610e05565b610d6a8383610f82565b505050565b7f65d7a28e3265b37a6474929f336521b332c1681b933f6cb9f3376673440d862a81565b60007f01ffc9a7000000000000000000000000000000000000000000000000000000007bffffffffffffffffffffffffffffffffffffffffffffffffffffffff1916827bffffffffffffffffffffffffffffffffffffffffffffffffffffffff1916149050919050565b600033905090565b610e0f8282610c7a565b610e9e57610e348173ffffffffffffffffffffffffffffffffffffffff166014611317565b610e428360001c6020611317565b604051602001610e53929190611d31565b6040516020818303038152906040526040517f08c379a0000000000000000000000000000000000000000000000000000000008152600401610e959190611e15565b60405180910390fd5b5050565b610eac8282610c7a565b610f7e57600180600084815260200190815260200160002060000160008373ffffffffffffffffffffffffffffffffffffffff1673ffffffffffffffffffffffffffffffffffffffff16815260200190815260200160002060006101000a81548160ff021916908315150217905550610f23610dfd565b73ffffffffffffffffffffffffffffffffffffffff168173ffffffffffffffffffffffffffffffffffffffff16837f2f8788117e7eff1d82e926ec794901d17c78024a50270940304540a733656f0d60405160405180910390a45b5050565b610f8c8282610c7a565b156110605760006001600084815260200190815260200160002060000160008373ffffffffffffffffffffffffffffffffffffffff1673ffffffffffffffffffffffffffffffffffffffff16815260200190815260200160002060006101000a81548160ff021916908315150217905550611005610dfd565b73ffffffffffffffffffffffffffffffffffffffff168173ffffffffffffffffffffffffffffffffffffffff16837ff6391f5c32d9c69d2a47ea670b442974b53935d1edc7fd64eb21e047a839171b60405160405180910390a45b5050565b61106c61053a565b6110ab576040517f08c379a00000000000000000000000000000000000000000000000000000000081526004016110a290611e57565b60405180910390fd5b60008060006101000a81548160ff0219169083151502179055507f5db9ee0a495bf2e6ff9c91a7834c1ba4fdd244a5e8aa4e537bd38aeae4b073aa6110ee610dfd565b6040516110fb9190611d6b565b60405180910390a1565b60606000838361111591906120e6565b67ffffffffffffffff811115611154577f4e487b7100000000000000000000000000000000000000000000000000000000600052604160045260246000fd5b6040519080825280601f01601f1916602001820160405280156111865781602001600182028036833780820191505090505b50905060005b6001858561119a91906120e6565b6111a491906120e6565b8111611269578581815181106111e3577f4e487b7100000000000000000000000000000000000000000000000000000000600052603260045260246000fd5b602001015160f81c60f81b828281518110611227577f4e487b7100000000000000000000000000000000000000000000000000000000600052603260045260246000fd5b60200101907effffffffffffffffffffffffffffffffffffffffffffffffffffffffffffff1916908160001a90535080806112619061228d565b91505061118c565b50809150509392505050565b61127d61053a565b156112bd576040517f08c379a00000000000000000000000000000000000000000000000000000000081526004016112b490611eb7565b60405180910390fd5b60016000806101000a81548160ff0219169083151502179055507f62e78cea01bee320cd4e420270b5ea74000d11b0c9f74754ebdbfc544b05a258611300610dfd565b60405161130d9190611d6b565b60405180910390a1565b60606000600283600261132a919061208c565b6113349190612036565b67ffffffffffffffff811115611373577f4e487b7100000000000000000000000000000000000000000000000000000000600052604160045260246000fd5b6040519080825280601f01601f1916602001820160405280156113a55781602001600182028036833780820191505090505b5090507f300000000000000000000000000000000000000000000000000000000000000081600081518110611403577f4e487b7100000000000000000000000000000000000000000000000000000000600052603260045260246000fd5b60200101907effffffffffffffffffffffffffffffffffffffffffffffffffffffffffffff1916908160001a9053507f78000000000000000000000000000000000000000000000000000000000000008160018151811061148d577f4e487b7100000000000000000000000000000000000000000000000000000000600052603260045260246000fd5b60200101907effffffffffffffffffffffffffffffffffffffffffffffffffffffffffffff1916908160001a905350600060018460026114cd919061208c565b6114d79190612036565b90505b60018111156115c3577f3031323334353637383961626364656600000000000000000000000000000000600f86166010811061153f577f4e487b7100000000000000000000000000000000000000000000000000000000600052603260045260246000fd5b1a60f81b82828151811061157c577f4e487b7100000000000000000000000000000000000000000000000000000000600052603260045260246000fd5b60200101907effffffffffffffffffffffffffffffffffffffffffffffffffffffffffffff1916908160001a905350600485901c9450806115bc90612232565b90506114da565b5060008414611607576040517f08c379a00000000000000000000000000000000000000000000000000000000081526004016115fe90611e37565b60405180910390fd5b8091505092915050565b600061162461161f84611fb7565b611f92565b90508281526020810184848401111561163c57600080fd5b6116478482856121f0565b509392505050565b600061166261165d84611fb7565b611f92565b90508281526020810184848401111561167a57600080fd5b6116858482856121ff565b509392505050565b60008135905061169c8161265c565b92915050565b6000813590506116b181612673565b92915050565b6000815190506116c681612673565b92915050565b6000813590506116db8161268a565b92915050565b600082601f8301126116f257600080fd5b8135611702848260208601611611565b91505092915050565b600082601f83011261171c57600080fd5b815161172c84826020860161164f565b91505092915050565b600081359050611744816126a1565b92915050565b60008060006060848603121561175f57600080fd5b600061176d8682870161168d565b935050602061177e868287016116a2565b925050604084013567ffffffffffffffff81111561179b57600080fd5b6117a7868287016116e1565b9150509250925092565b6000602082840312156117c357600080fd5b60006117d1848285016116a2565b91505092915050565b6000602082840312156117ec57600080fd5b60006117fa848285016116b7565b91505092915050565b6000806040838503121561181657600080fd5b6000611824858286016116a2565b92505060206118358582860161168d565b9150509250929050565b60006020828403121561185157600080fd5b600061185f848285016116cc565b91505092915050565b60006020828403121561187a57600080fd5b600082013567ffffffffffffffff81111561189457600080fd5b6118a0848285016116e1565b91505092915050565b6000602082840312156118bb57600080fd5b600082015167ffffffffffffffff8111156118d557600080fd5b6118e18482850161170b565b91505092915050565b600080604083850312156118fd57600080fd5b600083013567ffffffffffffffff81111561191757600080fd5b611923858286016116e1565b925050602061193485828601611735565b9150509250929050565b60006020828403121561195057600080fd5b600061195e84828501611735565b91505092915050565b6119708161211a565b82525050565b61197f8161212c565b82525050565b61199661199182612138565b6122d6565b82525050565b6119ad6119a882612164565b6122e0565b82525050565b6119bc81612190565b82525050565b6119d36119ce82612190565b6122ea565b82525050565b60006119e482611fe8565b6119ee8185611ffe565b93506119fe8185602086016121ff565b611a0781612352565b840191505092915050565b6000611a1d82611fe8565b611a27818561200f565b9350611a378185602086016121ff565b80840191505092915050565b6000611a4e82611ff3565b611a58818561201a565b9350611a688185602086016121ff565b611a7181612352565b840191505092915050565b6000611a8782611ff3565b611a91818561202b565b9350611aa18185602086016121ff565b80840191505092915050565b6000611aba60208361201a565b9150611ac582612363565b602082019050919050565b6000611add60148361201a565b9150611ae88261238c565b602082019050919050565b6000611b00601e8361201a565b9150611b0b826123b5565b602082019050919050565b6000611b23604f8361201a565b9150611b2e826123de565b606082019050919050565b6000611b4660108361201a565b9150611b5182612453565b602082019050919050565b6000611b6960538361201a565b9150611b748261247c565b606082019050919050565b6000611b8c60008361200f565b9150611b97826124f1565b600082019050919050565b6000611baf602c8361201a565b9150611bba826124f4565b604082019050919050565b6000611bd260178361202b565b9150611bdd82612543565b601782019050919050565b6000611bf5601e8361201a565b9150611c008261256c565b602082019050919050565b6000611c1860298361201a565b9150611c2382612595565b604082019050919050565b6000611c3b60118361202b565b9150611c46826125e4565b601182019050919050565b6000611c5e602f8361201a565b9150611c698261260d565b604082019050919050565b611c7d816121e6565b82525050565b6000611c8f8285611985565b600182019150611c9f8284611a12565b91508190509392505050565b6000611cb7828461199c565b60148201915081905092915050565b6000611cd282846119c2565b60208201915081905092915050565b6000611ced8284611a12565b915081905092915050565b6000611d048285611a12565b9150611d108284611a12565b91508190509392505050565b6000611d2782611b7f565b9150819050919050565b6000611d3c82611bc5565b9150611d488285611a7c565b9150611d5382611c2e565b9150611d5f8284611a7c565b91508190509392505050565b6000602082019050611d806000830184611967565b92915050565b6000604082019050611d9b6000830185611967565b611da86020830184611c74565b9392505050565b6000602082019050611dc46000830184611976565b92915050565b6000602082019050611ddf60008301846119b3565b92915050565b6000604082019050611dfa60008301856119b3565b8181036020830152611e0c81846119d9565b90509392505050565b60006020820190508181036000830152611e2f8184611a43565b905092915050565b60006020820190508181036000830152611e5081611aad565b9050919050565b60006020820190508181036000830152611e7081611ad0565b9050919050565b60006020820190508181036000830152611e9081611af3565b9050919050565b60006020820190508181036000830152611eb081611b16565b9050919050565b60006020820190508181036000830152611ed081611b39565b9050919050565b60006020820190508181036000830152611ef081611b5c565b9050919050565b60006020820190508181036000830152611f1081611ba2565b9050919050565b60006020820190508181036000830152611f3081611be8565b9050919050565b60006020820190508181036000830152611f5081611c0b565b9050919050565b60006020820190508181036000830152611f7081611c51565b9050919050565b6000602082019050611f8c6000830184611c74565b92915050565b6000611f9c611fad565b9050611fa8828261225c565b919050565b6000604051905090565b600067ffffffffffffffff821115611fd257611fd1612323565b5b611fdb82612352565b9050602081019050919050565b600081519050919050565b600081519050919050565b600082825260208201905092915050565b600081905092915050565b600082825260208201905092915050565b600081905092915050565b6000612041826121e6565b915061204c836121e6565b9250827fffffffffffffffffffffffffffffffffffffffffffffffffffffffffffffffff03821115612081576120806122f4565b5b828201905092915050565b6000612097826121e6565b91506120a2836121e6565b9250817fffffffffffffffffffffffffffffffffffffffffffffffffffffffffffffffff04831182151516156120db576120da6122f4565b5b828202905092915050565b60006120f1826121e6565b91506120fc836121e6565b92508282101561210f5761210e6122f4565b5b828203905092915050565b6000612125826121c6565b9050919050565b60008115159050919050565b60007fff0000000000000000000000000000000000000000000000000000000000000082169050919050565b60007fffffffffffffffffffffffffffffffffffffffff00000000000000000000000082169050919050565b6000819050919050565b60007fffffffff0000000000000000000000000000000000000000000000000000000082169050919050565b600073ffffffffffffffffffffffffffffffffffffffff82169050919050565b6000819050919050565b82818337600083830152505050565b60005b8381101561221d578082015181840152602081019050612202565b8381111561222c576000848401525b50505050565b600061223d826121e6565b91506000821415612251576122506122f4565b5b600182039050919050565b61226582612352565b810181811067ffffffffffffffff8211171561228457612283612323565b5b80604052505050565b6000612298826121e6565b91507fffffffffffffffffffffffffffffffffffffffffffffffffffffffffffffffff8214156122cb576122ca6122f4565b5b600182019050919050565b6000819050919050565b6000819050919050565b6000819050919050565b7f4e487b7100000000000000000000000000000000000000000000000000000000600052601160045260246000fd5b7f4e487b7100000000000000000000000000000000000000000000000000000000600052604160045260246000fd5b6000601f19601f8301169050919050565b7f537472696e67733a20686578206c656e67746820696e73756666696369656e74600082015250565b7f5061757361626c653a206e6f7420706175736564000000000000000000000000600082015250565b7f4661696c656420746f2073656e64206e61746976652063757272656e63790000600082015250565b7f46696e61537761703a636c61696d20496e76616c6964207369676e617475726560008201527f206c656e6774682e20546865207369676e6174757265206d757374206265206560208201527f786163746c792036352062797465730000000000000000000000000000000000604082015250565b7f5061757361626c653a2070617573656400000000000000000000000000000000600082015250565b7f46696e61537761703a636c61696d20496e76616c6964207369676e617475726560008201527f2e20546865207265636f7665726564207075626c6963206b6579206d7573742060208201527f62652065786163746c7920333320627974657300000000000000000000000000604082015250565b50565b7f46696e61537761703a636c61696d20546172676574206164647265737320636160008201527f6e6e6f74206265207a65726f0000000000000000000000000000000000000000602082015250565b7f416363657373436f6e74726f6c3a206163636f756e7420000000000000000000600082015250565b7f46696e61537761703a636c61696d20616c726561647920737761707065640000600082015250565b7f46696e61537761703a636c61696d205369676e6174757265206861736820697360008201527f2072657175697265640000000000000000000000000000000000000000000000602082015250565b7f206973206d697373696e6720726f6c6520000000000000000000000000000000600082015250565b7f416363657373436f6e74726f6c3a2063616e206f6e6c792072656e6f756e636560008201527f20726f6c657320666f722073656c660000000000000000000000000000000000602082015250565b6126658161211a565b811461267057600080fd5b50565b61267c81612190565b811461268757600080fd5b50565b6126938161219a565b811461269e57600080fd5b50565b6126aa816121e6565b81146126b557600080fd5b5056fea2646970667358221220d9e05a0f072439e3d4087543088321c8d16c29f542ab3783c1ce06dbbe844b6564736f6c63430008040033",
					"opcodes": "PUSH1 0xE0 PUSH1 0x40 MSTORE CALLVALUE DUP1 ISZERO PUSH3 0x11 JUMPI PUSH1 0x0 DUP1 REVERT JUMPDEST POP PUSH1 0x40 MLOAD PUSH3 0x2B77 CODESIZE SUB DUP1 PUSH3 0x2B77 DUP4 CODECOPY DUP2 DUP2 ADD PUSH1 0x40 MSTORE DUP2 ADD SWAP1 PUSH3 0x37 SWAP2 SWAP1 PUSH3 0x329 JUMP JUMPDEST PUSH1 0x0 DUP1 PUSH1 0x0 PUSH2 0x100 EXP DUP2 SLOAD DUP2 PUSH1 0xFF MUL NOT AND SWAP1 DUP4 ISZERO ISZERO MUL OR SWAP1 SSTORE POP DUP4 PUSH20 0xFFFFFFFFFFFFFFFFFFFFFFFFFFFFFFFFFFFFFFFF AND PUSH1 0x80 DUP2 PUSH20 0xFFFFFFFFFFFFFFFFFFFFFFFFFFFFFFFFFFFFFFFF AND PUSH1 0x60 SHL DUP2 MSTORE POP POP DUP3 PUSH20 0xFFFFFFFFFFFFFFFFFFFFFFFFFFFFFFFFFFFFFFFF AND PUSH1 0xA0 DUP2 PUSH20 0xFFFFFFFFFFFFFFFFFFFFFFFFFFFFFFFFFFFFFFFF AND PUSH1 0x60 SHL DUP2 MSTORE POP POP DUP2 PUSH31 0xFFFFFFFFFFFFFFFFFFFFFFFFFFFFFFFFFFFFFFFFFFFFFFFFFFFFFFFFFFFFFF NOT AND PUSH1 0xC0 DUP2 PUSH31 0xFFFFFFFFFFFFFFFFFFFFFFFFFFFFFFFFFFFFFFFFFFFFFFFFFFFFFFFFFFFFFF NOT AND DUP2 MSTORE POP POP DUP1 PUSH1 0x2 DUP2 SWAP1 SSTORE POP PUSH3 0x144 PUSH32 0xA49807205CE4D355092EF5A8A18F56E8913CF4A201FBE287825B095693C21775 CALLER PUSH3 0x180 PUSH1 0x20 SHL PUSH1 0x20 SHR JUMP JUMPDEST PUSH3 0x176 PUSH32 0x65D7A28E3265B37A6474929F336521B332C1681B933F6CB9F3376673440D862A CALLER PUSH3 0x180 PUSH1 0x20 SHL PUSH1 0x20 SHR JUMP JUMPDEST POP POP POP POP PUSH3 0x44D JUMP JUMPDEST PUSH3 0x192 DUP3 DUP3 PUSH3 0x271 PUSH1 0x20 SHL PUSH1 0x20 SHR JUMP JUMPDEST PUSH3 0x26D JUMPI PUSH1 0x1 DUP1 PUSH1 0x0 DUP5 DUP2 MSTORE PUSH1 0x20 ADD SWAP1 DUP2 MSTORE PUSH1 0x20 ADD PUSH1 0x0 KECCAK256 PUSH1 0x0 ADD PUSH1 0x0 DUP4 PUSH20 0xFFFFFFFFFFFFFFFFFFFFFFFFFFFFFFFFFFFFFFFF AND PUSH20 0xFFFFFFFFFFFFFFFFFFFFFFFFFFFFFFFFFFFFFFFF AND DUP2 MSTORE PUSH1 0x20 ADD SWAP1 DUP2 MSTORE PUSH1 0x20 ADD PUSH1 0x0 KECCAK256 PUSH1 0x0 PUSH2 0x100 EXP DUP2 SLOAD DUP2 PUSH1 0xFF MUL NOT AND SWAP1 DUP4 ISZERO ISZERO MUL OR SWAP1 SSTORE POP PUSH3 0x212 PUSH3 0x2DC PUSH1 0x20 SHL PUSH1 0x20 SHR JUMP JUMPDEST PUSH20 0xFFFFFFFFFFFFFFFFFFFFFFFFFFFFFFFFFFFFFFFF AND DUP2 PUSH20 0xFFFFFFFFFFFFFFFFFFFFFFFFFFFFFFFFFFFFFFFF AND DUP4 PUSH32 0x2F8788117E7EFF1D82E926EC794901D17C78024A50270940304540A733656F0D PUSH1 0x40 MLOAD PUSH1 0x40 MLOAD DUP1 SWAP2 SUB SWAP1 LOG4 JUMPDEST POP POP JUMP JUMPDEST PUSH1 0x0 PUSH1 0x1 PUSH1 0x0 DUP5 DUP2 MSTORE PUSH1 0x20 ADD SWAP1 DUP2 MSTORE PUSH1 0x20 ADD PUSH1 0x0 KECCAK256 PUSH1 0x0 ADD PUSH1 0x0 DUP4 PUSH20 0xFFFFFFFFFFFFFFFFFFFFFFFFFFFFFFFFFFFFFFFF AND PUSH20 0xFFFFFFFFFFFFFFFFFFFFFFFFFFFFFFFFFFFFFFFF AND DUP2 MSTORE PUSH1 0x20 ADD SWAP1 DUP2 MSTORE PUSH1 0x20 ADD PUSH1 0x0 KECCAK256 PUSH1 0x0 SWAP1 SLOAD SWAP1 PUSH2 0x100 EXP SWAP1 DIV PUSH1 0xFF AND SWAP1 POP SWAP3 SWAP2 POP POP JUMP JUMPDEST PUSH1 0x0 CALLER SWAP1 POP SWAP1 JUMP JUMPDEST PUSH1 0x0 DUP2 MLOAD SWAP1 POP PUSH3 0x2F5 DUP2 PUSH3 0x3FF JUMP JUMPDEST SWAP3 SWAP2 POP POP JUMP JUMPDEST PUSH1 0x0 DUP2 MLOAD SWAP1 POP PUSH3 0x30C DUP2 PUSH3 0x419 JUMP JUMPDEST SWAP3 SWAP2 POP POP JUMP JUMPDEST PUSH1 0x0 DUP2 MLOAD SWAP1 POP PUSH3 0x323 DUP2 PUSH3 0x433 JUMP JUMPDEST SWAP3 SWAP2 POP POP JUMP JUMPDEST PUSH1 0x0 DUP1 PUSH1 0x0 DUP1 PUSH1 0x80 DUP6 DUP8 SUB SLT ISZERO PUSH3 0x340 JUMPI PUSH1 0x0 DUP1 REVERT JUMPDEST PUSH1 0x0 PUSH3 0x350 DUP8 DUP3 DUP9 ADD PUSH3 0x2E4 JUMP JUMPDEST SWAP5 POP POP PUSH1 0x20 PUSH3 0x363 DUP8 DUP3 DUP9 ADD PUSH3 0x2E4 JUMP JUMPDEST SWAP4 POP POP PUSH1 0x40 PUSH3 0x376 DUP8 DUP3 DUP9 ADD PUSH3 0x2FB JUMP JUMPDEST SWAP3 POP POP PUSH1 0x60 PUSH3 0x389 DUP8 DUP3 DUP9 ADD PUSH3 0x312 JUMP JUMPDEST SWAP2 POP POP SWAP3 SWAP6 SWAP2 SWAP5 POP SWAP3 POP JUMP JUMPDEST PUSH1 0x0 PUSH3 0x3A2 DUP3 PUSH3 0x3D5 JUMP JUMPDEST SWAP1 POP SWAP2 SWAP1 POP JUMP JUMPDEST PUSH1 0x0 PUSH32 0xFF00000000000000000000000000000000000000000000000000000000000000 DUP3 AND SWAP1 POP SWAP2 SWAP1 POP JUMP JUMPDEST PUSH1 0x0 PUSH20 0xFFFFFFFFFFFFFFFFFFFFFFFFFFFFFFFFFFFFFFFF DUP3 AND SWAP1 POP SWAP2 SWAP1 POP JUMP JUMPDEST PUSH1 0x0 DUP2 SWAP1 POP SWAP2 SWAP1 POP JUMP JUMPDEST PUSH3 0x40A DUP2 PUSH3 0x395 JUMP JUMPDEST DUP2 EQ PUSH3 0x416 JUMPI PUSH1 0x0 DUP1 REVERT JUMPDEST POP JUMP JUMPDEST PUSH3 0x424 DUP2 PUSH3 0x3A9 JUMP JUMPDEST DUP2 EQ PUSH3 0x430 JUMPI PUSH1 0x0 DUP1 REVERT JUMPDEST POP JUMP JUMPDEST PUSH3 0x43E DUP2 PUSH3 0x3F5 JUMP JUMPDEST DUP2 EQ PUSH3 0x44A JUMPI PUSH1 0x0 DUP1 REVERT JUMPDEST POP JUMP JUMPDEST PUSH1 0x80 MLOAD PUSH1 0x60 SHR PUSH1 0xA0 MLOAD PUSH1 0x60 SHR PUSH1 0xC0 MLOAD PUSH1 0xF8 SHR PUSH1 0xF8 SHL PUSH2 0x26EE PUSH3 0x489 PUSH1 0x0 CODECOPY PUSH1 0x0 PUSH2 0x8BB ADD MSTORE PUSH1 0x0 PUSH2 0xAA0 ADD MSTORE PUSH1 0x0 PUSH2 0x6F6 ADD MSTORE PUSH2 0x26EE PUSH1 0x0 RETURN INVALID PUSH1 0x80 PUSH1 0x40 MSTORE CALLVALUE DUP1 ISZERO PUSH2 0x10 JUMPI PUSH1 0x0 DUP1 REVERT JUMPDEST POP PUSH1 0x4 CALLDATASIZE LT PUSH2 0x10B JUMPI PUSH1 0x0 CALLDATALOAD PUSH1 0xE0 SHR DUP1 PUSH4 0x736C76EE GT PUSH2 0xA2 JUMPI DUP1 PUSH4 0x91D14854 GT PUSH2 0x71 JUMPI DUP1 PUSH4 0x91D14854 EQ PUSH2 0x27C JUMPI DUP1 PUSH4 0xA217FDDF EQ PUSH2 0x2AC JUMPI DUP1 PUSH4 0xC71C6490 EQ PUSH2 0x2CA JUMPI DUP1 PUSH4 0xD547741F EQ PUSH2 0x2E6 JUMPI DUP1 PUSH4 0xE63AB1E9 EQ PUSH2 0x302 JUMPI PUSH2 0x10B JUMP JUMPDEST DUP1 PUSH4 0x736C76EE EQ PUSH2 0x208 JUMPI DUP1 PUSH4 0x75B238FC EQ PUSH2 0x224 JUMPI DUP1 PUSH4 0x78415365 EQ PUSH2 0x242 JUMPI DUP1 PUSH4 0x8456CB59 EQ PUSH2 0x272 JUMPI PUSH2 0x10B JUMP JUMPDEST DUP1 PUSH4 0x36568ABE GT PUSH2 0xDE JUMPI DUP1 PUSH4 0x36568ABE EQ PUSH2 0x1A8 JUMPI DUP1 PUSH4 0x3F4BA83A EQ PUSH2 0x1C4 JUMPI DUP1 PUSH4 0x5B06A1D5 EQ PUSH2 0x1CE JUMPI DUP1 PUSH4 0x5C975ABB EQ PUSH2 0x1EA JUMPI PUSH2 0x10B JUMP JUMPDEST DUP1 PUSH4 0x1FFC9A7 EQ PUSH2 0x110 JUMPI DUP1 PUSH4 0x248A9CA3 EQ PUSH2 0x140 JUMPI DUP1 PUSH4 0x2F2FF15D EQ PUSH2 0x170 JUMPI DUP1 PUSH4 0x3636F669 EQ PUSH2 0x18C JUMPI JUMPDEST PUSH1 0x0 DUP1 REVERT JUMPDEST PUSH2 0x12A PUSH1 0x4 DUP1 CALLDATASIZE SUB DUP2 ADD SWAP1 PUSH2 0x125 SWAP2 SWAP1 PUSH2 0x183F JUMP JUMPDEST PUSH2 0x320 JUMP JUMPDEST PUSH1 0x40 MLOAD PUSH2 0x137 SWAP2 SWAP1 PUSH2 0x1DAF JUMP JUMPDEST PUSH1 0x40 MLOAD DUP1 SWAP2 SUB SWAP1 RETURN JUMPDEST PUSH2 0x15A PUSH1 0x4 DUP1 CALLDATASIZE SUB DUP2 ADD SWAP1 PUSH2 0x155 SWAP2 SWAP1 PUSH2 0x17B1 JUMP JUMPDEST PUSH2 0x39A JUMP JUMPDEST PUSH1 0x40 MLOAD PUSH2 0x167 SWAP2 SWAP1 PUSH2 0x1DCA JUMP JUMPDEST PUSH1 0x40 MLOAD DUP1 SWAP2 SUB SWAP1 RETURN JUMPDEST PUSH2 0x18A PUSH1 0x4 DUP1 CALLDATASIZE SUB DUP2 ADD SWAP1 PUSH2 0x185 SWAP2 SWAP1 PUSH2 0x1803 JUMP JUMPDEST PUSH2 0x3BA JUMP JUMPDEST STOP JUMPDEST PUSH2 0x1A6 PUSH1 0x4 DUP1 CALLDATASIZE SUB DUP2 ADD SWAP1 PUSH2 0x1A1 SWAP2 SWAP1 PUSH2 0x1868 JUMP JUMPDEST PUSH2 0x3E3 JUMP JUMPDEST STOP JUMPDEST PUSH2 0x1C2 PUSH1 0x4 DUP1 CALLDATASIZE SUB DUP2 ADD SWAP1 PUSH2 0x1BD SWAP2 SWAP1 PUSH2 0x1803 JUMP JUMPDEST PUSH2 0x43D JUMP JUMPDEST STOP JUMPDEST PUSH2 0x1CC PUSH2 0x4C0 JUMP JUMPDEST STOP JUMPDEST PUSH2 0x1E8 PUSH1 0x4 DUP1 CALLDATASIZE SUB DUP2 ADD SWAP1 PUSH2 0x1E3 SWAP2 SWAP1 PUSH2 0x193E JUMP JUMPDEST PUSH2 0x4FD JUMP JUMPDEST STOP JUMPDEST PUSH2 0x1F2 PUSH2 0x53A JUMP JUMPDEST PUSH1 0x40 MLOAD PUSH2 0x1FF SWAP2 SWAP1 PUSH2 0x1DAF JUMP JUMPDEST PUSH1 0x40 MLOAD DUP1 SWAP2 SUB SWAP1 RETURN JUMPDEST PUSH2 0x222 PUSH1 0x4 DUP1 CALLDATASIZE SUB DUP2 ADD SWAP1 PUSH2 0x21D SWAP2 SWAP1 PUSH2 0x174A JUMP JUMPDEST PUSH2 0x550 JUMP JUMPDEST STOP JUMPDEST PUSH2 0x22C PUSH2 0xBF1 JUMP JUMPDEST PUSH1 0x40 MLOAD PUSH2 0x239 SWAP2 SWAP1 PUSH2 0x1DCA JUMP JUMPDEST PUSH1 0x40 MLOAD DUP1 SWAP2 SUB SWAP1 RETURN JUMPDEST PUSH2 0x25C PUSH1 0x4 DUP1 CALLDATASIZE SUB DUP2 ADD SWAP1 PUSH2 0x257 SWAP2 SWAP1 PUSH2 0x1868 JUMP JUMPDEST PUSH2 0xC15 JUMP JUMPDEST PUSH1 0x40 MLOAD PUSH2 0x269 SWAP2 SWAP1 PUSH2 0x1F77 JUMP JUMPDEST PUSH1 0x40 MLOAD DUP1 SWAP2 SUB SWAP1 RETURN JUMPDEST PUSH2 0x27A PUSH2 0xC3D JUMP JUMPDEST STOP JUMPDEST PUSH2 0x296 PUSH1 0x4 DUP1 CALLDATASIZE SUB DUP2 ADD SWAP1 PUSH2 0x291 SWAP2 SWAP1 PUSH2 0x1803 JUMP JUMPDEST PUSH2 0xC7A JUMP JUMPDEST PUSH1 0x40 MLOAD PUSH2 0x2A3 SWAP2 SWAP1 PUSH2 0x1DAF JUMP JUMPDEST PUSH1 0x40 MLOAD DUP1 SWAP2 SUB SWAP1 RETURN JUMPDEST PUSH2 0x2B4 PUSH2 0xCE5 JUMP JUMPDEST PUSH1 0x40 MLOAD PUSH2 0x2C1 SWAP2 SWAP1 PUSH2 0x1DCA JUMP JUMPDEST PUSH1 0x40 MLOAD DUP1 SWAP2 SUB SWAP1 RETURN JUMPDEST PUSH2 0x2E4 PUSH1 0x4 DUP1 CALLDATASIZE SUB DUP2 ADD SWAP1 PUSH2 0x2DF SWAP2 SWAP1 PUSH2 0x18EA JUMP JUMPDEST PUSH2 0xCEC JUMP JUMPDEST STOP JUMPDEST PUSH2 0x300 PUSH1 0x4 DUP1 CALLDATASIZE SUB DUP2 ADD SWAP1 PUSH2 0x2FB SWAP2 SWAP1 PUSH2 0x1803 JUMP JUMPDEST PUSH2 0xD46 JUMP JUMPDEST STOP JUMPDEST PUSH2 0x30A PUSH2 0xD6F JUMP JUMPDEST PUSH1 0x40 MLOAD PUSH2 0x317 SWAP2 SWAP1 PUSH2 0x1DCA JUMP JUMPDEST PUSH1 0x40 MLOAD DUP1 SWAP2 SUB SWAP1 RETURN JUMPDEST PUSH1 0x0 PUSH32 0x7965DB0B00000000000000000000000000000000000000000000000000000000 PUSH28 0xFFFFFFFFFFFFFFFFFFFFFFFFFFFFFFFFFFFFFFFFFFFFFFFFFFFFFFFF NOT AND DUP3 PUSH28 0xFFFFFFFFFFFFFFFFFFFFFFFFFFFFFFFFFFFFFFFFFFFFFFFFFFFFFFFF NOT AND EQ DUP1 PUSH2 0x393 JUMPI POP PUSH2 0x392 DUP3 PUSH2 0xD93 JUMP JUMPDEST JUMPDEST SWAP1 POP SWAP2 SWAP1 POP JUMP JUMPDEST PUSH1 0x0 PUSH1 0x1 PUSH1 0x0 DUP4 DUP2 MSTORE PUSH1 0x20 ADD SWAP1 DUP2 MSTORE PUSH1 0x20 ADD PUSH1 0x0 KECCAK256 PUSH1 0x1 ADD SLOAD SWAP1 POP SWAP2 SWAP1 POP JUMP JUMPDEST PUSH2 0x3C3 DUP3 PUSH2 0x39A JUMP JUMPDEST PUSH2 0x3D4 DUP2 PUSH2 0x3CF PUSH2 0xDFD JUMP JUMPDEST PUSH2 0xE05 JUMP JUMPDEST PUSH2 0x3DE DUP4 DUP4 PUSH2 0xEA2 JUMP JUMPDEST POP POP POP JUMP JUMPDEST PUSH32 0xA49807205CE4D355092EF5A8A18F56E8913CF4A201FBE287825B095693C21775 PUSH2 0x415 DUP2 PUSH2 0x410 PUSH2 0xDFD JUMP JUMPDEST PUSH2 0xE05 JUMP JUMPDEST PUSH1 0x0 PUSH1 0x3 DUP4 PUSH1 0x40 MLOAD PUSH2 0x427 SWAP2 SWAP1 PUSH2 0x1CE1 JUMP JUMPDEST SWAP1 DUP2 MSTORE PUSH1 0x20 ADD PUSH1 0x40 MLOAD DUP1 SWAP2 SUB SWAP1 KECCAK256 DUP2 SWAP1 SSTORE POP POP POP JUMP JUMPDEST PUSH2 0x445 PUSH2 0xDFD JUMP JUMPDEST PUSH20 0xFFFFFFFFFFFFFFFFFFFFFFFFFFFFFFFFFFFFFFFF AND DUP2 PUSH20 0xFFFFFFFFFFFFFFFFFFFFFFFFFFFFFFFFFFFFFFFF AND EQ PUSH2 0x4B2 JUMPI PUSH1 0x40 MLOAD PUSH32 0x8C379A000000000000000000000000000000000000000000000000000000000 DUP2 MSTORE PUSH1 0x4 ADD PUSH2 0x4A9 SWAP1 PUSH2 0x1F57 JUMP JUMPDEST PUSH1 0x40 MLOAD DUP1 SWAP2 SUB SWAP1 REVERT JUMPDEST PUSH2 0x4BC DUP3 DUP3 PUSH2 0xF82 JUMP JUMPDEST POP POP JUMP JUMPDEST PUSH32 0x65D7A28E3265B37A6474929F336521B332C1681B933F6CB9F3376673440D862A PUSH2 0x4F2 DUP2 PUSH2 0x4ED PUSH2 0xDFD JUMP JUMPDEST PUSH2 0xE05 JUMP JUMPDEST PUSH2 0x4FA PUSH2 0x1064 JUMP JUMPDEST POP JUMP JUMPDEST PUSH32 0xA49807205CE4D355092EF5A8A18F56E8913CF4A201FBE287825B095693C21775 PUSH2 0x52F DUP2 PUSH2 0x52A PUSH2 0xDFD JUMP JUMPDEST PUSH2 0xE05 JUMP JUMPDEST DUP2 PUSH1 0x2 DUP2 SWAP1 SSTORE POP POP POP JUMP JUMPDEST PUSH1 0x0 DUP1 PUSH1 0x0 SWAP1 SLOAD SWAP1 PUSH2 0x100 EXP SWAP1 DIV PUSH1 0xFF AND SWAP1 POP SWAP1 JUMP JUMPDEST PUSH2 0x558 PUSH2 0x53A JUMP JUMPDEST ISZERO PUSH2 0x598 JUMPI PUSH1 0x40 MLOAD PUSH32 0x8C379A000000000000000000000000000000000000000000000000000000000 DUP2 MSTORE PUSH1 0x4 ADD PUSH2 0x58F SWAP1 PUSH2 0x1EB7 JUMP JUMPDEST PUSH1 0x40 MLOAD DUP1 SWAP2 SUB SWAP1 REVERT JUMPDEST PUSH1 0x0 PUSH20 0xFFFFFFFFFFFFFFFFFFFFFFFFFFFFFFFFFFFFFFFF AND DUP4 PUSH20 0xFFFFFFFFFFFFFFFFFFFFFFFFFFFFFFFFFFFFFFFF AND EQ ISZERO PUSH2 0x608 JUMPI PUSH1 0x40 MLOAD PUSH32 0x8C379A000000000000000000000000000000000000000000000000000000000 DUP2 MSTORE PUSH1 0x4 ADD PUSH2 0x5FF SWAP1 PUSH2 0x1EF7 JUMP JUMPDEST PUSH1 0x40 MLOAD DUP1 SWAP2 SUB SWAP1 REVERT JUMPDEST PUSH1 0x0 PUSH1 0xF8 SHL DUP3 PUSH1 0x0 PUSH1 0x20 DUP2 LT PUSH2 0x647 JUMPI PUSH32 0x4E487B7100000000000000000000000000000000000000000000000000000000 PUSH1 0x0 MSTORE PUSH1 0x32 PUSH1 0x4 MSTORE PUSH1 0x24 PUSH1 0x0 REVERT JUMPDEST BYTE PUSH1 0xF8 SHL PUSH31 0xFFFFFFFFFFFFFFFFFFFFFFFFFFFFFFFFFFFFFFFFFFFFFFFFFFFFFFFFFFFFFF NOT AND EQ ISZERO PUSH2 0x6AE JUMPI PUSH1 0x40 MLOAD PUSH32 0x8C379A000000000000000000000000000000000000000000000000000000000 DUP2 MSTORE PUSH1 0x4 ADD PUSH2 0x6A5 SWAP1 PUSH2 0x1F37 JUMP JUMPDEST PUSH1 0x40 MLOAD DUP1 SWAP2 SUB SWAP1 REVERT JUMPDEST PUSH1 0x41 DUP2 MLOAD EQ PUSH2 0x6F2 JUMPI PUSH1 0x40 MLOAD PUSH32 0x8C379A000000000000000000000000000000000000000000000000000000000 DUP2 MSTORE PUSH1 0x4 ADD PUSH2 0x6E9 SWAP1 PUSH2 0x1E97 JUMP JUMPDEST PUSH1 0x40 MLOAD DUP1 SWAP2 SUB SWAP1 REVERT JUMPDEST PUSH1 0x0 PUSH32 0x0 PUSH20 0xFFFFFFFFFFFFFFFFFFFFFFFFFFFFFFFFFFFFFFFF AND PUSH4 0x19045A25 DUP5 DUP5 PUSH1 0x40 MLOAD DUP4 PUSH4 0xFFFFFFFF AND PUSH1 0xE0 SHL DUP2 MSTORE PUSH1 0x4 ADD PUSH2 0x74F SWAP3 SWAP2 SWAP1 PUSH2 0x1DE5 JUMP JUMPDEST PUSH1 0x0 PUSH1 0x40 MLOAD DUP1 DUP4 SUB DUP2 DUP7 DUP1 EXTCODESIZE ISZERO DUP1 ISZERO PUSH2 0x767 JUMPI PUSH1 0x0 DUP1 REVERT JUMPDEST POP GAS STATICCALL ISZERO DUP1 ISZERO PUSH2 0x77B JUMPI RETURNDATASIZE PUSH1 0x0 DUP1 RETURNDATACOPY RETURNDATASIZE PUSH1 0x0 REVERT JUMPDEST POP POP POP POP PUSH1 0x40 MLOAD RETURNDATASIZE PUSH1 0x0 DUP3 RETURNDATACOPY RETURNDATASIZE PUSH1 0x1F NOT PUSH1 0x1F DUP3 ADD AND DUP3 ADD DUP1 PUSH1 0x40 MSTORE POP DUP2 ADD SWAP1 PUSH2 0x7A4 SWAP2 SWAP1 PUSH2 0x18A9 JUMP JUMPDEST SWAP1 POP PUSH1 0x21 DUP2 MLOAD EQ PUSH2 0x7EA JUMPI PUSH1 0x40 MLOAD PUSH32 0x8C379A000000000000000000000000000000000000000000000000000000000 DUP2 MSTORE PUSH1 0x4 ADD PUSH2 0x7E1 SWAP1 PUSH2 0x1ED7 JUMP JUMPDEST PUSH1 0x40 MLOAD DUP1 SWAP2 SUB SWAP1 REVERT JUMPDEST PUSH1 0x0 PUSH1 0x2 DUP3 PUSH1 0x40 MLOAD PUSH2 0x7FC SWAP2 SWAP1 PUSH2 0x1CE1 JUMP JUMPDEST PUSH1 0x20 PUSH1 0x40 MLOAD DUP1 DUP4 SUB DUP2 DUP6 GAS STATICCALL ISZERO DUP1 ISZERO PUSH2 0x819 JUMPI RETURNDATASIZE PUSH1 0x0 DUP1 RETURNDATACOPY RETURNDATASIZE PUSH1 0x0 REVERT JUMPDEST POP POP POP PUSH1 0x40 MLOAD RETURNDATASIZE PUSH1 0x1F NOT PUSH1 0x1F DUP3 ADD AND DUP3 ADD DUP1 PUSH1 0x40 MSTORE POP DUP2 ADD SWAP1 PUSH2 0x83C SWAP2 SWAP1 PUSH2 0x17DA JUMP JUMPDEST SWAP1 POP PUSH1 0x0 PUSH1 0x3 DUP3 PUSH1 0x40 MLOAD PUSH1 0x20 ADD PUSH2 0x853 SWAP2 SWAP1 PUSH2 0x1CC6 JUMP JUMPDEST PUSH1 0x40 MLOAD PUSH1 0x20 DUP2 DUP4 SUB SUB DUP2 MSTORE SWAP1 PUSH1 0x40 MSTORE PUSH1 0x40 MLOAD PUSH2 0x86F SWAP2 SWAP1 PUSH2 0x1CE1 JUMP JUMPDEST PUSH1 0x20 PUSH1 0x40 MLOAD DUP1 DUP4 SUB DUP2 DUP6 GAS STATICCALL ISZERO DUP1 ISZERO PUSH2 0x88C JUMPI RETURNDATASIZE PUSH1 0x0 DUP1 RETURNDATACOPY RETURNDATASIZE PUSH1 0x0 REVERT JUMPDEST POP POP POP PUSH1 0x40 MLOAD MLOAD PUSH1 0x60 SHL PUSH1 0x40 MLOAD PUSH1 0x20 ADD PUSH2 0x8A6 SWAP2 SWAP1 PUSH2 0x1CAB JUMP JUMPDEST PUSH1 0x40 MLOAD PUSH1 0x20 DUP2 DUP4 SUB SUB DUP2 MSTORE SWAP1 PUSH1 0x40 MSTORE SWAP1 POP PUSH1 0x0 PUSH32 0x0 DUP3 PUSH1 0x40 MLOAD PUSH1 0x20 ADD PUSH2 0x8EC SWAP3 SWAP2 SWAP1 PUSH2 0x1C83 JUMP JUMPDEST PUSH1 0x40 MLOAD PUSH1 0x20 DUP2 DUP4 SUB SUB DUP2 MSTORE SWAP1 PUSH1 0x40 MSTORE SWAP1 POP PUSH1 0x0 PUSH1 0x2 DUP1 DUP4 PUSH1 0x40 MLOAD PUSH2 0x910 SWAP2 SWAP1 PUSH2 0x1CE1 JUMP JUMPDEST PUSH1 0x20 PUSH1 0x40 MLOAD DUP1 DUP4 SUB DUP2 DUP6 GAS STATICCALL ISZERO DUP1 ISZERO PUSH2 0x92D JUMPI RETURNDATASIZE PUSH1 0x0 DUP1 RETURNDATACOPY RETURNDATASIZE PUSH1 0x0 REVERT JUMPDEST POP POP POP PUSH1 0x40 MLOAD RETURNDATASIZE PUSH1 0x1F NOT PUSH1 0x1F DUP3 ADD AND DUP3 ADD DUP1 PUSH1 0x40 MSTORE POP DUP2 ADD SWAP1 PUSH2 0x950 SWAP2 SWAP1 PUSH2 0x17DA JUMP JUMPDEST PUSH1 0x40 MLOAD PUSH1 0x20 ADD PUSH2 0x960 SWAP2 SWAP1 PUSH2 0x1CC6 JUMP JUMPDEST PUSH1 0x40 MLOAD PUSH1 0x20 DUP2 DUP4 SUB SUB DUP2 MSTORE SWAP1 PUSH1 0x40 MSTORE PUSH1 0x40 MLOAD PUSH2 0x97C SWAP2 SWAP1 PUSH2 0x1CE1 JUMP JUMPDEST PUSH1 0x20 PUSH1 0x40 MLOAD DUP1 DUP4 SUB DUP2 DUP6 GAS STATICCALL ISZERO DUP1 ISZERO PUSH2 0x999 JUMPI RETURNDATASIZE PUSH1 0x0 DUP1 RETURNDATACOPY RETURNDATASIZE PUSH1 0x0 REVERT JUMPDEST POP POP POP PUSH1 0x40 MLOAD RETURNDATASIZE PUSH1 0x1F NOT PUSH1 0x1F DUP3 ADD AND DUP3 ADD DUP1 PUSH1 0x40 MSTORE POP DUP2 ADD SWAP1 PUSH2 0x9BC SWAP2 SWAP1 PUSH2 0x17DA JUMP JUMPDEST PUSH1 0x40 MLOAD PUSH1 0x20 ADD PUSH2 0x9CC SWAP2 SWAP1 PUSH2 0x1CC6 JUMP JUMPDEST PUSH1 0x40 MLOAD PUSH1 0x20 DUP2 DUP4 SUB SUB DUP2 MSTORE SWAP1 PUSH1 0x40 MSTORE SWAP1 POP PUSH1 0x0 PUSH2 0x9EC DUP3 PUSH1 0x0 PUSH1 0x4 PUSH2 0x1105 JUMP JUMPDEST SWAP1 POP PUSH1 0x0 DUP4 DUP3 PUSH1 0x40 MLOAD PUSH1 0x20 ADD PUSH2 0xA03 SWAP3 SWAP2 SWAP1 PUSH2 0x1CF8 JUMP JUMPDEST PUSH1 0x40 MLOAD PUSH1 0x20 DUP2 DUP4 SUB SUB DUP2 MSTORE SWAP1 PUSH1 0x40 MSTORE SWAP1 POP PUSH1 0x0 PUSH1 0x3 DUP3 PUSH1 0x40 MLOAD PUSH2 0xA26 SWAP2 SWAP1 PUSH2 0x1CE1 JUMP JUMPDEST SWAP1 DUP2 MSTORE PUSH1 0x20 ADD PUSH1 0x40 MLOAD DUP1 SWAP2 SUB SWAP1 KECCAK256 SLOAD SWAP1 POP PUSH1 0x0 DUP2 GT PUSH2 0xA7A JUMPI PUSH1 0x40 MLOAD PUSH32 0x8C379A000000000000000000000000000000000000000000000000000000000 DUP2 MSTORE PUSH1 0x4 ADD PUSH2 0xA71 SWAP1 PUSH2 0x1F17 JUMP JUMPDEST PUSH1 0x40 MLOAD DUP1 SWAP2 SUB SWAP1 REVERT JUMPDEST PUSH1 0x0 PUSH1 0x3 DUP4 PUSH1 0x40 MLOAD PUSH2 0xA8C SWAP2 SWAP1 PUSH2 0x1CE1 JUMP JUMPDEST SWAP1 DUP2 MSTORE PUSH1 0x20 ADD PUSH1 0x40 MLOAD DUP1 SWAP2 SUB SWAP1 KECCAK256 DUP2 SWAP1 SSTORE POP PUSH32 0x0 PUSH20 0xFFFFFFFFFFFFFFFFFFFFFFFFFFFFFFFFFFFFFFFF AND PUSH4 0x40C10F19 DUP13 DUP4 PUSH1 0x40 MLOAD DUP4 PUSH4 0xFFFFFFFF AND PUSH1 0xE0 SHL DUP2 MSTORE PUSH1 0x4 ADD PUSH2 0xAF9 SWAP3 SWAP2 SWAP1 PUSH2 0x1D86 JUMP JUMPDEST PUSH1 0x0 PUSH1 0x40 MLOAD DUP1 DUP4 SUB DUP2 DUP7 DUP1 EXTCODESIZE ISZERO DUP1 ISZERO PUSH2 0xB11 JUMPI PUSH1 0x0 DUP1 REVERT JUMPDEST POP GAS STATICCALL ISZERO DUP1 ISZERO PUSH2 0xB25 JUMPI RETURNDATASIZE PUSH1 0x0 DUP1 RETURNDATACOPY RETURNDATASIZE PUSH1 0x0 REVERT JUMPDEST POP POP POP POP PUSH1 0x0 PUSH1 0x2 SLOAD GT ISZERO PUSH2 0xBE4 JUMPI PUSH1 0x0 DUP12 PUSH20 0xFFFFFFFFFFFFFFFFFFFFFFFFFFFFFFFFFFFFFFFF AND PUSH1 0x2 SLOAD PUSH1 0x40 MLOAD PUSH2 0xB5C SWAP1 PUSH2 0x1D1C JUMP JUMPDEST PUSH1 0x0 PUSH1 0x40 MLOAD DUP1 DUP4 SUB DUP2 DUP6 DUP8 GAS CALL SWAP3 POP POP POP RETURNDATASIZE DUP1 PUSH1 0x0 DUP2 EQ PUSH2 0xB99 JUMPI PUSH1 0x40 MLOAD SWAP2 POP PUSH1 0x1F NOT PUSH1 0x3F RETURNDATASIZE ADD AND DUP3 ADD PUSH1 0x40 MSTORE RETURNDATASIZE DUP3 MSTORE RETURNDATASIZE PUSH1 0x0 PUSH1 0x20 DUP5 ADD RETURNDATACOPY PUSH2 0xB9E JUMP JUMPDEST PUSH1 0x60 SWAP2 POP JUMPDEST POP POP SWAP1 POP DUP1 PUSH2 0xBE2 JUMPI PUSH1 0x40 MLOAD PUSH32 0x8C379A000000000000000000000000000000000000000000000000000000000 DUP2 MSTORE PUSH1 0x4 ADD PUSH2 0xBD9 SWAP1 PUSH2 0x1E77 JUMP JUMPDEST PUSH1 0x40 MLOAD DUP1 SWAP2 SUB SWAP1 REVERT JUMPDEST POP JUMPDEST POP POP POP POP POP POP POP POP POP POP POP JUMP JUMPDEST PUSH32 0xA49807205CE4D355092EF5A8A18F56E8913CF4A201FBE287825B095693C21775 DUP2 JUMP JUMPDEST PUSH1 0x0 PUSH1 0x3 DUP3 PUSH1 0x40 MLOAD PUSH2 0xC27 SWAP2 SWAP1 PUSH2 0x1CE1 JUMP JUMPDEST SWAP1 DUP2 MSTORE PUSH1 0x20 ADD PUSH1 0x40 MLOAD DUP1 SWAP2 SUB SWAP1 KECCAK256 SLOAD SWAP1 POP SWAP2 SWAP1 POP JUMP JUMPDEST PUSH32 0x65D7A28E3265B37A6474929F336521B332C1681B933F6CB9F3376673440D862A PUSH2 0xC6F DUP2 PUSH2 0xC6A PUSH2 0xDFD JUMP JUMPDEST PUSH2 0xE05 JUMP JUMPDEST PUSH2 0xC77 PUSH2 0x1275 JUMP JUMPDEST POP JUMP JUMPDEST PUSH1 0x0 PUSH1 0x1 PUSH1 0x0 DUP5 DUP2 MSTORE PUSH1 0x20 ADD SWAP1 DUP2 MSTORE PUSH1 0x20 ADD PUSH1 0x0 KECCAK256 PUSH1 0x0 ADD PUSH1 0x0 DUP4 PUSH20 0xFFFFFFFFFFFFFFFFFFFFFFFFFFFFFFFFFFFFFFFF AND PUSH20 0xFFFFFFFFFFFFFFFFFFFFFFFFFFFFFFFFFFFFFFFF AND DUP2 MSTORE PUSH1 0x20 ADD SWAP1 DUP2 MSTORE PUSH1 0x20 ADD PUSH1 0x0 KECCAK256 PUSH1 0x0 SWAP1 SLOAD SWAP1 PUSH2 0x100 EXP SWAP1 DIV PUSH1 0xFF AND SWAP1 POP SWAP3 SWAP2 POP POP JUMP JUMPDEST PUSH1 0x0 DUP1 SHL DUP2 JUMP JUMPDEST PUSH32 0xA49807205CE4D355092EF5A8A18F56E8913CF4A201FBE287825B095693C21775 PUSH2 0xD1E DUP2 PUSH2 0xD19 PUSH2 0xDFD JUMP JUMPDEST PUSH2 0xE05 JUMP JUMPDEST DUP2 PUSH1 0x3 DUP5 PUSH1 0x40 MLOAD PUSH2 0xD2F SWAP2 SWAP1 PUSH2 0x1CE1 JUMP JUMPDEST SWAP1 DUP2 MSTORE PUSH1 0x20 ADD PUSH1 0x40 MLOAD DUP1 SWAP2 SUB SWAP1 KECCAK256 DUP2 SWAP1 SSTORE POP POP POP POP JUMP JUMPDEST PUSH2 0xD4F DUP3 PUSH2 0x39A JUMP JUMPDEST PUSH2 0xD60 DUP2 PUSH2 0xD5B PUSH2 0xDFD JUMP JUMPDEST PUSH2 0xE05 JUMP JUMPDEST PUSH2 0xD6A DUP4 DUP4 PUSH2 0xF82 JUMP JUMPDEST POP POP POP JUMP JUMPDEST PUSH32 0x65D7A28E3265B37A6474929F336521B332C1681B933F6CB9F3376673440D862A DUP2 JUMP JUMPDEST PUSH1 0x0 PUSH32 0x1FFC9A700000000000000000000000000000000000000000000000000000000 PUSH28 0xFFFFFFFFFFFFFFFFFFFFFFFFFFFFFFFFFFFFFFFFFFFFFFFFFFFFFFFF NOT AND DUP3 PUSH28 0xFFFFFFFFFFFFFFFFFFFFFFFFFFFFFFFFFFFFFFFFFFFFFFFFFFFFFFFF NOT AND EQ SWAP1 POP SWAP2 SWAP1 POP JUMP JUMPDEST PUSH1 0x0 CALLER SWAP1 POP SWAP1 JUMP JUMPDEST PUSH2 0xE0F DUP3 DUP3 PUSH2 0xC7A JUMP JUMPDEST PUSH2 0xE9E JUMPI PUSH2 0xE34 DUP2 PUSH20 0xFFFFFFFFFFFFFFFFFFFFFFFFFFFFFFFFFFFFFFFF AND PUSH1 0x14 PUSH2 0x1317 JUMP JUMPDEST PUSH2 0xE42 DUP4 PUSH1 0x0 SHR PUSH1 0x20 PUSH2 0x1317 JUMP JUMPDEST PUSH1 0x40 MLOAD PUSH1 0x20 ADD PUSH2 0xE53 SWAP3 SWAP2 SWAP1 PUSH2 0x1D31 JUMP JUMPDEST PUSH1 0x40 MLOAD PUSH1 0x20 DUP2 DUP4 SUB SUB DUP2 MSTORE SWAP1 PUSH1 0x40 MSTORE PUSH1 0x40 MLOAD PUSH32 0x8C379A000000000000000000000000000000000000000000000000000000000 DUP2 MSTORE PUSH1 0x4 ADD PUSH2 0xE95 SWAP2 SWAP1 PUSH2 0x1E15 JUMP JUMPDEST PUSH1 0x40 MLOAD DUP1 SWAP2 SUB SWAP1 REVERT JUMPDEST POP POP JUMP JUMPDEST PUSH2 0xEAC DUP3 DUP3 PUSH2 0xC7A JUMP JUMPDEST PUSH2 0xF7E JUMPI PUSH1 0x1 DUP1 PUSH1 0x0 DUP5 DUP2 MSTORE PUSH1 0x20 ADD SWAP1 DUP2 MSTORE PUSH1 0x20 ADD PUSH1 0x0 KECCAK256 PUSH1 0x0 ADD PUSH1 0x0 DUP4 PUSH20 0xFFFFFFFFFFFFFFFFFFFFFFFFFFFFFFFFFFFFFFFF AND PUSH20 0xFFFFFFFFFFFFFFFFFFFFFFFFFFFFFFFFFFFFFFFF AND DUP2 MSTORE PUSH1 0x20 ADD SWAP1 DUP2 MSTORE PUSH1 0x20 ADD PUSH1 0x0 KECCAK256 PUSH1 0x0 PUSH2 0x100 EXP DUP2 SLOAD DUP2 PUSH1 0xFF MUL NOT AND SWAP1 DUP4 ISZERO ISZERO MUL OR SWAP1 SSTORE POP PUSH2 0xF23 PUSH2 0xDFD JUMP JUMPDEST PUSH20 0xFFFFFFFFFFFFFFFFFFFFFFFFFFFFFFFFFFFFFFFF AND DUP2 PUSH20 0xFFFFFFFFFFFFFFFFFFFFFFFFFFFFFFFFFFFFFFFF AND DUP4 PUSH32 0x2F8788117E7EFF1D82E926EC794901D17C78024A50270940304540A733656F0D PUSH1 0x40 MLOAD PUSH1 0x40 MLOAD DUP1 SWAP2 SUB SWAP1 LOG4 JUMPDEST POP POP JUMP JUMPDEST PUSH2 0xF8C DUP3 DUP3 PUSH2 0xC7A JUMP JUMPDEST ISZERO PUSH2 0x1060 JUMPI PUSH1 0x0 PUSH1 0x1 PUSH1 0x0 DUP5 DUP2 MSTORE PUSH1 0x20 ADD SWAP1 DUP2 MSTORE PUSH1 0x20 ADD PUSH1 0x0 KECCAK256 PUSH1 0x0 ADD PUSH1 0x0 DUP4 PUSH20 0xFFFFFFFFFFFFFFFFFFFFFFFFFFFFFFFFFFFFFFFF AND PUSH20 0xFFFFFFFFFFFFFFFFFFFFFFFFFFFFFFFFFFFFFFFF AND DUP2 MSTORE PUSH1 0x20 ADD SWAP1 DUP2 MSTORE PUSH1 0x20 ADD PUSH1 0x0 KECCAK256 PUSH1 0x0 PUSH2 0x100 EXP DUP2 SLOAD DUP2 PUSH1 0xFF MUL NOT AND SWAP1 DUP4 ISZERO ISZERO MUL OR SWAP1 SSTORE POP PUSH2 0x1005 PUSH2 0xDFD JUMP JUMPDEST PUSH20 0xFFFFFFFFFFFFFFFFFFFFFFFFFFFFFFFFFFFFFFFF AND DUP2 PUSH20 0xFFFFFFFFFFFFFFFFFFFFFFFFFFFFFFFFFFFFFFFF AND DUP4 PUSH32 0xF6391F5C32D9C69D2A47EA670B442974B53935D1EDC7FD64EB21E047A839171B PUSH1 0x40 MLOAD PUSH1 0x40 MLOAD DUP1 SWAP2 SUB SWAP1 LOG4 JUMPDEST POP POP JUMP JUMPDEST PUSH2 0x106C PUSH2 0x53A JUMP JUMPDEST PUSH2 0x10AB JUMPI PUSH1 0x40 MLOAD PUSH32 0x8C379A000000000000000000000000000000000000000000000000000000000 DUP2 MSTORE PUSH1 0x4 ADD PUSH2 0x10A2 SWAP1 PUSH2 0x1E57 JUMP JUMPDEST PUSH1 0x40 MLOAD DUP1 SWAP2 SUB SWAP1 REVERT JUMPDEST PUSH1 0x0 DUP1 PUSH1 0x0 PUSH2 0x100 EXP DUP2 SLOAD DUP2 PUSH1 0xFF MUL NOT AND SWAP1 DUP4 ISZERO ISZERO MUL OR SWAP1 SSTORE POP PUSH32 0x5DB9EE0A495BF2E6FF9C91A7834C1BA4FDD244A5E8AA4E537BD38AEAE4B073AA PUSH2 0x10EE PUSH2 0xDFD JUMP JUMPDEST PUSH1 0x40 MLOAD PUSH2 0x10FB SWAP2 SWAP1 PUSH2 0x1D6B JUMP JUMPDEST PUSH1 0x40 MLOAD DUP1 SWAP2 SUB SWAP1 LOG1 JUMP JUMPDEST PUSH1 0x60 PUSH1 0x0 DUP4 DUP4 PUSH2 0x1115 SWAP2 SWAP1 PUSH2 0x20E6 JUMP JUMPDEST PUSH8 0xFFFFFFFFFFFFFFFF DUP2 GT ISZERO PUSH2 0x1154 JUMPI PUSH32 0x4E487B7100000000000000000000000000000000000000000000000000000000 PUSH1 0x0 MSTORE PUSH1 0x41 PUSH1 0x4 MSTORE PUSH1 0x24 PUSH1 0x0 REVERT JUMPDEST PUSH1 0x40 MLOAD SWAP1 DUP1 DUP3 MSTORE DUP1 PUSH1 0x1F ADD PUSH1 0x1F NOT AND PUSH1 0x20 ADD DUP3 ADD PUSH1 0x40 MSTORE DUP1 ISZERO PUSH2 0x1186 JUMPI DUP2 PUSH1 0x20 ADD PUSH1 0x1 DUP3 MUL DUP1 CALLDATASIZE DUP4 CALLDATACOPY DUP1 DUP3 ADD SWAP2 POP POP SWAP1 POP JUMPDEST POP SWAP1 POP PUSH1 0x0 JUMPDEST PUSH1 0x1 DUP6 DUP6 PUSH2 0x119A SWAP2 SWAP1 PUSH2 0x20E6 JUMP JUMPDEST PUSH2 0x11A4 SWAP2 SWAP1 PUSH2 0x20E6 JUMP JUMPDEST DUP2 GT PUSH2 0x1269 JUMPI DUP6 DUP2 DUP2 MLOAD DUP2 LT PUSH2 0x11E3 JUMPI PUSH32 0x4E487B7100000000000000000000000000000000000000000000000000000000 PUSH1 0x0 MSTORE PUSH1 0x32 PUSH1 0x4 MSTORE PUSH1 0x24 PUSH1 0x0 REVERT JUMPDEST PUSH1 0x20 ADD ADD MLOAD PUSH1 0xF8 SHR PUSH1 0xF8 SHL DUP3 DUP3 DUP2 MLOAD DUP2 LT PUSH2 0x1227 JUMPI PUSH32 0x4E487B7100000000000000000000000000000000000000000000000000000000 PUSH1 0x0 MSTORE PUSH1 0x32 PUSH1 0x4 MSTORE PUSH1 0x24 PUSH1 0x0 REVERT JUMPDEST PUSH1 0x20 ADD ADD SWAP1 PUSH31 0xFFFFFFFFFFFFFFFFFFFFFFFFFFFFFFFFFFFFFFFFFFFFFFFFFFFFFFFFFFFFFF NOT AND SWAP1 DUP2 PUSH1 0x0 BYTE SWAP1 MSTORE8 POP DUP1 DUP1 PUSH2 0x1261 SWAP1 PUSH2 0x228D JUMP JUMPDEST SWAP2 POP POP PUSH2 0x118C JUMP JUMPDEST POP DUP1 SWAP2 POP POP SWAP4 SWAP3 POP POP POP JUMP JUMPDEST PUSH2 0x127D PUSH2 0x53A JUMP JUMPDEST ISZERO PUSH2 0x12BD JUMPI PUSH1 0x40 MLOAD PUSH32 0x8C379A000000000000000000000000000000000000000000000000000000000 DUP2 MSTORE PUSH1 0x4 ADD PUSH2 0x12B4 SWAP1 PUSH2 0x1EB7 JUMP JUMPDEST PUSH1 0x40 MLOAD DUP1 SWAP2 SUB SWAP1 REVERT JUMPDEST PUSH1 0x1 PUSH1 0x0 DUP1 PUSH2 0x100 EXP DUP2 SLOAD DUP2 PUSH1 0xFF MUL NOT AND SWAP1 DUP4 ISZERO ISZERO MUL OR SWAP1 SSTORE POP PUSH32 0x62E78CEA01BEE320CD4E420270B5EA74000D11B0C9F74754EBDBFC544B05A258 PUSH2 0x1300 PUSH2 0xDFD JUMP JUMPDEST PUSH1 0x40 MLOAD PUSH2 0x130D SWAP2 SWAP1 PUSH2 0x1D6B JUMP JUMPDEST PUSH1 0x40 MLOAD DUP1 SWAP2 SUB SWAP1 LOG1 JUMP JUMPDEST PUSH1 0x60 PUSH1 0x0 PUSH1 0x2 DUP4 PUSH1 0x2 PUSH2 0x132A SWAP2 SWAP1 PUSH2 0x208C JUMP JUMPDEST PUSH2 0x1334 SWAP2 SWAP1 PUSH2 0x2036 JUMP JUMPDEST PUSH8 0xFFFFFFFFFFFFFFFF DUP2 GT ISZERO PUSH2 0x1373 JUMPI PUSH32 0x4E487B7100000000000000000000000000000000000000000000000000000000 PUSH1 0x0 MSTORE PUSH1 0x41 PUSH1 0x4 MSTORE PUSH1 0x24 PUSH1 0x0 REVERT JUMPDEST PUSH1 0x40 MLOAD SWAP1 DUP1 DUP3 MSTORE DUP1 PUSH1 0x1F ADD PUSH1 0x1F NOT AND PUSH1 0x20 ADD DUP3 ADD PUSH1 0x40 MSTORE DUP1 ISZERO PUSH2 0x13A5 JUMPI DUP2 PUSH1 0x20 ADD PUSH1 0x1 DUP3 MUL DUP1 CALLDATASIZE DUP4 CALLDATACOPY DUP1 DUP3 ADD SWAP2 POP POP SWAP1 POP JUMPDEST POP SWAP1 POP PUSH32 0x3000000000000000000000000000000000000000000000000000000000000000 DUP2 PUSH1 0x0 DUP2 MLOAD DUP2 LT PUSH2 0x1403 JUMPI PUSH32 0x4E487B7100000000000000000000000000000000000000000000000000000000 PUSH1 0x0 MSTORE PUSH1 0x32 PUSH1 0x4 MSTORE PUSH1 0x24 PUSH1 0x0 REVERT JUMPDEST PUSH1 0x20 ADD ADD SWAP1 PUSH31 0xFFFFFFFFFFFFFFFFFFFFFFFFFFFFFFFFFFFFFFFFFFFFFFFFFFFFFFFFFFFFFF NOT AND SWAP1 DUP2 PUSH1 0x0 BYTE SWAP1 MSTORE8 POP PUSH32 0x7800000000000000000000000000000000000000000000000000000000000000 DUP2 PUSH1 0x1 DUP2 MLOAD DUP2 LT PUSH2 0x148D JUMPI PUSH32 0x4E487B7100000000000000000000000000000000000000000000000000000000 PUSH1 0x0 MSTORE PUSH1 0x32 PUSH1 0x4 MSTORE PUSH1 0x24 PUSH1 0x0 REVERT JUMPDEST PUSH1 0x20 ADD ADD SWAP1 PUSH31 0xFFFFFFFFFFFFFFFFFFFFFFFFFFFFFFFFFFFFFFFFFFFFFFFFFFFFFFFFFFFFFF NOT AND SWAP1 DUP2 PUSH1 0x0 BYTE SWAP1 MSTORE8 POP PUSH1 0x0 PUSH1 0x1 DUP5 PUSH1 0x2 PUSH2 0x14CD SWAP2 SWAP1 PUSH2 0x208C JUMP JUMPDEST PUSH2 0x14D7 SWAP2 SWAP1 PUSH2 0x2036 JUMP JUMPDEST SWAP1 POP JUMPDEST PUSH1 0x1 DUP2 GT ISZERO PUSH2 0x15C3 JUMPI PUSH32 0x3031323334353637383961626364656600000000000000000000000000000000 PUSH1 0xF DUP7 AND PUSH1 0x10 DUP2 LT PUSH2 0x153F JUMPI PUSH32 0x4E487B7100000000000000000000000000000000000000000000000000000000 PUSH1 0x0 MSTORE PUSH1 0x32 PUSH1 0x4 MSTORE PUSH1 0x24 PUSH1 0x0 REVERT JUMPDEST BYTE PUSH1 0xF8 SHL DUP3 DUP3 DUP2 MLOAD DUP2 LT PUSH2 0x157C JUMPI PUSH32 0x4E487B7100000000000000000000000000000000000000000000000000000000 PUSH1 0x0 MSTORE PUSH1 0x32 PUSH1 0x4 MSTORE PUSH1 0x24 PUSH1 0x0 REVERT JUMPDEST PUSH1 0x20 ADD ADD SWAP1 PUSH31 0xFFFFFFFFFFFFFFFFFFFFFFFFFFFFFFFFFFFFFFFFFFFFFFFFFFFFFFFFFFFFFF NOT AND SWAP1 DUP2 PUSH1 0x0 BYTE SWAP1 MSTORE8 POP PUSH1 0x4 DUP6 SWAP1 SHR SWAP5 POP DUP1 PUSH2 0x15BC SWAP1 PUSH2 0x2232 JUMP JUMPDEST SWAP1 POP PUSH2 0x14DA JUMP JUMPDEST POP PUSH1 0x0 DUP5 EQ PUSH2 0x1607 JUMPI PUSH1 0x40 MLOAD PUSH32 0x8C379A000000000000000000000000000000000000000000000000000000000 DUP2 MSTORE PUSH1 0x4 ADD PUSH2 0x15FE SWAP1 PUSH2 0x1E37 JUMP JUMPDEST PUSH1 0x40 MLOAD DUP1 SWAP2 SUB SWAP1 REVERT JUMPDEST DUP1 SWAP2 POP POP SWAP3 SWAP2 POP POP JUMP JUMPDEST PUSH1 0x0 PUSH2 0x1624 PUSH2 0x161F DUP5 PUSH2 0x1FB7 JUMP JUMPDEST PUSH2 0x1F92 JUMP JUMPDEST SWAP1 POP DUP3 DUP2 MSTORE PUSH1 0x20 DUP2 ADD DUP5 DUP5 DUP5 ADD GT ISZERO PUSH2 0x163C JUMPI PUSH1 0x0 DUP1 REVERT JUMPDEST PUSH2 0x1647 DUP5 DUP3 DUP6 PUSH2 0x21F0 JUMP JUMPDEST POP SWAP4 SWAP3 POP POP POP JUMP JUMPDEST PUSH1 0x0 PUSH2 0x1662 PUSH2 0x165D DUP5 PUSH2 0x1FB7 JUMP JUMPDEST PUSH2 0x1F92 JUMP JUMPDEST SWAP1 POP DUP3 DUP2 MSTORE PUSH1 0x20 DUP2 ADD DUP5 DUP5 DUP5 ADD GT ISZERO PUSH2 0x167A JUMPI PUSH1 0x0 DUP1 REVERT JUMPDEST PUSH2 0x1685 DUP5 DUP3 DUP6 PUSH2 0x21FF JUMP JUMPDEST POP SWAP4 SWAP3 POP POP POP JUMP JUMPDEST PUSH1 0x0 DUP2 CALLDATALOAD SWAP1 POP PUSH2 0x169C DUP2 PUSH2 0x265C JUMP JUMPDEST SWAP3 SWAP2 POP POP JUMP JUMPDEST PUSH1 0x0 DUP2 CALLDATALOAD SWAP1 POP PUSH2 0x16B1 DUP2 PUSH2 0x2673 JUMP JUMPDEST SWAP3 SWAP2 POP POP JUMP JUMPDEST PUSH1 0x0 DUP2 MLOAD SWAP1 POP PUSH2 0x16C6 DUP2 PUSH2 0x2673 JUMP JUMPDEST SWAP3 SWAP2 POP POP JUMP JUMPDEST PUSH1 0x0 DUP2 CALLDATALOAD SWAP1 POP PUSH2 0x16DB DUP2 PUSH2 0x268A JUMP JUMPDEST SWAP3 SWAP2 POP POP JUMP JUMPDEST PUSH1 0x0 DUP3 PUSH1 0x1F DUP4 ADD SLT PUSH2 0x16F2 JUMPI PUSH1 0x0 DUP1 REVERT JUMPDEST DUP2 CALLDATALOAD PUSH2 0x1702 DUP5 DUP3 PUSH1 0x20 DUP7 ADD PUSH2 0x1611 JUMP JUMPDEST SWAP2 POP POP SWAP3 SWAP2 POP POP JUMP JUMPDEST PUSH1 0x0 DUP3 PUSH1 0x1F DUP4 ADD SLT PUSH2 0x171C JUMPI PUSH1 0x0 DUP1 REVERT JUMPDEST DUP2 MLOAD PUSH2 0x172C DUP5 DUP3 PUSH1 0x20 DUP7 ADD PUSH2 0x164F JUMP JUMPDEST SWAP2 POP POP SWAP3 SWAP2 POP POP JUMP JUMPDEST PUSH1 0x0 DUP2 CALLDATALOAD SWAP1 POP PUSH2 0x1744 DUP2 PUSH2 0x26A1 JUMP JUMPDEST SWAP3 SWAP2 POP POP JUMP JUMPDEST PUSH1 0x0 DUP1 PUSH1 0x0 PUSH1 0x60 DUP5 DUP7 SUB SLT ISZERO PUSH2 0x175F JUMPI PUSH1 0x0 DUP1 REVERT JUMPDEST PUSH1 0x0 PUSH2 0x176D DUP7 DUP3 DUP8 ADD PUSH2 0x168D JUMP JUMPDEST SWAP4 POP POP PUSH1 0x20 PUSH2 0x177E DUP7 DUP3 DUP8 ADD PUSH2 0x16A2 JUMP JUMPDEST SWAP3 POP POP PUSH1 0x40 DUP5 ADD CALLDATALOAD PUSH8 0xFFFFFFFFFFFFFFFF DUP2 GT ISZERO PUSH2 0x179B JUMPI PUSH1 0x0 DUP1 REVERT JUMPDEST PUSH2 0x17A7 DUP7 DUP3 DUP8 ADD PUSH2 0x16E1 JUMP JUMPDEST SWAP2 POP POP SWAP3 POP SWAP3 POP SWAP3 JUMP JUMPDEST PUSH1 0x0 PUSH1 0x20 DUP3 DUP5 SUB SLT ISZERO PUSH2 0x17C3 JUMPI PUSH1 0x0 DUP1 REVERT JUMPDEST PUSH1 0x0 PUSH2 0x17D1 DUP5 DUP3 DUP6 ADD PUSH2 0x16A2 JUMP JUMPDEST SWAP2 POP POP SWAP3 SWAP2 POP POP JUMP JUMPDEST PUSH1 0x0 PUSH1 0x20 DUP3 DUP5 SUB SLT ISZERO PUSH2 0x17EC JUMPI PUSH1 0x0 DUP1 REVERT JUMPDEST PUSH1 0x0 PUSH2 0x17FA DUP5 DUP3 DUP6 ADD PUSH2 0x16B7 JUMP JUMPDEST SWAP2 POP POP SWAP3 SWAP2 POP POP JUMP JUMPDEST PUSH1 0x0 DUP1 PUSH1 0x40 DUP4 DUP6 SUB SLT ISZERO PUSH2 0x1816 JUMPI PUSH1 0x0 DUP1 REVERT JUMPDEST PUSH1 0x0 PUSH2 0x1824 DUP6 DUP3 DUP7 ADD PUSH2 0x16A2 JUMP JUMPDEST SWAP3 POP POP PUSH1 0x20 PUSH2 0x1835 DUP6 DUP3 DUP7 ADD PUSH2 0x168D JUMP JUMPDEST SWAP2 POP POP SWAP3 POP SWAP3 SWAP1 POP JUMP JUMPDEST PUSH1 0x0 PUSH1 0x20 DUP3 DUP5 SUB SLT ISZERO PUSH2 0x1851 JUMPI PUSH1 0x0 DUP1 REVERT JUMPDEST PUSH1 0x0 PUSH2 0x185F DUP5 DUP3 DUP6 ADD PUSH2 0x16CC JUMP JUMPDEST SWAP2 POP POP SWAP3 SWAP2 POP POP JUMP JUMPDEST PUSH1 0x0 PUSH1 0x20 DUP3 DUP5 SUB SLT ISZERO PUSH2 0x187A JUMPI PUSH1 0x0 DUP1 REVERT JUMPDEST PUSH1 0x0 DUP3 ADD CALLDATALOAD PUSH8 0xFFFFFFFFFFFFFFFF DUP2 GT ISZERO PUSH2 0x1894 JUMPI PUSH1 0x0 DUP1 REVERT JUMPDEST PUSH2 0x18A0 DUP5 DUP3 DUP6 ADD PUSH2 0x16E1 JUMP JUMPDEST SWAP2 POP POP SWAP3 SWAP2 POP POP JUMP JUMPDEST PUSH1 0x0 PUSH1 0x20 DUP3 DUP5 SUB SLT ISZERO PUSH2 0x18BB JUMPI PUSH1 0x0 DUP1 REVERT JUMPDEST PUSH1 0x0 DUP3 ADD MLOAD PUSH8 0xFFFFFFFFFFFFFFFF DUP2 GT ISZERO PUSH2 0x18D5 JUMPI PUSH1 0x0 DUP1 REVERT JUMPDEST PUSH2 0x18E1 DUP5 DUP3 DUP6 ADD PUSH2 0x170B JUMP JUMPDEST SWAP2 POP POP SWAP3 SWAP2 POP POP JUMP JUMPDEST PUSH1 0x0 DUP1 PUSH1 0x40 DUP4 DUP6 SUB SLT ISZERO PUSH2 0x18FD JUMPI PUSH1 0x0 DUP1 REVERT JUMPDEST PUSH1 0x0 DUP4 ADD CALLDATALOAD PUSH8 0xFFFFFFFFFFFFFFFF DUP2 GT ISZERO PUSH2 0x1917 JUMPI PUSH1 0x0 DUP1 REVERT JUMPDEST PUSH2 0x1923 DUP6 DUP3 DUP7 ADD PUSH2 0x16E1 JUMP JUMPDEST SWAP3 POP POP PUSH1 0x20 PUSH2 0x1934 DUP6 DUP3 DUP7 ADD PUSH2 0x1735 JUMP JUMPDEST SWAP2 POP POP SWAP3 POP SWAP3 SWAP1 POP JUMP JUMPDEST PUSH1 0x0 PUSH1 0x20 DUP3 DUP5 SUB SLT ISZERO PUSH2 0x1950 JUMPI PUSH1 0x0 DUP1 REVERT JUMPDEST PUSH1 0x0 PUSH2 0x195E DUP5 DUP3 DUP6 ADD PUSH2 0x1735 JUMP JUMPDEST SWAP2 POP POP SWAP3 SWAP2 POP POP JUMP JUMPDEST PUSH2 0x1970 DUP2 PUSH2 0x211A JUMP JUMPDEST DUP3 MSTORE POP POP JUMP JUMPDEST PUSH2 0x197F DUP2 PUSH2 0x212C JUMP JUMPDEST DUP3 MSTORE POP POP JUMP JUMPDEST PUSH2 0x1996 PUSH2 0x1991 DUP3 PUSH2 0x2138 JUMP JUMPDEST PUSH2 0x22D6 JUMP JUMPDEST DUP3 MSTORE POP POP JUMP JUMPDEST PUSH2 0x19AD PUSH2 0x19A8 DUP3 PUSH2 0x2164 JUMP JUMPDEST PUSH2 0x22E0 JUMP JUMPDEST DUP3 MSTORE POP POP JUMP JUMPDEST PUSH2 0x19BC DUP2 PUSH2 0x2190 JUMP JUMPDEST DUP3 MSTORE POP POP JUMP JUMPDEST PUSH2 0x19D3 PUSH2 0x19CE DUP3 PUSH2 0x2190 JUMP JUMPDEST PUSH2 0x22EA JUMP JUMPDEST DUP3 MSTORE POP POP JUMP JUMPDEST PUSH1 0x0 PUSH2 0x19E4 DUP3 PUSH2 0x1FE8 JUMP JUMPDEST PUSH2 0x19EE DUP2 DUP6 PUSH2 0x1FFE JUMP JUMPDEST SWAP4 POP PUSH2 0x19FE DUP2 DUP6 PUSH1 0x20 DUP7 ADD PUSH2 0x21FF JUMP JUMPDEST PUSH2 0x1A07 DUP2 PUSH2 0x2352 JUMP JUMPDEST DUP5 ADD SWAP2 POP POP SWAP3 SWAP2 POP POP JUMP JUMPDEST PUSH1 0x0 PUSH2 0x1A1D DUP3 PUSH2 0x1FE8 JUMP JUMPDEST PUSH2 0x1A27 DUP2 DUP6 PUSH2 0x200F JUMP JUMPDEST SWAP4 POP PUSH2 0x1A37 DUP2 DUP6 PUSH1 0x20 DUP7 ADD PUSH2 0x21FF JUMP JUMPDEST DUP1 DUP5 ADD SWAP2 POP POP SWAP3 SWAP2 POP POP JUMP JUMPDEST PUSH1 0x0 PUSH2 0x1A4E DUP3 PUSH2 0x1FF3 JUMP JUMPDEST PUSH2 0x1A58 DUP2 DUP6 PUSH2 0x201A JUMP JUMPDEST SWAP4 POP PUSH2 0x1A68 DUP2 DUP6 PUSH1 0x20 DUP7 ADD PUSH2 0x21FF JUMP JUMPDEST PUSH2 0x1A71 DUP2 PUSH2 0x2352 JUMP JUMPDEST DUP5 ADD SWAP2 POP POP SWAP3 SWAP2 POP POP JUMP JUMPDEST PUSH1 0x0 PUSH2 0x1A87 DUP3 PUSH2 0x1FF3 JUMP JUMPDEST PUSH2 0x1A91 DUP2 DUP6 PUSH2 0x202B JUMP JUMPDEST SWAP4 POP PUSH2 0x1AA1 DUP2 DUP6 PUSH1 0x20 DUP7 ADD PUSH2 0x21FF JUMP JUMPDEST DUP1 DUP5 ADD SWAP2 POP POP SWAP3 SWAP2 POP POP JUMP JUMPDEST PUSH1 0x0 PUSH2 0x1ABA PUSH1 0x20 DUP4 PUSH2 0x201A JUMP JUMPDEST SWAP2 POP PUSH2 0x1AC5 DUP3 PUSH2 0x2363 JUMP JUMPDEST PUSH1 0x20 DUP3 ADD SWAP1 POP SWAP2 SWAP1 POP JUMP JUMPDEST PUSH1 0x0 PUSH2 0x1ADD PUSH1 0x14 DUP4 PUSH2 0x201A JUMP JUMPDEST SWAP2 POP PUSH2 0x1AE8 DUP3 PUSH2 0x238C JUMP JUMPDEST PUSH1 0x20 DUP3 ADD SWAP1 POP SWAP2 SWAP1 POP JUMP JUMPDEST PUSH1 0x0 PUSH2 0x1B00 PUSH1 0x1E DUP4 PUSH2 0x201A JUMP JUMPDEST SWAP2 POP PUSH2 0x1B0B DUP3 PUSH2 0x23B5 JUMP JUMPDEST PUSH1 0x20 DUP3 ADD SWAP1 POP SWAP2 SWAP1 POP JUMP JUMPDEST PUSH1 0x0 PUSH2 0x1B23 PUSH1 0x4F DUP4 PUSH2 0x201A JUMP JUMPDEST SWAP2 POP PUSH2 0x1B2E DUP3 PUSH2 0x23DE JUMP JUMPDEST PUSH1 0x60 DUP3 ADD SWAP1 POP SWAP2 SWAP1 POP JUMP JUMPDEST PUSH1 0x0 PUSH2 0x1B46 PUSH1 0x10 DUP4 PUSH2 0x201A JUMP JUMPDEST SWAP2 POP PUSH2 0x1B51 DUP3 PUSH2 0x2453 JUMP JUMPDEST PUSH1 0x20 DUP3 ADD SWAP1 POP SWAP2 SWAP1 POP JUMP JUMPDEST PUSH1 0x0 PUSH2 0x1B69 PUSH1 0x53 DUP4 PUSH2 0x201A JUMP JUMPDEST SWAP2 POP PUSH2 0x1B74 DUP3 PUSH2 0x247C JUMP JUMPDEST PUSH1 0x60 DUP3 ADD SWAP1 POP SWAP2 SWAP1 POP JUMP JUMPDEST PUSH1 0x0 PUSH2 0x1B8C PUSH1 0x0 DUP4 PUSH2 0x200F JUMP JUMPDEST SWAP2 POP PUSH2 0x1B97 DUP3 PUSH2 0x24F1 JUMP JUMPDEST PUSH1 0x0 DUP3 ADD SWAP1 POP SWAP2 SWAP1 POP JUMP JUMPDEST PUSH1 0x0 PUSH2 0x1BAF PUSH1 0x2C DUP4 PUSH2 0x201A JUMP JUMPDEST SWAP2 POP PUSH2 0x1BBA DUP3 PUSH2 0x24F4 JUMP JUMPDEST PUSH1 0x40 DUP3 ADD SWAP1 POP SWAP2 SWAP1 POP JUMP JUMPDEST PUSH1 0x0 PUSH2 0x1BD2 PUSH1 0x17 DUP4 PUSH2 0x202B JUMP JUMPDEST SWAP2 POP PUSH2 0x1BDD DUP3 PUSH2 0x2543 JUMP JUMPDEST PUSH1 0x17 DUP3 ADD SWAP1 POP SWAP2 SWAP1 POP JUMP JUMPDEST PUSH1 0x0 PUSH2 0x1BF5 PUSH1 0x1E DUP4 PUSH2 0x201A JUMP JUMPDEST SWAP2 POP PUSH2 0x1C00 DUP3 PUSH2 0x256C JUMP JUMPDEST PUSH1 0x20 DUP3 ADD SWAP1 POP SWAP2 SWAP1 POP JUMP JUMPDEST PUSH1 0x0 PUSH2 0x1C18 PUSH1 0x29 DUP4 PUSH2 0x201A JUMP JUMPDEST SWAP2 POP PUSH2 0x1C23 DUP3 PUSH2 0x2595 JUMP JUMPDEST PUSH1 0x40 DUP3 ADD SWAP1 POP SWAP2 SWAP1 POP JUMP JUMPDEST PUSH1 0x0 PUSH2 0x1C3B PUSH1 0x11 DUP4 PUSH2 0x202B JUMP JUMPDEST SWAP2 POP PUSH2 0x1C46 DUP3 PUSH2 0x25E4 JUMP JUMPDEST PUSH1 0x11 DUP3 ADD SWAP1 POP SWAP2 SWAP1 POP JUMP JUMPDEST PUSH1 0x0 PUSH2 0x1C5E PUSH1 0x2F DUP4 PUSH2 0x201A JUMP JUMPDEST SWAP2 POP PUSH2 0x1C69 DUP3 PUSH2 0x260D JUMP JUMPDEST PUSH1 0x40 DUP3 ADD SWAP1 POP SWAP2 SWAP1 POP JUMP JUMPDEST PUSH2 0x1C7D DUP2 PUSH2 0x21E6 JUMP JUMPDEST DUP3 MSTORE POP POP JUMP JUMPDEST PUSH1 0x0 PUSH2 0x1C8F DUP3 DUP6 PUSH2 0x1985 JUMP JUMPDEST PUSH1 0x1 DUP3 ADD SWAP2 POP PUSH2 0x1C9F DUP3 DUP5 PUSH2 0x1A12 JUMP JUMPDEST SWAP2 POP DUP2 SWAP1 POP SWAP4 SWAP3 POP POP POP JUMP JUMPDEST PUSH1 0x0 PUSH2 0x1CB7 DUP3 DUP5 PUSH2 0x199C JUMP JUMPDEST PUSH1 0x14 DUP3 ADD SWAP2 POP DUP2 SWAP1 POP SWAP3 SWAP2 POP POP JUMP JUMPDEST PUSH1 0x0 PUSH2 0x1CD2 DUP3 DUP5 PUSH2 0x19C2 JUMP JUMPDEST PUSH1 0x20 DUP3 ADD SWAP2 POP DUP2 SWAP1 POP SWAP3 SWAP2 POP POP JUMP JUMPDEST PUSH1 0x0 PUSH2 0x1CED DUP3 DUP5 PUSH2 0x1A12 JUMP JUMPDEST SWAP2 POP DUP2 SWAP1 POP SWAP3 SWAP2 POP POP JUMP JUMPDEST PUSH1 0x0 PUSH2 0x1D04 DUP3 DUP6 PUSH2 0x1A12 JUMP JUMPDEST SWAP2 POP PUSH2 0x1D10 DUP3 DUP5 PUSH2 0x1A12 JUMP JUMPDEST SWAP2 POP DUP2 SWAP1 POP SWAP4 SWAP3 POP POP POP JUMP JUMPDEST PUSH1 0x0 PUSH2 0x1D27 DUP3 PUSH2 0x1B7F JUMP JUMPDEST SWAP2 POP DUP2 SWAP1 POP SWAP2 SWAP1 POP JUMP JUMPDEST PUSH1 0x0 PUSH2 0x1D3C DUP3 PUSH2 0x1BC5 JUMP JUMPDEST SWAP2 POP PUSH2 0x1D48 DUP3 DUP6 PUSH2 0x1A7C JUMP JUMPDEST SWAP2 POP PUSH2 0x1D53 DUP3 PUSH2 0x1C2E JUMP JUMPDEST SWAP2 POP PUSH2 0x1D5F DUP3 DUP5 PUSH2 0x1A7C JUMP JUMPDEST SWAP2 POP DUP2 SWAP1 POP SWAP4 SWAP3 POP POP POP JUMP JUMPDEST PUSH1 0x0 PUSH1 0x20 DUP3 ADD SWAP1 POP PUSH2 0x1D80 PUSH1 0x0 DUP4 ADD DUP5 PUSH2 0x1967 JUMP JUMPDEST SWAP3 SWAP2 POP POP JUMP JUMPDEST PUSH1 0x0 PUSH1 0x40 DUP3 ADD SWAP1 POP PUSH2 0x1D9B PUSH1 0x0 DUP4 ADD DUP6 PUSH2 0x1967 JUMP JUMPDEST PUSH2 0x1DA8 PUSH1 0x20 DUP4 ADD DUP5 PUSH2 0x1C74 JUMP JUMPDEST SWAP4 SWAP3 POP POP POP JUMP JUMPDEST PUSH1 0x0 PUSH1 0x20 DUP3 ADD SWAP1 POP PUSH2 0x1DC4 PUSH1 0x0 DUP4 ADD DUP5 PUSH2 0x1976 JUMP JUMPDEST SWAP3 SWAP2 POP POP JUMP JUMPDEST PUSH1 0x0 PUSH1 0x20 DUP3 ADD SWAP1 POP PUSH2 0x1DDF PUSH1 0x0 DUP4 ADD DUP5 PUSH2 0x19B3 JUMP JUMPDEST SWAP3 SWAP2 POP POP JUMP JUMPDEST PUSH1 0x0 PUSH1 0x40 DUP3 ADD SWAP1 POP PUSH2 0x1DFA PUSH1 0x0 DUP4 ADD DUP6 PUSH2 0x19B3 JUMP JUMPDEST DUP2 DUP2 SUB PUSH1 0x20 DUP4 ADD MSTORE PUSH2 0x1E0C DUP2 DUP5 PUSH2 0x19D9 JUMP JUMPDEST SWAP1 POP SWAP4 SWAP3 POP POP POP JUMP JUMPDEST PUSH1 0x0 PUSH1 0x20 DUP3 ADD SWAP1 POP DUP2 DUP2 SUB PUSH1 0x0 DUP4 ADD MSTORE PUSH2 0x1E2F DUP2 DUP5 PUSH2 0x1A43 JUMP JUMPDEST SWAP1 POP SWAP3 SWAP2 POP POP JUMP JUMPDEST PUSH1 0x0 PUSH1 0x20 DUP3 ADD SWAP1 POP DUP2 DUP2 SUB PUSH1 0x0 DUP4 ADD MSTORE PUSH2 0x1E50 DUP2 PUSH2 0x1AAD JUMP JUMPDEST SWAP1 POP SWAP2 SWAP1 POP JUMP JUMPDEST PUSH1 0x0 PUSH1 0x20 DUP3 ADD SWAP1 POP DUP2 DUP2 SUB PUSH1 0x0 DUP4 ADD MSTORE PUSH2 0x1E70 DUP2 PUSH2 0x1AD0 JUMP JUMPDEST SWAP1 POP SWAP2 SWAP1 POP JUMP JUMPDEST PUSH1 0x0 PUSH1 0x20 DUP3 ADD SWAP1 POP DUP2 DUP2 SUB PUSH1 0x0 DUP4 ADD MSTORE PUSH2 0x1E90 DUP2 PUSH2 0x1AF3 JUMP JUMPDEST SWAP1 POP SWAP2 SWAP1 POP JUMP JUMPDEST PUSH1 0x0 PUSH1 0x20 DUP3 ADD SWAP1 POP DUP2 DUP2 SUB PUSH1 0x0 DUP4 ADD MSTORE PUSH2 0x1EB0 DUP2 PUSH2 0x1B16 JUMP JUMPDEST SWAP1 POP SWAP2 SWAP1 POP JUMP JUMPDEST PUSH1 0x0 PUSH1 0x20 DUP3 ADD SWAP1 POP DUP2 DUP2 SUB PUSH1 0x0 DUP4 ADD MSTORE PUSH2 0x1ED0 DUP2 PUSH2 0x1B39 JUMP JUMPDEST SWAP1 POP SWAP2 SWAP1 POP JUMP JUMPDEST PUSH1 0x0 PUSH1 0x20 DUP3 ADD SWAP1 POP DUP2 DUP2 SUB PUSH1 0x0 DUP4 ADD MSTORE PUSH2 0x1EF0 DUP2 PUSH2 0x1B5C JUMP JUMPDEST SWAP1 POP SWAP2 SWAP1 POP JUMP JUMPDEST PUSH1 0x0 PUSH1 0x20 DUP3 ADD SWAP1 POP DUP2 DUP2 SUB PUSH1 0x0 DUP4 ADD MSTORE PUSH2 0x1F10 DUP2 PUSH2 0x1BA2 JUMP JUMPDEST SWAP1 POP SWAP2 SWAP1 POP JUMP JUMPDEST PUSH1 0x0 PUSH1 0x20 DUP3 ADD SWAP1 POP DUP2 DUP2 SUB PUSH1 0x0 DUP4 ADD MSTORE PUSH2 0x1F30 DUP2 PUSH2 0x1BE8 JUMP JUMPDEST SWAP1 POP SWAP2 SWAP1 POP JUMP JUMPDEST PUSH1 0x0 PUSH1 0x20 DUP3 ADD SWAP1 POP DUP2 DUP2 SUB PUSH1 0x0 DUP4 ADD MSTORE PUSH2 0x1F50 DUP2 PUSH2 0x1C0B JUMP JUMPDEST SWAP1 POP SWAP2 SWAP1 POP JUMP JUMPDEST PUSH1 0x0 PUSH1 0x20 DUP3 ADD SWAP1 POP DUP2 DUP2 SUB PUSH1 0x0 DUP4 ADD MSTORE PUSH2 0x1F70 DUP2 PUSH2 0x1C51 JUMP JUMPDEST SWAP1 POP SWAP2 SWAP1 POP JUMP JUMPDEST PUSH1 0x0 PUSH1 0x20 DUP3 ADD SWAP1 POP PUSH2 0x1F8C PUSH1 0x0 DUP4 ADD DUP5 PUSH2 0x1C74 JUMP JUMPDEST SWAP3 SWAP2 POP POP JUMP JUMPDEST PUSH1 0x0 PUSH2 0x1F9C PUSH2 0x1FAD JUMP JUMPDEST SWAP1 POP PUSH2 0x1FA8 DUP3 DUP3 PUSH2 0x225C JUMP JUMPDEST SWAP2 SWAP1 POP JUMP JUMPDEST PUSH1 0x0 PUSH1 0x40 MLOAD SWAP1 POP SWAP1 JUMP JUMPDEST PUSH1 0x0 PUSH8 0xFFFFFFFFFFFFFFFF DUP3 GT ISZERO PUSH2 0x1FD2 JUMPI PUSH2 0x1FD1 PUSH2 0x2323 JUMP JUMPDEST JUMPDEST PUSH2 0x1FDB DUP3 PUSH2 0x2352 JUMP JUMPDEST SWAP1 POP PUSH1 0x20 DUP2 ADD SWAP1 POP SWAP2 SWAP1 POP JUMP JUMPDEST PUSH1 0x0 DUP2 MLOAD SWAP1 POP SWAP2 SWAP1 POP JUMP JUMPDEST PUSH1 0x0 DUP2 MLOAD SWAP1 POP SWAP2 SWAP1 POP JUMP JUMPDEST PUSH1 0x0 DUP3 DUP3 MSTORE PUSH1 0x20 DUP3 ADD SWAP1 POP SWAP3 SWAP2 POP POP JUMP JUMPDEST PUSH1 0x0 DUP2 SWAP1 POP SWAP3 SWAP2 POP POP JUMP JUMPDEST PUSH1 0x0 DUP3 DUP3 MSTORE PUSH1 0x20 DUP3 ADD SWAP1 POP SWAP3 SWAP2 POP POP JUMP JUMPDEST PUSH1 0x0 DUP2 SWAP1 POP SWAP3 SWAP2 POP POP JUMP JUMPDEST PUSH1 0x0 PUSH2 0x2041 DUP3 PUSH2 0x21E6 JUMP JUMPDEST SWAP2 POP PUSH2 0x204C DUP4 PUSH2 0x21E6 JUMP JUMPDEST SWAP3 POP DUP3 PUSH32 0xFFFFFFFFFFFFFFFFFFFFFFFFFFFFFFFFFFFFFFFFFFFFFFFFFFFFFFFFFFFFFFFF SUB DUP3 GT ISZERO PUSH2 0x2081 JUMPI PUSH2 0x2080 PUSH2 0x22F4 JUMP JUMPDEST JUMPDEST DUP3 DUP3 ADD SWAP1 POP SWAP3 SWAP2 POP POP JUMP JUMPDEST PUSH1 0x0 PUSH2 0x2097 DUP3 PUSH2 0x21E6 JUMP JUMPDEST SWAP2 POP PUSH2 0x20A2 DUP4 PUSH2 0x21E6 JUMP JUMPDEST SWAP3 POP DUP2 PUSH32 0xFFFFFFFFFFFFFFFFFFFFFFFFFFFFFFFFFFFFFFFFFFFFFFFFFFFFFFFFFFFFFFFF DIV DUP4 GT DUP3 ISZERO ISZERO AND ISZERO PUSH2 0x20DB JUMPI PUSH2 0x20DA PUSH2 0x22F4 JUMP JUMPDEST JUMPDEST DUP3 DUP3 MUL SWAP1 POP SWAP3 SWAP2 POP POP JUMP JUMPDEST PUSH1 0x0 PUSH2 0x20F1 DUP3 PUSH2 0x21E6 JUMP JUMPDEST SWAP2 POP PUSH2 0x20FC DUP4 PUSH2 0x21E6 JUMP JUMPDEST SWAP3 POP DUP3 DUP3 LT ISZERO PUSH2 0x210F JUMPI PUSH2 0x210E PUSH2 0x22F4 JUMP JUMPDEST JUMPDEST DUP3 DUP3 SUB SWAP1 POP SWAP3 SWAP2 POP POP JUMP JUMPDEST PUSH1 0x0 PUSH2 0x2125 DUP3 PUSH2 0x21C6 JUMP JUMPDEST SWAP1 POP SWAP2 SWAP1 POP JUMP JUMPDEST PUSH1 0x0 DUP2 ISZERO ISZERO SWAP1 POP SWAP2 SWAP1 POP JUMP JUMPDEST PUSH1 0x0 PUSH32 0xFF00000000000000000000000000000000000000000000000000000000000000 DUP3 AND SWAP1 POP SWAP2 SWAP1 POP JUMP JUMPDEST PUSH1 0x0 PUSH32 0xFFFFFFFFFFFFFFFFFFFFFFFFFFFFFFFFFFFFFFFF000000000000000000000000 DUP3 AND SWAP1 POP SWAP2 SWAP1 POP JUMP JUMPDEST PUSH1 0x0 DUP2 SWAP1 POP SWAP2 SWAP1 POP JUMP JUMPDEST PUSH1 0x0 PUSH32 0xFFFFFFFF00000000000000000000000000000000000000000000000000000000 DUP3 AND SWAP1 POP SWAP2 SWAP1 POP JUMP JUMPDEST PUSH1 0x0 PUSH20 0xFFFFFFFFFFFFFFFFFFFFFFFFFFFFFFFFFFFFFFFF DUP3 AND SWAP1 POP SWAP2 SWAP1 POP JUMP JUMPDEST PUSH1 0x0 DUP2 SWAP1 POP SWAP2 SWAP1 POP JUMP JUMPDEST DUP3 DUP2 DUP4 CALLDATACOPY PUSH1 0x0 DUP4 DUP4 ADD MSTORE POP POP POP JUMP JUMPDEST PUSH1 0x0 JUMPDEST DUP4 DUP2 LT ISZERO PUSH2 0x221D JUMPI DUP1 DUP3 ADD MLOAD DUP2 DUP5 ADD MSTORE PUSH1 0x20 DUP2 ADD SWAP1 POP PUSH2 0x2202 JUMP JUMPDEST DUP4 DUP2 GT ISZERO PUSH2 0x222C JUMPI PUSH1 0x0 DUP5 DUP5 ADD MSTORE JUMPDEST POP POP POP POP JUMP JUMPDEST PUSH1 0x0 PUSH2 0x223D DUP3 PUSH2 0x21E6 JUMP JUMPDEST SWAP2 POP PUSH1 0x0 DUP3 EQ ISZERO PUSH2 0x2251 JUMPI PUSH2 0x2250 PUSH2 0x22F4 JUMP JUMPDEST JUMPDEST PUSH1 0x1 DUP3 SUB SWAP1 POP SWAP2 SWAP1 POP JUMP JUMPDEST PUSH2 0x2265 DUP3 PUSH2 0x2352 JUMP JUMPDEST DUP2 ADD DUP2 DUP2 LT PUSH8 0xFFFFFFFFFFFFFFFF DUP3 GT OR ISZERO PUSH2 0x2284 JUMPI PUSH2 0x2283 PUSH2 0x2323 JUMP JUMPDEST JUMPDEST DUP1 PUSH1 0x40 MSTORE POP POP POP JUMP JUMPDEST PUSH1 0x0 PUSH2 0x2298 DUP3 PUSH2 0x21E6 JUMP JUMPDEST SWAP2 POP PUSH32 0xFFFFFFFFFFFFFFFFFFFFFFFFFFFFFFFFFFFFFFFFFFFFFFFFFFFFFFFFFFFFFFFF DUP3 EQ ISZERO PUSH2 0x22CB JUMPI PUSH2 0x22CA PUSH2 0x22F4 JUMP JUMPDEST JUMPDEST PUSH1 0x1 DUP3 ADD SWAP1 POP SWAP2 SWAP1 POP JUMP JUMPDEST PUSH1 0x0 DUP2 SWAP1 POP SWAP2 SWAP1 POP JUMP JUMPDEST PUSH1 0x0 DUP2 SWAP1 POP SWAP2 SWAP1 POP JUMP JUMPDEST PUSH1 0x0 DUP2 SWAP1 POP SWAP2 SWAP1 POP JUMP JUMPDEST PUSH32 0x4E487B7100000000000000000000000000000000000000000000000000000000 PUSH1 0x0 MSTORE PUSH1 0x11 PUSH1 0x4 MSTORE PUSH1 0x24 PUSH1 0x0 REVERT JUMPDEST PUSH32 0x4E487B7100000000000000000000000000000000000000000000000000000000 PUSH1 0x0 MSTORE PUSH1 0x41 PUSH1 0x4 MSTORE PUSH1 0x24 PUSH1 0x0 REVERT JUMPDEST PUSH1 0x0 PUSH1 0x1F NOT PUSH1 0x1F DUP4 ADD AND SWAP1 POP SWAP2 SWAP1 POP JUMP JUMPDEST PUSH32 0x537472696E67733A20686578206C656E67746820696E73756666696369656E74 PUSH1 0x0 DUP3 ADD MSTORE POP JUMP JUMPDEST PUSH32 0x5061757361626C653A206E6F7420706175736564000000000000000000000000 PUSH1 0x0 DUP3 ADD MSTORE POP JUMP JUMPDEST PUSH32 0x4661696C656420746F2073656E64206E61746976652063757272656E63790000 PUSH1 0x0 DUP3 ADD MSTORE POP JUMP JUMPDEST PUSH32 0x46696E61537761703A636C61696D20496E76616C6964207369676E6174757265 PUSH1 0x0 DUP3 ADD MSTORE PUSH32 0x206C656E6774682E20546865207369676E6174757265206D7573742062652065 PUSH1 0x20 DUP3 ADD MSTORE PUSH32 0x786163746C792036352062797465730000000000000000000000000000000000 PUSH1 0x40 DUP3 ADD MSTORE POP JUMP JUMPDEST PUSH32 0x5061757361626C653A2070617573656400000000000000000000000000000000 PUSH1 0x0 DUP3 ADD MSTORE POP JUMP JUMPDEST PUSH32 0x46696E61537761703A636C61696D20496E76616C6964207369676E6174757265 PUSH1 0x0 DUP3 ADD MSTORE PUSH32 0x2E20546865207265636F7665726564207075626C6963206B6579206D75737420 PUSH1 0x20 DUP3 ADD MSTORE PUSH32 0x62652065786163746C7920333320627974657300000000000000000000000000 PUSH1 0x40 DUP3 ADD MSTORE POP JUMP JUMPDEST POP JUMP JUMPDEST PUSH32 0x46696E61537761703A636C61696D205461726765742061646472657373206361 PUSH1 0x0 DUP3 ADD MSTORE PUSH32 0x6E6E6F74206265207A65726F0000000000000000000000000000000000000000 PUSH1 0x20 DUP3 ADD MSTORE POP JUMP JUMPDEST PUSH32 0x416363657373436F6E74726F6C3A206163636F756E7420000000000000000000 PUSH1 0x0 DUP3 ADD MSTORE POP JUMP JUMPDEST PUSH32 0x46696E61537761703A636C61696D20616C726561647920737761707065640000 PUSH1 0x0 DUP3 ADD MSTORE POP JUMP JUMPDEST PUSH32 0x46696E61537761703A636C61696D205369676E61747572652068617368206973 PUSH1 0x0 DUP3 ADD MSTORE PUSH32 0x2072657175697265640000000000000000000000000000000000000000000000 PUSH1 0x20 DUP3 ADD MSTORE POP JUMP JUMPDEST PUSH32 0x206973206D697373696E6720726F6C6520000000000000000000000000000000 PUSH1 0x0 DUP3 ADD MSTORE POP JUMP JUMPDEST PUSH32 0x416363657373436F6E74726F6C3A2063616E206F6E6C792072656E6F756E6365 PUSH1 0x0 DUP3 ADD MSTORE PUSH32 0x20726F6C657320666F722073656C660000000000000000000000000000000000 PUSH1 0x20 DUP3 ADD MSTORE POP JUMP JUMPDEST PUSH2 0x2665 DUP2 PUSH2 0x211A JUMP JUMPDEST DUP2 EQ PUSH2 0x2670 JUMPI PUSH1 0x0 DUP1 REVERT JUMPDEST POP JUMP JUMPDEST PUSH2 0x267C DUP2 PUSH2 0x2190 JUMP JUMPDEST DUP2 EQ PUSH2 0x2687 JUMPI PUSH1 0x0 DUP1 REVERT JUMPDEST POP JUMP JUMPDEST PUSH2 0x2693 DUP2 PUSH2 0x219A JUMP JUMPDEST DUP2 EQ PUSH2 0x269E JUMPI PUSH1 0x0 DUP1 REVERT JUMPDEST POP JUMP JUMPDEST PUSH2 0x26AA DUP2 PUSH2 0x21E6 JUMP JUMPDEST DUP2 EQ PUSH2 0x26B5 JUMPI PUSH1 0x0 DUP1 REVERT JUMPDEST POP JUMP INVALID LOG2 PUSH5 0x6970667358 0x22 SLT KECCAK256 0xD9 0xE0 GAS 0xF SMOD 0x24 CODECOPY 0xE3 0xD4 ADDMOD PUSH22 0x43088321C8D16C29F542AB3783C1CE06DBBE844B6564 PUSH20 0x6F6C634300080400330000000000000000000000 "
				},
				"gasEstimates": {
					"creation": {
						"codeDepositCost": "1993200",
						"executionCost": "infinite",
						"totalCost": "infinite"
					},
					"external": {
						"ADMIN_ROLE()": "374",
						"DEFAULT_ADMIN_ROLE()": "379",
						"PAUSER_ROLE()": "439",
						"addBalance(bytes,uint256)": "infinite",
						"balanceOf(bytes)": "infinite",
						"claim(address,bytes32,bytes)": "infinite",
						"getRoleAdmin(bytes32)": "infinite",
						"grantRole(bytes32,address)": "infinite",
						"hasRole(bytes32,address)": "1862",
						"pause()": "infinite",
						"paused()": "1268",
						"removeBalance(bytes)": "infinite",
						"renounceRole(bytes32,address)": "infinite",
						"revokeRole(bytes32,address)": "infinite",
						"setNativeValue(uint256)": "infinite",
						"supportsInterface(bytes4)": "751",
						"unpause()": "infinite"
					}
				},
				"methodIdentifiers": {
					"ADMIN_ROLE()": "75b238fc",
					"DEFAULT_ADMIN_ROLE()": "a217fddf",
					"PAUSER_ROLE()": "e63ab1e9",
					"addBalance(bytes,uint256)": "c71c6490",
					"balanceOf(bytes)": "78415365",
					"claim(address,bytes32,bytes)": "736c76ee",
					"getRoleAdmin(bytes32)": "248a9ca3",
					"grantRole(bytes32,address)": "2f2ff15d",
					"hasRole(bytes32,address)": "91d14854",
					"pause()": "8456cb59",
					"paused()": "5c975abb",
					"removeBalance(bytes)": "3636f669",
					"renounceRole(bytes32,address)": "36568abe",
					"revokeRole(bytes32,address)": "d547741f",
					"setNativeValue(uint256)": "5b06a1d5",
					"supportsInterface(bytes4)": "01ffc9a7",
					"unpause()": "3f4ba83a"
				}
			},
			"userdoc": {
				"kind": "user",
				"methods": {},
				"version": 1
			}
		}
	}
}