{
	"contracts/FinaSwap.sol": {
		"FinaSwap": {
			"abi": [
				{
					"inputs": [
						{
							"internalType": "contract IECDSA",
							"name": "ecdsa",
							"type": "address"
						},
						{
							"internalType": "contract IERC20Mintable",
							"name": "token",
							"type": "address"
						},
						{
							"internalType": "bytes1",
							"name": "prefix",
							"type": "bytes1"
						}
					],
					"stateMutability": "nonpayable",
					"type": "constructor"
				},
				{
					"anonymous": false,
					"inputs": [
						{
							"indexed": false,
							"internalType": "address",
							"name": "target",
							"type": "address"
						},
						{
							"indexed": false,
							"internalType": "bytes32",
							"name": "hash",
							"type": "bytes32"
						},
						{
							"indexed": false,
							"internalType": "bytes",
							"name": "signature",
							"type": "bytes"
						},
						{
							"indexed": false,
							"internalType": "bytes",
							"name": "publicKey",
							"type": "bytes"
						},
						{
							"indexed": false,
							"internalType": "uint256",
							"name": "value",
							"type": "uint256"
						}
					],
					"name": "Claim",
					"type": "event"
				},
				{
					"anonymous": false,
					"inputs": [
						{
							"indexed": false,
							"internalType": "address",
							"name": "account",
							"type": "address"
						}
					],
					"name": "Paused",
					"type": "event"
				},
				{
					"anonymous": false,
					"inputs": [
						{
							"indexed": true,
							"internalType": "bytes32",
							"name": "role",
							"type": "bytes32"
						},
						{
							"indexed": true,
							"internalType": "bytes32",
							"name": "previousAdminRole",
							"type": "bytes32"
						},
						{
							"indexed": true,
							"internalType": "bytes32",
							"name": "newAdminRole",
							"type": "bytes32"
						}
					],
					"name": "RoleAdminChanged",
					"type": "event"
				},
				{
					"anonymous": false,
					"inputs": [
						{
							"indexed": true,
							"internalType": "bytes32",
							"name": "role",
							"type": "bytes32"
						},
						{
							"indexed": true,
							"internalType": "address",
							"name": "account",
							"type": "address"
						},
						{
							"indexed": true,
							"internalType": "address",
							"name": "sender",
							"type": "address"
						}
					],
					"name": "RoleGranted",
					"type": "event"
				},
				{
					"anonymous": false,
					"inputs": [
						{
							"indexed": true,
							"internalType": "bytes32",
							"name": "role",
							"type": "bytes32"
						},
						{
							"indexed": true,
							"internalType": "address",
							"name": "account",
							"type": "address"
						},
						{
							"indexed": true,
							"internalType": "address",
							"name": "sender",
							"type": "address"
						}
					],
					"name": "RoleRevoked",
					"type": "event"
				},
				{
					"anonymous": false,
					"inputs": [
						{
							"indexed": false,
							"internalType": "address",
							"name": "account",
							"type": "address"
						}
					],
					"name": "Unpaused",
					"type": "event"
				},
				{
					"inputs": [],
					"name": "ADMIN_ROLE",
					"outputs": [
						{
							"internalType": "bytes32",
							"name": "",
							"type": "bytes32"
						}
					],
					"stateMutability": "view",
					"type": "function"
				},
				{
					"inputs": [],
					"name": "DEFAULT_ADMIN_ROLE",
					"outputs": [
						{
							"internalType": "bytes32",
							"name": "",
							"type": "bytes32"
						}
					],
					"stateMutability": "view",
					"type": "function"
				},
				{
					"inputs": [],
					"name": "PAUSER_ROLE",
					"outputs": [
						{
							"internalType": "bytes32",
							"name": "",
							"type": "bytes32"
						}
					],
					"stateMutability": "view",
					"type": "function"
				},
				{
					"inputs": [
						{
							"internalType": "bytes",
							"name": "source",
							"type": "bytes"
						},
						{
							"internalType": "uint256",
							"name": "balance",
							"type": "uint256"
						}
					],
					"name": "addBalance",
					"outputs": [],
					"stateMutability": "nonpayable",
					"type": "function"
				},
				{
					"inputs": [
						{
							"internalType": "uint256",
							"name": "balance",
							"type": "uint256"
						}
					],
					"name": "addSwappedBalance",
					"outputs": [],
					"stateMutability": "nonpayable",
					"type": "function"
				},
				{
					"inputs": [
						{
							"internalType": "bytes",
							"name": "source",
							"type": "bytes"
						}
					],
					"name": "balanceOf",
					"outputs": [
						{
							"internalType": "uint256",
							"name": "",
							"type": "uint256"
						}
					],
					"stateMutability": "view",
					"type": "function"
				},
				{
					"inputs": [
						{
							"internalType": "address",
							"name": "target",
							"type": "address"
						},
						{
							"internalType": "bytes32",
							"name": "hash",
							"type": "bytes32"
						},
						{
							"internalType": "bytes",
							"name": "signature",
							"type": "bytes"
						}
					],
					"name": "claim",
					"outputs": [],
					"stateMutability": "nonpayable",
					"type": "function"
				},
				{
					"inputs": [
						{
							"internalType": "bytes32",
							"name": "role",
							"type": "bytes32"
						}
					],
					"name": "getRoleAdmin",
					"outputs": [
						{
							"internalType": "bytes32",
							"name": "",
							"type": "bytes32"
						}
					],
					"stateMutability": "view",
					"type": "function"
				},
				{
					"inputs": [],
					"name": "getSwappedBalance",
					"outputs": [
						{
							"internalType": "uint256",
							"name": "",
							"type": "uint256"
						}
					],
					"stateMutability": "view",
					"type": "function"
				},
				{
					"inputs": [
						{
							"internalType": "bytes32",
							"name": "role",
							"type": "bytes32"
						},
						{
							"internalType": "address",
							"name": "account",
							"type": "address"
						}
					],
					"name": "grantRole",
					"outputs": [],
					"stateMutability": "nonpayable",
					"type": "function"
				},
				{
					"inputs": [
						{
							"internalType": "bytes32",
							"name": "role",
							"type": "bytes32"
						},
						{
							"internalType": "address",
							"name": "account",
							"type": "address"
						}
					],
					"name": "hasRole",
					"outputs": [
						{
							"internalType": "bool",
							"name": "",
							"type": "bool"
						}
					],
					"stateMutability": "view",
					"type": "function"
				},
				{
					"inputs": [],
					"name": "pause",
					"outputs": [],
					"stateMutability": "nonpayable",
					"type": "function"
				},
				{
					"inputs": [],
					"name": "paused",
					"outputs": [
						{
							"internalType": "bool",
							"name": "",
							"type": "bool"
						}
					],
					"stateMutability": "view",
					"type": "function"
				},
				{
					"inputs": [
						{
							"internalType": "bytes",
							"name": "source",
							"type": "bytes"
						}
					],
					"name": "removeBalance",
					"outputs": [],
					"stateMutability": "nonpayable",
					"type": "function"
				},
				{
					"inputs": [
						{
							"internalType": "uint256",
							"name": "balance",
							"type": "uint256"
						}
					],
					"name": "removeSwappedBalance",
					"outputs": [],
					"stateMutability": "nonpayable",
					"type": "function"
				},
				{
					"inputs": [
						{
							"internalType": "bytes32",
							"name": "role",
							"type": "bytes32"
						},
						{
							"internalType": "address",
							"name": "account",
							"type": "address"
						}
					],
					"name": "renounceRole",
					"outputs": [],
					"stateMutability": "nonpayable",
					"type": "function"
				},
				{
					"inputs": [
						{
							"internalType": "bytes32",
							"name": "role",
							"type": "bytes32"
						},
						{
							"internalType": "address",
							"name": "account",
							"type": "address"
						}
					],
					"name": "revokeRole",
					"outputs": [],
					"stateMutability": "nonpayable",
					"type": "function"
				},
				{
					"inputs": [
						{
							"internalType": "bytes4",
							"name": "interfaceId",
							"type": "bytes4"
						}
					],
					"name": "supportsInterface",
					"outputs": [
						{
							"internalType": "bool",
							"name": "",
							"type": "bool"
						}
					],
					"stateMutability": "view",
					"type": "function"
				},
				{
					"inputs": [],
					"name": "unpause",
					"outputs": [],
					"stateMutability": "nonpayable",
					"type": "function"
				}
			],
			"devdoc": {
				"kind": "dev",
				"methods": {
					"getRoleAdmin(bytes32)": {
						"details": "Returns the admin role that controls `role`. See {grantRole} and {revokeRole}. To change a role's admin, use {_setRoleAdmin}."
					},
					"grantRole(bytes32,address)": {
						"details": "Grants `role` to `account`. If `account` had not been already granted `role`, emits a {RoleGranted} event. Requirements: - the caller must have ``role``'s admin role."
					},
					"hasRole(bytes32,address)": {
						"details": "Returns `true` if `account` has been granted `role`."
					},
					"paused()": {
						"details": "Returns true if the contract is paused, and false otherwise."
					},
					"renounceRole(bytes32,address)": {
						"details": "Revokes `role` from the calling account. Roles are often managed via {grantRole} and {revokeRole}: this function's purpose is to provide a mechanism for accounts to lose their privileges if they are compromised (such as when a trusted device is misplaced). If the calling account had been revoked `role`, emits a {RoleRevoked} event. Requirements: - the caller must be `account`."
					},
					"revokeRole(bytes32,address)": {
						"details": "Revokes `role` from `account`. If `account` had been granted `role`, emits a {RoleRevoked} event. Requirements: - the caller must have ``role``'s admin role."
					},
					"supportsInterface(bytes4)": {
						"details": "See {IERC165-supportsInterface}."
					}
				},
				"version": 1
			},
			"evm": {
				"assembly": "    /* \"contracts/FinaSwap.sol\":295:4079  contract FinaSwap is Pausable, AccessControl {\r... */\n  mstore(0x40, 0xe0)\n    /* \"contracts/FinaSwap.sol\":704:950  constructor(IECDSA ecdsa, IERC20Mintable token, bytes1 prefix)\r... */\n  callvalue\n  dup1\n  iszero\n  tag_1\n  jumpi\n  0x00\n  dup1\n  revert\ntag_1:\n  pop\n  mload(0x40)\n  sub(codesize, bytecodeSize)\n  dup1\n  bytecodeSize\n  dup4\n  codecopy\n  dup2\n  dup2\n  add\n  0x40\n  mstore\n  dup2\n  add\n  swap1\n  tag_2\n  swap2\n  swap1\n  tag_3\n  jump\t// in\ntag_2:\n    /* \"@openzeppelin/contracts/security/Pausable.sol\":991:996  false */\n  0x00\n    /* \"@openzeppelin/contracts/security/Pausable.sol\":981:988  _paused */\n  dup1\n  0x00\n    /* \"@openzeppelin/contracts/security/Pausable.sol\":981:996  _paused = false */\n  0x0100\n  exp\n  dup2\n  sload\n  dup2\n  0xff\n  mul\n  not\n  and\n  swap1\n  dup4\n  iszero\n  iszero\n  mul\n  or\n  swap1\n  sstore\n  pop\n    /* \"contracts/FinaSwap.sol\":792:797  ecdsa */\n  dup3\n    /* \"contracts/FinaSwap.sol\":783:797  _ecdsa = ecdsa */\n  0xffffffffffffffffffffffffffffffffffffffff\n  and\n  0x80\n  dup2\n  0xffffffffffffffffffffffffffffffffffffffff\n  and\n  0x60\n  shl\n  dup2\n  mstore\n  pop\n  pop\n    /* \"contracts/FinaSwap.sol\":817:822  token */\n  dup2\n    /* \"contracts/FinaSwap.sol\":808:822  _token = token */\n  0xffffffffffffffffffffffffffffffffffffffff\n  and\n  0xa0\n  dup2\n  0xffffffffffffffffffffffffffffffffffffffff\n  and\n  0x60\n  shl\n  dup2\n  mstore\n  pop\n  pop\n    /* \"contracts/FinaSwap.sol\":843:849  prefix */\n  dup1\n    /* \"contracts/FinaSwap.sol\":833:849  _prefix = prefix */\n  not(0xffffffffffffffffffffffffffffffffffffffffffffffffffffffffffffff)\n  and\n  0xc0\n  dup2\n  not(0xffffffffffffffffffffffffffffffffffffffffffffffffffffffffffffff)\n  and\n  dup2\n  mstore\n  pop\n  pop\n    /* \"contracts/FinaSwap.sol\":862:896  _grantRole(ADMIN_ROLE, msg.sender) */\n  tag_8\n    /* \"contracts/FinaSwap.sol\":384:407  keccak256(\"ADMIN_ROLE\") */\n  0xa49807205ce4d355092ef5a8a18f56e8913cf4a201fbe287825b095693c21775\n    /* \"contracts/FinaSwap.sol\":885:895  msg.sender */\n  caller\n    /* \"contracts/FinaSwap.sol\":862:872  _grantRole */\n  shl(0x20, tag_9)\n    /* \"contracts/FinaSwap.sol\":862:896  _grantRole(ADMIN_ROLE, msg.sender) */\n  0x20\n  shr\n  jump\t// in\ntag_8:\n    /* \"contracts/FinaSwap.sol\":907:942  _grantRole(PAUSER_ROLE, msg.sender) */\n  tag_10\n    /* \"contracts/FinaSwap.sol\":452:476  keccak256(\"PAUSER_ROLE\") */\n  0x65d7a28e3265b37a6474929f336521b332c1681b933f6cb9f3376673440d862a\n    /* \"contracts/FinaSwap.sol\":931:941  msg.sender */\n  caller\n    /* \"contracts/FinaSwap.sol\":907:917  _grantRole */\n  shl(0x20, tag_9)\n    /* \"contracts/FinaSwap.sol\":907:942  _grantRole(PAUSER_ROLE, msg.sender) */\n  0x20\n  shr\n  jump\t// in\ntag_10:\n    /* \"contracts/FinaSwap.sol\":704:950  constructor(IECDSA ecdsa, IERC20Mintable token, bytes1 prefix)\r... */\n  pop\n  pop\n  pop\n    /* \"contracts/FinaSwap.sol\":295:4079  contract FinaSwap is Pausable, AccessControl {\r... */\n  jump(tag_11)\n    /* \"@openzeppelin/contracts/access/AccessControl.sol\":6861:7094  function _grantRole(bytes32 role, address account) internal virtual {... */\ntag_9:\n    /* \"@openzeppelin/contracts/access/AccessControl.sol\":6944:6966  hasRole(role, account) */\n  tag_13\n    /* \"@openzeppelin/contracts/access/AccessControl.sol\":6952:6956  role */\n  dup3\n    /* \"@openzeppelin/contracts/access/AccessControl.sol\":6958:6965  account */\n  dup3\n    /* \"@openzeppelin/contracts/access/AccessControl.sol\":6944:6951  hasRole */\n  shl(0x20, tag_14)\n    /* \"@openzeppelin/contracts/access/AccessControl.sol\":6944:6966  hasRole(role, account) */\n  0x20\n  shr\n  jump\t// in\ntag_13:\n    /* \"@openzeppelin/contracts/access/AccessControl.sol\":6939:7088  if (!hasRole(role, account)) {... */\n  tag_15\n  jumpi\n    /* \"@openzeppelin/contracts/access/AccessControl.sol\":7014:7018  true */\n  0x01\n    /* \"@openzeppelin/contracts/access/AccessControl.sol\":6982:6988  _roles */\n  dup1\n    /* \"@openzeppelin/contracts/access/AccessControl.sol\":6982:6994  _roles[role] */\n  0x00\n    /* \"@openzeppelin/contracts/access/AccessControl.sol\":6989:6993  role */\n  dup5\n    /* \"@openzeppelin/contracts/access/AccessControl.sol\":6982:6994  _roles[role] */\n  dup2\n  mstore\n  0x20\n  add\n  swap1\n  dup2\n  mstore\n  0x20\n  add\n  0x00\n  keccak256\n    /* \"@openzeppelin/contracts/access/AccessControl.sol\":6982:7002  _roles[role].members */\n  0x00\n  add\n    /* \"@openzeppelin/contracts/access/AccessControl.sol\":6982:7011  _roles[role].members[account] */\n  0x00\n    /* \"@openzeppelin/contracts/access/AccessControl.sol\":7003:7010  account */\n  dup4\n    /* \"@openzeppelin/contracts/access/AccessControl.sol\":6982:7011  _roles[role].members[account] */\n  0xffffffffffffffffffffffffffffffffffffffff\n  and\n  0xffffffffffffffffffffffffffffffffffffffff\n  and\n  dup2\n  mstore\n  0x20\n  add\n  swap1\n  dup2\n  mstore\n  0x20\n  add\n  0x00\n  keccak256\n  0x00\n    /* \"@openzeppelin/contracts/access/AccessControl.sol\":6982:7018  _roles[role].members[account] = true */\n  0x0100\n  exp\n  dup2\n  sload\n  dup2\n  0xff\n  mul\n  not\n  and\n  swap1\n  dup4\n  iszero\n  iszero\n  mul\n  or\n  swap1\n  sstore\n  pop\n    /* \"@openzeppelin/contracts/access/AccessControl.sol\":7064:7076  _msgSender() */\n  tag_16\n    /* \"@openzeppelin/contracts/access/AccessControl.sol\":7064:7074  _msgSender */\n  shl(0x20, tag_17)\n    /* \"@openzeppelin/contracts/access/AccessControl.sol\":7064:7076  _msgSender() */\n  0x20\n  shr\n  jump\t// in\ntag_16:\n    /* \"@openzeppelin/contracts/access/AccessControl.sol\":7037:7077  RoleGranted(role, account, _msgSender()) */\n  0xffffffffffffffffffffffffffffffffffffffff\n  and\n    /* \"@openzeppelin/contracts/access/AccessControl.sol\":7055:7062  account */\n  dup2\n    /* \"@openzeppelin/contracts/access/AccessControl.sol\":7037:7077  RoleGranted(role, account, _msgSender()) */\n  0xffffffffffffffffffffffffffffffffffffffff\n  and\n    /* \"@openzeppelin/contracts/access/AccessControl.sol\":7049:7053  role */\n  dup4\n    /* \"@openzeppelin/contracts/access/AccessControl.sol\":7037:7077  RoleGranted(role, account, _msgSender()) */\n  0x2f8788117e7eff1d82e926ec794901d17c78024a50270940304540a733656f0d\n  mload(0x40)\n  mload(0x40)\n  dup1\n  swap2\n  sub\n  swap1\n  log4\n    /* \"@openzeppelin/contracts/access/AccessControl.sol\":6939:7088  if (!hasRole(role, account)) {... */\ntag_15:\n    /* \"@openzeppelin/contracts/access/AccessControl.sol\":6861:7094  function _grantRole(bytes32 role, address account) internal virtual {... */\n  pop\n  pop\n  jump\t// out\n    /* \"@openzeppelin/contracts/access/AccessControl.sol\":2909:3054  function hasRole(bytes32 role, address account) public view virtual override returns (bool) {... */\ntag_14:\n    /* \"@openzeppelin/contracts/access/AccessControl.sol\":2995:2999  bool */\n  0x00\n    /* \"@openzeppelin/contracts/access/AccessControl.sol\":3018:3024  _roles */\n  0x01\n    /* \"@openzeppelin/contracts/access/AccessControl.sol\":3018:3030  _roles[role] */\n  0x00\n    /* \"@openzeppelin/contracts/access/AccessControl.sol\":3025:3029  role */\n  dup5\n    /* \"@openzeppelin/contracts/access/AccessControl.sol\":3018:3030  _roles[role] */\n  dup2\n  mstore\n  0x20\n  add\n  swap1\n  dup2\n  mstore\n  0x20\n  add\n  0x00\n  keccak256\n    /* \"@openzeppelin/contracts/access/AccessControl.sol\":3018:3038  _roles[role].members */\n  0x00\n  add\n    /* \"@openzeppelin/contracts/access/AccessControl.sol\":3018:3047  _roles[role].members[account] */\n  0x00\n    /* \"@openzeppelin/contracts/access/AccessControl.sol\":3039:3046  account */\n  dup4\n    /* \"@openzeppelin/contracts/access/AccessControl.sol\":3018:3047  _roles[role].members[account] */\n  0xffffffffffffffffffffffffffffffffffffffff\n  and\n  0xffffffffffffffffffffffffffffffffffffffff\n  and\n  dup2\n  mstore\n  0x20\n  add\n  swap1\n  dup2\n  mstore\n  0x20\n  add\n  0x00\n  keccak256\n  0x00\n  swap1\n  sload\n  swap1\n  0x0100\n  exp\n  swap1\n  div\n  0xff\n  and\n    /* \"@openzeppelin/contracts/access/AccessControl.sol\":3011:3047  return _roles[role].members[account] */\n  swap1\n  pop\n    /* \"@openzeppelin/contracts/access/AccessControl.sol\":2909:3054  function hasRole(bytes32 role, address account) public view virtual override returns (bool) {... */\n  swap3\n  swap2\n  pop\n  pop\n  jump\t// out\n    /* \"@openzeppelin/contracts/utils/Context.sol\":640:736  function _msgSender() internal view virtual returns (address) {... */\ntag_17:\n    /* \"@openzeppelin/contracts/utils/Context.sol\":693:700  address */\n  0x00\n    /* \"@openzeppelin/contracts/utils/Context.sol\":719:729  msg.sender */\n  caller\n    /* \"@openzeppelin/contracts/utils/Context.sol\":712:729  return msg.sender */\n  swap1\n  pop\n    /* \"@openzeppelin/contracts/utils/Context.sol\":640:736  function _msgSender() internal view virtual returns (address) {... */\n  swap1\n  jump\t// out\n    /* \"#utility.yul\":7:148   */\ntag_21:\n    /* \"#utility.yul\":63:68   */\n  0x00\n    /* \"#utility.yul\":94:100   */\n  dup2\n    /* \"#utility.yul\":88:101   */\n  mload\n    /* \"#utility.yul\":79:101   */\n  swap1\n  pop\n    /* \"#utility.yul\":110:142   */\n  tag_23\n    /* \"#utility.yul\":136:141   */\n  dup2\n    /* \"#utility.yul\":110:142   */\n  tag_24\n  jump\t// in\ntag_23:\n    /* \"#utility.yul\":69:148   */\n  swap3\n  swap2\n  pop\n  pop\n  jump\t// out\n    /* \"#utility.yul\":154:327   */\ntag_25:\n    /* \"#utility.yul\":226:231   */\n  0x00\n    /* \"#utility.yul\":257:263   */\n  dup2\n    /* \"#utility.yul\":251:264   */\n  mload\n    /* \"#utility.yul\":242:264   */\n  swap1\n  pop\n    /* \"#utility.yul\":273:321   */\n  tag_27\n    /* \"#utility.yul\":315:320   */\n  dup2\n    /* \"#utility.yul\":273:321   */\n  tag_28\n  jump\t// in\ntag_27:\n    /* \"#utility.yul\":232:327   */\n  swap3\n  swap2\n  pop\n  pop\n  jump\t// out\n    /* \"#utility.yul\":333:522   */\ntag_29:\n    /* \"#utility.yul\":413:418   */\n  0x00\n    /* \"#utility.yul\":444:450   */\n  dup2\n    /* \"#utility.yul\":438:451   */\n  mload\n    /* \"#utility.yul\":429:451   */\n  swap1\n  pop\n    /* \"#utility.yul\":460:516   */\n  tag_31\n    /* \"#utility.yul\":510:515   */\n  dup2\n    /* \"#utility.yul\":460:516   */\n  tag_32\n  jump\t// in\ntag_31:\n    /* \"#utility.yul\":419:522   */\n  swap3\n  swap2\n  pop\n  pop\n  jump\t// out\n    /* \"#utility.yul\":528:1198   */\ntag_3:\n    /* \"#utility.yul\":653:659   */\n  0x00\n    /* \"#utility.yul\":661:667   */\n  dup1\n    /* \"#utility.yul\":669:675   */\n  0x00\n    /* \"#utility.yul\":718:720   */\n  0x60\n    /* \"#utility.yul\":706:715   */\n  dup5\n    /* \"#utility.yul\":697:704   */\n  dup7\n    /* \"#utility.yul\":693:716   */\n  sub\n    /* \"#utility.yul\":689:721   */\n  slt\n    /* \"#utility.yul\":686:688   */\n  iszero\n  tag_34\n  jumpi\n    /* \"#utility.yul\":734:735   */\n  0x00\n    /* \"#utility.yul\":731:732   */\n  dup1\n    /* \"#utility.yul\":724:736   */\n  revert\n    /* \"#utility.yul\":686:688   */\ntag_34:\n    /* \"#utility.yul\":777:778   */\n  0x00\n    /* \"#utility.yul\":802:881   */\n  tag_35\n    /* \"#utility.yul\":873:880   */\n  dup7\n    /* \"#utility.yul\":864:870   */\n  dup3\n    /* \"#utility.yul\":853:862   */\n  dup8\n    /* \"#utility.yul\":849:871   */\n  add\n    /* \"#utility.yul\":802:881   */\n  tag_25\n  jump\t// in\ntag_35:\n    /* \"#utility.yul\":792:881   */\n  swap4\n  pop\n    /* \"#utility.yul\":748:891   */\n  pop\n    /* \"#utility.yul\":930:932   */\n  0x20\n    /* \"#utility.yul\":956:1043   */\n  tag_36\n    /* \"#utility.yul\":1035:1042   */\n  dup7\n    /* \"#utility.yul\":1026:1032   */\n  dup3\n    /* \"#utility.yul\":1015:1024   */\n  dup8\n    /* \"#utility.yul\":1011:1033   */\n  add\n    /* \"#utility.yul\":956:1043   */\n  tag_29\n  jump\t// in\ntag_36:\n    /* \"#utility.yul\":946:1043   */\n  swap3\n  pop\n    /* \"#utility.yul\":901:1053   */\n  pop\n    /* \"#utility.yul\":1092:1094   */\n  0x40\n    /* \"#utility.yul\":1118:1181   */\n  tag_37\n    /* \"#utility.yul\":1173:1180   */\n  dup7\n    /* \"#utility.yul\":1164:1170   */\n  dup3\n    /* \"#utility.yul\":1153:1162   */\n  dup8\n    /* \"#utility.yul\":1149:1171   */\n  add\n    /* \"#utility.yul\":1118:1181   */\n  tag_21\n  jump\t// in\ntag_37:\n    /* \"#utility.yul\":1108:1181   */\n  swap2\n  pop\n    /* \"#utility.yul\":1063:1191   */\n  pop\n    /* \"#utility.yul\":676:1198   */\n  swap3\n  pop\n  swap3\n  pop\n  swap3\n  jump\t// out\n    /* \"#utility.yul\":1204:1300   */\ntag_38:\n    /* \"#utility.yul\":1241:1248   */\n  0x00\n    /* \"#utility.yul\":1270:1294   */\n  tag_40\n    /* \"#utility.yul\":1288:1293   */\n  dup3\n    /* \"#utility.yul\":1270:1294   */\n  tag_41\n  jump\t// in\ntag_40:\n    /* \"#utility.yul\":1259:1294   */\n  swap1\n  pop\n    /* \"#utility.yul\":1249:1300   */\n  swap2\n  swap1\n  pop\n  jump\t// out\n    /* \"#utility.yul\":1306:1455   */\ntag_42:\n    /* \"#utility.yul\":1342:1349   */\n  0x00\n    /* \"#utility.yul\":1382:1448   */\n  0xff00000000000000000000000000000000000000000000000000000000000000\n    /* \"#utility.yul\":1375:1380   */\n  dup3\n    /* \"#utility.yul\":1371:1449   */\n  and\n    /* \"#utility.yul\":1360:1449   */\n  swap1\n  pop\n    /* \"#utility.yul\":1350:1455   */\n  swap2\n  swap1\n  pop\n  jump\t// out\n    /* \"#utility.yul\":1461:1572   */\ntag_44:\n    /* \"#utility.yul\":1513:1520   */\n  0x00\n    /* \"#utility.yul\":1542:1566   */\n  tag_46\n    /* \"#utility.yul\":1560:1565   */\n  dup3\n    /* \"#utility.yul\":1542:1566   */\n  tag_38\n  jump\t// in\ntag_46:\n    /* \"#utility.yul\":1531:1566   */\n  swap1\n  pop\n    /* \"#utility.yul\":1521:1572   */\n  swap2\n  swap1\n  pop\n  jump\t// out\n    /* \"#utility.yul\":1578:1697   */\ntag_47:\n    /* \"#utility.yul\":1638:1645   */\n  0x00\n    /* \"#utility.yul\":1667:1691   */\n  tag_49\n    /* \"#utility.yul\":1685:1690   */\n  dup3\n    /* \"#utility.yul\":1667:1691   */\n  tag_38\n  jump\t// in\ntag_49:\n    /* \"#utility.yul\":1656:1691   */\n  swap1\n  pop\n    /* \"#utility.yul\":1646:1697   */\n  swap2\n  swap1\n  pop\n  jump\t// out\n    /* \"#utility.yul\":1703:1829   */\ntag_41:\n    /* \"#utility.yul\":1740:1747   */\n  0x00\n    /* \"#utility.yul\":1780:1822   */\n  0xffffffffffffffffffffffffffffffffffffffff\n    /* \"#utility.yul\":1773:1778   */\n  dup3\n    /* \"#utility.yul\":1769:1823   */\n  and\n    /* \"#utility.yul\":1758:1823   */\n  swap1\n  pop\n    /* \"#utility.yul\":1748:1829   */\n  swap2\n  swap1\n  pop\n  jump\t// out\n    /* \"#utility.yul\":1835:1955   */\ntag_24:\n    /* \"#utility.yul\":1907:1930   */\n  tag_52\n    /* \"#utility.yul\":1924:1929   */\n  dup2\n    /* \"#utility.yul\":1907:1930   */\n  tag_42\n  jump\t// in\ntag_52:\n    /* \"#utility.yul\":1900:1905   */\n  dup2\n    /* \"#utility.yul\":1897:1931   */\n  eq\n    /* \"#utility.yul\":1887:1889   */\n  tag_53\n  jumpi\n    /* \"#utility.yul\":1945:1946   */\n  0x00\n    /* \"#utility.yul\":1942:1943   */\n  dup1\n    /* \"#utility.yul\":1935:1947   */\n  revert\n    /* \"#utility.yul\":1887:1889   */\ntag_53:\n    /* \"#utility.yul\":1877:1955   */\n  pop\n  jump\t// out\n    /* \"#utility.yul\":1961:2113   */\ntag_28:\n    /* \"#utility.yul\":2049:2088   */\n  tag_55\n    /* \"#utility.yul\":2082:2087   */\n  dup2\n    /* \"#utility.yul\":2049:2088   */\n  tag_44\n  jump\t// in\ntag_55:\n    /* \"#utility.yul\":2042:2047   */\n  dup2\n    /* \"#utility.yul\":2039:2089   */\n  eq\n    /* \"#utility.yul\":2029:2031   */\n  tag_56\n  jumpi\n    /* \"#utility.yul\":2103:2104   */\n  0x00\n    /* \"#utility.yul\":2100:2101   */\n  dup1\n    /* \"#utility.yul\":2093:2105   */\n  revert\n    /* \"#utility.yul\":2029:2031   */\ntag_56:\n    /* \"#utility.yul\":2019:2113   */\n  pop\n  jump\t// out\n    /* \"#utility.yul\":2119:2287   */\ntag_32:\n    /* \"#utility.yul\":2215:2262   */\n  tag_58\n    /* \"#utility.yul\":2256:2261   */\n  dup2\n    /* \"#utility.yul\":2215:2262   */\n  tag_47\n  jump\t// in\ntag_58:\n    /* \"#utility.yul\":2208:2213   */\n  dup2\n    /* \"#utility.yul\":2205:2263   */\n  eq\n    /* \"#utility.yul\":2195:2197   */\n  tag_59\n  jumpi\n    /* \"#utility.yul\":2277:2278   */\n  0x00\n    /* \"#utility.yul\":2274:2275   */\n  dup1\n    /* \"#utility.yul\":2267:2279   */\n  revert\n    /* \"#utility.yul\":2195:2197   */\ntag_59:\n    /* \"#utility.yul\":2185:2287   */\n  pop\n  jump\t// out\n    /* \"contracts/FinaSwap.sol\":295:4079  contract FinaSwap is Pausable, AccessControl {\r... */\ntag_11:\n  shr(0x60, mload(0x80))\n  shr(0x60, mload(0xa0))\n  shl(0xf8, shr(0xf8, mload(0xc0)))\n  codecopy(0x00, dataOffset(sub_0), dataSize(sub_0))\n  0x00\n  assignImmutable(\"0x9b0d5a2681b52b4560ba0a55dc00d44d52ed130b12e9b1ecacbe9f4e75788d40\")\n  0x00\n  assignImmutable(\"0xb0c7bc42bdbc6fc210fecd6a5f5b923061cceb0f8ca5c7d964d5c22fc0e4b0b6\")\n  0x00\n  assignImmutable(\"0x8aa1c539d88d2917ab61113c1a4fcdb5d84bdff1b85c257152c86b49e7f24537\")\n  return(0x00, dataSize(sub_0))\nstop\n\nsub_0: assembly {\n        /* \"contracts/FinaSwap.sol\":295:4079  contract FinaSwap is Pausable, AccessControl {\r... */\n      mstore(0x40, 0x80)\n      callvalue\n      dup1\n      iszero\n      tag_1\n      jumpi\n      0x00\n      dup1\n      revert\n    tag_1:\n      pop\n      jumpi(tag_2, lt(calldatasize, 0x04))\n      shr(0xe0, calldataload(0x00))\n      dup1\n      0x75b238fc\n      gt\n      tag_22\n      jumpi\n      dup1\n      0xa217fddf\n      gt\n      tag_23\n      jumpi\n      dup1\n      0xa217fddf\n      eq\n      tag_17\n      jumpi\n      dup1\n      0xc6afe01e\n      eq\n      tag_18\n      jumpi\n      dup1\n      0xc71c6490\n      eq\n      tag_19\n      jumpi\n      dup1\n      0xd547741f\n      eq\n      tag_20\n      jumpi\n      dup1\n      0xe63ab1e9\n      eq\n      tag_21\n      jumpi\n      jump(tag_2)\n    tag_23:\n      dup1\n      0x75b238fc\n      eq\n      tag_12\n      jumpi\n      dup1\n      0x78415365\n      eq\n      tag_13\n      jumpi\n      dup1\n      0x8456cb59\n      eq\n      tag_14\n      jumpi\n      dup1\n      0x91d14854\n      eq\n      tag_15\n      jumpi\n      dup1\n      0xa0d5680f\n      eq\n      tag_16\n      jumpi\n      jump(tag_2)\n    tag_22:\n      dup1\n      0x3636f669\n      gt\n      tag_24\n      jumpi\n      dup1\n      0x3636f669\n      eq\n      tag_7\n      jumpi\n      dup1\n      0x36568abe\n      eq\n      tag_8\n      jumpi\n      dup1\n      0x3f4ba83a\n      eq\n      tag_9\n      jumpi\n      dup1\n      0x5c975abb\n      eq\n      tag_10\n      jumpi\n      dup1\n      0x736c76ee\n      eq\n      tag_11\n      jumpi\n      jump(tag_2)\n    tag_24:\n      dup1\n      0x0112f541\n      eq\n      tag_3\n      jumpi\n      dup1\n      0x01ffc9a7\n      eq\n      tag_4\n      jumpi\n      dup1\n      0x248a9ca3\n      eq\n      tag_5\n      jumpi\n      dup1\n      0x2f2ff15d\n      eq\n      tag_6\n      jumpi\n    tag_2:\n      0x00\n      dup1\n      revert\n        /* \"contracts/FinaSwap.sol\":3639:3761  function addSwappedBalance(uint256 balance) public onlyRole(ADMIN_ROLE)\r... */\n    tag_3:\n      tag_25\n      0x04\n      dup1\n      calldatasize\n      sub\n      dup2\n      add\n      swap1\n      tag_26\n      swap2\n      swap1\n      tag_27\n      jump\t// in\n    tag_26:\n      tag_28\n      jump\t// in\n    tag_25:\n      stop\n        /* \"@openzeppelin/contracts/access/AccessControl.sol\":2620:2822  function supportsInterface(bytes4 interfaceId) public view virtual override returns (bool) {... */\n    tag_4:\n      tag_29\n      0x04\n      dup1\n      calldatasize\n      sub\n      dup2\n      add\n      swap1\n      tag_30\n      swap2\n      swap1\n      tag_31\n      jump\t// in\n    tag_30:\n      tag_32\n      jump\t// in\n    tag_29:\n      mload(0x40)\n      tag_33\n      swap2\n      swap1\n      tag_34\n      jump\t// in\n    tag_33:\n      mload(0x40)\n      dup1\n      swap2\n      sub\n      swap1\n      return\n        /* \"@openzeppelin/contracts/access/AccessControl.sol\":4008:4137  function getRoleAdmin(bytes32 role) public view virtual override returns (bytes32) {... */\n    tag_5:\n      tag_35\n      0x04\n      dup1\n      calldatasize\n      sub\n      dup2\n      add\n      swap1\n      tag_36\n      swap2\n      swap1\n      tag_37\n      jump\t// in\n    tag_36:\n      tag_38\n      jump\t// in\n    tag_35:\n      mload(0x40)\n      tag_39\n      swap2\n      swap1\n      tag_40\n      jump\t// in\n    tag_39:\n      mload(0x40)\n      dup1\n      swap2\n      sub\n      swap1\n      return\n        /* \"@openzeppelin/contracts/access/AccessControl.sol\":4387:4532  function grantRole(bytes32 role, address account) public virtual override onlyRole(getRoleAdmin(role)) {... */\n    tag_6:\n      tag_41\n      0x04\n      dup1\n      calldatasize\n      sub\n      dup2\n      add\n      swap1\n      tag_42\n      swap2\n      swap1\n      tag_43\n      jump\t// in\n    tag_42:\n      tag_44\n      jump\t// in\n    tag_41:\n      stop\n        /* \"contracts/FinaSwap.sol\":3275:3392  function removeBalance(bytes memory source) public onlyRole(ADMIN_ROLE)\r... */\n    tag_7:\n      tag_45\n      0x04\n      dup1\n      calldatasize\n      sub\n      dup2\n      add\n      swap1\n      tag_46\n      swap2\n      swap1\n      tag_47\n      jump\t// in\n    tag_46:\n      tag_48\n      jump\t// in\n    tag_45:\n      stop\n        /* \"@openzeppelin/contracts/access/AccessControl.sol\":5404:5618  function renounceRole(bytes32 role, address account) public virtual override {... */\n    tag_8:\n      tag_49\n      0x04\n      dup1\n      calldatasize\n      sub\n      dup2\n      add\n      swap1\n      tag_50\n      swap2\n      swap1\n      tag_43\n      jump\t// in\n    tag_50:\n      tag_51\n      jump\t// in\n    tag_49:\n      stop\n        /* \"contracts/FinaSwap.sol\":3995:4072  function unpause() public onlyRole(PAUSER_ROLE) {\r... */\n    tag_9:\n      tag_52\n      tag_53\n      jump\t// in\n    tag_52:\n      stop\n        /* \"@openzeppelin/contracts/security/Pausable.sol\":1098:1182  function paused() public view virtual returns (bool) {... */\n    tag_10:\n      tag_54\n      tag_55\n      jump\t// in\n    tag_54:\n      mload(0x40)\n      tag_56\n      swap2\n      swap1\n      tag_34\n      jump\t// in\n    tag_56:\n      mload(0x40)\n      dup1\n      swap2\n      sub\n      swap1\n      return\n        /* \"contracts/FinaSwap.sol\":1057:3122  function claim(address target, bytes32 hash, bytes memory signature) public whenNotPaused\r... */\n    tag_11:\n      tag_57\n      0x04\n      dup1\n      calldatasize\n      sub\n      dup2\n      add\n      swap1\n      tag_58\n      swap2\n      swap1\n      tag_59\n      jump\t// in\n    tag_58:\n      tag_60\n      jump\t// in\n    tag_57:\n      stop\n        /* \"contracts/FinaSwap.sol\":347:407  bytes32 public constant ADMIN_ROLE = keccak256(\"ADMIN_ROLE\") */\n    tag_12:\n      tag_61\n      tag_62\n      jump\t// in\n    tag_61:\n      mload(0x40)\n      tag_63\n      swap2\n      swap1\n      tag_40\n      jump\t// in\n    tag_63:\n      mload(0x40)\n      dup1\n      swap2\n      sub\n      swap1\n      return\n        /* \"contracts/FinaSwap.sol\":3400:3518  function balanceOf(bytes memory source) public view returns (uint256)\r... */\n    tag_13:\n      tag_64\n      0x04\n      dup1\n      calldatasize\n      sub\n      dup2\n      add\n      swap1\n      tag_65\n      swap2\n      swap1\n      tag_47\n      jump\t// in\n    tag_65:\n      tag_66\n      jump\t// in\n    tag_64:\n      mload(0x40)\n      tag_67\n      swap2\n      swap1\n      tag_68\n      jump\t// in\n    tag_67:\n      mload(0x40)\n      dup1\n      swap2\n      sub\n      swap1\n      return\n        /* \"contracts/FinaSwap.sol\":3914:3987  function pause() public onlyRole(PAUSER_ROLE) {\r... */\n    tag_14:\n      tag_69\n      tag_70\n      jump\t// in\n    tag_69:\n      stop\n        /* \"@openzeppelin/contracts/access/AccessControl.sol\":2909:3054  function hasRole(bytes32 role, address account) public view virtual override returns (bool) {... */\n    tag_15:\n      tag_71\n      0x04\n      dup1\n      calldatasize\n      sub\n      dup2\n      add\n      swap1\n      tag_72\n      swap2\n      swap1\n      tag_43\n      jump\t// in\n    tag_72:\n      tag_73\n      jump\t// in\n    tag_71:\n      mload(0x40)\n      tag_74\n      swap2\n      swap1\n      tag_34\n      jump\t// in\n    tag_74:\n      mload(0x40)\n      dup1\n      swap2\n      sub\n      swap1\n      return\n        /* \"contracts/FinaSwap.sol\":3526:3631  function getSwappedBalance() public view returns (uint256)\r... */\n    tag_16:\n      tag_75\n      tag_76\n      jump\t// in\n    tag_75:\n      mload(0x40)\n      tag_77\n      swap2\n      swap1\n      tag_68\n      jump\t// in\n    tag_77:\n      mload(0x40)\n      dup1\n      swap2\n      sub\n      swap1\n      return\n        /* \"@openzeppelin/contracts/access/AccessControl.sol\":2027:2076  bytes32 public constant DEFAULT_ADMIN_ROLE = 0x00 */\n    tag_17:\n      tag_78\n      tag_79\n      jump\t// in\n    tag_78:\n      mload(0x40)\n      tag_80\n      swap2\n      swap1\n      tag_40\n      jump\t// in\n    tag_80:\n      mload(0x40)\n      dup1\n      swap2\n      sub\n      swap1\n      return\n        /* \"contracts/FinaSwap.sol\":3773:3898  function removeSwappedBalance(uint256 balance) public onlyRole(ADMIN_ROLE)\r... */\n    tag_18:\n      tag_81\n      0x04\n      dup1\n      calldatasize\n      sub\n      dup2\n      add\n      swap1\n      tag_82\n      swap2\n      swap1\n      tag_27\n      jump\t// in\n    tag_82:\n      tag_83\n      jump\t// in\n    tag_81:\n      stop\n        /* \"contracts/FinaSwap.sol\":3130:3267  function addBalance(bytes memory source, uint256 balance) public onlyRole(ADMIN_ROLE)\r... */\n    tag_19:\n      tag_84\n      0x04\n      dup1\n      calldatasize\n      sub\n      dup2\n      add\n      swap1\n      tag_85\n      swap2\n      swap1\n      tag_86\n      jump\t// in\n    tag_85:\n      tag_87\n      jump\t// in\n    tag_84:\n      stop\n        /* \"@openzeppelin/contracts/access/AccessControl.sol\":4766:4913  function revokeRole(bytes32 role, address account) public virtual override onlyRole(getRoleAdmin(role)) {... */\n    tag_20:\n      tag_88\n      0x04\n      dup1\n      calldatasize\n      sub\n      dup2\n      add\n      swap1\n      tag_89\n      swap2\n      swap1\n      tag_43\n      jump\t// in\n    tag_89:\n      tag_90\n      jump\t// in\n    tag_88:\n      stop\n        /* \"contracts/FinaSwap.sol\":414:476  bytes32 public constant PAUSER_ROLE = keccak256(\"PAUSER_ROLE\") */\n    tag_21:\n      tag_91\n      tag_92\n      jump\t// in\n    tag_91:\n      mload(0x40)\n      tag_93\n      swap2\n      swap1\n      tag_40\n      jump\t// in\n    tag_93:\n      mload(0x40)\n      dup1\n      swap2\n      sub\n      swap1\n      return\n        /* \"contracts/FinaSwap.sol\":3639:3761  function addSwappedBalance(uint256 balance) public onlyRole(ADMIN_ROLE)\r... */\n    tag_28:\n        /* \"contracts/FinaSwap.sol\":384:407  keccak256(\"ADMIN_ROLE\") */\n      0xa49807205ce4d355092ef5a8a18f56e8913cf4a201fbe287825b095693c21775\n        /* \"@openzeppelin/contracts/access/AccessControl.sol\":2505:2535  _checkRole(role, _msgSender()) */\n      tag_95\n        /* \"@openzeppelin/contracts/access/AccessControl.sol\":2516:2520  role */\n      dup2\n        /* \"@openzeppelin/contracts/access/AccessControl.sol\":2522:2534  _msgSender() */\n      tag_96\n        /* \"@openzeppelin/contracts/access/AccessControl.sol\":2522:2532  _msgSender */\n      tag_97\n        /* \"@openzeppelin/contracts/access/AccessControl.sol\":2522:2534  _msgSender() */\n      jump\t// in\n    tag_96:\n        /* \"@openzeppelin/contracts/access/AccessControl.sol\":2505:2515  _checkRole */\n      tag_98\n        /* \"@openzeppelin/contracts/access/AccessControl.sol\":2505:2535  _checkRole(role, _msgSender()) */\n      jump\t// in\n    tag_95:\n        /* \"contracts/FinaSwap.sol\":3746:3753  balance */\n      dup2\n        /* \"contracts/FinaSwap.sol\":3727:3742  _swappedBalance */\n      0x03\n      0x00\n        /* \"contracts/FinaSwap.sol\":3727:3753  _swappedBalance += balance */\n      dup3\n      dup3\n      sload\n      tag_100\n      swap2\n      swap1\n      tag_101\n      jump\t// in\n    tag_100:\n      swap3\n      pop\n      pop\n      dup2\n      swap1\n      sstore\n      pop\n        /* \"contracts/FinaSwap.sol\":3639:3761  function addSwappedBalance(uint256 balance) public onlyRole(ADMIN_ROLE)\r... */\n      pop\n      pop\n      jump\t// out\n        /* \"@openzeppelin/contracts/access/AccessControl.sol\":2620:2822  function supportsInterface(bytes4 interfaceId) public view virtual override returns (bool) {... */\n    tag_32:\n        /* \"@openzeppelin/contracts/access/AccessControl.sol\":2705:2709  bool */\n      0x00\n        /* \"@openzeppelin/contracts/access/AccessControl.sol\":2743:2775  type(IAccessControl).interfaceId */\n      0x7965db0b00000000000000000000000000000000000000000000000000000000\n        /* \"@openzeppelin/contracts/access/AccessControl.sol\":2728:2775  interfaceId == type(IAccessControl).interfaceId */\n      not(0xffffffffffffffffffffffffffffffffffffffffffffffffffffffff)\n      and\n        /* \"@openzeppelin/contracts/access/AccessControl.sol\":2728:2739  interfaceId */\n      dup3\n        /* \"@openzeppelin/contracts/access/AccessControl.sol\":2728:2775  interfaceId == type(IAccessControl).interfaceId */\n      not(0xffffffffffffffffffffffffffffffffffffffffffffffffffffffff)\n      and\n      eq\n        /* \"@openzeppelin/contracts/access/AccessControl.sol\":2728:2815  interfaceId == type(IAccessControl).interfaceId || super.supportsInterface(interfaceId) */\n      dup1\n      tag_103\n      jumpi\n      pop\n        /* \"@openzeppelin/contracts/access/AccessControl.sol\":2779:2815  super.supportsInterface(interfaceId) */\n      tag_104\n        /* \"@openzeppelin/contracts/access/AccessControl.sol\":2803:2814  interfaceId */\n      dup3\n        /* \"@openzeppelin/contracts/access/AccessControl.sol\":2779:2802  super.supportsInterface */\n      tag_105\n        /* \"@openzeppelin/contracts/access/AccessControl.sol\":2779:2815  super.supportsInterface(interfaceId) */\n      jump\t// in\n    tag_104:\n        /* \"@openzeppelin/contracts/access/AccessControl.sol\":2728:2815  interfaceId == type(IAccessControl).interfaceId || super.supportsInterface(interfaceId) */\n    tag_103:\n        /* \"@openzeppelin/contracts/access/AccessControl.sol\":2721:2815  return interfaceId == type(IAccessControl).interfaceId || super.supportsInterface(interfaceId) */\n      swap1\n      pop\n        /* \"@openzeppelin/contracts/access/AccessControl.sol\":2620:2822  function supportsInterface(bytes4 interfaceId) public view virtual override returns (bool) {... */\n      swap2\n      swap1\n      pop\n      jump\t// out\n        /* \"@openzeppelin/contracts/access/AccessControl.sol\":4008:4137  function getRoleAdmin(bytes32 role) public view virtual override returns (bytes32) {... */\n    tag_38:\n        /* \"@openzeppelin/contracts/access/AccessControl.sol\":4082:4089  bytes32 */\n      0x00\n        /* \"@openzeppelin/contracts/access/AccessControl.sol\":4108:4114  _roles */\n      0x01\n        /* \"@openzeppelin/contracts/access/AccessControl.sol\":4108:4120  _roles[role] */\n      0x00\n        /* \"@openzeppelin/contracts/access/AccessControl.sol\":4115:4119  role */\n      dup4\n        /* \"@openzeppelin/contracts/access/AccessControl.sol\":4108:4120  _roles[role] */\n      dup2\n      mstore\n      0x20\n      add\n      swap1\n      dup2\n      mstore\n      0x20\n      add\n      0x00\n      keccak256\n        /* \"@openzeppelin/contracts/access/AccessControl.sol\":4108:4130  _roles[role].adminRole */\n      0x01\n      add\n      sload\n        /* \"@openzeppelin/contracts/access/AccessControl.sol\":4101:4130  return _roles[role].adminRole */\n      swap1\n      pop\n        /* \"@openzeppelin/contracts/access/AccessControl.sol\":4008:4137  function getRoleAdmin(bytes32 role) public view virtual override returns (bytes32) {... */\n      swap2\n      swap1\n      pop\n      jump\t// out\n        /* \"@openzeppelin/contracts/access/AccessControl.sol\":4387:4532  function grantRole(bytes32 role, address account) public virtual override onlyRole(getRoleAdmin(role)) {... */\n    tag_44:\n        /* \"@openzeppelin/contracts/access/AccessControl.sol\":4470:4488  getRoleAdmin(role) */\n      tag_107\n        /* \"@openzeppelin/contracts/access/AccessControl.sol\":4483:4487  role */\n      dup3\n        /* \"@openzeppelin/contracts/access/AccessControl.sol\":4470:4482  getRoleAdmin */\n      tag_38\n        /* \"@openzeppelin/contracts/access/AccessControl.sol\":4470:4488  getRoleAdmin(role) */\n      jump\t// in\n    tag_107:\n        /* \"@openzeppelin/contracts/access/AccessControl.sol\":2505:2535  _checkRole(role, _msgSender()) */\n      tag_109\n        /* \"@openzeppelin/contracts/access/AccessControl.sol\":2516:2520  role */\n      dup2\n        /* \"@openzeppelin/contracts/access/AccessControl.sol\":2522:2534  _msgSender() */\n      tag_110\n        /* \"@openzeppelin/contracts/access/AccessControl.sol\":2522:2532  _msgSender */\n      tag_97\n        /* \"@openzeppelin/contracts/access/AccessControl.sol\":2522:2534  _msgSender() */\n      jump\t// in\n    tag_110:\n        /* \"@openzeppelin/contracts/access/AccessControl.sol\":2505:2515  _checkRole */\n      tag_98\n        /* \"@openzeppelin/contracts/access/AccessControl.sol\":2505:2535  _checkRole(role, _msgSender()) */\n      jump\t// in\n    tag_109:\n        /* \"@openzeppelin/contracts/access/AccessControl.sol\":4500:4525  _grantRole(role, account) */\n      tag_112\n        /* \"@openzeppelin/contracts/access/AccessControl.sol\":4511:4515  role */\n      dup4\n        /* \"@openzeppelin/contracts/access/AccessControl.sol\":4517:4524  account */\n      dup4\n        /* \"@openzeppelin/contracts/access/AccessControl.sol\":4500:4510  _grantRole */\n      tag_113\n        /* \"@openzeppelin/contracts/access/AccessControl.sol\":4500:4525  _grantRole(role, account) */\n      jump\t// in\n    tag_112:\n        /* \"@openzeppelin/contracts/access/AccessControl.sol\":4387:4532  function grantRole(bytes32 role, address account) public virtual override onlyRole(getRoleAdmin(role)) {... */\n      pop\n      pop\n      pop\n      jump\t// out\n        /* \"contracts/FinaSwap.sol\":3275:3392  function removeBalance(bytes memory source) public onlyRole(ADMIN_ROLE)\r... */\n    tag_48:\n        /* \"contracts/FinaSwap.sol\":384:407  keccak256(\"ADMIN_ROLE\") */\n      0xa49807205ce4d355092ef5a8a18f56e8913cf4a201fbe287825b095693c21775\n        /* \"@openzeppelin/contracts/access/AccessControl.sol\":2505:2535  _checkRole(role, _msgSender()) */\n      tag_115\n        /* \"@openzeppelin/contracts/access/AccessControl.sol\":2516:2520  role */\n      dup2\n        /* \"@openzeppelin/contracts/access/AccessControl.sol\":2522:2534  _msgSender() */\n      tag_116\n        /* \"@openzeppelin/contracts/access/AccessControl.sol\":2522:2532  _msgSender */\n      tag_97\n        /* \"@openzeppelin/contracts/access/AccessControl.sol\":2522:2534  _msgSender() */\n      jump\t// in\n    tag_116:\n        /* \"@openzeppelin/contracts/access/AccessControl.sol\":2505:2515  _checkRole */\n      tag_98\n        /* \"@openzeppelin/contracts/access/AccessControl.sol\":2505:2535  _checkRole(role, _msgSender()) */\n      jump\t// in\n    tag_115:\n        /* \"contracts/FinaSwap.sol\":3383:3384  0 */\n      0x00\n        /* \"contracts/FinaSwap.sol\":3363:3372  _balances */\n      0x02\n        /* \"contracts/FinaSwap.sol\":3373:3379  source */\n      dup4\n        /* \"contracts/FinaSwap.sol\":3363:3380  _balances[source] */\n      mload(0x40)\n      tag_118\n      swap2\n      swap1\n      tag_119\n      jump\t// in\n    tag_118:\n      swap1\n      dup2\n      mstore\n      0x20\n      add\n      mload(0x40)\n      dup1\n      swap2\n      sub\n      swap1\n      keccak256\n        /* \"contracts/FinaSwap.sol\":3363:3384  _balances[source] = 0 */\n      dup2\n      swap1\n      sstore\n      pop\n        /* \"contracts/FinaSwap.sol\":3275:3392  function removeBalance(bytes memory source) public onlyRole(ADMIN_ROLE)\r... */\n      pop\n      pop\n      jump\t// out\n        /* \"@openzeppelin/contracts/access/AccessControl.sol\":5404:5618  function renounceRole(bytes32 role, address account) public virtual override {... */\n    tag_51:\n        /* \"@openzeppelin/contracts/access/AccessControl.sol\":5510:5522  _msgSender() */\n      tag_121\n        /* \"@openzeppelin/contracts/access/AccessControl.sol\":5510:5520  _msgSender */\n      tag_97\n        /* \"@openzeppelin/contracts/access/AccessControl.sol\":5510:5522  _msgSender() */\n      jump\t// in\n    tag_121:\n        /* \"@openzeppelin/contracts/access/AccessControl.sol\":5499:5522  account == _msgSender() */\n      0xffffffffffffffffffffffffffffffffffffffff\n      and\n        /* \"@openzeppelin/contracts/access/AccessControl.sol\":5499:5506  account */\n      dup2\n        /* \"@openzeppelin/contracts/access/AccessControl.sol\":5499:5522  account == _msgSender() */\n      0xffffffffffffffffffffffffffffffffffffffff\n      and\n      eq\n        /* \"@openzeppelin/contracts/access/AccessControl.sol\":5491:5574  require(account == _msgSender(), \"AccessControl: can only renounce roles for self\") */\n      tag_122\n      jumpi\n      mload(0x40)\n      0x08c379a000000000000000000000000000000000000000000000000000000000\n      dup2\n      mstore\n      0x04\n      add\n      tag_123\n      swap1\n      tag_124\n      jump\t// in\n    tag_123:\n      mload(0x40)\n      dup1\n      swap2\n      sub\n      swap1\n      revert\n    tag_122:\n        /* \"@openzeppelin/contracts/access/AccessControl.sol\":5585:5611  _revokeRole(role, account) */\n      tag_125\n        /* \"@openzeppelin/contracts/access/AccessControl.sol\":5597:5601  role */\n      dup3\n        /* \"@openzeppelin/contracts/access/AccessControl.sol\":5603:5610  account */\n      dup3\n        /* \"@openzeppelin/contracts/access/AccessControl.sol\":5585:5596  _revokeRole */\n      tag_126\n        /* \"@openzeppelin/contracts/access/AccessControl.sol\":5585:5611  _revokeRole(role, account) */\n      jump\t// in\n    tag_125:\n        /* \"@openzeppelin/contracts/access/AccessControl.sol\":5404:5618  function renounceRole(bytes32 role, address account) public virtual override {... */\n      pop\n      pop\n      jump\t// out\n        /* \"contracts/FinaSwap.sol\":3995:4072  function unpause() public onlyRole(PAUSER_ROLE) {\r... */\n    tag_53:\n        /* \"contracts/FinaSwap.sol\":452:476  keccak256(\"PAUSER_ROLE\") */\n      0x65d7a28e3265b37a6474929f336521b332c1681b933f6cb9f3376673440d862a\n        /* \"@openzeppelin/contracts/access/AccessControl.sol\":2505:2535  _checkRole(role, _msgSender()) */\n      tag_128\n        /* \"@openzeppelin/contracts/access/AccessControl.sol\":2516:2520  role */\n      dup2\n        /* \"@openzeppelin/contracts/access/AccessControl.sol\":2522:2534  _msgSender() */\n      tag_129\n        /* \"@openzeppelin/contracts/access/AccessControl.sol\":2522:2532  _msgSender */\n      tag_97\n        /* \"@openzeppelin/contracts/access/AccessControl.sol\":2522:2534  _msgSender() */\n      jump\t// in\n    tag_129:\n        /* \"@openzeppelin/contracts/access/AccessControl.sol\":2505:2515  _checkRole */\n      tag_98\n        /* \"@openzeppelin/contracts/access/AccessControl.sol\":2505:2535  _checkRole(role, _msgSender()) */\n      jump\t// in\n    tag_128:\n        /* \"contracts/FinaSwap.sol\":4054:4064  _unpause() */\n      tag_131\n        /* \"contracts/FinaSwap.sol\":4054:4062  _unpause */\n      tag_132\n        /* \"contracts/FinaSwap.sol\":4054:4064  _unpause() */\n      jump\t// in\n    tag_131:\n        /* \"contracts/FinaSwap.sol\":3995:4072  function unpause() public onlyRole(PAUSER_ROLE) {\r... */\n      pop\n      jump\t// out\n        /* \"@openzeppelin/contracts/security/Pausable.sol\":1098:1182  function paused() public view virtual returns (bool) {... */\n    tag_55:\n        /* \"@openzeppelin/contracts/security/Pausable.sol\":1145:1149  bool */\n      0x00\n        /* \"@openzeppelin/contracts/security/Pausable.sol\":1168:1175  _paused */\n      dup1\n      0x00\n      swap1\n      sload\n      swap1\n      0x0100\n      exp\n      swap1\n      div\n      0xff\n      and\n        /* \"@openzeppelin/contracts/security/Pausable.sol\":1161:1175  return _paused */\n      swap1\n      pop\n        /* \"@openzeppelin/contracts/security/Pausable.sol\":1098:1182  function paused() public view virtual returns (bool) {... */\n      swap1\n      jump\t// out\n        /* \"contracts/FinaSwap.sol\":1057:3122  function claim(address target, bytes32 hash, bytes memory signature) public whenNotPaused\r... */\n    tag_60:\n        /* \"@openzeppelin/contracts/security/Pausable.sol\":1412:1420  paused() */\n      tag_135\n        /* \"@openzeppelin/contracts/security/Pausable.sol\":1412:1418  paused */\n      tag_55\n        /* \"@openzeppelin/contracts/security/Pausable.sol\":1412:1420  paused() */\n      jump\t// in\n    tag_135:\n        /* \"@openzeppelin/contracts/security/Pausable.sol\":1411:1420  !paused() */\n      iszero\n        /* \"@openzeppelin/contracts/security/Pausable.sol\":1403:1441  require(!paused(), \"Pausable: paused\") */\n      tag_136\n      jumpi\n      mload(0x40)\n      0x08c379a000000000000000000000000000000000000000000000000000000000\n      dup2\n      mstore\n      0x04\n      add\n      tag_137\n      swap1\n      tag_138\n      jump\t// in\n    tag_137:\n      mload(0x40)\n      dup1\n      swap2\n      sub\n      swap1\n      revert\n    tag_136:\n        /* \"contracts/FinaSwap.sol\":1189:1190  0 */\n      0x00\n        /* \"contracts/FinaSwap.sol\":1171:1191  target != address(0) */\n      0xffffffffffffffffffffffffffffffffffffffff\n      and\n        /* \"contracts/FinaSwap.sol\":1171:1177  target */\n      dup4\n        /* \"contracts/FinaSwap.sol\":1171:1191  target != address(0) */\n      0xffffffffffffffffffffffffffffffffffffffff\n      and\n      eq\n      iszero\n        /* \"contracts/FinaSwap.sol\":1163:1240  require(target != address(0), \"FinaSwap:claim Target address cannot be zero\") */\n      tag_140\n      jumpi\n      mload(0x40)\n      0x08c379a000000000000000000000000000000000000000000000000000000000\n      dup2\n      mstore\n      0x04\n      add\n      tag_141\n      swap1\n      tag_142\n      jump\t// in\n    tag_141:\n      mload(0x40)\n      dup1\n      swap2\n      sub\n      swap1\n      revert\n    tag_140:\n        /* \"contracts/FinaSwap.sol\":1270:1271  0 */\n      0x00\n        /* \"contracts/FinaSwap.sol\":1259:1271  hash[0] != 0 */\n      0xf8\n      shl\n        /* \"contracts/FinaSwap.sol\":1259:1263  hash */\n      dup3\n        /* \"contracts/FinaSwap.sol\":1264:1265  0 */\n      0x00\n        /* \"contracts/FinaSwap.sol\":1259:1266  hash[0] */\n      0x20\n      dup2\n      lt\n      tag_143\n      jumpi\n      mstore(0x00, 0x4e487b7100000000000000000000000000000000000000000000000000000000)\n      mstore(0x04, 0x32)\n      revert(0x00, 0x24)\n    tag_143:\n      byte\n      0xf8\n      shl\n        /* \"contracts/FinaSwap.sol\":1259:1271  hash[0] != 0 */\n      not(0xffffffffffffffffffffffffffffffffffffffffffffffffffffffffffffff)\n      and\n      eq\n      iszero\n        /* \"contracts/FinaSwap.sol\":1251:1317  require(hash[0] != 0, \"FinaSwap:claim Signature hash is required\") */\n      tag_144\n      jumpi\n      mload(0x40)\n      0x08c379a000000000000000000000000000000000000000000000000000000000\n      dup2\n      mstore\n      0x04\n      add\n      tag_145\n      swap1\n      tag_146\n      jump\t// in\n    tag_145:\n      mload(0x40)\n      dup1\n      swap2\n      sub\n      swap1\n      revert\n    tag_144:\n        /* \"contracts/FinaSwap.sol\":1356:1358  65 */\n      0x41\n        /* \"contracts/FinaSwap.sol\":1336:1345  signature */\n      dup2\n        /* \"contracts/FinaSwap.sol\":1336:1352  signature.length */\n      mload\n        /* \"contracts/FinaSwap.sol\":1336:1358  signature.length == 65 */\n      eq\n        /* \"contracts/FinaSwap.sol\":1328:1442  require(signature.length == 65, \"FinaSwap:claim Invalid signature length. The signature must be exactly 65 bytes\") */\n      tag_147\n      jumpi\n      mload(0x40)\n      0x08c379a000000000000000000000000000000000000000000000000000000000\n      dup2\n      mstore\n      0x04\n      add\n      tag_148\n      swap1\n      tag_149\n      jump\t// in\n    tag_148:\n      mload(0x40)\n      dup1\n      swap2\n      sub\n      swap1\n      revert\n    tag_147:\n        /* \"contracts/FinaSwap.sol\":1508:1530  bytes memory publicKey */\n      0x00\n        /* \"contracts/FinaSwap.sol\":1533:1539  _ecdsa */\n      immutable(\"0x8aa1c539d88d2917ab61113c1a4fcdb5d84bdff1b85c257152c86b49e7f24537\")\n        /* \"contracts/FinaSwap.sol\":1533:1547  _ecdsa.recover */\n      0xffffffffffffffffffffffffffffffffffffffff\n      and\n      0x19045a25\n        /* \"contracts/FinaSwap.sol\":1548:1552  hash */\n      dup5\n        /* \"contracts/FinaSwap.sol\":1554:1563  signature */\n      dup5\n        /* \"contracts/FinaSwap.sol\":1533:1564  _ecdsa.recover(hash, signature) */\n      mload(0x40)\n      dup4\n      0xffffffff\n      and\n      0xe0\n      shl\n      dup2\n      mstore\n      0x04\n      add\n      tag_150\n      swap3\n      swap2\n      swap1\n      tag_151\n      jump\t// in\n    tag_150:\n      0x00\n      mload(0x40)\n      dup1\n      dup4\n      sub\n      dup2\n      dup7\n      dup1\n      extcodesize\n      iszero\n      dup1\n      iszero\n      tag_152\n      jumpi\n      0x00\n      dup1\n      revert\n    tag_152:\n      pop\n      gas\n      staticcall\n      iszero\n      dup1\n      iszero\n      tag_154\n      jumpi\n      returndatasize\n      0x00\n      dup1\n      returndatacopy\n      revert(0x00, returndatasize)\n    tag_154:\n      pop\n      pop\n      pop\n      pop\n      mload(0x40)\n      returndatasize\n      0x00\n      dup3\n      returndatacopy\n      returndatasize\n      not(0x1f)\n      0x1f\n      dup3\n      add\n      and\n      dup3\n      add\n      dup1\n      0x40\n      mstore\n      pop\n      dup2\n      add\n      swap1\n      tag_155\n      swap2\n      swap1\n      tag_156\n      jump\t// in\n    tag_155:\n        /* \"contracts/FinaSwap.sol\":1508:1564  bytes memory publicKey = _ecdsa.recover(hash, signature) */\n      swap1\n      pop\n        /* \"contracts/FinaSwap.sol\":1675:1677  33 */\n      0x21\n        /* \"contracts/FinaSwap.sol\":1655:1664  publicKey */\n      dup2\n        /* \"contracts/FinaSwap.sol\":1655:1671  publicKey.length */\n      mload\n        /* \"contracts/FinaSwap.sol\":1655:1677  publicKey.length == 33 */\n      eq\n        /* \"contracts/FinaSwap.sol\":1647:1765  require(publicKey.length == 33, \"FinaSwap:claim Invalid signature. The recovered public key must be exactly 33 bytes\") */\n      tag_157\n      jumpi\n      mload(0x40)\n      0x08c379a000000000000000000000000000000000000000000000000000000000\n      dup2\n      mstore\n      0x04\n      add\n      tag_158\n      swap1\n      tag_159\n      jump\t// in\n    tag_158:\n      mload(0x40)\n      dup1\n      swap2\n      sub\n      swap1\n      revert\n    tag_157:\n        /* \"contracts/FinaSwap.sol\":1839:1866  bytes32 publicKeySha256Hash */\n      0x00\n        /* \"contracts/FinaSwap.sol\":1869:1886  sha256(publicKey) */\n      0x02\n        /* \"contracts/FinaSwap.sol\":1876:1885  publicKey */\n      dup3\n        /* \"contracts/FinaSwap.sol\":1869:1886  sha256(publicKey) */\n      mload(0x40)\n      tag_160\n      swap2\n      swap1\n      tag_119\n      jump\t// in\n    tag_160:\n      0x20\n      mload(0x40)\n      dup1\n      dup4\n      sub\n      dup2\n      dup6\n      gas\n      staticcall\n      iszero\n      dup1\n      iszero\n      tag_162\n      jumpi\n      returndatasize\n      0x00\n      dup1\n      returndatacopy\n      revert(0x00, returndatasize)\n    tag_162:\n      pop\n      pop\n      pop\n      mload(0x40)\n      returndatasize\n      not(0x1f)\n      0x1f\n      dup3\n      add\n      and\n      dup3\n      add\n      dup1\n      0x40\n      mstore\n      pop\n      dup2\n      add\n      swap1\n      tag_163\n      swap2\n      swap1\n      tag_164\n      jump\t// in\n    tag_163:\n        /* \"contracts/FinaSwap.sol\":1839:1886  bytes32 publicKeySha256Hash = sha256(publicKey) */\n      swap1\n      pop\n        /* \"contracts/FinaSwap.sol\":1983:2016  bytes memory publicKeyRipe160Hash */\n      0x00\n        /* \"contracts/FinaSwap.sol\":2036:2084  ripemd160(abi.encodePacked(publicKeySha256Hash)) */\n      0x03\n        /* \"contracts/FinaSwap.sol\":2063:2082  publicKeySha256Hash */\n      dup3\n        /* \"contracts/FinaSwap.sol\":2046:2083  abi.encodePacked(publicKeySha256Hash) */\n      add(0x20, mload(0x40))\n      tag_165\n      swap2\n      swap1\n      tag_166\n      jump\t// in\n    tag_165:\n      mload(0x40)\n      0x20\n      dup2\n      dup4\n      sub\n      sub\n      dup2\n      mstore\n      swap1\n      0x40\n      mstore\n        /* \"contracts/FinaSwap.sol\":2036:2084  ripemd160(abi.encodePacked(publicKeySha256Hash)) */\n      mload(0x40)\n      tag_167\n      swap2\n      swap1\n      tag_119\n      jump\t// in\n    tag_167:\n      0x20\n      mload(0x40)\n      dup1\n      dup4\n      sub\n      dup2\n      dup6\n      gas\n      staticcall\n      iszero\n      dup1\n      iszero\n      tag_169\n      jumpi\n      returndatasize\n      0x00\n      dup1\n      returndatacopy\n      revert(0x00, returndatasize)\n    tag_169:\n      pop\n      pop\n      pop\n      shl(0x60, mload(mload(0x40)))\n        /* \"contracts/FinaSwap.sol\":2019:2085  abi.encodePacked(ripemd160(abi.encodePacked(publicKeySha256Hash))) */\n      add(0x20, mload(0x40))\n      tag_170\n      swap2\n      swap1\n      tag_171\n      jump\t// in\n    tag_170:\n      mload(0x40)\n      0x20\n      dup2\n      dup4\n      sub\n      sub\n      dup2\n      mstore\n      swap1\n      0x40\n      mstore\n        /* \"contracts/FinaSwap.sol\":1983:2085  bytes memory publicKeyRipe160Hash = abi.encodePacked(ripemd160(abi.encodePacked(publicKeySha256Hash))) */\n      swap1\n      pop\n        /* \"contracts/FinaSwap.sol\":2153:2187  bytes memory publicKeyPrefixedHash */\n      0x00\n        /* \"contracts/FinaSwap.sol\":2203:2210  _prefix */\n      immutable(\"0x9b0d5a2681b52b4560ba0a55dc00d44d52ed130b12e9b1ecacbe9f4e75788d40\")\n        /* \"contracts/FinaSwap.sol\":2212:2232  publicKeyRipe160Hash */\n      dup3\n        /* \"contracts/FinaSwap.sol\":2190:2233  bytes.concat(_prefix, publicKeyRipe160Hash) */\n      add(0x20, mload(0x40))\n      tag_172\n      swap3\n      swap2\n      swap1\n      tag_173\n      jump\t// in\n    tag_172:\n      mload(0x40)\n      0x20\n      dup2\n      dup4\n      sub\n      sub\n      dup2\n      mstore\n      swap1\n      0x40\n      mstore\n        /* \"contracts/FinaSwap.sol\":2153:2233  bytes memory publicKeyPrefixedHash = bytes.concat(_prefix, publicKeyRipe160Hash) */\n      swap1\n      pop\n        /* \"contracts/FinaSwap.sol\":2327:2365  bytes memory publicKeyDoubleSha256Hash */\n      0x00\n        /* \"contracts/FinaSwap.sol\":2385:2440  sha256(abi.encodePacked(sha256(publicKeyPrefixedHash))) */\n      0x02\n        /* \"contracts/FinaSwap.sol\":2409:2438  sha256(publicKeyPrefixedHash) */\n      dup1\n        /* \"contracts/FinaSwap.sol\":2416:2437  publicKeyPrefixedHash */\n      dup4\n        /* \"contracts/FinaSwap.sol\":2409:2438  sha256(publicKeyPrefixedHash) */\n      mload(0x40)\n      tag_174\n      swap2\n      swap1\n      tag_119\n      jump\t// in\n    tag_174:\n      0x20\n      mload(0x40)\n      dup1\n      dup4\n      sub\n      dup2\n      dup6\n      gas\n      staticcall\n      iszero\n      dup1\n      iszero\n      tag_176\n      jumpi\n      returndatasize\n      0x00\n      dup1\n      returndatacopy\n      revert(0x00, returndatasize)\n    tag_176:\n      pop\n      pop\n      pop\n      mload(0x40)\n      returndatasize\n      not(0x1f)\n      0x1f\n      dup3\n      add\n      and\n      dup3\n      add\n      dup1\n      0x40\n      mstore\n      pop\n      dup2\n      add\n      swap1\n      tag_177\n      swap2\n      swap1\n      tag_164\n      jump\t// in\n    tag_177:\n        /* \"contracts/FinaSwap.sol\":2392:2439  abi.encodePacked(sha256(publicKeyPrefixedHash)) */\n      add(0x20, mload(0x40))\n      tag_178\n      swap2\n      swap1\n      tag_166\n      jump\t// in\n    tag_178:\n      mload(0x40)\n      0x20\n      dup2\n      dup4\n      sub\n      sub\n      dup2\n      mstore\n      swap1\n      0x40\n      mstore\n        /* \"contracts/FinaSwap.sol\":2385:2440  sha256(abi.encodePacked(sha256(publicKeyPrefixedHash))) */\n      mload(0x40)\n      tag_179\n      swap2\n      swap1\n      tag_119\n      jump\t// in\n    tag_179:\n      0x20\n      mload(0x40)\n      dup1\n      dup4\n      sub\n      dup2\n      dup6\n      gas\n      staticcall\n      iszero\n      dup1\n      iszero\n      tag_181\n      jumpi\n      returndatasize\n      0x00\n      dup1\n      returndatacopy\n      revert(0x00, returndatasize)\n    tag_181:\n      pop\n      pop\n      pop\n      mload(0x40)\n      returndatasize\n      not(0x1f)\n      0x1f\n      dup3\n      add\n      and\n      dup3\n      add\n      dup1\n      0x40\n      mstore\n      pop\n      dup2\n      add\n      swap1\n      tag_182\n      swap2\n      swap1\n      tag_164\n      jump\t// in\n    tag_182:\n        /* \"contracts/FinaSwap.sol\":2368:2441  abi.encodePacked(sha256(abi.encodePacked(sha256(publicKeyPrefixedHash)))) */\n      add(0x20, mload(0x40))\n      tag_183\n      swap2\n      swap1\n      tag_166\n      jump\t// in\n    tag_183:\n      mload(0x40)\n      0x20\n      dup2\n      dup4\n      sub\n      sub\n      dup2\n      mstore\n      swap1\n      0x40\n      mstore\n        /* \"contracts/FinaSwap.sol\":2327:2441  bytes memory publicKeyDoubleSha256Hash = abi.encodePacked(sha256(abi.encodePacked(sha256(publicKeyPrefixedHash)))) */\n      swap1\n      pop\n        /* \"contracts/FinaSwap.sol\":2522:2548  bytes memory publicKeyPart */\n      0x00\n        /* \"contracts/FinaSwap.sol\":2551:2600  BytesUtils.slice(publicKeyDoubleSha256Hash, 0, 4) */\n      tag_184\n        /* \"contracts/FinaSwap.sol\":2568:2593  publicKeyDoubleSha256Hash */\n      dup3\n        /* \"contracts/FinaSwap.sol\":2595:2596  0 */\n      0x00\n        /* \"contracts/FinaSwap.sol\":2598:2599  4 */\n      0x04\n        /* \"contracts/FinaSwap.sol\":2551:2567  BytesUtils.slice */\n      tag_185\n        /* \"contracts/FinaSwap.sol\":2551:2600  BytesUtils.slice(publicKeyDoubleSha256Hash, 0, 4) */\n      jump\t// in\n    tag_184:\n        /* \"contracts/FinaSwap.sol\":2522:2600  bytes memory publicKeyPart = BytesUtils.slice(publicKeyDoubleSha256Hash, 0, 4) */\n      swap1\n      pop\n        /* \"contracts/FinaSwap.sol\":2719:2748  bytes memory publicKeyAddress */\n      0x00\n        /* \"contracts/FinaSwap.sol\":2764:2785  publicKeyPrefixedHash */\n      dup4\n        /* \"contracts/FinaSwap.sol\":2787:2800  publicKeyPart */\n      dup3\n        /* \"contracts/FinaSwap.sol\":2751:2801  bytes.concat(publicKeyPrefixedHash, publicKeyPart) */\n      add(0x20, mload(0x40))\n      tag_186\n      swap3\n      swap2\n      swap1\n      tag_187\n      jump\t// in\n    tag_186:\n      mload(0x40)\n      0x20\n      dup2\n      dup4\n      sub\n      sub\n      dup2\n      mstore\n      swap1\n      0x40\n      mstore\n        /* \"contracts/FinaSwap.sol\":2719:2801  bytes memory publicKeyAddress = bytes.concat(publicKeyPrefixedHash, publicKeyPart) */\n      swap1\n      pop\n        /* \"contracts/FinaSwap.sol\":2814:2829  uint256 balance */\n      0x00\n        /* \"contracts/FinaSwap.sol\":2832:2841  _balances */\n      0x02\n        /* \"contracts/FinaSwap.sol\":2842:2858  publicKeyAddress */\n      dup3\n        /* \"contracts/FinaSwap.sol\":2832:2859  _balances[publicKeyAddress] */\n      mload(0x40)\n      tag_188\n      swap2\n      swap1\n      tag_119\n      jump\t// in\n    tag_188:\n      swap1\n      dup2\n      mstore\n      0x20\n      add\n      mload(0x40)\n      dup1\n      swap2\n      sub\n      swap1\n      keccak256\n      sload\n        /* \"contracts/FinaSwap.sol\":2814:2859  uint256 balance = _balances[publicKeyAddress] */\n      swap1\n      pop\n        /* \"contracts/FinaSwap.sol\":2888:2889  0 */\n      0x00\n        /* \"contracts/FinaSwap.sol\":2878:2885  balance */\n      dup2\n        /* \"contracts/FinaSwap.sol\":2878:2889  balance > 0 */\n      gt\n        /* \"contracts/FinaSwap.sol\":2870:2924  require(balance > 0, \"FinaSwap:claim already swapped\") */\n      tag_189\n      jumpi\n      mload(0x40)\n      0x08c379a000000000000000000000000000000000000000000000000000000000\n      dup2\n      mstore\n      0x04\n      add\n      tag_190\n      swap1\n      tag_191\n      jump\t// in\n    tag_190:\n      mload(0x40)\n      dup1\n      swap2\n      sub\n      swap1\n      revert\n    tag_189:\n        /* \"contracts/FinaSwap.sol\":2967:2968  0 */\n      0x00\n        /* \"contracts/FinaSwap.sol\":2937:2946  _balances */\n      0x02\n        /* \"contracts/FinaSwap.sol\":2947:2963  publicKeyAddress */\n      dup4\n        /* \"contracts/FinaSwap.sol\":2937:2964  _balances[publicKeyAddress] */\n      mload(0x40)\n      tag_192\n      swap2\n      swap1\n      tag_119\n      jump\t// in\n    tag_192:\n      swap1\n      dup2\n      mstore\n      0x20\n      add\n      mload(0x40)\n      dup1\n      swap2\n      sub\n      swap1\n      keccak256\n        /* \"contracts/FinaSwap.sol\":2937:2968  _balances[publicKeyAddress] = 0 */\n      dup2\n      swap1\n      sstore\n      pop\n        /* \"contracts/FinaSwap.sol\":2998:3005  balance */\n      dup1\n        /* \"contracts/FinaSwap.sol\":2979:2994  _swappedBalance */\n      0x03\n      0x00\n        /* \"contracts/FinaSwap.sol\":2979:3005  _swappedBalance += balance */\n      dup3\n      dup3\n      sload\n      tag_193\n      swap2\n      swap1\n      tag_101\n      jump\t// in\n    tag_193:\n      swap3\n      pop\n      pop\n      dup2\n      swap1\n      sstore\n      pop\n        /* \"contracts/FinaSwap.sol\":3018:3024  _token */\n      immutable(\"0xb0c7bc42bdbc6fc210fecd6a5f5b923061cceb0f8ca5c7d964d5c22fc0e4b0b6\")\n        /* \"contracts/FinaSwap.sol\":3018:3029  _token.mint */\n      0xffffffffffffffffffffffffffffffffffffffff\n      and\n      0x40c10f19\n        /* \"contracts/FinaSwap.sol\":3030:3036  target */\n      dup13\n        /* \"contracts/FinaSwap.sol\":3038:3045  balance */\n      dup4\n        /* \"contracts/FinaSwap.sol\":3018:3046  _token.mint(target, balance) */\n      mload(0x40)\n      dup4\n      0xffffffff\n      and\n      0xe0\n      shl\n      dup2\n      mstore\n      0x04\n      add\n      tag_194\n      swap3\n      swap2\n      swap1\n      tag_195\n      jump\t// in\n    tag_194:\n      0x00\n      mload(0x40)\n      dup1\n      dup4\n      sub\n      dup2\n      0x00\n      dup8\n      dup1\n      extcodesize\n      iszero\n      dup1\n      iszero\n      tag_196\n      jumpi\n      0x00\n      dup1\n      revert\n    tag_196:\n      pop\n      gas\n      call\n      iszero\n      dup1\n      iszero\n      tag_198\n      jumpi\n      returndatasize\n      0x00\n      dup1\n      returndatacopy\n      revert(0x00, returndatasize)\n    tag_198:\n      pop\n      pop\n      pop\n      pop\n        /* \"contracts/FinaSwap.sol\":3064:3114  Claim(target, hash, signature, publicKey, balance) */\n      0x33daa5a2f6b0967547ce55d03ea8a8296a2af4067b4598a8a03be54d207586d4\n        /* \"contracts/FinaSwap.sol\":3070:3076  target */\n      dup12\n        /* \"contracts/FinaSwap.sol\":3078:3082  hash */\n      dup12\n        /* \"contracts/FinaSwap.sol\":3084:3093  signature */\n      dup12\n        /* \"contracts/FinaSwap.sol\":3095:3104  publicKey */\n      dup12\n        /* \"contracts/FinaSwap.sol\":3106:3113  balance */\n      dup6\n        /* \"contracts/FinaSwap.sol\":3064:3114  Claim(target, hash, signature, publicKey, balance) */\n      mload(0x40)\n      tag_199\n      swap6\n      swap5\n      swap4\n      swap3\n      swap2\n      swap1\n      tag_200\n      jump\t// in\n    tag_199:\n      mload(0x40)\n      dup1\n      swap2\n      sub\n      swap1\n      log1\n        /* \"@openzeppelin/contracts/security/Pausable.sol\":1451:1452  _ */\n      pop\n      pop\n      pop\n      pop\n      pop\n      pop\n      pop\n      pop\n        /* \"contracts/FinaSwap.sol\":1057:3122  function claim(address target, bytes32 hash, bytes memory signature) public whenNotPaused\r... */\n      pop\n      pop\n      pop\n      jump\t// out\n        /* \"contracts/FinaSwap.sol\":347:407  bytes32 public constant ADMIN_ROLE = keccak256(\"ADMIN_ROLE\") */\n    tag_62:\n        /* \"contracts/FinaSwap.sol\":384:407  keccak256(\"ADMIN_ROLE\") */\n      0xa49807205ce4d355092ef5a8a18f56e8913cf4a201fbe287825b095693c21775\n        /* \"contracts/FinaSwap.sol\":347:407  bytes32 public constant ADMIN_ROLE = keccak256(\"ADMIN_ROLE\") */\n      dup2\n      jump\t// out\n        /* \"contracts/FinaSwap.sol\":3400:3518  function balanceOf(bytes memory source) public view returns (uint256)\r... */\n    tag_66:\n        /* \"contracts/FinaSwap.sol\":3461:3468  uint256 */\n      0x00\n        /* \"contracts/FinaSwap.sol\":3493:3502  _balances */\n      0x02\n        /* \"contracts/FinaSwap.sol\":3503:3509  source */\n      dup3\n        /* \"contracts/FinaSwap.sol\":3493:3510  _balances[source] */\n      mload(0x40)\n      tag_202\n      swap2\n      swap1\n      tag_119\n      jump\t// in\n    tag_202:\n      swap1\n      dup2\n      mstore\n      0x20\n      add\n      mload(0x40)\n      dup1\n      swap2\n      sub\n      swap1\n      keccak256\n      sload\n        /* \"contracts/FinaSwap.sol\":3486:3510  return _balances[source] */\n      swap1\n      pop\n        /* \"contracts/FinaSwap.sol\":3400:3518  function balanceOf(bytes memory source) public view returns (uint256)\r... */\n      swap2\n      swap1\n      pop\n      jump\t// out\n        /* \"contracts/FinaSwap.sol\":3914:3987  function pause() public onlyRole(PAUSER_ROLE) {\r... */\n    tag_70:\n        /* \"contracts/FinaSwap.sol\":452:476  keccak256(\"PAUSER_ROLE\") */\n      0x65d7a28e3265b37a6474929f336521b332c1681b933f6cb9f3376673440d862a\n        /* \"@openzeppelin/contracts/access/AccessControl.sol\":2505:2535  _checkRole(role, _msgSender()) */\n      tag_204\n        /* \"@openzeppelin/contracts/access/AccessControl.sol\":2516:2520  role */\n      dup2\n        /* \"@openzeppelin/contracts/access/AccessControl.sol\":2522:2534  _msgSender() */\n      tag_205\n        /* \"@openzeppelin/contracts/access/AccessControl.sol\":2522:2532  _msgSender */\n      tag_97\n        /* \"@openzeppelin/contracts/access/AccessControl.sol\":2522:2534  _msgSender() */\n      jump\t// in\n    tag_205:\n        /* \"@openzeppelin/contracts/access/AccessControl.sol\":2505:2515  _checkRole */\n      tag_98\n        /* \"@openzeppelin/contracts/access/AccessControl.sol\":2505:2535  _checkRole(role, _msgSender()) */\n      jump\t// in\n    tag_204:\n        /* \"contracts/FinaSwap.sol\":3971:3979  _pause() */\n      tag_207\n        /* \"contracts/FinaSwap.sol\":3971:3977  _pause */\n      tag_208\n        /* \"contracts/FinaSwap.sol\":3971:3979  _pause() */\n      jump\t// in\n    tag_207:\n        /* \"contracts/FinaSwap.sol\":3914:3987  function pause() public onlyRole(PAUSER_ROLE) {\r... */\n      pop\n      jump\t// out\n        /* \"@openzeppelin/contracts/access/AccessControl.sol\":2909:3054  function hasRole(bytes32 role, address account) public view virtual override returns (bool) {... */\n    tag_73:\n        /* \"@openzeppelin/contracts/access/AccessControl.sol\":2995:2999  bool */\n      0x00\n        /* \"@openzeppelin/contracts/access/AccessControl.sol\":3018:3024  _roles */\n      0x01\n        /* \"@openzeppelin/contracts/access/AccessControl.sol\":3018:3030  _roles[role] */\n      0x00\n        /* \"@openzeppelin/contracts/access/AccessControl.sol\":3025:3029  role */\n      dup5\n        /* \"@openzeppelin/contracts/access/AccessControl.sol\":3018:3030  _roles[role] */\n      dup2\n      mstore\n      0x20\n      add\n      swap1\n      dup2\n      mstore\n      0x20\n      add\n      0x00\n      keccak256\n        /* \"@openzeppelin/contracts/access/AccessControl.sol\":3018:3038  _roles[role].members */\n      0x00\n      add\n        /* \"@openzeppelin/contracts/access/AccessControl.sol\":3018:3047  _roles[role].members[account] */\n      0x00\n        /* \"@openzeppelin/contracts/access/AccessControl.sol\":3039:3046  account */\n      dup4\n        /* \"@openzeppelin/contracts/access/AccessControl.sol\":3018:3047  _roles[role].members[account] */\n      0xffffffffffffffffffffffffffffffffffffffff\n      and\n      0xffffffffffffffffffffffffffffffffffffffff\n      and\n      dup2\n      mstore\n      0x20\n      add\n      swap1\n      dup2\n      mstore\n      0x20\n      add\n      0x00\n      keccak256\n      0x00\n      swap1\n      sload\n      swap1\n      0x0100\n      exp\n      swap1\n      div\n      0xff\n      and\n        /* \"@openzeppelin/contracts/access/AccessControl.sol\":3011:3047  return _roles[role].members[account] */\n      swap1\n      pop\n        /* \"@openzeppelin/contracts/access/AccessControl.sol\":2909:3054  function hasRole(bytes32 role, address account) public view virtual override returns (bool) {... */\n      swap3\n      swap2\n      pop\n      pop\n      jump\t// out\n        /* \"contracts/FinaSwap.sol\":3526:3631  function getSwappedBalance() public view returns (uint256)\r... */\n    tag_76:\n        /* \"contracts/FinaSwap.sol\":3576:3583  uint256 */\n      0x00\n        /* \"contracts/FinaSwap.sol\":3608:3623  _swappedBalance */\n      sload(0x03)\n        /* \"contracts/FinaSwap.sol\":3601:3623  return _swappedBalance */\n      swap1\n      pop\n        /* \"contracts/FinaSwap.sol\":3526:3631  function getSwappedBalance() public view returns (uint256)\r... */\n      swap1\n      jump\t// out\n        /* \"@openzeppelin/contracts/access/AccessControl.sol\":2027:2076  bytes32 public constant DEFAULT_ADMIN_ROLE = 0x00 */\n    tag_79:\n        /* \"@openzeppelin/contracts/access/AccessControl.sol\":2072:2076  0x00 */\n      0x00\n        /* \"@openzeppelin/contracts/access/AccessControl.sol\":2027:2076  bytes32 public constant DEFAULT_ADMIN_ROLE = 0x00 */\n      dup1\n      shl\n      dup2\n      jump\t// out\n        /* \"contracts/FinaSwap.sol\":3773:3898  function removeSwappedBalance(uint256 balance) public onlyRole(ADMIN_ROLE)\r... */\n    tag_83:\n        /* \"contracts/FinaSwap.sol\":384:407  keccak256(\"ADMIN_ROLE\") */\n      0xa49807205ce4d355092ef5a8a18f56e8913cf4a201fbe287825b095693c21775\n        /* \"@openzeppelin/contracts/access/AccessControl.sol\":2505:2535  _checkRole(role, _msgSender()) */\n      tag_212\n        /* \"@openzeppelin/contracts/access/AccessControl.sol\":2516:2520  role */\n      dup2\n        /* \"@openzeppelin/contracts/access/AccessControl.sol\":2522:2534  _msgSender() */\n      tag_213\n        /* \"@openzeppelin/contracts/access/AccessControl.sol\":2522:2532  _msgSender */\n      tag_97\n        /* \"@openzeppelin/contracts/access/AccessControl.sol\":2522:2534  _msgSender() */\n      jump\t// in\n    tag_213:\n        /* \"@openzeppelin/contracts/access/AccessControl.sol\":2505:2515  _checkRole */\n      tag_98\n        /* \"@openzeppelin/contracts/access/AccessControl.sol\":2505:2535  _checkRole(role, _msgSender()) */\n      jump\t// in\n    tag_212:\n        /* \"contracts/FinaSwap.sol\":3883:3890  balance */\n      dup2\n        /* \"contracts/FinaSwap.sol\":3864:3879  _swappedBalance */\n      0x03\n      0x00\n        /* \"contracts/FinaSwap.sol\":3864:3890  _swappedBalance -= balance */\n      dup3\n      dup3\n      sload\n      tag_215\n      swap2\n      swap1\n      tag_216\n      jump\t// in\n    tag_215:\n      swap3\n      pop\n      pop\n      dup2\n      swap1\n      sstore\n      pop\n        /* \"contracts/FinaSwap.sol\":3773:3898  function removeSwappedBalance(uint256 balance) public onlyRole(ADMIN_ROLE)\r... */\n      pop\n      pop\n      jump\t// out\n        /* \"contracts/FinaSwap.sol\":3130:3267  function addBalance(bytes memory source, uint256 balance) public onlyRole(ADMIN_ROLE)\r... */\n    tag_87:\n        /* \"contracts/FinaSwap.sol\":384:407  keccak256(\"ADMIN_ROLE\") */\n      0xa49807205ce4d355092ef5a8a18f56e8913cf4a201fbe287825b095693c21775\n        /* \"@openzeppelin/contracts/access/AccessControl.sol\":2505:2535  _checkRole(role, _msgSender()) */\n      tag_218\n        /* \"@openzeppelin/contracts/access/AccessControl.sol\":2516:2520  role */\n      dup2\n        /* \"@openzeppelin/contracts/access/AccessControl.sol\":2522:2534  _msgSender() */\n      tag_219\n        /* \"@openzeppelin/contracts/access/AccessControl.sol\":2522:2532  _msgSender */\n      tag_97\n        /* \"@openzeppelin/contracts/access/AccessControl.sol\":2522:2534  _msgSender() */\n      jump\t// in\n    tag_219:\n        /* \"@openzeppelin/contracts/access/AccessControl.sol\":2505:2515  _checkRole */\n      tag_98\n        /* \"@openzeppelin/contracts/access/AccessControl.sol\":2505:2535  _checkRole(role, _msgSender()) */\n      jump\t// in\n    tag_218:\n        /* \"contracts/FinaSwap.sol\":3252:3259  balance */\n      dup2\n        /* \"contracts/FinaSwap.sol\":3232:3241  _balances */\n      0x02\n        /* \"contracts/FinaSwap.sol\":3242:3248  source */\n      dup5\n        /* \"contracts/FinaSwap.sol\":3232:3249  _balances[source] */\n      mload(0x40)\n      tag_221\n      swap2\n      swap1\n      tag_119\n      jump\t// in\n    tag_221:\n      swap1\n      dup2\n      mstore\n      0x20\n      add\n      mload(0x40)\n      dup1\n      swap2\n      sub\n      swap1\n      keccak256\n        /* \"contracts/FinaSwap.sol\":3232:3259  _balances[source] = balance */\n      dup2\n      swap1\n      sstore\n      pop\n        /* \"contracts/FinaSwap.sol\":3130:3267  function addBalance(bytes memory source, uint256 balance) public onlyRole(ADMIN_ROLE)\r... */\n      pop\n      pop\n      pop\n      jump\t// out\n        /* \"@openzeppelin/contracts/access/AccessControl.sol\":4766:4913  function revokeRole(bytes32 role, address account) public virtual override onlyRole(getRoleAdmin(role)) {... */\n    tag_90:\n        /* \"@openzeppelin/contracts/access/AccessControl.sol\":4850:4868  getRoleAdmin(role) */\n      tag_222\n        /* \"@openzeppelin/contracts/access/AccessControl.sol\":4863:4867  role */\n      dup3\n        /* \"@openzeppelin/contracts/access/AccessControl.sol\":4850:4862  getRoleAdmin */\n      tag_38\n        /* \"@openzeppelin/contracts/access/AccessControl.sol\":4850:4868  getRoleAdmin(role) */\n      jump\t// in\n    tag_222:\n        /* \"@openzeppelin/contracts/access/AccessControl.sol\":2505:2535  _checkRole(role, _msgSender()) */\n      tag_224\n        /* \"@openzeppelin/contracts/access/AccessControl.sol\":2516:2520  role */\n      dup2\n        /* \"@openzeppelin/contracts/access/AccessControl.sol\":2522:2534  _msgSender() */\n      tag_225\n        /* \"@openzeppelin/contracts/access/AccessControl.sol\":2522:2532  _msgSender */\n      tag_97\n        /* \"@openzeppelin/contracts/access/AccessControl.sol\":2522:2534  _msgSender() */\n      jump\t// in\n    tag_225:\n        /* \"@openzeppelin/contracts/access/AccessControl.sol\":2505:2515  _checkRole */\n      tag_98\n        /* \"@openzeppelin/contracts/access/AccessControl.sol\":2505:2535  _checkRole(role, _msgSender()) */\n      jump\t// in\n    tag_224:\n        /* \"@openzeppelin/contracts/access/AccessControl.sol\":4880:4906  _revokeRole(role, account) */\n      tag_227\n        /* \"@openzeppelin/contracts/access/AccessControl.sol\":4892:4896  role */\n      dup4\n        /* \"@openzeppelin/contracts/access/AccessControl.sol\":4898:4905  account */\n      dup4\n        /* \"@openzeppelin/contracts/access/AccessControl.sol\":4880:4891  _revokeRole */\n      tag_126\n        /* \"@openzeppelin/contracts/access/AccessControl.sol\":4880:4906  _revokeRole(role, account) */\n      jump\t// in\n    tag_227:\n        /* \"@openzeppelin/contracts/access/AccessControl.sol\":4766:4913  function revokeRole(bytes32 role, address account) public virtual override onlyRole(getRoleAdmin(role)) {... */\n      pop\n      pop\n      pop\n      jump\t// out\n        /* \"contracts/FinaSwap.sol\":414:476  bytes32 public constant PAUSER_ROLE = keccak256(\"PAUSER_ROLE\") */\n    tag_92:\n        /* \"contracts/FinaSwap.sol\":452:476  keccak256(\"PAUSER_ROLE\") */\n      0x65d7a28e3265b37a6474929f336521b332c1681b933f6cb9f3376673440d862a\n        /* \"contracts/FinaSwap.sol\":414:476  bytes32 public constant PAUSER_ROLE = keccak256(\"PAUSER_ROLE\") */\n      dup2\n      jump\t// out\n        /* \"@openzeppelin/contracts/utils/Context.sol\":640:736  function _msgSender() internal view virtual returns (address) {... */\n    tag_97:\n        /* \"@openzeppelin/contracts/utils/Context.sol\":693:700  address */\n      0x00\n        /* \"@openzeppelin/contracts/utils/Context.sol\":719:729  msg.sender */\n      caller\n        /* \"@openzeppelin/contracts/utils/Context.sol\":712:729  return msg.sender */\n      swap1\n      pop\n        /* \"@openzeppelin/contracts/utils/Context.sol\":640:736  function _msgSender() internal view virtual returns (address) {... */\n      swap1\n      jump\t// out\n        /* \"@openzeppelin/contracts/access/AccessControl.sol\":3335:3827  function _checkRole(bytes32 role, address account) internal view virtual {... */\n    tag_98:\n        /* \"@openzeppelin/contracts/access/AccessControl.sol\":3423:3445  hasRole(role, account) */\n      tag_230\n        /* \"@openzeppelin/contracts/access/AccessControl.sol\":3431:3435  role */\n      dup3\n        /* \"@openzeppelin/contracts/access/AccessControl.sol\":3437:3444  account */\n      dup3\n        /* \"@openzeppelin/contracts/access/AccessControl.sol\":3423:3430  hasRole */\n      tag_73\n        /* \"@openzeppelin/contracts/access/AccessControl.sol\":3423:3445  hasRole(role, account) */\n      jump\t// in\n    tag_230:\n        /* \"@openzeppelin/contracts/access/AccessControl.sol\":3418:3821  if (!hasRole(role, account)) {... */\n      tag_231\n      jumpi\n        /* \"@openzeppelin/contracts/access/AccessControl.sol\":3606:3647  Strings.toHexString(uint160(account), 20) */\n      tag_232\n        /* \"@openzeppelin/contracts/access/AccessControl.sol\":3634:3641  account */\n      dup2\n        /* \"@openzeppelin/contracts/access/AccessControl.sol\":3606:3647  Strings.toHexString(uint160(account), 20) */\n      0xffffffffffffffffffffffffffffffffffffffff\n      and\n        /* \"@openzeppelin/contracts/access/AccessControl.sol\":3644:3646  20 */\n      0x14\n        /* \"@openzeppelin/contracts/access/AccessControl.sol\":3606:3625  Strings.toHexString */\n      tag_233\n        /* \"@openzeppelin/contracts/access/AccessControl.sol\":3606:3647  Strings.toHexString(uint160(account), 20) */\n      jump\t// in\n    tag_232:\n        /* \"@openzeppelin/contracts/access/AccessControl.sol\":3718:3756  Strings.toHexString(uint256(role), 32) */\n      tag_234\n        /* \"@openzeppelin/contracts/access/AccessControl.sol\":3746:3750  role */\n      dup4\n        /* \"@openzeppelin/contracts/access/AccessControl.sol\":3738:3751  uint256(role) */\n      0x00\n      shr\n        /* \"@openzeppelin/contracts/access/AccessControl.sol\":3753:3755  32 */\n      0x20\n        /* \"@openzeppelin/contracts/access/AccessControl.sol\":3718:3737  Strings.toHexString */\n      tag_233\n        /* \"@openzeppelin/contracts/access/AccessControl.sol\":3718:3756  Strings.toHexString(uint256(role), 32) */\n      jump\t// in\n    tag_234:\n        /* \"@openzeppelin/contracts/access/AccessControl.sol\":3513:3778  abi.encodePacked(... */\n      add(0x20, mload(0x40))\n      tag_235\n      swap3\n      swap2\n      swap1\n      tag_236\n      jump\t// in\n    tag_235:\n      mload(0x40)\n      0x20\n      dup2\n      dup4\n      sub\n      sub\n      dup2\n      mstore\n      swap1\n      0x40\n      mstore\n        /* \"@openzeppelin/contracts/access/AccessControl.sol\":3461:3810  revert(... */\n      mload(0x40)\n      0x08c379a000000000000000000000000000000000000000000000000000000000\n      dup2\n      mstore\n      0x04\n      add\n      tag_237\n      swap2\n      swap1\n      tag_238\n      jump\t// in\n    tag_237:\n      mload(0x40)\n      dup1\n      swap2\n      sub\n      swap1\n      revert\n        /* \"@openzeppelin/contracts/access/AccessControl.sol\":3418:3821  if (!hasRole(role, account)) {... */\n    tag_231:\n        /* \"@openzeppelin/contracts/access/AccessControl.sol\":3335:3827  function _checkRole(bytes32 role, address account) internal view virtual {... */\n      pop\n      pop\n      jump\t// out\n        /* \"@openzeppelin/contracts/utils/introspection/ERC165.sol\":829:984  function supportsInterface(bytes4 interfaceId) public view virtual override returns (bool) {... */\n    tag_105:\n        /* \"@openzeppelin/contracts/utils/introspection/ERC165.sol\":914:918  bool */\n      0x00\n        /* \"@openzeppelin/contracts/utils/introspection/ERC165.sol\":952:977  type(IERC165).interfaceId */\n      0x01ffc9a700000000000000000000000000000000000000000000000000000000\n        /* \"@openzeppelin/contracts/utils/introspection/ERC165.sol\":937:977  interfaceId == type(IERC165).interfaceId */\n      not(0xffffffffffffffffffffffffffffffffffffffffffffffffffffffff)\n      and\n        /* \"@openzeppelin/contracts/utils/introspection/ERC165.sol\":937:948  interfaceId */\n      dup3\n        /* \"@openzeppelin/contracts/utils/introspection/ERC165.sol\":937:977  interfaceId == type(IERC165).interfaceId */\n      not(0xffffffffffffffffffffffffffffffffffffffffffffffffffffffff)\n      and\n      eq\n        /* \"@openzeppelin/contracts/utils/introspection/ERC165.sol\":930:977  return interfaceId == type(IERC165).interfaceId */\n      swap1\n      pop\n        /* \"@openzeppelin/contracts/utils/introspection/ERC165.sol\":829:984  function supportsInterface(bytes4 interfaceId) public view virtual override returns (bool) {... */\n      swap2\n      swap1\n      pop\n      jump\t// out\n        /* \"@openzeppelin/contracts/access/AccessControl.sol\":6861:7094  function _grantRole(bytes32 role, address account) internal virtual {... */\n    tag_113:\n        /* \"@openzeppelin/contracts/access/AccessControl.sol\":6944:6966  hasRole(role, account) */\n      tag_241\n        /* \"@openzeppelin/contracts/access/AccessControl.sol\":6952:6956  role */\n      dup3\n        /* \"@openzeppelin/contracts/access/AccessControl.sol\":6958:6965  account */\n      dup3\n        /* \"@openzeppelin/contracts/access/AccessControl.sol\":6944:6951  hasRole */\n      tag_73\n        /* \"@openzeppelin/contracts/access/AccessControl.sol\":6944:6966  hasRole(role, account) */\n      jump\t// in\n    tag_241:\n        /* \"@openzeppelin/contracts/access/AccessControl.sol\":6939:7088  if (!hasRole(role, account)) {... */\n      tag_242\n      jumpi\n        /* \"@openzeppelin/contracts/access/AccessControl.sol\":7014:7018  true */\n      0x01\n        /* \"@openzeppelin/contracts/access/AccessControl.sol\":6982:6988  _roles */\n      dup1\n        /* \"@openzeppelin/contracts/access/AccessControl.sol\":6982:6994  _roles[role] */\n      0x00\n        /* \"@openzeppelin/contracts/access/AccessControl.sol\":6989:6993  role */\n      dup5\n        /* \"@openzeppelin/contracts/access/AccessControl.sol\":6982:6994  _roles[role] */\n      dup2\n      mstore\n      0x20\n      add\n      swap1\n      dup2\n      mstore\n      0x20\n      add\n      0x00\n      keccak256\n        /* \"@openzeppelin/contracts/access/AccessControl.sol\":6982:7002  _roles[role].members */\n      0x00\n      add\n        /* \"@openzeppelin/contracts/access/AccessControl.sol\":6982:7011  _roles[role].members[account] */\n      0x00\n        /* \"@openzeppelin/contracts/access/AccessControl.sol\":7003:7010  account */\n      dup4\n        /* \"@openzeppelin/contracts/access/AccessControl.sol\":6982:7011  _roles[role].members[account] */\n      0xffffffffffffffffffffffffffffffffffffffff\n      and\n      0xffffffffffffffffffffffffffffffffffffffff\n      and\n      dup2\n      mstore\n      0x20\n      add\n      swap1\n      dup2\n      mstore\n      0x20\n      add\n      0x00\n      keccak256\n      0x00\n        /* \"@openzeppelin/contracts/access/AccessControl.sol\":6982:7018  _roles[role].members[account] = true */\n      0x0100\n      exp\n      dup2\n      sload\n      dup2\n      0xff\n      mul\n      not\n      and\n      swap1\n      dup4\n      iszero\n      iszero\n      mul\n      or\n      swap1\n      sstore\n      pop\n        /* \"@openzeppelin/contracts/access/AccessControl.sol\":7064:7076  _msgSender() */\n      tag_243\n        /* \"@openzeppelin/contracts/access/AccessControl.sol\":7064:7074  _msgSender */\n      tag_97\n        /* \"@openzeppelin/contracts/access/AccessControl.sol\":7064:7076  _msgSender() */\n      jump\t// in\n    tag_243:\n        /* \"@openzeppelin/contracts/access/AccessControl.sol\":7037:7077  RoleGranted(role, account, _msgSender()) */\n      0xffffffffffffffffffffffffffffffffffffffff\n      and\n        /* \"@openzeppelin/contracts/access/AccessControl.sol\":7055:7062  account */\n      dup2\n        /* \"@openzeppelin/contracts/access/AccessControl.sol\":7037:7077  RoleGranted(role, account, _msgSender()) */\n      0xffffffffffffffffffffffffffffffffffffffff\n      and\n        /* \"@openzeppelin/contracts/access/AccessControl.sol\":7049:7053  role */\n      dup4\n        /* \"@openzeppelin/contracts/access/AccessControl.sol\":7037:7077  RoleGranted(role, account, _msgSender()) */\n      0x2f8788117e7eff1d82e926ec794901d17c78024a50270940304540a733656f0d\n      mload(0x40)\n      mload(0x40)\n      dup1\n      swap2\n      sub\n      swap1\n      log4\n        /* \"@openzeppelin/contracts/access/AccessControl.sol\":6939:7088  if (!hasRole(role, account)) {... */\n    tag_242:\n        /* \"@openzeppelin/contracts/access/AccessControl.sol\":6861:7094  function _grantRole(bytes32 role, address account) internal virtual {... */\n      pop\n      pop\n      jump\t// out\n        /* \"@openzeppelin/contracts/access/AccessControl.sol\":7219:7453  function _revokeRole(bytes32 role, address account) internal virtual {... */\n    tag_126:\n        /* \"@openzeppelin/contracts/access/AccessControl.sol\":7302:7324  hasRole(role, account) */\n      tag_245\n        /* \"@openzeppelin/contracts/access/AccessControl.sol\":7310:7314  role */\n      dup3\n        /* \"@openzeppelin/contracts/access/AccessControl.sol\":7316:7323  account */\n      dup3\n        /* \"@openzeppelin/contracts/access/AccessControl.sol\":7302:7309  hasRole */\n      tag_73\n        /* \"@openzeppelin/contracts/access/AccessControl.sol\":7302:7324  hasRole(role, account) */\n      jump\t// in\n    tag_245:\n        /* \"@openzeppelin/contracts/access/AccessControl.sol\":7298:7447  if (hasRole(role, account)) {... */\n      iszero\n      tag_246\n      jumpi\n        /* \"@openzeppelin/contracts/access/AccessControl.sol\":7372:7377  false */\n      0x00\n        /* \"@openzeppelin/contracts/access/AccessControl.sol\":7340:7346  _roles */\n      0x01\n        /* \"@openzeppelin/contracts/access/AccessControl.sol\":7340:7352  _roles[role] */\n      0x00\n        /* \"@openzeppelin/contracts/access/AccessControl.sol\":7347:7351  role */\n      dup5\n        /* \"@openzeppelin/contracts/access/AccessControl.sol\":7340:7352  _roles[role] */\n      dup2\n      mstore\n      0x20\n      add\n      swap1\n      dup2\n      mstore\n      0x20\n      add\n      0x00\n      keccak256\n        /* \"@openzeppelin/contracts/access/AccessControl.sol\":7340:7360  _roles[role].members */\n      0x00\n      add\n        /* \"@openzeppelin/contracts/access/AccessControl.sol\":7340:7369  _roles[role].members[account] */\n      0x00\n        /* \"@openzeppelin/contracts/access/AccessControl.sol\":7361:7368  account */\n      dup4\n        /* \"@openzeppelin/contracts/access/AccessControl.sol\":7340:7369  _roles[role].members[account] */\n      0xffffffffffffffffffffffffffffffffffffffff\n      and\n      0xffffffffffffffffffffffffffffffffffffffff\n      and\n      dup2\n      mstore\n      0x20\n      add\n      swap1\n      dup2\n      mstore\n      0x20\n      add\n      0x00\n      keccak256\n      0x00\n        /* \"@openzeppelin/contracts/access/AccessControl.sol\":7340:7377  _roles[role].members[account] = false */\n      0x0100\n      exp\n      dup2\n      sload\n      dup2\n      0xff\n      mul\n      not\n      and\n      swap1\n      dup4\n      iszero\n      iszero\n      mul\n      or\n      swap1\n      sstore\n      pop\n        /* \"@openzeppelin/contracts/access/AccessControl.sol\":7423:7435  _msgSender() */\n      tag_247\n        /* \"@openzeppelin/contracts/access/AccessControl.sol\":7423:7433  _msgSender */\n      tag_97\n        /* \"@openzeppelin/contracts/access/AccessControl.sol\":7423:7435  _msgSender() */\n      jump\t// in\n    tag_247:\n        /* \"@openzeppelin/contracts/access/AccessControl.sol\":7396:7436  RoleRevoked(role, account, _msgSender()) */\n      0xffffffffffffffffffffffffffffffffffffffff\n      and\n        /* \"@openzeppelin/contracts/access/AccessControl.sol\":7414:7421  account */\n      dup2\n        /* \"@openzeppelin/contracts/access/AccessControl.sol\":7396:7436  RoleRevoked(role, account, _msgSender()) */\n      0xffffffffffffffffffffffffffffffffffffffff\n      and\n        /* \"@openzeppelin/contracts/access/AccessControl.sol\":7408:7412  role */\n      dup4\n        /* \"@openzeppelin/contracts/access/AccessControl.sol\":7396:7436  RoleRevoked(role, account, _msgSender()) */\n      0xf6391f5c32d9c69d2a47ea670b442974b53935d1edc7fd64eb21e047a839171b\n      mload(0x40)\n      mload(0x40)\n      dup1\n      swap2\n      sub\n      swap1\n      log4\n        /* \"@openzeppelin/contracts/access/AccessControl.sol\":7298:7447  if (hasRole(role, account)) {... */\n    tag_246:\n        /* \"@openzeppelin/contracts/access/AccessControl.sol\":7219:7453  function _revokeRole(bytes32 role, address account) internal virtual {... */\n      pop\n      pop\n      jump\t// out\n        /* \"@openzeppelin/contracts/security/Pausable.sol\":2110:2227  function _unpause() internal virtual whenPaused {... */\n    tag_132:\n        /* \"@openzeppelin/contracts/security/Pausable.sol\":1677:1685  paused() */\n      tag_249\n        /* \"@openzeppelin/contracts/security/Pausable.sol\":1677:1683  paused */\n      tag_55\n        /* \"@openzeppelin/contracts/security/Pausable.sol\":1677:1685  paused() */\n      jump\t// in\n    tag_249:\n        /* \"@openzeppelin/contracts/security/Pausable.sol\":1669:1710  require(paused(), \"Pausable: not paused\") */\n      tag_250\n      jumpi\n      mload(0x40)\n      0x08c379a000000000000000000000000000000000000000000000000000000000\n      dup2\n      mstore\n      0x04\n      add\n      tag_251\n      swap1\n      tag_252\n      jump\t// in\n    tag_251:\n      mload(0x40)\n      dup1\n      swap2\n      sub\n      swap1\n      revert\n    tag_250:\n        /* \"@openzeppelin/contracts/security/Pausable.sol\":2178:2183  false */\n      0x00\n        /* \"@openzeppelin/contracts/security/Pausable.sol\":2168:2175  _paused */\n      dup1\n      0x00\n        /* \"@openzeppelin/contracts/security/Pausable.sol\":2168:2183  _paused = false */\n      0x0100\n      exp\n      dup2\n      sload\n      dup2\n      0xff\n      mul\n      not\n      and\n      swap1\n      dup4\n      iszero\n      iszero\n      mul\n      or\n      swap1\n      sstore\n      pop\n        /* \"@openzeppelin/contracts/security/Pausable.sol\":2198:2220  Unpaused(_msgSender()) */\n      0x5db9ee0a495bf2e6ff9c91a7834c1ba4fdd244a5e8aa4e537bd38aeae4b073aa\n        /* \"@openzeppelin/contracts/security/Pausable.sol\":2207:2219  _msgSender() */\n      tag_254\n        /* \"@openzeppelin/contracts/security/Pausable.sol\":2207:2217  _msgSender */\n      tag_97\n        /* \"@openzeppelin/contracts/security/Pausable.sol\":2207:2219  _msgSender() */\n      jump\t// in\n    tag_254:\n        /* \"@openzeppelin/contracts/security/Pausable.sol\":2198:2220  Unpaused(_msgSender()) */\n      mload(0x40)\n      tag_255\n      swap2\n      swap1\n      tag_256\n      jump\t// in\n    tag_255:\n      mload(0x40)\n      dup1\n      swap2\n      sub\n      swap1\n      log1\n        /* \"@openzeppelin/contracts/security/Pausable.sol\":2110:2227  function _unpause() internal virtual whenPaused {... */\n      jump\t// out\n        /* \"contracts/utils/BytesUtils.sol\":86:349  function slice(bytes memory source, uint256 start, uint256 end) internal pure returns (bytes memory) {\r... */\n    tag_185:\n        /* \"contracts/utils/BytesUtils.sol\":173:185  bytes memory */\n      0x60\n        /* \"contracts/utils/BytesUtils.sol\":198:212  bytes memory a */\n      0x00\n        /* \"contracts/utils/BytesUtils.sol\":231:236  start */\n      dup4\n        /* \"contracts/utils/BytesUtils.sol\":225:228  end */\n      dup4\n        /* \"contracts/utils/BytesUtils.sol\":225:236  end - start */\n      tag_258\n      swap2\n      swap1\n      tag_216\n      jump\t// in\n    tag_258:\n        /* \"contracts/utils/BytesUtils.sol\":215:237  new bytes(end - start) */\n      0xffffffffffffffff\n      dup2\n      gt\n      iszero\n      tag_259\n      jumpi\n      mstore(0x00, 0x4e487b7100000000000000000000000000000000000000000000000000000000)\n      mstore(0x04, 0x41)\n      revert(0x00, 0x24)\n    tag_259:\n      mload(0x40)\n      swap1\n      dup1\n      dup3\n      mstore\n      dup1\n      0x1f\n      add\n      not(0x1f)\n      and\n      0x20\n      add\n      dup3\n      add\n      0x40\n      mstore\n      dup1\n      iszero\n      tag_260\n      jumpi\n      dup2\n      0x20\n      add\n      0x01\n      dup3\n      mul\n      dup1\n      calldatasize\n      dup4\n      calldatacopy\n      dup1\n      dup3\n      add\n      swap2\n      pop\n      pop\n      swap1\n      pop\n    tag_260:\n      pop\n        /* \"contracts/utils/BytesUtils.sol\":198:237  bytes memory a = new bytes(end - start) */\n      swap1\n      pop\n        /* \"contracts/utils/BytesUtils.sol\":252:258  uint i */\n      0x00\n        /* \"contracts/utils/BytesUtils.sol\":248:323  for(uint i=0;i<=end-start-1;i++){\r... */\n    tag_261:\n        /* \"contracts/utils/BytesUtils.sol\":274:275  1 */\n      0x01\n        /* \"contracts/utils/BytesUtils.sol\":268:273  start */\n      dup6\n        /* \"contracts/utils/BytesUtils.sol\":264:267  end */\n      dup6\n        /* \"contracts/utils/BytesUtils.sol\":264:273  end-start */\n      tag_264\n      swap2\n      swap1\n      tag_216\n      jump\t// in\n    tag_264:\n        /* \"contracts/utils/BytesUtils.sol\":264:275  end-start-1 */\n      tag_265\n      swap2\n      swap1\n      tag_216\n      jump\t// in\n    tag_265:\n        /* \"contracts/utils/BytesUtils.sol\":261:262  i */\n      dup2\n        /* \"contracts/utils/BytesUtils.sol\":261:275  i<=end-start-1 */\n      gt\n        /* \"contracts/utils/BytesUtils.sol\":248:323  for(uint i=0;i<=end-start-1;i++){\r... */\n      tag_262\n      jumpi\n        /* \"contracts/utils/BytesUtils.sol\":302:308  source */\n      dup6\n        /* \"contracts/utils/BytesUtils.sol\":309:310  i */\n      dup2\n        /* \"contracts/utils/BytesUtils.sol\":302:311  source[i] */\n      dup2\n      mload\n      dup2\n      lt\n      tag_266\n      jumpi\n      mstore(0x00, 0x4e487b7100000000000000000000000000000000000000000000000000000000)\n      mstore(0x04, 0x32)\n      revert(0x00, 0x24)\n    tag_266:\n      0x20\n      add\n      add\n      mload\n      0xf8\n      shr\n      0xf8\n      shl\n        /* \"contracts/utils/BytesUtils.sol\":295:296  a */\n      dup3\n        /* \"contracts/utils/BytesUtils.sol\":297:298  i */\n      dup3\n        /* \"contracts/utils/BytesUtils.sol\":295:299  a[i] */\n      dup2\n      mload\n      dup2\n      lt\n      tag_267\n      jumpi\n      mstore(0x00, 0x4e487b7100000000000000000000000000000000000000000000000000000000)\n      mstore(0x04, 0x32)\n      revert(0x00, 0x24)\n    tag_267:\n      0x20\n      add\n      add\n        /* \"contracts/utils/BytesUtils.sol\":295:311  a[i] = source[i] */\n      swap1\n      not(0xffffffffffffffffffffffffffffffffffffffffffffffffffffffffffffff)\n      and\n      swap1\n      dup2\n      0x00\n      byte\n      swap1\n      mstore8\n      pop\n        /* \"contracts/utils/BytesUtils.sol\":276:279  i++ */\n      dup1\n      dup1\n      tag_268\n      swap1\n      tag_269\n      jump\t// in\n    tag_268:\n      swap2\n      pop\n      pop\n        /* \"contracts/utils/BytesUtils.sol\":248:323  for(uint i=0;i<=end-start-1;i++){\r... */\n      jump(tag_261)\n    tag_262:\n      pop\n        /* \"contracts/utils/BytesUtils.sol\":340:341  a */\n      dup1\n        /* \"contracts/utils/BytesUtils.sol\":333:341  return a */\n      swap2\n      pop\n      pop\n        /* \"contracts/utils/BytesUtils.sol\":86:349  function slice(bytes memory source, uint256 start, uint256 end) internal pure returns (bytes memory) {\r... */\n      swap4\n      swap3\n      pop\n      pop\n      pop\n      jump\t// out\n        /* \"@openzeppelin/contracts/security/Pausable.sol\":1863:1978  function _pause() internal virtual whenNotPaused {... */\n    tag_208:\n        /* \"@openzeppelin/contracts/security/Pausable.sol\":1412:1420  paused() */\n      tag_271\n        /* \"@openzeppelin/contracts/security/Pausable.sol\":1412:1418  paused */\n      tag_55\n        /* \"@openzeppelin/contracts/security/Pausable.sol\":1412:1420  paused() */\n      jump\t// in\n    tag_271:\n        /* \"@openzeppelin/contracts/security/Pausable.sol\":1411:1420  !paused() */\n      iszero\n        /* \"@openzeppelin/contracts/security/Pausable.sol\":1403:1441  require(!paused(), \"Pausable: paused\") */\n      tag_272\n      jumpi\n      mload(0x40)\n      0x08c379a000000000000000000000000000000000000000000000000000000000\n      dup2\n      mstore\n      0x04\n      add\n      tag_273\n      swap1\n      tag_138\n      jump\t// in\n    tag_273:\n      mload(0x40)\n      dup1\n      swap2\n      sub\n      swap1\n      revert\n    tag_272:\n        /* \"@openzeppelin/contracts/security/Pausable.sol\":1932:1936  true */\n      0x01\n        /* \"@openzeppelin/contracts/security/Pausable.sol\":1922:1929  _paused */\n      0x00\n      dup1\n        /* \"@openzeppelin/contracts/security/Pausable.sol\":1922:1936  _paused = true */\n      0x0100\n      exp\n      dup2\n      sload\n      dup2\n      0xff\n      mul\n      not\n      and\n      swap1\n      dup4\n      iszero\n      iszero\n      mul\n      or\n      swap1\n      sstore\n      pop\n        /* \"@openzeppelin/contracts/security/Pausable.sol\":1951:1971  Paused(_msgSender()) */\n      0x62e78cea01bee320cd4e420270b5ea74000d11b0c9f74754ebdbfc544b05a258\n        /* \"@openzeppelin/contracts/security/Pausable.sol\":1958:1970  _msgSender() */\n      tag_275\n        /* \"@openzeppelin/contracts/security/Pausable.sol\":1958:1968  _msgSender */\n      tag_97\n        /* \"@openzeppelin/contracts/security/Pausable.sol\":1958:1970  _msgSender() */\n      jump\t// in\n    tag_275:\n        /* \"@openzeppelin/contracts/security/Pausable.sol\":1951:1971  Paused(_msgSender()) */\n      mload(0x40)\n      tag_276\n      swap2\n      swap1\n      tag_256\n      jump\t// in\n    tag_276:\n      mload(0x40)\n      dup1\n      swap2\n      sub\n      swap1\n      log1\n        /* \"@openzeppelin/contracts/security/Pausable.sol\":1863:1978  function _pause() internal virtual whenNotPaused {... */\n      jump\t// out\n        /* \"@openzeppelin/contracts/utils/Strings.sol\":1588:2029  function toHexString(uint256 value, uint256 length) internal pure returns (string memory) {... */\n    tag_233:\n        /* \"@openzeppelin/contracts/utils/Strings.sol\":1663:1676  string memory */\n      0x60\n        /* \"@openzeppelin/contracts/utils/Strings.sol\":1688:1707  bytes memory buffer */\n      0x00\n        /* \"@openzeppelin/contracts/utils/Strings.sol\":1733:1734  2 */\n      0x02\n        /* \"@openzeppelin/contracts/utils/Strings.sol\":1724:1730  length */\n      dup4\n        /* \"@openzeppelin/contracts/utils/Strings.sol\":1720:1721  2 */\n      0x02\n        /* \"@openzeppelin/contracts/utils/Strings.sol\":1720:1730  2 * length */\n      tag_278\n      swap2\n      swap1\n      tag_279\n      jump\t// in\n    tag_278:\n        /* \"@openzeppelin/contracts/utils/Strings.sol\":1720:1734  2 * length + 2 */\n      tag_280\n      swap2\n      swap1\n      tag_101\n      jump\t// in\n    tag_280:\n        /* \"@openzeppelin/contracts/utils/Strings.sol\":1710:1735  new bytes(2 * length + 2) */\n      0xffffffffffffffff\n      dup2\n      gt\n      iszero\n      tag_281\n      jumpi\n      mstore(0x00, 0x4e487b7100000000000000000000000000000000000000000000000000000000)\n      mstore(0x04, 0x41)\n      revert(0x00, 0x24)\n    tag_281:\n      mload(0x40)\n      swap1\n      dup1\n      dup3\n      mstore\n      dup1\n      0x1f\n      add\n      not(0x1f)\n      and\n      0x20\n      add\n      dup3\n      add\n      0x40\n      mstore\n      dup1\n      iszero\n      tag_282\n      jumpi\n      dup2\n      0x20\n      add\n      0x01\n      dup3\n      mul\n      dup1\n      calldatasize\n      dup4\n      calldatacopy\n      dup1\n      dup3\n      add\n      swap2\n      pop\n      pop\n      swap1\n      pop\n    tag_282:\n      pop\n        /* \"@openzeppelin/contracts/utils/Strings.sol\":1688:1735  bytes memory buffer = new bytes(2 * length + 2) */\n      swap1\n      pop\n        /* \"@openzeppelin/contracts/utils/Strings.sol\":1745:1760  buffer[0] = \"0\" */\n      0x3000000000000000000000000000000000000000000000000000000000000000\n        /* \"@openzeppelin/contracts/utils/Strings.sol\":1745:1751  buffer */\n      dup2\n        /* \"@openzeppelin/contracts/utils/Strings.sol\":1752:1753  0 */\n      0x00\n        /* \"@openzeppelin/contracts/utils/Strings.sol\":1745:1754  buffer[0] */\n      dup2\n      mload\n      dup2\n      lt\n      tag_283\n      jumpi\n      mstore(0x00, 0x4e487b7100000000000000000000000000000000000000000000000000000000)\n      mstore(0x04, 0x32)\n      revert(0x00, 0x24)\n    tag_283:\n      0x20\n      add\n      add\n        /* \"@openzeppelin/contracts/utils/Strings.sol\":1745:1760  buffer[0] = \"0\" */\n      swap1\n      not(0xffffffffffffffffffffffffffffffffffffffffffffffffffffffffffffff)\n      and\n      swap1\n      dup2\n      0x00\n      byte\n      swap1\n      mstore8\n      pop\n        /* \"@openzeppelin/contracts/utils/Strings.sol\":1770:1785  buffer[1] = \"x\" */\n      0x7800000000000000000000000000000000000000000000000000000000000000\n        /* \"@openzeppelin/contracts/utils/Strings.sol\":1770:1776  buffer */\n      dup2\n        /* \"@openzeppelin/contracts/utils/Strings.sol\":1777:1778  1 */\n      0x01\n        /* \"@openzeppelin/contracts/utils/Strings.sol\":1770:1779  buffer[1] */\n      dup2\n      mload\n      dup2\n      lt\n      tag_284\n      jumpi\n      mstore(0x00, 0x4e487b7100000000000000000000000000000000000000000000000000000000)\n      mstore(0x04, 0x32)\n      revert(0x00, 0x24)\n    tag_284:\n      0x20\n      add\n      add\n        /* \"@openzeppelin/contracts/utils/Strings.sol\":1770:1785  buffer[1] = \"x\" */\n      swap1\n      not(0xffffffffffffffffffffffffffffffffffffffffffffffffffffffffffffff)\n      and\n      swap1\n      dup2\n      0x00\n      byte\n      swap1\n      mstore8\n      pop\n        /* \"@openzeppelin/contracts/utils/Strings.sol\":1800:1809  uint256 i */\n      0x00\n        /* \"@openzeppelin/contracts/utils/Strings.sol\":1825:1826  1 */\n      0x01\n        /* \"@openzeppelin/contracts/utils/Strings.sol\":1816:1822  length */\n      dup5\n        /* \"@openzeppelin/contracts/utils/Strings.sol\":1812:1813  2 */\n      0x02\n        /* \"@openzeppelin/contracts/utils/Strings.sol\":1812:1822  2 * length */\n      tag_288\n      swap2\n      swap1\n      tag_279\n      jump\t// in\n    tag_288:\n        /* \"@openzeppelin/contracts/utils/Strings.sol\":1812:1826  2 * length + 1 */\n      tag_289\n      swap2\n      swap1\n      tag_101\n      jump\t// in\n    tag_289:\n        /* \"@openzeppelin/contracts/utils/Strings.sol\":1800:1826  uint256 i = 2 * length + 1 */\n      swap1\n      pop\n        /* \"@openzeppelin/contracts/utils/Strings.sol\":1795:1927  for (uint256 i = 2 * length + 1; i > 1; --i) {... */\n    tag_285:\n        /* \"@openzeppelin/contracts/utils/Strings.sol\":1832:1833  1 */\n      0x01\n        /* \"@openzeppelin/contracts/utils/Strings.sol\":1828:1829  i */\n      dup2\n        /* \"@openzeppelin/contracts/utils/Strings.sol\":1828:1833  i > 1 */\n      gt\n        /* \"@openzeppelin/contracts/utils/Strings.sol\":1795:1927  for (uint256 i = 2 * length + 1; i > 1; --i) {... */\n      iszero\n      tag_286\n      jumpi\n        /* \"@openzeppelin/contracts/utils/Strings.sol\":1866:1878  _HEX_SYMBOLS */\n      0x3031323334353637383961626364656600000000000000000000000000000000\n        /* \"@openzeppelin/contracts/utils/Strings.sol\":1887:1890  0xf */\n      0x0f\n        /* \"@openzeppelin/contracts/utils/Strings.sol\":1879:1884  value */\n      dup7\n        /* \"@openzeppelin/contracts/utils/Strings.sol\":1879:1890  value & 0xf */\n      and\n        /* \"@openzeppelin/contracts/utils/Strings.sol\":1866:1891  _HEX_SYMBOLS[value & 0xf] */\n      0x10\n      dup2\n      lt\n      tag_290\n      jumpi\n      mstore(0x00, 0x4e487b7100000000000000000000000000000000000000000000000000000000)\n      mstore(0x04, 0x32)\n      revert(0x00, 0x24)\n    tag_290:\n      byte\n      0xf8\n      shl\n        /* \"@openzeppelin/contracts/utils/Strings.sol\":1854:1860  buffer */\n      dup3\n        /* \"@openzeppelin/contracts/utils/Strings.sol\":1861:1862  i */\n      dup3\n        /* \"@openzeppelin/contracts/utils/Strings.sol\":1854:1863  buffer[i] */\n      dup2\n      mload\n      dup2\n      lt\n      tag_291\n      jumpi\n      mstore(0x00, 0x4e487b7100000000000000000000000000000000000000000000000000000000)\n      mstore(0x04, 0x32)\n      revert(0x00, 0x24)\n    tag_291:\n      0x20\n      add\n      add\n        /* \"@openzeppelin/contracts/utils/Strings.sol\":1854:1891  buffer[i] = _HEX_SYMBOLS[value & 0xf] */\n      swap1\n      not(0xffffffffffffffffffffffffffffffffffffffffffffffffffffffffffffff)\n      and\n      swap1\n      dup2\n      0x00\n      byte\n      swap1\n      mstore8\n      pop\n        /* \"@openzeppelin/contracts/utils/Strings.sol\":1915:1916  4 */\n      0x04\n        /* \"@openzeppelin/contracts/utils/Strings.sol\":1905:1916  value >>= 4 */\n      dup6\n      swap1\n      shr\n      swap5\n      pop\n        /* \"@openzeppelin/contracts/utils/Strings.sol\":1835:1838  --i */\n      dup1\n      tag_292\n      swap1\n      tag_293\n      jump\t// in\n    tag_292:\n      swap1\n      pop\n        /* \"@openzeppelin/contracts/utils/Strings.sol\":1795:1927  for (uint256 i = 2 * length + 1; i > 1; --i) {... */\n      jump(tag_285)\n    tag_286:\n      pop\n        /* \"@openzeppelin/contracts/utils/Strings.sol\":1953:1954  0 */\n      0x00\n        /* \"@openzeppelin/contracts/utils/Strings.sol\":1944:1949  value */\n      dup5\n        /* \"@openzeppelin/contracts/utils/Strings.sol\":1944:1954  value == 0 */\n      eq\n        /* \"@openzeppelin/contracts/utils/Strings.sol\":1936:1991  require(value == 0, \"Strings: hex length insufficient\") */\n      tag_294\n      jumpi\n      mload(0x40)\n      0x08c379a000000000000000000000000000000000000000000000000000000000\n      dup2\n      mstore\n      0x04\n      add\n      tag_295\n      swap1\n      tag_296\n      jump\t// in\n    tag_295:\n      mload(0x40)\n      dup1\n      swap2\n      sub\n      swap1\n      revert\n    tag_294:\n        /* \"@openzeppelin/contracts/utils/Strings.sol\":2015:2021  buffer */\n      dup1\n        /* \"@openzeppelin/contracts/utils/Strings.sol\":2001:2022  return string(buffer) */\n      swap2\n      pop\n      pop\n        /* \"@openzeppelin/contracts/utils/Strings.sol\":1588:2029  function toHexString(uint256 value, uint256 length) internal pure returns (string memory) {... */\n      swap3\n      swap2\n      pop\n      pop\n      jump\t// out\n        /* \"#utility.yul\":7:350   */\n    tag_298:\n        /* \"#utility.yul\":84:89   */\n      0x00\n        /* \"#utility.yul\":109:174   */\n      tag_300\n        /* \"#utility.yul\":125:173   */\n      tag_301\n        /* \"#utility.yul\":166:172   */\n      dup5\n        /* \"#utility.yul\":125:173   */\n      tag_302\n      jump\t// in\n    tag_301:\n        /* \"#utility.yul\":109:174   */\n      tag_303\n      jump\t// in\n    tag_300:\n        /* \"#utility.yul\":100:174   */\n      swap1\n      pop\n        /* \"#utility.yul\":197:203   */\n      dup3\n        /* \"#utility.yul\":190:195   */\n      dup2\n        /* \"#utility.yul\":183:204   */\n      mstore\n        /* \"#utility.yul\":235:239   */\n      0x20\n        /* \"#utility.yul\":228:233   */\n      dup2\n        /* \"#utility.yul\":224:240   */\n      add\n        /* \"#utility.yul\":273:276   */\n      dup5\n        /* \"#utility.yul\":264:270   */\n      dup5\n        /* \"#utility.yul\":259:262   */\n      dup5\n        /* \"#utility.yul\":255:271   */\n      add\n        /* \"#utility.yul\":252:277   */\n      gt\n        /* \"#utility.yul\":249:251   */\n      iszero\n      tag_304\n      jumpi\n        /* \"#utility.yul\":290:291   */\n      0x00\n        /* \"#utility.yul\":287:288   */\n      dup1\n        /* \"#utility.yul\":280:292   */\n      revert\n        /* \"#utility.yul\":249:251   */\n    tag_304:\n        /* \"#utility.yul\":303:344   */\n      tag_305\n        /* \"#utility.yul\":337:343   */\n      dup5\n        /* \"#utility.yul\":332:335   */\n      dup3\n        /* \"#utility.yul\":327:330   */\n      dup6\n        /* \"#utility.yul\":303:344   */\n      tag_306\n      jump\t// in\n    tag_305:\n        /* \"#utility.yul\":90:350   */\n      pop\n      swap4\n      swap3\n      pop\n      pop\n      pop\n      jump\t// out\n        /* \"#utility.yul\":356:708   */\n    tag_307:\n        /* \"#utility.yul\":444:449   */\n      0x00\n        /* \"#utility.yul\":469:534   */\n      tag_309\n        /* \"#utility.yul\":485:533   */\n      tag_310\n        /* \"#utility.yul\":526:532   */\n      dup5\n        /* \"#utility.yul\":485:533   */\n      tag_302\n      jump\t// in\n    tag_310:\n        /* \"#utility.yul\":469:534   */\n      tag_303\n      jump\t// in\n    tag_309:\n        /* \"#utility.yul\":460:534   */\n      swap1\n      pop\n        /* \"#utility.yul\":557:563   */\n      dup3\n        /* \"#utility.yul\":550:555   */\n      dup2\n        /* \"#utility.yul\":543:564   */\n      mstore\n        /* \"#utility.yul\":595:599   */\n      0x20\n        /* \"#utility.yul\":588:593   */\n      dup2\n        /* \"#utility.yul\":584:600   */\n      add\n        /* \"#utility.yul\":633:636   */\n      dup5\n        /* \"#utility.yul\":624:630   */\n      dup5\n        /* \"#utility.yul\":619:622   */\n      dup5\n        /* \"#utility.yul\":615:631   */\n      add\n        /* \"#utility.yul\":612:637   */\n      gt\n        /* \"#utility.yul\":609:611   */\n      iszero\n      tag_311\n      jumpi\n        /* \"#utility.yul\":650:651   */\n      0x00\n        /* \"#utility.yul\":647:648   */\n      dup1\n        /* \"#utility.yul\":640:652   */\n      revert\n        /* \"#utility.yul\":609:611   */\n    tag_311:\n        /* \"#utility.yul\":663:702   */\n      tag_312\n        /* \"#utility.yul\":695:701   */\n      dup5\n        /* \"#utility.yul\":690:693   */\n      dup3\n        /* \"#utility.yul\":685:688   */\n      dup6\n        /* \"#utility.yul\":663:702   */\n      tag_313\n      jump\t// in\n    tag_312:\n        /* \"#utility.yul\":450:708   */\n      pop\n      swap4\n      swap3\n      pop\n      pop\n      pop\n      jump\t// out\n        /* \"#utility.yul\":714:853   */\n    tag_314:\n        /* \"#utility.yul\":760:765   */\n      0x00\n        /* \"#utility.yul\":798:804   */\n      dup2\n        /* \"#utility.yul\":785:805   */\n      calldataload\n        /* \"#utility.yul\":776:805   */\n      swap1\n      pop\n        /* \"#utility.yul\":814:847   */\n      tag_316\n        /* \"#utility.yul\":841:846   */\n      dup2\n        /* \"#utility.yul\":814:847   */\n      tag_317\n      jump\t// in\n    tag_316:\n        /* \"#utility.yul\":766:853   */\n      swap3\n      swap2\n      pop\n      pop\n      jump\t// out\n        /* \"#utility.yul\":859:998   */\n    tag_318:\n        /* \"#utility.yul\":905:910   */\n      0x00\n        /* \"#utility.yul\":943:949   */\n      dup2\n        /* \"#utility.yul\":930:950   */\n      calldataload\n        /* \"#utility.yul\":921:950   */\n      swap1\n      pop\n        /* \"#utility.yul\":959:992   */\n      tag_320\n        /* \"#utility.yul\":986:991   */\n      dup2\n        /* \"#utility.yul\":959:992   */\n      tag_321\n      jump\t// in\n    tag_320:\n        /* \"#utility.yul\":911:998   */\n      swap3\n      swap2\n      pop\n      pop\n      jump\t// out\n        /* \"#utility.yul\":1004:1147   */\n    tag_322:\n        /* \"#utility.yul\":1061:1066   */\n      0x00\n        /* \"#utility.yul\":1092:1098   */\n      dup2\n        /* \"#utility.yul\":1086:1099   */\n      mload\n        /* \"#utility.yul\":1077:1099   */\n      swap1\n      pop\n        /* \"#utility.yul\":1108:1141   */\n      tag_324\n        /* \"#utility.yul\":1135:1140   */\n      dup2\n        /* \"#utility.yul\":1108:1141   */\n      tag_321\n      jump\t// in\n    tag_324:\n        /* \"#utility.yul\":1067:1147   */\n      swap3\n      swap2\n      pop\n      pop\n      jump\t// out\n        /* \"#utility.yul\":1153:1290   */\n    tag_325:\n        /* \"#utility.yul\":1198:1203   */\n      0x00\n        /* \"#utility.yul\":1236:1242   */\n      dup2\n        /* \"#utility.yul\":1223:1243   */\n      calldataload\n        /* \"#utility.yul\":1214:1243   */\n      swap1\n      pop\n        /* \"#utility.yul\":1252:1284   */\n      tag_327\n        /* \"#utility.yul\":1278:1283   */\n      dup2\n        /* \"#utility.yul\":1252:1284   */\n      tag_328\n      jump\t// in\n    tag_327:\n        /* \"#utility.yul\":1204:1290   */\n      swap3\n      swap2\n      pop\n      pop\n      jump\t// out\n        /* \"#utility.yul\":1309:1580   */\n    tag_329:\n        /* \"#utility.yul\":1364:1369   */\n      0x00\n        /* \"#utility.yul\":1413:1416   */\n      dup3\n        /* \"#utility.yul\":1406:1410   */\n      0x1f\n        /* \"#utility.yul\":1398:1404   */\n      dup4\n        /* \"#utility.yul\":1394:1411   */\n      add\n        /* \"#utility.yul\":1390:1417   */\n      slt\n        /* \"#utility.yul\":1380:1382   */\n      tag_331\n      jumpi\n        /* \"#utility.yul\":1431:1432   */\n      0x00\n        /* \"#utility.yul\":1428:1429   */\n      dup1\n        /* \"#utility.yul\":1421:1433   */\n      revert\n        /* \"#utility.yul\":1380:1382   */\n    tag_331:\n        /* \"#utility.yul\":1471:1477   */\n      dup2\n        /* \"#utility.yul\":1458:1478   */\n      calldataload\n        /* \"#utility.yul\":1496:1574   */\n      tag_332\n        /* \"#utility.yul\":1570:1573   */\n      dup5\n        /* \"#utility.yul\":1562:1568   */\n      dup3\n        /* \"#utility.yul\":1555:1559   */\n      0x20\n        /* \"#utility.yul\":1547:1553   */\n      dup7\n        /* \"#utility.yul\":1543:1560   */\n      add\n        /* \"#utility.yul\":1496:1574   */\n      tag_298\n      jump\t// in\n    tag_332:\n        /* \"#utility.yul\":1487:1574   */\n      swap2\n      pop\n        /* \"#utility.yul\":1370:1580   */\n      pop\n      swap3\n      swap2\n      pop\n      pop\n      jump\t// out\n        /* \"#utility.yul\":1599:1885   */\n    tag_333:\n        /* \"#utility.yul\":1665:1670   */\n      0x00\n        /* \"#utility.yul\":1714:1717   */\n      dup3\n        /* \"#utility.yul\":1707:1711   */\n      0x1f\n        /* \"#utility.yul\":1699:1705   */\n      dup4\n        /* \"#utility.yul\":1695:1712   */\n      add\n        /* \"#utility.yul\":1691:1718   */\n      slt\n        /* \"#utility.yul\":1681:1683   */\n      tag_335\n      jumpi\n        /* \"#utility.yul\":1732:1733   */\n      0x00\n        /* \"#utility.yul\":1729:1730   */\n      dup1\n        /* \"#utility.yul\":1722:1734   */\n      revert\n        /* \"#utility.yul\":1681:1683   */\n    tag_335:\n        /* \"#utility.yul\":1765:1771   */\n      dup2\n        /* \"#utility.yul\":1759:1772   */\n      mload\n        /* \"#utility.yul\":1790:1879   */\n      tag_336\n        /* \"#utility.yul\":1875:1878   */\n      dup5\n        /* \"#utility.yul\":1867:1873   */\n      dup3\n        /* \"#utility.yul\":1860:1864   */\n      0x20\n        /* \"#utility.yul\":1852:1858   */\n      dup7\n        /* \"#utility.yul\":1848:1865   */\n      add\n        /* \"#utility.yul\":1790:1879   */\n      tag_307\n      jump\t// in\n    tag_336:\n        /* \"#utility.yul\":1781:1879   */\n      swap2\n      pop\n        /* \"#utility.yul\":1671:1885   */\n      pop\n      swap3\n      swap2\n      pop\n      pop\n      jump\t// out\n        /* \"#utility.yul\":1891:2030   */\n    tag_337:\n        /* \"#utility.yul\":1937:1942   */\n      0x00\n        /* \"#utility.yul\":1975:1981   */\n      dup2\n        /* \"#utility.yul\":1962:1982   */\n      calldataload\n        /* \"#utility.yul\":1953:1982   */\n      swap1\n      pop\n        /* \"#utility.yul\":1991:2024   */\n      tag_339\n        /* \"#utility.yul\":2018:2023   */\n      dup2\n        /* \"#utility.yul\":1991:2024   */\n      tag_340\n      jump\t// in\n    tag_339:\n        /* \"#utility.yul\":1943:2030   */\n      swap3\n      swap2\n      pop\n      pop\n      jump\t// out\n        /* \"#utility.yul\":2036:2699   */\n    tag_59:\n        /* \"#utility.yul\":2122:2128   */\n      0x00\n        /* \"#utility.yul\":2130:2136   */\n      dup1\n        /* \"#utility.yul\":2138:2144   */\n      0x00\n        /* \"#utility.yul\":2187:2189   */\n      0x60\n        /* \"#utility.yul\":2175:2184   */\n      dup5\n        /* \"#utility.yul\":2166:2173   */\n      dup7\n        /* \"#utility.yul\":2162:2185   */\n      sub\n        /* \"#utility.yul\":2158:2190   */\n      slt\n        /* \"#utility.yul\":2155:2157   */\n      iszero\n      tag_342\n      jumpi\n        /* \"#utility.yul\":2203:2204   */\n      0x00\n        /* \"#utility.yul\":2200:2201   */\n      dup1\n        /* \"#utility.yul\":2193:2205   */\n      revert\n        /* \"#utility.yul\":2155:2157   */\n    tag_342:\n        /* \"#utility.yul\":2246:2247   */\n      0x00\n        /* \"#utility.yul\":2271:2324   */\n      tag_343\n        /* \"#utility.yul\":2316:2323   */\n      dup7\n        /* \"#utility.yul\":2307:2313   */\n      dup3\n        /* \"#utility.yul\":2296:2305   */\n      dup8\n        /* \"#utility.yul\":2292:2314   */\n      add\n        /* \"#utility.yul\":2271:2324   */\n      tag_314\n      jump\t// in\n    tag_343:\n        /* \"#utility.yul\":2261:2324   */\n      swap4\n      pop\n        /* \"#utility.yul\":2217:2334   */\n      pop\n        /* \"#utility.yul\":2373:2375   */\n      0x20\n        /* \"#utility.yul\":2399:2452   */\n      tag_344\n        /* \"#utility.yul\":2444:2451   */\n      dup7\n        /* \"#utility.yul\":2435:2441   */\n      dup3\n        /* \"#utility.yul\":2424:2433   */\n      dup8\n        /* \"#utility.yul\":2420:2442   */\n      add\n        /* \"#utility.yul\":2399:2452   */\n      tag_318\n      jump\t// in\n    tag_344:\n        /* \"#utility.yul\":2389:2452   */\n      swap3\n      pop\n        /* \"#utility.yul\":2344:2462   */\n      pop\n        /* \"#utility.yul\":2529:2531   */\n      0x40\n        /* \"#utility.yul\":2518:2527   */\n      dup5\n        /* \"#utility.yul\":2514:2532   */\n      add\n        /* \"#utility.yul\":2501:2533   */\n      calldataload\n        /* \"#utility.yul\":2560:2578   */\n      0xffffffffffffffff\n        /* \"#utility.yul\":2552:2558   */\n      dup2\n        /* \"#utility.yul\":2549:2579   */\n      gt\n        /* \"#utility.yul\":2546:2548   */\n      iszero\n      tag_345\n      jumpi\n        /* \"#utility.yul\":2592:2593   */\n      0x00\n        /* \"#utility.yul\":2589:2590   */\n      dup1\n        /* \"#utility.yul\":2582:2594   */\n      revert\n        /* \"#utility.yul\":2546:2548   */\n    tag_345:\n        /* \"#utility.yul\":2620:2682   */\n      tag_346\n        /* \"#utility.yul\":2674:2681   */\n      dup7\n        /* \"#utility.yul\":2665:2671   */\n      dup3\n        /* \"#utility.yul\":2654:2663   */\n      dup8\n        /* \"#utility.yul\":2650:2672   */\n      add\n        /* \"#utility.yul\":2620:2682   */\n      tag_329\n      jump\t// in\n    tag_346:\n        /* \"#utility.yul\":2610:2682   */\n      swap2\n      pop\n        /* \"#utility.yul\":2472:2692   */\n      pop\n        /* \"#utility.yul\":2145:2699   */\n      swap3\n      pop\n      swap3\n      pop\n      swap3\n      jump\t// out\n        /* \"#utility.yul\":2705:2967   */\n    tag_37:\n        /* \"#utility.yul\":2764:2770   */\n      0x00\n        /* \"#utility.yul\":2813:2815   */\n      0x20\n        /* \"#utility.yul\":2801:2810   */\n      dup3\n        /* \"#utility.yul\":2792:2799   */\n      dup5\n        /* \"#utility.yul\":2788:2811   */\n      sub\n        /* \"#utility.yul\":2784:2816   */\n      slt\n        /* \"#utility.yul\":2781:2783   */\n      iszero\n      tag_348\n      jumpi\n        /* \"#utility.yul\":2829:2830   */\n      0x00\n        /* \"#utility.yul\":2826:2827   */\n      dup1\n        /* \"#utility.yul\":2819:2831   */\n      revert\n        /* \"#utility.yul\":2781:2783   */\n    tag_348:\n        /* \"#utility.yul\":2872:2873   */\n      0x00\n        /* \"#utility.yul\":2897:2950   */\n      tag_349\n        /* \"#utility.yul\":2942:2949   */\n      dup5\n        /* \"#utility.yul\":2933:2939   */\n      dup3\n        /* \"#utility.yul\":2922:2931   */\n      dup6\n        /* \"#utility.yul\":2918:2940   */\n      add\n        /* \"#utility.yul\":2897:2950   */\n      tag_318\n      jump\t// in\n    tag_349:\n        /* \"#utility.yul\":2887:2950   */\n      swap2\n      pop\n        /* \"#utility.yul\":2843:2960   */\n      pop\n        /* \"#utility.yul\":2771:2967   */\n      swap3\n      swap2\n      pop\n      pop\n      jump\t// out\n        /* \"#utility.yul\":2973:3257   */\n    tag_164:\n        /* \"#utility.yul\":3043:3049   */\n      0x00\n        /* \"#utility.yul\":3092:3094   */\n      0x20\n        /* \"#utility.yul\":3080:3089   */\n      dup3\n        /* \"#utility.yul\":3071:3078   */\n      dup5\n        /* \"#utility.yul\":3067:3090   */\n      sub\n        /* \"#utility.yul\":3063:3095   */\n      slt\n        /* \"#utility.yul\":3060:3062   */\n      iszero\n      tag_351\n      jumpi\n        /* \"#utility.yul\":3108:3109   */\n      0x00\n        /* \"#utility.yul\":3105:3106   */\n      dup1\n        /* \"#utility.yul\":3098:3110   */\n      revert\n        /* \"#utility.yul\":3060:3062   */\n    tag_351:\n        /* \"#utility.yul\":3151:3152   */\n      0x00\n        /* \"#utility.yul\":3176:3240   */\n      tag_352\n        /* \"#utility.yul\":3232:3239   */\n      dup5\n        /* \"#utility.yul\":3223:3229   */\n      dup3\n        /* \"#utility.yul\":3212:3221   */\n      dup6\n        /* \"#utility.yul\":3208:3230   */\n      add\n        /* \"#utility.yul\":3176:3240   */\n      tag_322\n      jump\t// in\n    tag_352:\n        /* \"#utility.yul\":3166:3240   */\n      swap2\n      pop\n        /* \"#utility.yul\":3122:3250   */\n      pop\n        /* \"#utility.yul\":3050:3257   */\n      swap3\n      swap2\n      pop\n      pop\n      jump\t// out\n        /* \"#utility.yul\":3263:3670   */\n    tag_43:\n        /* \"#utility.yul\":3331:3337   */\n      0x00\n        /* \"#utility.yul\":3339:3345   */\n      dup1\n        /* \"#utility.yul\":3388:3390   */\n      0x40\n        /* \"#utility.yul\":3376:3385   */\n      dup4\n        /* \"#utility.yul\":3367:3374   */\n      dup6\n        /* \"#utility.yul\":3363:3386   */\n      sub\n        /* \"#utility.yul\":3359:3391   */\n      slt\n        /* \"#utility.yul\":3356:3358   */\n      iszero\n      tag_354\n      jumpi\n        /* \"#utility.yul\":3404:3405   */\n      0x00\n        /* \"#utility.yul\":3401:3402   */\n      dup1\n        /* \"#utility.yul\":3394:3406   */\n      revert\n        /* \"#utility.yul\":3356:3358   */\n    tag_354:\n        /* \"#utility.yul\":3447:3448   */\n      0x00\n        /* \"#utility.yul\":3472:3525   */\n      tag_355\n        /* \"#utility.yul\":3517:3524   */\n      dup6\n        /* \"#utility.yul\":3508:3514   */\n      dup3\n        /* \"#utility.yul\":3497:3506   */\n      dup7\n        /* \"#utility.yul\":3493:3515   */\n      add\n        /* \"#utility.yul\":3472:3525   */\n      tag_318\n      jump\t// in\n    tag_355:\n        /* \"#utility.yul\":3462:3525   */\n      swap3\n      pop\n        /* \"#utility.yul\":3418:3535   */\n      pop\n        /* \"#utility.yul\":3574:3576   */\n      0x20\n        /* \"#utility.yul\":3600:3653   */\n      tag_356\n        /* \"#utility.yul\":3645:3652   */\n      dup6\n        /* \"#utility.yul\":3636:3642   */\n      dup3\n        /* \"#utility.yul\":3625:3634   */\n      dup7\n        /* \"#utility.yul\":3621:3643   */\n      add\n        /* \"#utility.yul\":3600:3653   */\n      tag_314\n      jump\t// in\n    tag_356:\n        /* \"#utility.yul\":3590:3653   */\n      swap2\n      pop\n        /* \"#utility.yul\":3545:3663   */\n      pop\n        /* \"#utility.yul\":3346:3670   */\n      swap3\n      pop\n      swap3\n      swap1\n      pop\n      jump\t// out\n        /* \"#utility.yul\":3676:3936   */\n    tag_31:\n        /* \"#utility.yul\":3734:3740   */\n      0x00\n        /* \"#utility.yul\":3783:3785   */\n      0x20\n        /* \"#utility.yul\":3771:3780   */\n      dup3\n        /* \"#utility.yul\":3762:3769   */\n      dup5\n        /* \"#utility.yul\":3758:3781   */\n      sub\n        /* \"#utility.yul\":3754:3786   */\n      slt\n        /* \"#utility.yul\":3751:3753   */\n      iszero\n      tag_358\n      jumpi\n        /* \"#utility.yul\":3799:3800   */\n      0x00\n        /* \"#utility.yul\":3796:3797   */\n      dup1\n        /* \"#utility.yul\":3789:3801   */\n      revert\n        /* \"#utility.yul\":3751:3753   */\n    tag_358:\n        /* \"#utility.yul\":3842:3843   */\n      0x00\n        /* \"#utility.yul\":3867:3919   */\n      tag_359\n        /* \"#utility.yul\":3911:3918   */\n      dup5\n        /* \"#utility.yul\":3902:3908   */\n      dup3\n        /* \"#utility.yul\":3891:3900   */\n      dup6\n        /* \"#utility.yul\":3887:3909   */\n      add\n        /* \"#utility.yul\":3867:3919   */\n      tag_325\n      jump\t// in\n    tag_359:\n        /* \"#utility.yul\":3857:3919   */\n      swap2\n      pop\n        /* \"#utility.yul\":3813:3929   */\n      pop\n        /* \"#utility.yul\":3741:3936   */\n      swap3\n      swap2\n      pop\n      pop\n      jump\t// out\n        /* \"#utility.yul\":3942:4315   */\n    tag_47:\n        /* \"#utility.yul\":4010:4016   */\n      0x00\n        /* \"#utility.yul\":4059:4061   */\n      0x20\n        /* \"#utility.yul\":4047:4056   */\n      dup3\n        /* \"#utility.yul\":4038:4045   */\n      dup5\n        /* \"#utility.yul\":4034:4057   */\n      sub\n        /* \"#utility.yul\":4030:4062   */\n      slt\n        /* \"#utility.yul\":4027:4029   */\n      iszero\n      tag_361\n      jumpi\n        /* \"#utility.yul\":4075:4076   */\n      0x00\n        /* \"#utility.yul\":4072:4073   */\n      dup1\n        /* \"#utility.yul\":4065:4077   */\n      revert\n        /* \"#utility.yul\":4027:4029   */\n    tag_361:\n        /* \"#utility.yul\":4146:4147   */\n      0x00\n        /* \"#utility.yul\":4135:4144   */\n      dup3\n        /* \"#utility.yul\":4131:4148   */\n      add\n        /* \"#utility.yul\":4118:4149   */\n      calldataload\n        /* \"#utility.yul\":4176:4194   */\n      0xffffffffffffffff\n        /* \"#utility.yul\":4168:4174   */\n      dup2\n        /* \"#utility.yul\":4165:4195   */\n      gt\n        /* \"#utility.yul\":4162:4164   */\n      iszero\n      tag_362\n      jumpi\n        /* \"#utility.yul\":4208:4209   */\n      0x00\n        /* \"#utility.yul\":4205:4206   */\n      dup1\n        /* \"#utility.yul\":4198:4210   */\n      revert\n        /* \"#utility.yul\":4162:4164   */\n    tag_362:\n        /* \"#utility.yul\":4236:4298   */\n      tag_363\n        /* \"#utility.yul\":4290:4297   */\n      dup5\n        /* \"#utility.yul\":4281:4287   */\n      dup3\n        /* \"#utility.yul\":4270:4279   */\n      dup6\n        /* \"#utility.yul\":4266:4288   */\n      add\n        /* \"#utility.yul\":4236:4298   */\n      tag_329\n      jump\t// in\n    tag_363:\n        /* \"#utility.yul\":4226:4298   */\n      swap2\n      pop\n        /* \"#utility.yul\":4089:4308   */\n      pop\n        /* \"#utility.yul\":4017:4315   */\n      swap3\n      swap2\n      pop\n      pop\n      jump\t// out\n        /* \"#utility.yul\":4321:4709   */\n    tag_156:\n        /* \"#utility.yul\":4400:4406   */\n      0x00\n        /* \"#utility.yul\":4449:4451   */\n      0x20\n        /* \"#utility.yul\":4437:4446   */\n      dup3\n        /* \"#utility.yul\":4428:4435   */\n      dup5\n        /* \"#utility.yul\":4424:4447   */\n      sub\n        /* \"#utility.yul\":4420:4452   */\n      slt\n        /* \"#utility.yul\":4417:4419   */\n      iszero\n      tag_365\n      jumpi\n        /* \"#utility.yul\":4465:4466   */\n      0x00\n        /* \"#utility.yul\":4462:4463   */\n      dup1\n        /* \"#utility.yul\":4455:4467   */\n      revert\n        /* \"#utility.yul\":4417:4419   */\n    tag_365:\n        /* \"#utility.yul\":4529:4530   */\n      0x00\n        /* \"#utility.yul\":4518:4527   */\n      dup3\n        /* \"#utility.yul\":4514:4531   */\n      add\n        /* \"#utility.yul\":4508:4532   */\n      mload\n        /* \"#utility.yul\":4559:4577   */\n      0xffffffffffffffff\n        /* \"#utility.yul\":4551:4557   */\n      dup2\n        /* \"#utility.yul\":4548:4578   */\n      gt\n        /* \"#utility.yul\":4545:4547   */\n      iszero\n      tag_366\n      jumpi\n        /* \"#utility.yul\":4591:4592   */\n      0x00\n        /* \"#utility.yul\":4588:4589   */\n      dup1\n        /* \"#utility.yul\":4581:4593   */\n      revert\n        /* \"#utility.yul\":4545:4547   */\n    tag_366:\n        /* \"#utility.yul\":4619:4692   */\n      tag_367\n        /* \"#utility.yul\":4684:4691   */\n      dup5\n        /* \"#utility.yul\":4675:4681   */\n      dup3\n        /* \"#utility.yul\":4664:4673   */\n      dup6\n        /* \"#utility.yul\":4660:4682   */\n      add\n        /* \"#utility.yul\":4619:4692   */\n      tag_333\n      jump\t// in\n    tag_367:\n        /* \"#utility.yul\":4609:4692   */\n      swap2\n      pop\n        /* \"#utility.yul\":4479:4702   */\n      pop\n        /* \"#utility.yul\":4407:4709   */\n      swap3\n      swap2\n      pop\n      pop\n      jump\t// out\n        /* \"#utility.yul\":4715:5233   */\n    tag_86:\n        /* \"#utility.yul\":4792:4798   */\n      0x00\n        /* \"#utility.yul\":4800:4806   */\n      dup1\n        /* \"#utility.yul\":4849:4851   */\n      0x40\n        /* \"#utility.yul\":4837:4846   */\n      dup4\n        /* \"#utility.yul\":4828:4835   */\n      dup6\n        /* \"#utility.yul\":4824:4847   */\n      sub\n        /* \"#utility.yul\":4820:4852   */\n      slt\n        /* \"#utility.yul\":4817:4819   */\n      iszero\n      tag_369\n      jumpi\n        /* \"#utility.yul\":4865:4866   */\n      0x00\n        /* \"#utility.yul\":4862:4863   */\n      dup1\n        /* \"#utility.yul\":4855:4867   */\n      revert\n        /* \"#utility.yul\":4817:4819   */\n    tag_369:\n        /* \"#utility.yul\":4936:4937   */\n      0x00\n        /* \"#utility.yul\":4925:4934   */\n      dup4\n        /* \"#utility.yul\":4921:4938   */\n      add\n        /* \"#utility.yul\":4908:4939   */\n      calldataload\n        /* \"#utility.yul\":4966:4984   */\n      0xffffffffffffffff\n        /* \"#utility.yul\":4958:4964   */\n      dup2\n        /* \"#utility.yul\":4955:4985   */\n      gt\n        /* \"#utility.yul\":4952:4954   */\n      iszero\n      tag_370\n      jumpi\n        /* \"#utility.yul\":4998:4999   */\n      0x00\n        /* \"#utility.yul\":4995:4996   */\n      dup1\n        /* \"#utility.yul\":4988:5000   */\n      revert\n        /* \"#utility.yul\":4952:4954   */\n    tag_370:\n        /* \"#utility.yul\":5026:5088   */\n      tag_371\n        /* \"#utility.yul\":5080:5087   */\n      dup6\n        /* \"#utility.yul\":5071:5077   */\n      dup3\n        /* \"#utility.yul\":5060:5069   */\n      dup7\n        /* \"#utility.yul\":5056:5078   */\n      add\n        /* \"#utility.yul\":5026:5088   */\n      tag_329\n      jump\t// in\n    tag_371:\n        /* \"#utility.yul\":5016:5088   */\n      swap3\n      pop\n        /* \"#utility.yul\":4879:5098   */\n      pop\n        /* \"#utility.yul\":5137:5139   */\n      0x20\n        /* \"#utility.yul\":5163:5216   */\n      tag_372\n        /* \"#utility.yul\":5208:5215   */\n      dup6\n        /* \"#utility.yul\":5199:5205   */\n      dup3\n        /* \"#utility.yul\":5188:5197   */\n      dup7\n        /* \"#utility.yul\":5184:5206   */\n      add\n        /* \"#utility.yul\":5163:5216   */\n      tag_337\n      jump\t// in\n    tag_372:\n        /* \"#utility.yul\":5153:5216   */\n      swap2\n      pop\n        /* \"#utility.yul\":5108:5226   */\n      pop\n        /* \"#utility.yul\":4807:5233   */\n      swap3\n      pop\n      swap3\n      swap1\n      pop\n      jump\t// out\n        /* \"#utility.yul\":5239:5501   */\n    tag_27:\n        /* \"#utility.yul\":5298:5304   */\n      0x00\n        /* \"#utility.yul\":5347:5349   */\n      0x20\n        /* \"#utility.yul\":5335:5344   */\n      dup3\n        /* \"#utility.yul\":5326:5333   */\n      dup5\n        /* \"#utility.yul\":5322:5345   */\n      sub\n        /* \"#utility.yul\":5318:5350   */\n      slt\n        /* \"#utility.yul\":5315:5317   */\n      iszero\n      tag_374\n      jumpi\n        /* \"#utility.yul\":5363:5364   */\n      0x00\n        /* \"#utility.yul\":5360:5361   */\n      dup1\n        /* \"#utility.yul\":5353:5365   */\n      revert\n        /* \"#utility.yul\":5315:5317   */\n    tag_374:\n        /* \"#utility.yul\":5406:5407   */\n      0x00\n        /* \"#utility.yul\":5431:5484   */\n      tag_375\n        /* \"#utility.yul\":5476:5483   */\n      dup5\n        /* \"#utility.yul\":5467:5473   */\n      dup3\n        /* \"#utility.yul\":5456:5465   */\n      dup6\n        /* \"#utility.yul\":5452:5474   */\n      add\n        /* \"#utility.yul\":5431:5484   */\n      tag_337\n      jump\t// in\n    tag_375:\n        /* \"#utility.yul\":5421:5484   */\n      swap2\n      pop\n        /* \"#utility.yul\":5377:5494   */\n      pop\n        /* \"#utility.yul\":5305:5501   */\n      swap3\n      swap2\n      pop\n      pop\n      jump\t// out\n        /* \"#utility.yul\":5507:5625   */\n    tag_376:\n        /* \"#utility.yul\":5594:5618   */\n      tag_378\n        /* \"#utility.yul\":5612:5617   */\n      dup2\n        /* \"#utility.yul\":5594:5618   */\n      tag_379\n      jump\t// in\n    tag_378:\n        /* \"#utility.yul\":5589:5592   */\n      dup3\n        /* \"#utility.yul\":5582:5619   */\n      mstore\n        /* \"#utility.yul\":5572:5625   */\n      pop\n      pop\n      jump\t// out\n        /* \"#utility.yul\":5631:5740   */\n    tag_380:\n        /* \"#utility.yul\":5712:5733   */\n      tag_382\n        /* \"#utility.yul\":5727:5732   */\n      dup2\n        /* \"#utility.yul\":5712:5733   */\n      tag_383\n      jump\t// in\n    tag_382:\n        /* \"#utility.yul\":5707:5710   */\n      dup3\n        /* \"#utility.yul\":5700:5734   */\n      mstore\n        /* \"#utility.yul\":5690:5740   */\n      pop\n      pop\n      jump\t// out\n        /* \"#utility.yul\":5746:5899   */\n    tag_384:\n        /* \"#utility.yul\":5849:5892   */\n      tag_386\n        /* \"#utility.yul\":5868:5891   */\n      tag_387\n        /* \"#utility.yul\":5885:5890   */\n      dup3\n        /* \"#utility.yul\":5868:5891   */\n      tag_388\n      jump\t// in\n    tag_387:\n        /* \"#utility.yul\":5849:5892   */\n      tag_389\n      jump\t// in\n    tag_386:\n        /* \"#utility.yul\":5844:5847   */\n      dup3\n        /* \"#utility.yul\":5837:5893   */\n      mstore\n        /* \"#utility.yul\":5827:5899   */\n      pop\n      pop\n      jump\t// out\n        /* \"#utility.yul\":5905:6062   */\n    tag_390:\n        /* \"#utility.yul\":6010:6055   */\n      tag_392\n        /* \"#utility.yul\":6030:6054   */\n      tag_393\n        /* \"#utility.yul\":6048:6053   */\n      dup3\n        /* \"#utility.yul\":6030:6054   */\n      tag_394\n      jump\t// in\n    tag_393:\n        /* \"#utility.yul\":6010:6055   */\n      tag_395\n      jump\t// in\n    tag_392:\n        /* \"#utility.yul\":6005:6008   */\n      dup3\n        /* \"#utility.yul\":5998:6056   */\n      mstore\n        /* \"#utility.yul\":5988:6062   */\n      pop\n      pop\n      jump\t// out\n        /* \"#utility.yul\":6068:6186   */\n    tag_396:\n        /* \"#utility.yul\":6155:6179   */\n      tag_398\n        /* \"#utility.yul\":6173:6178   */\n      dup2\n        /* \"#utility.yul\":6155:6179   */\n      tag_399\n      jump\t// in\n    tag_398:\n        /* \"#utility.yul\":6150:6153   */\n      dup3\n        /* \"#utility.yul\":6143:6180   */\n      mstore\n        /* \"#utility.yul\":6133:6186   */\n      pop\n      pop\n      jump\t// out\n        /* \"#utility.yul\":6192:6349   */\n    tag_400:\n        /* \"#utility.yul\":6297:6342   */\n      tag_402\n        /* \"#utility.yul\":6317:6341   */\n      tag_403\n        /* \"#utility.yul\":6335:6340   */\n      dup3\n        /* \"#utility.yul\":6317:6341   */\n      tag_399\n      jump\t// in\n    tag_403:\n        /* \"#utility.yul\":6297:6342   */\n      tag_404\n      jump\t// in\n    tag_402:\n        /* \"#utility.yul\":6292:6295   */\n      dup3\n        /* \"#utility.yul\":6285:6343   */\n      mstore\n        /* \"#utility.yul\":6275:6349   */\n      pop\n      pop\n      jump\t// out\n        /* \"#utility.yul\":6355:6715   */\n    tag_405:\n        /* \"#utility.yul\":6441:6444   */\n      0x00\n        /* \"#utility.yul\":6469:6507   */\n      tag_407\n        /* \"#utility.yul\":6501:6506   */\n      dup3\n        /* \"#utility.yul\":6469:6507   */\n      tag_408\n      jump\t// in\n    tag_407:\n        /* \"#utility.yul\":6523:6593   */\n      tag_409\n        /* \"#utility.yul\":6586:6592   */\n      dup2\n        /* \"#utility.yul\":6581:6584   */\n      dup6\n        /* \"#utility.yul\":6523:6593   */\n      tag_410\n      jump\t// in\n    tag_409:\n        /* \"#utility.yul\":6516:6593   */\n      swap4\n      pop\n        /* \"#utility.yul\":6602:6654   */\n      tag_411\n        /* \"#utility.yul\":6647:6653   */\n      dup2\n        /* \"#utility.yul\":6642:6645   */\n      dup6\n        /* \"#utility.yul\":6635:6639   */\n      0x20\n        /* \"#utility.yul\":6628:6633   */\n      dup7\n        /* \"#utility.yul\":6624:6640   */\n      add\n        /* \"#utility.yul\":6602:6654   */\n      tag_313\n      jump\t// in\n    tag_411:\n        /* \"#utility.yul\":6679:6708   */\n      tag_412\n        /* \"#utility.yul\":6701:6707   */\n      dup2\n        /* \"#utility.yul\":6679:6708   */\n      tag_413\n      jump\t// in\n    tag_412:\n        /* \"#utility.yul\":6674:6677   */\n      dup5\n        /* \"#utility.yul\":6670:6709   */\n      add\n        /* \"#utility.yul\":6663:6709   */\n      swap2\n      pop\n        /* \"#utility.yul\":6445:6715   */\n      pop\n      swap3\n      swap2\n      pop\n      pop\n      jump\t// out\n        /* \"#utility.yul\":6721:7094   */\n    tag_414:\n        /* \"#utility.yul\":6825:6828   */\n      0x00\n        /* \"#utility.yul\":6853:6891   */\n      tag_416\n        /* \"#utility.yul\":6885:6890   */\n      dup3\n        /* \"#utility.yul\":6853:6891   */\n      tag_408\n      jump\t// in\n    tag_416:\n        /* \"#utility.yul\":6907:6995   */\n      tag_417\n        /* \"#utility.yul\":6988:6994   */\n      dup2\n        /* \"#utility.yul\":6983:6986   */\n      dup6\n        /* \"#utility.yul\":6907:6995   */\n      tag_418\n      jump\t// in\n    tag_417:\n        /* \"#utility.yul\":6900:6995   */\n      swap4\n      pop\n        /* \"#utility.yul\":7004:7056   */\n      tag_419\n        /* \"#utility.yul\":7049:7055   */\n      dup2\n        /* \"#utility.yul\":7044:7047   */\n      dup6\n        /* \"#utility.yul\":7037:7041   */\n      0x20\n        /* \"#utility.yul\":7030:7035   */\n      dup7\n        /* \"#utility.yul\":7026:7042   */\n      add\n        /* \"#utility.yul\":7004:7056   */\n      tag_313\n      jump\t// in\n    tag_419:\n        /* \"#utility.yul\":7081:7087   */\n      dup1\n        /* \"#utility.yul\":7076:7079   */\n      dup5\n        /* \"#utility.yul\":7072:7088   */\n      add\n        /* \"#utility.yul\":7065:7088   */\n      swap2\n      pop\n        /* \"#utility.yul\":6829:7094   */\n      pop\n      swap3\n      swap2\n      pop\n      pop\n      jump\t// out\n        /* \"#utility.yul\":7100:7464   */\n    tag_420:\n        /* \"#utility.yul\":7188:7191   */\n      0x00\n        /* \"#utility.yul\":7216:7255   */\n      tag_422\n        /* \"#utility.yul\":7249:7254   */\n      dup3\n        /* \"#utility.yul\":7216:7255   */\n      tag_423\n      jump\t// in\n    tag_422:\n        /* \"#utility.yul\":7271:7342   */\n      tag_424\n        /* \"#utility.yul\":7335:7341   */\n      dup2\n        /* \"#utility.yul\":7330:7333   */\n      dup6\n        /* \"#utility.yul\":7271:7342   */\n      tag_425\n      jump\t// in\n    tag_424:\n        /* \"#utility.yul\":7264:7342   */\n      swap4\n      pop\n        /* \"#utility.yul\":7351:7403   */\n      tag_426\n        /* \"#utility.yul\":7396:7402   */\n      dup2\n        /* \"#utility.yul\":7391:7394   */\n      dup6\n        /* \"#utility.yul\":7384:7388   */\n      0x20\n        /* \"#utility.yul\":7377:7382   */\n      dup7\n        /* \"#utility.yul\":7373:7389   */\n      add\n        /* \"#utility.yul\":7351:7403   */\n      tag_313\n      jump\t// in\n    tag_426:\n        /* \"#utility.yul\":7428:7457   */\n      tag_427\n        /* \"#utility.yul\":7450:7456   */\n      dup2\n        /* \"#utility.yul\":7428:7457   */\n      tag_413\n      jump\t// in\n    tag_427:\n        /* \"#utility.yul\":7423:7426   */\n      dup5\n        /* \"#utility.yul\":7419:7458   */\n      add\n        /* \"#utility.yul\":7412:7458   */\n      swap2\n      pop\n        /* \"#utility.yul\":7192:7464   */\n      pop\n      swap3\n      swap2\n      pop\n      pop\n      jump\t// out\n        /* \"#utility.yul\":7470:7847   */\n    tag_428:\n        /* \"#utility.yul\":7576:7579   */\n      0x00\n        /* \"#utility.yul\":7604:7643   */\n      tag_430\n        /* \"#utility.yul\":7637:7642   */\n      dup3\n        /* \"#utility.yul\":7604:7643   */\n      tag_423\n      jump\t// in\n    tag_430:\n        /* \"#utility.yul\":7659:7748   */\n      tag_431\n        /* \"#utility.yul\":7741:7747   */\n      dup2\n        /* \"#utility.yul\":7736:7739   */\n      dup6\n        /* \"#utility.yul\":7659:7748   */\n      tag_432\n      jump\t// in\n    tag_431:\n        /* \"#utility.yul\":7652:7748   */\n      swap4\n      pop\n        /* \"#utility.yul\":7757:7809   */\n      tag_433\n        /* \"#utility.yul\":7802:7808   */\n      dup2\n        /* \"#utility.yul\":7797:7800   */\n      dup6\n        /* \"#utility.yul\":7790:7794   */\n      0x20\n        /* \"#utility.yul\":7783:7788   */\n      dup7\n        /* \"#utility.yul\":7779:7795   */\n      add\n        /* \"#utility.yul\":7757:7809   */\n      tag_313\n      jump\t// in\n    tag_433:\n        /* \"#utility.yul\":7834:7840   */\n      dup1\n        /* \"#utility.yul\":7829:7832   */\n      dup5\n        /* \"#utility.yul\":7825:7841   */\n      add\n        /* \"#utility.yul\":7818:7841   */\n      swap2\n      pop\n        /* \"#utility.yul\":7580:7847   */\n      pop\n      swap3\n      swap2\n      pop\n      pop\n      jump\t// out\n        /* \"#utility.yul\":7853:8219   */\n    tag_434:\n        /* \"#utility.yul\":7995:7998   */\n      0x00\n        /* \"#utility.yul\":8016:8083   */\n      tag_436\n        /* \"#utility.yul\":8080:8082   */\n      0x20\n        /* \"#utility.yul\":8075:8078   */\n      dup4\n        /* \"#utility.yul\":8016:8083   */\n      tag_425\n      jump\t// in\n    tag_436:\n        /* \"#utility.yul\":8009:8083   */\n      swap2\n      pop\n        /* \"#utility.yul\":8092:8185   */\n      tag_437\n        /* \"#utility.yul\":8181:8184   */\n      dup3\n        /* \"#utility.yul\":8092:8185   */\n      tag_438\n      jump\t// in\n    tag_437:\n        /* \"#utility.yul\":8210:8212   */\n      0x20\n        /* \"#utility.yul\":8205:8208   */\n      dup3\n        /* \"#utility.yul\":8201:8213   */\n      add\n        /* \"#utility.yul\":8194:8213   */\n      swap1\n      pop\n        /* \"#utility.yul\":7999:8219   */\n      swap2\n      swap1\n      pop\n      jump\t// out\n        /* \"#utility.yul\":8225:8591   */\n    tag_439:\n        /* \"#utility.yul\":8367:8370   */\n      0x00\n        /* \"#utility.yul\":8388:8455   */\n      tag_441\n        /* \"#utility.yul\":8452:8454   */\n      0x14\n        /* \"#utility.yul\":8447:8450   */\n      dup4\n        /* \"#utility.yul\":8388:8455   */\n      tag_425\n      jump\t// in\n    tag_441:\n        /* \"#utility.yul\":8381:8455   */\n      swap2\n      pop\n        /* \"#utility.yul\":8464:8557   */\n      tag_442\n        /* \"#utility.yul\":8553:8556   */\n      dup3\n        /* \"#utility.yul\":8464:8557   */\n      tag_443\n      jump\t// in\n    tag_442:\n        /* \"#utility.yul\":8582:8584   */\n      0x20\n        /* \"#utility.yul\":8577:8580   */\n      dup3\n        /* \"#utility.yul\":8573:8585   */\n      add\n        /* \"#utility.yul\":8566:8585   */\n      swap1\n      pop\n        /* \"#utility.yul\":8371:8591   */\n      swap2\n      swap1\n      pop\n      jump\t// out\n        /* \"#utility.yul\":8597:8963   */\n    tag_444:\n        /* \"#utility.yul\":8739:8742   */\n      0x00\n        /* \"#utility.yul\":8760:8827   */\n      tag_446\n        /* \"#utility.yul\":8824:8826   */\n      0x4f\n        /* \"#utility.yul\":8819:8822   */\n      dup4\n        /* \"#utility.yul\":8760:8827   */\n      tag_425\n      jump\t// in\n    tag_446:\n        /* \"#utility.yul\":8753:8827   */\n      swap2\n      pop\n        /* \"#utility.yul\":8836:8929   */\n      tag_447\n        /* \"#utility.yul\":8925:8928   */\n      dup3\n        /* \"#utility.yul\":8836:8929   */\n      tag_448\n      jump\t// in\n    tag_447:\n        /* \"#utility.yul\":8954:8956   */\n      0x60\n        /* \"#utility.yul\":8949:8952   */\n      dup3\n        /* \"#utility.yul\":8945:8957   */\n      add\n        /* \"#utility.yul\":8938:8957   */\n      swap1\n      pop\n        /* \"#utility.yul\":8743:8963   */\n      swap2\n      swap1\n      pop\n      jump\t// out\n        /* \"#utility.yul\":8969:9335   */\n    tag_449:\n        /* \"#utility.yul\":9111:9114   */\n      0x00\n        /* \"#utility.yul\":9132:9199   */\n      tag_451\n        /* \"#utility.yul\":9196:9198   */\n      0x10\n        /* \"#utility.yul\":9191:9194   */\n      dup4\n        /* \"#utility.yul\":9132:9199   */\n      tag_425\n      jump\t// in\n    tag_451:\n        /* \"#utility.yul\":9125:9199   */\n      swap2\n      pop\n        /* \"#utility.yul\":9208:9301   */\n      tag_452\n        /* \"#utility.yul\":9297:9300   */\n      dup3\n        /* \"#utility.yul\":9208:9301   */\n      tag_453\n      jump\t// in\n    tag_452:\n        /* \"#utility.yul\":9326:9328   */\n      0x20\n        /* \"#utility.yul\":9321:9324   */\n      dup3\n        /* \"#utility.yul\":9317:9329   */\n      add\n        /* \"#utility.yul\":9310:9329   */\n      swap1\n      pop\n        /* \"#utility.yul\":9115:9335   */\n      swap2\n      swap1\n      pop\n      jump\t// out\n        /* \"#utility.yul\":9341:9707   */\n    tag_454:\n        /* \"#utility.yul\":9483:9486   */\n      0x00\n        /* \"#utility.yul\":9504:9571   */\n      tag_456\n        /* \"#utility.yul\":9568:9570   */\n      0x53\n        /* \"#utility.yul\":9563:9566   */\n      dup4\n        /* \"#utility.yul\":9504:9571   */\n      tag_425\n      jump\t// in\n    tag_456:\n        /* \"#utility.yul\":9497:9571   */\n      swap2\n      pop\n        /* \"#utility.yul\":9580:9673   */\n      tag_457\n        /* \"#utility.yul\":9669:9672   */\n      dup3\n        /* \"#utility.yul\":9580:9673   */\n      tag_458\n      jump\t// in\n    tag_457:\n        /* \"#utility.yul\":9698:9700   */\n      0x60\n        /* \"#utility.yul\":9693:9696   */\n      dup3\n        /* \"#utility.yul\":9689:9701   */\n      add\n        /* \"#utility.yul\":9682:9701   */\n      swap1\n      pop\n        /* \"#utility.yul\":9487:9707   */\n      swap2\n      swap1\n      pop\n      jump\t// out\n        /* \"#utility.yul\":9713:10079   */\n    tag_459:\n        /* \"#utility.yul\":9855:9858   */\n      0x00\n        /* \"#utility.yul\":9876:9943   */\n      tag_461\n        /* \"#utility.yul\":9940:9942   */\n      0x2c\n        /* \"#utility.yul\":9935:9938   */\n      dup4\n        /* \"#utility.yul\":9876:9943   */\n      tag_425\n      jump\t// in\n    tag_461:\n        /* \"#utility.yul\":9869:9943   */\n      swap2\n      pop\n        /* \"#utility.yul\":9952:10045   */\n      tag_462\n        /* \"#utility.yul\":10041:10044   */\n      dup3\n        /* \"#utility.yul\":9952:10045   */\n      tag_463\n      jump\t// in\n    tag_462:\n        /* \"#utility.yul\":10070:10072   */\n      0x40\n        /* \"#utility.yul\":10065:10068   */\n      dup3\n        /* \"#utility.yul\":10061:10073   */\n      add\n        /* \"#utility.yul\":10054:10073   */\n      swap1\n      pop\n        /* \"#utility.yul\":9859:10079   */\n      swap2\n      swap1\n      pop\n      jump\t// out\n        /* \"#utility.yul\":10085:10487   */\n    tag_464:\n        /* \"#utility.yul\":10245:10248   */\n      0x00\n        /* \"#utility.yul\":10266:10351   */\n      tag_466\n        /* \"#utility.yul\":10348:10350   */\n      0x17\n        /* \"#utility.yul\":10343:10346   */\n      dup4\n        /* \"#utility.yul\":10266:10351   */\n      tag_432\n      jump\t// in\n    tag_466:\n        /* \"#utility.yul\":10259:10351   */\n      swap2\n      pop\n        /* \"#utility.yul\":10360:10453   */\n      tag_467\n        /* \"#utility.yul\":10449:10452   */\n      dup3\n        /* \"#utility.yul\":10360:10453   */\n      tag_468\n      jump\t// in\n    tag_467:\n        /* \"#utility.yul\":10478:10480   */\n      0x17\n        /* \"#utility.yul\":10473:10476   */\n      dup3\n        /* \"#utility.yul\":10469:10481   */\n      add\n        /* \"#utility.yul\":10462:10481   */\n      swap1\n      pop\n        /* \"#utility.yul\":10249:10487   */\n      swap2\n      swap1\n      pop\n      jump\t// out\n        /* \"#utility.yul\":10493:10859   */\n    tag_469:\n        /* \"#utility.yul\":10635:10638   */\n      0x00\n        /* \"#utility.yul\":10656:10723   */\n      tag_471\n        /* \"#utility.yul\":10720:10722   */\n      0x1e\n        /* \"#utility.yul\":10715:10718   */\n      dup4\n        /* \"#utility.yul\":10656:10723   */\n      tag_425\n      jump\t// in\n    tag_471:\n        /* \"#utility.yul\":10649:10723   */\n      swap2\n      pop\n        /* \"#utility.yul\":10732:10825   */\n      tag_472\n        /* \"#utility.yul\":10821:10824   */\n      dup3\n        /* \"#utility.yul\":10732:10825   */\n      tag_473\n      jump\t// in\n    tag_472:\n        /* \"#utility.yul\":10850:10852   */\n      0x20\n        /* \"#utility.yul\":10845:10848   */\n      dup3\n        /* \"#utility.yul\":10841:10853   */\n      add\n        /* \"#utility.yul\":10834:10853   */\n      swap1\n      pop\n        /* \"#utility.yul\":10639:10859   */\n      swap2\n      swap1\n      pop\n      jump\t// out\n        /* \"#utility.yul\":10865:11231   */\n    tag_474:\n        /* \"#utility.yul\":11007:11010   */\n      0x00\n        /* \"#utility.yul\":11028:11095   */\n      tag_476\n        /* \"#utility.yul\":11092:11094   */\n      0x29\n        /* \"#utility.yul\":11087:11090   */\n      dup4\n        /* \"#utility.yul\":11028:11095   */\n      tag_425\n      jump\t// in\n    tag_476:\n        /* \"#utility.yul\":11021:11095   */\n      swap2\n      pop\n        /* \"#utility.yul\":11104:11197   */\n      tag_477\n        /* \"#utility.yul\":11193:11196   */\n      dup3\n        /* \"#utility.yul\":11104:11197   */\n      tag_478\n      jump\t// in\n    tag_477:\n        /* \"#utility.yul\":11222:11224   */\n      0x40\n        /* \"#utility.yul\":11217:11220   */\n      dup3\n        /* \"#utility.yul\":11213:11225   */\n      add\n        /* \"#utility.yul\":11206:11225   */\n      swap1\n      pop\n        /* \"#utility.yul\":11011:11231   */\n      swap2\n      swap1\n      pop\n      jump\t// out\n        /* \"#utility.yul\":11237:11639   */\n    tag_479:\n        /* \"#utility.yul\":11397:11400   */\n      0x00\n        /* \"#utility.yul\":11418:11503   */\n      tag_481\n        /* \"#utility.yul\":11500:11502   */\n      0x11\n        /* \"#utility.yul\":11495:11498   */\n      dup4\n        /* \"#utility.yul\":11418:11503   */\n      tag_432\n      jump\t// in\n    tag_481:\n        /* \"#utility.yul\":11411:11503   */\n      swap2\n      pop\n        /* \"#utility.yul\":11512:11605   */\n      tag_482\n        /* \"#utility.yul\":11601:11604   */\n      dup3\n        /* \"#utility.yul\":11512:11605   */\n      tag_483\n      jump\t// in\n    tag_482:\n        /* \"#utility.yul\":11630:11632   */\n      0x11\n        /* \"#utility.yul\":11625:11628   */\n      dup3\n        /* \"#utility.yul\":11621:11633   */\n      add\n        /* \"#utility.yul\":11614:11633   */\n      swap1\n      pop\n        /* \"#utility.yul\":11401:11639   */\n      swap2\n      swap1\n      pop\n      jump\t// out\n        /* \"#utility.yul\":11645:12011   */\n    tag_484:\n        /* \"#utility.yul\":11787:11790   */\n      0x00\n        /* \"#utility.yul\":11808:11875   */\n      tag_486\n        /* \"#utility.yul\":11872:11874   */\n      0x2f\n        /* \"#utility.yul\":11867:11870   */\n      dup4\n        /* \"#utility.yul\":11808:11875   */\n      tag_425\n      jump\t// in\n    tag_486:\n        /* \"#utility.yul\":11801:11875   */\n      swap2\n      pop\n        /* \"#utility.yul\":11884:11977   */\n      tag_487\n        /* \"#utility.yul\":11973:11976   */\n      dup3\n        /* \"#utility.yul\":11884:11977   */\n      tag_488\n      jump\t// in\n    tag_487:\n        /* \"#utility.yul\":12002:12004   */\n      0x40\n        /* \"#utility.yul\":11997:12000   */\n      dup3\n        /* \"#utility.yul\":11993:12005   */\n      add\n        /* \"#utility.yul\":11986:12005   */\n      swap1\n      pop\n        /* \"#utility.yul\":11791:12011   */\n      swap2\n      swap1\n      pop\n      jump\t// out\n        /* \"#utility.yul\":12017:12135   */\n    tag_489:\n        /* \"#utility.yul\":12104:12128   */\n      tag_491\n        /* \"#utility.yul\":12122:12127   */\n      dup2\n        /* \"#utility.yul\":12104:12128   */\n      tag_492\n      jump\t// in\n    tag_491:\n        /* \"#utility.yul\":12099:12102   */\n      dup3\n        /* \"#utility.yul\":12092:12129   */\n      mstore\n        /* \"#utility.yul\":12082:12135   */\n      pop\n      pop\n      jump\t// out\n        /* \"#utility.yul\":12141:12548   */\n    tag_173:\n        /* \"#utility.yul\":12297:12300   */\n      0x00\n        /* \"#utility.yul\":12312:12385   */\n      tag_494\n        /* \"#utility.yul\":12381:12384   */\n      dup3\n        /* \"#utility.yul\":12372:12378   */\n      dup6\n        /* \"#utility.yul\":12312:12385   */\n      tag_384\n      jump\t// in\n    tag_494:\n        /* \"#utility.yul\":12410:12411   */\n      0x01\n        /* \"#utility.yul\":12405:12408   */\n      dup3\n        /* \"#utility.yul\":12401:12412   */\n      add\n        /* \"#utility.yul\":12394:12412   */\n      swap2\n      pop\n        /* \"#utility.yul\":12429:12522   */\n      tag_495\n        /* \"#utility.yul\":12518:12521   */\n      dup3\n        /* \"#utility.yul\":12509:12515   */\n      dup5\n        /* \"#utility.yul\":12429:12522   */\n      tag_414\n      jump\t// in\n    tag_495:\n        /* \"#utility.yul\":12422:12522   */\n      swap2\n      pop\n        /* \"#utility.yul\":12539:12542   */\n      dup2\n        /* \"#utility.yul\":12532:12542   */\n      swap1\n      pop\n        /* \"#utility.yul\":12301:12548   */\n      swap4\n      swap3\n      pop\n      pop\n      pop\n      jump\t// out\n        /* \"#utility.yul\":12554:12810   */\n    tag_171:\n        /* \"#utility.yul\":12666:12669   */\n      0x00\n        /* \"#utility.yul\":12681:12756   */\n      tag_497\n        /* \"#utility.yul\":12752:12755   */\n      dup3\n        /* \"#utility.yul\":12743:12749   */\n      dup5\n        /* \"#utility.yul\":12681:12756   */\n      tag_390\n      jump\t// in\n    tag_497:\n        /* \"#utility.yul\":12781:12783   */\n      0x14\n        /* \"#utility.yul\":12776:12779   */\n      dup3\n        /* \"#utility.yul\":12772:12784   */\n      add\n        /* \"#utility.yul\":12765:12784   */\n      swap2\n      pop\n        /* \"#utility.yul\":12801:12804   */\n      dup2\n        /* \"#utility.yul\":12794:12804   */\n      swap1\n      pop\n        /* \"#utility.yul\":12670:12810   */\n      swap3\n      swap2\n      pop\n      pop\n      jump\t// out\n        /* \"#utility.yul\":12816:13072   */\n    tag_166:\n        /* \"#utility.yul\":12928:12931   */\n      0x00\n        /* \"#utility.yul\":12943:13018   */\n      tag_499\n        /* \"#utility.yul\":13014:13017   */\n      dup3\n        /* \"#utility.yul\":13005:13011   */\n      dup5\n        /* \"#utility.yul\":12943:13018   */\n      tag_400\n      jump\t// in\n    tag_499:\n        /* \"#utility.yul\":13043:13045   */\n      0x20\n        /* \"#utility.yul\":13038:13041   */\n      dup3\n        /* \"#utility.yul\":13034:13046   */\n      add\n        /* \"#utility.yul\":13027:13046   */\n      swap2\n      pop\n        /* \"#utility.yul\":13063:13066   */\n      dup2\n        /* \"#utility.yul\":13056:13066   */\n      swap1\n      pop\n        /* \"#utility.yul\":12932:13072   */\n      swap3\n      swap2\n      pop\n      pop\n      jump\t// out\n        /* \"#utility.yul\":13078:13349   */\n    tag_119:\n        /* \"#utility.yul\":13208:13211   */\n      0x00\n        /* \"#utility.yul\":13230:13323   */\n      tag_501\n        /* \"#utility.yul\":13319:13322   */\n      dup3\n        /* \"#utility.yul\":13310:13316   */\n      dup5\n        /* \"#utility.yul\":13230:13323   */\n      tag_414\n      jump\t// in\n    tag_501:\n        /* \"#utility.yul\":13223:13323   */\n      swap2\n      pop\n        /* \"#utility.yul\":13340:13343   */\n      dup2\n        /* \"#utility.yul\":13333:13343   */\n      swap1\n      pop\n        /* \"#utility.yul\":13212:13349   */\n      swap3\n      swap2\n      pop\n      pop\n      jump\t// out\n        /* \"#utility.yul\":13355:13782   */\n    tag_187:\n        /* \"#utility.yul\":13531:13534   */\n      0x00\n        /* \"#utility.yul\":13553:13646   */\n      tag_503\n        /* \"#utility.yul\":13642:13645   */\n      dup3\n        /* \"#utility.yul\":13633:13639   */\n      dup6\n        /* \"#utility.yul\":13553:13646   */\n      tag_414\n      jump\t// in\n    tag_503:\n        /* \"#utility.yul\":13546:13646   */\n      swap2\n      pop\n        /* \"#utility.yul\":13663:13756   */\n      tag_504\n        /* \"#utility.yul\":13752:13755   */\n      dup3\n        /* \"#utility.yul\":13743:13749   */\n      dup5\n        /* \"#utility.yul\":13663:13756   */\n      tag_414\n      jump\t// in\n    tag_504:\n        /* \"#utility.yul\":13656:13756   */\n      swap2\n      pop\n        /* \"#utility.yul\":13773:13776   */\n      dup2\n        /* \"#utility.yul\":13766:13776   */\n      swap1\n      pop\n        /* \"#utility.yul\":13535:13782   */\n      swap4\n      swap3\n      pop\n      pop\n      pop\n      jump\t// out\n        /* \"#utility.yul\":13788:14755   */\n    tag_236:\n        /* \"#utility.yul\":14170:14173   */\n      0x00\n        /* \"#utility.yul\":14192:14340   */\n      tag_506\n        /* \"#utility.yul\":14336:14339   */\n      dup3\n        /* \"#utility.yul\":14192:14340   */\n      tag_464\n      jump\t// in\n    tag_506:\n        /* \"#utility.yul\":14185:14340   */\n      swap2\n      pop\n        /* \"#utility.yul\":14357:14452   */\n      tag_507\n        /* \"#utility.yul\":14448:14451   */\n      dup3\n        /* \"#utility.yul\":14439:14445   */\n      dup6\n        /* \"#utility.yul\":14357:14452   */\n      tag_428\n      jump\t// in\n    tag_507:\n        /* \"#utility.yul\":14350:14452   */\n      swap2\n      pop\n        /* \"#utility.yul\":14469:14617   */\n      tag_508\n        /* \"#utility.yul\":14613:14616   */\n      dup3\n        /* \"#utility.yul\":14469:14617   */\n      tag_479\n      jump\t// in\n    tag_508:\n        /* \"#utility.yul\":14462:14617   */\n      swap2\n      pop\n        /* \"#utility.yul\":14634:14729   */\n      tag_509\n        /* \"#utility.yul\":14725:14728   */\n      dup3\n        /* \"#utility.yul\":14716:14722   */\n      dup5\n        /* \"#utility.yul\":14634:14729   */\n      tag_428\n      jump\t// in\n    tag_509:\n        /* \"#utility.yul\":14627:14729   */\n      swap2\n      pop\n        /* \"#utility.yul\":14746:14749   */\n      dup2\n        /* \"#utility.yul\":14739:14749   */\n      swap1\n      pop\n        /* \"#utility.yul\":14174:14755   */\n      swap4\n      swap3\n      pop\n      pop\n      pop\n      jump\t// out\n        /* \"#utility.yul\":14761:14983   */\n    tag_256:\n        /* \"#utility.yul\":14854:14858   */\n      0x00\n        /* \"#utility.yul\":14892:14894   */\n      0x20\n        /* \"#utility.yul\":14881:14890   */\n      dup3\n        /* \"#utility.yul\":14877:14895   */\n      add\n        /* \"#utility.yul\":14869:14895   */\n      swap1\n      pop\n        /* \"#utility.yul\":14905:14976   */\n      tag_511\n        /* \"#utility.yul\":14973:14974   */\n      0x00\n        /* \"#utility.yul\":14962:14971   */\n      dup4\n        /* \"#utility.yul\":14958:14975   */\n      add\n        /* \"#utility.yul\":14949:14955   */\n      dup5\n        /* \"#utility.yul\":14905:14976   */\n      tag_376\n      jump\t// in\n    tag_511:\n        /* \"#utility.yul\":14859:14983   */\n      swap3\n      swap2\n      pop\n      pop\n      jump\t// out\n        /* \"#utility.yul\":14989:15827   */\n    tag_200:\n        /* \"#utility.yul\":15230:15234   */\n      0x00\n        /* \"#utility.yul\":15268:15271   */\n      0xa0\n        /* \"#utility.yul\":15257:15266   */\n      dup3\n        /* \"#utility.yul\":15253:15272   */\n      add\n        /* \"#utility.yul\":15245:15272   */\n      swap1\n      pop\n        /* \"#utility.yul\":15282:15353   */\n      tag_513\n        /* \"#utility.yul\":15350:15351   */\n      0x00\n        /* \"#utility.yul\":15339:15348   */\n      dup4\n        /* \"#utility.yul\":15335:15352   */\n      add\n        /* \"#utility.yul\":15326:15332   */\n      dup9\n        /* \"#utility.yul\":15282:15353   */\n      tag_376\n      jump\t// in\n    tag_513:\n        /* \"#utility.yul\":15363:15435   */\n      tag_514\n        /* \"#utility.yul\":15431:15433   */\n      0x20\n        /* \"#utility.yul\":15420:15429   */\n      dup4\n        /* \"#utility.yul\":15416:15434   */\n      add\n        /* \"#utility.yul\":15407:15413   */\n      dup8\n        /* \"#utility.yul\":15363:15435   */\n      tag_396\n      jump\t// in\n    tag_514:\n        /* \"#utility.yul\":15482:15491   */\n      dup2\n        /* \"#utility.yul\":15476:15480   */\n      dup2\n        /* \"#utility.yul\":15472:15492   */\n      sub\n        /* \"#utility.yul\":15467:15469   */\n      0x40\n        /* \"#utility.yul\":15456:15465   */\n      dup4\n        /* \"#utility.yul\":15452:15470   */\n      add\n        /* \"#utility.yul\":15445:15493   */\n      mstore\n        /* \"#utility.yul\":15510:15586   */\n      tag_515\n        /* \"#utility.yul\":15581:15585   */\n      dup2\n        /* \"#utility.yul\":15572:15578   */\n      dup7\n        /* \"#utility.yul\":15510:15586   */\n      tag_405\n      jump\t// in\n    tag_515:\n        /* \"#utility.yul\":15502:15586   */\n      swap1\n      pop\n        /* \"#utility.yul\":15633:15642   */\n      dup2\n        /* \"#utility.yul\":15627:15631   */\n      dup2\n        /* \"#utility.yul\":15623:15643   */\n      sub\n        /* \"#utility.yul\":15618:15620   */\n      0x60\n        /* \"#utility.yul\":15607:15616   */\n      dup4\n        /* \"#utility.yul\":15603:15621   */\n      add\n        /* \"#utility.yul\":15596:15644   */\n      mstore\n        /* \"#utility.yul\":15661:15737   */\n      tag_516\n        /* \"#utility.yul\":15732:15736   */\n      dup2\n        /* \"#utility.yul\":15723:15729   */\n      dup6\n        /* \"#utility.yul\":15661:15737   */\n      tag_405\n      jump\t// in\n    tag_516:\n        /* \"#utility.yul\":15653:15737   */\n      swap1\n      pop\n        /* \"#utility.yul\":15747:15820   */\n      tag_517\n        /* \"#utility.yul\":15815:15818   */\n      0x80\n        /* \"#utility.yul\":15804:15813   */\n      dup4\n        /* \"#utility.yul\":15800:15819   */\n      add\n        /* \"#utility.yul\":15791:15797   */\n      dup5\n        /* \"#utility.yul\":15747:15820   */\n      tag_489\n      jump\t// in\n    tag_517:\n        /* \"#utility.yul\":15235:15827   */\n      swap7\n      swap6\n      pop\n      pop\n      pop\n      pop\n      pop\n      pop\n      jump\t// out\n        /* \"#utility.yul\":15833:16165   */\n    tag_195:\n        /* \"#utility.yul\":15954:15958   */\n      0x00\n        /* \"#utility.yul\":15992:15994   */\n      0x40\n        /* \"#utility.yul\":15981:15990   */\n      dup3\n        /* \"#utility.yul\":15977:15995   */\n      add\n        /* \"#utility.yul\":15969:15995   */\n      swap1\n      pop\n        /* \"#utility.yul\":16005:16076   */\n      tag_519\n        /* \"#utility.yul\":16073:16074   */\n      0x00\n        /* \"#utility.yul\":16062:16071   */\n      dup4\n        /* \"#utility.yul\":16058:16075   */\n      add\n        /* \"#utility.yul\":16049:16055   */\n      dup6\n        /* \"#utility.yul\":16005:16076   */\n      tag_376\n      jump\t// in\n    tag_519:\n        /* \"#utility.yul\":16086:16158   */\n      tag_520\n        /* \"#utility.yul\":16154:16156   */\n      0x20\n        /* \"#utility.yul\":16143:16152   */\n      dup4\n        /* \"#utility.yul\":16139:16157   */\n      add\n        /* \"#utility.yul\":16130:16136   */\n      dup5\n        /* \"#utility.yul\":16086:16158   */\n      tag_489\n      jump\t// in\n    tag_520:\n        /* \"#utility.yul\":15959:16165   */\n      swap4\n      swap3\n      pop\n      pop\n      pop\n      jump\t// out\n        /* \"#utility.yul\":16171:16381   */\n    tag_34:\n        /* \"#utility.yul\":16258:16262   */\n      0x00\n        /* \"#utility.yul\":16296:16298   */\n      0x20\n        /* \"#utility.yul\":16285:16294   */\n      dup3\n        /* \"#utility.yul\":16281:16299   */\n      add\n        /* \"#utility.yul\":16273:16299   */\n      swap1\n      pop\n        /* \"#utility.yul\":16309:16374   */\n      tag_522\n        /* \"#utility.yul\":16371:16372   */\n      0x00\n        /* \"#utility.yul\":16360:16369   */\n      dup4\n        /* \"#utility.yul\":16356:16373   */\n      add\n        /* \"#utility.yul\":16347:16353   */\n      dup5\n        /* \"#utility.yul\":16309:16374   */\n      tag_380\n      jump\t// in\n    tag_522:\n        /* \"#utility.yul\":16263:16381   */\n      swap3\n      swap2\n      pop\n      pop\n      jump\t// out\n        /* \"#utility.yul\":16387:16609   */\n    tag_40:\n        /* \"#utility.yul\":16480:16484   */\n      0x00\n        /* \"#utility.yul\":16518:16520   */\n      0x20\n        /* \"#utility.yul\":16507:16516   */\n      dup3\n        /* \"#utility.yul\":16503:16521   */\n      add\n        /* \"#utility.yul\":16495:16521   */\n      swap1\n      pop\n        /* \"#utility.yul\":16531:16602   */\n      tag_524\n        /* \"#utility.yul\":16599:16600   */\n      0x00\n        /* \"#utility.yul\":16588:16597   */\n      dup4\n        /* \"#utility.yul\":16584:16601   */\n      add\n        /* \"#utility.yul\":16575:16581   */\n      dup5\n        /* \"#utility.yul\":16531:16602   */\n      tag_396\n      jump\t// in\n    tag_524:\n        /* \"#utility.yul\":16485:16609   */\n      swap3\n      swap2\n      pop\n      pop\n      jump\t// out\n        /* \"#utility.yul\":16615:17034   */\n    tag_151:\n        /* \"#utility.yul\":16754:16758   */\n      0x00\n        /* \"#utility.yul\":16792:16794   */\n      0x40\n        /* \"#utility.yul\":16781:16790   */\n      dup3\n        /* \"#utility.yul\":16777:16795   */\n      add\n        /* \"#utility.yul\":16769:16795   */\n      swap1\n      pop\n        /* \"#utility.yul\":16805:16876   */\n      tag_526\n        /* \"#utility.yul\":16873:16874   */\n      0x00\n        /* \"#utility.yul\":16862:16871   */\n      dup4\n        /* \"#utility.yul\":16858:16875   */\n      add\n        /* \"#utility.yul\":16849:16855   */\n      dup6\n        /* \"#utility.yul\":16805:16876   */\n      tag_396\n      jump\t// in\n    tag_526:\n        /* \"#utility.yul\":16923:16932   */\n      dup2\n        /* \"#utility.yul\":16917:16921   */\n      dup2\n        /* \"#utility.yul\":16913:16933   */\n      sub\n        /* \"#utility.yul\":16908:16910   */\n      0x20\n        /* \"#utility.yul\":16897:16906   */\n      dup4\n        /* \"#utility.yul\":16893:16911   */\n      add\n        /* \"#utility.yul\":16886:16934   */\n      mstore\n        /* \"#utility.yul\":16951:17027   */\n      tag_527\n        /* \"#utility.yul\":17022:17026   */\n      dup2\n        /* \"#utility.yul\":17013:17019   */\n      dup5\n        /* \"#utility.yul\":16951:17027   */\n      tag_405\n      jump\t// in\n    tag_527:\n        /* \"#utility.yul\":16943:17027   */\n      swap1\n      pop\n        /* \"#utility.yul\":16759:17034   */\n      swap4\n      swap3\n      pop\n      pop\n      pop\n      jump\t// out\n        /* \"#utility.yul\":17040:17353   */\n    tag_238:\n        /* \"#utility.yul\":17153:17157   */\n      0x00\n        /* \"#utility.yul\":17191:17193   */\n      0x20\n        /* \"#utility.yul\":17180:17189   */\n      dup3\n        /* \"#utility.yul\":17176:17194   */\n      add\n        /* \"#utility.yul\":17168:17194   */\n      swap1\n      pop\n        /* \"#utility.yul\":17240:17249   */\n      dup2\n        /* \"#utility.yul\":17234:17238   */\n      dup2\n        /* \"#utility.yul\":17230:17250   */\n      sub\n        /* \"#utility.yul\":17226:17227   */\n      0x00\n        /* \"#utility.yul\":17215:17224   */\n      dup4\n        /* \"#utility.yul\":17211:17228   */\n      add\n        /* \"#utility.yul\":17204:17251   */\n      mstore\n        /* \"#utility.yul\":17268:17346   */\n      tag_529\n        /* \"#utility.yul\":17341:17345   */\n      dup2\n        /* \"#utility.yul\":17332:17338   */\n      dup5\n        /* \"#utility.yul\":17268:17346   */\n      tag_420\n      jump\t// in\n    tag_529:\n        /* \"#utility.yul\":17260:17346   */\n      swap1\n      pop\n        /* \"#utility.yul\":17158:17353   */\n      swap3\n      swap2\n      pop\n      pop\n      jump\t// out\n        /* \"#utility.yul\":17359:17778   */\n    tag_296:\n        /* \"#utility.yul\":17525:17529   */\n      0x00\n        /* \"#utility.yul\":17563:17565   */\n      0x20\n        /* \"#utility.yul\":17552:17561   */\n      dup3\n        /* \"#utility.yul\":17548:17566   */\n      add\n        /* \"#utility.yul\":17540:17566   */\n      swap1\n      pop\n        /* \"#utility.yul\":17612:17621   */\n      dup2\n        /* \"#utility.yul\":17606:17610   */\n      dup2\n        /* \"#utility.yul\":17602:17622   */\n      sub\n        /* \"#utility.yul\":17598:17599   */\n      0x00\n        /* \"#utility.yul\":17587:17596   */\n      dup4\n        /* \"#utility.yul\":17583:17600   */\n      add\n        /* \"#utility.yul\":17576:17623   */\n      mstore\n        /* \"#utility.yul\":17640:17771   */\n      tag_531\n        /* \"#utility.yul\":17766:17770   */\n      dup2\n        /* \"#utility.yul\":17640:17771   */\n      tag_434\n      jump\t// in\n    tag_531:\n        /* \"#utility.yul\":17632:17771   */\n      swap1\n      pop\n        /* \"#utility.yul\":17530:17778   */\n      swap2\n      swap1\n      pop\n      jump\t// out\n        /* \"#utility.yul\":17784:18203   */\n    tag_252:\n        /* \"#utility.yul\":17950:17954   */\n      0x00\n        /* \"#utility.yul\":17988:17990   */\n      0x20\n        /* \"#utility.yul\":17977:17986   */\n      dup3\n        /* \"#utility.yul\":17973:17991   */\n      add\n        /* \"#utility.yul\":17965:17991   */\n      swap1\n      pop\n        /* \"#utility.yul\":18037:18046   */\n      dup2\n        /* \"#utility.yul\":18031:18035   */\n      dup2\n        /* \"#utility.yul\":18027:18047   */\n      sub\n        /* \"#utility.yul\":18023:18024   */\n      0x00\n        /* \"#utility.yul\":18012:18021   */\n      dup4\n        /* \"#utility.yul\":18008:18025   */\n      add\n        /* \"#utility.yul\":18001:18048   */\n      mstore\n        /* \"#utility.yul\":18065:18196   */\n      tag_533\n        /* \"#utility.yul\":18191:18195   */\n      dup2\n        /* \"#utility.yul\":18065:18196   */\n      tag_439\n      jump\t// in\n    tag_533:\n        /* \"#utility.yul\":18057:18196   */\n      swap1\n      pop\n        /* \"#utility.yul\":17955:18203   */\n      swap2\n      swap1\n      pop\n      jump\t// out\n        /* \"#utility.yul\":18209:18628   */\n    tag_149:\n        /* \"#utility.yul\":18375:18379   */\n      0x00\n        /* \"#utility.yul\":18413:18415   */\n      0x20\n        /* \"#utility.yul\":18402:18411   */\n      dup3\n        /* \"#utility.yul\":18398:18416   */\n      add\n        /* \"#utility.yul\":18390:18416   */\n      swap1\n      pop\n        /* \"#utility.yul\":18462:18471   */\n      dup2\n        /* \"#utility.yul\":18456:18460   */\n      dup2\n        /* \"#utility.yul\":18452:18472   */\n      sub\n        /* \"#utility.yul\":18448:18449   */\n      0x00\n        /* \"#utility.yul\":18437:18446   */\n      dup4\n        /* \"#utility.yul\":18433:18450   */\n      add\n        /* \"#utility.yul\":18426:18473   */\n      mstore\n        /* \"#utility.yul\":18490:18621   */\n      tag_535\n        /* \"#utility.yul\":18616:18620   */\n      dup2\n        /* \"#utility.yul\":18490:18621   */\n      tag_444\n      jump\t// in\n    tag_535:\n        /* \"#utility.yul\":18482:18621   */\n      swap1\n      pop\n        /* \"#utility.yul\":18380:18628   */\n      swap2\n      swap1\n      pop\n      jump\t// out\n        /* \"#utility.yul\":18634:19053   */\n    tag_138:\n        /* \"#utility.yul\":18800:18804   */\n      0x00\n        /* \"#utility.yul\":18838:18840   */\n      0x20\n        /* \"#utility.yul\":18827:18836   */\n      dup3\n        /* \"#utility.yul\":18823:18841   */\n      add\n        /* \"#utility.yul\":18815:18841   */\n      swap1\n      pop\n        /* \"#utility.yul\":18887:18896   */\n      dup2\n        /* \"#utility.yul\":18881:18885   */\n      dup2\n        /* \"#utility.yul\":18877:18897   */\n      sub\n        /* \"#utility.yul\":18873:18874   */\n      0x00\n        /* \"#utility.yul\":18862:18871   */\n      dup4\n        /* \"#utility.yul\":18858:18875   */\n      add\n        /* \"#utility.yul\":18851:18898   */\n      mstore\n        /* \"#utility.yul\":18915:19046   */\n      tag_537\n        /* \"#utility.yul\":19041:19045   */\n      dup2\n        /* \"#utility.yul\":18915:19046   */\n      tag_449\n      jump\t// in\n    tag_537:\n        /* \"#utility.yul\":18907:19046   */\n      swap1\n      pop\n        /* \"#utility.yul\":18805:19053   */\n      swap2\n      swap1\n      pop\n      jump\t// out\n        /* \"#utility.yul\":19059:19478   */\n    tag_159:\n        /* \"#utility.yul\":19225:19229   */\n      0x00\n        /* \"#utility.yul\":19263:19265   */\n      0x20\n        /* \"#utility.yul\":19252:19261   */\n      dup3\n        /* \"#utility.yul\":19248:19266   */\n      add\n        /* \"#utility.yul\":19240:19266   */\n      swap1\n      pop\n        /* \"#utility.yul\":19312:19321   */\n      dup2\n        /* \"#utility.yul\":19306:19310   */\n      dup2\n        /* \"#utility.yul\":19302:19322   */\n      sub\n        /* \"#utility.yul\":19298:19299   */\n      0x00\n        /* \"#utility.yul\":19287:19296   */\n      dup4\n        /* \"#utility.yul\":19283:19300   */\n      add\n        /* \"#utility.yul\":19276:19323   */\n      mstore\n        /* \"#utility.yul\":19340:19471   */\n      tag_539\n        /* \"#utility.yul\":19466:19470   */\n      dup2\n        /* \"#utility.yul\":19340:19471   */\n      tag_454\n      jump\t// in\n    tag_539:\n        /* \"#utility.yul\":19332:19471   */\n      swap1\n      pop\n        /* \"#utility.yul\":19230:19478   */\n      swap2\n      swap1\n      pop\n      jump\t// out\n        /* \"#utility.yul\":19484:19903   */\n    tag_142:\n        /* \"#utility.yul\":19650:19654   */\n      0x00\n        /* \"#utility.yul\":19688:19690   */\n      0x20\n        /* \"#utility.yul\":19677:19686   */\n      dup3\n        /* \"#utility.yul\":19673:19691   */\n      add\n        /* \"#utility.yul\":19665:19691   */\n      swap1\n      pop\n        /* \"#utility.yul\":19737:19746   */\n      dup2\n        /* \"#utility.yul\":19731:19735   */\n      dup2\n        /* \"#utility.yul\":19727:19747   */\n      sub\n        /* \"#utility.yul\":19723:19724   */\n      0x00\n        /* \"#utility.yul\":19712:19721   */\n      dup4\n        /* \"#utility.yul\":19708:19725   */\n      add\n        /* \"#utility.yul\":19701:19748   */\n      mstore\n        /* \"#utility.yul\":19765:19896   */\n      tag_541\n        /* \"#utility.yul\":19891:19895   */\n      dup2\n        /* \"#utility.yul\":19765:19896   */\n      tag_459\n      jump\t// in\n    tag_541:\n        /* \"#utility.yul\":19757:19896   */\n      swap1\n      pop\n        /* \"#utility.yul\":19655:19903   */\n      swap2\n      swap1\n      pop\n      jump\t// out\n        /* \"#utility.yul\":19909:20328   */\n    tag_191:\n        /* \"#utility.yul\":20075:20079   */\n      0x00\n        /* \"#utility.yul\":20113:20115   */\n      0x20\n        /* \"#utility.yul\":20102:20111   */\n      dup3\n        /* \"#utility.yul\":20098:20116   */\n      add\n        /* \"#utility.yul\":20090:20116   */\n      swap1\n      pop\n        /* \"#utility.yul\":20162:20171   */\n      dup2\n        /* \"#utility.yul\":20156:20160   */\n      dup2\n        /* \"#utility.yul\":20152:20172   */\n      sub\n        /* \"#utility.yul\":20148:20149   */\n      0x00\n        /* \"#utility.yul\":20137:20146   */\n      dup4\n        /* \"#utility.yul\":20133:20150   */\n      add\n        /* \"#utility.yul\":20126:20173   */\n      mstore\n        /* \"#utility.yul\":20190:20321   */\n      tag_543\n        /* \"#utility.yul\":20316:20320   */\n      dup2\n        /* \"#utility.yul\":20190:20321   */\n      tag_469\n      jump\t// in\n    tag_543:\n        /* \"#utility.yul\":20182:20321   */\n      swap1\n      pop\n        /* \"#utility.yul\":20080:20328   */\n      swap2\n      swap1\n      pop\n      jump\t// out\n        /* \"#utility.yul\":20334:20753   */\n    tag_146:\n        /* \"#utility.yul\":20500:20504   */\n      0x00\n        /* \"#utility.yul\":20538:20540   */\n      0x20\n        /* \"#utility.yul\":20527:20536   */\n      dup3\n        /* \"#utility.yul\":20523:20541   */\n      add\n        /* \"#utility.yul\":20515:20541   */\n      swap1\n      pop\n        /* \"#utility.yul\":20587:20596   */\n      dup2\n        /* \"#utility.yul\":20581:20585   */\n      dup2\n        /* \"#utility.yul\":20577:20597   */\n      sub\n        /* \"#utility.yul\":20573:20574   */\n      0x00\n        /* \"#utility.yul\":20562:20571   */\n      dup4\n        /* \"#utility.yul\":20558:20575   */\n      add\n        /* \"#utility.yul\":20551:20598   */\n      mstore\n        /* \"#utility.yul\":20615:20746   */\n      tag_545\n        /* \"#utility.yul\":20741:20745   */\n      dup2\n        /* \"#utility.yul\":20615:20746   */\n      tag_474\n      jump\t// in\n    tag_545:\n        /* \"#utility.yul\":20607:20746   */\n      swap1\n      pop\n        /* \"#utility.yul\":20505:20753   */\n      swap2\n      swap1\n      pop\n      jump\t// out\n        /* \"#utility.yul\":20759:21178   */\n    tag_124:\n        /* \"#utility.yul\":20925:20929   */\n      0x00\n        /* \"#utility.yul\":20963:20965   */\n      0x20\n        /* \"#utility.yul\":20952:20961   */\n      dup3\n        /* \"#utility.yul\":20948:20966   */\n      add\n        /* \"#utility.yul\":20940:20966   */\n      swap1\n      pop\n        /* \"#utility.yul\":21012:21021   */\n      dup2\n        /* \"#utility.yul\":21006:21010   */\n      dup2\n        /* \"#utility.yul\":21002:21022   */\n      sub\n        /* \"#utility.yul\":20998:20999   */\n      0x00\n        /* \"#utility.yul\":20987:20996   */\n      dup4\n        /* \"#utility.yul\":20983:21000   */\n      add\n        /* \"#utility.yul\":20976:21023   */\n      mstore\n        /* \"#utility.yul\":21040:21171   */\n      tag_547\n        /* \"#utility.yul\":21166:21170   */\n      dup2\n        /* \"#utility.yul\":21040:21171   */\n      tag_484\n      jump\t// in\n    tag_547:\n        /* \"#utility.yul\":21032:21171   */\n      swap1\n      pop\n        /* \"#utility.yul\":20930:21178   */\n      swap2\n      swap1\n      pop\n      jump\t// out\n        /* \"#utility.yul\":21184:21406   */\n    tag_68:\n        /* \"#utility.yul\":21277:21281   */\n      0x00\n        /* \"#utility.yul\":21315:21317   */\n      0x20\n        /* \"#utility.yul\":21304:21313   */\n      dup3\n        /* \"#utility.yul\":21300:21318   */\n      add\n        /* \"#utility.yul\":21292:21318   */\n      swap1\n      pop\n        /* \"#utility.yul\":21328:21399   */\n      tag_549\n        /* \"#utility.yul\":21396:21397   */\n      0x00\n        /* \"#utility.yul\":21385:21394   */\n      dup4\n        /* \"#utility.yul\":21381:21398   */\n      add\n        /* \"#utility.yul\":21372:21378   */\n      dup5\n        /* \"#utility.yul\":21328:21399   */\n      tag_489\n      jump\t// in\n    tag_549:\n        /* \"#utility.yul\":21282:21406   */\n      swap3\n      swap2\n      pop\n      pop\n      jump\t// out\n        /* \"#utility.yul\":21412:21541   */\n    tag_303:\n        /* \"#utility.yul\":21446:21452   */\n      0x00\n        /* \"#utility.yul\":21473:21493   */\n      tag_551\n      tag_552\n      jump\t// in\n    tag_551:\n        /* \"#utility.yul\":21463:21493   */\n      swap1\n      pop\n        /* \"#utility.yul\":21502:21535   */\n      tag_553\n        /* \"#utility.yul\":21530:21534   */\n      dup3\n        /* \"#utility.yul\":21522:21528   */\n      dup3\n        /* \"#utility.yul\":21502:21535   */\n      tag_554\n      jump\t// in\n    tag_553:\n        /* \"#utility.yul\":21453:21541   */\n      swap2\n      swap1\n      pop\n      jump\t// out\n        /* \"#utility.yul\":21547:21622   */\n    tag_552:\n        /* \"#utility.yul\":21580:21586   */\n      0x00\n        /* \"#utility.yul\":21613:21615   */\n      0x40\n        /* \"#utility.yul\":21607:21616   */\n      mload\n        /* \"#utility.yul\":21597:21616   */\n      swap1\n      pop\n        /* \"#utility.yul\":21587:21622   */\n      swap1\n      jump\t// out\n        /* \"#utility.yul\":21628:21935   */\n    tag_302:\n        /* \"#utility.yul\":21689:21693   */\n      0x00\n        /* \"#utility.yul\":21779:21797   */\n      0xffffffffffffffff\n        /* \"#utility.yul\":21771:21777   */\n      dup3\n        /* \"#utility.yul\":21768:21798   */\n      gt\n        /* \"#utility.yul\":21765:21767   */\n      iszero\n      tag_557\n      jumpi\n        /* \"#utility.yul\":21801:21819   */\n      tag_558\n      tag_559\n      jump\t// in\n    tag_558:\n        /* \"#utility.yul\":21765:21767   */\n    tag_557:\n        /* \"#utility.yul\":21839:21868   */\n      tag_560\n        /* \"#utility.yul\":21861:21867   */\n      dup3\n        /* \"#utility.yul\":21839:21868   */\n      tag_413\n      jump\t// in\n    tag_560:\n        /* \"#utility.yul\":21831:21868   */\n      swap1\n      pop\n        /* \"#utility.yul\":21923:21927   */\n      0x20\n        /* \"#utility.yul\":21917:21921   */\n      dup2\n        /* \"#utility.yul\":21913:21928   */\n      add\n        /* \"#utility.yul\":21905:21928   */\n      swap1\n      pop\n        /* \"#utility.yul\":21694:21935   */\n      swap2\n      swap1\n      pop\n      jump\t// out\n        /* \"#utility.yul\":21941:22039   */\n    tag_408:\n        /* \"#utility.yul\":21992:21998   */\n      0x00\n        /* \"#utility.yul\":22026:22031   */\n      dup2\n        /* \"#utility.yul\":22020:22032   */\n      mload\n        /* \"#utility.yul\":22010:22032   */\n      swap1\n      pop\n        /* \"#utility.yul\":21999:22039   */\n      swap2\n      swap1\n      pop\n      jump\t// out\n        /* \"#utility.yul\":22045:22144   */\n    tag_423:\n        /* \"#utility.yul\":22097:22103   */\n      0x00\n        /* \"#utility.yul\":22131:22136   */\n      dup2\n        /* \"#utility.yul\":22125:22137   */\n      mload\n        /* \"#utility.yul\":22115:22137   */\n      swap1\n      pop\n        /* \"#utility.yul\":22104:22144   */\n      swap2\n      swap1\n      pop\n      jump\t// out\n        /* \"#utility.yul\":22150:22318   */\n    tag_410:\n        /* \"#utility.yul\":22233:22244   */\n      0x00\n        /* \"#utility.yul\":22267:22273   */\n      dup3\n        /* \"#utility.yul\":22262:22265   */\n      dup3\n        /* \"#utility.yul\":22255:22274   */\n      mstore\n        /* \"#utility.yul\":22307:22311   */\n      0x20\n        /* \"#utility.yul\":22302:22305   */\n      dup3\n        /* \"#utility.yul\":22298:22312   */\n      add\n        /* \"#utility.yul\":22283:22312   */\n      swap1\n      pop\n        /* \"#utility.yul\":22245:22318   */\n      swap3\n      swap2\n      pop\n      pop\n      jump\t// out\n        /* \"#utility.yul\":22324:22471   */\n    tag_418:\n        /* \"#utility.yul\":22425:22436   */\n      0x00\n        /* \"#utility.yul\":22462:22465   */\n      dup2\n        /* \"#utility.yul\":22447:22465   */\n      swap1\n      pop\n        /* \"#utility.yul\":22437:22471   */\n      swap3\n      swap2\n      pop\n      pop\n      jump\t// out\n        /* \"#utility.yul\":22477:22646   */\n    tag_425:\n        /* \"#utility.yul\":22561:22572   */\n      0x00\n        /* \"#utility.yul\":22595:22601   */\n      dup3\n        /* \"#utility.yul\":22590:22593   */\n      dup3\n        /* \"#utility.yul\":22583:22602   */\n      mstore\n        /* \"#utility.yul\":22635:22639   */\n      0x20\n        /* \"#utility.yul\":22630:22633   */\n      dup3\n        /* \"#utility.yul\":22626:22640   */\n      add\n        /* \"#utility.yul\":22611:22640   */\n      swap1\n      pop\n        /* \"#utility.yul\":22573:22646   */\n      swap3\n      swap2\n      pop\n      pop\n      jump\t// out\n        /* \"#utility.yul\":22652:22800   */\n    tag_432:\n        /* \"#utility.yul\":22754:22765   */\n      0x00\n        /* \"#utility.yul\":22791:22794   */\n      dup2\n        /* \"#utility.yul\":22776:22794   */\n      swap1\n      pop\n        /* \"#utility.yul\":22766:22800   */\n      swap3\n      swap2\n      pop\n      pop\n      jump\t// out\n        /* \"#utility.yul\":22806:23111   */\n    tag_101:\n        /* \"#utility.yul\":22846:22849   */\n      0x00\n        /* \"#utility.yul\":22865:22885   */\n      tag_568\n        /* \"#utility.yul\":22883:22884   */\n      dup3\n        /* \"#utility.yul\":22865:22885   */\n      tag_492\n      jump\t// in\n    tag_568:\n        /* \"#utility.yul\":22860:22885   */\n      swap2\n      pop\n        /* \"#utility.yul\":22899:22919   */\n      tag_569\n        /* \"#utility.yul\":22917:22918   */\n      dup4\n        /* \"#utility.yul\":22899:22919   */\n      tag_492\n      jump\t// in\n    tag_569:\n        /* \"#utility.yul\":22894:22919   */\n      swap3\n      pop\n        /* \"#utility.yul\":23053:23054   */\n      dup3\n        /* \"#utility.yul\":22985:23051   */\n      0xffffffffffffffffffffffffffffffffffffffffffffffffffffffffffffffff\n        /* \"#utility.yul\":22981:23055   */\n      sub\n        /* \"#utility.yul\":22978:22979   */\n      dup3\n        /* \"#utility.yul\":22975:23056   */\n      gt\n        /* \"#utility.yul\":22972:22974   */\n      iszero\n      tag_570\n      jumpi\n        /* \"#utility.yul\":23059:23077   */\n      tag_571\n      tag_572\n      jump\t// in\n    tag_571:\n        /* \"#utility.yul\":22972:22974   */\n    tag_570:\n        /* \"#utility.yul\":23103:23104   */\n      dup3\n        /* \"#utility.yul\":23100:23101   */\n      dup3\n        /* \"#utility.yul\":23096:23105   */\n      add\n        /* \"#utility.yul\":23089:23105   */\n      swap1\n      pop\n        /* \"#utility.yul\":22850:23111   */\n      swap3\n      swap2\n      pop\n      pop\n      jump\t// out\n        /* \"#utility.yul\":23117:23465   */\n    tag_279:\n        /* \"#utility.yul\":23157:23164   */\n      0x00\n        /* \"#utility.yul\":23180:23200   */\n      tag_574\n        /* \"#utility.yul\":23198:23199   */\n      dup3\n        /* \"#utility.yul\":23180:23200   */\n      tag_492\n      jump\t// in\n    tag_574:\n        /* \"#utility.yul\":23175:23200   */\n      swap2\n      pop\n        /* \"#utility.yul\":23214:23234   */\n      tag_575\n        /* \"#utility.yul\":23232:23233   */\n      dup4\n        /* \"#utility.yul\":23214:23234   */\n      tag_492\n      jump\t// in\n    tag_575:\n        /* \"#utility.yul\":23209:23234   */\n      swap3\n      pop\n        /* \"#utility.yul\":23402:23403   */\n      dup2\n        /* \"#utility.yul\":23334:23400   */\n      0xffffffffffffffffffffffffffffffffffffffffffffffffffffffffffffffff\n        /* \"#utility.yul\":23330:23404   */\n      div\n        /* \"#utility.yul\":23327:23328   */\n      dup4\n        /* \"#utility.yul\":23324:23405   */\n      gt\n        /* \"#utility.yul\":23319:23320   */\n      dup3\n        /* \"#utility.yul\":23312:23321   */\n      iszero\n        /* \"#utility.yul\":23305:23322   */\n      iszero\n        /* \"#utility.yul\":23301:23406   */\n      and\n        /* \"#utility.yul\":23298:23300   */\n      iszero\n      tag_576\n      jumpi\n        /* \"#utility.yul\":23409:23427   */\n      tag_577\n      tag_572\n      jump\t// in\n    tag_577:\n        /* \"#utility.yul\":23298:23300   */\n    tag_576:\n        /* \"#utility.yul\":23457:23458   */\n      dup3\n        /* \"#utility.yul\":23454:23455   */\n      dup3\n        /* \"#utility.yul\":23450:23459   */\n      mul\n        /* \"#utility.yul\":23439:23459   */\n      swap1\n      pop\n        /* \"#utility.yul\":23165:23465   */\n      swap3\n      swap2\n      pop\n      pop\n      jump\t// out\n        /* \"#utility.yul\":23471:23662   */\n    tag_216:\n        /* \"#utility.yul\":23511:23515   */\n      0x00\n        /* \"#utility.yul\":23531:23551   */\n      tag_579\n        /* \"#utility.yul\":23549:23550   */\n      dup3\n        /* \"#utility.yul\":23531:23551   */\n      tag_492\n      jump\t// in\n    tag_579:\n        /* \"#utility.yul\":23526:23551   */\n      swap2\n      pop\n        /* \"#utility.yul\":23565:23585   */\n      tag_580\n        /* \"#utility.yul\":23583:23584   */\n      dup4\n        /* \"#utility.yul\":23565:23585   */\n      tag_492\n      jump\t// in\n    tag_580:\n        /* \"#utility.yul\":23560:23585   */\n      swap3\n      pop\n        /* \"#utility.yul\":23604:23605   */\n      dup3\n        /* \"#utility.yul\":23601:23602   */\n      dup3\n        /* \"#utility.yul\":23598:23606   */\n      lt\n        /* \"#utility.yul\":23595:23597   */\n      iszero\n      tag_581\n      jumpi\n        /* \"#utility.yul\":23609:23627   */\n      tag_582\n      tag_572\n      jump\t// in\n    tag_582:\n        /* \"#utility.yul\":23595:23597   */\n    tag_581:\n        /* \"#utility.yul\":23654:23655   */\n      dup3\n        /* \"#utility.yul\":23651:23652   */\n      dup3\n        /* \"#utility.yul\":23647:23656   */\n      sub\n        /* \"#utility.yul\":23639:23656   */\n      swap1\n      pop\n        /* \"#utility.yul\":23516:23662   */\n      swap3\n      swap2\n      pop\n      pop\n      jump\t// out\n        /* \"#utility.yul\":23668:23764   */\n    tag_379:\n        /* \"#utility.yul\":23705:23712   */\n      0x00\n        /* \"#utility.yul\":23734:23758   */\n      tag_584\n        /* \"#utility.yul\":23752:23757   */\n      dup3\n        /* \"#utility.yul\":23734:23758   */\n      tag_585\n      jump\t// in\n    tag_584:\n        /* \"#utility.yul\":23723:23758   */\n      swap1\n      pop\n        /* \"#utility.yul\":23713:23764   */\n      swap2\n      swap1\n      pop\n      jump\t// out\n        /* \"#utility.yul\":23770:23860   */\n    tag_383:\n        /* \"#utility.yul\":23804:23811   */\n      0x00\n        /* \"#utility.yul\":23847:23852   */\n      dup2\n        /* \"#utility.yul\":23840:23853   */\n      iszero\n        /* \"#utility.yul\":23833:23854   */\n      iszero\n        /* \"#utility.yul\":23822:23854   */\n      swap1\n      pop\n        /* \"#utility.yul\":23812:23860   */\n      swap2\n      swap1\n      pop\n      jump\t// out\n        /* \"#utility.yul\":23866:24015   */\n    tag_388:\n        /* \"#utility.yul\":23902:23909   */\n      0x00\n        /* \"#utility.yul\":23942:24008   */\n      0xff00000000000000000000000000000000000000000000000000000000000000\n        /* \"#utility.yul\":23935:23940   */\n      dup3\n        /* \"#utility.yul\":23931:24009   */\n      and\n        /* \"#utility.yul\":23920:24009   */\n      swap1\n      pop\n        /* \"#utility.yul\":23910:24015   */\n      swap2\n      swap1\n      pop\n      jump\t// out\n        /* \"#utility.yul\":24021:24171   */\n    tag_394:\n        /* \"#utility.yul\":24058:24065   */\n      0x00\n        /* \"#utility.yul\":24098:24164   */\n      0xffffffffffffffffffffffffffffffffffffffff000000000000000000000000\n        /* \"#utility.yul\":24091:24096   */\n      dup3\n        /* \"#utility.yul\":24087:24165   */\n      and\n        /* \"#utility.yul\":24076:24165   */\n      swap1\n      pop\n        /* \"#utility.yul\":24066:24171   */\n      swap2\n      swap1\n      pop\n      jump\t// out\n        /* \"#utility.yul\":24177:24254   */\n    tag_399:\n        /* \"#utility.yul\":24214:24221   */\n      0x00\n        /* \"#utility.yul\":24243:24248   */\n      dup2\n        /* \"#utility.yul\":24232:24248   */\n      swap1\n      pop\n        /* \"#utility.yul\":24222:24254   */\n      swap2\n      swap1\n      pop\n      jump\t// out\n        /* \"#utility.yul\":24260:24409   */\n    tag_590:\n        /* \"#utility.yul\":24296:24303   */\n      0x00\n        /* \"#utility.yul\":24336:24402   */\n      0xffffffff00000000000000000000000000000000000000000000000000000000\n        /* \"#utility.yul\":24329:24334   */\n      dup3\n        /* \"#utility.yul\":24325:24403   */\n      and\n        /* \"#utility.yul\":24314:24403   */\n      swap1\n      pop\n        /* \"#utility.yul\":24304:24409   */\n      swap2\n      swap1\n      pop\n      jump\t// out\n        /* \"#utility.yul\":24415:24541   */\n    tag_585:\n        /* \"#utility.yul\":24452:24459   */\n      0x00\n        /* \"#utility.yul\":24492:24534   */\n      0xffffffffffffffffffffffffffffffffffffffff\n        /* \"#utility.yul\":24485:24490   */\n      dup3\n        /* \"#utility.yul\":24481:24535   */\n      and\n        /* \"#utility.yul\":24470:24535   */\n      swap1\n      pop\n        /* \"#utility.yul\":24460:24541   */\n      swap2\n      swap1\n      pop\n      jump\t// out\n        /* \"#utility.yul\":24547:24624   */\n    tag_492:\n        /* \"#utility.yul\":24584:24591   */\n      0x00\n        /* \"#utility.yul\":24613:24618   */\n      dup2\n        /* \"#utility.yul\":24602:24618   */\n      swap1\n      pop\n        /* \"#utility.yul\":24592:24624   */\n      swap2\n      swap1\n      pop\n      jump\t// out\n        /* \"#utility.yul\":24630:24784   */\n    tag_306:\n        /* \"#utility.yul\":24714:24720   */\n      dup3\n        /* \"#utility.yul\":24709:24712   */\n      dup2\n        /* \"#utility.yul\":24704:24707   */\n      dup4\n        /* \"#utility.yul\":24691:24721   */\n      calldatacopy\n        /* \"#utility.yul\":24776:24777   */\n      0x00\n        /* \"#utility.yul\":24767:24773   */\n      dup4\n        /* \"#utility.yul\":24762:24765   */\n      dup4\n        /* \"#utility.yul\":24758:24774   */\n      add\n        /* \"#utility.yul\":24751:24778   */\n      mstore\n        /* \"#utility.yul\":24681:24784   */\n      pop\n      pop\n      pop\n      jump\t// out\n        /* \"#utility.yul\":24790:25097   */\n    tag_313:\n        /* \"#utility.yul\":24858:24859   */\n      0x00\n        /* \"#utility.yul\":24868:24981   */\n    tag_596:\n        /* \"#utility.yul\":24882:24888   */\n      dup4\n        /* \"#utility.yul\":24879:24880   */\n      dup2\n        /* \"#utility.yul\":24876:24889   */\n      lt\n        /* \"#utility.yul\":24868:24981   */\n      iszero\n      tag_598\n      jumpi\n        /* \"#utility.yul\":24967:24968   */\n      dup1\n        /* \"#utility.yul\":24962:24965   */\n      dup3\n        /* \"#utility.yul\":24958:24969   */\n      add\n        /* \"#utility.yul\":24952:24970   */\n      mload\n        /* \"#utility.yul\":24948:24949   */\n      dup2\n        /* \"#utility.yul\":24943:24946   */\n      dup5\n        /* \"#utility.yul\":24939:24950   */\n      add\n        /* \"#utility.yul\":24932:24971   */\n      mstore\n        /* \"#utility.yul\":24904:24906   */\n      0x20\n        /* \"#utility.yul\":24901:24902   */\n      dup2\n        /* \"#utility.yul\":24897:24907   */\n      add\n        /* \"#utility.yul\":24892:24907   */\n      swap1\n      pop\n        /* \"#utility.yul\":24868:24981   */\n      jump(tag_596)\n    tag_598:\n        /* \"#utility.yul\":24999:25005   */\n      dup4\n        /* \"#utility.yul\":24996:24997   */\n      dup2\n        /* \"#utility.yul\":24993:25006   */\n      gt\n        /* \"#utility.yul\":24990:24992   */\n      iszero\n      tag_599\n      jumpi\n        /* \"#utility.yul\":25079:25080   */\n      0x00\n        /* \"#utility.yul\":25070:25076   */\n      dup5\n        /* \"#utility.yul\":25065:25068   */\n      dup5\n        /* \"#utility.yul\":25061:25077   */\n      add\n        /* \"#utility.yul\":25054:25081   */\n      mstore\n        /* \"#utility.yul\":24990:24992   */\n    tag_599:\n        /* \"#utility.yul\":24839:25097   */\n      pop\n      pop\n      pop\n      pop\n      jump\t// out\n        /* \"#utility.yul\":25103:25274   */\n    tag_293:\n        /* \"#utility.yul\":25142:25145   */\n      0x00\n        /* \"#utility.yul\":25165:25189   */\n      tag_601\n        /* \"#utility.yul\":25183:25188   */\n      dup3\n        /* \"#utility.yul\":25165:25189   */\n      tag_492\n      jump\t// in\n    tag_601:\n        /* \"#utility.yul\":25156:25189   */\n      swap2\n      pop\n        /* \"#utility.yul\":25211:25215   */\n      0x00\n        /* \"#utility.yul\":25204:25209   */\n      dup3\n        /* \"#utility.yul\":25201:25216   */\n      eq\n        /* \"#utility.yul\":25198:25200   */\n      iszero\n      tag_602\n      jumpi\n        /* \"#utility.yul\":25219:25237   */\n      tag_603\n      tag_572\n      jump\t// in\n    tag_603:\n        /* \"#utility.yul\":25198:25200   */\n    tag_602:\n        /* \"#utility.yul\":25266:25267   */\n      0x01\n        /* \"#utility.yul\":25259:25264   */\n      dup3\n        /* \"#utility.yul\":25255:25268   */\n      sub\n        /* \"#utility.yul\":25248:25268   */\n      swap1\n      pop\n        /* \"#utility.yul\":25146:25274   */\n      swap2\n      swap1\n      pop\n      jump\t// out\n        /* \"#utility.yul\":25280:25561   */\n    tag_554:\n        /* \"#utility.yul\":25363:25390   */\n      tag_605\n        /* \"#utility.yul\":25385:25389   */\n      dup3\n        /* \"#utility.yul\":25363:25390   */\n      tag_413\n      jump\t// in\n    tag_605:\n        /* \"#utility.yul\":25355:25361   */\n      dup2\n        /* \"#utility.yul\":25351:25391   */\n      add\n        /* \"#utility.yul\":25493:25499   */\n      dup2\n        /* \"#utility.yul\":25481:25491   */\n      dup2\n        /* \"#utility.yul\":25478:25500   */\n      lt\n        /* \"#utility.yul\":25457:25475   */\n      0xffffffffffffffff\n        /* \"#utility.yul\":25445:25455   */\n      dup3\n        /* \"#utility.yul\":25442:25476   */\n      gt\n        /* \"#utility.yul\":25439:25501   */\n      or\n        /* \"#utility.yul\":25436:25438   */\n      iszero\n      tag_606\n      jumpi\n        /* \"#utility.yul\":25504:25522   */\n      tag_607\n      tag_559\n      jump\t// in\n    tag_607:\n        /* \"#utility.yul\":25436:25438   */\n    tag_606:\n        /* \"#utility.yul\":25544:25554   */\n      dup1\n        /* \"#utility.yul\":25540:25542   */\n      0x40\n        /* \"#utility.yul\":25533:25555   */\n      mstore\n        /* \"#utility.yul\":25323:25561   */\n      pop\n      pop\n      pop\n      jump\t// out\n        /* \"#utility.yul\":25567:25800   */\n    tag_269:\n        /* \"#utility.yul\":25606:25609   */\n      0x00\n        /* \"#utility.yul\":25629:25653   */\n      tag_609\n        /* \"#utility.yul\":25647:25652   */\n      dup3\n        /* \"#utility.yul\":25629:25653   */\n      tag_492\n      jump\t// in\n    tag_609:\n        /* \"#utility.yul\":25620:25653   */\n      swap2\n      pop\n        /* \"#utility.yul\":25675:25741   */\n      0xffffffffffffffffffffffffffffffffffffffffffffffffffffffffffffffff\n        /* \"#utility.yul\":25668:25673   */\n      dup3\n        /* \"#utility.yul\":25665:25742   */\n      eq\n        /* \"#utility.yul\":25662:25664   */\n      iszero\n      tag_610\n      jumpi\n        /* \"#utility.yul\":25745:25763   */\n      tag_611\n      tag_572\n      jump\t// in\n    tag_611:\n        /* \"#utility.yul\":25662:25664   */\n    tag_610:\n        /* \"#utility.yul\":25792:25793   */\n      0x01\n        /* \"#utility.yul\":25785:25790   */\n      dup3\n        /* \"#utility.yul\":25781:25794   */\n      add\n        /* \"#utility.yul\":25774:25794   */\n      swap1\n      pop\n        /* \"#utility.yul\":25610:25800   */\n      swap2\n      swap1\n      pop\n      jump\t// out\n        /* \"#utility.yul\":25806:25884   */\n    tag_389:\n        /* \"#utility.yul\":25844:25851   */\n      0x00\n        /* \"#utility.yul\":25873:25878   */\n      dup2\n        /* \"#utility.yul\":25862:25878   */\n      swap1\n      pop\n        /* \"#utility.yul\":25852:25884   */\n      swap2\n      swap1\n      pop\n      jump\t// out\n        /* \"#utility.yul\":25890:25969   */\n    tag_395:\n        /* \"#utility.yul\":25929:25936   */\n      0x00\n        /* \"#utility.yul\":25958:25963   */\n      dup2\n        /* \"#utility.yul\":25947:25963   */\n      swap1\n      pop\n        /* \"#utility.yul\":25937:25969   */\n      swap2\n      swap1\n      pop\n      jump\t// out\n        /* \"#utility.yul\":25975:26054   */\n    tag_404:\n        /* \"#utility.yul\":26014:26021   */\n      0x00\n        /* \"#utility.yul\":26043:26048   */\n      dup2\n        /* \"#utility.yul\":26032:26048   */\n      swap1\n      pop\n        /* \"#utility.yul\":26022:26054   */\n      swap2\n      swap1\n      pop\n      jump\t// out\n        /* \"#utility.yul\":26060:26240   */\n    tag_572:\n        /* \"#utility.yul\":26108:26185   */\n      0x4e487b7100000000000000000000000000000000000000000000000000000000\n        /* \"#utility.yul\":26105:26106   */\n      0x00\n        /* \"#utility.yul\":26098:26186   */\n      mstore\n        /* \"#utility.yul\":26205:26209   */\n      0x11\n        /* \"#utility.yul\":26202:26203   */\n      0x04\n        /* \"#utility.yul\":26195:26210   */\n      mstore\n        /* \"#utility.yul\":26229:26233   */\n      0x24\n        /* \"#utility.yul\":26226:26227   */\n      0x00\n        /* \"#utility.yul\":26219:26234   */\n      revert\n        /* \"#utility.yul\":26246:26426   */\n    tag_559:\n        /* \"#utility.yul\":26294:26371   */\n      0x4e487b7100000000000000000000000000000000000000000000000000000000\n        /* \"#utility.yul\":26291:26292   */\n      0x00\n        /* \"#utility.yul\":26284:26372   */\n      mstore\n        /* \"#utility.yul\":26391:26395   */\n      0x41\n        /* \"#utility.yul\":26388:26389   */\n      0x04\n        /* \"#utility.yul\":26381:26396   */\n      mstore\n        /* \"#utility.yul\":26415:26419   */\n      0x24\n        /* \"#utility.yul\":26412:26413   */\n      0x00\n        /* \"#utility.yul\":26405:26420   */\n      revert\n        /* \"#utility.yul\":26432:26534   */\n    tag_413:\n        /* \"#utility.yul\":26473:26479   */\n      0x00\n        /* \"#utility.yul\":26524:26526   */\n      0x1f\n        /* \"#utility.yul\":26520:26527   */\n      not\n        /* \"#utility.yul\":26515:26517   */\n      0x1f\n        /* \"#utility.yul\":26508:26513   */\n      dup4\n        /* \"#utility.yul\":26504:26518   */\n      add\n        /* \"#utility.yul\":26500:26528   */\n      and\n        /* \"#utility.yul\":26490:26528   */\n      swap1\n      pop\n        /* \"#utility.yul\":26480:26534   */\n      swap2\n      swap1\n      pop\n      jump\t// out\n        /* \"#utility.yul\":26540:26722   */\n    tag_438:\n        /* \"#utility.yul\":26680:26714   */\n      0x537472696e67733a20686578206c656e67746820696e73756666696369656e74\n        /* \"#utility.yul\":26676:26677   */\n      0x00\n        /* \"#utility.yul\":26668:26674   */\n      dup3\n        /* \"#utility.yul\":26664:26678   */\n      add\n        /* \"#utility.yul\":26657:26715   */\n      mstore\n        /* \"#utility.yul\":26646:26722   */\n      pop\n      jump\t// out\n        /* \"#utility.yul\":26728:26898   */\n    tag_443:\n        /* \"#utility.yul\":26868:26890   */\n      0x5061757361626c653a206e6f7420706175736564000000000000000000000000\n        /* \"#utility.yul\":26864:26865   */\n      0x00\n        /* \"#utility.yul\":26856:26862   */\n      dup3\n        /* \"#utility.yul\":26852:26866   */\n      add\n        /* \"#utility.yul\":26845:26891   */\n      mstore\n        /* \"#utility.yul\":26834:26898   */\n      pop\n      jump\t// out\n        /* \"#utility.yul\":26904:27207   */\n    tag_448:\n        /* \"#utility.yul\":27044:27078   */\n      0x46696e61537761703a636c61696d20496e76616c6964207369676e6174757265\n        /* \"#utility.yul\":27040:27041   */\n      0x00\n        /* \"#utility.yul\":27032:27038   */\n      dup3\n        /* \"#utility.yul\":27028:27042   */\n      add\n        /* \"#utility.yul\":27021:27079   */\n      mstore\n        /* \"#utility.yul\":27113:27147   */\n      0x206c656e6774682e20546865207369676e6174757265206d7573742062652065\n        /* \"#utility.yul\":27108:27110   */\n      0x20\n        /* \"#utility.yul\":27100:27106   */\n      dup3\n        /* \"#utility.yul\":27096:27111   */\n      add\n        /* \"#utility.yul\":27089:27148   */\n      mstore\n        /* \"#utility.yul\":27182:27199   */\n      0x786163746c792036352062797465730000000000000000000000000000000000\n        /* \"#utility.yul\":27177:27179   */\n      0x40\n        /* \"#utility.yul\":27169:27175   */\n      dup3\n        /* \"#utility.yul\":27165:27180   */\n      add\n        /* \"#utility.yul\":27158:27200   */\n      mstore\n        /* \"#utility.yul\":27010:27207   */\n      pop\n      jump\t// out\n        /* \"#utility.yul\":27213:27379   */\n    tag_453:\n        /* \"#utility.yul\":27353:27371   */\n      0x5061757361626c653a2070617573656400000000000000000000000000000000\n        /* \"#utility.yul\":27349:27350   */\n      0x00\n        /* \"#utility.yul\":27341:27347   */\n      dup3\n        /* \"#utility.yul\":27337:27351   */\n      add\n        /* \"#utility.yul\":27330:27372   */\n      mstore\n        /* \"#utility.yul\":27319:27379   */\n      pop\n      jump\t// out\n        /* \"#utility.yul\":27385:27692   */\n    tag_458:\n        /* \"#utility.yul\":27525:27559   */\n      0x46696e61537761703a636c61696d20496e76616c6964207369676e6174757265\n        /* \"#utility.yul\":27521:27522   */\n      0x00\n        /* \"#utility.yul\":27513:27519   */\n      dup3\n        /* \"#utility.yul\":27509:27523   */\n      add\n        /* \"#utility.yul\":27502:27560   */\n      mstore\n        /* \"#utility.yul\":27594:27628   */\n      0x2e20546865207265636f7665726564207075626c6963206b6579206d75737420\n        /* \"#utility.yul\":27589:27591   */\n      0x20\n        /* \"#utility.yul\":27581:27587   */\n      dup3\n        /* \"#utility.yul\":27577:27592   */\n      add\n        /* \"#utility.yul\":27570:27629   */\n      mstore\n        /* \"#utility.yul\":27663:27684   */\n      0x62652065786163746c7920333320627974657300000000000000000000000000\n        /* \"#utility.yul\":27658:27660   */\n      0x40\n        /* \"#utility.yul\":27650:27656   */\n      dup3\n        /* \"#utility.yul\":27646:27661   */\n      add\n        /* \"#utility.yul\":27639:27685   */\n      mstore\n        /* \"#utility.yul\":27491:27692   */\n      pop\n      jump\t// out\n        /* \"#utility.yul\":27698:27929   */\n    tag_463:\n        /* \"#utility.yul\":27838:27872   */\n      0x46696e61537761703a636c61696d205461726765742061646472657373206361\n        /* \"#utility.yul\":27834:27835   */\n      0x00\n        /* \"#utility.yul\":27826:27832   */\n      dup3\n        /* \"#utility.yul\":27822:27836   */\n      add\n        /* \"#utility.yul\":27815:27873   */\n      mstore\n        /* \"#utility.yul\":27907:27921   */\n      0x6e6e6f74206265207a65726f0000000000000000000000000000000000000000\n        /* \"#utility.yul\":27902:27904   */\n      0x20\n        /* \"#utility.yul\":27894:27900   */\n      dup3\n        /* \"#utility.yul\":27890:27905   */\n      add\n        /* \"#utility.yul\":27883:27922   */\n      mstore\n        /* \"#utility.yul\":27804:27929   */\n      pop\n      jump\t// out\n        /* \"#utility.yul\":27935:28108   */\n    tag_468:\n        /* \"#utility.yul\":28075:28100   */\n      0x416363657373436f6e74726f6c3a206163636f756e7420000000000000000000\n        /* \"#utility.yul\":28071:28072   */\n      0x00\n        /* \"#utility.yul\":28063:28069   */\n      dup3\n        /* \"#utility.yul\":28059:28073   */\n      add\n        /* \"#utility.yul\":28052:28101   */\n      mstore\n        /* \"#utility.yul\":28041:28108   */\n      pop\n      jump\t// out\n        /* \"#utility.yul\":28114:28294   */\n    tag_473:\n        /* \"#utility.yul\":28254:28286   */\n      0x46696e61537761703a636c61696d20616c726561647920737761707065640000\n        /* \"#utility.yul\":28250:28251   */\n      0x00\n        /* \"#utility.yul\":28242:28248   */\n      dup3\n        /* \"#utility.yul\":28238:28252   */\n      add\n        /* \"#utility.yul\":28231:28287   */\n      mstore\n        /* \"#utility.yul\":28220:28294   */\n      pop\n      jump\t// out\n        /* \"#utility.yul\":28300:28528   */\n    tag_478:\n        /* \"#utility.yul\":28440:28474   */\n      0x46696e61537761703a636c61696d205369676e61747572652068617368206973\n        /* \"#utility.yul\":28436:28437   */\n      0x00\n        /* \"#utility.yul\":28428:28434   */\n      dup3\n        /* \"#utility.yul\":28424:28438   */\n      add\n        /* \"#utility.yul\":28417:28475   */\n      mstore\n        /* \"#utility.yul\":28509:28520   */\n      0x2072657175697265640000000000000000000000000000000000000000000000\n        /* \"#utility.yul\":28504:28506   */\n      0x20\n        /* \"#utility.yul\":28496:28502   */\n      dup3\n        /* \"#utility.yul\":28492:28507   */\n      add\n        /* \"#utility.yul\":28485:28521   */\n      mstore\n        /* \"#utility.yul\":28406:28528   */\n      pop\n      jump\t// out\n        /* \"#utility.yul\":28534:28701   */\n    tag_483:\n        /* \"#utility.yul\":28674:28693   */\n      0x206973206d697373696e6720726f6c6520000000000000000000000000000000\n        /* \"#utility.yul\":28670:28671   */\n      0x00\n        /* \"#utility.yul\":28662:28668   */\n      dup3\n        /* \"#utility.yul\":28658:28672   */\n      add\n        /* \"#utility.yul\":28651:28694   */\n      mstore\n        /* \"#utility.yul\":28640:28701   */\n      pop\n      jump\t// out\n        /* \"#utility.yul\":28707:28941   */\n    tag_488:\n        /* \"#utility.yul\":28847:28881   */\n      0x416363657373436f6e74726f6c3a2063616e206f6e6c792072656e6f756e6365\n        /* \"#utility.yul\":28843:28844   */\n      0x00\n        /* \"#utility.yul\":28835:28841   */\n      dup3\n        /* \"#utility.yul\":28831:28845   */\n      add\n        /* \"#utility.yul\":28824:28882   */\n      mstore\n        /* \"#utility.yul\":28916:28933   */\n      0x20726f6c657320666f722073656c660000000000000000000000000000000000\n        /* \"#utility.yul\":28911:28913   */\n      0x20\n        /* \"#utility.yul\":28903:28909   */\n      dup3\n        /* \"#utility.yul\":28899:28914   */\n      add\n        /* \"#utility.yul\":28892:28934   */\n      mstore\n        /* \"#utility.yul\":28813:28941   */\n      pop\n      jump\t// out\n        /* \"#utility.yul\":28947:29069   */\n    tag_317:\n        /* \"#utility.yul\":29020:29044   */\n      tag_630\n        /* \"#utility.yul\":29038:29043   */\n      dup2\n        /* \"#utility.yul\":29020:29044   */\n      tag_379\n      jump\t// in\n    tag_630:\n        /* \"#utility.yul\":29013:29018   */\n      dup2\n        /* \"#utility.yul\":29010:29045   */\n      eq\n        /* \"#utility.yul\":29000:29002   */\n      tag_631\n      jumpi\n        /* \"#utility.yul\":29059:29060   */\n      0x00\n        /* \"#utility.yul\":29056:29057   */\n      dup1\n        /* \"#utility.yul\":29049:29061   */\n      revert\n        /* \"#utility.yul\":29000:29002   */\n    tag_631:\n        /* \"#utility.yul\":28990:29069   */\n      pop\n      jump\t// out\n        /* \"#utility.yul\":29075:29197   */\n    tag_321:\n        /* \"#utility.yul\":29148:29172   */\n      tag_633\n        /* \"#utility.yul\":29166:29171   */\n      dup2\n        /* \"#utility.yul\":29148:29172   */\n      tag_399\n      jump\t// in\n    tag_633:\n        /* \"#utility.yul\":29141:29146   */\n      dup2\n        /* \"#utility.yul\":29138:29173   */\n      eq\n        /* \"#utility.yul\":29128:29130   */\n      tag_634\n      jumpi\n        /* \"#utility.yul\":29187:29188   */\n      0x00\n        /* \"#utility.yul\":29184:29185   */\n      dup1\n        /* \"#utility.yul\":29177:29189   */\n      revert\n        /* \"#utility.yul\":29128:29130   */\n    tag_634:\n        /* \"#utility.yul\":29118:29197   */\n      pop\n      jump\t// out\n        /* \"#utility.yul\":29203:29323   */\n    tag_328:\n        /* \"#utility.yul\":29275:29298   */\n      tag_636\n        /* \"#utility.yul\":29292:29297   */\n      dup2\n        /* \"#utility.yul\":29275:29298   */\n      tag_590\n      jump\t// in\n    tag_636:\n        /* \"#utility.yul\":29268:29273   */\n      dup2\n        /* \"#utility.yul\":29265:29299   */\n      eq\n        /* \"#utility.yul\":29255:29257   */\n      tag_637\n      jumpi\n        /* \"#utility.yul\":29313:29314   */\n      0x00\n        /* \"#utility.yul\":29310:29311   */\n      dup1\n        /* \"#utility.yul\":29303:29315   */\n      revert\n        /* \"#utility.yul\":29255:29257   */\n    tag_637:\n        /* \"#utility.yul\":29245:29323   */\n      pop\n      jump\t// out\n        /* \"#utility.yul\":29329:29451   */\n    tag_340:\n        /* \"#utility.yul\":29402:29426   */\n      tag_639\n        /* \"#utility.yul\":29420:29425   */\n      dup2\n        /* \"#utility.yul\":29402:29426   */\n      tag_492\n      jump\t// in\n    tag_639:\n        /* \"#utility.yul\":29395:29400   */\n      dup2\n        /* \"#utility.yul\":29392:29427   */\n      eq\n        /* \"#utility.yul\":29382:29384   */\n      tag_640\n      jumpi\n        /* \"#utility.yul\":29441:29442   */\n      0x00\n        /* \"#utility.yul\":29438:29439   */\n      dup1\n        /* \"#utility.yul\":29431:29443   */\n      revert\n        /* \"#utility.yul\":29382:29384   */\n    tag_640:\n        /* \"#utility.yul\":29372:29451   */\n      pop\n      jump\t// out\n\n    auxdata: 0xa26469706673582212204326e7e4a0fc8eb3d8aee9cbfd58a5bdecafd179eee5af74e367f62fc1cf090064736f6c63430008040033\n}\n",
				"bytecode": {
					"linkReferences": {},
					"object": "60e06040523480156200001157600080fd5b5060405162002b8b38038062002b8b833981810160405281019062000037919062000321565b60008060006101000a81548160ff0219169083151502179055508273ffffffffffffffffffffffffffffffffffffffff1660808173ffffffffffffffffffffffffffffffffffffffff1660601b815250508173ffffffffffffffffffffffffffffffffffffffff1660a08173ffffffffffffffffffffffffffffffffffffffff1660601b81525050807effffffffffffffffffffffffffffffffffffffffffffffffffffffffffffff191660c0817effffffffffffffffffffffffffffffffffffffffffffffffffffffffffffff1916815250506200013d7fa49807205ce4d355092ef5a8a18f56e8913cf4a201fbe287825b095693c21775336200017860201b60201c565b6200016f7f65d7a28e3265b37a6474929f336521b332c1681b933f6cb9f3376673440d862a336200017860201b60201c565b5050506200044d565b6200018a82826200026960201b60201c565b6200026557600180600084815260200190815260200160002060000160008373ffffffffffffffffffffffffffffffffffffffff1673ffffffffffffffffffffffffffffffffffffffff16815260200190815260200160002060006101000a81548160ff0219169083151502179055506200020a620002d460201b60201c565b73ffffffffffffffffffffffffffffffffffffffff168173ffffffffffffffffffffffffffffffffffffffff16837f2f8788117e7eff1d82e926ec794901d17c78024a50270940304540a733656f0d60405160405180910390a45b5050565b60006001600084815260200190815260200160002060000160008373ffffffffffffffffffffffffffffffffffffffff1673ffffffffffffffffffffffffffffffffffffffff16815260200190815260200160002060009054906101000a900460ff16905092915050565b600033905090565b600081519050620002ed81620003ff565b92915050565b600081519050620003048162000419565b92915050565b6000815190506200031b8162000433565b92915050565b6000806000606084860312156200033757600080fd5b60006200034786828701620002f3565b93505060206200035a868287016200030a565b92505060406200036d86828701620002dc565b9150509250925092565b60006200038482620003df565b9050919050565b60007fff0000000000000000000000000000000000000000000000000000000000000082169050919050565b6000620003c48262000377565b9050919050565b6000620003d88262000377565b9050919050565b600073ffffffffffffffffffffffffffffffffffffffff82169050919050565b6200040a816200038b565b81146200041657600080fd5b50565b6200042481620003b7565b81146200043057600080fd5b50565b6200043e81620003cb565b81146200044a57600080fd5b50565b60805160601c60a05160601c60c05160f81c60f81b61270262000489600039600061091d01526000610b1b0152600061075801526127026000f3fe608060405234801561001057600080fd5b50600436106101215760003560e01c806375b238fc116100ad578063a217fddf11610071578063a217fddf146102e0578063c6afe01e146102fe578063c71c64901461031a578063d547741f14610336578063e63ab1e91461035257610121565b806375b238fc1461023a57806378415365146102585780638456cb591461028857806391d1485414610292578063a0d5680f146102c257610121565b80633636f669116100f45780633636f669146101be57806336568abe146101da5780633f4ba83a146101f65780635c975abb14610200578063736c76ee1461021e57610121565b80630112f5411461012657806301ffc9a714610142578063248a9ca3146101725780632f2ff15d146101a2575b600080fd5b610140600480360381019061013b9190611998565b610370565b005b61015c60048036038101906101579190611899565b6103bf565b6040516101699190611e0f565b60405180910390f35b61018c6004803603810190610187919061180b565b610439565b6040516101999190611e2a565b60405180910390f35b6101bc60048036038101906101b7919061185d565b610459565b005b6101d860048036038101906101d391906118c2565b610482565b005b6101f460048036038101906101ef919061185d565b6104dc565b005b6101fe61055f565b005b61020861059c565b6040516102159190611e0f565b60405180910390f35b610238600480360381019061023391906117a4565b6105b2565b005b610242610bf2565b60405161024f9190611e2a565b60405180910390f35b610272600480360381019061026d91906118c2565b610c16565b60405161027f9190611fb7565b60405180910390f35b610290610c3e565b005b6102ac60048036038101906102a7919061185d565b610c7b565b6040516102b99190611e0f565b60405180910390f35b6102ca610ce6565b6040516102d79190611fb7565b60405180910390f35b6102e8610cf0565b6040516102f59190611e2a565b60405180910390f35b61031860048036038101906103139190611998565b610cf7565b005b610334600480360381019061032f9190611944565b610d46565b005b610350600480360381019061034b919061185d565b610da0565b005b61035a610dc9565b6040516103679190611e2a565b60405180910390f35b7fa49807205ce4d355092ef5a8a18f56e8913cf4a201fbe287825b095693c217756103a28161039d610ded565b610df5565b81600360008282546103b49190612076565b925050819055505050565b60007f7965db0b000000000000000000000000000000000000000000000000000000007bffffffffffffffffffffffffffffffffffffffffffffffffffffffff1916827bffffffffffffffffffffffffffffffffffffffffffffffffffffffff19161480610432575061043182610e92565b5b9050919050565b600060016000838152602001908152602001600020600101549050919050565b61046282610439565b6104738161046e610ded565b610df5565b61047d8383610efc565b505050565b7fa49807205ce4d355092ef5a8a18f56e8913cf4a201fbe287825b095693c217756104b4816104af610ded565b610df5565b60006002836040516104c69190611cf5565b9081526020016040518091039020819055505050565b6104e4610ded565b73ffffffffffffffffffffffffffffffffffffffff168173ffffffffffffffffffffffffffffffffffffffff1614610551576040517f08c379a000000000000000000000000000000000000000000000000000000000815260040161054890611f97565b60405180910390fd5b61055b8282610fdc565b5050565b7f65d7a28e3265b37a6474929f336521b332c1681b933f6cb9f3376673440d862a6105918161058c610ded565b610df5565b6105996110be565b50565b60008060009054906101000a900460ff16905090565b6105ba61059c565b156105fa576040517f08c379a00000000000000000000000000000000000000000000000000000000081526004016105f190611ef7565b60405180910390fd5b600073ffffffffffffffffffffffffffffffffffffffff168373ffffffffffffffffffffffffffffffffffffffff16141561066a576040517f08c379a000000000000000000000000000000000000000000000000000000000815260040161066190611f37565b60405180910390fd5b600060f81b826000602081106106a9577f4e487b7100000000000000000000000000000000000000000000000000000000600052603260045260246000fd5b1a60f81b7effffffffffffffffffffffffffffffffffffffffffffffffffffffffffffff19161415610710576040517f08c379a000000000000000000000000000000000000000000000000000000000815260040161070790611f77565b60405180910390fd5b6041815114610754576040517f08c379a000000000000000000000000000000000000000000000000000000000815260040161074b90611ed7565b60405180910390fd5b60007f000000000000000000000000000000000000000000000000000000000000000073ffffffffffffffffffffffffffffffffffffffff166319045a2584846040518363ffffffff1660e01b81526004016107b1929190611e45565b60006040518083038186803b1580156107c957600080fd5b505afa1580156107dd573d6000803e3d6000fd5b505050506040513d6000823e3d601f19601f820116820180604052508101906108069190611903565b9050602181511461084c576040517f08c379a000000000000000000000000000000000000000000000000000000000815260040161084390611f17565b60405180910390fd5b600060028260405161085e9190611cf5565b602060405180830381855afa15801561087b573d6000803e3d6000fd5b5050506040513d601f19601f8201168201806040525081019061089e9190611834565b905060006003826040516020016108b59190611cda565b6040516020818303038152906040526040516108d19190611cf5565b602060405180830381855afa1580156108ee573d6000803e3d6000fd5b5050506040515160601b6040516020016109089190611cbf565b604051602081830303815290604052905060007f00000000000000000000000000000000000000000000000000000000000000008260405160200161094e929190611c97565b60405160208183030381529060405290506000600280836040516109729190611cf5565b602060405180830381855afa15801561098f573d6000803e3d6000fd5b5050506040513d601f19601f820116820180604052508101906109b29190611834565b6040516020016109c29190611cda565b6040516020818303038152906040526040516109de9190611cf5565b602060405180830381855afa1580156109fb573d6000803e3d6000fd5b5050506040513d601f19601f82011682018060405250810190610a1e9190611834565b604051602001610a2e9190611cda565b60405160208183030381529060405290506000610a4e826000600461115f565b905060008382604051602001610a65929190611d0c565b60405160208183030381529060405290506000600282604051610a889190611cf5565b908152602001604051809103902054905060008111610adc576040517f08c379a0000000000000000000000000000000000000000000000000000000008152600401610ad390611f57565b60405180910390fd5b6000600283604051610aee9190611cf5565b9081526020016040518091039020819055508060036000828254610b129190612076565b925050819055507f000000000000000000000000000000000000000000000000000000000000000073ffffffffffffffffffffffffffffffffffffffff166340c10f198c836040518363ffffffff1660e01b8152600401610b74929190611de6565b600060405180830381600087803b158015610b8e57600080fd5b505af1158015610ba2573d6000803e3d6000fd5b505050507f33daa5a2f6b0967547ce55d03ea8a8296a2af4067b4598a8a03be54d207586d48b8b8b8b85604051610bdd959493929190611d85565b60405180910390a15050505050505050505050565b7fa49807205ce4d355092ef5a8a18f56e8913cf4a201fbe287825b095693c2177581565b6000600282604051610c289190611cf5565b9081526020016040518091039020549050919050565b7f65d7a28e3265b37a6474929f336521b332c1681b933f6cb9f3376673440d862a610c7081610c6b610ded565b610df5565b610c786112cf565b50565b60006001600084815260200190815260200160002060000160008373ffffffffffffffffffffffffffffffffffffffff1673ffffffffffffffffffffffffffffffffffffffff16815260200190815260200160002060009054906101000a900460ff16905092915050565b6000600354905090565b6000801b81565b7fa49807205ce4d355092ef5a8a18f56e8913cf4a201fbe287825b095693c21775610d2981610d24610ded565b610df5565b8160036000828254610d3b9190612126565b925050819055505050565b7fa49807205ce4d355092ef5a8a18f56e8913cf4a201fbe287825b095693c21775610d7881610d73610ded565b610df5565b81600284604051610d899190611cf5565b908152602001604051809103902081905550505050565b610da982610439565b610dba81610db5610ded565b610df5565b610dc48383610fdc565b505050565b7f65d7a28e3265b37a6474929f336521b332c1681b933f6cb9f3376673440d862a81565b600033905090565b610dff8282610c7b565b610e8e57610e248173ffffffffffffffffffffffffffffffffffffffff166014611371565b610e328360001c6020611371565b604051602001610e43929190611d30565b6040516020818303038152906040526040517f08c379a0000000000000000000000000000000000000000000000000000000008152600401610e859190611e75565b60405180910390fd5b5050565b60007f01ffc9a7000000000000000000000000000000000000000000000000000000007bffffffffffffffffffffffffffffffffffffffffffffffffffffffff1916827bffffffffffffffffffffffffffffffffffffffffffffffffffffffff1916149050919050565b610f068282610c7b565b610fd857600180600084815260200190815260200160002060000160008373ffffffffffffffffffffffffffffffffffffffff1673ffffffffffffffffffffffffffffffffffffffff16815260200190815260200160002060006101000a81548160ff021916908315150217905550610f7d610ded565b73ffffffffffffffffffffffffffffffffffffffff168173ffffffffffffffffffffffffffffffffffffffff16837f2f8788117e7eff1d82e926ec794901d17c78024a50270940304540a733656f0d60405160405180910390a45b5050565b610fe68282610c7b565b156110ba5760006001600084815260200190815260200160002060000160008373ffffffffffffffffffffffffffffffffffffffff1673ffffffffffffffffffffffffffffffffffffffff16815260200190815260200160002060006101000a81548160ff02191690831515021790555061105f610ded565b73ffffffffffffffffffffffffffffffffffffffff168173ffffffffffffffffffffffffffffffffffffffff16837ff6391f5c32d9c69d2a47ea670b442974b53935d1edc7fd64eb21e047a839171b60405160405180910390a45b5050565b6110c661059c565b611105576040517f08c379a00000000000000000000000000000000000000000000000000000000081526004016110fc90611eb7565b60405180910390fd5b60008060006101000a81548160ff0219169083151502179055507f5db9ee0a495bf2e6ff9c91a7834c1ba4fdd244a5e8aa4e537bd38aeae4b073aa611148610ded565b6040516111559190611d6a565b60405180910390a1565b60606000838361116f9190612126565b67ffffffffffffffff8111156111ae577f4e487b7100000000000000000000000000000000000000000000000000000000600052604160045260246000fd5b6040519080825280601f01601f1916602001820160405280156111e05781602001600182028036833780820191505090505b50905060005b600185856111f49190612126565b6111fe9190612126565b81116112c35785818151811061123d577f4e487b7100000000000000000000000000000000000000000000000000000000600052603260045260246000fd5b602001015160f81c60f81b828281518110611281577f4e487b7100000000000000000000000000000000000000000000000000000000600052603260045260246000fd5b60200101907effffffffffffffffffffffffffffffffffffffffffffffffffffffffffffff1916908160001a90535080806112bb906122cd565b9150506111e6565b50809150509392505050565b6112d761059c565b15611317576040517f08c379a000000000000000000000000000000000000000000000000000000000815260040161130e90611ef7565b60405180910390fd5b60016000806101000a81548160ff0219169083151502179055507f62e78cea01bee320cd4e420270b5ea74000d11b0c9f74754ebdbfc544b05a25861135a610ded565b6040516113679190611d6a565b60405180910390a1565b60606000600283600261138491906120cc565b61138e9190612076565b67ffffffffffffffff8111156113cd577f4e487b7100000000000000000000000000000000000000000000000000000000600052604160045260246000fd5b6040519080825280601f01601f1916602001820160405280156113ff5781602001600182028036833780820191505090505b5090507f30000000000000000000000000000000000000000000000000000000000000008160008151811061145d577f4e487b7100000000000000000000000000000000000000000000000000000000600052603260045260246000fd5b60200101907effffffffffffffffffffffffffffffffffffffffffffffffffffffffffffff1916908160001a9053507f7800000000000000000000000000000000000000000000000000000000000000816001815181106114e7577f4e487b7100000000000000000000000000000000000000000000000000000000600052603260045260246000fd5b60200101907effffffffffffffffffffffffffffffffffffffffffffffffffffffffffffff1916908160001a9053506000600184600261152791906120cc565b6115319190612076565b90505b600181111561161d577f3031323334353637383961626364656600000000000000000000000000000000600f861660108110611599577f4e487b7100000000000000000000000000000000000000000000000000000000600052603260045260246000fd5b1a60f81b8282815181106115d6577f4e487b7100000000000000000000000000000000000000000000000000000000600052603260045260246000fd5b60200101907effffffffffffffffffffffffffffffffffffffffffffffffffffffffffffff1916908160001a905350600485901c94508061161690612272565b9050611534565b5060008414611661576040517f08c379a000000000000000000000000000000000000000000000000000000000815260040161165890611e97565b60405180910390fd5b8091505092915050565b600061167e61167984611ff7565b611fd2565b90508281526020810184848401111561169657600080fd5b6116a1848285612230565b509392505050565b60006116bc6116b784611ff7565b611fd2565b9050828152602081018484840111156116d457600080fd5b6116df84828561223f565b509392505050565b6000813590506116f681612670565b92915050565b60008135905061170b81612687565b92915050565b60008151905061172081612687565b92915050565b6000813590506117358161269e565b92915050565b600082601f83011261174c57600080fd5b813561175c84826020860161166b565b91505092915050565b600082601f83011261177657600080fd5b81516117868482602086016116a9565b91505092915050565b60008135905061179e816126b5565b92915050565b6000806000606084860312156117b957600080fd5b60006117c7868287016116e7565b93505060206117d8868287016116fc565b925050604084013567ffffffffffffffff8111156117f557600080fd5b6118018682870161173b565b9150509250925092565b60006020828403121561181d57600080fd5b600061182b848285016116fc565b91505092915050565b60006020828403121561184657600080fd5b600061185484828501611711565b91505092915050565b6000806040838503121561187057600080fd5b600061187e858286016116fc565b925050602061188f858286016116e7565b9150509250929050565b6000602082840312156118ab57600080fd5b60006118b984828501611726565b91505092915050565b6000602082840312156118d457600080fd5b600082013567ffffffffffffffff8111156118ee57600080fd5b6118fa8482850161173b565b91505092915050565b60006020828403121561191557600080fd5b600082015167ffffffffffffffff81111561192f57600080fd5b61193b84828501611765565b91505092915050565b6000806040838503121561195757600080fd5b600083013567ffffffffffffffff81111561197157600080fd5b61197d8582860161173b565b925050602061198e8582860161178f565b9150509250929050565b6000602082840312156119aa57600080fd5b60006119b88482850161178f565b91505092915050565b6119ca8161215a565b82525050565b6119d98161216c565b82525050565b6119f06119eb82612178565b612316565b82525050565b611a07611a02826121a4565b612320565b82525050565b611a16816121d0565b82525050565b611a2d611a28826121d0565b61232a565b82525050565b6000611a3e82612028565b611a48818561203e565b9350611a5881856020860161223f565b611a6181612392565b840191505092915050565b6000611a7782612028565b611a81818561204f565b9350611a9181856020860161223f565b80840191505092915050565b6000611aa882612033565b611ab2818561205a565b9350611ac281856020860161223f565b611acb81612392565b840191505092915050565b6000611ae182612033565b611aeb818561206b565b9350611afb81856020860161223f565b80840191505092915050565b6000611b1460208361205a565b9150611b1f826123a3565b602082019050919050565b6000611b3760148361205a565b9150611b42826123cc565b602082019050919050565b6000611b5a604f8361205a565b9150611b65826123f5565b606082019050919050565b6000611b7d60108361205a565b9150611b888261246a565b602082019050919050565b6000611ba060538361205a565b9150611bab82612493565b606082019050919050565b6000611bc3602c8361205a565b9150611bce82612508565b604082019050919050565b6000611be660178361206b565b9150611bf182612557565b601782019050919050565b6000611c09601e8361205a565b9150611c1482612580565b602082019050919050565b6000611c2c60298361205a565b9150611c37826125a9565b604082019050919050565b6000611c4f60118361206b565b9150611c5a826125f8565b601182019050919050565b6000611c72602f8361205a565b9150611c7d82612621565b604082019050919050565b611c9181612226565b82525050565b6000611ca382856119df565b600182019150611cb38284611a6c565b91508190509392505050565b6000611ccb82846119f6565b60148201915081905092915050565b6000611ce68284611a1c565b60208201915081905092915050565b6000611d018284611a6c565b915081905092915050565b6000611d188285611a6c565b9150611d248284611a6c565b91508190509392505050565b6000611d3b82611bd9565b9150611d478285611ad6565b9150611d5282611c42565b9150611d5e8284611ad6565b91508190509392505050565b6000602082019050611d7f60008301846119c1565b92915050565b600060a082019050611d9a60008301886119c1565b611da76020830187611a0d565b8181036040830152611db98186611a33565b90508181036060830152611dcd8185611a33565b9050611ddc6080830184611c88565b9695505050505050565b6000604082019050611dfb60008301856119c1565b611e086020830184611c88565b9392505050565b6000602082019050611e2460008301846119d0565b92915050565b6000602082019050611e3f6000830184611a0d565b92915050565b6000604082019050611e5a6000830185611a0d565b8181036020830152611e6c8184611a33565b90509392505050565b60006020820190508181036000830152611e8f8184611a9d565b905092915050565b60006020820190508181036000830152611eb081611b07565b9050919050565b60006020820190508181036000830152611ed081611b2a565b9050919050565b60006020820190508181036000830152611ef081611b4d565b9050919050565b60006020820190508181036000830152611f1081611b70565b9050919050565b60006020820190508181036000830152611f3081611b93565b9050919050565b60006020820190508181036000830152611f5081611bb6565b9050919050565b60006020820190508181036000830152611f7081611bfc565b9050919050565b60006020820190508181036000830152611f9081611c1f565b9050919050565b60006020820190508181036000830152611fb081611c65565b9050919050565b6000602082019050611fcc6000830184611c88565b92915050565b6000611fdc611fed565b9050611fe8828261229c565b919050565b6000604051905090565b600067ffffffffffffffff82111561201257612011612363565b5b61201b82612392565b9050602081019050919050565b600081519050919050565b600081519050919050565b600082825260208201905092915050565b600081905092915050565b600082825260208201905092915050565b600081905092915050565b600061208182612226565b915061208c83612226565b9250827fffffffffffffffffffffffffffffffffffffffffffffffffffffffffffffffff038211156120c1576120c0612334565b5b828201905092915050565b60006120d782612226565b91506120e283612226565b9250817fffffffffffffffffffffffffffffffffffffffffffffffffffffffffffffffff048311821515161561211b5761211a612334565b5b828202905092915050565b600061213182612226565b915061213c83612226565b92508282101561214f5761214e612334565b5b828203905092915050565b600061216582612206565b9050919050565b60008115159050919050565b60007fff0000000000000000000000000000000000000000000000000000000000000082169050919050565b60007fffffffffffffffffffffffffffffffffffffffff00000000000000000000000082169050919050565b6000819050919050565b60007fffffffff0000000000000000000000000000000000000000000000000000000082169050919050565b600073ffffffffffffffffffffffffffffffffffffffff82169050919050565b6000819050919050565b82818337600083830152505050565b60005b8381101561225d578082015181840152602081019050612242565b8381111561226c576000848401525b50505050565b600061227d82612226565b9150600082141561229157612290612334565b5b600182039050919050565b6122a582612392565b810181811067ffffffffffffffff821117156122c4576122c3612363565b5b80604052505050565b60006122d882612226565b91507fffffffffffffffffffffffffffffffffffffffffffffffffffffffffffffffff82141561230b5761230a612334565b5b600182019050919050565b6000819050919050565b6000819050919050565b6000819050919050565b7f4e487b7100000000000000000000000000000000000000000000000000000000600052601160045260246000fd5b7f4e487b7100000000000000000000000000000000000000000000000000000000600052604160045260246000fd5b6000601f19601f8301169050919050565b7f537472696e67733a20686578206c656e67746820696e73756666696369656e74600082015250565b7f5061757361626c653a206e6f7420706175736564000000000000000000000000600082015250565b7f46696e61537761703a636c61696d20496e76616c6964207369676e617475726560008201527f206c656e6774682e20546865207369676e6174757265206d757374206265206560208201527f786163746c792036352062797465730000000000000000000000000000000000604082015250565b7f5061757361626c653a2070617573656400000000000000000000000000000000600082015250565b7f46696e61537761703a636c61696d20496e76616c6964207369676e617475726560008201527f2e20546865207265636f7665726564207075626c6963206b6579206d7573742060208201527f62652065786163746c7920333320627974657300000000000000000000000000604082015250565b7f46696e61537761703a636c61696d20546172676574206164647265737320636160008201527f6e6e6f74206265207a65726f0000000000000000000000000000000000000000602082015250565b7f416363657373436f6e74726f6c3a206163636f756e7420000000000000000000600082015250565b7f46696e61537761703a636c61696d20616c726561647920737761707065640000600082015250565b7f46696e61537761703a636c61696d205369676e6174757265206861736820697360008201527f2072657175697265640000000000000000000000000000000000000000000000602082015250565b7f206973206d697373696e6720726f6c6520000000000000000000000000000000600082015250565b7f416363657373436f6e74726f6c3a2063616e206f6e6c792072656e6f756e636560008201527f20726f6c657320666f722073656c660000000000000000000000000000000000602082015250565b6126798161215a565b811461268457600080fd5b50565b612690816121d0565b811461269b57600080fd5b50565b6126a7816121da565b81146126b257600080fd5b50565b6126be81612226565b81146126c957600080fd5b5056fea26469706673582212204326e7e4a0fc8eb3d8aee9cbfd58a5bdecafd179eee5af74e367f62fc1cf090064736f6c63430008040033",
					"opcodes": "PUSH1 0xE0 PUSH1 0x40 MSTORE CALLVALUE DUP1 ISZERO PUSH3 0x11 JUMPI PUSH1 0x0 DUP1 REVERT JUMPDEST POP PUSH1 0x40 MLOAD PUSH3 0x2B8B CODESIZE SUB DUP1 PUSH3 0x2B8B DUP4 CODECOPY DUP2 DUP2 ADD PUSH1 0x40 MSTORE DUP2 ADD SWAP1 PUSH3 0x37 SWAP2 SWAP1 PUSH3 0x321 JUMP JUMPDEST PUSH1 0x0 DUP1 PUSH1 0x0 PUSH2 0x100 EXP DUP2 SLOAD DUP2 PUSH1 0xFF MUL NOT AND SWAP1 DUP4 ISZERO ISZERO MUL OR SWAP1 SSTORE POP DUP3 PUSH20 0xFFFFFFFFFFFFFFFFFFFFFFFFFFFFFFFFFFFFFFFF AND PUSH1 0x80 DUP2 PUSH20 0xFFFFFFFFFFFFFFFFFFFFFFFFFFFFFFFFFFFFFFFF AND PUSH1 0x60 SHL DUP2 MSTORE POP POP DUP2 PUSH20 0xFFFFFFFFFFFFFFFFFFFFFFFFFFFFFFFFFFFFFFFF AND PUSH1 0xA0 DUP2 PUSH20 0xFFFFFFFFFFFFFFFFFFFFFFFFFFFFFFFFFFFFFFFF AND PUSH1 0x60 SHL DUP2 MSTORE POP POP DUP1 PUSH31 0xFFFFFFFFFFFFFFFFFFFFFFFFFFFFFFFFFFFFFFFFFFFFFFFFFFFFFFFFFFFFFF NOT AND PUSH1 0xC0 DUP2 PUSH31 0xFFFFFFFFFFFFFFFFFFFFFFFFFFFFFFFFFFFFFFFFFFFFFFFFFFFFFFFFFFFFFF NOT AND DUP2 MSTORE POP POP PUSH3 0x13D PUSH32 0xA49807205CE4D355092EF5A8A18F56E8913CF4A201FBE287825B095693C21775 CALLER PUSH3 0x178 PUSH1 0x20 SHL PUSH1 0x20 SHR JUMP JUMPDEST PUSH3 0x16F PUSH32 0x65D7A28E3265B37A6474929F336521B332C1681B933F6CB9F3376673440D862A CALLER PUSH3 0x178 PUSH1 0x20 SHL PUSH1 0x20 SHR JUMP JUMPDEST POP POP POP PUSH3 0x44D JUMP JUMPDEST PUSH3 0x18A DUP3 DUP3 PUSH3 0x269 PUSH1 0x20 SHL PUSH1 0x20 SHR JUMP JUMPDEST PUSH3 0x265 JUMPI PUSH1 0x1 DUP1 PUSH1 0x0 DUP5 DUP2 MSTORE PUSH1 0x20 ADD SWAP1 DUP2 MSTORE PUSH1 0x20 ADD PUSH1 0x0 KECCAK256 PUSH1 0x0 ADD PUSH1 0x0 DUP4 PUSH20 0xFFFFFFFFFFFFFFFFFFFFFFFFFFFFFFFFFFFFFFFF AND PUSH20 0xFFFFFFFFFFFFFFFFFFFFFFFFFFFFFFFFFFFFFFFF AND DUP2 MSTORE PUSH1 0x20 ADD SWAP1 DUP2 MSTORE PUSH1 0x20 ADD PUSH1 0x0 KECCAK256 PUSH1 0x0 PUSH2 0x100 EXP DUP2 SLOAD DUP2 PUSH1 0xFF MUL NOT AND SWAP1 DUP4 ISZERO ISZERO MUL OR SWAP1 SSTORE POP PUSH3 0x20A PUSH3 0x2D4 PUSH1 0x20 SHL PUSH1 0x20 SHR JUMP JUMPDEST PUSH20 0xFFFFFFFFFFFFFFFFFFFFFFFFFFFFFFFFFFFFFFFF AND DUP2 PUSH20 0xFFFFFFFFFFFFFFFFFFFFFFFFFFFFFFFFFFFFFFFF AND DUP4 PUSH32 0x2F8788117E7EFF1D82E926EC794901D17C78024A50270940304540A733656F0D PUSH1 0x40 MLOAD PUSH1 0x40 MLOAD DUP1 SWAP2 SUB SWAP1 LOG4 JUMPDEST POP POP JUMP JUMPDEST PUSH1 0x0 PUSH1 0x1 PUSH1 0x0 DUP5 DUP2 MSTORE PUSH1 0x20 ADD SWAP1 DUP2 MSTORE PUSH1 0x20 ADD PUSH1 0x0 KECCAK256 PUSH1 0x0 ADD PUSH1 0x0 DUP4 PUSH20 0xFFFFFFFFFFFFFFFFFFFFFFFFFFFFFFFFFFFFFFFF AND PUSH20 0xFFFFFFFFFFFFFFFFFFFFFFFFFFFFFFFFFFFFFFFF AND DUP2 MSTORE PUSH1 0x20 ADD SWAP1 DUP2 MSTORE PUSH1 0x20 ADD PUSH1 0x0 KECCAK256 PUSH1 0x0 SWAP1 SLOAD SWAP1 PUSH2 0x100 EXP SWAP1 DIV PUSH1 0xFF AND SWAP1 POP SWAP3 SWAP2 POP POP JUMP JUMPDEST PUSH1 0x0 CALLER SWAP1 POP SWAP1 JUMP JUMPDEST PUSH1 0x0 DUP2 MLOAD SWAP1 POP PUSH3 0x2ED DUP2 PUSH3 0x3FF JUMP JUMPDEST SWAP3 SWAP2 POP POP JUMP JUMPDEST PUSH1 0x0 DUP2 MLOAD SWAP1 POP PUSH3 0x304 DUP2 PUSH3 0x419 JUMP JUMPDEST SWAP3 SWAP2 POP POP JUMP JUMPDEST PUSH1 0x0 DUP2 MLOAD SWAP1 POP PUSH3 0x31B DUP2 PUSH3 0x433 JUMP JUMPDEST SWAP3 SWAP2 POP POP JUMP JUMPDEST PUSH1 0x0 DUP1 PUSH1 0x0 PUSH1 0x60 DUP5 DUP7 SUB SLT ISZERO PUSH3 0x337 JUMPI PUSH1 0x0 DUP1 REVERT JUMPDEST PUSH1 0x0 PUSH3 0x347 DUP7 DUP3 DUP8 ADD PUSH3 0x2F3 JUMP JUMPDEST SWAP4 POP POP PUSH1 0x20 PUSH3 0x35A DUP7 DUP3 DUP8 ADD PUSH3 0x30A JUMP JUMPDEST SWAP3 POP POP PUSH1 0x40 PUSH3 0x36D DUP7 DUP3 DUP8 ADD PUSH3 0x2DC JUMP JUMPDEST SWAP2 POP POP SWAP3 POP SWAP3 POP SWAP3 JUMP JUMPDEST PUSH1 0x0 PUSH3 0x384 DUP3 PUSH3 0x3DF JUMP JUMPDEST SWAP1 POP SWAP2 SWAP1 POP JUMP JUMPDEST PUSH1 0x0 PUSH32 0xFF00000000000000000000000000000000000000000000000000000000000000 DUP3 AND SWAP1 POP SWAP2 SWAP1 POP JUMP JUMPDEST PUSH1 0x0 PUSH3 0x3C4 DUP3 PUSH3 0x377 JUMP JUMPDEST SWAP1 POP SWAP2 SWAP1 POP JUMP JUMPDEST PUSH1 0x0 PUSH3 0x3D8 DUP3 PUSH3 0x377 JUMP JUMPDEST SWAP1 POP SWAP2 SWAP1 POP JUMP JUMPDEST PUSH1 0x0 PUSH20 0xFFFFFFFFFFFFFFFFFFFFFFFFFFFFFFFFFFFFFFFF DUP3 AND SWAP1 POP SWAP2 SWAP1 POP JUMP JUMPDEST PUSH3 0x40A DUP2 PUSH3 0x38B JUMP JUMPDEST DUP2 EQ PUSH3 0x416 JUMPI PUSH1 0x0 DUP1 REVERT JUMPDEST POP JUMP JUMPDEST PUSH3 0x424 DUP2 PUSH3 0x3B7 JUMP JUMPDEST DUP2 EQ PUSH3 0x430 JUMPI PUSH1 0x0 DUP1 REVERT JUMPDEST POP JUMP JUMPDEST PUSH3 0x43E DUP2 PUSH3 0x3CB JUMP JUMPDEST DUP2 EQ PUSH3 0x44A JUMPI PUSH1 0x0 DUP1 REVERT JUMPDEST POP JUMP JUMPDEST PUSH1 0x80 MLOAD PUSH1 0x60 SHR PUSH1 0xA0 MLOAD PUSH1 0x60 SHR PUSH1 0xC0 MLOAD PUSH1 0xF8 SHR PUSH1 0xF8 SHL PUSH2 0x2702 PUSH3 0x489 PUSH1 0x0 CODECOPY PUSH1 0x0 PUSH2 0x91D ADD MSTORE PUSH1 0x0 PUSH2 0xB1B ADD MSTORE PUSH1 0x0 PUSH2 0x758 ADD MSTORE PUSH2 0x2702 PUSH1 0x0 RETURN INVALID PUSH1 0x80 PUSH1 0x40 MSTORE CALLVALUE DUP1 ISZERO PUSH2 0x10 JUMPI PUSH1 0x0 DUP1 REVERT JUMPDEST POP PUSH1 0x4 CALLDATASIZE LT PUSH2 0x121 JUMPI PUSH1 0x0 CALLDATALOAD PUSH1 0xE0 SHR DUP1 PUSH4 0x75B238FC GT PUSH2 0xAD JUMPI DUP1 PUSH4 0xA217FDDF GT PUSH2 0x71 JUMPI DUP1 PUSH4 0xA217FDDF EQ PUSH2 0x2E0 JUMPI DUP1 PUSH4 0xC6AFE01E EQ PUSH2 0x2FE JUMPI DUP1 PUSH4 0xC71C6490 EQ PUSH2 0x31A JUMPI DUP1 PUSH4 0xD547741F EQ PUSH2 0x336 JUMPI DUP1 PUSH4 0xE63AB1E9 EQ PUSH2 0x352 JUMPI PUSH2 0x121 JUMP JUMPDEST DUP1 PUSH4 0x75B238FC EQ PUSH2 0x23A JUMPI DUP1 PUSH4 0x78415365 EQ PUSH2 0x258 JUMPI DUP1 PUSH4 0x8456CB59 EQ PUSH2 0x288 JUMPI DUP1 PUSH4 0x91D14854 EQ PUSH2 0x292 JUMPI DUP1 PUSH4 0xA0D5680F EQ PUSH2 0x2C2 JUMPI PUSH2 0x121 JUMP JUMPDEST DUP1 PUSH4 0x3636F669 GT PUSH2 0xF4 JUMPI DUP1 PUSH4 0x3636F669 EQ PUSH2 0x1BE JUMPI DUP1 PUSH4 0x36568ABE EQ PUSH2 0x1DA JUMPI DUP1 PUSH4 0x3F4BA83A EQ PUSH2 0x1F6 JUMPI DUP1 PUSH4 0x5C975ABB EQ PUSH2 0x200 JUMPI DUP1 PUSH4 0x736C76EE EQ PUSH2 0x21E JUMPI PUSH2 0x121 JUMP JUMPDEST DUP1 PUSH4 0x112F541 EQ PUSH2 0x126 JUMPI DUP1 PUSH4 0x1FFC9A7 EQ PUSH2 0x142 JUMPI DUP1 PUSH4 0x248A9CA3 EQ PUSH2 0x172 JUMPI DUP1 PUSH4 0x2F2FF15D EQ PUSH2 0x1A2 JUMPI JUMPDEST PUSH1 0x0 DUP1 REVERT JUMPDEST PUSH2 0x140 PUSH1 0x4 DUP1 CALLDATASIZE SUB DUP2 ADD SWAP1 PUSH2 0x13B SWAP2 SWAP1 PUSH2 0x1998 JUMP JUMPDEST PUSH2 0x370 JUMP JUMPDEST STOP JUMPDEST PUSH2 0x15C PUSH1 0x4 DUP1 CALLDATASIZE SUB DUP2 ADD SWAP1 PUSH2 0x157 SWAP2 SWAP1 PUSH2 0x1899 JUMP JUMPDEST PUSH2 0x3BF JUMP JUMPDEST PUSH1 0x40 MLOAD PUSH2 0x169 SWAP2 SWAP1 PUSH2 0x1E0F JUMP JUMPDEST PUSH1 0x40 MLOAD DUP1 SWAP2 SUB SWAP1 RETURN JUMPDEST PUSH2 0x18C PUSH1 0x4 DUP1 CALLDATASIZE SUB DUP2 ADD SWAP1 PUSH2 0x187 SWAP2 SWAP1 PUSH2 0x180B JUMP JUMPDEST PUSH2 0x439 JUMP JUMPDEST PUSH1 0x40 MLOAD PUSH2 0x199 SWAP2 SWAP1 PUSH2 0x1E2A JUMP JUMPDEST PUSH1 0x40 MLOAD DUP1 SWAP2 SUB SWAP1 RETURN JUMPDEST PUSH2 0x1BC PUSH1 0x4 DUP1 CALLDATASIZE SUB DUP2 ADD SWAP1 PUSH2 0x1B7 SWAP2 SWAP1 PUSH2 0x185D JUMP JUMPDEST PUSH2 0x459 JUMP JUMPDEST STOP JUMPDEST PUSH2 0x1D8 PUSH1 0x4 DUP1 CALLDATASIZE SUB DUP2 ADD SWAP1 PUSH2 0x1D3 SWAP2 SWAP1 PUSH2 0x18C2 JUMP JUMPDEST PUSH2 0x482 JUMP JUMPDEST STOP JUMPDEST PUSH2 0x1F4 PUSH1 0x4 DUP1 CALLDATASIZE SUB DUP2 ADD SWAP1 PUSH2 0x1EF SWAP2 SWAP1 PUSH2 0x185D JUMP JUMPDEST PUSH2 0x4DC JUMP JUMPDEST STOP JUMPDEST PUSH2 0x1FE PUSH2 0x55F JUMP JUMPDEST STOP JUMPDEST PUSH2 0x208 PUSH2 0x59C JUMP JUMPDEST PUSH1 0x40 MLOAD PUSH2 0x215 SWAP2 SWAP1 PUSH2 0x1E0F JUMP JUMPDEST PUSH1 0x40 MLOAD DUP1 SWAP2 SUB SWAP1 RETURN JUMPDEST PUSH2 0x238 PUSH1 0x4 DUP1 CALLDATASIZE SUB DUP2 ADD SWAP1 PUSH2 0x233 SWAP2 SWAP1 PUSH2 0x17A4 JUMP JUMPDEST PUSH2 0x5B2 JUMP JUMPDEST STOP JUMPDEST PUSH2 0x242 PUSH2 0xBF2 JUMP JUMPDEST PUSH1 0x40 MLOAD PUSH2 0x24F SWAP2 SWAP1 PUSH2 0x1E2A JUMP JUMPDEST PUSH1 0x40 MLOAD DUP1 SWAP2 SUB SWAP1 RETURN JUMPDEST PUSH2 0x272 PUSH1 0x4 DUP1 CALLDATASIZE SUB DUP2 ADD SWAP1 PUSH2 0x26D SWAP2 SWAP1 PUSH2 0x18C2 JUMP JUMPDEST PUSH2 0xC16 JUMP JUMPDEST PUSH1 0x40 MLOAD PUSH2 0x27F SWAP2 SWAP1 PUSH2 0x1FB7 JUMP JUMPDEST PUSH1 0x40 MLOAD DUP1 SWAP2 SUB SWAP1 RETURN JUMPDEST PUSH2 0x290 PUSH2 0xC3E JUMP JUMPDEST STOP JUMPDEST PUSH2 0x2AC PUSH1 0x4 DUP1 CALLDATASIZE SUB DUP2 ADD SWAP1 PUSH2 0x2A7 SWAP2 SWAP1 PUSH2 0x185D JUMP JUMPDEST PUSH2 0xC7B JUMP JUMPDEST PUSH1 0x40 MLOAD PUSH2 0x2B9 SWAP2 SWAP1 PUSH2 0x1E0F JUMP JUMPDEST PUSH1 0x40 MLOAD DUP1 SWAP2 SUB SWAP1 RETURN JUMPDEST PUSH2 0x2CA PUSH2 0xCE6 JUMP JUMPDEST PUSH1 0x40 MLOAD PUSH2 0x2D7 SWAP2 SWAP1 PUSH2 0x1FB7 JUMP JUMPDEST PUSH1 0x40 MLOAD DUP1 SWAP2 SUB SWAP1 RETURN JUMPDEST PUSH2 0x2E8 PUSH2 0xCF0 JUMP JUMPDEST PUSH1 0x40 MLOAD PUSH2 0x2F5 SWAP2 SWAP1 PUSH2 0x1E2A JUMP JUMPDEST PUSH1 0x40 MLOAD DUP1 SWAP2 SUB SWAP1 RETURN JUMPDEST PUSH2 0x318 PUSH1 0x4 DUP1 CALLDATASIZE SUB DUP2 ADD SWAP1 PUSH2 0x313 SWAP2 SWAP1 PUSH2 0x1998 JUMP JUMPDEST PUSH2 0xCF7 JUMP JUMPDEST STOP JUMPDEST PUSH2 0x334 PUSH1 0x4 DUP1 CALLDATASIZE SUB DUP2 ADD SWAP1 PUSH2 0x32F SWAP2 SWAP1 PUSH2 0x1944 JUMP JUMPDEST PUSH2 0xD46 JUMP JUMPDEST STOP JUMPDEST PUSH2 0x350 PUSH1 0x4 DUP1 CALLDATASIZE SUB DUP2 ADD SWAP1 PUSH2 0x34B SWAP2 SWAP1 PUSH2 0x185D JUMP JUMPDEST PUSH2 0xDA0 JUMP JUMPDEST STOP JUMPDEST PUSH2 0x35A PUSH2 0xDC9 JUMP JUMPDEST PUSH1 0x40 MLOAD PUSH2 0x367 SWAP2 SWAP1 PUSH2 0x1E2A JUMP JUMPDEST PUSH1 0x40 MLOAD DUP1 SWAP2 SUB SWAP1 RETURN JUMPDEST PUSH32 0xA49807205CE4D355092EF5A8A18F56E8913CF4A201FBE287825B095693C21775 PUSH2 0x3A2 DUP2 PUSH2 0x39D PUSH2 0xDED JUMP JUMPDEST PUSH2 0xDF5 JUMP JUMPDEST DUP2 PUSH1 0x3 PUSH1 0x0 DUP3 DUP3 SLOAD PUSH2 0x3B4 SWAP2 SWAP1 PUSH2 0x2076 JUMP JUMPDEST SWAP3 POP POP DUP2 SWAP1 SSTORE POP POP POP JUMP JUMPDEST PUSH1 0x0 PUSH32 0x7965DB0B00000000000000000000000000000000000000000000000000000000 PUSH28 0xFFFFFFFFFFFFFFFFFFFFFFFFFFFFFFFFFFFFFFFFFFFFFFFFFFFFFFFF NOT AND DUP3 PUSH28 0xFFFFFFFFFFFFFFFFFFFFFFFFFFFFFFFFFFFFFFFFFFFFFFFFFFFFFFFF NOT AND EQ DUP1 PUSH2 0x432 JUMPI POP PUSH2 0x431 DUP3 PUSH2 0xE92 JUMP JUMPDEST JUMPDEST SWAP1 POP SWAP2 SWAP1 POP JUMP JUMPDEST PUSH1 0x0 PUSH1 0x1 PUSH1 0x0 DUP4 DUP2 MSTORE PUSH1 0x20 ADD SWAP1 DUP2 MSTORE PUSH1 0x20 ADD PUSH1 0x0 KECCAK256 PUSH1 0x1 ADD SLOAD SWAP1 POP SWAP2 SWAP1 POP JUMP JUMPDEST PUSH2 0x462 DUP3 PUSH2 0x439 JUMP JUMPDEST PUSH2 0x473 DUP2 PUSH2 0x46E PUSH2 0xDED JUMP JUMPDEST PUSH2 0xDF5 JUMP JUMPDEST PUSH2 0x47D DUP4 DUP4 PUSH2 0xEFC JUMP JUMPDEST POP POP POP JUMP JUMPDEST PUSH32 0xA49807205CE4D355092EF5A8A18F56E8913CF4A201FBE287825B095693C21775 PUSH2 0x4B4 DUP2 PUSH2 0x4AF PUSH2 0xDED JUMP JUMPDEST PUSH2 0xDF5 JUMP JUMPDEST PUSH1 0x0 PUSH1 0x2 DUP4 PUSH1 0x40 MLOAD PUSH2 0x4C6 SWAP2 SWAP1 PUSH2 0x1CF5 JUMP JUMPDEST SWAP1 DUP2 MSTORE PUSH1 0x20 ADD PUSH1 0x40 MLOAD DUP1 SWAP2 SUB SWAP1 KECCAK256 DUP2 SWAP1 SSTORE POP POP POP JUMP JUMPDEST PUSH2 0x4E4 PUSH2 0xDED JUMP JUMPDEST PUSH20 0xFFFFFFFFFFFFFFFFFFFFFFFFFFFFFFFFFFFFFFFF AND DUP2 PUSH20 0xFFFFFFFFFFFFFFFFFFFFFFFFFFFFFFFFFFFFFFFF AND EQ PUSH2 0x551 JUMPI PUSH1 0x40 MLOAD PUSH32 0x8C379A000000000000000000000000000000000000000000000000000000000 DUP2 MSTORE PUSH1 0x4 ADD PUSH2 0x548 SWAP1 PUSH2 0x1F97 JUMP JUMPDEST PUSH1 0x40 MLOAD DUP1 SWAP2 SUB SWAP1 REVERT JUMPDEST PUSH2 0x55B DUP3 DUP3 PUSH2 0xFDC JUMP JUMPDEST POP POP JUMP JUMPDEST PUSH32 0x65D7A28E3265B37A6474929F336521B332C1681B933F6CB9F3376673440D862A PUSH2 0x591 DUP2 PUSH2 0x58C PUSH2 0xDED JUMP JUMPDEST PUSH2 0xDF5 JUMP JUMPDEST PUSH2 0x599 PUSH2 0x10BE JUMP JUMPDEST POP JUMP JUMPDEST PUSH1 0x0 DUP1 PUSH1 0x0 SWAP1 SLOAD SWAP1 PUSH2 0x100 EXP SWAP1 DIV PUSH1 0xFF AND SWAP1 POP SWAP1 JUMP JUMPDEST PUSH2 0x5BA PUSH2 0x59C JUMP JUMPDEST ISZERO PUSH2 0x5FA JUMPI PUSH1 0x40 MLOAD PUSH32 0x8C379A000000000000000000000000000000000000000000000000000000000 DUP2 MSTORE PUSH1 0x4 ADD PUSH2 0x5F1 SWAP1 PUSH2 0x1EF7 JUMP JUMPDEST PUSH1 0x40 MLOAD DUP1 SWAP2 SUB SWAP1 REVERT JUMPDEST PUSH1 0x0 PUSH20 0xFFFFFFFFFFFFFFFFFFFFFFFFFFFFFFFFFFFFFFFF AND DUP4 PUSH20 0xFFFFFFFFFFFFFFFFFFFFFFFFFFFFFFFFFFFFFFFF AND EQ ISZERO PUSH2 0x66A JUMPI PUSH1 0x40 MLOAD PUSH32 0x8C379A000000000000000000000000000000000000000000000000000000000 DUP2 MSTORE PUSH1 0x4 ADD PUSH2 0x661 SWAP1 PUSH2 0x1F37 JUMP JUMPDEST PUSH1 0x40 MLOAD DUP1 SWAP2 SUB SWAP1 REVERT JUMPDEST PUSH1 0x0 PUSH1 0xF8 SHL DUP3 PUSH1 0x0 PUSH1 0x20 DUP2 LT PUSH2 0x6A9 JUMPI PUSH32 0x4E487B7100000000000000000000000000000000000000000000000000000000 PUSH1 0x0 MSTORE PUSH1 0x32 PUSH1 0x4 MSTORE PUSH1 0x24 PUSH1 0x0 REVERT JUMPDEST BYTE PUSH1 0xF8 SHL PUSH31 0xFFFFFFFFFFFFFFFFFFFFFFFFFFFFFFFFFFFFFFFFFFFFFFFFFFFFFFFFFFFFFF NOT AND EQ ISZERO PUSH2 0x710 JUMPI PUSH1 0x40 MLOAD PUSH32 0x8C379A000000000000000000000000000000000000000000000000000000000 DUP2 MSTORE PUSH1 0x4 ADD PUSH2 0x707 SWAP1 PUSH2 0x1F77 JUMP JUMPDEST PUSH1 0x40 MLOAD DUP1 SWAP2 SUB SWAP1 REVERT JUMPDEST PUSH1 0x41 DUP2 MLOAD EQ PUSH2 0x754 JUMPI PUSH1 0x40 MLOAD PUSH32 0x8C379A000000000000000000000000000000000000000000000000000000000 DUP2 MSTORE PUSH1 0x4 ADD PUSH2 0x74B SWAP1 PUSH2 0x1ED7 JUMP JUMPDEST PUSH1 0x40 MLOAD DUP1 SWAP2 SUB SWAP1 REVERT JUMPDEST PUSH1 0x0 PUSH32 0x0 PUSH20 0xFFFFFFFFFFFFFFFFFFFFFFFFFFFFFFFFFFFFFFFF AND PUSH4 0x19045A25 DUP5 DUP5 PUSH1 0x40 MLOAD DUP4 PUSH4 0xFFFFFFFF AND PUSH1 0xE0 SHL DUP2 MSTORE PUSH1 0x4 ADD PUSH2 0x7B1 SWAP3 SWAP2 SWAP1 PUSH2 0x1E45 JUMP JUMPDEST PUSH1 0x0 PUSH1 0x40 MLOAD DUP1 DUP4 SUB DUP2 DUP7 DUP1 EXTCODESIZE ISZERO DUP1 ISZERO PUSH2 0x7C9 JUMPI PUSH1 0x0 DUP1 REVERT JUMPDEST POP GAS STATICCALL ISZERO DUP1 ISZERO PUSH2 0x7DD JUMPI RETURNDATASIZE PUSH1 0x0 DUP1 RETURNDATACOPY RETURNDATASIZE PUSH1 0x0 REVERT JUMPDEST POP POP POP POP PUSH1 0x40 MLOAD RETURNDATASIZE PUSH1 0x0 DUP3 RETURNDATACOPY RETURNDATASIZE PUSH1 0x1F NOT PUSH1 0x1F DUP3 ADD AND DUP3 ADD DUP1 PUSH1 0x40 MSTORE POP DUP2 ADD SWAP1 PUSH2 0x806 SWAP2 SWAP1 PUSH2 0x1903 JUMP JUMPDEST SWAP1 POP PUSH1 0x21 DUP2 MLOAD EQ PUSH2 0x84C JUMPI PUSH1 0x40 MLOAD PUSH32 0x8C379A000000000000000000000000000000000000000000000000000000000 DUP2 MSTORE PUSH1 0x4 ADD PUSH2 0x843 SWAP1 PUSH2 0x1F17 JUMP JUMPDEST PUSH1 0x40 MLOAD DUP1 SWAP2 SUB SWAP1 REVERT JUMPDEST PUSH1 0x0 PUSH1 0x2 DUP3 PUSH1 0x40 MLOAD PUSH2 0x85E SWAP2 SWAP1 PUSH2 0x1CF5 JUMP JUMPDEST PUSH1 0x20 PUSH1 0x40 MLOAD DUP1 DUP4 SUB DUP2 DUP6 GAS STATICCALL ISZERO DUP1 ISZERO PUSH2 0x87B JUMPI RETURNDATASIZE PUSH1 0x0 DUP1 RETURNDATACOPY RETURNDATASIZE PUSH1 0x0 REVERT JUMPDEST POP POP POP PUSH1 0x40 MLOAD RETURNDATASIZE PUSH1 0x1F NOT PUSH1 0x1F DUP3 ADD AND DUP3 ADD DUP1 PUSH1 0x40 MSTORE POP DUP2 ADD SWAP1 PUSH2 0x89E SWAP2 SWAP1 PUSH2 0x1834 JUMP JUMPDEST SWAP1 POP PUSH1 0x0 PUSH1 0x3 DUP3 PUSH1 0x40 MLOAD PUSH1 0x20 ADD PUSH2 0x8B5 SWAP2 SWAP1 PUSH2 0x1CDA JUMP JUMPDEST PUSH1 0x40 MLOAD PUSH1 0x20 DUP2 DUP4 SUB SUB DUP2 MSTORE SWAP1 PUSH1 0x40 MSTORE PUSH1 0x40 MLOAD PUSH2 0x8D1 SWAP2 SWAP1 PUSH2 0x1CF5 JUMP JUMPDEST PUSH1 0x20 PUSH1 0x40 MLOAD DUP1 DUP4 SUB DUP2 DUP6 GAS STATICCALL ISZERO DUP1 ISZERO PUSH2 0x8EE JUMPI RETURNDATASIZE PUSH1 0x0 DUP1 RETURNDATACOPY RETURNDATASIZE PUSH1 0x0 REVERT JUMPDEST POP POP POP PUSH1 0x40 MLOAD MLOAD PUSH1 0x60 SHL PUSH1 0x40 MLOAD PUSH1 0x20 ADD PUSH2 0x908 SWAP2 SWAP1 PUSH2 0x1CBF JUMP JUMPDEST PUSH1 0x40 MLOAD PUSH1 0x20 DUP2 DUP4 SUB SUB DUP2 MSTORE SWAP1 PUSH1 0x40 MSTORE SWAP1 POP PUSH1 0x0 PUSH32 0x0 DUP3 PUSH1 0x40 MLOAD PUSH1 0x20 ADD PUSH2 0x94E SWAP3 SWAP2 SWAP1 PUSH2 0x1C97 JUMP JUMPDEST PUSH1 0x40 MLOAD PUSH1 0x20 DUP2 DUP4 SUB SUB DUP2 MSTORE SWAP1 PUSH1 0x40 MSTORE SWAP1 POP PUSH1 0x0 PUSH1 0x2 DUP1 DUP4 PUSH1 0x40 MLOAD PUSH2 0x972 SWAP2 SWAP1 PUSH2 0x1CF5 JUMP JUMPDEST PUSH1 0x20 PUSH1 0x40 MLOAD DUP1 DUP4 SUB DUP2 DUP6 GAS STATICCALL ISZERO DUP1 ISZERO PUSH2 0x98F JUMPI RETURNDATASIZE PUSH1 0x0 DUP1 RETURNDATACOPY RETURNDATASIZE PUSH1 0x0 REVERT JUMPDEST POP POP POP PUSH1 0x40 MLOAD RETURNDATASIZE PUSH1 0x1F NOT PUSH1 0x1F DUP3 ADD AND DUP3 ADD DUP1 PUSH1 0x40 MSTORE POP DUP2 ADD SWAP1 PUSH2 0x9B2 SWAP2 SWAP1 PUSH2 0x1834 JUMP JUMPDEST PUSH1 0x40 MLOAD PUSH1 0x20 ADD PUSH2 0x9C2 SWAP2 SWAP1 PUSH2 0x1CDA JUMP JUMPDEST PUSH1 0x40 MLOAD PUSH1 0x20 DUP2 DUP4 SUB SUB DUP2 MSTORE SWAP1 PUSH1 0x40 MSTORE PUSH1 0x40 MLOAD PUSH2 0x9DE SWAP2 SWAP1 PUSH2 0x1CF5 JUMP JUMPDEST PUSH1 0x20 PUSH1 0x40 MLOAD DUP1 DUP4 SUB DUP2 DUP6 GAS STATICCALL ISZERO DUP1 ISZERO PUSH2 0x9FB JUMPI RETURNDATASIZE PUSH1 0x0 DUP1 RETURNDATACOPY RETURNDATASIZE PUSH1 0x0 REVERT JUMPDEST POP POP POP PUSH1 0x40 MLOAD RETURNDATASIZE PUSH1 0x1F NOT PUSH1 0x1F DUP3 ADD AND DUP3 ADD DUP1 PUSH1 0x40 MSTORE POP DUP2 ADD SWAP1 PUSH2 0xA1E SWAP2 SWAP1 PUSH2 0x1834 JUMP JUMPDEST PUSH1 0x40 MLOAD PUSH1 0x20 ADD PUSH2 0xA2E SWAP2 SWAP1 PUSH2 0x1CDA JUMP JUMPDEST PUSH1 0x40 MLOAD PUSH1 0x20 DUP2 DUP4 SUB SUB DUP2 MSTORE SWAP1 PUSH1 0x40 MSTORE SWAP1 POP PUSH1 0x0 PUSH2 0xA4E DUP3 PUSH1 0x0 PUSH1 0x4 PUSH2 0x115F JUMP JUMPDEST SWAP1 POP PUSH1 0x0 DUP4 DUP3 PUSH1 0x40 MLOAD PUSH1 0x20 ADD PUSH2 0xA65 SWAP3 SWAP2 SWAP1 PUSH2 0x1D0C JUMP JUMPDEST PUSH1 0x40 MLOAD PUSH1 0x20 DUP2 DUP4 SUB SUB DUP2 MSTORE SWAP1 PUSH1 0x40 MSTORE SWAP1 POP PUSH1 0x0 PUSH1 0x2 DUP3 PUSH1 0x40 MLOAD PUSH2 0xA88 SWAP2 SWAP1 PUSH2 0x1CF5 JUMP JUMPDEST SWAP1 DUP2 MSTORE PUSH1 0x20 ADD PUSH1 0x40 MLOAD DUP1 SWAP2 SUB SWAP1 KECCAK256 SLOAD SWAP1 POP PUSH1 0x0 DUP2 GT PUSH2 0xADC JUMPI PUSH1 0x40 MLOAD PUSH32 0x8C379A000000000000000000000000000000000000000000000000000000000 DUP2 MSTORE PUSH1 0x4 ADD PUSH2 0xAD3 SWAP1 PUSH2 0x1F57 JUMP JUMPDEST PUSH1 0x40 MLOAD DUP1 SWAP2 SUB SWAP1 REVERT JUMPDEST PUSH1 0x0 PUSH1 0x2 DUP4 PUSH1 0x40 MLOAD PUSH2 0xAEE SWAP2 SWAP1 PUSH2 0x1CF5 JUMP JUMPDEST SWAP1 DUP2 MSTORE PUSH1 0x20 ADD PUSH1 0x40 MLOAD DUP1 SWAP2 SUB SWAP1 KECCAK256 DUP2 SWAP1 SSTORE POP DUP1 PUSH1 0x3 PUSH1 0x0 DUP3 DUP3 SLOAD PUSH2 0xB12 SWAP2 SWAP1 PUSH2 0x2076 JUMP JUMPDEST SWAP3 POP POP DUP2 SWAP1 SSTORE POP PUSH32 0x0 PUSH20 0xFFFFFFFFFFFFFFFFFFFFFFFFFFFFFFFFFFFFFFFF AND PUSH4 0x40C10F19 DUP13 DUP4 PUSH1 0x40 MLOAD DUP4 PUSH4 0xFFFFFFFF AND PUSH1 0xE0 SHL DUP2 MSTORE PUSH1 0x4 ADD PUSH2 0xB74 SWAP3 SWAP2 SWAP1 PUSH2 0x1DE6 JUMP JUMPDEST PUSH1 0x0 PUSH1 0x40 MLOAD DUP1 DUP4 SUB DUP2 PUSH1 0x0 DUP8 DUP1 EXTCODESIZE ISZERO DUP1 ISZERO PUSH2 0xB8E JUMPI PUSH1 0x0 DUP1 REVERT JUMPDEST POP GAS CALL ISZERO DUP1 ISZERO PUSH2 0xBA2 JUMPI RETURNDATASIZE PUSH1 0x0 DUP1 RETURNDATACOPY RETURNDATASIZE PUSH1 0x0 REVERT JUMPDEST POP POP POP POP PUSH32 0x33DAA5A2F6B0967547CE55D03EA8A8296A2AF4067B4598A8A03BE54D207586D4 DUP12 DUP12 DUP12 DUP12 DUP6 PUSH1 0x40 MLOAD PUSH2 0xBDD SWAP6 SWAP5 SWAP4 SWAP3 SWAP2 SWAP1 PUSH2 0x1D85 JUMP JUMPDEST PUSH1 0x40 MLOAD DUP1 SWAP2 SUB SWAP1 LOG1 POP POP POP POP POP POP POP POP POP POP POP JUMP JUMPDEST PUSH32 0xA49807205CE4D355092EF5A8A18F56E8913CF4A201FBE287825B095693C21775 DUP2 JUMP JUMPDEST PUSH1 0x0 PUSH1 0x2 DUP3 PUSH1 0x40 MLOAD PUSH2 0xC28 SWAP2 SWAP1 PUSH2 0x1CF5 JUMP JUMPDEST SWAP1 DUP2 MSTORE PUSH1 0x20 ADD PUSH1 0x40 MLOAD DUP1 SWAP2 SUB SWAP1 KECCAK256 SLOAD SWAP1 POP SWAP2 SWAP1 POP JUMP JUMPDEST PUSH32 0x65D7A28E3265B37A6474929F336521B332C1681B933F6CB9F3376673440D862A PUSH2 0xC70 DUP2 PUSH2 0xC6B PUSH2 0xDED JUMP JUMPDEST PUSH2 0xDF5 JUMP JUMPDEST PUSH2 0xC78 PUSH2 0x12CF JUMP JUMPDEST POP JUMP JUMPDEST PUSH1 0x0 PUSH1 0x1 PUSH1 0x0 DUP5 DUP2 MSTORE PUSH1 0x20 ADD SWAP1 DUP2 MSTORE PUSH1 0x20 ADD PUSH1 0x0 KECCAK256 PUSH1 0x0 ADD PUSH1 0x0 DUP4 PUSH20 0xFFFFFFFFFFFFFFFFFFFFFFFFFFFFFFFFFFFFFFFF AND PUSH20 0xFFFFFFFFFFFFFFFFFFFFFFFFFFFFFFFFFFFFFFFF AND DUP2 MSTORE PUSH1 0x20 ADD SWAP1 DUP2 MSTORE PUSH1 0x20 ADD PUSH1 0x0 KECCAK256 PUSH1 0x0 SWAP1 SLOAD SWAP1 PUSH2 0x100 EXP SWAP1 DIV PUSH1 0xFF AND SWAP1 POP SWAP3 SWAP2 POP POP JUMP JUMPDEST PUSH1 0x0 PUSH1 0x3 SLOAD SWAP1 POP SWAP1 JUMP JUMPDEST PUSH1 0x0 DUP1 SHL DUP2 JUMP JUMPDEST PUSH32 0xA49807205CE4D355092EF5A8A18F56E8913CF4A201FBE287825B095693C21775 PUSH2 0xD29 DUP2 PUSH2 0xD24 PUSH2 0xDED JUMP JUMPDEST PUSH2 0xDF5 JUMP JUMPDEST DUP2 PUSH1 0x3 PUSH1 0x0 DUP3 DUP3 SLOAD PUSH2 0xD3B SWAP2 SWAP1 PUSH2 0x2126 JUMP JUMPDEST SWAP3 POP POP DUP2 SWAP1 SSTORE POP POP POP JUMP JUMPDEST PUSH32 0xA49807205CE4D355092EF5A8A18F56E8913CF4A201FBE287825B095693C21775 PUSH2 0xD78 DUP2 PUSH2 0xD73 PUSH2 0xDED JUMP JUMPDEST PUSH2 0xDF5 JUMP JUMPDEST DUP2 PUSH1 0x2 DUP5 PUSH1 0x40 MLOAD PUSH2 0xD89 SWAP2 SWAP1 PUSH2 0x1CF5 JUMP JUMPDEST SWAP1 DUP2 MSTORE PUSH1 0x20 ADD PUSH1 0x40 MLOAD DUP1 SWAP2 SUB SWAP1 KECCAK256 DUP2 SWAP1 SSTORE POP POP POP POP JUMP JUMPDEST PUSH2 0xDA9 DUP3 PUSH2 0x439 JUMP JUMPDEST PUSH2 0xDBA DUP2 PUSH2 0xDB5 PUSH2 0xDED JUMP JUMPDEST PUSH2 0xDF5 JUMP JUMPDEST PUSH2 0xDC4 DUP4 DUP4 PUSH2 0xFDC JUMP JUMPDEST POP POP POP JUMP JUMPDEST PUSH32 0x65D7A28E3265B37A6474929F336521B332C1681B933F6CB9F3376673440D862A DUP2 JUMP JUMPDEST PUSH1 0x0 CALLER SWAP1 POP SWAP1 JUMP JUMPDEST PUSH2 0xDFF DUP3 DUP3 PUSH2 0xC7B JUMP JUMPDEST PUSH2 0xE8E JUMPI PUSH2 0xE24 DUP2 PUSH20 0xFFFFFFFFFFFFFFFFFFFFFFFFFFFFFFFFFFFFFFFF AND PUSH1 0x14 PUSH2 0x1371 JUMP JUMPDEST PUSH2 0xE32 DUP4 PUSH1 0x0 SHR PUSH1 0x20 PUSH2 0x1371 JUMP JUMPDEST PUSH1 0x40 MLOAD PUSH1 0x20 ADD PUSH2 0xE43 SWAP3 SWAP2 SWAP1 PUSH2 0x1D30 JUMP JUMPDEST PUSH1 0x40 MLOAD PUSH1 0x20 DUP2 DUP4 SUB SUB DUP2 MSTORE SWAP1 PUSH1 0x40 MSTORE PUSH1 0x40 MLOAD PUSH32 0x8C379A000000000000000000000000000000000000000000000000000000000 DUP2 MSTORE PUSH1 0x4 ADD PUSH2 0xE85 SWAP2 SWAP1 PUSH2 0x1E75 JUMP JUMPDEST PUSH1 0x40 MLOAD DUP1 SWAP2 SUB SWAP1 REVERT JUMPDEST POP POP JUMP JUMPDEST PUSH1 0x0 PUSH32 0x1FFC9A700000000000000000000000000000000000000000000000000000000 PUSH28 0xFFFFFFFFFFFFFFFFFFFFFFFFFFFFFFFFFFFFFFFFFFFFFFFFFFFFFFFF NOT AND DUP3 PUSH28 0xFFFFFFFFFFFFFFFFFFFFFFFFFFFFFFFFFFFFFFFFFFFFFFFFFFFFFFFF NOT AND EQ SWAP1 POP SWAP2 SWAP1 POP JUMP JUMPDEST PUSH2 0xF06 DUP3 DUP3 PUSH2 0xC7B JUMP JUMPDEST PUSH2 0xFD8 JUMPI PUSH1 0x1 DUP1 PUSH1 0x0 DUP5 DUP2 MSTORE PUSH1 0x20 ADD SWAP1 DUP2 MSTORE PUSH1 0x20 ADD PUSH1 0x0 KECCAK256 PUSH1 0x0 ADD PUSH1 0x0 DUP4 PUSH20 0xFFFFFFFFFFFFFFFFFFFFFFFFFFFFFFFFFFFFFFFF AND PUSH20 0xFFFFFFFFFFFFFFFFFFFFFFFFFFFFFFFFFFFFFFFF AND DUP2 MSTORE PUSH1 0x20 ADD SWAP1 DUP2 MSTORE PUSH1 0x20 ADD PUSH1 0x0 KECCAK256 PUSH1 0x0 PUSH2 0x100 EXP DUP2 SLOAD DUP2 PUSH1 0xFF MUL NOT AND SWAP1 DUP4 ISZERO ISZERO MUL OR SWAP1 SSTORE POP PUSH2 0xF7D PUSH2 0xDED JUMP JUMPDEST PUSH20 0xFFFFFFFFFFFFFFFFFFFFFFFFFFFFFFFFFFFFFFFF AND DUP2 PUSH20 0xFFFFFFFFFFFFFFFFFFFFFFFFFFFFFFFFFFFFFFFF AND DUP4 PUSH32 0x2F8788117E7EFF1D82E926EC794901D17C78024A50270940304540A733656F0D PUSH1 0x40 MLOAD PUSH1 0x40 MLOAD DUP1 SWAP2 SUB SWAP1 LOG4 JUMPDEST POP POP JUMP JUMPDEST PUSH2 0xFE6 DUP3 DUP3 PUSH2 0xC7B JUMP JUMPDEST ISZERO PUSH2 0x10BA JUMPI PUSH1 0x0 PUSH1 0x1 PUSH1 0x0 DUP5 DUP2 MSTORE PUSH1 0x20 ADD SWAP1 DUP2 MSTORE PUSH1 0x20 ADD PUSH1 0x0 KECCAK256 PUSH1 0x0 ADD PUSH1 0x0 DUP4 PUSH20 0xFFFFFFFFFFFFFFFFFFFFFFFFFFFFFFFFFFFFFFFF AND PUSH20 0xFFFFFFFFFFFFFFFFFFFFFFFFFFFFFFFFFFFFFFFF AND DUP2 MSTORE PUSH1 0x20 ADD SWAP1 DUP2 MSTORE PUSH1 0x20 ADD PUSH1 0x0 KECCAK256 PUSH1 0x0 PUSH2 0x100 EXP DUP2 SLOAD DUP2 PUSH1 0xFF MUL NOT AND SWAP1 DUP4 ISZERO ISZERO MUL OR SWAP1 SSTORE POP PUSH2 0x105F PUSH2 0xDED JUMP JUMPDEST PUSH20 0xFFFFFFFFFFFFFFFFFFFFFFFFFFFFFFFFFFFFFFFF AND DUP2 PUSH20 0xFFFFFFFFFFFFFFFFFFFFFFFFFFFFFFFFFFFFFFFF AND DUP4 PUSH32 0xF6391F5C32D9C69D2A47EA670B442974B53935D1EDC7FD64EB21E047A839171B PUSH1 0x40 MLOAD PUSH1 0x40 MLOAD DUP1 SWAP2 SUB SWAP1 LOG4 JUMPDEST POP POP JUMP JUMPDEST PUSH2 0x10C6 PUSH2 0x59C JUMP JUMPDEST PUSH2 0x1105 JUMPI PUSH1 0x40 MLOAD PUSH32 0x8C379A000000000000000000000000000000000000000000000000000000000 DUP2 MSTORE PUSH1 0x4 ADD PUSH2 0x10FC SWAP1 PUSH2 0x1EB7 JUMP JUMPDEST PUSH1 0x40 MLOAD DUP1 SWAP2 SUB SWAP1 REVERT JUMPDEST PUSH1 0x0 DUP1 PUSH1 0x0 PUSH2 0x100 EXP DUP2 SLOAD DUP2 PUSH1 0xFF MUL NOT AND SWAP1 DUP4 ISZERO ISZERO MUL OR SWAP1 SSTORE POP PUSH32 0x5DB9EE0A495BF2E6FF9C91A7834C1BA4FDD244A5E8AA4E537BD38AEAE4B073AA PUSH2 0x1148 PUSH2 0xDED JUMP JUMPDEST PUSH1 0x40 MLOAD PUSH2 0x1155 SWAP2 SWAP1 PUSH2 0x1D6A JUMP JUMPDEST PUSH1 0x40 MLOAD DUP1 SWAP2 SUB SWAP1 LOG1 JUMP JUMPDEST PUSH1 0x60 PUSH1 0x0 DUP4 DUP4 PUSH2 0x116F SWAP2 SWAP1 PUSH2 0x2126 JUMP JUMPDEST PUSH8 0xFFFFFFFFFFFFFFFF DUP2 GT ISZERO PUSH2 0x11AE JUMPI PUSH32 0x4E487B7100000000000000000000000000000000000000000000000000000000 PUSH1 0x0 MSTORE PUSH1 0x41 PUSH1 0x4 MSTORE PUSH1 0x24 PUSH1 0x0 REVERT JUMPDEST PUSH1 0x40 MLOAD SWAP1 DUP1 DUP3 MSTORE DUP1 PUSH1 0x1F ADD PUSH1 0x1F NOT AND PUSH1 0x20 ADD DUP3 ADD PUSH1 0x40 MSTORE DUP1 ISZERO PUSH2 0x11E0 JUMPI DUP2 PUSH1 0x20 ADD PUSH1 0x1 DUP3 MUL DUP1 CALLDATASIZE DUP4 CALLDATACOPY DUP1 DUP3 ADD SWAP2 POP POP SWAP1 POP JUMPDEST POP SWAP1 POP PUSH1 0x0 JUMPDEST PUSH1 0x1 DUP6 DUP6 PUSH2 0x11F4 SWAP2 SWAP1 PUSH2 0x2126 JUMP JUMPDEST PUSH2 0x11FE SWAP2 SWAP1 PUSH2 0x2126 JUMP JUMPDEST DUP2 GT PUSH2 0x12C3 JUMPI DUP6 DUP2 DUP2 MLOAD DUP2 LT PUSH2 0x123D JUMPI PUSH32 0x4E487B7100000000000000000000000000000000000000000000000000000000 PUSH1 0x0 MSTORE PUSH1 0x32 PUSH1 0x4 MSTORE PUSH1 0x24 PUSH1 0x0 REVERT JUMPDEST PUSH1 0x20 ADD ADD MLOAD PUSH1 0xF8 SHR PUSH1 0xF8 SHL DUP3 DUP3 DUP2 MLOAD DUP2 LT PUSH2 0x1281 JUMPI PUSH32 0x4E487B7100000000000000000000000000000000000000000000000000000000 PUSH1 0x0 MSTORE PUSH1 0x32 PUSH1 0x4 MSTORE PUSH1 0x24 PUSH1 0x0 REVERT JUMPDEST PUSH1 0x20 ADD ADD SWAP1 PUSH31 0xFFFFFFFFFFFFFFFFFFFFFFFFFFFFFFFFFFFFFFFFFFFFFFFFFFFFFFFFFFFFFF NOT AND SWAP1 DUP2 PUSH1 0x0 BYTE SWAP1 MSTORE8 POP DUP1 DUP1 PUSH2 0x12BB SWAP1 PUSH2 0x22CD JUMP JUMPDEST SWAP2 POP POP PUSH2 0x11E6 JUMP JUMPDEST POP DUP1 SWAP2 POP POP SWAP4 SWAP3 POP POP POP JUMP JUMPDEST PUSH2 0x12D7 PUSH2 0x59C JUMP JUMPDEST ISZERO PUSH2 0x1317 JUMPI PUSH1 0x40 MLOAD PUSH32 0x8C379A000000000000000000000000000000000000000000000000000000000 DUP2 MSTORE PUSH1 0x4 ADD PUSH2 0x130E SWAP1 PUSH2 0x1EF7 JUMP JUMPDEST PUSH1 0x40 MLOAD DUP1 SWAP2 SUB SWAP1 REVERT JUMPDEST PUSH1 0x1 PUSH1 0x0 DUP1 PUSH2 0x100 EXP DUP2 SLOAD DUP2 PUSH1 0xFF MUL NOT AND SWAP1 DUP4 ISZERO ISZERO MUL OR SWAP1 SSTORE POP PUSH32 0x62E78CEA01BEE320CD4E420270B5EA74000D11B0C9F74754EBDBFC544B05A258 PUSH2 0x135A PUSH2 0xDED JUMP JUMPDEST PUSH1 0x40 MLOAD PUSH2 0x1367 SWAP2 SWAP1 PUSH2 0x1D6A JUMP JUMPDEST PUSH1 0x40 MLOAD DUP1 SWAP2 SUB SWAP1 LOG1 JUMP JUMPDEST PUSH1 0x60 PUSH1 0x0 PUSH1 0x2 DUP4 PUSH1 0x2 PUSH2 0x1384 SWAP2 SWAP1 PUSH2 0x20CC JUMP JUMPDEST PUSH2 0x138E SWAP2 SWAP1 PUSH2 0x2076 JUMP JUMPDEST PUSH8 0xFFFFFFFFFFFFFFFF DUP2 GT ISZERO PUSH2 0x13CD JUMPI PUSH32 0x4E487B7100000000000000000000000000000000000000000000000000000000 PUSH1 0x0 MSTORE PUSH1 0x41 PUSH1 0x4 MSTORE PUSH1 0x24 PUSH1 0x0 REVERT JUMPDEST PUSH1 0x40 MLOAD SWAP1 DUP1 DUP3 MSTORE DUP1 PUSH1 0x1F ADD PUSH1 0x1F NOT AND PUSH1 0x20 ADD DUP3 ADD PUSH1 0x40 MSTORE DUP1 ISZERO PUSH2 0x13FF JUMPI DUP2 PUSH1 0x20 ADD PUSH1 0x1 DUP3 MUL DUP1 CALLDATASIZE DUP4 CALLDATACOPY DUP1 DUP3 ADD SWAP2 POP POP SWAP1 POP JUMPDEST POP SWAP1 POP PUSH32 0x3000000000000000000000000000000000000000000000000000000000000000 DUP2 PUSH1 0x0 DUP2 MLOAD DUP2 LT PUSH2 0x145D JUMPI PUSH32 0x4E487B7100000000000000000000000000000000000000000000000000000000 PUSH1 0x0 MSTORE PUSH1 0x32 PUSH1 0x4 MSTORE PUSH1 0x24 PUSH1 0x0 REVERT JUMPDEST PUSH1 0x20 ADD ADD SWAP1 PUSH31 0xFFFFFFFFFFFFFFFFFFFFFFFFFFFFFFFFFFFFFFFFFFFFFFFFFFFFFFFFFFFFFF NOT AND SWAP1 DUP2 PUSH1 0x0 BYTE SWAP1 MSTORE8 POP PUSH32 0x7800000000000000000000000000000000000000000000000000000000000000 DUP2 PUSH1 0x1 DUP2 MLOAD DUP2 LT PUSH2 0x14E7 JUMPI PUSH32 0x4E487B7100000000000000000000000000000000000000000000000000000000 PUSH1 0x0 MSTORE PUSH1 0x32 PUSH1 0x4 MSTORE PUSH1 0x24 PUSH1 0x0 REVERT JUMPDEST PUSH1 0x20 ADD ADD SWAP1 PUSH31 0xFFFFFFFFFFFFFFFFFFFFFFFFFFFFFFFFFFFFFFFFFFFFFFFFFFFFFFFFFFFFFF NOT AND SWAP1 DUP2 PUSH1 0x0 BYTE SWAP1 MSTORE8 POP PUSH1 0x0 PUSH1 0x1 DUP5 PUSH1 0x2 PUSH2 0x1527 SWAP2 SWAP1 PUSH2 0x20CC JUMP JUMPDEST PUSH2 0x1531 SWAP2 SWAP1 PUSH2 0x2076 JUMP JUMPDEST SWAP1 POP JUMPDEST PUSH1 0x1 DUP2 GT ISZERO PUSH2 0x161D JUMPI PUSH32 0x3031323334353637383961626364656600000000000000000000000000000000 PUSH1 0xF DUP7 AND PUSH1 0x10 DUP2 LT PUSH2 0x1599 JUMPI PUSH32 0x4E487B7100000000000000000000000000000000000000000000000000000000 PUSH1 0x0 MSTORE PUSH1 0x32 PUSH1 0x4 MSTORE PUSH1 0x24 PUSH1 0x0 REVERT JUMPDEST BYTE PUSH1 0xF8 SHL DUP3 DUP3 DUP2 MLOAD DUP2 LT PUSH2 0x15D6 JUMPI PUSH32 0x4E487B7100000000000000000000000000000000000000000000000000000000 PUSH1 0x0 MSTORE PUSH1 0x32 PUSH1 0x4 MSTORE PUSH1 0x24 PUSH1 0x0 REVERT JUMPDEST PUSH1 0x20 ADD ADD SWAP1 PUSH31 0xFFFFFFFFFFFFFFFFFFFFFFFFFFFFFFFFFFFFFFFFFFFFFFFFFFFFFFFFFFFFFF NOT AND SWAP1 DUP2 PUSH1 0x0 BYTE SWAP1 MSTORE8 POP PUSH1 0x4 DUP6 SWAP1 SHR SWAP5 POP DUP1 PUSH2 0x1616 SWAP1 PUSH2 0x2272 JUMP JUMPDEST SWAP1 POP PUSH2 0x1534 JUMP JUMPDEST POP PUSH1 0x0 DUP5 EQ PUSH2 0x1661 JUMPI PUSH1 0x40 MLOAD PUSH32 0x8C379A000000000000000000000000000000000000000000000000000000000 DUP2 MSTORE PUSH1 0x4 ADD PUSH2 0x1658 SWAP1 PUSH2 0x1E97 JUMP JUMPDEST PUSH1 0x40 MLOAD DUP1 SWAP2 SUB SWAP1 REVERT JUMPDEST DUP1 SWAP2 POP POP SWAP3 SWAP2 POP POP JUMP JUMPDEST PUSH1 0x0 PUSH2 0x167E PUSH2 0x1679 DUP5 PUSH2 0x1FF7 JUMP JUMPDEST PUSH2 0x1FD2 JUMP JUMPDEST SWAP1 POP DUP3 DUP2 MSTORE PUSH1 0x20 DUP2 ADD DUP5 DUP5 DUP5 ADD GT ISZERO PUSH2 0x1696 JUMPI PUSH1 0x0 DUP1 REVERT JUMPDEST PUSH2 0x16A1 DUP5 DUP3 DUP6 PUSH2 0x2230 JUMP JUMPDEST POP SWAP4 SWAP3 POP POP POP JUMP JUMPDEST PUSH1 0x0 PUSH2 0x16BC PUSH2 0x16B7 DUP5 PUSH2 0x1FF7 JUMP JUMPDEST PUSH2 0x1FD2 JUMP JUMPDEST SWAP1 POP DUP3 DUP2 MSTORE PUSH1 0x20 DUP2 ADD DUP5 DUP5 DUP5 ADD GT ISZERO PUSH2 0x16D4 JUMPI PUSH1 0x0 DUP1 REVERT JUMPDEST PUSH2 0x16DF DUP5 DUP3 DUP6 PUSH2 0x223F JUMP JUMPDEST POP SWAP4 SWAP3 POP POP POP JUMP JUMPDEST PUSH1 0x0 DUP2 CALLDATALOAD SWAP1 POP PUSH2 0x16F6 DUP2 PUSH2 0x2670 JUMP JUMPDEST SWAP3 SWAP2 POP POP JUMP JUMPDEST PUSH1 0x0 DUP2 CALLDATALOAD SWAP1 POP PUSH2 0x170B DUP2 PUSH2 0x2687 JUMP JUMPDEST SWAP3 SWAP2 POP POP JUMP JUMPDEST PUSH1 0x0 DUP2 MLOAD SWAP1 POP PUSH2 0x1720 DUP2 PUSH2 0x2687 JUMP JUMPDEST SWAP3 SWAP2 POP POP JUMP JUMPDEST PUSH1 0x0 DUP2 CALLDATALOAD SWAP1 POP PUSH2 0x1735 DUP2 PUSH2 0x269E JUMP JUMPDEST SWAP3 SWAP2 POP POP JUMP JUMPDEST PUSH1 0x0 DUP3 PUSH1 0x1F DUP4 ADD SLT PUSH2 0x174C JUMPI PUSH1 0x0 DUP1 REVERT JUMPDEST DUP2 CALLDATALOAD PUSH2 0x175C DUP5 DUP3 PUSH1 0x20 DUP7 ADD PUSH2 0x166B JUMP JUMPDEST SWAP2 POP POP SWAP3 SWAP2 POP POP JUMP JUMPDEST PUSH1 0x0 DUP3 PUSH1 0x1F DUP4 ADD SLT PUSH2 0x1776 JUMPI PUSH1 0x0 DUP1 REVERT JUMPDEST DUP2 MLOAD PUSH2 0x1786 DUP5 DUP3 PUSH1 0x20 DUP7 ADD PUSH2 0x16A9 JUMP JUMPDEST SWAP2 POP POP SWAP3 SWAP2 POP POP JUMP JUMPDEST PUSH1 0x0 DUP2 CALLDATALOAD SWAP1 POP PUSH2 0x179E DUP2 PUSH2 0x26B5 JUMP JUMPDEST SWAP3 SWAP2 POP POP JUMP JUMPDEST PUSH1 0x0 DUP1 PUSH1 0x0 PUSH1 0x60 DUP5 DUP7 SUB SLT ISZERO PUSH2 0x17B9 JUMPI PUSH1 0x0 DUP1 REVERT JUMPDEST PUSH1 0x0 PUSH2 0x17C7 DUP7 DUP3 DUP8 ADD PUSH2 0x16E7 JUMP JUMPDEST SWAP4 POP POP PUSH1 0x20 PUSH2 0x17D8 DUP7 DUP3 DUP8 ADD PUSH2 0x16FC JUMP JUMPDEST SWAP3 POP POP PUSH1 0x40 DUP5 ADD CALLDATALOAD PUSH8 0xFFFFFFFFFFFFFFFF DUP2 GT ISZERO PUSH2 0x17F5 JUMPI PUSH1 0x0 DUP1 REVERT JUMPDEST PUSH2 0x1801 DUP7 DUP3 DUP8 ADD PUSH2 0x173B JUMP JUMPDEST SWAP2 POP POP SWAP3 POP SWAP3 POP SWAP3 JUMP JUMPDEST PUSH1 0x0 PUSH1 0x20 DUP3 DUP5 SUB SLT ISZERO PUSH2 0x181D JUMPI PUSH1 0x0 DUP1 REVERT JUMPDEST PUSH1 0x0 PUSH2 0x182B DUP5 DUP3 DUP6 ADD PUSH2 0x16FC JUMP JUMPDEST SWAP2 POP POP SWAP3 SWAP2 POP POP JUMP JUMPDEST PUSH1 0x0 PUSH1 0x20 DUP3 DUP5 SUB SLT ISZERO PUSH2 0x1846 JUMPI PUSH1 0x0 DUP1 REVERT JUMPDEST PUSH1 0x0 PUSH2 0x1854 DUP5 DUP3 DUP6 ADD PUSH2 0x1711 JUMP JUMPDEST SWAP2 POP POP SWAP3 SWAP2 POP POP JUMP JUMPDEST PUSH1 0x0 DUP1 PUSH1 0x40 DUP4 DUP6 SUB SLT ISZERO PUSH2 0x1870 JUMPI PUSH1 0x0 DUP1 REVERT JUMPDEST PUSH1 0x0 PUSH2 0x187E DUP6 DUP3 DUP7 ADD PUSH2 0x16FC JUMP JUMPDEST SWAP3 POP POP PUSH1 0x20 PUSH2 0x188F DUP6 DUP3 DUP7 ADD PUSH2 0x16E7 JUMP JUMPDEST SWAP2 POP POP SWAP3 POP SWAP3 SWAP1 POP JUMP JUMPDEST PUSH1 0x0 PUSH1 0x20 DUP3 DUP5 SUB SLT ISZERO PUSH2 0x18AB JUMPI PUSH1 0x0 DUP1 REVERT JUMPDEST PUSH1 0x0 PUSH2 0x18B9 DUP5 DUP3 DUP6 ADD PUSH2 0x1726 JUMP JUMPDEST SWAP2 POP POP SWAP3 SWAP2 POP POP JUMP JUMPDEST PUSH1 0x0 PUSH1 0x20 DUP3 DUP5 SUB SLT ISZERO PUSH2 0x18D4 JUMPI PUSH1 0x0 DUP1 REVERT JUMPDEST PUSH1 0x0 DUP3 ADD CALLDATALOAD PUSH8 0xFFFFFFFFFFFFFFFF DUP2 GT ISZERO PUSH2 0x18EE JUMPI PUSH1 0x0 DUP1 REVERT JUMPDEST PUSH2 0x18FA DUP5 DUP3 DUP6 ADD PUSH2 0x173B JUMP JUMPDEST SWAP2 POP POP SWAP3 SWAP2 POP POP JUMP JUMPDEST PUSH1 0x0 PUSH1 0x20 DUP3 DUP5 SUB SLT ISZERO PUSH2 0x1915 JUMPI PUSH1 0x0 DUP1 REVERT JUMPDEST PUSH1 0x0 DUP3 ADD MLOAD PUSH8 0xFFFFFFFFFFFFFFFF DUP2 GT ISZERO PUSH2 0x192F JUMPI PUSH1 0x0 DUP1 REVERT JUMPDEST PUSH2 0x193B DUP5 DUP3 DUP6 ADD PUSH2 0x1765 JUMP JUMPDEST SWAP2 POP POP SWAP3 SWAP2 POP POP JUMP JUMPDEST PUSH1 0x0 DUP1 PUSH1 0x40 DUP4 DUP6 SUB SLT ISZERO PUSH2 0x1957 JUMPI PUSH1 0x0 DUP1 REVERT JUMPDEST PUSH1 0x0 DUP4 ADD CALLDATALOAD PUSH8 0xFFFFFFFFFFFFFFFF DUP2 GT ISZERO PUSH2 0x1971 JUMPI PUSH1 0x0 DUP1 REVERT JUMPDEST PUSH2 0x197D DUP6 DUP3 DUP7 ADD PUSH2 0x173B JUMP JUMPDEST SWAP3 POP POP PUSH1 0x20 PUSH2 0x198E DUP6 DUP3 DUP7 ADD PUSH2 0x178F JUMP JUMPDEST SWAP2 POP POP SWAP3 POP SWAP3 SWAP1 POP JUMP JUMPDEST PUSH1 0x0 PUSH1 0x20 DUP3 DUP5 SUB SLT ISZERO PUSH2 0x19AA JUMPI PUSH1 0x0 DUP1 REVERT JUMPDEST PUSH1 0x0 PUSH2 0x19B8 DUP5 DUP3 DUP6 ADD PUSH2 0x178F JUMP JUMPDEST SWAP2 POP POP SWAP3 SWAP2 POP POP JUMP JUMPDEST PUSH2 0x19CA DUP2 PUSH2 0x215A JUMP JUMPDEST DUP3 MSTORE POP POP JUMP JUMPDEST PUSH2 0x19D9 DUP2 PUSH2 0x216C JUMP JUMPDEST DUP3 MSTORE POP POP JUMP JUMPDEST PUSH2 0x19F0 PUSH2 0x19EB DUP3 PUSH2 0x2178 JUMP JUMPDEST PUSH2 0x2316 JUMP JUMPDEST DUP3 MSTORE POP POP JUMP JUMPDEST PUSH2 0x1A07 PUSH2 0x1A02 DUP3 PUSH2 0x21A4 JUMP JUMPDEST PUSH2 0x2320 JUMP JUMPDEST DUP3 MSTORE POP POP JUMP JUMPDEST PUSH2 0x1A16 DUP2 PUSH2 0x21D0 JUMP JUMPDEST DUP3 MSTORE POP POP JUMP JUMPDEST PUSH2 0x1A2D PUSH2 0x1A28 DUP3 PUSH2 0x21D0 JUMP JUMPDEST PUSH2 0x232A JUMP JUMPDEST DUP3 MSTORE POP POP JUMP JUMPDEST PUSH1 0x0 PUSH2 0x1A3E DUP3 PUSH2 0x2028 JUMP JUMPDEST PUSH2 0x1A48 DUP2 DUP6 PUSH2 0x203E JUMP JUMPDEST SWAP4 POP PUSH2 0x1A58 DUP2 DUP6 PUSH1 0x20 DUP7 ADD PUSH2 0x223F JUMP JUMPDEST PUSH2 0x1A61 DUP2 PUSH2 0x2392 JUMP JUMPDEST DUP5 ADD SWAP2 POP POP SWAP3 SWAP2 POP POP JUMP JUMPDEST PUSH1 0x0 PUSH2 0x1A77 DUP3 PUSH2 0x2028 JUMP JUMPDEST PUSH2 0x1A81 DUP2 DUP6 PUSH2 0x204F JUMP JUMPDEST SWAP4 POP PUSH2 0x1A91 DUP2 DUP6 PUSH1 0x20 DUP7 ADD PUSH2 0x223F JUMP JUMPDEST DUP1 DUP5 ADD SWAP2 POP POP SWAP3 SWAP2 POP POP JUMP JUMPDEST PUSH1 0x0 PUSH2 0x1AA8 DUP3 PUSH2 0x2033 JUMP JUMPDEST PUSH2 0x1AB2 DUP2 DUP6 PUSH2 0x205A JUMP JUMPDEST SWAP4 POP PUSH2 0x1AC2 DUP2 DUP6 PUSH1 0x20 DUP7 ADD PUSH2 0x223F JUMP JUMPDEST PUSH2 0x1ACB DUP2 PUSH2 0x2392 JUMP JUMPDEST DUP5 ADD SWAP2 POP POP SWAP3 SWAP2 POP POP JUMP JUMPDEST PUSH1 0x0 PUSH2 0x1AE1 DUP3 PUSH2 0x2033 JUMP JUMPDEST PUSH2 0x1AEB DUP2 DUP6 PUSH2 0x206B JUMP JUMPDEST SWAP4 POP PUSH2 0x1AFB DUP2 DUP6 PUSH1 0x20 DUP7 ADD PUSH2 0x223F JUMP JUMPDEST DUP1 DUP5 ADD SWAP2 POP POP SWAP3 SWAP2 POP POP JUMP JUMPDEST PUSH1 0x0 PUSH2 0x1B14 PUSH1 0x20 DUP4 PUSH2 0x205A JUMP JUMPDEST SWAP2 POP PUSH2 0x1B1F DUP3 PUSH2 0x23A3 JUMP JUMPDEST PUSH1 0x20 DUP3 ADD SWAP1 POP SWAP2 SWAP1 POP JUMP JUMPDEST PUSH1 0x0 PUSH2 0x1B37 PUSH1 0x14 DUP4 PUSH2 0x205A JUMP JUMPDEST SWAP2 POP PUSH2 0x1B42 DUP3 PUSH2 0x23CC JUMP JUMPDEST PUSH1 0x20 DUP3 ADD SWAP1 POP SWAP2 SWAP1 POP JUMP JUMPDEST PUSH1 0x0 PUSH2 0x1B5A PUSH1 0x4F DUP4 PUSH2 0x205A JUMP JUMPDEST SWAP2 POP PUSH2 0x1B65 DUP3 PUSH2 0x23F5 JUMP JUMPDEST PUSH1 0x60 DUP3 ADD SWAP1 POP SWAP2 SWAP1 POP JUMP JUMPDEST PUSH1 0x0 PUSH2 0x1B7D PUSH1 0x10 DUP4 PUSH2 0x205A JUMP JUMPDEST SWAP2 POP PUSH2 0x1B88 DUP3 PUSH2 0x246A JUMP JUMPDEST PUSH1 0x20 DUP3 ADD SWAP1 POP SWAP2 SWAP1 POP JUMP JUMPDEST PUSH1 0x0 PUSH2 0x1BA0 PUSH1 0x53 DUP4 PUSH2 0x205A JUMP JUMPDEST SWAP2 POP PUSH2 0x1BAB DUP3 PUSH2 0x2493 JUMP JUMPDEST PUSH1 0x60 DUP3 ADD SWAP1 POP SWAP2 SWAP1 POP JUMP JUMPDEST PUSH1 0x0 PUSH2 0x1BC3 PUSH1 0x2C DUP4 PUSH2 0x205A JUMP JUMPDEST SWAP2 POP PUSH2 0x1BCE DUP3 PUSH2 0x2508 JUMP JUMPDEST PUSH1 0x40 DUP3 ADD SWAP1 POP SWAP2 SWAP1 POP JUMP JUMPDEST PUSH1 0x0 PUSH2 0x1BE6 PUSH1 0x17 DUP4 PUSH2 0x206B JUMP JUMPDEST SWAP2 POP PUSH2 0x1BF1 DUP3 PUSH2 0x2557 JUMP JUMPDEST PUSH1 0x17 DUP3 ADD SWAP1 POP SWAP2 SWAP1 POP JUMP JUMPDEST PUSH1 0x0 PUSH2 0x1C09 PUSH1 0x1E DUP4 PUSH2 0x205A JUMP JUMPDEST SWAP2 POP PUSH2 0x1C14 DUP3 PUSH2 0x2580 JUMP JUMPDEST PUSH1 0x20 DUP3 ADD SWAP1 POP SWAP2 SWAP1 POP JUMP JUMPDEST PUSH1 0x0 PUSH2 0x1C2C PUSH1 0x29 DUP4 PUSH2 0x205A JUMP JUMPDEST SWAP2 POP PUSH2 0x1C37 DUP3 PUSH2 0x25A9 JUMP JUMPDEST PUSH1 0x40 DUP3 ADD SWAP1 POP SWAP2 SWAP1 POP JUMP JUMPDEST PUSH1 0x0 PUSH2 0x1C4F PUSH1 0x11 DUP4 PUSH2 0x206B JUMP JUMPDEST SWAP2 POP PUSH2 0x1C5A DUP3 PUSH2 0x25F8 JUMP JUMPDEST PUSH1 0x11 DUP3 ADD SWAP1 POP SWAP2 SWAP1 POP JUMP JUMPDEST PUSH1 0x0 PUSH2 0x1C72 PUSH1 0x2F DUP4 PUSH2 0x205A JUMP JUMPDEST SWAP2 POP PUSH2 0x1C7D DUP3 PUSH2 0x2621 JUMP JUMPDEST PUSH1 0x40 DUP3 ADD SWAP1 POP SWAP2 SWAP1 POP JUMP JUMPDEST PUSH2 0x1C91 DUP2 PUSH2 0x2226 JUMP JUMPDEST DUP3 MSTORE POP POP JUMP JUMPDEST PUSH1 0x0 PUSH2 0x1CA3 DUP3 DUP6 PUSH2 0x19DF JUMP JUMPDEST PUSH1 0x1 DUP3 ADD SWAP2 POP PUSH2 0x1CB3 DUP3 DUP5 PUSH2 0x1A6C JUMP JUMPDEST SWAP2 POP DUP2 SWAP1 POP SWAP4 SWAP3 POP POP POP JUMP JUMPDEST PUSH1 0x0 PUSH2 0x1CCB DUP3 DUP5 PUSH2 0x19F6 JUMP JUMPDEST PUSH1 0x14 DUP3 ADD SWAP2 POP DUP2 SWAP1 POP SWAP3 SWAP2 POP POP JUMP JUMPDEST PUSH1 0x0 PUSH2 0x1CE6 DUP3 DUP5 PUSH2 0x1A1C JUMP JUMPDEST PUSH1 0x20 DUP3 ADD SWAP2 POP DUP2 SWAP1 POP SWAP3 SWAP2 POP POP JUMP JUMPDEST PUSH1 0x0 PUSH2 0x1D01 DUP3 DUP5 PUSH2 0x1A6C JUMP JUMPDEST SWAP2 POP DUP2 SWAP1 POP SWAP3 SWAP2 POP POP JUMP JUMPDEST PUSH1 0x0 PUSH2 0x1D18 DUP3 DUP6 PUSH2 0x1A6C JUMP JUMPDEST SWAP2 POP PUSH2 0x1D24 DUP3 DUP5 PUSH2 0x1A6C JUMP JUMPDEST SWAP2 POP DUP2 SWAP1 POP SWAP4 SWAP3 POP POP POP JUMP JUMPDEST PUSH1 0x0 PUSH2 0x1D3B DUP3 PUSH2 0x1BD9 JUMP JUMPDEST SWAP2 POP PUSH2 0x1D47 DUP3 DUP6 PUSH2 0x1AD6 JUMP JUMPDEST SWAP2 POP PUSH2 0x1D52 DUP3 PUSH2 0x1C42 JUMP JUMPDEST SWAP2 POP PUSH2 0x1D5E DUP3 DUP5 PUSH2 0x1AD6 JUMP JUMPDEST SWAP2 POP DUP2 SWAP1 POP SWAP4 SWAP3 POP POP POP JUMP JUMPDEST PUSH1 0x0 PUSH1 0x20 DUP3 ADD SWAP1 POP PUSH2 0x1D7F PUSH1 0x0 DUP4 ADD DUP5 PUSH2 0x19C1 JUMP JUMPDEST SWAP3 SWAP2 POP POP JUMP JUMPDEST PUSH1 0x0 PUSH1 0xA0 DUP3 ADD SWAP1 POP PUSH2 0x1D9A PUSH1 0x0 DUP4 ADD DUP9 PUSH2 0x19C1 JUMP JUMPDEST PUSH2 0x1DA7 PUSH1 0x20 DUP4 ADD DUP8 PUSH2 0x1A0D JUMP JUMPDEST DUP2 DUP2 SUB PUSH1 0x40 DUP4 ADD MSTORE PUSH2 0x1DB9 DUP2 DUP7 PUSH2 0x1A33 JUMP JUMPDEST SWAP1 POP DUP2 DUP2 SUB PUSH1 0x60 DUP4 ADD MSTORE PUSH2 0x1DCD DUP2 DUP6 PUSH2 0x1A33 JUMP JUMPDEST SWAP1 POP PUSH2 0x1DDC PUSH1 0x80 DUP4 ADD DUP5 PUSH2 0x1C88 JUMP JUMPDEST SWAP7 SWAP6 POP POP POP POP POP POP JUMP JUMPDEST PUSH1 0x0 PUSH1 0x40 DUP3 ADD SWAP1 POP PUSH2 0x1DFB PUSH1 0x0 DUP4 ADD DUP6 PUSH2 0x19C1 JUMP JUMPDEST PUSH2 0x1E08 PUSH1 0x20 DUP4 ADD DUP5 PUSH2 0x1C88 JUMP JUMPDEST SWAP4 SWAP3 POP POP POP JUMP JUMPDEST PUSH1 0x0 PUSH1 0x20 DUP3 ADD SWAP1 POP PUSH2 0x1E24 PUSH1 0x0 DUP4 ADD DUP5 PUSH2 0x19D0 JUMP JUMPDEST SWAP3 SWAP2 POP POP JUMP JUMPDEST PUSH1 0x0 PUSH1 0x20 DUP3 ADD SWAP1 POP PUSH2 0x1E3F PUSH1 0x0 DUP4 ADD DUP5 PUSH2 0x1A0D JUMP JUMPDEST SWAP3 SWAP2 POP POP JUMP JUMPDEST PUSH1 0x0 PUSH1 0x40 DUP3 ADD SWAP1 POP PUSH2 0x1E5A PUSH1 0x0 DUP4 ADD DUP6 PUSH2 0x1A0D JUMP JUMPDEST DUP2 DUP2 SUB PUSH1 0x20 DUP4 ADD MSTORE PUSH2 0x1E6C DUP2 DUP5 PUSH2 0x1A33 JUMP JUMPDEST SWAP1 POP SWAP4 SWAP3 POP POP POP JUMP JUMPDEST PUSH1 0x0 PUSH1 0x20 DUP3 ADD SWAP1 POP DUP2 DUP2 SUB PUSH1 0x0 DUP4 ADD MSTORE PUSH2 0x1E8F DUP2 DUP5 PUSH2 0x1A9D JUMP JUMPDEST SWAP1 POP SWAP3 SWAP2 POP POP JUMP JUMPDEST PUSH1 0x0 PUSH1 0x20 DUP3 ADD SWAP1 POP DUP2 DUP2 SUB PUSH1 0x0 DUP4 ADD MSTORE PUSH2 0x1EB0 DUP2 PUSH2 0x1B07 JUMP JUMPDEST SWAP1 POP SWAP2 SWAP1 POP JUMP JUMPDEST PUSH1 0x0 PUSH1 0x20 DUP3 ADD SWAP1 POP DUP2 DUP2 SUB PUSH1 0x0 DUP4 ADD MSTORE PUSH2 0x1ED0 DUP2 PUSH2 0x1B2A JUMP JUMPDEST SWAP1 POP SWAP2 SWAP1 POP JUMP JUMPDEST PUSH1 0x0 PUSH1 0x20 DUP3 ADD SWAP1 POP DUP2 DUP2 SUB PUSH1 0x0 DUP4 ADD MSTORE PUSH2 0x1EF0 DUP2 PUSH2 0x1B4D JUMP JUMPDEST SWAP1 POP SWAP2 SWAP1 POP JUMP JUMPDEST PUSH1 0x0 PUSH1 0x20 DUP3 ADD SWAP1 POP DUP2 DUP2 SUB PUSH1 0x0 DUP4 ADD MSTORE PUSH2 0x1F10 DUP2 PUSH2 0x1B70 JUMP JUMPDEST SWAP1 POP SWAP2 SWAP1 POP JUMP JUMPDEST PUSH1 0x0 PUSH1 0x20 DUP3 ADD SWAP1 POP DUP2 DUP2 SUB PUSH1 0x0 DUP4 ADD MSTORE PUSH2 0x1F30 DUP2 PUSH2 0x1B93 JUMP JUMPDEST SWAP1 POP SWAP2 SWAP1 POP JUMP JUMPDEST PUSH1 0x0 PUSH1 0x20 DUP3 ADD SWAP1 POP DUP2 DUP2 SUB PUSH1 0x0 DUP4 ADD MSTORE PUSH2 0x1F50 DUP2 PUSH2 0x1BB6 JUMP JUMPDEST SWAP1 POP SWAP2 SWAP1 POP JUMP JUMPDEST PUSH1 0x0 PUSH1 0x20 DUP3 ADD SWAP1 POP DUP2 DUP2 SUB PUSH1 0x0 DUP4 ADD MSTORE PUSH2 0x1F70 DUP2 PUSH2 0x1BFC JUMP JUMPDEST SWAP1 POP SWAP2 SWAP1 POP JUMP JUMPDEST PUSH1 0x0 PUSH1 0x20 DUP3 ADD SWAP1 POP DUP2 DUP2 SUB PUSH1 0x0 DUP4 ADD MSTORE PUSH2 0x1F90 DUP2 PUSH2 0x1C1F JUMP JUMPDEST SWAP1 POP SWAP2 SWAP1 POP JUMP JUMPDEST PUSH1 0x0 PUSH1 0x20 DUP3 ADD SWAP1 POP DUP2 DUP2 SUB PUSH1 0x0 DUP4 ADD MSTORE PUSH2 0x1FB0 DUP2 PUSH2 0x1C65 JUMP JUMPDEST SWAP1 POP SWAP2 SWAP1 POP JUMP JUMPDEST PUSH1 0x0 PUSH1 0x20 DUP3 ADD SWAP1 POP PUSH2 0x1FCC PUSH1 0x0 DUP4 ADD DUP5 PUSH2 0x1C88 JUMP JUMPDEST SWAP3 SWAP2 POP POP JUMP JUMPDEST PUSH1 0x0 PUSH2 0x1FDC PUSH2 0x1FED JUMP JUMPDEST SWAP1 POP PUSH2 0x1FE8 DUP3 DUP3 PUSH2 0x229C JUMP JUMPDEST SWAP2 SWAP1 POP JUMP JUMPDEST PUSH1 0x0 PUSH1 0x40 MLOAD SWAP1 POP SWAP1 JUMP JUMPDEST PUSH1 0x0 PUSH8 0xFFFFFFFFFFFFFFFF DUP3 GT ISZERO PUSH2 0x2012 JUMPI PUSH2 0x2011 PUSH2 0x2363 JUMP JUMPDEST JUMPDEST PUSH2 0x201B DUP3 PUSH2 0x2392 JUMP JUMPDEST SWAP1 POP PUSH1 0x20 DUP2 ADD SWAP1 POP SWAP2 SWAP1 POP JUMP JUMPDEST PUSH1 0x0 DUP2 MLOAD SWAP1 POP SWAP2 SWAP1 POP JUMP JUMPDEST PUSH1 0x0 DUP2 MLOAD SWAP1 POP SWAP2 SWAP1 POP JUMP JUMPDEST PUSH1 0x0 DUP3 DUP3 MSTORE PUSH1 0x20 DUP3 ADD SWAP1 POP SWAP3 SWAP2 POP POP JUMP JUMPDEST PUSH1 0x0 DUP2 SWAP1 POP SWAP3 SWAP2 POP POP JUMP JUMPDEST PUSH1 0x0 DUP3 DUP3 MSTORE PUSH1 0x20 DUP3 ADD SWAP1 POP SWAP3 SWAP2 POP POP JUMP JUMPDEST PUSH1 0x0 DUP2 SWAP1 POP SWAP3 SWAP2 POP POP JUMP JUMPDEST PUSH1 0x0 PUSH2 0x2081 DUP3 PUSH2 0x2226 JUMP JUMPDEST SWAP2 POP PUSH2 0x208C DUP4 PUSH2 0x2226 JUMP JUMPDEST SWAP3 POP DUP3 PUSH32 0xFFFFFFFFFFFFFFFFFFFFFFFFFFFFFFFFFFFFFFFFFFFFFFFFFFFFFFFFFFFFFFFF SUB DUP3 GT ISZERO PUSH2 0x20C1 JUMPI PUSH2 0x20C0 PUSH2 0x2334 JUMP JUMPDEST JUMPDEST DUP3 DUP3 ADD SWAP1 POP SWAP3 SWAP2 POP POP JUMP JUMPDEST PUSH1 0x0 PUSH2 0x20D7 DUP3 PUSH2 0x2226 JUMP JUMPDEST SWAP2 POP PUSH2 0x20E2 DUP4 PUSH2 0x2226 JUMP JUMPDEST SWAP3 POP DUP2 PUSH32 0xFFFFFFFFFFFFFFFFFFFFFFFFFFFFFFFFFFFFFFFFFFFFFFFFFFFFFFFFFFFFFFFF DIV DUP4 GT DUP3 ISZERO ISZERO AND ISZERO PUSH2 0x211B JUMPI PUSH2 0x211A PUSH2 0x2334 JUMP JUMPDEST JUMPDEST DUP3 DUP3 MUL SWAP1 POP SWAP3 SWAP2 POP POP JUMP JUMPDEST PUSH1 0x0 PUSH2 0x2131 DUP3 PUSH2 0x2226 JUMP JUMPDEST SWAP2 POP PUSH2 0x213C DUP4 PUSH2 0x2226 JUMP JUMPDEST SWAP3 POP DUP3 DUP3 LT ISZERO PUSH2 0x214F JUMPI PUSH2 0x214E PUSH2 0x2334 JUMP JUMPDEST JUMPDEST DUP3 DUP3 SUB SWAP1 POP SWAP3 SWAP2 POP POP JUMP JUMPDEST PUSH1 0x0 PUSH2 0x2165 DUP3 PUSH2 0x2206 JUMP JUMPDEST SWAP1 POP SWAP2 SWAP1 POP JUMP JUMPDEST PUSH1 0x0 DUP2 ISZERO ISZERO SWAP1 POP SWAP2 SWAP1 POP JUMP JUMPDEST PUSH1 0x0 PUSH32 0xFF00000000000000000000000000000000000000000000000000000000000000 DUP3 AND SWAP1 POP SWAP2 SWAP1 POP JUMP JUMPDEST PUSH1 0x0 PUSH32 0xFFFFFFFFFFFFFFFFFFFFFFFFFFFFFFFFFFFFFFFF000000000000000000000000 DUP3 AND SWAP1 POP SWAP2 SWAP1 POP JUMP JUMPDEST PUSH1 0x0 DUP2 SWAP1 POP SWAP2 SWAP1 POP JUMP JUMPDEST PUSH1 0x0 PUSH32 0xFFFFFFFF00000000000000000000000000000000000000000000000000000000 DUP3 AND SWAP1 POP SWAP2 SWAP1 POP JUMP JUMPDEST PUSH1 0x0 PUSH20 0xFFFFFFFFFFFFFFFFFFFFFFFFFFFFFFFFFFFFFFFF DUP3 AND SWAP1 POP SWAP2 SWAP1 POP JUMP JUMPDEST PUSH1 0x0 DUP2 SWAP1 POP SWAP2 SWAP1 POP JUMP JUMPDEST DUP3 DUP2 DUP4 CALLDATACOPY PUSH1 0x0 DUP4 DUP4 ADD MSTORE POP POP POP JUMP JUMPDEST PUSH1 0x0 JUMPDEST DUP4 DUP2 LT ISZERO PUSH2 0x225D JUMPI DUP1 DUP3 ADD MLOAD DUP2 DUP5 ADD MSTORE PUSH1 0x20 DUP2 ADD SWAP1 POP PUSH2 0x2242 JUMP JUMPDEST DUP4 DUP2 GT ISZERO PUSH2 0x226C JUMPI PUSH1 0x0 DUP5 DUP5 ADD MSTORE JUMPDEST POP POP POP POP JUMP JUMPDEST PUSH1 0x0 PUSH2 0x227D DUP3 PUSH2 0x2226 JUMP JUMPDEST SWAP2 POP PUSH1 0x0 DUP3 EQ ISZERO PUSH2 0x2291 JUMPI PUSH2 0x2290 PUSH2 0x2334 JUMP JUMPDEST JUMPDEST PUSH1 0x1 DUP3 SUB SWAP1 POP SWAP2 SWAP1 POP JUMP JUMPDEST PUSH2 0x22A5 DUP3 PUSH2 0x2392 JUMP JUMPDEST DUP2 ADD DUP2 DUP2 LT PUSH8 0xFFFFFFFFFFFFFFFF DUP3 GT OR ISZERO PUSH2 0x22C4 JUMPI PUSH2 0x22C3 PUSH2 0x2363 JUMP JUMPDEST JUMPDEST DUP1 PUSH1 0x40 MSTORE POP POP POP JUMP JUMPDEST PUSH1 0x0 PUSH2 0x22D8 DUP3 PUSH2 0x2226 JUMP JUMPDEST SWAP2 POP PUSH32 0xFFFFFFFFFFFFFFFFFFFFFFFFFFFFFFFFFFFFFFFFFFFFFFFFFFFFFFFFFFFFFFFF DUP3 EQ ISZERO PUSH2 0x230B JUMPI PUSH2 0x230A PUSH2 0x2334 JUMP JUMPDEST JUMPDEST PUSH1 0x1 DUP3 ADD SWAP1 POP SWAP2 SWAP1 POP JUMP JUMPDEST PUSH1 0x0 DUP2 SWAP1 POP SWAP2 SWAP1 POP JUMP JUMPDEST PUSH1 0x0 DUP2 SWAP1 POP SWAP2 SWAP1 POP JUMP JUMPDEST PUSH1 0x0 DUP2 SWAP1 POP SWAP2 SWAP1 POP JUMP JUMPDEST PUSH32 0x4E487B7100000000000000000000000000000000000000000000000000000000 PUSH1 0x0 MSTORE PUSH1 0x11 PUSH1 0x4 MSTORE PUSH1 0x24 PUSH1 0x0 REVERT JUMPDEST PUSH32 0x4E487B7100000000000000000000000000000000000000000000000000000000 PUSH1 0x0 MSTORE PUSH1 0x41 PUSH1 0x4 MSTORE PUSH1 0x24 PUSH1 0x0 REVERT JUMPDEST PUSH1 0x0 PUSH1 0x1F NOT PUSH1 0x1F DUP4 ADD AND SWAP1 POP SWAP2 SWAP1 POP JUMP JUMPDEST PUSH32 0x537472696E67733A20686578206C656E67746820696E73756666696369656E74 PUSH1 0x0 DUP3 ADD MSTORE POP JUMP JUMPDEST PUSH32 0x5061757361626C653A206E6F7420706175736564000000000000000000000000 PUSH1 0x0 DUP3 ADD MSTORE POP JUMP JUMPDEST PUSH32 0x46696E61537761703A636C61696D20496E76616C6964207369676E6174757265 PUSH1 0x0 DUP3 ADD MSTORE PUSH32 0x206C656E6774682E20546865207369676E6174757265206D7573742062652065 PUSH1 0x20 DUP3 ADD MSTORE PUSH32 0x786163746C792036352062797465730000000000000000000000000000000000 PUSH1 0x40 DUP3 ADD MSTORE POP JUMP JUMPDEST PUSH32 0x5061757361626C653A2070617573656400000000000000000000000000000000 PUSH1 0x0 DUP3 ADD MSTORE POP JUMP JUMPDEST PUSH32 0x46696E61537761703A636C61696D20496E76616C6964207369676E6174757265 PUSH1 0x0 DUP3 ADD MSTORE PUSH32 0x2E20546865207265636F7665726564207075626C6963206B6579206D75737420 PUSH1 0x20 DUP3 ADD MSTORE PUSH32 0x62652065786163746C7920333320627974657300000000000000000000000000 PUSH1 0x40 DUP3 ADD MSTORE POP JUMP JUMPDEST PUSH32 0x46696E61537761703A636C61696D205461726765742061646472657373206361 PUSH1 0x0 DUP3 ADD MSTORE PUSH32 0x6E6E6F74206265207A65726F0000000000000000000000000000000000000000 PUSH1 0x20 DUP3 ADD MSTORE POP JUMP JUMPDEST PUSH32 0x416363657373436F6E74726F6C3A206163636F756E7420000000000000000000 PUSH1 0x0 DUP3 ADD MSTORE POP JUMP JUMPDEST PUSH32 0x46696E61537761703A636C61696D20616C726561647920737761707065640000 PUSH1 0x0 DUP3 ADD MSTORE POP JUMP JUMPDEST PUSH32 0x46696E61537761703A636C61696D205369676E61747572652068617368206973 PUSH1 0x0 DUP3 ADD MSTORE PUSH32 0x2072657175697265640000000000000000000000000000000000000000000000 PUSH1 0x20 DUP3 ADD MSTORE POP JUMP JUMPDEST PUSH32 0x206973206D697373696E6720726F6C6520000000000000000000000000000000 PUSH1 0x0 DUP3 ADD MSTORE POP JUMP JUMPDEST PUSH32 0x416363657373436F6E74726F6C3A2063616E206F6E6C792072656E6F756E6365 PUSH1 0x0 DUP3 ADD MSTORE PUSH32 0x20726F6C657320666F722073656C660000000000000000000000000000000000 PUSH1 0x20 DUP3 ADD MSTORE POP JUMP JUMPDEST PUSH2 0x2679 DUP2 PUSH2 0x215A JUMP JUMPDEST DUP2 EQ PUSH2 0x2684 JUMPI PUSH1 0x0 DUP1 REVERT JUMPDEST POP JUMP JUMPDEST PUSH2 0x2690 DUP2 PUSH2 0x21D0 JUMP JUMPDEST DUP2 EQ PUSH2 0x269B JUMPI PUSH1 0x0 DUP1 REVERT JUMPDEST POP JUMP JUMPDEST PUSH2 0x26A7 DUP2 PUSH2 0x21DA JUMP JUMPDEST DUP2 EQ PUSH2 0x26B2 JUMPI PUSH1 0x0 DUP1 REVERT JUMPDEST POP JUMP JUMPDEST PUSH2 0x26BE DUP2 PUSH2 0x2226 JUMP JUMPDEST DUP2 EQ PUSH2 0x26C9 JUMPI PUSH1 0x0 DUP1 REVERT JUMPDEST POP JUMP INVALID LOG2 PUSH5 0x6970667358 0x22 SLT KECCAK256 NUMBER 0x26 0xE7 0xE4 LOG0 0xFC DUP15 0xB3 0xD8 0xAE 0xE9 0xCB REVERT PC 0xA5 0xBD 0xEC 0xAF 0xD1 PUSH26 0xEEE5AF74E367F62FC1CF090064736F6C63430008040033000000 "
				},
				"gasEstimates": {
					"creation": {
						"codeDepositCost": "1997200",
						"executionCost": "infinite",
						"totalCost": "infinite"
					},
					"external": {
						"ADMIN_ROLE()": "352",
						"DEFAULT_ADMIN_ROLE()": "357",
						"PAUSER_ROLE()": "439",
						"addBalance(bytes,uint256)": "infinite",
						"addSwappedBalance(uint256)": "infinite",
						"balanceOf(bytes)": "infinite",
						"claim(address,bytes32,bytes)": "infinite",
						"getRoleAdmin(bytes32)": "infinite",
						"getSwappedBalance()": "1248",
						"grantRole(bytes32,address)": "infinite",
						"hasRole(bytes32,address)": "1929",
						"pause()": "infinite",
						"paused()": "1268",
						"removeBalance(bytes)": "infinite",
						"removeSwappedBalance(uint256)": "infinite",
						"renounceRole(bytes32,address)": "infinite",
						"revokeRole(bytes32,address)": "infinite",
						"supportsInterface(bytes4)": "773",
						"unpause()": "infinite"
					}
				},
				"methodIdentifiers": {
					"ADMIN_ROLE()": "75b238fc",
					"DEFAULT_ADMIN_ROLE()": "a217fddf",
					"PAUSER_ROLE()": "e63ab1e9",
					"addBalance(bytes,uint256)": "c71c6490",
					"addSwappedBalance(uint256)": "0112f541",
					"balanceOf(bytes)": "78415365",
					"claim(address,bytes32,bytes)": "736c76ee",
					"getRoleAdmin(bytes32)": "248a9ca3",
					"getSwappedBalance()": "a0d5680f",
					"grantRole(bytes32,address)": "2f2ff15d",
					"hasRole(bytes32,address)": "91d14854",
					"pause()": "8456cb59",
					"paused()": "5c975abb",
					"removeBalance(bytes)": "3636f669",
					"removeSwappedBalance(uint256)": "c6afe01e",
					"renounceRole(bytes32,address)": "36568abe",
					"revokeRole(bytes32,address)": "d547741f",
					"supportsInterface(bytes4)": "01ffc9a7",
					"unpause()": "3f4ba83a"
				}
			},
			"userdoc": {
				"kind": "user",
				"methods": {},
				"version": 1
			}
		}
	}
}