{
	"contracts/FinaSwap.sol": {
		"FinaSwap": {
			"abi": [
				{
					"inputs": [
						{
							"internalType": "address",
							"name": "ecdsa",
							"type": "address"
						},
						{
							"internalType": "address",
							"name": "token",
							"type": "address"
						},
						{
							"internalType": "bytes1",
							"name": "prefix",
							"type": "bytes1"
						},
						{
							"internalType": "uint256",
							"name": "nativeValue",
							"type": "uint256"
						}
					],
					"stateMutability": "nonpayable",
					"type": "constructor"
				},
				{
					"anonymous": false,
					"inputs": [
						{
							"indexed": false,
							"internalType": "address",
							"name": "account",
							"type": "address"
						}
					],
					"name": "Paused",
					"type": "event"
				},
				{
					"anonymous": false,
					"inputs": [
						{
							"indexed": true,
							"internalType": "bytes32",
							"name": "role",
							"type": "bytes32"
						},
						{
							"indexed": true,
							"internalType": "bytes32",
							"name": "previousAdminRole",
							"type": "bytes32"
						},
						{
							"indexed": true,
							"internalType": "bytes32",
							"name": "newAdminRole",
							"type": "bytes32"
						}
					],
					"name": "RoleAdminChanged",
					"type": "event"
				},
				{
					"anonymous": false,
					"inputs": [
						{
							"indexed": true,
							"internalType": "bytes32",
							"name": "role",
							"type": "bytes32"
						},
						{
							"indexed": true,
							"internalType": "address",
							"name": "account",
							"type": "address"
						},
						{
							"indexed": true,
							"internalType": "address",
							"name": "sender",
							"type": "address"
						}
					],
					"name": "RoleGranted",
					"type": "event"
				},
				{
					"anonymous": false,
					"inputs": [
						{
							"indexed": true,
							"internalType": "bytes32",
							"name": "role",
							"type": "bytes32"
						},
						{
							"indexed": true,
							"internalType": "address",
							"name": "account",
							"type": "address"
						},
						{
							"indexed": true,
							"internalType": "address",
							"name": "sender",
							"type": "address"
						}
					],
					"name": "RoleRevoked",
					"type": "event"
				},
				{
					"anonymous": false,
					"inputs": [
						{
							"indexed": false,
							"internalType": "address",
							"name": "account",
							"type": "address"
						}
					],
					"name": "Unpaused",
					"type": "event"
				},
				{
					"inputs": [],
					"name": "ADMIN_ROLE",
					"outputs": [
						{
							"internalType": "bytes32",
							"name": "",
							"type": "bytes32"
						}
					],
					"stateMutability": "view",
					"type": "function"
				},
				{
					"inputs": [],
					"name": "DEFAULT_ADMIN_ROLE",
					"outputs": [
						{
							"internalType": "bytes32",
							"name": "",
							"type": "bytes32"
						}
					],
					"stateMutability": "view",
					"type": "function"
				},
				{
					"inputs": [],
					"name": "PAUSER_ROLE",
					"outputs": [
						{
							"internalType": "bytes32",
							"name": "",
							"type": "bytes32"
						}
					],
					"stateMutability": "view",
					"type": "function"
				},
				{
					"inputs": [
						{
							"internalType": "bytes",
							"name": "source",
							"type": "bytes"
						},
						{
							"internalType": "uint256",
							"name": "balance",
							"type": "uint256"
						}
					],
					"name": "addBalance",
					"outputs": [],
					"stateMutability": "nonpayable",
					"type": "function"
				},
				{
					"inputs": [
						{
							"internalType": "uint256",
							"name": "balance",
							"type": "uint256"
						}
					],
					"name": "addSwappedBalance",
					"outputs": [],
					"stateMutability": "nonpayable",
					"type": "function"
				},
				{
					"inputs": [
						{
							"internalType": "bytes",
							"name": "source",
							"type": "bytes"
						}
					],
					"name": "balanceOf",
					"outputs": [
						{
							"internalType": "uint256",
							"name": "",
							"type": "uint256"
						}
					],
					"stateMutability": "view",
					"type": "function"
				},
				{
					"inputs": [
						{
							"internalType": "address",
							"name": "target",
							"type": "address"
						},
						{
							"internalType": "bytes32",
							"name": "hash",
							"type": "bytes32"
						},
						{
							"internalType": "bytes",
							"name": "signature",
							"type": "bytes"
						}
					],
					"name": "claim",
					"outputs": [],
					"stateMutability": "nonpayable",
					"type": "function"
				},
				{
					"inputs": [
						{
							"internalType": "bytes32",
							"name": "role",
							"type": "bytes32"
						}
					],
					"name": "getRoleAdmin",
					"outputs": [
						{
							"internalType": "bytes32",
							"name": "",
							"type": "bytes32"
						}
					],
					"stateMutability": "view",
					"type": "function"
				},
				{
					"inputs": [],
					"name": "getSwappedBalance",
					"outputs": [
						{
							"internalType": "uint256",
							"name": "",
							"type": "uint256"
						}
					],
					"stateMutability": "view",
					"type": "function"
				},
				{
					"inputs": [
						{
							"internalType": "bytes32",
							"name": "role",
							"type": "bytes32"
						},
						{
							"internalType": "address",
							"name": "account",
							"type": "address"
						}
					],
					"name": "grantRole",
					"outputs": [],
					"stateMutability": "nonpayable",
					"type": "function"
				},
				{
					"inputs": [
						{
							"internalType": "bytes32",
							"name": "role",
							"type": "bytes32"
						},
						{
							"internalType": "address",
							"name": "account",
							"type": "address"
						}
					],
					"name": "hasRole",
					"outputs": [
						{
							"internalType": "bool",
							"name": "",
							"type": "bool"
						}
					],
					"stateMutability": "view",
					"type": "function"
				},
				{
					"inputs": [],
					"name": "pause",
					"outputs": [],
					"stateMutability": "nonpayable",
					"type": "function"
				},
				{
					"inputs": [],
					"name": "paused",
					"outputs": [
						{
							"internalType": "bool",
							"name": "",
							"type": "bool"
						}
					],
					"stateMutability": "view",
					"type": "function"
				},
				{
					"inputs": [
						{
							"internalType": "bytes",
							"name": "source",
							"type": "bytes"
						}
					],
					"name": "removeBalance",
					"outputs": [],
					"stateMutability": "nonpayable",
					"type": "function"
				},
				{
					"inputs": [
						{
							"internalType": "uint256",
							"name": "balance",
							"type": "uint256"
						}
					],
					"name": "removeSwappedBalance",
					"outputs": [],
					"stateMutability": "nonpayable",
					"type": "function"
				},
				{
					"inputs": [
						{
							"internalType": "bytes32",
							"name": "role",
							"type": "bytes32"
						},
						{
							"internalType": "address",
							"name": "account",
							"type": "address"
						}
					],
					"name": "renounceRole",
					"outputs": [],
					"stateMutability": "nonpayable",
					"type": "function"
				},
				{
					"inputs": [
						{
							"internalType": "bytes32",
							"name": "role",
							"type": "bytes32"
						},
						{
							"internalType": "address",
							"name": "account",
							"type": "address"
						}
					],
					"name": "revokeRole",
					"outputs": [],
					"stateMutability": "nonpayable",
					"type": "function"
				},
				{
					"inputs": [
						{
							"internalType": "uint256",
							"name": "nativeValue",
							"type": "uint256"
						}
					],
					"name": "setNativeValue",
					"outputs": [],
					"stateMutability": "nonpayable",
					"type": "function"
				},
				{
					"inputs": [
						{
							"internalType": "bytes4",
							"name": "interfaceId",
							"type": "bytes4"
						}
					],
					"name": "supportsInterface",
					"outputs": [
						{
							"internalType": "bool",
							"name": "",
							"type": "bool"
						}
					],
					"stateMutability": "view",
					"type": "function"
				},
				{
					"inputs": [],
					"name": "unpause",
					"outputs": [],
					"stateMutability": "nonpayable",
					"type": "function"
				}
			],
			"devdoc": {
				"kind": "dev",
				"methods": {
					"getRoleAdmin(bytes32)": {
						"details": "Returns the admin role that controls `role`. See {grantRole} and {revokeRole}. To change a role's admin, use {_setRoleAdmin}."
					},
					"grantRole(bytes32,address)": {
						"details": "Grants `role` to `account`. If `account` had not been already granted `role`, emits a {RoleGranted} event. Requirements: - the caller must have ``role``'s admin role."
					},
					"hasRole(bytes32,address)": {
						"details": "Returns `true` if `account` has been granted `role`."
					},
					"paused()": {
						"details": "Returns true if the contract is paused, and false otherwise."
					},
					"renounceRole(bytes32,address)": {
						"details": "Revokes `role` from the calling account. Roles are often managed via {grantRole} and {revokeRole}: this function's purpose is to provide a mechanism for accounts to lose their privileges if they are compromised (such as when a trusted device is misplaced). If the calling account had been revoked `role`, emits a {RoleRevoked} event. Requirements: - the caller must be `account`."
					},
					"revokeRole(bytes32,address)": {
						"details": "Revokes `role` from `account`. If `account` had been granted `role`, emits a {RoleRevoked} event. Requirements: - the caller must have ``role``'s admin role."
					},
					"supportsInterface(bytes4)": {
						"details": "See {IERC165-supportsInterface}."
					}
				},
				"version": 1
			},
			"evm": {
				"assembly": "    /* \"contracts/FinaSwap.sol\":295:4347  contract FinaSwap is Pausable, AccessControl {\r... */\n  mstore(0x40, 0xe0)\n    /* \"contracts/FinaSwap.sol\":739:1061  constructor(address ecdsa, address token, bytes1 prefix, uint256 nativeValue)\r... */\n  callvalue\n  dup1\n  iszero\n  tag_1\n  jumpi\n  0x00\n  dup1\n  revert\ntag_1:\n  pop\n  mload(0x40)\n  sub(codesize, bytecodeSize)\n  dup1\n  bytecodeSize\n  dup4\n  codecopy\n  dup2\n  dup2\n  add\n  0x40\n  mstore\n  dup2\n  add\n  swap1\n  tag_2\n  swap2\n  swap1\n  tag_3\n  jump\t// in\ntag_2:\n    /* \"@openzeppelin/contracts/security/Pausable.sol\":991:996  false */\n  0x00\n    /* \"@openzeppelin/contracts/security/Pausable.sol\":981:988  _paused */\n  dup1\n  0x00\n    /* \"@openzeppelin/contracts/security/Pausable.sol\":981:996  _paused = false */\n  0x0100\n  exp\n  dup2\n  sload\n  dup2\n  0xff\n  mul\n  not\n  and\n  swap1\n  dup4\n  iszero\n  iszero\n  mul\n  or\n  swap1\n  sstore\n  pop\n    /* \"contracts/FinaSwap.sol\":849:854  ecdsa */\n  dup4\n    /* \"contracts/FinaSwap.sol\":833:855  _ecdsa = IECDSA(ecdsa) */\n  0xffffffffffffffffffffffffffffffffffffffff\n  and\n  0x80\n  dup2\n  0xffffffffffffffffffffffffffffffffffffffff\n  and\n  0x60\n  shl\n  dup2\n  mstore\n  pop\n  pop\n    /* \"contracts/FinaSwap.sol\":890:895  token */\n  dup3\n    /* \"contracts/FinaSwap.sol\":866:896  _token = IERC20Mintable(token) */\n  0xffffffffffffffffffffffffffffffffffffffff\n  and\n  0xa0\n  dup2\n  0xffffffffffffffffffffffffffffffffffffffff\n  and\n  0x60\n  shl\n  dup2\n  mstore\n  pop\n  pop\n    /* \"contracts/FinaSwap.sol\":917:923  prefix */\n  dup2\n    /* \"contracts/FinaSwap.sol\":907:923  _prefix = prefix */\n  not(0xffffffffffffffffffffffffffffffffffffffffffffffffffffffffffffff)\n  and\n  0xc0\n  dup2\n  not(0xffffffffffffffffffffffffffffffffffffffffffffffffffffffffffffff)\n  and\n  dup2\n  mstore\n  pop\n  pop\n    /* \"contracts/FinaSwap.sol\":949:960  nativeValue */\n  dup1\n    /* \"contracts/FinaSwap.sol\":934:946  _nativeValue */\n  0x02\n    /* \"contracts/FinaSwap.sol\":934:960  _nativeValue = nativeValue */\n  dup2\n  swap1\n  sstore\n  pop\n    /* \"contracts/FinaSwap.sol\":973:1007  _grantRole(ADMIN_ROLE, msg.sender) */\n  tag_8\n    /* \"contracts/FinaSwap.sol\":384:407  keccak256(\"ADMIN_ROLE\") */\n  0xa49807205ce4d355092ef5a8a18f56e8913cf4a201fbe287825b095693c21775\n    /* \"contracts/FinaSwap.sol\":996:1006  msg.sender */\n  caller\n    /* \"contracts/FinaSwap.sol\":973:983  _grantRole */\n  shl(0x20, tag_9)\n    /* \"contracts/FinaSwap.sol\":973:1007  _grantRole(ADMIN_ROLE, msg.sender) */\n  0x20\n  shr\n  jump\t// in\ntag_8:\n    /* \"contracts/FinaSwap.sol\":1018:1053  _grantRole(PAUSER_ROLE, msg.sender) */\n  tag_10\n    /* \"contracts/FinaSwap.sol\":452:476  keccak256(\"PAUSER_ROLE\") */\n  0x65d7a28e3265b37a6474929f336521b332c1681b933f6cb9f3376673440d862a\n    /* \"contracts/FinaSwap.sol\":1042:1052  msg.sender */\n  caller\n    /* \"contracts/FinaSwap.sol\":1018:1028  _grantRole */\n  shl(0x20, tag_9)\n    /* \"contracts/FinaSwap.sol\":1018:1053  _grantRole(PAUSER_ROLE, msg.sender) */\n  0x20\n  shr\n  jump\t// in\ntag_10:\n    /* \"contracts/FinaSwap.sol\":739:1061  constructor(address ecdsa, address token, bytes1 prefix, uint256 nativeValue)\r... */\n  pop\n  pop\n  pop\n  pop\n    /* \"contracts/FinaSwap.sol\":295:4347  contract FinaSwap is Pausable, AccessControl {\r... */\n  jump(tag_11)\n    /* \"@openzeppelin/contracts/access/AccessControl.sol\":6861:7094  function _grantRole(bytes32 role, address account) internal virtual {... */\ntag_9:\n    /* \"@openzeppelin/contracts/access/AccessControl.sol\":6944:6966  hasRole(role, account) */\n  tag_13\n    /* \"@openzeppelin/contracts/access/AccessControl.sol\":6952:6956  role */\n  dup3\n    /* \"@openzeppelin/contracts/access/AccessControl.sol\":6958:6965  account */\n  dup3\n    /* \"@openzeppelin/contracts/access/AccessControl.sol\":6944:6951  hasRole */\n  shl(0x20, tag_14)\n    /* \"@openzeppelin/contracts/access/AccessControl.sol\":6944:6966  hasRole(role, account) */\n  0x20\n  shr\n  jump\t// in\ntag_13:\n    /* \"@openzeppelin/contracts/access/AccessControl.sol\":6939:7088  if (!hasRole(role, account)) {... */\n  tag_15\n  jumpi\n    /* \"@openzeppelin/contracts/access/AccessControl.sol\":7014:7018  true */\n  0x01\n    /* \"@openzeppelin/contracts/access/AccessControl.sol\":6982:6988  _roles */\n  dup1\n    /* \"@openzeppelin/contracts/access/AccessControl.sol\":6982:6994  _roles[role] */\n  0x00\n    /* \"@openzeppelin/contracts/access/AccessControl.sol\":6989:6993  role */\n  dup5\n    /* \"@openzeppelin/contracts/access/AccessControl.sol\":6982:6994  _roles[role] */\n  dup2\n  mstore\n  0x20\n  add\n  swap1\n  dup2\n  mstore\n  0x20\n  add\n  0x00\n  keccak256\n    /* \"@openzeppelin/contracts/access/AccessControl.sol\":6982:7002  _roles[role].members */\n  0x00\n  add\n    /* \"@openzeppelin/contracts/access/AccessControl.sol\":6982:7011  _roles[role].members[account] */\n  0x00\n    /* \"@openzeppelin/contracts/access/AccessControl.sol\":7003:7010  account */\n  dup4\n    /* \"@openzeppelin/contracts/access/AccessControl.sol\":6982:7011  _roles[role].members[account] */\n  0xffffffffffffffffffffffffffffffffffffffff\n  and\n  0xffffffffffffffffffffffffffffffffffffffff\n  and\n  dup2\n  mstore\n  0x20\n  add\n  swap1\n  dup2\n  mstore\n  0x20\n  add\n  0x00\n  keccak256\n  0x00\n    /* \"@openzeppelin/contracts/access/AccessControl.sol\":6982:7018  _roles[role].members[account] = true */\n  0x0100\n  exp\n  dup2\n  sload\n  dup2\n  0xff\n  mul\n  not\n  and\n  swap1\n  dup4\n  iszero\n  iszero\n  mul\n  or\n  swap1\n  sstore\n  pop\n    /* \"@openzeppelin/contracts/access/AccessControl.sol\":7064:7076  _msgSender() */\n  tag_16\n    /* \"@openzeppelin/contracts/access/AccessControl.sol\":7064:7074  _msgSender */\n  shl(0x20, tag_17)\n    /* \"@openzeppelin/contracts/access/AccessControl.sol\":7064:7076  _msgSender() */\n  0x20\n  shr\n  jump\t// in\ntag_16:\n    /* \"@openzeppelin/contracts/access/AccessControl.sol\":7037:7077  RoleGranted(role, account, _msgSender()) */\n  0xffffffffffffffffffffffffffffffffffffffff\n  and\n    /* \"@openzeppelin/contracts/access/AccessControl.sol\":7055:7062  account */\n  dup2\n    /* \"@openzeppelin/contracts/access/AccessControl.sol\":7037:7077  RoleGranted(role, account, _msgSender()) */\n  0xffffffffffffffffffffffffffffffffffffffff\n  and\n    /* \"@openzeppelin/contracts/access/AccessControl.sol\":7049:7053  role */\n  dup4\n    /* \"@openzeppelin/contracts/access/AccessControl.sol\":7037:7077  RoleGranted(role, account, _msgSender()) */\n  0x2f8788117e7eff1d82e926ec794901d17c78024a50270940304540a733656f0d\n  mload(0x40)\n  mload(0x40)\n  dup1\n  swap2\n  sub\n  swap1\n  log4\n    /* \"@openzeppelin/contracts/access/AccessControl.sol\":6939:7088  if (!hasRole(role, account)) {... */\ntag_15:\n    /* \"@openzeppelin/contracts/access/AccessControl.sol\":6861:7094  function _grantRole(bytes32 role, address account) internal virtual {... */\n  pop\n  pop\n  jump\t// out\n    /* \"@openzeppelin/contracts/access/AccessControl.sol\":2909:3054  function hasRole(bytes32 role, address account) public view virtual override returns (bool) {... */\ntag_14:\n    /* \"@openzeppelin/contracts/access/AccessControl.sol\":2995:2999  bool */\n  0x00\n    /* \"@openzeppelin/contracts/access/AccessControl.sol\":3018:3024  _roles */\n  0x01\n    /* \"@openzeppelin/contracts/access/AccessControl.sol\":3018:3030  _roles[role] */\n  0x00\n    /* \"@openzeppelin/contracts/access/AccessControl.sol\":3025:3029  role */\n  dup5\n    /* \"@openzeppelin/contracts/access/AccessControl.sol\":3018:3030  _roles[role] */\n  dup2\n  mstore\n  0x20\n  add\n  swap1\n  dup2\n  mstore\n  0x20\n  add\n  0x00\n  keccak256\n    /* \"@openzeppelin/contracts/access/AccessControl.sol\":3018:3038  _roles[role].members */\n  0x00\n  add\n    /* \"@openzeppelin/contracts/access/AccessControl.sol\":3018:3047  _roles[role].members[account] */\n  0x00\n    /* \"@openzeppelin/contracts/access/AccessControl.sol\":3039:3046  account */\n  dup4\n    /* \"@openzeppelin/contracts/access/AccessControl.sol\":3018:3047  _roles[role].members[account] */\n  0xffffffffffffffffffffffffffffffffffffffff\n  and\n  0xffffffffffffffffffffffffffffffffffffffff\n  and\n  dup2\n  mstore\n  0x20\n  add\n  swap1\n  dup2\n  mstore\n  0x20\n  add\n  0x00\n  keccak256\n  0x00\n  swap1\n  sload\n  swap1\n  0x0100\n  exp\n  swap1\n  div\n  0xff\n  and\n    /* \"@openzeppelin/contracts/access/AccessControl.sol\":3011:3047  return _roles[role].members[account] */\n  swap1\n  pop\n    /* \"@openzeppelin/contracts/access/AccessControl.sol\":2909:3054  function hasRole(bytes32 role, address account) public view virtual override returns (bool) {... */\n  swap3\n  swap2\n  pop\n  pop\n  jump\t// out\n    /* \"@openzeppelin/contracts/utils/Context.sol\":640:736  function _msgSender() internal view virtual returns (address) {... */\ntag_17:\n    /* \"@openzeppelin/contracts/utils/Context.sol\":693:700  address */\n  0x00\n    /* \"@openzeppelin/contracts/utils/Context.sol\":719:729  msg.sender */\n  caller\n    /* \"@openzeppelin/contracts/utils/Context.sol\":712:729  return msg.sender */\n  swap1\n  pop\n    /* \"@openzeppelin/contracts/utils/Context.sol\":640:736  function _msgSender() internal view virtual returns (address) {... */\n  swap1\n  jump\t// out\n    /* \"#utility.yul\":7:150   */\ntag_21:\n    /* \"#utility.yul\":64:69   */\n  0x00\n    /* \"#utility.yul\":95:101   */\n  dup2\n    /* \"#utility.yul\":89:102   */\n  mload\n    /* \"#utility.yul\":80:102   */\n  swap1\n  pop\n    /* \"#utility.yul\":111:144   */\n  tag_23\n    /* \"#utility.yul\":138:143   */\n  dup2\n    /* \"#utility.yul\":111:144   */\n  tag_24\n  jump\t// in\ntag_23:\n    /* \"#utility.yul\":70:150   */\n  swap3\n  swap2\n  pop\n  pop\n  jump\t// out\n    /* \"#utility.yul\":156:297   */\ntag_25:\n    /* \"#utility.yul\":212:217   */\n  0x00\n    /* \"#utility.yul\":243:249   */\n  dup2\n    /* \"#utility.yul\":237:250   */\n  mload\n    /* \"#utility.yul\":228:250   */\n  swap1\n  pop\n    /* \"#utility.yul\":259:291   */\n  tag_27\n    /* \"#utility.yul\":285:290   */\n  dup2\n    /* \"#utility.yul\":259:291   */\n  tag_28\n  jump\t// in\ntag_27:\n    /* \"#utility.yul\":218:297   */\n  swap3\n  swap2\n  pop\n  pop\n  jump\t// out\n    /* \"#utility.yul\":303:446   */\ntag_29:\n    /* \"#utility.yul\":360:365   */\n  0x00\n    /* \"#utility.yul\":391:397   */\n  dup2\n    /* \"#utility.yul\":385:398   */\n  mload\n    /* \"#utility.yul\":376:398   */\n  swap1\n  pop\n    /* \"#utility.yul\":407:440   */\n  tag_31\n    /* \"#utility.yul\":434:439   */\n  dup2\n    /* \"#utility.yul\":407:440   */\n  tag_32\n  jump\t// in\ntag_31:\n    /* \"#utility.yul\":366:446   */\n  swap3\n  swap2\n  pop\n  pop\n  jump\t// out\n    /* \"#utility.yul\":452:1203   */\ntag_3:\n    /* \"#utility.yul\":548:554   */\n  0x00\n    /* \"#utility.yul\":556:562   */\n  dup1\n    /* \"#utility.yul\":564:570   */\n  0x00\n    /* \"#utility.yul\":572:578   */\n  dup1\n    /* \"#utility.yul\":621:624   */\n  0x80\n    /* \"#utility.yul\":609:618   */\n  dup6\n    /* \"#utility.yul\":600:607   */\n  dup8\n    /* \"#utility.yul\":596:619   */\n  sub\n    /* \"#utility.yul\":592:625   */\n  slt\n    /* \"#utility.yul\":589:591   */\n  iszero\n  tag_34\n  jumpi\n    /* \"#utility.yul\":638:639   */\n  0x00\n    /* \"#utility.yul\":635:636   */\n  dup1\n    /* \"#utility.yul\":628:640   */\n  revert\n    /* \"#utility.yul\":589:591   */\ntag_34:\n    /* \"#utility.yul\":681:682   */\n  0x00\n    /* \"#utility.yul\":706:770   */\n  tag_35\n    /* \"#utility.yul\":762:769   */\n  dup8\n    /* \"#utility.yul\":753:759   */\n  dup3\n    /* \"#utility.yul\":742:751   */\n  dup9\n    /* \"#utility.yul\":738:760   */\n  add\n    /* \"#utility.yul\":706:770   */\n  tag_21\n  jump\t// in\ntag_35:\n    /* \"#utility.yul\":696:770   */\n  swap5\n  pop\n    /* \"#utility.yul\":652:780   */\n  pop\n    /* \"#utility.yul\":819:821   */\n  0x20\n    /* \"#utility.yul\":845:909   */\n  tag_36\n    /* \"#utility.yul\":901:908   */\n  dup8\n    /* \"#utility.yul\":892:898   */\n  dup3\n    /* \"#utility.yul\":881:890   */\n  dup9\n    /* \"#utility.yul\":877:899   */\n  add\n    /* \"#utility.yul\":845:909   */\n  tag_21\n  jump\t// in\ntag_36:\n    /* \"#utility.yul\":835:909   */\n  swap4\n  pop\n    /* \"#utility.yul\":790:919   */\n  pop\n    /* \"#utility.yul\":958:960   */\n  0x40\n    /* \"#utility.yul\":984:1047   */\n  tag_37\n    /* \"#utility.yul\":1039:1046   */\n  dup8\n    /* \"#utility.yul\":1030:1036   */\n  dup3\n    /* \"#utility.yul\":1019:1028   */\n  dup9\n    /* \"#utility.yul\":1015:1037   */\n  add\n    /* \"#utility.yul\":984:1047   */\n  tag_25\n  jump\t// in\ntag_37:\n    /* \"#utility.yul\":974:1047   */\n  swap3\n  pop\n    /* \"#utility.yul\":929:1057   */\n  pop\n    /* \"#utility.yul\":1096:1098   */\n  0x60\n    /* \"#utility.yul\":1122:1186   */\n  tag_38\n    /* \"#utility.yul\":1178:1185   */\n  dup8\n    /* \"#utility.yul\":1169:1175   */\n  dup3\n    /* \"#utility.yul\":1158:1167   */\n  dup9\n    /* \"#utility.yul\":1154:1176   */\n  add\n    /* \"#utility.yul\":1122:1186   */\n  tag_29\n  jump\t// in\ntag_38:\n    /* \"#utility.yul\":1112:1186   */\n  swap2\n  pop\n    /* \"#utility.yul\":1067:1196   */\n  pop\n    /* \"#utility.yul\":579:1203   */\n  swap3\n  swap6\n  swap2\n  swap5\n  pop\n  swap3\n  pop\n  jump\t// out\n    /* \"#utility.yul\":1209:1305   */\ntag_39:\n    /* \"#utility.yul\":1246:1253   */\n  0x00\n    /* \"#utility.yul\":1275:1299   */\n  tag_41\n    /* \"#utility.yul\":1293:1298   */\n  dup3\n    /* \"#utility.yul\":1275:1299   */\n  tag_42\n  jump\t// in\ntag_41:\n    /* \"#utility.yul\":1264:1299   */\n  swap1\n  pop\n    /* \"#utility.yul\":1254:1305   */\n  swap2\n  swap1\n  pop\n  jump\t// out\n    /* \"#utility.yul\":1311:1460   */\ntag_43:\n    /* \"#utility.yul\":1347:1354   */\n  0x00\n    /* \"#utility.yul\":1387:1453   */\n  0xff00000000000000000000000000000000000000000000000000000000000000\n    /* \"#utility.yul\":1380:1385   */\n  dup3\n    /* \"#utility.yul\":1376:1454   */\n  and\n    /* \"#utility.yul\":1365:1454   */\n  swap1\n  pop\n    /* \"#utility.yul\":1355:1460   */\n  swap2\n  swap1\n  pop\n  jump\t// out\n    /* \"#utility.yul\":1466:1592   */\ntag_42:\n    /* \"#utility.yul\":1503:1510   */\n  0x00\n    /* \"#utility.yul\":1543:1585   */\n  0xffffffffffffffffffffffffffffffffffffffff\n    /* \"#utility.yul\":1536:1541   */\n  dup3\n    /* \"#utility.yul\":1532:1586   */\n  and\n    /* \"#utility.yul\":1521:1586   */\n  swap1\n  pop\n    /* \"#utility.yul\":1511:1592   */\n  swap2\n  swap1\n  pop\n  jump\t// out\n    /* \"#utility.yul\":1598:1675   */\ntag_46:\n    /* \"#utility.yul\":1635:1642   */\n  0x00\n    /* \"#utility.yul\":1664:1669   */\n  dup2\n    /* \"#utility.yul\":1653:1669   */\n  swap1\n  pop\n    /* \"#utility.yul\":1643:1675   */\n  swap2\n  swap1\n  pop\n  jump\t// out\n    /* \"#utility.yul\":1681:1803   */\ntag_24:\n    /* \"#utility.yul\":1754:1778   */\n  tag_49\n    /* \"#utility.yul\":1772:1777   */\n  dup2\n    /* \"#utility.yul\":1754:1778   */\n  tag_39\n  jump\t// in\ntag_49:\n    /* \"#utility.yul\":1747:1752   */\n  dup2\n    /* \"#utility.yul\":1744:1779   */\n  eq\n    /* \"#utility.yul\":1734:1736   */\n  tag_50\n  jumpi\n    /* \"#utility.yul\":1793:1794   */\n  0x00\n    /* \"#utility.yul\":1790:1791   */\n  dup1\n    /* \"#utility.yul\":1783:1795   */\n  revert\n    /* \"#utility.yul\":1734:1736   */\ntag_50:\n    /* \"#utility.yul\":1724:1803   */\n  pop\n  jump\t// out\n    /* \"#utility.yul\":1809:1929   */\ntag_28:\n    /* \"#utility.yul\":1881:1904   */\n  tag_52\n    /* \"#utility.yul\":1898:1903   */\n  dup2\n    /* \"#utility.yul\":1881:1904   */\n  tag_43\n  jump\t// in\ntag_52:\n    /* \"#utility.yul\":1874:1879   */\n  dup2\n    /* \"#utility.yul\":1871:1905   */\n  eq\n    /* \"#utility.yul\":1861:1863   */\n  tag_53\n  jumpi\n    /* \"#utility.yul\":1919:1920   */\n  0x00\n    /* \"#utility.yul\":1916:1917   */\n  dup1\n    /* \"#utility.yul\":1909:1921   */\n  revert\n    /* \"#utility.yul\":1861:1863   */\ntag_53:\n    /* \"#utility.yul\":1851:1929   */\n  pop\n  jump\t// out\n    /* \"#utility.yul\":1935:2057   */\ntag_32:\n    /* \"#utility.yul\":2008:2032   */\n  tag_55\n    /* \"#utility.yul\":2026:2031   */\n  dup2\n    /* \"#utility.yul\":2008:2032   */\n  tag_46\n  jump\t// in\ntag_55:\n    /* \"#utility.yul\":2001:2006   */\n  dup2\n    /* \"#utility.yul\":1998:2033   */\n  eq\n    /* \"#utility.yul\":1988:1990   */\n  tag_56\n  jumpi\n    /* \"#utility.yul\":2047:2048   */\n  0x00\n    /* \"#utility.yul\":2044:2045   */\n  dup1\n    /* \"#utility.yul\":2037:2049   */\n  revert\n    /* \"#utility.yul\":1988:1990   */\ntag_56:\n    /* \"#utility.yul\":1978:2057   */\n  pop\n  jump\t// out\n    /* \"contracts/FinaSwap.sol\":295:4347  contract FinaSwap is Pausable, AccessControl {\r... */\ntag_11:\n  shr(0x60, mload(0x80))\n  shr(0x60, mload(0xa0))\n  shl(0xf8, shr(0xf8, mload(0xc0)))\n  codecopy(0x00, dataOffset(sub_0), dataSize(sub_0))\n  0x00\n  assignImmutable(\"0x9b0d5a2681b52b4560ba0a55dc00d44d52ed130b12e9b1ecacbe9f4e75788d40\")\n  0x00\n  assignImmutable(\"0xb0c7bc42bdbc6fc210fecd6a5f5b923061cceb0f8ca5c7d964d5c22fc0e4b0b6\")\n  0x00\n  assignImmutable(\"0x8aa1c539d88d2917ab61113c1a4fcdb5d84bdff1b85c257152c86b49e7f24537\")\n  return(0x00, dataSize(sub_0))\nstop\n\nsub_0: assembly {\n        /* \"contracts/FinaSwap.sol\":295:4347  contract FinaSwap is Pausable, AccessControl {\r... */\n      mstore(0x40, 0x80)\n      callvalue\n      dup1\n      iszero\n      tag_1\n      jumpi\n      0x00\n      dup1\n      revert\n    tag_1:\n      pop\n      jumpi(tag_2, lt(calldatasize, 0x04))\n      shr(0xe0, calldataload(0x00))\n      dup1\n      0x75b238fc\n      gt\n      tag_23\n      jumpi\n      dup1\n      0xa217fddf\n      gt\n      tag_24\n      jumpi\n      dup1\n      0xa217fddf\n      eq\n      tag_18\n      jumpi\n      dup1\n      0xc6afe01e\n      eq\n      tag_19\n      jumpi\n      dup1\n      0xc71c6490\n      eq\n      tag_20\n      jumpi\n      dup1\n      0xd547741f\n      eq\n      tag_21\n      jumpi\n      dup1\n      0xe63ab1e9\n      eq\n      tag_22\n      jumpi\n      jump(tag_2)\n    tag_24:\n      dup1\n      0x75b238fc\n      eq\n      tag_13\n      jumpi\n      dup1\n      0x78415365\n      eq\n      tag_14\n      jumpi\n      dup1\n      0x8456cb59\n      eq\n      tag_15\n      jumpi\n      dup1\n      0x91d14854\n      eq\n      tag_16\n      jumpi\n      dup1\n      0xa0d5680f\n      eq\n      tag_17\n      jumpi\n      jump(tag_2)\n    tag_23:\n      dup1\n      0x36568abe\n      gt\n      tag_25\n      jumpi\n      dup1\n      0x36568abe\n      eq\n      tag_8\n      jumpi\n      dup1\n      0x3f4ba83a\n      eq\n      tag_9\n      jumpi\n      dup1\n      0x5b06a1d5\n      eq\n      tag_10\n      jumpi\n      dup1\n      0x5c975abb\n      eq\n      tag_11\n      jumpi\n      dup1\n      0x736c76ee\n      eq\n      tag_12\n      jumpi\n      jump(tag_2)\n    tag_25:\n      dup1\n      0x0112f541\n      eq\n      tag_3\n      jumpi\n      dup1\n      0x01ffc9a7\n      eq\n      tag_4\n      jumpi\n      dup1\n      0x248a9ca3\n      eq\n      tag_5\n      jumpi\n      dup1\n      0x2f2ff15d\n      eq\n      tag_6\n      jumpi\n      dup1\n      0x3636f669\n      eq\n      tag_7\n      jumpi\n    tag_2:\n      0x00\n      dup1\n      revert\n        /* \"contracts/FinaSwap.sol\":3907:4029  function addSwappedBalance(uint256 balance) public onlyRole(ADMIN_ROLE)\r... */\n    tag_3:\n      tag_26\n      0x04\n      dup1\n      calldatasize\n      sub\n      dup2\n      add\n      swap1\n      tag_27\n      swap2\n      swap1\n      tag_28\n      jump\t// in\n    tag_27:\n      tag_29\n      jump\t// in\n    tag_26:\n      stop\n        /* \"@openzeppelin/contracts/access/AccessControl.sol\":2620:2822  function supportsInterface(bytes4 interfaceId) public view virtual override returns (bool) {... */\n    tag_4:\n      tag_30\n      0x04\n      dup1\n      calldatasize\n      sub\n      dup2\n      add\n      swap1\n      tag_31\n      swap2\n      swap1\n      tag_32\n      jump\t// in\n    tag_31:\n      tag_33\n      jump\t// in\n    tag_30:\n      mload(0x40)\n      tag_34\n      swap2\n      swap1\n      tag_35\n      jump\t// in\n    tag_34:\n      mload(0x40)\n      dup1\n      swap2\n      sub\n      swap1\n      return\n        /* \"@openzeppelin/contracts/access/AccessControl.sol\":4008:4137  function getRoleAdmin(bytes32 role) public view virtual override returns (bytes32) {... */\n    tag_5:\n      tag_36\n      0x04\n      dup1\n      calldatasize\n      sub\n      dup2\n      add\n      swap1\n      tag_37\n      swap2\n      swap1\n      tag_38\n      jump\t// in\n    tag_37:\n      tag_39\n      jump\t// in\n    tag_36:\n      mload(0x40)\n      tag_40\n      swap2\n      swap1\n      tag_41\n      jump\t// in\n    tag_40:\n      mload(0x40)\n      dup1\n      swap2\n      sub\n      swap1\n      return\n        /* \"@openzeppelin/contracts/access/AccessControl.sol\":4387:4532  function grantRole(bytes32 role, address account) public virtual override onlyRole(getRoleAdmin(role)) {... */\n    tag_6:\n      tag_42\n      0x04\n      dup1\n      calldatasize\n      sub\n      dup2\n      add\n      swap1\n      tag_43\n      swap2\n      swap1\n      tag_44\n      jump\t// in\n    tag_43:\n      tag_45\n      jump\t// in\n    tag_42:\n      stop\n        /* \"contracts/FinaSwap.sol\":3412:3529  function removeBalance(bytes memory source) public onlyRole(ADMIN_ROLE)\r... */\n    tag_7:\n      tag_46\n      0x04\n      dup1\n      calldatasize\n      sub\n      dup2\n      add\n      swap1\n      tag_47\n      swap2\n      swap1\n      tag_48\n      jump\t// in\n    tag_47:\n      tag_49\n      jump\t// in\n    tag_46:\n      stop\n        /* \"@openzeppelin/contracts/access/AccessControl.sol\":5404:5618  function renounceRole(bytes32 role, address account) public virtual override {... */\n    tag_8:\n      tag_50\n      0x04\n      dup1\n      calldatasize\n      sub\n      dup2\n      add\n      swap1\n      tag_51\n      swap2\n      swap1\n      tag_44\n      jump\t// in\n    tag_51:\n      tag_52\n      jump\t// in\n    tag_50:\n      stop\n        /* \"contracts/FinaSwap.sol\":4263:4340  function unpause() public onlyRole(PAUSER_ROLE) {\r... */\n    tag_9:\n      tag_53\n      tag_54\n      jump\t// in\n    tag_53:\n      stop\n        /* \"contracts/FinaSwap.sol\":3537:3660  function setNativeValue(uint256 nativeValue) public onlyRole(ADMIN_ROLE)\r... */\n    tag_10:\n      tag_55\n      0x04\n      dup1\n      calldatasize\n      sub\n      dup2\n      add\n      swap1\n      tag_56\n      swap2\n      swap1\n      tag_28\n      jump\t// in\n    tag_56:\n      tag_57\n      jump\t// in\n    tag_55:\n      stop\n        /* \"@openzeppelin/contracts/security/Pausable.sol\":1098:1182  function paused() public view virtual returns (bool) {... */\n    tag_11:\n      tag_58\n      tag_59\n      jump\t// in\n    tag_58:\n      mload(0x40)\n      tag_60\n      swap2\n      swap1\n      tag_35\n      jump\t// in\n    tag_60:\n      mload(0x40)\n      dup1\n      swap2\n      sub\n      swap1\n      return\n        /* \"contracts/FinaSwap.sol\":1069:3259  function claim(address target, bytes32 hash, bytes memory signature) public whenNotPaused\r... */\n    tag_12:\n      tag_61\n      0x04\n      dup1\n      calldatasize\n      sub\n      dup2\n      add\n      swap1\n      tag_62\n      swap2\n      swap1\n      tag_63\n      jump\t// in\n    tag_62:\n      tag_64\n      jump\t// in\n    tag_61:\n      stop\n        /* \"contracts/FinaSwap.sol\":347:407  bytes32 public constant ADMIN_ROLE = keccak256(\"ADMIN_ROLE\") */\n    tag_13:\n      tag_65\n      tag_66\n      jump\t// in\n    tag_65:\n      mload(0x40)\n      tag_67\n      swap2\n      swap1\n      tag_41\n      jump\t// in\n    tag_67:\n      mload(0x40)\n      dup1\n      swap2\n      sub\n      swap1\n      return\n        /* \"contracts/FinaSwap.sol\":3668:3786  function balanceOf(bytes memory source) public view returns (uint256)\r... */\n    tag_14:\n      tag_68\n      0x04\n      dup1\n      calldatasize\n      sub\n      dup2\n      add\n      swap1\n      tag_69\n      swap2\n      swap1\n      tag_48\n      jump\t// in\n    tag_69:\n      tag_70\n      jump\t// in\n    tag_68:\n      mload(0x40)\n      tag_71\n      swap2\n      swap1\n      tag_72\n      jump\t// in\n    tag_71:\n      mload(0x40)\n      dup1\n      swap2\n      sub\n      swap1\n      return\n        /* \"contracts/FinaSwap.sol\":4182:4255  function pause() public onlyRole(PAUSER_ROLE) {\r... */\n    tag_15:\n      tag_73\n      tag_74\n      jump\t// in\n    tag_73:\n      stop\n        /* \"@openzeppelin/contracts/access/AccessControl.sol\":2909:3054  function hasRole(bytes32 role, address account) public view virtual override returns (bool) {... */\n    tag_16:\n      tag_75\n      0x04\n      dup1\n      calldatasize\n      sub\n      dup2\n      add\n      swap1\n      tag_76\n      swap2\n      swap1\n      tag_44\n      jump\t// in\n    tag_76:\n      tag_77\n      jump\t// in\n    tag_75:\n      mload(0x40)\n      tag_78\n      swap2\n      swap1\n      tag_35\n      jump\t// in\n    tag_78:\n      mload(0x40)\n      dup1\n      swap2\n      sub\n      swap1\n      return\n        /* \"contracts/FinaSwap.sol\":3794:3899  function getSwappedBalance() public view returns (uint256)\r... */\n    tag_17:\n      tag_79\n      tag_80\n      jump\t// in\n    tag_79:\n      mload(0x40)\n      tag_81\n      swap2\n      swap1\n      tag_72\n      jump\t// in\n    tag_81:\n      mload(0x40)\n      dup1\n      swap2\n      sub\n      swap1\n      return\n        /* \"@openzeppelin/contracts/access/AccessControl.sol\":2027:2076  bytes32 public constant DEFAULT_ADMIN_ROLE = 0x00 */\n    tag_18:\n      tag_82\n      tag_83\n      jump\t// in\n    tag_82:\n      mload(0x40)\n      tag_84\n      swap2\n      swap1\n      tag_41\n      jump\t// in\n    tag_84:\n      mload(0x40)\n      dup1\n      swap2\n      sub\n      swap1\n      return\n        /* \"contracts/FinaSwap.sol\":4041:4166  function removeSwappedBalance(uint256 balance) public onlyRole(ADMIN_ROLE)\r... */\n    tag_19:\n      tag_85\n      0x04\n      dup1\n      calldatasize\n      sub\n      dup2\n      add\n      swap1\n      tag_86\n      swap2\n      swap1\n      tag_28\n      jump\t// in\n    tag_86:\n      tag_87\n      jump\t// in\n    tag_85:\n      stop\n        /* \"contracts/FinaSwap.sol\":3267:3404  function addBalance(bytes memory source, uint256 balance) public onlyRole(ADMIN_ROLE)\r... */\n    tag_20:\n      tag_88\n      0x04\n      dup1\n      calldatasize\n      sub\n      dup2\n      add\n      swap1\n      tag_89\n      swap2\n      swap1\n      tag_90\n      jump\t// in\n    tag_89:\n      tag_91\n      jump\t// in\n    tag_88:\n      stop\n        /* \"@openzeppelin/contracts/access/AccessControl.sol\":4766:4913  function revokeRole(bytes32 role, address account) public virtual override onlyRole(getRoleAdmin(role)) {... */\n    tag_21:\n      tag_92\n      0x04\n      dup1\n      calldatasize\n      sub\n      dup2\n      add\n      swap1\n      tag_93\n      swap2\n      swap1\n      tag_44\n      jump\t// in\n    tag_93:\n      tag_94\n      jump\t// in\n    tag_92:\n      stop\n        /* \"contracts/FinaSwap.sol\":414:476  bytes32 public constant PAUSER_ROLE = keccak256(\"PAUSER_ROLE\") */\n    tag_22:\n      tag_95\n      tag_96\n      jump\t// in\n    tag_95:\n      mload(0x40)\n      tag_97\n      swap2\n      swap1\n      tag_41\n      jump\t// in\n    tag_97:\n      mload(0x40)\n      dup1\n      swap2\n      sub\n      swap1\n      return\n        /* \"contracts/FinaSwap.sol\":3907:4029  function addSwappedBalance(uint256 balance) public onlyRole(ADMIN_ROLE)\r... */\n    tag_29:\n        /* \"contracts/FinaSwap.sol\":384:407  keccak256(\"ADMIN_ROLE\") */\n      0xa49807205ce4d355092ef5a8a18f56e8913cf4a201fbe287825b095693c21775\n        /* \"@openzeppelin/contracts/access/AccessControl.sol\":2505:2535  _checkRole(role, _msgSender()) */\n      tag_99\n        /* \"@openzeppelin/contracts/access/AccessControl.sol\":2516:2520  role */\n      dup2\n        /* \"@openzeppelin/contracts/access/AccessControl.sol\":2522:2534  _msgSender() */\n      tag_100\n        /* \"@openzeppelin/contracts/access/AccessControl.sol\":2522:2532  _msgSender */\n      tag_101\n        /* \"@openzeppelin/contracts/access/AccessControl.sol\":2522:2534  _msgSender() */\n      jump\t// in\n    tag_100:\n        /* \"@openzeppelin/contracts/access/AccessControl.sol\":2505:2515  _checkRole */\n      tag_102\n        /* \"@openzeppelin/contracts/access/AccessControl.sol\":2505:2535  _checkRole(role, _msgSender()) */\n      jump\t// in\n    tag_99:\n        /* \"contracts/FinaSwap.sol\":4014:4021  balance */\n      dup2\n        /* \"contracts/FinaSwap.sol\":3995:4010  _swappedBalance */\n      0x04\n      0x00\n        /* \"contracts/FinaSwap.sol\":3995:4021  _swappedBalance += balance */\n      dup3\n      dup3\n      sload\n      tag_104\n      swap2\n      swap1\n      tag_105\n      jump\t// in\n    tag_104:\n      swap3\n      pop\n      pop\n      dup2\n      swap1\n      sstore\n      pop\n        /* \"contracts/FinaSwap.sol\":3907:4029  function addSwappedBalance(uint256 balance) public onlyRole(ADMIN_ROLE)\r... */\n      pop\n      pop\n      jump\t// out\n        /* \"@openzeppelin/contracts/access/AccessControl.sol\":2620:2822  function supportsInterface(bytes4 interfaceId) public view virtual override returns (bool) {... */\n    tag_33:\n        /* \"@openzeppelin/contracts/access/AccessControl.sol\":2705:2709  bool */\n      0x00\n        /* \"@openzeppelin/contracts/access/AccessControl.sol\":2743:2775  type(IAccessControl).interfaceId */\n      0x7965db0b00000000000000000000000000000000000000000000000000000000\n        /* \"@openzeppelin/contracts/access/AccessControl.sol\":2728:2775  interfaceId == type(IAccessControl).interfaceId */\n      not(0xffffffffffffffffffffffffffffffffffffffffffffffffffffffff)\n      and\n        /* \"@openzeppelin/contracts/access/AccessControl.sol\":2728:2739  interfaceId */\n      dup3\n        /* \"@openzeppelin/contracts/access/AccessControl.sol\":2728:2775  interfaceId == type(IAccessControl).interfaceId */\n      not(0xffffffffffffffffffffffffffffffffffffffffffffffffffffffff)\n      and\n      eq\n        /* \"@openzeppelin/contracts/access/AccessControl.sol\":2728:2815  interfaceId == type(IAccessControl).interfaceId || super.supportsInterface(interfaceId) */\n      dup1\n      tag_107\n      jumpi\n      pop\n        /* \"@openzeppelin/contracts/access/AccessControl.sol\":2779:2815  super.supportsInterface(interfaceId) */\n      tag_108\n        /* \"@openzeppelin/contracts/access/AccessControl.sol\":2803:2814  interfaceId */\n      dup3\n        /* \"@openzeppelin/contracts/access/AccessControl.sol\":2779:2802  super.supportsInterface */\n      tag_109\n        /* \"@openzeppelin/contracts/access/AccessControl.sol\":2779:2815  super.supportsInterface(interfaceId) */\n      jump\t// in\n    tag_108:\n        /* \"@openzeppelin/contracts/access/AccessControl.sol\":2728:2815  interfaceId == type(IAccessControl).interfaceId || super.supportsInterface(interfaceId) */\n    tag_107:\n        /* \"@openzeppelin/contracts/access/AccessControl.sol\":2721:2815  return interfaceId == type(IAccessControl).interfaceId || super.supportsInterface(interfaceId) */\n      swap1\n      pop\n        /* \"@openzeppelin/contracts/access/AccessControl.sol\":2620:2822  function supportsInterface(bytes4 interfaceId) public view virtual override returns (bool) {... */\n      swap2\n      swap1\n      pop\n      jump\t// out\n        /* \"@openzeppelin/contracts/access/AccessControl.sol\":4008:4137  function getRoleAdmin(bytes32 role) public view virtual override returns (bytes32) {... */\n    tag_39:\n        /* \"@openzeppelin/contracts/access/AccessControl.sol\":4082:4089  bytes32 */\n      0x00\n        /* \"@openzeppelin/contracts/access/AccessControl.sol\":4108:4114  _roles */\n      0x01\n        /* \"@openzeppelin/contracts/access/AccessControl.sol\":4108:4120  _roles[role] */\n      0x00\n        /* \"@openzeppelin/contracts/access/AccessControl.sol\":4115:4119  role */\n      dup4\n        /* \"@openzeppelin/contracts/access/AccessControl.sol\":4108:4120  _roles[role] */\n      dup2\n      mstore\n      0x20\n      add\n      swap1\n      dup2\n      mstore\n      0x20\n      add\n      0x00\n      keccak256\n        /* \"@openzeppelin/contracts/access/AccessControl.sol\":4108:4130  _roles[role].adminRole */\n      0x01\n      add\n      sload\n        /* \"@openzeppelin/contracts/access/AccessControl.sol\":4101:4130  return _roles[role].adminRole */\n      swap1\n      pop\n        /* \"@openzeppelin/contracts/access/AccessControl.sol\":4008:4137  function getRoleAdmin(bytes32 role) public view virtual override returns (bytes32) {... */\n      swap2\n      swap1\n      pop\n      jump\t// out\n        /* \"@openzeppelin/contracts/access/AccessControl.sol\":4387:4532  function grantRole(bytes32 role, address account) public virtual override onlyRole(getRoleAdmin(role)) {... */\n    tag_45:\n        /* \"@openzeppelin/contracts/access/AccessControl.sol\":4470:4488  getRoleAdmin(role) */\n      tag_111\n        /* \"@openzeppelin/contracts/access/AccessControl.sol\":4483:4487  role */\n      dup3\n        /* \"@openzeppelin/contracts/access/AccessControl.sol\":4470:4482  getRoleAdmin */\n      tag_39\n        /* \"@openzeppelin/contracts/access/AccessControl.sol\":4470:4488  getRoleAdmin(role) */\n      jump\t// in\n    tag_111:\n        /* \"@openzeppelin/contracts/access/AccessControl.sol\":2505:2535  _checkRole(role, _msgSender()) */\n      tag_113\n        /* \"@openzeppelin/contracts/access/AccessControl.sol\":2516:2520  role */\n      dup2\n        /* \"@openzeppelin/contracts/access/AccessControl.sol\":2522:2534  _msgSender() */\n      tag_114\n        /* \"@openzeppelin/contracts/access/AccessControl.sol\":2522:2532  _msgSender */\n      tag_101\n        /* \"@openzeppelin/contracts/access/AccessControl.sol\":2522:2534  _msgSender() */\n      jump\t// in\n    tag_114:\n        /* \"@openzeppelin/contracts/access/AccessControl.sol\":2505:2515  _checkRole */\n      tag_102\n        /* \"@openzeppelin/contracts/access/AccessControl.sol\":2505:2535  _checkRole(role, _msgSender()) */\n      jump\t// in\n    tag_113:\n        /* \"@openzeppelin/contracts/access/AccessControl.sol\":4500:4525  _grantRole(role, account) */\n      tag_116\n        /* \"@openzeppelin/contracts/access/AccessControl.sol\":4511:4515  role */\n      dup4\n        /* \"@openzeppelin/contracts/access/AccessControl.sol\":4517:4524  account */\n      dup4\n        /* \"@openzeppelin/contracts/access/AccessControl.sol\":4500:4510  _grantRole */\n      tag_117\n        /* \"@openzeppelin/contracts/access/AccessControl.sol\":4500:4525  _grantRole(role, account) */\n      jump\t// in\n    tag_116:\n        /* \"@openzeppelin/contracts/access/AccessControl.sol\":4387:4532  function grantRole(bytes32 role, address account) public virtual override onlyRole(getRoleAdmin(role)) {... */\n      pop\n      pop\n      pop\n      jump\t// out\n        /* \"contracts/FinaSwap.sol\":3412:3529  function removeBalance(bytes memory source) public onlyRole(ADMIN_ROLE)\r... */\n    tag_49:\n        /* \"contracts/FinaSwap.sol\":384:407  keccak256(\"ADMIN_ROLE\") */\n      0xa49807205ce4d355092ef5a8a18f56e8913cf4a201fbe287825b095693c21775\n        /* \"@openzeppelin/contracts/access/AccessControl.sol\":2505:2535  _checkRole(role, _msgSender()) */\n      tag_119\n        /* \"@openzeppelin/contracts/access/AccessControl.sol\":2516:2520  role */\n      dup2\n        /* \"@openzeppelin/contracts/access/AccessControl.sol\":2522:2534  _msgSender() */\n      tag_120\n        /* \"@openzeppelin/contracts/access/AccessControl.sol\":2522:2532  _msgSender */\n      tag_101\n        /* \"@openzeppelin/contracts/access/AccessControl.sol\":2522:2534  _msgSender() */\n      jump\t// in\n    tag_120:\n        /* \"@openzeppelin/contracts/access/AccessControl.sol\":2505:2515  _checkRole */\n      tag_102\n        /* \"@openzeppelin/contracts/access/AccessControl.sol\":2505:2535  _checkRole(role, _msgSender()) */\n      jump\t// in\n    tag_119:\n        /* \"contracts/FinaSwap.sol\":3520:3521  0 */\n      0x00\n        /* \"contracts/FinaSwap.sol\":3500:3509  _balances */\n      0x03\n        /* \"contracts/FinaSwap.sol\":3510:3516  source */\n      dup4\n        /* \"contracts/FinaSwap.sol\":3500:3517  _balances[source] */\n      mload(0x40)\n      tag_122\n      swap2\n      swap1\n      tag_123\n      jump\t// in\n    tag_122:\n      swap1\n      dup2\n      mstore\n      0x20\n      add\n      mload(0x40)\n      dup1\n      swap2\n      sub\n      swap1\n      keccak256\n        /* \"contracts/FinaSwap.sol\":3500:3521  _balances[source] = 0 */\n      dup2\n      swap1\n      sstore\n      pop\n        /* \"contracts/FinaSwap.sol\":3412:3529  function removeBalance(bytes memory source) public onlyRole(ADMIN_ROLE)\r... */\n      pop\n      pop\n      jump\t// out\n        /* \"@openzeppelin/contracts/access/AccessControl.sol\":5404:5618  function renounceRole(bytes32 role, address account) public virtual override {... */\n    tag_52:\n        /* \"@openzeppelin/contracts/access/AccessControl.sol\":5510:5522  _msgSender() */\n      tag_125\n        /* \"@openzeppelin/contracts/access/AccessControl.sol\":5510:5520  _msgSender */\n      tag_101\n        /* \"@openzeppelin/contracts/access/AccessControl.sol\":5510:5522  _msgSender() */\n      jump\t// in\n    tag_125:\n        /* \"@openzeppelin/contracts/access/AccessControl.sol\":5499:5522  account == _msgSender() */\n      0xffffffffffffffffffffffffffffffffffffffff\n      and\n        /* \"@openzeppelin/contracts/access/AccessControl.sol\":5499:5506  account */\n      dup2\n        /* \"@openzeppelin/contracts/access/AccessControl.sol\":5499:5522  account == _msgSender() */\n      0xffffffffffffffffffffffffffffffffffffffff\n      and\n      eq\n        /* \"@openzeppelin/contracts/access/AccessControl.sol\":5491:5574  require(account == _msgSender(), \"AccessControl: can only renounce roles for self\") */\n      tag_126\n      jumpi\n      mload(0x40)\n      0x08c379a000000000000000000000000000000000000000000000000000000000\n      dup2\n      mstore\n      0x04\n      add\n      tag_127\n      swap1\n      tag_128\n      jump\t// in\n    tag_127:\n      mload(0x40)\n      dup1\n      swap2\n      sub\n      swap1\n      revert\n    tag_126:\n        /* \"@openzeppelin/contracts/access/AccessControl.sol\":5585:5611  _revokeRole(role, account) */\n      tag_129\n        /* \"@openzeppelin/contracts/access/AccessControl.sol\":5597:5601  role */\n      dup3\n        /* \"@openzeppelin/contracts/access/AccessControl.sol\":5603:5610  account */\n      dup3\n        /* \"@openzeppelin/contracts/access/AccessControl.sol\":5585:5596  _revokeRole */\n      tag_130\n        /* \"@openzeppelin/contracts/access/AccessControl.sol\":5585:5611  _revokeRole(role, account) */\n      jump\t// in\n    tag_129:\n        /* \"@openzeppelin/contracts/access/AccessControl.sol\":5404:5618  function renounceRole(bytes32 role, address account) public virtual override {... */\n      pop\n      pop\n      jump\t// out\n        /* \"contracts/FinaSwap.sol\":4263:4340  function unpause() public onlyRole(PAUSER_ROLE) {\r... */\n    tag_54:\n        /* \"contracts/FinaSwap.sol\":452:476  keccak256(\"PAUSER_ROLE\") */\n      0x65d7a28e3265b37a6474929f336521b332c1681b933f6cb9f3376673440d862a\n        /* \"@openzeppelin/contracts/access/AccessControl.sol\":2505:2535  _checkRole(role, _msgSender()) */\n      tag_132\n        /* \"@openzeppelin/contracts/access/AccessControl.sol\":2516:2520  role */\n      dup2\n        /* \"@openzeppelin/contracts/access/AccessControl.sol\":2522:2534  _msgSender() */\n      tag_133\n        /* \"@openzeppelin/contracts/access/AccessControl.sol\":2522:2532  _msgSender */\n      tag_101\n        /* \"@openzeppelin/contracts/access/AccessControl.sol\":2522:2534  _msgSender() */\n      jump\t// in\n    tag_133:\n        /* \"@openzeppelin/contracts/access/AccessControl.sol\":2505:2515  _checkRole */\n      tag_102\n        /* \"@openzeppelin/contracts/access/AccessControl.sol\":2505:2535  _checkRole(role, _msgSender()) */\n      jump\t// in\n    tag_132:\n        /* \"contracts/FinaSwap.sol\":4322:4332  _unpause() */\n      tag_135\n        /* \"contracts/FinaSwap.sol\":4322:4330  _unpause */\n      tag_136\n        /* \"contracts/FinaSwap.sol\":4322:4332  _unpause() */\n      jump\t// in\n    tag_135:\n        /* \"contracts/FinaSwap.sol\":4263:4340  function unpause() public onlyRole(PAUSER_ROLE) {\r... */\n      pop\n      jump\t// out\n        /* \"contracts/FinaSwap.sol\":3537:3660  function setNativeValue(uint256 nativeValue) public onlyRole(ADMIN_ROLE)\r... */\n    tag_57:\n        /* \"contracts/FinaSwap.sol\":384:407  keccak256(\"ADMIN_ROLE\") */\n      0xa49807205ce4d355092ef5a8a18f56e8913cf4a201fbe287825b095693c21775\n        /* \"@openzeppelin/contracts/access/AccessControl.sol\":2505:2535  _checkRole(role, _msgSender()) */\n      tag_138\n        /* \"@openzeppelin/contracts/access/AccessControl.sol\":2516:2520  role */\n      dup2\n        /* \"@openzeppelin/contracts/access/AccessControl.sol\":2522:2534  _msgSender() */\n      tag_139\n        /* \"@openzeppelin/contracts/access/AccessControl.sol\":2522:2532  _msgSender */\n      tag_101\n        /* \"@openzeppelin/contracts/access/AccessControl.sol\":2522:2534  _msgSender() */\n      jump\t// in\n    tag_139:\n        /* \"@openzeppelin/contracts/access/AccessControl.sol\":2505:2515  _checkRole */\n      tag_102\n        /* \"@openzeppelin/contracts/access/AccessControl.sol\":2505:2535  _checkRole(role, _msgSender()) */\n      jump\t// in\n    tag_138:\n        /* \"contracts/FinaSwap.sol\":3641:3652  nativeValue */\n      dup2\n        /* \"contracts/FinaSwap.sol\":3626:3638  _nativeValue */\n      0x02\n        /* \"contracts/FinaSwap.sol\":3626:3652  _nativeValue = nativeValue */\n      dup2\n      swap1\n      sstore\n      pop\n        /* \"contracts/FinaSwap.sol\":3537:3660  function setNativeValue(uint256 nativeValue) public onlyRole(ADMIN_ROLE)\r... */\n      pop\n      pop\n      jump\t// out\n        /* \"@openzeppelin/contracts/security/Pausable.sol\":1098:1182  function paused() public view virtual returns (bool) {... */\n    tag_59:\n        /* \"@openzeppelin/contracts/security/Pausable.sol\":1145:1149  bool */\n      0x00\n        /* \"@openzeppelin/contracts/security/Pausable.sol\":1168:1175  _paused */\n      dup1\n      0x00\n      swap1\n      sload\n      swap1\n      0x0100\n      exp\n      swap1\n      div\n      0xff\n      and\n        /* \"@openzeppelin/contracts/security/Pausable.sol\":1161:1175  return _paused */\n      swap1\n      pop\n        /* \"@openzeppelin/contracts/security/Pausable.sol\":1098:1182  function paused() public view virtual returns (bool) {... */\n      swap1\n      jump\t// out\n        /* \"contracts/FinaSwap.sol\":1069:3259  function claim(address target, bytes32 hash, bytes memory signature) public whenNotPaused\r... */\n    tag_64:\n        /* \"@openzeppelin/contracts/security/Pausable.sol\":1412:1420  paused() */\n      tag_143\n        /* \"@openzeppelin/contracts/security/Pausable.sol\":1412:1418  paused */\n      tag_59\n        /* \"@openzeppelin/contracts/security/Pausable.sol\":1412:1420  paused() */\n      jump\t// in\n    tag_143:\n        /* \"@openzeppelin/contracts/security/Pausable.sol\":1411:1420  !paused() */\n      iszero\n        /* \"@openzeppelin/contracts/security/Pausable.sol\":1403:1441  require(!paused(), \"Pausable: paused\") */\n      tag_144\n      jumpi\n      mload(0x40)\n      0x08c379a000000000000000000000000000000000000000000000000000000000\n      dup2\n      mstore\n      0x04\n      add\n      tag_145\n      swap1\n      tag_146\n      jump\t// in\n    tag_145:\n      mload(0x40)\n      dup1\n      swap2\n      sub\n      swap1\n      revert\n    tag_144:\n        /* \"contracts/FinaSwap.sol\":1201:1202  0 */\n      0x00\n        /* \"contracts/FinaSwap.sol\":1183:1203  target != address(0) */\n      0xffffffffffffffffffffffffffffffffffffffff\n      and\n        /* \"contracts/FinaSwap.sol\":1183:1189  target */\n      dup4\n        /* \"contracts/FinaSwap.sol\":1183:1203  target != address(0) */\n      0xffffffffffffffffffffffffffffffffffffffff\n      and\n      eq\n      iszero\n        /* \"contracts/FinaSwap.sol\":1175:1252  require(target != address(0), \"FinaSwap:claim Target address cannot be zero\") */\n      tag_148\n      jumpi\n      mload(0x40)\n      0x08c379a000000000000000000000000000000000000000000000000000000000\n      dup2\n      mstore\n      0x04\n      add\n      tag_149\n      swap1\n      tag_150\n      jump\t// in\n    tag_149:\n      mload(0x40)\n      dup1\n      swap2\n      sub\n      swap1\n      revert\n    tag_148:\n        /* \"contracts/FinaSwap.sol\":1282:1283  0 */\n      0x00\n        /* \"contracts/FinaSwap.sol\":1271:1283  hash[0] != 0 */\n      0xf8\n      shl\n        /* \"contracts/FinaSwap.sol\":1271:1275  hash */\n      dup3\n        /* \"contracts/FinaSwap.sol\":1276:1277  0 */\n      0x00\n        /* \"contracts/FinaSwap.sol\":1271:1278  hash[0] */\n      0x20\n      dup2\n      lt\n      tag_151\n      jumpi\n      mstore(0x00, 0x4e487b7100000000000000000000000000000000000000000000000000000000)\n      mstore(0x04, 0x32)\n      revert(0x00, 0x24)\n    tag_151:\n      byte\n      0xf8\n      shl\n        /* \"contracts/FinaSwap.sol\":1271:1283  hash[0] != 0 */\n      not(0xffffffffffffffffffffffffffffffffffffffffffffffffffffffffffffff)\n      and\n      eq\n      iszero\n        /* \"contracts/FinaSwap.sol\":1263:1329  require(hash[0] != 0, \"FinaSwap:claim Signature hash is required\") */\n      tag_152\n      jumpi\n      mload(0x40)\n      0x08c379a000000000000000000000000000000000000000000000000000000000\n      dup2\n      mstore\n      0x04\n      add\n      tag_153\n      swap1\n      tag_154\n      jump\t// in\n    tag_153:\n      mload(0x40)\n      dup1\n      swap2\n      sub\n      swap1\n      revert\n    tag_152:\n        /* \"contracts/FinaSwap.sol\":1368:1370  65 */\n      0x41\n        /* \"contracts/FinaSwap.sol\":1348:1357  signature */\n      dup2\n        /* \"contracts/FinaSwap.sol\":1348:1364  signature.length */\n      mload\n        /* \"contracts/FinaSwap.sol\":1348:1370  signature.length == 65 */\n      eq\n        /* \"contracts/FinaSwap.sol\":1340:1454  require(signature.length == 65, \"FinaSwap:claim Invalid signature length. The signature must be exactly 65 bytes\") */\n      tag_155\n      jumpi\n      mload(0x40)\n      0x08c379a000000000000000000000000000000000000000000000000000000000\n      dup2\n      mstore\n      0x04\n      add\n      tag_156\n      swap1\n      tag_157\n      jump\t// in\n    tag_156:\n      mload(0x40)\n      dup1\n      swap2\n      sub\n      swap1\n      revert\n    tag_155:\n        /* \"contracts/FinaSwap.sol\":1520:1542  bytes memory publicKey */\n      0x00\n        /* \"contracts/FinaSwap.sol\":1545:1551  _ecdsa */\n      immutable(\"0x8aa1c539d88d2917ab61113c1a4fcdb5d84bdff1b85c257152c86b49e7f24537\")\n        /* \"contracts/FinaSwap.sol\":1545:1559  _ecdsa.recover */\n      0xffffffffffffffffffffffffffffffffffffffff\n      and\n      0x19045a25\n        /* \"contracts/FinaSwap.sol\":1560:1564  hash */\n      dup5\n        /* \"contracts/FinaSwap.sol\":1566:1575  signature */\n      dup5\n        /* \"contracts/FinaSwap.sol\":1545:1576  _ecdsa.recover(hash, signature) */\n      mload(0x40)\n      dup4\n      0xffffffff\n      and\n      0xe0\n      shl\n      dup2\n      mstore\n      0x04\n      add\n      tag_158\n      swap3\n      swap2\n      swap1\n      tag_159\n      jump\t// in\n    tag_158:\n      0x00\n      mload(0x40)\n      dup1\n      dup4\n      sub\n      dup2\n      dup7\n      dup1\n      extcodesize\n      iszero\n      dup1\n      iszero\n      tag_160\n      jumpi\n      0x00\n      dup1\n      revert\n    tag_160:\n      pop\n      gas\n      staticcall\n      iszero\n      dup1\n      iszero\n      tag_162\n      jumpi\n      returndatasize\n      0x00\n      dup1\n      returndatacopy\n      revert(0x00, returndatasize)\n    tag_162:\n      pop\n      pop\n      pop\n      pop\n      mload(0x40)\n      returndatasize\n      0x00\n      dup3\n      returndatacopy\n      returndatasize\n      not(0x1f)\n      0x1f\n      dup3\n      add\n      and\n      dup3\n      add\n      dup1\n      0x40\n      mstore\n      pop\n      dup2\n      add\n      swap1\n      tag_163\n      swap2\n      swap1\n      tag_164\n      jump\t// in\n    tag_163:\n        /* \"contracts/FinaSwap.sol\":1520:1576  bytes memory publicKey = _ecdsa.recover(hash, signature) */\n      swap1\n      pop\n        /* \"contracts/FinaSwap.sol\":1687:1689  33 */\n      0x21\n        /* \"contracts/FinaSwap.sol\":1667:1676  publicKey */\n      dup2\n        /* \"contracts/FinaSwap.sol\":1667:1683  publicKey.length */\n      mload\n        /* \"contracts/FinaSwap.sol\":1667:1689  publicKey.length == 33 */\n      eq\n        /* \"contracts/FinaSwap.sol\":1659:1777  require(publicKey.length == 33, \"FinaSwap:claim Invalid signature. The recovered public key must be exactly 33 bytes\") */\n      tag_165\n      jumpi\n      mload(0x40)\n      0x08c379a000000000000000000000000000000000000000000000000000000000\n      dup2\n      mstore\n      0x04\n      add\n      tag_166\n      swap1\n      tag_167\n      jump\t// in\n    tag_166:\n      mload(0x40)\n      dup1\n      swap2\n      sub\n      swap1\n      revert\n    tag_165:\n        /* \"contracts/FinaSwap.sol\":1851:1878  bytes32 publicKeySha256Hash */\n      0x00\n        /* \"contracts/FinaSwap.sol\":1881:1898  sha256(publicKey) */\n      0x02\n        /* \"contracts/FinaSwap.sol\":1888:1897  publicKey */\n      dup3\n        /* \"contracts/FinaSwap.sol\":1881:1898  sha256(publicKey) */\n      mload(0x40)\n      tag_168\n      swap2\n      swap1\n      tag_123\n      jump\t// in\n    tag_168:\n      0x20\n      mload(0x40)\n      dup1\n      dup4\n      sub\n      dup2\n      dup6\n      gas\n      staticcall\n      iszero\n      dup1\n      iszero\n      tag_170\n      jumpi\n      returndatasize\n      0x00\n      dup1\n      returndatacopy\n      revert(0x00, returndatasize)\n    tag_170:\n      pop\n      pop\n      pop\n      mload(0x40)\n      returndatasize\n      not(0x1f)\n      0x1f\n      dup3\n      add\n      and\n      dup3\n      add\n      dup1\n      0x40\n      mstore\n      pop\n      dup2\n      add\n      swap1\n      tag_171\n      swap2\n      swap1\n      tag_172\n      jump\t// in\n    tag_171:\n        /* \"contracts/FinaSwap.sol\":1851:1898  bytes32 publicKeySha256Hash = sha256(publicKey) */\n      swap1\n      pop\n        /* \"contracts/FinaSwap.sol\":1995:2028  bytes memory publicKeyRipe160Hash */\n      0x00\n        /* \"contracts/FinaSwap.sol\":2048:2096  ripemd160(abi.encodePacked(publicKeySha256Hash)) */\n      0x03\n        /* \"contracts/FinaSwap.sol\":2075:2094  publicKeySha256Hash */\n      dup3\n        /* \"contracts/FinaSwap.sol\":2058:2095  abi.encodePacked(publicKeySha256Hash) */\n      add(0x20, mload(0x40))\n      tag_173\n      swap2\n      swap1\n      tag_174\n      jump\t// in\n    tag_173:\n      mload(0x40)\n      0x20\n      dup2\n      dup4\n      sub\n      sub\n      dup2\n      mstore\n      swap1\n      0x40\n      mstore\n        /* \"contracts/FinaSwap.sol\":2048:2096  ripemd160(abi.encodePacked(publicKeySha256Hash)) */\n      mload(0x40)\n      tag_175\n      swap2\n      swap1\n      tag_123\n      jump\t// in\n    tag_175:\n      0x20\n      mload(0x40)\n      dup1\n      dup4\n      sub\n      dup2\n      dup6\n      gas\n      staticcall\n      iszero\n      dup1\n      iszero\n      tag_177\n      jumpi\n      returndatasize\n      0x00\n      dup1\n      returndatacopy\n      revert(0x00, returndatasize)\n    tag_177:\n      pop\n      pop\n      pop\n      shl(0x60, mload(mload(0x40)))\n        /* \"contracts/FinaSwap.sol\":2031:2097  abi.encodePacked(ripemd160(abi.encodePacked(publicKeySha256Hash))) */\n      add(0x20, mload(0x40))\n      tag_178\n      swap2\n      swap1\n      tag_179\n      jump\t// in\n    tag_178:\n      mload(0x40)\n      0x20\n      dup2\n      dup4\n      sub\n      sub\n      dup2\n      mstore\n      swap1\n      0x40\n      mstore\n        /* \"contracts/FinaSwap.sol\":1995:2097  bytes memory publicKeyRipe160Hash = abi.encodePacked(ripemd160(abi.encodePacked(publicKeySha256Hash))) */\n      swap1\n      pop\n        /* \"contracts/FinaSwap.sol\":2165:2199  bytes memory publicKeyPrefixedHash */\n      0x00\n        /* \"contracts/FinaSwap.sol\":2215:2222  _prefix */\n      immutable(\"0x9b0d5a2681b52b4560ba0a55dc00d44d52ed130b12e9b1ecacbe9f4e75788d40\")\n        /* \"contracts/FinaSwap.sol\":2224:2244  publicKeyRipe160Hash */\n      dup3\n        /* \"contracts/FinaSwap.sol\":2202:2245  bytes.concat(_prefix, publicKeyRipe160Hash) */\n      add(0x20, mload(0x40))\n      tag_180\n      swap3\n      swap2\n      swap1\n      tag_181\n      jump\t// in\n    tag_180:\n      mload(0x40)\n      0x20\n      dup2\n      dup4\n      sub\n      sub\n      dup2\n      mstore\n      swap1\n      0x40\n      mstore\n        /* \"contracts/FinaSwap.sol\":2165:2245  bytes memory publicKeyPrefixedHash = bytes.concat(_prefix, publicKeyRipe160Hash) */\n      swap1\n      pop\n        /* \"contracts/FinaSwap.sol\":2339:2377  bytes memory publicKeyDoubleSha256Hash */\n      0x00\n        /* \"contracts/FinaSwap.sol\":2397:2452  sha256(abi.encodePacked(sha256(publicKeyPrefixedHash))) */\n      0x02\n        /* \"contracts/FinaSwap.sol\":2421:2450  sha256(publicKeyPrefixedHash) */\n      dup1\n        /* \"contracts/FinaSwap.sol\":2428:2449  publicKeyPrefixedHash */\n      dup4\n        /* \"contracts/FinaSwap.sol\":2421:2450  sha256(publicKeyPrefixedHash) */\n      mload(0x40)\n      tag_182\n      swap2\n      swap1\n      tag_123\n      jump\t// in\n    tag_182:\n      0x20\n      mload(0x40)\n      dup1\n      dup4\n      sub\n      dup2\n      dup6\n      gas\n      staticcall\n      iszero\n      dup1\n      iszero\n      tag_184\n      jumpi\n      returndatasize\n      0x00\n      dup1\n      returndatacopy\n      revert(0x00, returndatasize)\n    tag_184:\n      pop\n      pop\n      pop\n      mload(0x40)\n      returndatasize\n      not(0x1f)\n      0x1f\n      dup3\n      add\n      and\n      dup3\n      add\n      dup1\n      0x40\n      mstore\n      pop\n      dup2\n      add\n      swap1\n      tag_185\n      swap2\n      swap1\n      tag_172\n      jump\t// in\n    tag_185:\n        /* \"contracts/FinaSwap.sol\":2404:2451  abi.encodePacked(sha256(publicKeyPrefixedHash)) */\n      add(0x20, mload(0x40))\n      tag_186\n      swap2\n      swap1\n      tag_174\n      jump\t// in\n    tag_186:\n      mload(0x40)\n      0x20\n      dup2\n      dup4\n      sub\n      sub\n      dup2\n      mstore\n      swap1\n      0x40\n      mstore\n        /* \"contracts/FinaSwap.sol\":2397:2452  sha256(abi.encodePacked(sha256(publicKeyPrefixedHash))) */\n      mload(0x40)\n      tag_187\n      swap2\n      swap1\n      tag_123\n      jump\t// in\n    tag_187:\n      0x20\n      mload(0x40)\n      dup1\n      dup4\n      sub\n      dup2\n      dup6\n      gas\n      staticcall\n      iszero\n      dup1\n      iszero\n      tag_189\n      jumpi\n      returndatasize\n      0x00\n      dup1\n      returndatacopy\n      revert(0x00, returndatasize)\n    tag_189:\n      pop\n      pop\n      pop\n      mload(0x40)\n      returndatasize\n      not(0x1f)\n      0x1f\n      dup3\n      add\n      and\n      dup3\n      add\n      dup1\n      0x40\n      mstore\n      pop\n      dup2\n      add\n      swap1\n      tag_190\n      swap2\n      swap1\n      tag_172\n      jump\t// in\n    tag_190:\n        /* \"contracts/FinaSwap.sol\":2380:2453  abi.encodePacked(sha256(abi.encodePacked(sha256(publicKeyPrefixedHash)))) */\n      add(0x20, mload(0x40))\n      tag_191\n      swap2\n      swap1\n      tag_174\n      jump\t// in\n    tag_191:\n      mload(0x40)\n      0x20\n      dup2\n      dup4\n      sub\n      sub\n      dup2\n      mstore\n      swap1\n      0x40\n      mstore\n        /* \"contracts/FinaSwap.sol\":2339:2453  bytes memory publicKeyDoubleSha256Hash = abi.encodePacked(sha256(abi.encodePacked(sha256(publicKeyPrefixedHash)))) */\n      swap1\n      pop\n        /* \"contracts/FinaSwap.sol\":2534:2560  bytes memory publicKeyPart */\n      0x00\n        /* \"contracts/FinaSwap.sol\":2563:2612  BytesUtils.slice(publicKeyDoubleSha256Hash, 0, 4) */\n      tag_192\n        /* \"contracts/FinaSwap.sol\":2580:2605  publicKeyDoubleSha256Hash */\n      dup3\n        /* \"contracts/FinaSwap.sol\":2607:2608  0 */\n      0x00\n        /* \"contracts/FinaSwap.sol\":2610:2611  4 */\n      0x04\n        /* \"contracts/FinaSwap.sol\":2563:2579  BytesUtils.slice */\n      tag_193\n        /* \"contracts/FinaSwap.sol\":2563:2612  BytesUtils.slice(publicKeyDoubleSha256Hash, 0, 4) */\n      jump\t// in\n    tag_192:\n        /* \"contracts/FinaSwap.sol\":2534:2612  bytes memory publicKeyPart = BytesUtils.slice(publicKeyDoubleSha256Hash, 0, 4) */\n      swap1\n      pop\n        /* \"contracts/FinaSwap.sol\":2731:2760  bytes memory publicKeyAddress */\n      0x00\n        /* \"contracts/FinaSwap.sol\":2776:2797  publicKeyPrefixedHash */\n      dup4\n        /* \"contracts/FinaSwap.sol\":2799:2812  publicKeyPart */\n      dup3\n        /* \"contracts/FinaSwap.sol\":2763:2813  bytes.concat(publicKeyPrefixedHash, publicKeyPart) */\n      add(0x20, mload(0x40))\n      tag_194\n      swap3\n      swap2\n      swap1\n      tag_195\n      jump\t// in\n    tag_194:\n      mload(0x40)\n      0x20\n      dup2\n      dup4\n      sub\n      sub\n      dup2\n      mstore\n      swap1\n      0x40\n      mstore\n        /* \"contracts/FinaSwap.sol\":2731:2813  bytes memory publicKeyAddress = bytes.concat(publicKeyPrefixedHash, publicKeyPart) */\n      swap1\n      pop\n        /* \"contracts/FinaSwap.sol\":2826:2841  uint256 balance */\n      0x00\n        /* \"contracts/FinaSwap.sol\":2844:2853  _balances */\n      0x03\n        /* \"contracts/FinaSwap.sol\":2854:2870  publicKeyAddress */\n      dup3\n        /* \"contracts/FinaSwap.sol\":2844:2871  _balances[publicKeyAddress] */\n      mload(0x40)\n      tag_196\n      swap2\n      swap1\n      tag_123\n      jump\t// in\n    tag_196:\n      swap1\n      dup2\n      mstore\n      0x20\n      add\n      mload(0x40)\n      dup1\n      swap2\n      sub\n      swap1\n      keccak256\n      sload\n        /* \"contracts/FinaSwap.sol\":2826:2871  uint256 balance = _balances[publicKeyAddress] */\n      swap1\n      pop\n        /* \"contracts/FinaSwap.sol\":2900:2901  0 */\n      0x00\n        /* \"contracts/FinaSwap.sol\":2890:2897  balance */\n      dup2\n        /* \"contracts/FinaSwap.sol\":2890:2901  balance > 0 */\n      gt\n        /* \"contracts/FinaSwap.sol\":2882:2936  require(balance > 0, \"FinaSwap:claim already swapped\") */\n      tag_197\n      jumpi\n      mload(0x40)\n      0x08c379a000000000000000000000000000000000000000000000000000000000\n      dup2\n      mstore\n      0x04\n      add\n      tag_198\n      swap1\n      tag_199\n      jump\t// in\n    tag_198:\n      mload(0x40)\n      dup1\n      swap2\n      sub\n      swap1\n      revert\n    tag_197:\n        /* \"contracts/FinaSwap.sol\":2979:2980  0 */\n      0x00\n        /* \"contracts/FinaSwap.sol\":2949:2958  _balances */\n      0x03\n        /* \"contracts/FinaSwap.sol\":2959:2975  publicKeyAddress */\n      dup4\n        /* \"contracts/FinaSwap.sol\":2949:2976  _balances[publicKeyAddress] */\n      mload(0x40)\n      tag_200\n      swap2\n      swap1\n      tag_123\n      jump\t// in\n    tag_200:\n      swap1\n      dup2\n      mstore\n      0x20\n      add\n      mload(0x40)\n      dup1\n      swap2\n      sub\n      swap1\n      keccak256\n        /* \"contracts/FinaSwap.sol\":2949:2980  _balances[publicKeyAddress] = 0 */\n      dup2\n      swap1\n      sstore\n      pop\n        /* \"contracts/FinaSwap.sol\":3010:3017  balance */\n      dup1\n        /* \"contracts/FinaSwap.sol\":2991:3006  _swappedBalance */\n      0x04\n      0x00\n        /* \"contracts/FinaSwap.sol\":2991:3017  _swappedBalance += balance */\n      dup3\n      dup3\n      sload\n      tag_201\n      swap2\n      swap1\n      tag_105\n      jump\t// in\n    tag_201:\n      swap3\n      pop\n      pop\n      dup2\n      swap1\n      sstore\n      pop\n        /* \"contracts/FinaSwap.sol\":3030:3036  _token */\n      immutable(\"0xb0c7bc42bdbc6fc210fecd6a5f5b923061cceb0f8ca5c7d964d5c22fc0e4b0b6\")\n        /* \"contracts/FinaSwap.sol\":3030:3041  _token.mint */\n      0xffffffffffffffffffffffffffffffffffffffff\n      and\n      0x40c10f19\n        /* \"contracts/FinaSwap.sol\":3042:3048  target */\n      dup13\n        /* \"contracts/FinaSwap.sol\":3050:3057  balance */\n      dup4\n        /* \"contracts/FinaSwap.sol\":3030:3058  _token.mint(target, balance) */\n      mload(0x40)\n      dup4\n      0xffffffff\n      and\n      0xe0\n      shl\n      dup2\n      mstore\n      0x04\n      add\n      tag_202\n      swap3\n      swap2\n      swap1\n      tag_203\n      jump\t// in\n    tag_202:\n      0x00\n      mload(0x40)\n      dup1\n      dup4\n      sub\n      dup2\n      0x00\n      dup8\n      dup1\n      extcodesize\n      iszero\n      dup1\n      iszero\n      tag_204\n      jumpi\n      0x00\n      dup1\n      revert\n    tag_204:\n      pop\n      gas\n      call\n      iszero\n      dup1\n      iszero\n      tag_206\n      jumpi\n      returndatasize\n      0x00\n      dup1\n      returndatacopy\n      revert(0x00, returndatasize)\n    tag_206:\n      pop\n      pop\n      pop\n      pop\n        /* \"@openzeppelin/contracts/security/Pausable.sol\":1451:1452  _ */\n      pop\n      pop\n      pop\n      pop\n      pop\n      pop\n      pop\n      pop\n        /* \"contracts/FinaSwap.sol\":1069:3259  function claim(address target, bytes32 hash, bytes memory signature) public whenNotPaused\r... */\n      pop\n      pop\n      pop\n      jump\t// out\n        /* \"contracts/FinaSwap.sol\":347:407  bytes32 public constant ADMIN_ROLE = keccak256(\"ADMIN_ROLE\") */\n    tag_66:\n        /* \"contracts/FinaSwap.sol\":384:407  keccak256(\"ADMIN_ROLE\") */\n      0xa49807205ce4d355092ef5a8a18f56e8913cf4a201fbe287825b095693c21775\n        /* \"contracts/FinaSwap.sol\":347:407  bytes32 public constant ADMIN_ROLE = keccak256(\"ADMIN_ROLE\") */\n      dup2\n      jump\t// out\n        /* \"contracts/FinaSwap.sol\":3668:3786  function balanceOf(bytes memory source) public view returns (uint256)\r... */\n    tag_70:\n        /* \"contracts/FinaSwap.sol\":3729:3736  uint256 */\n      0x00\n        /* \"contracts/FinaSwap.sol\":3761:3770  _balances */\n      0x03\n        /* \"contracts/FinaSwap.sol\":3771:3777  source */\n      dup3\n        /* \"contracts/FinaSwap.sol\":3761:3778  _balances[source] */\n      mload(0x40)\n      tag_208\n      swap2\n      swap1\n      tag_123\n      jump\t// in\n    tag_208:\n      swap1\n      dup2\n      mstore\n      0x20\n      add\n      mload(0x40)\n      dup1\n      swap2\n      sub\n      swap1\n      keccak256\n      sload\n        /* \"contracts/FinaSwap.sol\":3754:3778  return _balances[source] */\n      swap1\n      pop\n        /* \"contracts/FinaSwap.sol\":3668:3786  function balanceOf(bytes memory source) public view returns (uint256)\r... */\n      swap2\n      swap1\n      pop\n      jump\t// out\n        /* \"contracts/FinaSwap.sol\":4182:4255  function pause() public onlyRole(PAUSER_ROLE) {\r... */\n    tag_74:\n        /* \"contracts/FinaSwap.sol\":452:476  keccak256(\"PAUSER_ROLE\") */\n      0x65d7a28e3265b37a6474929f336521b332c1681b933f6cb9f3376673440d862a\n        /* \"@openzeppelin/contracts/access/AccessControl.sol\":2505:2535  _checkRole(role, _msgSender()) */\n      tag_210\n        /* \"@openzeppelin/contracts/access/AccessControl.sol\":2516:2520  role */\n      dup2\n        /* \"@openzeppelin/contracts/access/AccessControl.sol\":2522:2534  _msgSender() */\n      tag_211\n        /* \"@openzeppelin/contracts/access/AccessControl.sol\":2522:2532  _msgSender */\n      tag_101\n        /* \"@openzeppelin/contracts/access/AccessControl.sol\":2522:2534  _msgSender() */\n      jump\t// in\n    tag_211:\n        /* \"@openzeppelin/contracts/access/AccessControl.sol\":2505:2515  _checkRole */\n      tag_102\n        /* \"@openzeppelin/contracts/access/AccessControl.sol\":2505:2535  _checkRole(role, _msgSender()) */\n      jump\t// in\n    tag_210:\n        /* \"contracts/FinaSwap.sol\":4239:4247  _pause() */\n      tag_213\n        /* \"contracts/FinaSwap.sol\":4239:4245  _pause */\n      tag_214\n        /* \"contracts/FinaSwap.sol\":4239:4247  _pause() */\n      jump\t// in\n    tag_213:\n        /* \"contracts/FinaSwap.sol\":4182:4255  function pause() public onlyRole(PAUSER_ROLE) {\r... */\n      pop\n      jump\t// out\n        /* \"@openzeppelin/contracts/access/AccessControl.sol\":2909:3054  function hasRole(bytes32 role, address account) public view virtual override returns (bool) {... */\n    tag_77:\n        /* \"@openzeppelin/contracts/access/AccessControl.sol\":2995:2999  bool */\n      0x00\n        /* \"@openzeppelin/contracts/access/AccessControl.sol\":3018:3024  _roles */\n      0x01\n        /* \"@openzeppelin/contracts/access/AccessControl.sol\":3018:3030  _roles[role] */\n      0x00\n        /* \"@openzeppelin/contracts/access/AccessControl.sol\":3025:3029  role */\n      dup5\n        /* \"@openzeppelin/contracts/access/AccessControl.sol\":3018:3030  _roles[role] */\n      dup2\n      mstore\n      0x20\n      add\n      swap1\n      dup2\n      mstore\n      0x20\n      add\n      0x00\n      keccak256\n        /* \"@openzeppelin/contracts/access/AccessControl.sol\":3018:3038  _roles[role].members */\n      0x00\n      add\n        /* \"@openzeppelin/contracts/access/AccessControl.sol\":3018:3047  _roles[role].members[account] */\n      0x00\n        /* \"@openzeppelin/contracts/access/AccessControl.sol\":3039:3046  account */\n      dup4\n        /* \"@openzeppelin/contracts/access/AccessControl.sol\":3018:3047  _roles[role].members[account] */\n      0xffffffffffffffffffffffffffffffffffffffff\n      and\n      0xffffffffffffffffffffffffffffffffffffffff\n      and\n      dup2\n      mstore\n      0x20\n      add\n      swap1\n      dup2\n      mstore\n      0x20\n      add\n      0x00\n      keccak256\n      0x00\n      swap1\n      sload\n      swap1\n      0x0100\n      exp\n      swap1\n      div\n      0xff\n      and\n        /* \"@openzeppelin/contracts/access/AccessControl.sol\":3011:3047  return _roles[role].members[account] */\n      swap1\n      pop\n        /* \"@openzeppelin/contracts/access/AccessControl.sol\":2909:3054  function hasRole(bytes32 role, address account) public view virtual override returns (bool) {... */\n      swap3\n      swap2\n      pop\n      pop\n      jump\t// out\n        /* \"contracts/FinaSwap.sol\":3794:3899  function getSwappedBalance() public view returns (uint256)\r... */\n    tag_80:\n        /* \"contracts/FinaSwap.sol\":3844:3851  uint256 */\n      0x00\n        /* \"contracts/FinaSwap.sol\":3876:3891  _swappedBalance */\n      sload(0x04)\n        /* \"contracts/FinaSwap.sol\":3869:3891  return _swappedBalance */\n      swap1\n      pop\n        /* \"contracts/FinaSwap.sol\":3794:3899  function getSwappedBalance() public view returns (uint256)\r... */\n      swap1\n      jump\t// out\n        /* \"@openzeppelin/contracts/access/AccessControl.sol\":2027:2076  bytes32 public constant DEFAULT_ADMIN_ROLE = 0x00 */\n    tag_83:\n        /* \"@openzeppelin/contracts/access/AccessControl.sol\":2072:2076  0x00 */\n      0x00\n        /* \"@openzeppelin/contracts/access/AccessControl.sol\":2027:2076  bytes32 public constant DEFAULT_ADMIN_ROLE = 0x00 */\n      dup1\n      shl\n      dup2\n      jump\t// out\n        /* \"contracts/FinaSwap.sol\":4041:4166  function removeSwappedBalance(uint256 balance) public onlyRole(ADMIN_ROLE)\r... */\n    tag_87:\n        /* \"contracts/FinaSwap.sol\":384:407  keccak256(\"ADMIN_ROLE\") */\n      0xa49807205ce4d355092ef5a8a18f56e8913cf4a201fbe287825b095693c21775\n        /* \"@openzeppelin/contracts/access/AccessControl.sol\":2505:2535  _checkRole(role, _msgSender()) */\n      tag_218\n        /* \"@openzeppelin/contracts/access/AccessControl.sol\":2516:2520  role */\n      dup2\n        /* \"@openzeppelin/contracts/access/AccessControl.sol\":2522:2534  _msgSender() */\n      tag_219\n        /* \"@openzeppelin/contracts/access/AccessControl.sol\":2522:2532  _msgSender */\n      tag_101\n        /* \"@openzeppelin/contracts/access/AccessControl.sol\":2522:2534  _msgSender() */\n      jump\t// in\n    tag_219:\n        /* \"@openzeppelin/contracts/access/AccessControl.sol\":2505:2515  _checkRole */\n      tag_102\n        /* \"@openzeppelin/contracts/access/AccessControl.sol\":2505:2535  _checkRole(role, _msgSender()) */\n      jump\t// in\n    tag_218:\n        /* \"contracts/FinaSwap.sol\":4151:4158  balance */\n      dup2\n        /* \"contracts/FinaSwap.sol\":4132:4147  _swappedBalance */\n      0x04\n      0x00\n        /* \"contracts/FinaSwap.sol\":4132:4158  _swappedBalance -= balance */\n      dup3\n      dup3\n      sload\n      tag_221\n      swap2\n      swap1\n      tag_222\n      jump\t// in\n    tag_221:\n      swap3\n      pop\n      pop\n      dup2\n      swap1\n      sstore\n      pop\n        /* \"contracts/FinaSwap.sol\":4041:4166  function removeSwappedBalance(uint256 balance) public onlyRole(ADMIN_ROLE)\r... */\n      pop\n      pop\n      jump\t// out\n        /* \"contracts/FinaSwap.sol\":3267:3404  function addBalance(bytes memory source, uint256 balance) public onlyRole(ADMIN_ROLE)\r... */\n    tag_91:\n        /* \"contracts/FinaSwap.sol\":384:407  keccak256(\"ADMIN_ROLE\") */\n      0xa49807205ce4d355092ef5a8a18f56e8913cf4a201fbe287825b095693c21775\n        /* \"@openzeppelin/contracts/access/AccessControl.sol\":2505:2535  _checkRole(role, _msgSender()) */\n      tag_224\n        /* \"@openzeppelin/contracts/access/AccessControl.sol\":2516:2520  role */\n      dup2\n        /* \"@openzeppelin/contracts/access/AccessControl.sol\":2522:2534  _msgSender() */\n      tag_225\n        /* \"@openzeppelin/contracts/access/AccessControl.sol\":2522:2532  _msgSender */\n      tag_101\n        /* \"@openzeppelin/contracts/access/AccessControl.sol\":2522:2534  _msgSender() */\n      jump\t// in\n    tag_225:\n        /* \"@openzeppelin/contracts/access/AccessControl.sol\":2505:2515  _checkRole */\n      tag_102\n        /* \"@openzeppelin/contracts/access/AccessControl.sol\":2505:2535  _checkRole(role, _msgSender()) */\n      jump\t// in\n    tag_224:\n        /* \"contracts/FinaSwap.sol\":3389:3396  balance */\n      dup2\n        /* \"contracts/FinaSwap.sol\":3369:3378  _balances */\n      0x03\n        /* \"contracts/FinaSwap.sol\":3379:3385  source */\n      dup5\n        /* \"contracts/FinaSwap.sol\":3369:3386  _balances[source] */\n      mload(0x40)\n      tag_227\n      swap2\n      swap1\n      tag_123\n      jump\t// in\n    tag_227:\n      swap1\n      dup2\n      mstore\n      0x20\n      add\n      mload(0x40)\n      dup1\n      swap2\n      sub\n      swap1\n      keccak256\n        /* \"contracts/FinaSwap.sol\":3369:3396  _balances[source] = balance */\n      dup2\n      swap1\n      sstore\n      pop\n        /* \"contracts/FinaSwap.sol\":3267:3404  function addBalance(bytes memory source, uint256 balance) public onlyRole(ADMIN_ROLE)\r... */\n      pop\n      pop\n      pop\n      jump\t// out\n        /* \"@openzeppelin/contracts/access/AccessControl.sol\":4766:4913  function revokeRole(bytes32 role, address account) public virtual override onlyRole(getRoleAdmin(role)) {... */\n    tag_94:\n        /* \"@openzeppelin/contracts/access/AccessControl.sol\":4850:4868  getRoleAdmin(role) */\n      tag_228\n        /* \"@openzeppelin/contracts/access/AccessControl.sol\":4863:4867  role */\n      dup3\n        /* \"@openzeppelin/contracts/access/AccessControl.sol\":4850:4862  getRoleAdmin */\n      tag_39\n        /* \"@openzeppelin/contracts/access/AccessControl.sol\":4850:4868  getRoleAdmin(role) */\n      jump\t// in\n    tag_228:\n        /* \"@openzeppelin/contracts/access/AccessControl.sol\":2505:2535  _checkRole(role, _msgSender()) */\n      tag_230\n        /* \"@openzeppelin/contracts/access/AccessControl.sol\":2516:2520  role */\n      dup2\n        /* \"@openzeppelin/contracts/access/AccessControl.sol\":2522:2534  _msgSender() */\n      tag_231\n        /* \"@openzeppelin/contracts/access/AccessControl.sol\":2522:2532  _msgSender */\n      tag_101\n        /* \"@openzeppelin/contracts/access/AccessControl.sol\":2522:2534  _msgSender() */\n      jump\t// in\n    tag_231:\n        /* \"@openzeppelin/contracts/access/AccessControl.sol\":2505:2515  _checkRole */\n      tag_102\n        /* \"@openzeppelin/contracts/access/AccessControl.sol\":2505:2535  _checkRole(role, _msgSender()) */\n      jump\t// in\n    tag_230:\n        /* \"@openzeppelin/contracts/access/AccessControl.sol\":4880:4906  _revokeRole(role, account) */\n      tag_233\n        /* \"@openzeppelin/contracts/access/AccessControl.sol\":4892:4896  role */\n      dup4\n        /* \"@openzeppelin/contracts/access/AccessControl.sol\":4898:4905  account */\n      dup4\n        /* \"@openzeppelin/contracts/access/AccessControl.sol\":4880:4891  _revokeRole */\n      tag_130\n        /* \"@openzeppelin/contracts/access/AccessControl.sol\":4880:4906  _revokeRole(role, account) */\n      jump\t// in\n    tag_233:\n        /* \"@openzeppelin/contracts/access/AccessControl.sol\":4766:4913  function revokeRole(bytes32 role, address account) public virtual override onlyRole(getRoleAdmin(role)) {... */\n      pop\n      pop\n      pop\n      jump\t// out\n        /* \"contracts/FinaSwap.sol\":414:476  bytes32 public constant PAUSER_ROLE = keccak256(\"PAUSER_ROLE\") */\n    tag_96:\n        /* \"contracts/FinaSwap.sol\":452:476  keccak256(\"PAUSER_ROLE\") */\n      0x65d7a28e3265b37a6474929f336521b332c1681b933f6cb9f3376673440d862a\n        /* \"contracts/FinaSwap.sol\":414:476  bytes32 public constant PAUSER_ROLE = keccak256(\"PAUSER_ROLE\") */\n      dup2\n      jump\t// out\n        /* \"@openzeppelin/contracts/utils/Context.sol\":640:736  function _msgSender() internal view virtual returns (address) {... */\n    tag_101:\n        /* \"@openzeppelin/contracts/utils/Context.sol\":693:700  address */\n      0x00\n        /* \"@openzeppelin/contracts/utils/Context.sol\":719:729  msg.sender */\n      caller\n        /* \"@openzeppelin/contracts/utils/Context.sol\":712:729  return msg.sender */\n      swap1\n      pop\n        /* \"@openzeppelin/contracts/utils/Context.sol\":640:736  function _msgSender() internal view virtual returns (address) {... */\n      swap1\n      jump\t// out\n        /* \"@openzeppelin/contracts/access/AccessControl.sol\":3335:3827  function _checkRole(bytes32 role, address account) internal view virtual {... */\n    tag_102:\n        /* \"@openzeppelin/contracts/access/AccessControl.sol\":3423:3445  hasRole(role, account) */\n      tag_236\n        /* \"@openzeppelin/contracts/access/AccessControl.sol\":3431:3435  role */\n      dup3\n        /* \"@openzeppelin/contracts/access/AccessControl.sol\":3437:3444  account */\n      dup3\n        /* \"@openzeppelin/contracts/access/AccessControl.sol\":3423:3430  hasRole */\n      tag_77\n        /* \"@openzeppelin/contracts/access/AccessControl.sol\":3423:3445  hasRole(role, account) */\n      jump\t// in\n    tag_236:\n        /* \"@openzeppelin/contracts/access/AccessControl.sol\":3418:3821  if (!hasRole(role, account)) {... */\n      tag_237\n      jumpi\n        /* \"@openzeppelin/contracts/access/AccessControl.sol\":3606:3647  Strings.toHexString(uint160(account), 20) */\n      tag_238\n        /* \"@openzeppelin/contracts/access/AccessControl.sol\":3634:3641  account */\n      dup2\n        /* \"@openzeppelin/contracts/access/AccessControl.sol\":3606:3647  Strings.toHexString(uint160(account), 20) */\n      0xffffffffffffffffffffffffffffffffffffffff\n      and\n        /* \"@openzeppelin/contracts/access/AccessControl.sol\":3644:3646  20 */\n      0x14\n        /* \"@openzeppelin/contracts/access/AccessControl.sol\":3606:3625  Strings.toHexString */\n      tag_239\n        /* \"@openzeppelin/contracts/access/AccessControl.sol\":3606:3647  Strings.toHexString(uint160(account), 20) */\n      jump\t// in\n    tag_238:\n        /* \"@openzeppelin/contracts/access/AccessControl.sol\":3718:3756  Strings.toHexString(uint256(role), 32) */\n      tag_240\n        /* \"@openzeppelin/contracts/access/AccessControl.sol\":3746:3750  role */\n      dup4\n        /* \"@openzeppelin/contracts/access/AccessControl.sol\":3738:3751  uint256(role) */\n      0x00\n      shr\n        /* \"@openzeppelin/contracts/access/AccessControl.sol\":3753:3755  32 */\n      0x20\n        /* \"@openzeppelin/contracts/access/AccessControl.sol\":3718:3737  Strings.toHexString */\n      tag_239\n        /* \"@openzeppelin/contracts/access/AccessControl.sol\":3718:3756  Strings.toHexString(uint256(role), 32) */\n      jump\t// in\n    tag_240:\n        /* \"@openzeppelin/contracts/access/AccessControl.sol\":3513:3778  abi.encodePacked(... */\n      add(0x20, mload(0x40))\n      tag_241\n      swap3\n      swap2\n      swap1\n      tag_242\n      jump\t// in\n    tag_241:\n      mload(0x40)\n      0x20\n      dup2\n      dup4\n      sub\n      sub\n      dup2\n      mstore\n      swap1\n      0x40\n      mstore\n        /* \"@openzeppelin/contracts/access/AccessControl.sol\":3461:3810  revert(... */\n      mload(0x40)\n      0x08c379a000000000000000000000000000000000000000000000000000000000\n      dup2\n      mstore\n      0x04\n      add\n      tag_243\n      swap2\n      swap1\n      tag_244\n      jump\t// in\n    tag_243:\n      mload(0x40)\n      dup1\n      swap2\n      sub\n      swap1\n      revert\n        /* \"@openzeppelin/contracts/access/AccessControl.sol\":3418:3821  if (!hasRole(role, account)) {... */\n    tag_237:\n        /* \"@openzeppelin/contracts/access/AccessControl.sol\":3335:3827  function _checkRole(bytes32 role, address account) internal view virtual {... */\n      pop\n      pop\n      jump\t// out\n        /* \"@openzeppelin/contracts/utils/introspection/ERC165.sol\":829:984  function supportsInterface(bytes4 interfaceId) public view virtual override returns (bool) {... */\n    tag_109:\n        /* \"@openzeppelin/contracts/utils/introspection/ERC165.sol\":914:918  bool */\n      0x00\n        /* \"@openzeppelin/contracts/utils/introspection/ERC165.sol\":952:977  type(IERC165).interfaceId */\n      0x01ffc9a700000000000000000000000000000000000000000000000000000000\n        /* \"@openzeppelin/contracts/utils/introspection/ERC165.sol\":937:977  interfaceId == type(IERC165).interfaceId */\n      not(0xffffffffffffffffffffffffffffffffffffffffffffffffffffffff)\n      and\n        /* \"@openzeppelin/contracts/utils/introspection/ERC165.sol\":937:948  interfaceId */\n      dup3\n        /* \"@openzeppelin/contracts/utils/introspection/ERC165.sol\":937:977  interfaceId == type(IERC165).interfaceId */\n      not(0xffffffffffffffffffffffffffffffffffffffffffffffffffffffff)\n      and\n      eq\n        /* \"@openzeppelin/contracts/utils/introspection/ERC165.sol\":930:977  return interfaceId == type(IERC165).interfaceId */\n      swap1\n      pop\n        /* \"@openzeppelin/contracts/utils/introspection/ERC165.sol\":829:984  function supportsInterface(bytes4 interfaceId) public view virtual override returns (bool) {... */\n      swap2\n      swap1\n      pop\n      jump\t// out\n        /* \"@openzeppelin/contracts/access/AccessControl.sol\":6861:7094  function _grantRole(bytes32 role, address account) internal virtual {... */\n    tag_117:\n        /* \"@openzeppelin/contracts/access/AccessControl.sol\":6944:6966  hasRole(role, account) */\n      tag_247\n        /* \"@openzeppelin/contracts/access/AccessControl.sol\":6952:6956  role */\n      dup3\n        /* \"@openzeppelin/contracts/access/AccessControl.sol\":6958:6965  account */\n      dup3\n        /* \"@openzeppelin/contracts/access/AccessControl.sol\":6944:6951  hasRole */\n      tag_77\n        /* \"@openzeppelin/contracts/access/AccessControl.sol\":6944:6966  hasRole(role, account) */\n      jump\t// in\n    tag_247:\n        /* \"@openzeppelin/contracts/access/AccessControl.sol\":6939:7088  if (!hasRole(role, account)) {... */\n      tag_248\n      jumpi\n        /* \"@openzeppelin/contracts/access/AccessControl.sol\":7014:7018  true */\n      0x01\n        /* \"@openzeppelin/contracts/access/AccessControl.sol\":6982:6988  _roles */\n      dup1\n        /* \"@openzeppelin/contracts/access/AccessControl.sol\":6982:6994  _roles[role] */\n      0x00\n        /* \"@openzeppelin/contracts/access/AccessControl.sol\":6989:6993  role */\n      dup5\n        /* \"@openzeppelin/contracts/access/AccessControl.sol\":6982:6994  _roles[role] */\n      dup2\n      mstore\n      0x20\n      add\n      swap1\n      dup2\n      mstore\n      0x20\n      add\n      0x00\n      keccak256\n        /* \"@openzeppelin/contracts/access/AccessControl.sol\":6982:7002  _roles[role].members */\n      0x00\n      add\n        /* \"@openzeppelin/contracts/access/AccessControl.sol\":6982:7011  _roles[role].members[account] */\n      0x00\n        /* \"@openzeppelin/contracts/access/AccessControl.sol\":7003:7010  account */\n      dup4\n        /* \"@openzeppelin/contracts/access/AccessControl.sol\":6982:7011  _roles[role].members[account] */\n      0xffffffffffffffffffffffffffffffffffffffff\n      and\n      0xffffffffffffffffffffffffffffffffffffffff\n      and\n      dup2\n      mstore\n      0x20\n      add\n      swap1\n      dup2\n      mstore\n      0x20\n      add\n      0x00\n      keccak256\n      0x00\n        /* \"@openzeppelin/contracts/access/AccessControl.sol\":6982:7018  _roles[role].members[account] = true */\n      0x0100\n      exp\n      dup2\n      sload\n      dup2\n      0xff\n      mul\n      not\n      and\n      swap1\n      dup4\n      iszero\n      iszero\n      mul\n      or\n      swap1\n      sstore\n      pop\n        /* \"@openzeppelin/contracts/access/AccessControl.sol\":7064:7076  _msgSender() */\n      tag_249\n        /* \"@openzeppelin/contracts/access/AccessControl.sol\":7064:7074  _msgSender */\n      tag_101\n        /* \"@openzeppelin/contracts/access/AccessControl.sol\":7064:7076  _msgSender() */\n      jump\t// in\n    tag_249:\n        /* \"@openzeppelin/contracts/access/AccessControl.sol\":7037:7077  RoleGranted(role, account, _msgSender()) */\n      0xffffffffffffffffffffffffffffffffffffffff\n      and\n        /* \"@openzeppelin/contracts/access/AccessControl.sol\":7055:7062  account */\n      dup2\n        /* \"@openzeppelin/contracts/access/AccessControl.sol\":7037:7077  RoleGranted(role, account, _msgSender()) */\n      0xffffffffffffffffffffffffffffffffffffffff\n      and\n        /* \"@openzeppelin/contracts/access/AccessControl.sol\":7049:7053  role */\n      dup4\n        /* \"@openzeppelin/contracts/access/AccessControl.sol\":7037:7077  RoleGranted(role, account, _msgSender()) */\n      0x2f8788117e7eff1d82e926ec794901d17c78024a50270940304540a733656f0d\n      mload(0x40)\n      mload(0x40)\n      dup1\n      swap2\n      sub\n      swap1\n      log4\n        /* \"@openzeppelin/contracts/access/AccessControl.sol\":6939:7088  if (!hasRole(role, account)) {... */\n    tag_248:\n        /* \"@openzeppelin/contracts/access/AccessControl.sol\":6861:7094  function _grantRole(bytes32 role, address account) internal virtual {... */\n      pop\n      pop\n      jump\t// out\n        /* \"@openzeppelin/contracts/access/AccessControl.sol\":7219:7453  function _revokeRole(bytes32 role, address account) internal virtual {... */\n    tag_130:\n        /* \"@openzeppelin/contracts/access/AccessControl.sol\":7302:7324  hasRole(role, account) */\n      tag_251\n        /* \"@openzeppelin/contracts/access/AccessControl.sol\":7310:7314  role */\n      dup3\n        /* \"@openzeppelin/contracts/access/AccessControl.sol\":7316:7323  account */\n      dup3\n        /* \"@openzeppelin/contracts/access/AccessControl.sol\":7302:7309  hasRole */\n      tag_77\n        /* \"@openzeppelin/contracts/access/AccessControl.sol\":7302:7324  hasRole(role, account) */\n      jump\t// in\n    tag_251:\n        /* \"@openzeppelin/contracts/access/AccessControl.sol\":7298:7447  if (hasRole(role, account)) {... */\n      iszero\n      tag_252\n      jumpi\n        /* \"@openzeppelin/contracts/access/AccessControl.sol\":7372:7377  false */\n      0x00\n        /* \"@openzeppelin/contracts/access/AccessControl.sol\":7340:7346  _roles */\n      0x01\n        /* \"@openzeppelin/contracts/access/AccessControl.sol\":7340:7352  _roles[role] */\n      0x00\n        /* \"@openzeppelin/contracts/access/AccessControl.sol\":7347:7351  role */\n      dup5\n        /* \"@openzeppelin/contracts/access/AccessControl.sol\":7340:7352  _roles[role] */\n      dup2\n      mstore\n      0x20\n      add\n      swap1\n      dup2\n      mstore\n      0x20\n      add\n      0x00\n      keccak256\n        /* \"@openzeppelin/contracts/access/AccessControl.sol\":7340:7360  _roles[role].members */\n      0x00\n      add\n        /* \"@openzeppelin/contracts/access/AccessControl.sol\":7340:7369  _roles[role].members[account] */\n      0x00\n        /* \"@openzeppelin/contracts/access/AccessControl.sol\":7361:7368  account */\n      dup4\n        /* \"@openzeppelin/contracts/access/AccessControl.sol\":7340:7369  _roles[role].members[account] */\n      0xffffffffffffffffffffffffffffffffffffffff\n      and\n      0xffffffffffffffffffffffffffffffffffffffff\n      and\n      dup2\n      mstore\n      0x20\n      add\n      swap1\n      dup2\n      mstore\n      0x20\n      add\n      0x00\n      keccak256\n      0x00\n        /* \"@openzeppelin/contracts/access/AccessControl.sol\":7340:7377  _roles[role].members[account] = false */\n      0x0100\n      exp\n      dup2\n      sload\n      dup2\n      0xff\n      mul\n      not\n      and\n      swap1\n      dup4\n      iszero\n      iszero\n      mul\n      or\n      swap1\n      sstore\n      pop\n        /* \"@openzeppelin/contracts/access/AccessControl.sol\":7423:7435  _msgSender() */\n      tag_253\n        /* \"@openzeppelin/contracts/access/AccessControl.sol\":7423:7433  _msgSender */\n      tag_101\n        /* \"@openzeppelin/contracts/access/AccessControl.sol\":7423:7435  _msgSender() */\n      jump\t// in\n    tag_253:\n        /* \"@openzeppelin/contracts/access/AccessControl.sol\":7396:7436  RoleRevoked(role, account, _msgSender()) */\n      0xffffffffffffffffffffffffffffffffffffffff\n      and\n        /* \"@openzeppelin/contracts/access/AccessControl.sol\":7414:7421  account */\n      dup2\n        /* \"@openzeppelin/contracts/access/AccessControl.sol\":7396:7436  RoleRevoked(role, account, _msgSender()) */\n      0xffffffffffffffffffffffffffffffffffffffff\n      and\n        /* \"@openzeppelin/contracts/access/AccessControl.sol\":7408:7412  role */\n      dup4\n        /* \"@openzeppelin/contracts/access/AccessControl.sol\":7396:7436  RoleRevoked(role, account, _msgSender()) */\n      0xf6391f5c32d9c69d2a47ea670b442974b53935d1edc7fd64eb21e047a839171b\n      mload(0x40)\n      mload(0x40)\n      dup1\n      swap2\n      sub\n      swap1\n      log4\n        /* \"@openzeppelin/contracts/access/AccessControl.sol\":7298:7447  if (hasRole(role, account)) {... */\n    tag_252:\n        /* \"@openzeppelin/contracts/access/AccessControl.sol\":7219:7453  function _revokeRole(bytes32 role, address account) internal virtual {... */\n      pop\n      pop\n      jump\t// out\n        /* \"@openzeppelin/contracts/security/Pausable.sol\":2110:2227  function _unpause() internal virtual whenPaused {... */\n    tag_136:\n        /* \"@openzeppelin/contracts/security/Pausable.sol\":1677:1685  paused() */\n      tag_255\n        /* \"@openzeppelin/contracts/security/Pausable.sol\":1677:1683  paused */\n      tag_59\n        /* \"@openzeppelin/contracts/security/Pausable.sol\":1677:1685  paused() */\n      jump\t// in\n    tag_255:\n        /* \"@openzeppelin/contracts/security/Pausable.sol\":1669:1710  require(paused(), \"Pausable: not paused\") */\n      tag_256\n      jumpi\n      mload(0x40)\n      0x08c379a000000000000000000000000000000000000000000000000000000000\n      dup2\n      mstore\n      0x04\n      add\n      tag_257\n      swap1\n      tag_258\n      jump\t// in\n    tag_257:\n      mload(0x40)\n      dup1\n      swap2\n      sub\n      swap1\n      revert\n    tag_256:\n        /* \"@openzeppelin/contracts/security/Pausable.sol\":2178:2183  false */\n      0x00\n        /* \"@openzeppelin/contracts/security/Pausable.sol\":2168:2175  _paused */\n      dup1\n      0x00\n        /* \"@openzeppelin/contracts/security/Pausable.sol\":2168:2183  _paused = false */\n      0x0100\n      exp\n      dup2\n      sload\n      dup2\n      0xff\n      mul\n      not\n      and\n      swap1\n      dup4\n      iszero\n      iszero\n      mul\n      or\n      swap1\n      sstore\n      pop\n        /* \"@openzeppelin/contracts/security/Pausable.sol\":2198:2220  Unpaused(_msgSender()) */\n      0x5db9ee0a495bf2e6ff9c91a7834c1ba4fdd244a5e8aa4e537bd38aeae4b073aa\n        /* \"@openzeppelin/contracts/security/Pausable.sol\":2207:2219  _msgSender() */\n      tag_260\n        /* \"@openzeppelin/contracts/security/Pausable.sol\":2207:2217  _msgSender */\n      tag_101\n        /* \"@openzeppelin/contracts/security/Pausable.sol\":2207:2219  _msgSender() */\n      jump\t// in\n    tag_260:\n        /* \"@openzeppelin/contracts/security/Pausable.sol\":2198:2220  Unpaused(_msgSender()) */\n      mload(0x40)\n      tag_261\n      swap2\n      swap1\n      tag_262\n      jump\t// in\n    tag_261:\n      mload(0x40)\n      dup1\n      swap2\n      sub\n      swap1\n      log1\n        /* \"@openzeppelin/contracts/security/Pausable.sol\":2110:2227  function _unpause() internal virtual whenPaused {... */\n      jump\t// out\n        /* \"contracts/utils/BytesUtils.sol\":86:349  function slice(bytes memory source, uint256 start, uint256 end) internal pure returns (bytes memory) {\r... */\n    tag_193:\n        /* \"contracts/utils/BytesUtils.sol\":173:185  bytes memory */\n      0x60\n        /* \"contracts/utils/BytesUtils.sol\":198:212  bytes memory a */\n      0x00\n        /* \"contracts/utils/BytesUtils.sol\":231:236  start */\n      dup4\n        /* \"contracts/utils/BytesUtils.sol\":225:228  end */\n      dup4\n        /* \"contracts/utils/BytesUtils.sol\":225:236  end - start */\n      tag_264\n      swap2\n      swap1\n      tag_222\n      jump\t// in\n    tag_264:\n        /* \"contracts/utils/BytesUtils.sol\":215:237  new bytes(end - start) */\n      0xffffffffffffffff\n      dup2\n      gt\n      iszero\n      tag_265\n      jumpi\n      mstore(0x00, 0x4e487b7100000000000000000000000000000000000000000000000000000000)\n      mstore(0x04, 0x41)\n      revert(0x00, 0x24)\n    tag_265:\n      mload(0x40)\n      swap1\n      dup1\n      dup3\n      mstore\n      dup1\n      0x1f\n      add\n      not(0x1f)\n      and\n      0x20\n      add\n      dup3\n      add\n      0x40\n      mstore\n      dup1\n      iszero\n      tag_266\n      jumpi\n      dup2\n      0x20\n      add\n      0x01\n      dup3\n      mul\n      dup1\n      calldatasize\n      dup4\n      calldatacopy\n      dup1\n      dup3\n      add\n      swap2\n      pop\n      pop\n      swap1\n      pop\n    tag_266:\n      pop\n        /* \"contracts/utils/BytesUtils.sol\":198:237  bytes memory a = new bytes(end - start) */\n      swap1\n      pop\n        /* \"contracts/utils/BytesUtils.sol\":252:258  uint i */\n      0x00\n        /* \"contracts/utils/BytesUtils.sol\":248:323  for(uint i=0;i<=end-start-1;i++){\r... */\n    tag_267:\n        /* \"contracts/utils/BytesUtils.sol\":274:275  1 */\n      0x01\n        /* \"contracts/utils/BytesUtils.sol\":268:273  start */\n      dup6\n        /* \"contracts/utils/BytesUtils.sol\":264:267  end */\n      dup6\n        /* \"contracts/utils/BytesUtils.sol\":264:273  end-start */\n      tag_270\n      swap2\n      swap1\n      tag_222\n      jump\t// in\n    tag_270:\n        /* \"contracts/utils/BytesUtils.sol\":264:275  end-start-1 */\n      tag_271\n      swap2\n      swap1\n      tag_222\n      jump\t// in\n    tag_271:\n        /* \"contracts/utils/BytesUtils.sol\":261:262  i */\n      dup2\n        /* \"contracts/utils/BytesUtils.sol\":261:275  i<=end-start-1 */\n      gt\n        /* \"contracts/utils/BytesUtils.sol\":248:323  for(uint i=0;i<=end-start-1;i++){\r... */\n      tag_268\n      jumpi\n        /* \"contracts/utils/BytesUtils.sol\":302:308  source */\n      dup6\n        /* \"contracts/utils/BytesUtils.sol\":309:310  i */\n      dup2\n        /* \"contracts/utils/BytesUtils.sol\":302:311  source[i] */\n      dup2\n      mload\n      dup2\n      lt\n      tag_272\n      jumpi\n      mstore(0x00, 0x4e487b7100000000000000000000000000000000000000000000000000000000)\n      mstore(0x04, 0x32)\n      revert(0x00, 0x24)\n    tag_272:\n      0x20\n      add\n      add\n      mload\n      0xf8\n      shr\n      0xf8\n      shl\n        /* \"contracts/utils/BytesUtils.sol\":295:296  a */\n      dup3\n        /* \"contracts/utils/BytesUtils.sol\":297:298  i */\n      dup3\n        /* \"contracts/utils/BytesUtils.sol\":295:299  a[i] */\n      dup2\n      mload\n      dup2\n      lt\n      tag_273\n      jumpi\n      mstore(0x00, 0x4e487b7100000000000000000000000000000000000000000000000000000000)\n      mstore(0x04, 0x32)\n      revert(0x00, 0x24)\n    tag_273:\n      0x20\n      add\n      add\n        /* \"contracts/utils/BytesUtils.sol\":295:311  a[i] = source[i] */\n      swap1\n      not(0xffffffffffffffffffffffffffffffffffffffffffffffffffffffffffffff)\n      and\n      swap1\n      dup2\n      0x00\n      byte\n      swap1\n      mstore8\n      pop\n        /* \"contracts/utils/BytesUtils.sol\":276:279  i++ */\n      dup1\n      dup1\n      tag_274\n      swap1\n      tag_275\n      jump\t// in\n    tag_274:\n      swap2\n      pop\n      pop\n        /* \"contracts/utils/BytesUtils.sol\":248:323  for(uint i=0;i<=end-start-1;i++){\r... */\n      jump(tag_267)\n    tag_268:\n      pop\n        /* \"contracts/utils/BytesUtils.sol\":340:341  a */\n      dup1\n        /* \"contracts/utils/BytesUtils.sol\":333:341  return a */\n      swap2\n      pop\n      pop\n        /* \"contracts/utils/BytesUtils.sol\":86:349  function slice(bytes memory source, uint256 start, uint256 end) internal pure returns (bytes memory) {\r... */\n      swap4\n      swap3\n      pop\n      pop\n      pop\n      jump\t// out\n        /* \"@openzeppelin/contracts/security/Pausable.sol\":1863:1978  function _pause() internal virtual whenNotPaused {... */\n    tag_214:\n        /* \"@openzeppelin/contracts/security/Pausable.sol\":1412:1420  paused() */\n      tag_277\n        /* \"@openzeppelin/contracts/security/Pausable.sol\":1412:1418  paused */\n      tag_59\n        /* \"@openzeppelin/contracts/security/Pausable.sol\":1412:1420  paused() */\n      jump\t// in\n    tag_277:\n        /* \"@openzeppelin/contracts/security/Pausable.sol\":1411:1420  !paused() */\n      iszero\n        /* \"@openzeppelin/contracts/security/Pausable.sol\":1403:1441  require(!paused(), \"Pausable: paused\") */\n      tag_278\n      jumpi\n      mload(0x40)\n      0x08c379a000000000000000000000000000000000000000000000000000000000\n      dup2\n      mstore\n      0x04\n      add\n      tag_279\n      swap1\n      tag_146\n      jump\t// in\n    tag_279:\n      mload(0x40)\n      dup1\n      swap2\n      sub\n      swap1\n      revert\n    tag_278:\n        /* \"@openzeppelin/contracts/security/Pausable.sol\":1932:1936  true */\n      0x01\n        /* \"@openzeppelin/contracts/security/Pausable.sol\":1922:1929  _paused */\n      0x00\n      dup1\n        /* \"@openzeppelin/contracts/security/Pausable.sol\":1922:1936  _paused = true */\n      0x0100\n      exp\n      dup2\n      sload\n      dup2\n      0xff\n      mul\n      not\n      and\n      swap1\n      dup4\n      iszero\n      iszero\n      mul\n      or\n      swap1\n      sstore\n      pop\n        /* \"@openzeppelin/contracts/security/Pausable.sol\":1951:1971  Paused(_msgSender()) */\n      0x62e78cea01bee320cd4e420270b5ea74000d11b0c9f74754ebdbfc544b05a258\n        /* \"@openzeppelin/contracts/security/Pausable.sol\":1958:1970  _msgSender() */\n      tag_281\n        /* \"@openzeppelin/contracts/security/Pausable.sol\":1958:1968  _msgSender */\n      tag_101\n        /* \"@openzeppelin/contracts/security/Pausable.sol\":1958:1970  _msgSender() */\n      jump\t// in\n    tag_281:\n        /* \"@openzeppelin/contracts/security/Pausable.sol\":1951:1971  Paused(_msgSender()) */\n      mload(0x40)\n      tag_282\n      swap2\n      swap1\n      tag_262\n      jump\t// in\n    tag_282:\n      mload(0x40)\n      dup1\n      swap2\n      sub\n      swap1\n      log1\n        /* \"@openzeppelin/contracts/security/Pausable.sol\":1863:1978  function _pause() internal virtual whenNotPaused {... */\n      jump\t// out\n        /* \"@openzeppelin/contracts/utils/Strings.sol\":1588:2029  function toHexString(uint256 value, uint256 length) internal pure returns (string memory) {... */\n    tag_239:\n        /* \"@openzeppelin/contracts/utils/Strings.sol\":1663:1676  string memory */\n      0x60\n        /* \"@openzeppelin/contracts/utils/Strings.sol\":1688:1707  bytes memory buffer */\n      0x00\n        /* \"@openzeppelin/contracts/utils/Strings.sol\":1733:1734  2 */\n      0x02\n        /* \"@openzeppelin/contracts/utils/Strings.sol\":1724:1730  length */\n      dup4\n        /* \"@openzeppelin/contracts/utils/Strings.sol\":1720:1721  2 */\n      0x02\n        /* \"@openzeppelin/contracts/utils/Strings.sol\":1720:1730  2 * length */\n      tag_284\n      swap2\n      swap1\n      tag_285\n      jump\t// in\n    tag_284:\n        /* \"@openzeppelin/contracts/utils/Strings.sol\":1720:1734  2 * length + 2 */\n      tag_286\n      swap2\n      swap1\n      tag_105\n      jump\t// in\n    tag_286:\n        /* \"@openzeppelin/contracts/utils/Strings.sol\":1710:1735  new bytes(2 * length + 2) */\n      0xffffffffffffffff\n      dup2\n      gt\n      iszero\n      tag_287\n      jumpi\n      mstore(0x00, 0x4e487b7100000000000000000000000000000000000000000000000000000000)\n      mstore(0x04, 0x41)\n      revert(0x00, 0x24)\n    tag_287:\n      mload(0x40)\n      swap1\n      dup1\n      dup3\n      mstore\n      dup1\n      0x1f\n      add\n      not(0x1f)\n      and\n      0x20\n      add\n      dup3\n      add\n      0x40\n      mstore\n      dup1\n      iszero\n      tag_288\n      jumpi\n      dup2\n      0x20\n      add\n      0x01\n      dup3\n      mul\n      dup1\n      calldatasize\n      dup4\n      calldatacopy\n      dup1\n      dup3\n      add\n      swap2\n      pop\n      pop\n      swap1\n      pop\n    tag_288:\n      pop\n        /* \"@openzeppelin/contracts/utils/Strings.sol\":1688:1735  bytes memory buffer = new bytes(2 * length + 2) */\n      swap1\n      pop\n        /* \"@openzeppelin/contracts/utils/Strings.sol\":1745:1760  buffer[0] = \"0\" */\n      0x3000000000000000000000000000000000000000000000000000000000000000\n        /* \"@openzeppelin/contracts/utils/Strings.sol\":1745:1751  buffer */\n      dup2\n        /* \"@openzeppelin/contracts/utils/Strings.sol\":1752:1753  0 */\n      0x00\n        /* \"@openzeppelin/contracts/utils/Strings.sol\":1745:1754  buffer[0] */\n      dup2\n      mload\n      dup2\n      lt\n      tag_289\n      jumpi\n      mstore(0x00, 0x4e487b7100000000000000000000000000000000000000000000000000000000)\n      mstore(0x04, 0x32)\n      revert(0x00, 0x24)\n    tag_289:\n      0x20\n      add\n      add\n        /* \"@openzeppelin/contracts/utils/Strings.sol\":1745:1760  buffer[0] = \"0\" */\n      swap1\n      not(0xffffffffffffffffffffffffffffffffffffffffffffffffffffffffffffff)\n      and\n      swap1\n      dup2\n      0x00\n      byte\n      swap1\n      mstore8\n      pop\n        /* \"@openzeppelin/contracts/utils/Strings.sol\":1770:1785  buffer[1] = \"x\" */\n      0x7800000000000000000000000000000000000000000000000000000000000000\n        /* \"@openzeppelin/contracts/utils/Strings.sol\":1770:1776  buffer */\n      dup2\n        /* \"@openzeppelin/contracts/utils/Strings.sol\":1777:1778  1 */\n      0x01\n        /* \"@openzeppelin/contracts/utils/Strings.sol\":1770:1779  buffer[1] */\n      dup2\n      mload\n      dup2\n      lt\n      tag_290\n      jumpi\n      mstore(0x00, 0x4e487b7100000000000000000000000000000000000000000000000000000000)\n      mstore(0x04, 0x32)\n      revert(0x00, 0x24)\n    tag_290:\n      0x20\n      add\n      add\n        /* \"@openzeppelin/contracts/utils/Strings.sol\":1770:1785  buffer[1] = \"x\" */\n      swap1\n      not(0xffffffffffffffffffffffffffffffffffffffffffffffffffffffffffffff)\n      and\n      swap1\n      dup2\n      0x00\n      byte\n      swap1\n      mstore8\n      pop\n        /* \"@openzeppelin/contracts/utils/Strings.sol\":1800:1809  uint256 i */\n      0x00\n        /* \"@openzeppelin/contracts/utils/Strings.sol\":1825:1826  1 */\n      0x01\n        /* \"@openzeppelin/contracts/utils/Strings.sol\":1816:1822  length */\n      dup5\n        /* \"@openzeppelin/contracts/utils/Strings.sol\":1812:1813  2 */\n      0x02\n        /* \"@openzeppelin/contracts/utils/Strings.sol\":1812:1822  2 * length */\n      tag_294\n      swap2\n      swap1\n      tag_285\n      jump\t// in\n    tag_294:\n        /* \"@openzeppelin/contracts/utils/Strings.sol\":1812:1826  2 * length + 1 */\n      tag_295\n      swap2\n      swap1\n      tag_105\n      jump\t// in\n    tag_295:\n        /* \"@openzeppelin/contracts/utils/Strings.sol\":1800:1826  uint256 i = 2 * length + 1 */\n      swap1\n      pop\n        /* \"@openzeppelin/contracts/utils/Strings.sol\":1795:1927  for (uint256 i = 2 * length + 1; i > 1; --i) {... */\n    tag_291:\n        /* \"@openzeppelin/contracts/utils/Strings.sol\":1832:1833  1 */\n      0x01\n        /* \"@openzeppelin/contracts/utils/Strings.sol\":1828:1829  i */\n      dup2\n        /* \"@openzeppelin/contracts/utils/Strings.sol\":1828:1833  i > 1 */\n      gt\n        /* \"@openzeppelin/contracts/utils/Strings.sol\":1795:1927  for (uint256 i = 2 * length + 1; i > 1; --i) {... */\n      iszero\n      tag_292\n      jumpi\n        /* \"@openzeppelin/contracts/utils/Strings.sol\":1866:1878  _HEX_SYMBOLS */\n      0x3031323334353637383961626364656600000000000000000000000000000000\n        /* \"@openzeppelin/contracts/utils/Strings.sol\":1887:1890  0xf */\n      0x0f\n        /* \"@openzeppelin/contracts/utils/Strings.sol\":1879:1884  value */\n      dup7\n        /* \"@openzeppelin/contracts/utils/Strings.sol\":1879:1890  value & 0xf */\n      and\n        /* \"@openzeppelin/contracts/utils/Strings.sol\":1866:1891  _HEX_SYMBOLS[value & 0xf] */\n      0x10\n      dup2\n      lt\n      tag_296\n      jumpi\n      mstore(0x00, 0x4e487b7100000000000000000000000000000000000000000000000000000000)\n      mstore(0x04, 0x32)\n      revert(0x00, 0x24)\n    tag_296:\n      byte\n      0xf8\n      shl\n        /* \"@openzeppelin/contracts/utils/Strings.sol\":1854:1860  buffer */\n      dup3\n        /* \"@openzeppelin/contracts/utils/Strings.sol\":1861:1862  i */\n      dup3\n        /* \"@openzeppelin/contracts/utils/Strings.sol\":1854:1863  buffer[i] */\n      dup2\n      mload\n      dup2\n      lt\n      tag_297\n      jumpi\n      mstore(0x00, 0x4e487b7100000000000000000000000000000000000000000000000000000000)\n      mstore(0x04, 0x32)\n      revert(0x00, 0x24)\n    tag_297:\n      0x20\n      add\n      add\n        /* \"@openzeppelin/contracts/utils/Strings.sol\":1854:1891  buffer[i] = _HEX_SYMBOLS[value & 0xf] */\n      swap1\n      not(0xffffffffffffffffffffffffffffffffffffffffffffffffffffffffffffff)\n      and\n      swap1\n      dup2\n      0x00\n      byte\n      swap1\n      mstore8\n      pop\n        /* \"@openzeppelin/contracts/utils/Strings.sol\":1915:1916  4 */\n      0x04\n        /* \"@openzeppelin/contracts/utils/Strings.sol\":1905:1916  value >>= 4 */\n      dup6\n      swap1\n      shr\n      swap5\n      pop\n        /* \"@openzeppelin/contracts/utils/Strings.sol\":1835:1838  --i */\n      dup1\n      tag_298\n      swap1\n      tag_299\n      jump\t// in\n    tag_298:\n      swap1\n      pop\n        /* \"@openzeppelin/contracts/utils/Strings.sol\":1795:1927  for (uint256 i = 2 * length + 1; i > 1; --i) {... */\n      jump(tag_291)\n    tag_292:\n      pop\n        /* \"@openzeppelin/contracts/utils/Strings.sol\":1953:1954  0 */\n      0x00\n        /* \"@openzeppelin/contracts/utils/Strings.sol\":1944:1949  value */\n      dup5\n        /* \"@openzeppelin/contracts/utils/Strings.sol\":1944:1954  value == 0 */\n      eq\n        /* \"@openzeppelin/contracts/utils/Strings.sol\":1936:1991  require(value == 0, \"Strings: hex length insufficient\") */\n      tag_300\n      jumpi\n      mload(0x40)\n      0x08c379a000000000000000000000000000000000000000000000000000000000\n      dup2\n      mstore\n      0x04\n      add\n      tag_301\n      swap1\n      tag_302\n      jump\t// in\n    tag_301:\n      mload(0x40)\n      dup1\n      swap2\n      sub\n      swap1\n      revert\n    tag_300:\n        /* \"@openzeppelin/contracts/utils/Strings.sol\":2015:2021  buffer */\n      dup1\n        /* \"@openzeppelin/contracts/utils/Strings.sol\":2001:2022  return string(buffer) */\n      swap2\n      pop\n      pop\n        /* \"@openzeppelin/contracts/utils/Strings.sol\":1588:2029  function toHexString(uint256 value, uint256 length) internal pure returns (string memory) {... */\n      swap3\n      swap2\n      pop\n      pop\n      jump\t// out\n        /* \"#utility.yul\":7:350   */\n    tag_304:\n        /* \"#utility.yul\":84:89   */\n      0x00\n        /* \"#utility.yul\":109:174   */\n      tag_306\n        /* \"#utility.yul\":125:173   */\n      tag_307\n        /* \"#utility.yul\":166:172   */\n      dup5\n        /* \"#utility.yul\":125:173   */\n      tag_308\n      jump\t// in\n    tag_307:\n        /* \"#utility.yul\":109:174   */\n      tag_309\n      jump\t// in\n    tag_306:\n        /* \"#utility.yul\":100:174   */\n      swap1\n      pop\n        /* \"#utility.yul\":197:203   */\n      dup3\n        /* \"#utility.yul\":190:195   */\n      dup2\n        /* \"#utility.yul\":183:204   */\n      mstore\n        /* \"#utility.yul\":235:239   */\n      0x20\n        /* \"#utility.yul\":228:233   */\n      dup2\n        /* \"#utility.yul\":224:240   */\n      add\n        /* \"#utility.yul\":273:276   */\n      dup5\n        /* \"#utility.yul\":264:270   */\n      dup5\n        /* \"#utility.yul\":259:262   */\n      dup5\n        /* \"#utility.yul\":255:271   */\n      add\n        /* \"#utility.yul\":252:277   */\n      gt\n        /* \"#utility.yul\":249:251   */\n      iszero\n      tag_310\n      jumpi\n        /* \"#utility.yul\":290:291   */\n      0x00\n        /* \"#utility.yul\":287:288   */\n      dup1\n        /* \"#utility.yul\":280:292   */\n      revert\n        /* \"#utility.yul\":249:251   */\n    tag_310:\n        /* \"#utility.yul\":303:344   */\n      tag_311\n        /* \"#utility.yul\":337:343   */\n      dup5\n        /* \"#utility.yul\":332:335   */\n      dup3\n        /* \"#utility.yul\":327:330   */\n      dup6\n        /* \"#utility.yul\":303:344   */\n      tag_312\n      jump\t// in\n    tag_311:\n        /* \"#utility.yul\":90:350   */\n      pop\n      swap4\n      swap3\n      pop\n      pop\n      pop\n      jump\t// out\n        /* \"#utility.yul\":356:708   */\n    tag_313:\n        /* \"#utility.yul\":444:449   */\n      0x00\n        /* \"#utility.yul\":469:534   */\n      tag_315\n        /* \"#utility.yul\":485:533   */\n      tag_316\n        /* \"#utility.yul\":526:532   */\n      dup5\n        /* \"#utility.yul\":485:533   */\n      tag_308\n      jump\t// in\n    tag_316:\n        /* \"#utility.yul\":469:534   */\n      tag_309\n      jump\t// in\n    tag_315:\n        /* \"#utility.yul\":460:534   */\n      swap1\n      pop\n        /* \"#utility.yul\":557:563   */\n      dup3\n        /* \"#utility.yul\":550:555   */\n      dup2\n        /* \"#utility.yul\":543:564   */\n      mstore\n        /* \"#utility.yul\":595:599   */\n      0x20\n        /* \"#utility.yul\":588:593   */\n      dup2\n        /* \"#utility.yul\":584:600   */\n      add\n        /* \"#utility.yul\":633:636   */\n      dup5\n        /* \"#utility.yul\":624:630   */\n      dup5\n        /* \"#utility.yul\":619:622   */\n      dup5\n        /* \"#utility.yul\":615:631   */\n      add\n        /* \"#utility.yul\":612:637   */\n      gt\n        /* \"#utility.yul\":609:611   */\n      iszero\n      tag_317\n      jumpi\n        /* \"#utility.yul\":650:651   */\n      0x00\n        /* \"#utility.yul\":647:648   */\n      dup1\n        /* \"#utility.yul\":640:652   */\n      revert\n        /* \"#utility.yul\":609:611   */\n    tag_317:\n        /* \"#utility.yul\":663:702   */\n      tag_318\n        /* \"#utility.yul\":695:701   */\n      dup5\n        /* \"#utility.yul\":690:693   */\n      dup3\n        /* \"#utility.yul\":685:688   */\n      dup6\n        /* \"#utility.yul\":663:702   */\n      tag_319\n      jump\t// in\n    tag_318:\n        /* \"#utility.yul\":450:708   */\n      pop\n      swap4\n      swap3\n      pop\n      pop\n      pop\n      jump\t// out\n        /* \"#utility.yul\":714:853   */\n    tag_320:\n        /* \"#utility.yul\":760:765   */\n      0x00\n        /* \"#utility.yul\":798:804   */\n      dup2\n        /* \"#utility.yul\":785:805   */\n      calldataload\n        /* \"#utility.yul\":776:805   */\n      swap1\n      pop\n        /* \"#utility.yul\":814:847   */\n      tag_322\n        /* \"#utility.yul\":841:846   */\n      dup2\n        /* \"#utility.yul\":814:847   */\n      tag_323\n      jump\t// in\n    tag_322:\n        /* \"#utility.yul\":766:853   */\n      swap3\n      swap2\n      pop\n      pop\n      jump\t// out\n        /* \"#utility.yul\":859:998   */\n    tag_324:\n        /* \"#utility.yul\":905:910   */\n      0x00\n        /* \"#utility.yul\":943:949   */\n      dup2\n        /* \"#utility.yul\":930:950   */\n      calldataload\n        /* \"#utility.yul\":921:950   */\n      swap1\n      pop\n        /* \"#utility.yul\":959:992   */\n      tag_326\n        /* \"#utility.yul\":986:991   */\n      dup2\n        /* \"#utility.yul\":959:992   */\n      tag_327\n      jump\t// in\n    tag_326:\n        /* \"#utility.yul\":911:998   */\n      swap3\n      swap2\n      pop\n      pop\n      jump\t// out\n        /* \"#utility.yul\":1004:1147   */\n    tag_328:\n        /* \"#utility.yul\":1061:1066   */\n      0x00\n        /* \"#utility.yul\":1092:1098   */\n      dup2\n        /* \"#utility.yul\":1086:1099   */\n      mload\n        /* \"#utility.yul\":1077:1099   */\n      swap1\n      pop\n        /* \"#utility.yul\":1108:1141   */\n      tag_330\n        /* \"#utility.yul\":1135:1140   */\n      dup2\n        /* \"#utility.yul\":1108:1141   */\n      tag_327\n      jump\t// in\n    tag_330:\n        /* \"#utility.yul\":1067:1147   */\n      swap3\n      swap2\n      pop\n      pop\n      jump\t// out\n        /* \"#utility.yul\":1153:1290   */\n    tag_331:\n        /* \"#utility.yul\":1198:1203   */\n      0x00\n        /* \"#utility.yul\":1236:1242   */\n      dup2\n        /* \"#utility.yul\":1223:1243   */\n      calldataload\n        /* \"#utility.yul\":1214:1243   */\n      swap1\n      pop\n        /* \"#utility.yul\":1252:1284   */\n      tag_333\n        /* \"#utility.yul\":1278:1283   */\n      dup2\n        /* \"#utility.yul\":1252:1284   */\n      tag_334\n      jump\t// in\n    tag_333:\n        /* \"#utility.yul\":1204:1290   */\n      swap3\n      swap2\n      pop\n      pop\n      jump\t// out\n        /* \"#utility.yul\":1309:1580   */\n    tag_335:\n        /* \"#utility.yul\":1364:1369   */\n      0x00\n        /* \"#utility.yul\":1413:1416   */\n      dup3\n        /* \"#utility.yul\":1406:1410   */\n      0x1f\n        /* \"#utility.yul\":1398:1404   */\n      dup4\n        /* \"#utility.yul\":1394:1411   */\n      add\n        /* \"#utility.yul\":1390:1417   */\n      slt\n        /* \"#utility.yul\":1380:1382   */\n      tag_337\n      jumpi\n        /* \"#utility.yul\":1431:1432   */\n      0x00\n        /* \"#utility.yul\":1428:1429   */\n      dup1\n        /* \"#utility.yul\":1421:1433   */\n      revert\n        /* \"#utility.yul\":1380:1382   */\n    tag_337:\n        /* \"#utility.yul\":1471:1477   */\n      dup2\n        /* \"#utility.yul\":1458:1478   */\n      calldataload\n        /* \"#utility.yul\":1496:1574   */\n      tag_338\n        /* \"#utility.yul\":1570:1573   */\n      dup5\n        /* \"#utility.yul\":1562:1568   */\n      dup3\n        /* \"#utility.yul\":1555:1559   */\n      0x20\n        /* \"#utility.yul\":1547:1553   */\n      dup7\n        /* \"#utility.yul\":1543:1560   */\n      add\n        /* \"#utility.yul\":1496:1574   */\n      tag_304\n      jump\t// in\n    tag_338:\n        /* \"#utility.yul\":1487:1574   */\n      swap2\n      pop\n        /* \"#utility.yul\":1370:1580   */\n      pop\n      swap3\n      swap2\n      pop\n      pop\n      jump\t// out\n        /* \"#utility.yul\":1599:1885   */\n    tag_339:\n        /* \"#utility.yul\":1665:1670   */\n      0x00\n        /* \"#utility.yul\":1714:1717   */\n      dup3\n        /* \"#utility.yul\":1707:1711   */\n      0x1f\n        /* \"#utility.yul\":1699:1705   */\n      dup4\n        /* \"#utility.yul\":1695:1712   */\n      add\n        /* \"#utility.yul\":1691:1718   */\n      slt\n        /* \"#utility.yul\":1681:1683   */\n      tag_341\n      jumpi\n        /* \"#utility.yul\":1732:1733   */\n      0x00\n        /* \"#utility.yul\":1729:1730   */\n      dup1\n        /* \"#utility.yul\":1722:1734   */\n      revert\n        /* \"#utility.yul\":1681:1683   */\n    tag_341:\n        /* \"#utility.yul\":1765:1771   */\n      dup2\n        /* \"#utility.yul\":1759:1772   */\n      mload\n        /* \"#utility.yul\":1790:1879   */\n      tag_342\n        /* \"#utility.yul\":1875:1878   */\n      dup5\n        /* \"#utility.yul\":1867:1873   */\n      dup3\n        /* \"#utility.yul\":1860:1864   */\n      0x20\n        /* \"#utility.yul\":1852:1858   */\n      dup7\n        /* \"#utility.yul\":1848:1865   */\n      add\n        /* \"#utility.yul\":1790:1879   */\n      tag_313\n      jump\t// in\n    tag_342:\n        /* \"#utility.yul\":1781:1879   */\n      swap2\n      pop\n        /* \"#utility.yul\":1671:1885   */\n      pop\n      swap3\n      swap2\n      pop\n      pop\n      jump\t// out\n        /* \"#utility.yul\":1891:2030   */\n    tag_343:\n        /* \"#utility.yul\":1937:1942   */\n      0x00\n        /* \"#utility.yul\":1975:1981   */\n      dup2\n        /* \"#utility.yul\":1962:1982   */\n      calldataload\n        /* \"#utility.yul\":1953:1982   */\n      swap1\n      pop\n        /* \"#utility.yul\":1991:2024   */\n      tag_345\n        /* \"#utility.yul\":2018:2023   */\n      dup2\n        /* \"#utility.yul\":1991:2024   */\n      tag_346\n      jump\t// in\n    tag_345:\n        /* \"#utility.yul\":1943:2030   */\n      swap3\n      swap2\n      pop\n      pop\n      jump\t// out\n        /* \"#utility.yul\":2036:2699   */\n    tag_63:\n        /* \"#utility.yul\":2122:2128   */\n      0x00\n        /* \"#utility.yul\":2130:2136   */\n      dup1\n        /* \"#utility.yul\":2138:2144   */\n      0x00\n        /* \"#utility.yul\":2187:2189   */\n      0x60\n        /* \"#utility.yul\":2175:2184   */\n      dup5\n        /* \"#utility.yul\":2166:2173   */\n      dup7\n        /* \"#utility.yul\":2162:2185   */\n      sub\n        /* \"#utility.yul\":2158:2190   */\n      slt\n        /* \"#utility.yul\":2155:2157   */\n      iszero\n      tag_348\n      jumpi\n        /* \"#utility.yul\":2203:2204   */\n      0x00\n        /* \"#utility.yul\":2200:2201   */\n      dup1\n        /* \"#utility.yul\":2193:2205   */\n      revert\n        /* \"#utility.yul\":2155:2157   */\n    tag_348:\n        /* \"#utility.yul\":2246:2247   */\n      0x00\n        /* \"#utility.yul\":2271:2324   */\n      tag_349\n        /* \"#utility.yul\":2316:2323   */\n      dup7\n        /* \"#utility.yul\":2307:2313   */\n      dup3\n        /* \"#utility.yul\":2296:2305   */\n      dup8\n        /* \"#utility.yul\":2292:2314   */\n      add\n        /* \"#utility.yul\":2271:2324   */\n      tag_320\n      jump\t// in\n    tag_349:\n        /* \"#utility.yul\":2261:2324   */\n      swap4\n      pop\n        /* \"#utility.yul\":2217:2334   */\n      pop\n        /* \"#utility.yul\":2373:2375   */\n      0x20\n        /* \"#utility.yul\":2399:2452   */\n      tag_350\n        /* \"#utility.yul\":2444:2451   */\n      dup7\n        /* \"#utility.yul\":2435:2441   */\n      dup3\n        /* \"#utility.yul\":2424:2433   */\n      dup8\n        /* \"#utility.yul\":2420:2442   */\n      add\n        /* \"#utility.yul\":2399:2452   */\n      tag_324\n      jump\t// in\n    tag_350:\n        /* \"#utility.yul\":2389:2452   */\n      swap3\n      pop\n        /* \"#utility.yul\":2344:2462   */\n      pop\n        /* \"#utility.yul\":2529:2531   */\n      0x40\n        /* \"#utility.yul\":2518:2527   */\n      dup5\n        /* \"#utility.yul\":2514:2532   */\n      add\n        /* \"#utility.yul\":2501:2533   */\n      calldataload\n        /* \"#utility.yul\":2560:2578   */\n      0xffffffffffffffff\n        /* \"#utility.yul\":2552:2558   */\n      dup2\n        /* \"#utility.yul\":2549:2579   */\n      gt\n        /* \"#utility.yul\":2546:2548   */\n      iszero\n      tag_351\n      jumpi\n        /* \"#utility.yul\":2592:2593   */\n      0x00\n        /* \"#utility.yul\":2589:2590   */\n      dup1\n        /* \"#utility.yul\":2582:2594   */\n      revert\n        /* \"#utility.yul\":2546:2548   */\n    tag_351:\n        /* \"#utility.yul\":2620:2682   */\n      tag_352\n        /* \"#utility.yul\":2674:2681   */\n      dup7\n        /* \"#utility.yul\":2665:2671   */\n      dup3\n        /* \"#utility.yul\":2654:2663   */\n      dup8\n        /* \"#utility.yul\":2650:2672   */\n      add\n        /* \"#utility.yul\":2620:2682   */\n      tag_335\n      jump\t// in\n    tag_352:\n        /* \"#utility.yul\":2610:2682   */\n      swap2\n      pop\n        /* \"#utility.yul\":2472:2692   */\n      pop\n        /* \"#utility.yul\":2145:2699   */\n      swap3\n      pop\n      swap3\n      pop\n      swap3\n      jump\t// out\n        /* \"#utility.yul\":2705:2967   */\n    tag_38:\n        /* \"#utility.yul\":2764:2770   */\n      0x00\n        /* \"#utility.yul\":2813:2815   */\n      0x20\n        /* \"#utility.yul\":2801:2810   */\n      dup3\n        /* \"#utility.yul\":2792:2799   */\n      dup5\n        /* \"#utility.yul\":2788:2811   */\n      sub\n        /* \"#utility.yul\":2784:2816   */\n      slt\n        /* \"#utility.yul\":2781:2783   */\n      iszero\n      tag_354\n      jumpi\n        /* \"#utility.yul\":2829:2830   */\n      0x00\n        /* \"#utility.yul\":2826:2827   */\n      dup1\n        /* \"#utility.yul\":2819:2831   */\n      revert\n        /* \"#utility.yul\":2781:2783   */\n    tag_354:\n        /* \"#utility.yul\":2872:2873   */\n      0x00\n        /* \"#utility.yul\":2897:2950   */\n      tag_355\n        /* \"#utility.yul\":2942:2949   */\n      dup5\n        /* \"#utility.yul\":2933:2939   */\n      dup3\n        /* \"#utility.yul\":2922:2931   */\n      dup6\n        /* \"#utility.yul\":2918:2940   */\n      add\n        /* \"#utility.yul\":2897:2950   */\n      tag_324\n      jump\t// in\n    tag_355:\n        /* \"#utility.yul\":2887:2950   */\n      swap2\n      pop\n        /* \"#utility.yul\":2843:2960   */\n      pop\n        /* \"#utility.yul\":2771:2967   */\n      swap3\n      swap2\n      pop\n      pop\n      jump\t// out\n        /* \"#utility.yul\":2973:3257   */\n    tag_172:\n        /* \"#utility.yul\":3043:3049   */\n      0x00\n        /* \"#utility.yul\":3092:3094   */\n      0x20\n        /* \"#utility.yul\":3080:3089   */\n      dup3\n        /* \"#utility.yul\":3071:3078   */\n      dup5\n        /* \"#utility.yul\":3067:3090   */\n      sub\n        /* \"#utility.yul\":3063:3095   */\n      slt\n        /* \"#utility.yul\":3060:3062   */\n      iszero\n      tag_357\n      jumpi\n        /* \"#utility.yul\":3108:3109   */\n      0x00\n        /* \"#utility.yul\":3105:3106   */\n      dup1\n        /* \"#utility.yul\":3098:3110   */\n      revert\n        /* \"#utility.yul\":3060:3062   */\n    tag_357:\n        /* \"#utility.yul\":3151:3152   */\n      0x00\n        /* \"#utility.yul\":3176:3240   */\n      tag_358\n        /* \"#utility.yul\":3232:3239   */\n      dup5\n        /* \"#utility.yul\":3223:3229   */\n      dup3\n        /* \"#utility.yul\":3212:3221   */\n      dup6\n        /* \"#utility.yul\":3208:3230   */\n      add\n        /* \"#utility.yul\":3176:3240   */\n      tag_328\n      jump\t// in\n    tag_358:\n        /* \"#utility.yul\":3166:3240   */\n      swap2\n      pop\n        /* \"#utility.yul\":3122:3250   */\n      pop\n        /* \"#utility.yul\":3050:3257   */\n      swap3\n      swap2\n      pop\n      pop\n      jump\t// out\n        /* \"#utility.yul\":3263:3670   */\n    tag_44:\n        /* \"#utility.yul\":3331:3337   */\n      0x00\n        /* \"#utility.yul\":3339:3345   */\n      dup1\n        /* \"#utility.yul\":3388:3390   */\n      0x40\n        /* \"#utility.yul\":3376:3385   */\n      dup4\n        /* \"#utility.yul\":3367:3374   */\n      dup6\n        /* \"#utility.yul\":3363:3386   */\n      sub\n        /* \"#utility.yul\":3359:3391   */\n      slt\n        /* \"#utility.yul\":3356:3358   */\n      iszero\n      tag_360\n      jumpi\n        /* \"#utility.yul\":3404:3405   */\n      0x00\n        /* \"#utility.yul\":3401:3402   */\n      dup1\n        /* \"#utility.yul\":3394:3406   */\n      revert\n        /* \"#utility.yul\":3356:3358   */\n    tag_360:\n        /* \"#utility.yul\":3447:3448   */\n      0x00\n        /* \"#utility.yul\":3472:3525   */\n      tag_361\n        /* \"#utility.yul\":3517:3524   */\n      dup6\n        /* \"#utility.yul\":3508:3514   */\n      dup3\n        /* \"#utility.yul\":3497:3506   */\n      dup7\n        /* \"#utility.yul\":3493:3515   */\n      add\n        /* \"#utility.yul\":3472:3525   */\n      tag_324\n      jump\t// in\n    tag_361:\n        /* \"#utility.yul\":3462:3525   */\n      swap3\n      pop\n        /* \"#utility.yul\":3418:3535   */\n      pop\n        /* \"#utility.yul\":3574:3576   */\n      0x20\n        /* \"#utility.yul\":3600:3653   */\n      tag_362\n        /* \"#utility.yul\":3645:3652   */\n      dup6\n        /* \"#utility.yul\":3636:3642   */\n      dup3\n        /* \"#utility.yul\":3625:3634   */\n      dup7\n        /* \"#utility.yul\":3621:3643   */\n      add\n        /* \"#utility.yul\":3600:3653   */\n      tag_320\n      jump\t// in\n    tag_362:\n        /* \"#utility.yul\":3590:3653   */\n      swap2\n      pop\n        /* \"#utility.yul\":3545:3663   */\n      pop\n        /* \"#utility.yul\":3346:3670   */\n      swap3\n      pop\n      swap3\n      swap1\n      pop\n      jump\t// out\n        /* \"#utility.yul\":3676:3936   */\n    tag_32:\n        /* \"#utility.yul\":3734:3740   */\n      0x00\n        /* \"#utility.yul\":3783:3785   */\n      0x20\n        /* \"#utility.yul\":3771:3780   */\n      dup3\n        /* \"#utility.yul\":3762:3769   */\n      dup5\n        /* \"#utility.yul\":3758:3781   */\n      sub\n        /* \"#utility.yul\":3754:3786   */\n      slt\n        /* \"#utility.yul\":3751:3753   */\n      iszero\n      tag_364\n      jumpi\n        /* \"#utility.yul\":3799:3800   */\n      0x00\n        /* \"#utility.yul\":3796:3797   */\n      dup1\n        /* \"#utility.yul\":3789:3801   */\n      revert\n        /* \"#utility.yul\":3751:3753   */\n    tag_364:\n        /* \"#utility.yul\":3842:3843   */\n      0x00\n        /* \"#utility.yul\":3867:3919   */\n      tag_365\n        /* \"#utility.yul\":3911:3918   */\n      dup5\n        /* \"#utility.yul\":3902:3908   */\n      dup3\n        /* \"#utility.yul\":3891:3900   */\n      dup6\n        /* \"#utility.yul\":3887:3909   */\n      add\n        /* \"#utility.yul\":3867:3919   */\n      tag_331\n      jump\t// in\n    tag_365:\n        /* \"#utility.yul\":3857:3919   */\n      swap2\n      pop\n        /* \"#utility.yul\":3813:3929   */\n      pop\n        /* \"#utility.yul\":3741:3936   */\n      swap3\n      swap2\n      pop\n      pop\n      jump\t// out\n        /* \"#utility.yul\":3942:4315   */\n    tag_48:\n        /* \"#utility.yul\":4010:4016   */\n      0x00\n        /* \"#utility.yul\":4059:4061   */\n      0x20\n        /* \"#utility.yul\":4047:4056   */\n      dup3\n        /* \"#utility.yul\":4038:4045   */\n      dup5\n        /* \"#utility.yul\":4034:4057   */\n      sub\n        /* \"#utility.yul\":4030:4062   */\n      slt\n        /* \"#utility.yul\":4027:4029   */\n      iszero\n      tag_367\n      jumpi\n        /* \"#utility.yul\":4075:4076   */\n      0x00\n        /* \"#utility.yul\":4072:4073   */\n      dup1\n        /* \"#utility.yul\":4065:4077   */\n      revert\n        /* \"#utility.yul\":4027:4029   */\n    tag_367:\n        /* \"#utility.yul\":4146:4147   */\n      0x00\n        /* \"#utility.yul\":4135:4144   */\n      dup3\n        /* \"#utility.yul\":4131:4148   */\n      add\n        /* \"#utility.yul\":4118:4149   */\n      calldataload\n        /* \"#utility.yul\":4176:4194   */\n      0xffffffffffffffff\n        /* \"#utility.yul\":4168:4174   */\n      dup2\n        /* \"#utility.yul\":4165:4195   */\n      gt\n        /* \"#utility.yul\":4162:4164   */\n      iszero\n      tag_368\n      jumpi\n        /* \"#utility.yul\":4208:4209   */\n      0x00\n        /* \"#utility.yul\":4205:4206   */\n      dup1\n        /* \"#utility.yul\":4198:4210   */\n      revert\n        /* \"#utility.yul\":4162:4164   */\n    tag_368:\n        /* \"#utility.yul\":4236:4298   */\n      tag_369\n        /* \"#utility.yul\":4290:4297   */\n      dup5\n        /* \"#utility.yul\":4281:4287   */\n      dup3\n        /* \"#utility.yul\":4270:4279   */\n      dup6\n        /* \"#utility.yul\":4266:4288   */\n      add\n        /* \"#utility.yul\":4236:4298   */\n      tag_335\n      jump\t// in\n    tag_369:\n        /* \"#utility.yul\":4226:4298   */\n      swap2\n      pop\n        /* \"#utility.yul\":4089:4308   */\n      pop\n        /* \"#utility.yul\":4017:4315   */\n      swap3\n      swap2\n      pop\n      pop\n      jump\t// out\n        /* \"#utility.yul\":4321:4709   */\n    tag_164:\n        /* \"#utility.yul\":4400:4406   */\n      0x00\n        /* \"#utility.yul\":4449:4451   */\n      0x20\n        /* \"#utility.yul\":4437:4446   */\n      dup3\n        /* \"#utility.yul\":4428:4435   */\n      dup5\n        /* \"#utility.yul\":4424:4447   */\n      sub\n        /* \"#utility.yul\":4420:4452   */\n      slt\n        /* \"#utility.yul\":4417:4419   */\n      iszero\n      tag_371\n      jumpi\n        /* \"#utility.yul\":4465:4466   */\n      0x00\n        /* \"#utility.yul\":4462:4463   */\n      dup1\n        /* \"#utility.yul\":4455:4467   */\n      revert\n        /* \"#utility.yul\":4417:4419   */\n    tag_371:\n        /* \"#utility.yul\":4529:4530   */\n      0x00\n        /* \"#utility.yul\":4518:4527   */\n      dup3\n        /* \"#utility.yul\":4514:4531   */\n      add\n        /* \"#utility.yul\":4508:4532   */\n      mload\n        /* \"#utility.yul\":4559:4577   */\n      0xffffffffffffffff\n        /* \"#utility.yul\":4551:4557   */\n      dup2\n        /* \"#utility.yul\":4548:4578   */\n      gt\n        /* \"#utility.yul\":4545:4547   */\n      iszero\n      tag_372\n      jumpi\n        /* \"#utility.yul\":4591:4592   */\n      0x00\n        /* \"#utility.yul\":4588:4589   */\n      dup1\n        /* \"#utility.yul\":4581:4593   */\n      revert\n        /* \"#utility.yul\":4545:4547   */\n    tag_372:\n        /* \"#utility.yul\":4619:4692   */\n      tag_373\n        /* \"#utility.yul\":4684:4691   */\n      dup5\n        /* \"#utility.yul\":4675:4681   */\n      dup3\n        /* \"#utility.yul\":4664:4673   */\n      dup6\n        /* \"#utility.yul\":4660:4682   */\n      add\n        /* \"#utility.yul\":4619:4692   */\n      tag_339\n      jump\t// in\n    tag_373:\n        /* \"#utility.yul\":4609:4692   */\n      swap2\n      pop\n        /* \"#utility.yul\":4479:4702   */\n      pop\n        /* \"#utility.yul\":4407:4709   */\n      swap3\n      swap2\n      pop\n      pop\n      jump\t// out\n        /* \"#utility.yul\":4715:5233   */\n    tag_90:\n        /* \"#utility.yul\":4792:4798   */\n      0x00\n        /* \"#utility.yul\":4800:4806   */\n      dup1\n        /* \"#utility.yul\":4849:4851   */\n      0x40\n        /* \"#utility.yul\":4837:4846   */\n      dup4\n        /* \"#utility.yul\":4828:4835   */\n      dup6\n        /* \"#utility.yul\":4824:4847   */\n      sub\n        /* \"#utility.yul\":4820:4852   */\n      slt\n        /* \"#utility.yul\":4817:4819   */\n      iszero\n      tag_375\n      jumpi\n        /* \"#utility.yul\":4865:4866   */\n      0x00\n        /* \"#utility.yul\":4862:4863   */\n      dup1\n        /* \"#utility.yul\":4855:4867   */\n      revert\n        /* \"#utility.yul\":4817:4819   */\n    tag_375:\n        /* \"#utility.yul\":4936:4937   */\n      0x00\n        /* \"#utility.yul\":4925:4934   */\n      dup4\n        /* \"#utility.yul\":4921:4938   */\n      add\n        /* \"#utility.yul\":4908:4939   */\n      calldataload\n        /* \"#utility.yul\":4966:4984   */\n      0xffffffffffffffff\n        /* \"#utility.yul\":4958:4964   */\n      dup2\n        /* \"#utility.yul\":4955:4985   */\n      gt\n        /* \"#utility.yul\":4952:4954   */\n      iszero\n      tag_376\n      jumpi\n        /* \"#utility.yul\":4998:4999   */\n      0x00\n        /* \"#utility.yul\":4995:4996   */\n      dup1\n        /* \"#utility.yul\":4988:5000   */\n      revert\n        /* \"#utility.yul\":4952:4954   */\n    tag_376:\n        /* \"#utility.yul\":5026:5088   */\n      tag_377\n        /* \"#utility.yul\":5080:5087   */\n      dup6\n        /* \"#utility.yul\":5071:5077   */\n      dup3\n        /* \"#utility.yul\":5060:5069   */\n      dup7\n        /* \"#utility.yul\":5056:5078   */\n      add\n        /* \"#utility.yul\":5026:5088   */\n      tag_335\n      jump\t// in\n    tag_377:\n        /* \"#utility.yul\":5016:5088   */\n      swap3\n      pop\n        /* \"#utility.yul\":4879:5098   */\n      pop\n        /* \"#utility.yul\":5137:5139   */\n      0x20\n        /* \"#utility.yul\":5163:5216   */\n      tag_378\n        /* \"#utility.yul\":5208:5215   */\n      dup6\n        /* \"#utility.yul\":5199:5205   */\n      dup3\n        /* \"#utility.yul\":5188:5197   */\n      dup7\n        /* \"#utility.yul\":5184:5206   */\n      add\n        /* \"#utility.yul\":5163:5216   */\n      tag_343\n      jump\t// in\n    tag_378:\n        /* \"#utility.yul\":5153:5216   */\n      swap2\n      pop\n        /* \"#utility.yul\":5108:5226   */\n      pop\n        /* \"#utility.yul\":4807:5233   */\n      swap3\n      pop\n      swap3\n      swap1\n      pop\n      jump\t// out\n        /* \"#utility.yul\":5239:5501   */\n    tag_28:\n        /* \"#utility.yul\":5298:5304   */\n      0x00\n        /* \"#utility.yul\":5347:5349   */\n      0x20\n        /* \"#utility.yul\":5335:5344   */\n      dup3\n        /* \"#utility.yul\":5326:5333   */\n      dup5\n        /* \"#utility.yul\":5322:5345   */\n      sub\n        /* \"#utility.yul\":5318:5350   */\n      slt\n        /* \"#utility.yul\":5315:5317   */\n      iszero\n      tag_380\n      jumpi\n        /* \"#utility.yul\":5363:5364   */\n      0x00\n        /* \"#utility.yul\":5360:5361   */\n      dup1\n        /* \"#utility.yul\":5353:5365   */\n      revert\n        /* \"#utility.yul\":5315:5317   */\n    tag_380:\n        /* \"#utility.yul\":5406:5407   */\n      0x00\n        /* \"#utility.yul\":5431:5484   */\n      tag_381\n        /* \"#utility.yul\":5476:5483   */\n      dup5\n        /* \"#utility.yul\":5467:5473   */\n      dup3\n        /* \"#utility.yul\":5456:5465   */\n      dup6\n        /* \"#utility.yul\":5452:5474   */\n      add\n        /* \"#utility.yul\":5431:5484   */\n      tag_343\n      jump\t// in\n    tag_381:\n        /* \"#utility.yul\":5421:5484   */\n      swap2\n      pop\n        /* \"#utility.yul\":5377:5494   */\n      pop\n        /* \"#utility.yul\":5305:5501   */\n      swap3\n      swap2\n      pop\n      pop\n      jump\t// out\n        /* \"#utility.yul\":5507:5625   */\n    tag_382:\n        /* \"#utility.yul\":5594:5618   */\n      tag_384\n        /* \"#utility.yul\":5612:5617   */\n      dup2\n        /* \"#utility.yul\":5594:5618   */\n      tag_385\n      jump\t// in\n    tag_384:\n        /* \"#utility.yul\":5589:5592   */\n      dup3\n        /* \"#utility.yul\":5582:5619   */\n      mstore\n        /* \"#utility.yul\":5572:5625   */\n      pop\n      pop\n      jump\t// out\n        /* \"#utility.yul\":5631:5740   */\n    tag_386:\n        /* \"#utility.yul\":5712:5733   */\n      tag_388\n        /* \"#utility.yul\":5727:5732   */\n      dup2\n        /* \"#utility.yul\":5712:5733   */\n      tag_389\n      jump\t// in\n    tag_388:\n        /* \"#utility.yul\":5707:5710   */\n      dup3\n        /* \"#utility.yul\":5700:5734   */\n      mstore\n        /* \"#utility.yul\":5690:5740   */\n      pop\n      pop\n      jump\t// out\n        /* \"#utility.yul\":5746:5899   */\n    tag_390:\n        /* \"#utility.yul\":5849:5892   */\n      tag_392\n        /* \"#utility.yul\":5868:5891   */\n      tag_393\n        /* \"#utility.yul\":5885:5890   */\n      dup3\n        /* \"#utility.yul\":5868:5891   */\n      tag_394\n      jump\t// in\n    tag_393:\n        /* \"#utility.yul\":5849:5892   */\n      tag_395\n      jump\t// in\n    tag_392:\n        /* \"#utility.yul\":5844:5847   */\n      dup3\n        /* \"#utility.yul\":5837:5893   */\n      mstore\n        /* \"#utility.yul\":5827:5899   */\n      pop\n      pop\n      jump\t// out\n        /* \"#utility.yul\":5905:6062   */\n    tag_396:\n        /* \"#utility.yul\":6010:6055   */\n      tag_398\n        /* \"#utility.yul\":6030:6054   */\n      tag_399\n        /* \"#utility.yul\":6048:6053   */\n      dup3\n        /* \"#utility.yul\":6030:6054   */\n      tag_400\n      jump\t// in\n    tag_399:\n        /* \"#utility.yul\":6010:6055   */\n      tag_401\n      jump\t// in\n    tag_398:\n        /* \"#utility.yul\":6005:6008   */\n      dup3\n        /* \"#utility.yul\":5998:6056   */\n      mstore\n        /* \"#utility.yul\":5988:6062   */\n      pop\n      pop\n      jump\t// out\n        /* \"#utility.yul\":6068:6186   */\n    tag_402:\n        /* \"#utility.yul\":6155:6179   */\n      tag_404\n        /* \"#utility.yul\":6173:6178   */\n      dup2\n        /* \"#utility.yul\":6155:6179   */\n      tag_405\n      jump\t// in\n    tag_404:\n        /* \"#utility.yul\":6150:6153   */\n      dup3\n        /* \"#utility.yul\":6143:6180   */\n      mstore\n        /* \"#utility.yul\":6133:6186   */\n      pop\n      pop\n      jump\t// out\n        /* \"#utility.yul\":6192:6349   */\n    tag_406:\n        /* \"#utility.yul\":6297:6342   */\n      tag_408\n        /* \"#utility.yul\":6317:6341   */\n      tag_409\n        /* \"#utility.yul\":6335:6340   */\n      dup3\n        /* \"#utility.yul\":6317:6341   */\n      tag_405\n      jump\t// in\n    tag_409:\n        /* \"#utility.yul\":6297:6342   */\n      tag_410\n      jump\t// in\n    tag_408:\n        /* \"#utility.yul\":6292:6295   */\n      dup3\n        /* \"#utility.yul\":6285:6343   */\n      mstore\n        /* \"#utility.yul\":6275:6349   */\n      pop\n      pop\n      jump\t// out\n        /* \"#utility.yul\":6355:6715   */\n    tag_411:\n        /* \"#utility.yul\":6441:6444   */\n      0x00\n        /* \"#utility.yul\":6469:6507   */\n      tag_413\n        /* \"#utility.yul\":6501:6506   */\n      dup3\n        /* \"#utility.yul\":6469:6507   */\n      tag_414\n      jump\t// in\n    tag_413:\n        /* \"#utility.yul\":6523:6593   */\n      tag_415\n        /* \"#utility.yul\":6586:6592   */\n      dup2\n        /* \"#utility.yul\":6581:6584   */\n      dup6\n        /* \"#utility.yul\":6523:6593   */\n      tag_416\n      jump\t// in\n    tag_415:\n        /* \"#utility.yul\":6516:6593   */\n      swap4\n      pop\n        /* \"#utility.yul\":6602:6654   */\n      tag_417\n        /* \"#utility.yul\":6647:6653   */\n      dup2\n        /* \"#utility.yul\":6642:6645   */\n      dup6\n        /* \"#utility.yul\":6635:6639   */\n      0x20\n        /* \"#utility.yul\":6628:6633   */\n      dup7\n        /* \"#utility.yul\":6624:6640   */\n      add\n        /* \"#utility.yul\":6602:6654   */\n      tag_319\n      jump\t// in\n    tag_417:\n        /* \"#utility.yul\":6679:6708   */\n      tag_418\n        /* \"#utility.yul\":6701:6707   */\n      dup2\n        /* \"#utility.yul\":6679:6708   */\n      tag_419\n      jump\t// in\n    tag_418:\n        /* \"#utility.yul\":6674:6677   */\n      dup5\n        /* \"#utility.yul\":6670:6709   */\n      add\n        /* \"#utility.yul\":6663:6709   */\n      swap2\n      pop\n        /* \"#utility.yul\":6445:6715   */\n      pop\n      swap3\n      swap2\n      pop\n      pop\n      jump\t// out\n        /* \"#utility.yul\":6721:7094   */\n    tag_420:\n        /* \"#utility.yul\":6825:6828   */\n      0x00\n        /* \"#utility.yul\":6853:6891   */\n      tag_422\n        /* \"#utility.yul\":6885:6890   */\n      dup3\n        /* \"#utility.yul\":6853:6891   */\n      tag_414\n      jump\t// in\n    tag_422:\n        /* \"#utility.yul\":6907:6995   */\n      tag_423\n        /* \"#utility.yul\":6988:6994   */\n      dup2\n        /* \"#utility.yul\":6983:6986   */\n      dup6\n        /* \"#utility.yul\":6907:6995   */\n      tag_424\n      jump\t// in\n    tag_423:\n        /* \"#utility.yul\":6900:6995   */\n      swap4\n      pop\n        /* \"#utility.yul\":7004:7056   */\n      tag_425\n        /* \"#utility.yul\":7049:7055   */\n      dup2\n        /* \"#utility.yul\":7044:7047   */\n      dup6\n        /* \"#utility.yul\":7037:7041   */\n      0x20\n        /* \"#utility.yul\":7030:7035   */\n      dup7\n        /* \"#utility.yul\":7026:7042   */\n      add\n        /* \"#utility.yul\":7004:7056   */\n      tag_319\n      jump\t// in\n    tag_425:\n        /* \"#utility.yul\":7081:7087   */\n      dup1\n        /* \"#utility.yul\":7076:7079   */\n      dup5\n        /* \"#utility.yul\":7072:7088   */\n      add\n        /* \"#utility.yul\":7065:7088   */\n      swap2\n      pop\n        /* \"#utility.yul\":6829:7094   */\n      pop\n      swap3\n      swap2\n      pop\n      pop\n      jump\t// out\n        /* \"#utility.yul\":7100:7464   */\n    tag_426:\n        /* \"#utility.yul\":7188:7191   */\n      0x00\n        /* \"#utility.yul\":7216:7255   */\n      tag_428\n        /* \"#utility.yul\":7249:7254   */\n      dup3\n        /* \"#utility.yul\":7216:7255   */\n      tag_429\n      jump\t// in\n    tag_428:\n        /* \"#utility.yul\":7271:7342   */\n      tag_430\n        /* \"#utility.yul\":7335:7341   */\n      dup2\n        /* \"#utility.yul\":7330:7333   */\n      dup6\n        /* \"#utility.yul\":7271:7342   */\n      tag_431\n      jump\t// in\n    tag_430:\n        /* \"#utility.yul\":7264:7342   */\n      swap4\n      pop\n        /* \"#utility.yul\":7351:7403   */\n      tag_432\n        /* \"#utility.yul\":7396:7402   */\n      dup2\n        /* \"#utility.yul\":7391:7394   */\n      dup6\n        /* \"#utility.yul\":7384:7388   */\n      0x20\n        /* \"#utility.yul\":7377:7382   */\n      dup7\n        /* \"#utility.yul\":7373:7389   */\n      add\n        /* \"#utility.yul\":7351:7403   */\n      tag_319\n      jump\t// in\n    tag_432:\n        /* \"#utility.yul\":7428:7457   */\n      tag_433\n        /* \"#utility.yul\":7450:7456   */\n      dup2\n        /* \"#utility.yul\":7428:7457   */\n      tag_419\n      jump\t// in\n    tag_433:\n        /* \"#utility.yul\":7423:7426   */\n      dup5\n        /* \"#utility.yul\":7419:7458   */\n      add\n        /* \"#utility.yul\":7412:7458   */\n      swap2\n      pop\n        /* \"#utility.yul\":7192:7464   */\n      pop\n      swap3\n      swap2\n      pop\n      pop\n      jump\t// out\n        /* \"#utility.yul\":7470:7847   */\n    tag_434:\n        /* \"#utility.yul\":7576:7579   */\n      0x00\n        /* \"#utility.yul\":7604:7643   */\n      tag_436\n        /* \"#utility.yul\":7637:7642   */\n      dup3\n        /* \"#utility.yul\":7604:7643   */\n      tag_429\n      jump\t// in\n    tag_436:\n        /* \"#utility.yul\":7659:7748   */\n      tag_437\n        /* \"#utility.yul\":7741:7747   */\n      dup2\n        /* \"#utility.yul\":7736:7739   */\n      dup6\n        /* \"#utility.yul\":7659:7748   */\n      tag_438\n      jump\t// in\n    tag_437:\n        /* \"#utility.yul\":7652:7748   */\n      swap4\n      pop\n        /* \"#utility.yul\":7757:7809   */\n      tag_439\n        /* \"#utility.yul\":7802:7808   */\n      dup2\n        /* \"#utility.yul\":7797:7800   */\n      dup6\n        /* \"#utility.yul\":7790:7794   */\n      0x20\n        /* \"#utility.yul\":7783:7788   */\n      dup7\n        /* \"#utility.yul\":7779:7795   */\n      add\n        /* \"#utility.yul\":7757:7809   */\n      tag_319\n      jump\t// in\n    tag_439:\n        /* \"#utility.yul\":7834:7840   */\n      dup1\n        /* \"#utility.yul\":7829:7832   */\n      dup5\n        /* \"#utility.yul\":7825:7841   */\n      add\n        /* \"#utility.yul\":7818:7841   */\n      swap2\n      pop\n        /* \"#utility.yul\":7580:7847   */\n      pop\n      swap3\n      swap2\n      pop\n      pop\n      jump\t// out\n        /* \"#utility.yul\":7853:8219   */\n    tag_440:\n        /* \"#utility.yul\":7995:7998   */\n      0x00\n        /* \"#utility.yul\":8016:8083   */\n      tag_442\n        /* \"#utility.yul\":8080:8082   */\n      0x20\n        /* \"#utility.yul\":8075:8078   */\n      dup4\n        /* \"#utility.yul\":8016:8083   */\n      tag_431\n      jump\t// in\n    tag_442:\n        /* \"#utility.yul\":8009:8083   */\n      swap2\n      pop\n        /* \"#utility.yul\":8092:8185   */\n      tag_443\n        /* \"#utility.yul\":8181:8184   */\n      dup3\n        /* \"#utility.yul\":8092:8185   */\n      tag_444\n      jump\t// in\n    tag_443:\n        /* \"#utility.yul\":8210:8212   */\n      0x20\n        /* \"#utility.yul\":8205:8208   */\n      dup3\n        /* \"#utility.yul\":8201:8213   */\n      add\n        /* \"#utility.yul\":8194:8213   */\n      swap1\n      pop\n        /* \"#utility.yul\":7999:8219   */\n      swap2\n      swap1\n      pop\n      jump\t// out\n        /* \"#utility.yul\":8225:8591   */\n    tag_445:\n        /* \"#utility.yul\":8367:8370   */\n      0x00\n        /* \"#utility.yul\":8388:8455   */\n      tag_447\n        /* \"#utility.yul\":8452:8454   */\n      0x14\n        /* \"#utility.yul\":8447:8450   */\n      dup4\n        /* \"#utility.yul\":8388:8455   */\n      tag_431\n      jump\t// in\n    tag_447:\n        /* \"#utility.yul\":8381:8455   */\n      swap2\n      pop\n        /* \"#utility.yul\":8464:8557   */\n      tag_448\n        /* \"#utility.yul\":8553:8556   */\n      dup3\n        /* \"#utility.yul\":8464:8557   */\n      tag_449\n      jump\t// in\n    tag_448:\n        /* \"#utility.yul\":8582:8584   */\n      0x20\n        /* \"#utility.yul\":8577:8580   */\n      dup3\n        /* \"#utility.yul\":8573:8585   */\n      add\n        /* \"#utility.yul\":8566:8585   */\n      swap1\n      pop\n        /* \"#utility.yul\":8371:8591   */\n      swap2\n      swap1\n      pop\n      jump\t// out\n        /* \"#utility.yul\":8597:8963   */\n    tag_450:\n        /* \"#utility.yul\":8739:8742   */\n      0x00\n        /* \"#utility.yul\":8760:8827   */\n      tag_452\n        /* \"#utility.yul\":8824:8826   */\n      0x4f\n        /* \"#utility.yul\":8819:8822   */\n      dup4\n        /* \"#utility.yul\":8760:8827   */\n      tag_431\n      jump\t// in\n    tag_452:\n        /* \"#utility.yul\":8753:8827   */\n      swap2\n      pop\n        /* \"#utility.yul\":8836:8929   */\n      tag_453\n        /* \"#utility.yul\":8925:8928   */\n      dup3\n        /* \"#utility.yul\":8836:8929   */\n      tag_454\n      jump\t// in\n    tag_453:\n        /* \"#utility.yul\":8954:8956   */\n      0x60\n        /* \"#utility.yul\":8949:8952   */\n      dup3\n        /* \"#utility.yul\":8945:8957   */\n      add\n        /* \"#utility.yul\":8938:8957   */\n      swap1\n      pop\n        /* \"#utility.yul\":8743:8963   */\n      swap2\n      swap1\n      pop\n      jump\t// out\n        /* \"#utility.yul\":8969:9335   */\n    tag_455:\n        /* \"#utility.yul\":9111:9114   */\n      0x00\n        /* \"#utility.yul\":9132:9199   */\n      tag_457\n        /* \"#utility.yul\":9196:9198   */\n      0x10\n        /* \"#utility.yul\":9191:9194   */\n      dup4\n        /* \"#utility.yul\":9132:9199   */\n      tag_431\n      jump\t// in\n    tag_457:\n        /* \"#utility.yul\":9125:9199   */\n      swap2\n      pop\n        /* \"#utility.yul\":9208:9301   */\n      tag_458\n        /* \"#utility.yul\":9297:9300   */\n      dup3\n        /* \"#utility.yul\":9208:9301   */\n      tag_459\n      jump\t// in\n    tag_458:\n        /* \"#utility.yul\":9326:9328   */\n      0x20\n        /* \"#utility.yul\":9321:9324   */\n      dup3\n        /* \"#utility.yul\":9317:9329   */\n      add\n        /* \"#utility.yul\":9310:9329   */\n      swap1\n      pop\n        /* \"#utility.yul\":9115:9335   */\n      swap2\n      swap1\n      pop\n      jump\t// out\n        /* \"#utility.yul\":9341:9707   */\n    tag_460:\n        /* \"#utility.yul\":9483:9486   */\n      0x00\n        /* \"#utility.yul\":9504:9571   */\n      tag_462\n        /* \"#utility.yul\":9568:9570   */\n      0x53\n        /* \"#utility.yul\":9563:9566   */\n      dup4\n        /* \"#utility.yul\":9504:9571   */\n      tag_431\n      jump\t// in\n    tag_462:\n        /* \"#utility.yul\":9497:9571   */\n      swap2\n      pop\n        /* \"#utility.yul\":9580:9673   */\n      tag_463\n        /* \"#utility.yul\":9669:9672   */\n      dup3\n        /* \"#utility.yul\":9580:9673   */\n      tag_464\n      jump\t// in\n    tag_463:\n        /* \"#utility.yul\":9698:9700   */\n      0x60\n        /* \"#utility.yul\":9693:9696   */\n      dup3\n        /* \"#utility.yul\":9689:9701   */\n      add\n        /* \"#utility.yul\":9682:9701   */\n      swap1\n      pop\n        /* \"#utility.yul\":9487:9707   */\n      swap2\n      swap1\n      pop\n      jump\t// out\n        /* \"#utility.yul\":9713:10079   */\n    tag_465:\n        /* \"#utility.yul\":9855:9858   */\n      0x00\n        /* \"#utility.yul\":9876:9943   */\n      tag_467\n        /* \"#utility.yul\":9940:9942   */\n      0x2c\n        /* \"#utility.yul\":9935:9938   */\n      dup4\n        /* \"#utility.yul\":9876:9943   */\n      tag_431\n      jump\t// in\n    tag_467:\n        /* \"#utility.yul\":9869:9943   */\n      swap2\n      pop\n        /* \"#utility.yul\":9952:10045   */\n      tag_468\n        /* \"#utility.yul\":10041:10044   */\n      dup3\n        /* \"#utility.yul\":9952:10045   */\n      tag_469\n      jump\t// in\n    tag_468:\n        /* \"#utility.yul\":10070:10072   */\n      0x40\n        /* \"#utility.yul\":10065:10068   */\n      dup3\n        /* \"#utility.yul\":10061:10073   */\n      add\n        /* \"#utility.yul\":10054:10073   */\n      swap1\n      pop\n        /* \"#utility.yul\":9859:10079   */\n      swap2\n      swap1\n      pop\n      jump\t// out\n        /* \"#utility.yul\":10085:10487   */\n    tag_470:\n        /* \"#utility.yul\":10245:10248   */\n      0x00\n        /* \"#utility.yul\":10266:10351   */\n      tag_472\n        /* \"#utility.yul\":10348:10350   */\n      0x17\n        /* \"#utility.yul\":10343:10346   */\n      dup4\n        /* \"#utility.yul\":10266:10351   */\n      tag_438\n      jump\t// in\n    tag_472:\n        /* \"#utility.yul\":10259:10351   */\n      swap2\n      pop\n        /* \"#utility.yul\":10360:10453   */\n      tag_473\n        /* \"#utility.yul\":10449:10452   */\n      dup3\n        /* \"#utility.yul\":10360:10453   */\n      tag_474\n      jump\t// in\n    tag_473:\n        /* \"#utility.yul\":10478:10480   */\n      0x17\n        /* \"#utility.yul\":10473:10476   */\n      dup3\n        /* \"#utility.yul\":10469:10481   */\n      add\n        /* \"#utility.yul\":10462:10481   */\n      swap1\n      pop\n        /* \"#utility.yul\":10249:10487   */\n      swap2\n      swap1\n      pop\n      jump\t// out\n        /* \"#utility.yul\":10493:10859   */\n    tag_475:\n        /* \"#utility.yul\":10635:10638   */\n      0x00\n        /* \"#utility.yul\":10656:10723   */\n      tag_477\n        /* \"#utility.yul\":10720:10722   */\n      0x1e\n        /* \"#utility.yul\":10715:10718   */\n      dup4\n        /* \"#utility.yul\":10656:10723   */\n      tag_431\n      jump\t// in\n    tag_477:\n        /* \"#utility.yul\":10649:10723   */\n      swap2\n      pop\n        /* \"#utility.yul\":10732:10825   */\n      tag_478\n        /* \"#utility.yul\":10821:10824   */\n      dup3\n        /* \"#utility.yul\":10732:10825   */\n      tag_479\n      jump\t// in\n    tag_478:\n        /* \"#utility.yul\":10850:10852   */\n      0x20\n        /* \"#utility.yul\":10845:10848   */\n      dup3\n        /* \"#utility.yul\":10841:10853   */\n      add\n        /* \"#utility.yul\":10834:10853   */\n      swap1\n      pop\n        /* \"#utility.yul\":10639:10859   */\n      swap2\n      swap1\n      pop\n      jump\t// out\n        /* \"#utility.yul\":10865:11231   */\n    tag_480:\n        /* \"#utility.yul\":11007:11010   */\n      0x00\n        /* \"#utility.yul\":11028:11095   */\n      tag_482\n        /* \"#utility.yul\":11092:11094   */\n      0x29\n        /* \"#utility.yul\":11087:11090   */\n      dup4\n        /* \"#utility.yul\":11028:11095   */\n      tag_431\n      jump\t// in\n    tag_482:\n        /* \"#utility.yul\":11021:11095   */\n      swap2\n      pop\n        /* \"#utility.yul\":11104:11197   */\n      tag_483\n        /* \"#utility.yul\":11193:11196   */\n      dup3\n        /* \"#utility.yul\":11104:11197   */\n      tag_484\n      jump\t// in\n    tag_483:\n        /* \"#utility.yul\":11222:11224   */\n      0x40\n        /* \"#utility.yul\":11217:11220   */\n      dup3\n        /* \"#utility.yul\":11213:11225   */\n      add\n        /* \"#utility.yul\":11206:11225   */\n      swap1\n      pop\n        /* \"#utility.yul\":11011:11231   */\n      swap2\n      swap1\n      pop\n      jump\t// out\n        /* \"#utility.yul\":11237:11639   */\n    tag_485:\n        /* \"#utility.yul\":11397:11400   */\n      0x00\n        /* \"#utility.yul\":11418:11503   */\n      tag_487\n        /* \"#utility.yul\":11500:11502   */\n      0x11\n        /* \"#utility.yul\":11495:11498   */\n      dup4\n        /* \"#utility.yul\":11418:11503   */\n      tag_438\n      jump\t// in\n    tag_487:\n        /* \"#utility.yul\":11411:11503   */\n      swap2\n      pop\n        /* \"#utility.yul\":11512:11605   */\n      tag_488\n        /* \"#utility.yul\":11601:11604   */\n      dup3\n        /* \"#utility.yul\":11512:11605   */\n      tag_489\n      jump\t// in\n    tag_488:\n        /* \"#utility.yul\":11630:11632   */\n      0x11\n        /* \"#utility.yul\":11625:11628   */\n      dup3\n        /* \"#utility.yul\":11621:11633   */\n      add\n        /* \"#utility.yul\":11614:11633   */\n      swap1\n      pop\n        /* \"#utility.yul\":11401:11639   */\n      swap2\n      swap1\n      pop\n      jump\t// out\n        /* \"#utility.yul\":11645:12011   */\n    tag_490:\n        /* \"#utility.yul\":11787:11790   */\n      0x00\n        /* \"#utility.yul\":11808:11875   */\n      tag_492\n        /* \"#utility.yul\":11872:11874   */\n      0x2f\n        /* \"#utility.yul\":11867:11870   */\n      dup4\n        /* \"#utility.yul\":11808:11875   */\n      tag_431\n      jump\t// in\n    tag_492:\n        /* \"#utility.yul\":11801:11875   */\n      swap2\n      pop\n        /* \"#utility.yul\":11884:11977   */\n      tag_493\n        /* \"#utility.yul\":11973:11976   */\n      dup3\n        /* \"#utility.yul\":11884:11977   */\n      tag_494\n      jump\t// in\n    tag_493:\n        /* \"#utility.yul\":12002:12004   */\n      0x40\n        /* \"#utility.yul\":11997:12000   */\n      dup3\n        /* \"#utility.yul\":11993:12005   */\n      add\n        /* \"#utility.yul\":11986:12005   */\n      swap1\n      pop\n        /* \"#utility.yul\":11791:12011   */\n      swap2\n      swap1\n      pop\n      jump\t// out\n        /* \"#utility.yul\":12017:12135   */\n    tag_495:\n        /* \"#utility.yul\":12104:12128   */\n      tag_497\n        /* \"#utility.yul\":12122:12127   */\n      dup2\n        /* \"#utility.yul\":12104:12128   */\n      tag_498\n      jump\t// in\n    tag_497:\n        /* \"#utility.yul\":12099:12102   */\n      dup3\n        /* \"#utility.yul\":12092:12129   */\n      mstore\n        /* \"#utility.yul\":12082:12135   */\n      pop\n      pop\n      jump\t// out\n        /* \"#utility.yul\":12141:12548   */\n    tag_181:\n        /* \"#utility.yul\":12297:12300   */\n      0x00\n        /* \"#utility.yul\":12312:12385   */\n      tag_500\n        /* \"#utility.yul\":12381:12384   */\n      dup3\n        /* \"#utility.yul\":12372:12378   */\n      dup6\n        /* \"#utility.yul\":12312:12385   */\n      tag_390\n      jump\t// in\n    tag_500:\n        /* \"#utility.yul\":12410:12411   */\n      0x01\n        /* \"#utility.yul\":12405:12408   */\n      dup3\n        /* \"#utility.yul\":12401:12412   */\n      add\n        /* \"#utility.yul\":12394:12412   */\n      swap2\n      pop\n        /* \"#utility.yul\":12429:12522   */\n      tag_501\n        /* \"#utility.yul\":12518:12521   */\n      dup3\n        /* \"#utility.yul\":12509:12515   */\n      dup5\n        /* \"#utility.yul\":12429:12522   */\n      tag_420\n      jump\t// in\n    tag_501:\n        /* \"#utility.yul\":12422:12522   */\n      swap2\n      pop\n        /* \"#utility.yul\":12539:12542   */\n      dup2\n        /* \"#utility.yul\":12532:12542   */\n      swap1\n      pop\n        /* \"#utility.yul\":12301:12548   */\n      swap4\n      swap3\n      pop\n      pop\n      pop\n      jump\t// out\n        /* \"#utility.yul\":12554:12810   */\n    tag_179:\n        /* \"#utility.yul\":12666:12669   */\n      0x00\n        /* \"#utility.yul\":12681:12756   */\n      tag_503\n        /* \"#utility.yul\":12752:12755   */\n      dup3\n        /* \"#utility.yul\":12743:12749   */\n      dup5\n        /* \"#utility.yul\":12681:12756   */\n      tag_396\n      jump\t// in\n    tag_503:\n        /* \"#utility.yul\":12781:12783   */\n      0x14\n        /* \"#utility.yul\":12776:12779   */\n      dup3\n        /* \"#utility.yul\":12772:12784   */\n      add\n        /* \"#utility.yul\":12765:12784   */\n      swap2\n      pop\n        /* \"#utility.yul\":12801:12804   */\n      dup2\n        /* \"#utility.yul\":12794:12804   */\n      swap1\n      pop\n        /* \"#utility.yul\":12670:12810   */\n      swap3\n      swap2\n      pop\n      pop\n      jump\t// out\n        /* \"#utility.yul\":12816:13072   */\n    tag_174:\n        /* \"#utility.yul\":12928:12931   */\n      0x00\n        /* \"#utility.yul\":12943:13018   */\n      tag_505\n        /* \"#utility.yul\":13014:13017   */\n      dup3\n        /* \"#utility.yul\":13005:13011   */\n      dup5\n        /* \"#utility.yul\":12943:13018   */\n      tag_406\n      jump\t// in\n    tag_505:\n        /* \"#utility.yul\":13043:13045   */\n      0x20\n        /* \"#utility.yul\":13038:13041   */\n      dup3\n        /* \"#utility.yul\":13034:13046   */\n      add\n        /* \"#utility.yul\":13027:13046   */\n      swap2\n      pop\n        /* \"#utility.yul\":13063:13066   */\n      dup2\n        /* \"#utility.yul\":13056:13066   */\n      swap1\n      pop\n        /* \"#utility.yul\":12932:13072   */\n      swap3\n      swap2\n      pop\n      pop\n      jump\t// out\n        /* \"#utility.yul\":13078:13349   */\n    tag_123:\n        /* \"#utility.yul\":13208:13211   */\n      0x00\n        /* \"#utility.yul\":13230:13323   */\n      tag_507\n        /* \"#utility.yul\":13319:13322   */\n      dup3\n        /* \"#utility.yul\":13310:13316   */\n      dup5\n        /* \"#utility.yul\":13230:13323   */\n      tag_420\n      jump\t// in\n    tag_507:\n        /* \"#utility.yul\":13223:13323   */\n      swap2\n      pop\n        /* \"#utility.yul\":13340:13343   */\n      dup2\n        /* \"#utility.yul\":13333:13343   */\n      swap1\n      pop\n        /* \"#utility.yul\":13212:13349   */\n      swap3\n      swap2\n      pop\n      pop\n      jump\t// out\n        /* \"#utility.yul\":13355:13782   */\n    tag_195:\n        /* \"#utility.yul\":13531:13534   */\n      0x00\n        /* \"#utility.yul\":13553:13646   */\n      tag_509\n        /* \"#utility.yul\":13642:13645   */\n      dup3\n        /* \"#utility.yul\":13633:13639   */\n      dup6\n        /* \"#utility.yul\":13553:13646   */\n      tag_420\n      jump\t// in\n    tag_509:\n        /* \"#utility.yul\":13546:13646   */\n      swap2\n      pop\n        /* \"#utility.yul\":13663:13756   */\n      tag_510\n        /* \"#utility.yul\":13752:13755   */\n      dup3\n        /* \"#utility.yul\":13743:13749   */\n      dup5\n        /* \"#utility.yul\":13663:13756   */\n      tag_420\n      jump\t// in\n    tag_510:\n        /* \"#utility.yul\":13656:13756   */\n      swap2\n      pop\n        /* \"#utility.yul\":13773:13776   */\n      dup2\n        /* \"#utility.yul\":13766:13776   */\n      swap1\n      pop\n        /* \"#utility.yul\":13535:13782   */\n      swap4\n      swap3\n      pop\n      pop\n      pop\n      jump\t// out\n        /* \"#utility.yul\":13788:14755   */\n    tag_242:\n        /* \"#utility.yul\":14170:14173   */\n      0x00\n        /* \"#utility.yul\":14192:14340   */\n      tag_512\n        /* \"#utility.yul\":14336:14339   */\n      dup3\n        /* \"#utility.yul\":14192:14340   */\n      tag_470\n      jump\t// in\n    tag_512:\n        /* \"#utility.yul\":14185:14340   */\n      swap2\n      pop\n        /* \"#utility.yul\":14357:14452   */\n      tag_513\n        /* \"#utility.yul\":14448:14451   */\n      dup3\n        /* \"#utility.yul\":14439:14445   */\n      dup6\n        /* \"#utility.yul\":14357:14452   */\n      tag_434\n      jump\t// in\n    tag_513:\n        /* \"#utility.yul\":14350:14452   */\n      swap2\n      pop\n        /* \"#utility.yul\":14469:14617   */\n      tag_514\n        /* \"#utility.yul\":14613:14616   */\n      dup3\n        /* \"#utility.yul\":14469:14617   */\n      tag_485\n      jump\t// in\n    tag_514:\n        /* \"#utility.yul\":14462:14617   */\n      swap2\n      pop\n        /* \"#utility.yul\":14634:14729   */\n      tag_515\n        /* \"#utility.yul\":14725:14728   */\n      dup3\n        /* \"#utility.yul\":14716:14722   */\n      dup5\n        /* \"#utility.yul\":14634:14729   */\n      tag_434\n      jump\t// in\n    tag_515:\n        /* \"#utility.yul\":14627:14729   */\n      swap2\n      pop\n        /* \"#utility.yul\":14746:14749   */\n      dup2\n        /* \"#utility.yul\":14739:14749   */\n      swap1\n      pop\n        /* \"#utility.yul\":14174:14755   */\n      swap4\n      swap3\n      pop\n      pop\n      pop\n      jump\t// out\n        /* \"#utility.yul\":14761:14983   */\n    tag_262:\n        /* \"#utility.yul\":14854:14858   */\n      0x00\n        /* \"#utility.yul\":14892:14894   */\n      0x20\n        /* \"#utility.yul\":14881:14890   */\n      dup3\n        /* \"#utility.yul\":14877:14895   */\n      add\n        /* \"#utility.yul\":14869:14895   */\n      swap1\n      pop\n        /* \"#utility.yul\":14905:14976   */\n      tag_517\n        /* \"#utility.yul\":14973:14974   */\n      0x00\n        /* \"#utility.yul\":14962:14971   */\n      dup4\n        /* \"#utility.yul\":14958:14975   */\n      add\n        /* \"#utility.yul\":14949:14955   */\n      dup5\n        /* \"#utility.yul\":14905:14976   */\n      tag_382\n      jump\t// in\n    tag_517:\n        /* \"#utility.yul\":14859:14983   */\n      swap3\n      swap2\n      pop\n      pop\n      jump\t// out\n        /* \"#utility.yul\":14989:15321   */\n    tag_203:\n        /* \"#utility.yul\":15110:15114   */\n      0x00\n        /* \"#utility.yul\":15148:15150   */\n      0x40\n        /* \"#utility.yul\":15137:15146   */\n      dup3\n        /* \"#utility.yul\":15133:15151   */\n      add\n        /* \"#utility.yul\":15125:15151   */\n      swap1\n      pop\n        /* \"#utility.yul\":15161:15232   */\n      tag_519\n        /* \"#utility.yul\":15229:15230   */\n      0x00\n        /* \"#utility.yul\":15218:15227   */\n      dup4\n        /* \"#utility.yul\":15214:15231   */\n      add\n        /* \"#utility.yul\":15205:15211   */\n      dup6\n        /* \"#utility.yul\":15161:15232   */\n      tag_382\n      jump\t// in\n    tag_519:\n        /* \"#utility.yul\":15242:15314   */\n      tag_520\n        /* \"#utility.yul\":15310:15312   */\n      0x20\n        /* \"#utility.yul\":15299:15308   */\n      dup4\n        /* \"#utility.yul\":15295:15313   */\n      add\n        /* \"#utility.yul\":15286:15292   */\n      dup5\n        /* \"#utility.yul\":15242:15314   */\n      tag_495\n      jump\t// in\n    tag_520:\n        /* \"#utility.yul\":15115:15321   */\n      swap4\n      swap3\n      pop\n      pop\n      pop\n      jump\t// out\n        /* \"#utility.yul\":15327:15537   */\n    tag_35:\n        /* \"#utility.yul\":15414:15418   */\n      0x00\n        /* \"#utility.yul\":15452:15454   */\n      0x20\n        /* \"#utility.yul\":15441:15450   */\n      dup3\n        /* \"#utility.yul\":15437:15455   */\n      add\n        /* \"#utility.yul\":15429:15455   */\n      swap1\n      pop\n        /* \"#utility.yul\":15465:15530   */\n      tag_522\n        /* \"#utility.yul\":15527:15528   */\n      0x00\n        /* \"#utility.yul\":15516:15525   */\n      dup4\n        /* \"#utility.yul\":15512:15529   */\n      add\n        /* \"#utility.yul\":15503:15509   */\n      dup5\n        /* \"#utility.yul\":15465:15530   */\n      tag_386\n      jump\t// in\n    tag_522:\n        /* \"#utility.yul\":15419:15537   */\n      swap3\n      swap2\n      pop\n      pop\n      jump\t// out\n        /* \"#utility.yul\":15543:15765   */\n    tag_41:\n        /* \"#utility.yul\":15636:15640   */\n      0x00\n        /* \"#utility.yul\":15674:15676   */\n      0x20\n        /* \"#utility.yul\":15663:15672   */\n      dup3\n        /* \"#utility.yul\":15659:15677   */\n      add\n        /* \"#utility.yul\":15651:15677   */\n      swap1\n      pop\n        /* \"#utility.yul\":15687:15758   */\n      tag_524\n        /* \"#utility.yul\":15755:15756   */\n      0x00\n        /* \"#utility.yul\":15744:15753   */\n      dup4\n        /* \"#utility.yul\":15740:15757   */\n      add\n        /* \"#utility.yul\":15731:15737   */\n      dup5\n        /* \"#utility.yul\":15687:15758   */\n      tag_402\n      jump\t// in\n    tag_524:\n        /* \"#utility.yul\":15641:15765   */\n      swap3\n      swap2\n      pop\n      pop\n      jump\t// out\n        /* \"#utility.yul\":15771:16190   */\n    tag_159:\n        /* \"#utility.yul\":15910:15914   */\n      0x00\n        /* \"#utility.yul\":15948:15950   */\n      0x40\n        /* \"#utility.yul\":15937:15946   */\n      dup3\n        /* \"#utility.yul\":15933:15951   */\n      add\n        /* \"#utility.yul\":15925:15951   */\n      swap1\n      pop\n        /* \"#utility.yul\":15961:16032   */\n      tag_526\n        /* \"#utility.yul\":16029:16030   */\n      0x00\n        /* \"#utility.yul\":16018:16027   */\n      dup4\n        /* \"#utility.yul\":16014:16031   */\n      add\n        /* \"#utility.yul\":16005:16011   */\n      dup6\n        /* \"#utility.yul\":15961:16032   */\n      tag_402\n      jump\t// in\n    tag_526:\n        /* \"#utility.yul\":16079:16088   */\n      dup2\n        /* \"#utility.yul\":16073:16077   */\n      dup2\n        /* \"#utility.yul\":16069:16089   */\n      sub\n        /* \"#utility.yul\":16064:16066   */\n      0x20\n        /* \"#utility.yul\":16053:16062   */\n      dup4\n        /* \"#utility.yul\":16049:16067   */\n      add\n        /* \"#utility.yul\":16042:16090   */\n      mstore\n        /* \"#utility.yul\":16107:16183   */\n      tag_527\n        /* \"#utility.yul\":16178:16182   */\n      dup2\n        /* \"#utility.yul\":16169:16175   */\n      dup5\n        /* \"#utility.yul\":16107:16183   */\n      tag_411\n      jump\t// in\n    tag_527:\n        /* \"#utility.yul\":16099:16183   */\n      swap1\n      pop\n        /* \"#utility.yul\":15915:16190   */\n      swap4\n      swap3\n      pop\n      pop\n      pop\n      jump\t// out\n        /* \"#utility.yul\":16196:16509   */\n    tag_244:\n        /* \"#utility.yul\":16309:16313   */\n      0x00\n        /* \"#utility.yul\":16347:16349   */\n      0x20\n        /* \"#utility.yul\":16336:16345   */\n      dup3\n        /* \"#utility.yul\":16332:16350   */\n      add\n        /* \"#utility.yul\":16324:16350   */\n      swap1\n      pop\n        /* \"#utility.yul\":16396:16405   */\n      dup2\n        /* \"#utility.yul\":16390:16394   */\n      dup2\n        /* \"#utility.yul\":16386:16406   */\n      sub\n        /* \"#utility.yul\":16382:16383   */\n      0x00\n        /* \"#utility.yul\":16371:16380   */\n      dup4\n        /* \"#utility.yul\":16367:16384   */\n      add\n        /* \"#utility.yul\":16360:16407   */\n      mstore\n        /* \"#utility.yul\":16424:16502   */\n      tag_529\n        /* \"#utility.yul\":16497:16501   */\n      dup2\n        /* \"#utility.yul\":16488:16494   */\n      dup5\n        /* \"#utility.yul\":16424:16502   */\n      tag_426\n      jump\t// in\n    tag_529:\n        /* \"#utility.yul\":16416:16502   */\n      swap1\n      pop\n        /* \"#utility.yul\":16314:16509   */\n      swap3\n      swap2\n      pop\n      pop\n      jump\t// out\n        /* \"#utility.yul\":16515:16934   */\n    tag_302:\n        /* \"#utility.yul\":16681:16685   */\n      0x00\n        /* \"#utility.yul\":16719:16721   */\n      0x20\n        /* \"#utility.yul\":16708:16717   */\n      dup3\n        /* \"#utility.yul\":16704:16722   */\n      add\n        /* \"#utility.yul\":16696:16722   */\n      swap1\n      pop\n        /* \"#utility.yul\":16768:16777   */\n      dup2\n        /* \"#utility.yul\":16762:16766   */\n      dup2\n        /* \"#utility.yul\":16758:16778   */\n      sub\n        /* \"#utility.yul\":16754:16755   */\n      0x00\n        /* \"#utility.yul\":16743:16752   */\n      dup4\n        /* \"#utility.yul\":16739:16756   */\n      add\n        /* \"#utility.yul\":16732:16779   */\n      mstore\n        /* \"#utility.yul\":16796:16927   */\n      tag_531\n        /* \"#utility.yul\":16922:16926   */\n      dup2\n        /* \"#utility.yul\":16796:16927   */\n      tag_440\n      jump\t// in\n    tag_531:\n        /* \"#utility.yul\":16788:16927   */\n      swap1\n      pop\n        /* \"#utility.yul\":16686:16934   */\n      swap2\n      swap1\n      pop\n      jump\t// out\n        /* \"#utility.yul\":16940:17359   */\n    tag_258:\n        /* \"#utility.yul\":17106:17110   */\n      0x00\n        /* \"#utility.yul\":17144:17146   */\n      0x20\n        /* \"#utility.yul\":17133:17142   */\n      dup3\n        /* \"#utility.yul\":17129:17147   */\n      add\n        /* \"#utility.yul\":17121:17147   */\n      swap1\n      pop\n        /* \"#utility.yul\":17193:17202   */\n      dup2\n        /* \"#utility.yul\":17187:17191   */\n      dup2\n        /* \"#utility.yul\":17183:17203   */\n      sub\n        /* \"#utility.yul\":17179:17180   */\n      0x00\n        /* \"#utility.yul\":17168:17177   */\n      dup4\n        /* \"#utility.yul\":17164:17181   */\n      add\n        /* \"#utility.yul\":17157:17204   */\n      mstore\n        /* \"#utility.yul\":17221:17352   */\n      tag_533\n        /* \"#utility.yul\":17347:17351   */\n      dup2\n        /* \"#utility.yul\":17221:17352   */\n      tag_445\n      jump\t// in\n    tag_533:\n        /* \"#utility.yul\":17213:17352   */\n      swap1\n      pop\n        /* \"#utility.yul\":17111:17359   */\n      swap2\n      swap1\n      pop\n      jump\t// out\n        /* \"#utility.yul\":17365:17784   */\n    tag_157:\n        /* \"#utility.yul\":17531:17535   */\n      0x00\n        /* \"#utility.yul\":17569:17571   */\n      0x20\n        /* \"#utility.yul\":17558:17567   */\n      dup3\n        /* \"#utility.yul\":17554:17572   */\n      add\n        /* \"#utility.yul\":17546:17572   */\n      swap1\n      pop\n        /* \"#utility.yul\":17618:17627   */\n      dup2\n        /* \"#utility.yul\":17612:17616   */\n      dup2\n        /* \"#utility.yul\":17608:17628   */\n      sub\n        /* \"#utility.yul\":17604:17605   */\n      0x00\n        /* \"#utility.yul\":17593:17602   */\n      dup4\n        /* \"#utility.yul\":17589:17606   */\n      add\n        /* \"#utility.yul\":17582:17629   */\n      mstore\n        /* \"#utility.yul\":17646:17777   */\n      tag_535\n        /* \"#utility.yul\":17772:17776   */\n      dup2\n        /* \"#utility.yul\":17646:17777   */\n      tag_450\n      jump\t// in\n    tag_535:\n        /* \"#utility.yul\":17638:17777   */\n      swap1\n      pop\n        /* \"#utility.yul\":17536:17784   */\n      swap2\n      swap1\n      pop\n      jump\t// out\n        /* \"#utility.yul\":17790:18209   */\n    tag_146:\n        /* \"#utility.yul\":17956:17960   */\n      0x00\n        /* \"#utility.yul\":17994:17996   */\n      0x20\n        /* \"#utility.yul\":17983:17992   */\n      dup3\n        /* \"#utility.yul\":17979:17997   */\n      add\n        /* \"#utility.yul\":17971:17997   */\n      swap1\n      pop\n        /* \"#utility.yul\":18043:18052   */\n      dup2\n        /* \"#utility.yul\":18037:18041   */\n      dup2\n        /* \"#utility.yul\":18033:18053   */\n      sub\n        /* \"#utility.yul\":18029:18030   */\n      0x00\n        /* \"#utility.yul\":18018:18027   */\n      dup4\n        /* \"#utility.yul\":18014:18031   */\n      add\n        /* \"#utility.yul\":18007:18054   */\n      mstore\n        /* \"#utility.yul\":18071:18202   */\n      tag_537\n        /* \"#utility.yul\":18197:18201   */\n      dup2\n        /* \"#utility.yul\":18071:18202   */\n      tag_455\n      jump\t// in\n    tag_537:\n        /* \"#utility.yul\":18063:18202   */\n      swap1\n      pop\n        /* \"#utility.yul\":17961:18209   */\n      swap2\n      swap1\n      pop\n      jump\t// out\n        /* \"#utility.yul\":18215:18634   */\n    tag_167:\n        /* \"#utility.yul\":18381:18385   */\n      0x00\n        /* \"#utility.yul\":18419:18421   */\n      0x20\n        /* \"#utility.yul\":18408:18417   */\n      dup3\n        /* \"#utility.yul\":18404:18422   */\n      add\n        /* \"#utility.yul\":18396:18422   */\n      swap1\n      pop\n        /* \"#utility.yul\":18468:18477   */\n      dup2\n        /* \"#utility.yul\":18462:18466   */\n      dup2\n        /* \"#utility.yul\":18458:18478   */\n      sub\n        /* \"#utility.yul\":18454:18455   */\n      0x00\n        /* \"#utility.yul\":18443:18452   */\n      dup4\n        /* \"#utility.yul\":18439:18456   */\n      add\n        /* \"#utility.yul\":18432:18479   */\n      mstore\n        /* \"#utility.yul\":18496:18627   */\n      tag_539\n        /* \"#utility.yul\":18622:18626   */\n      dup2\n        /* \"#utility.yul\":18496:18627   */\n      tag_460\n      jump\t// in\n    tag_539:\n        /* \"#utility.yul\":18488:18627   */\n      swap1\n      pop\n        /* \"#utility.yul\":18386:18634   */\n      swap2\n      swap1\n      pop\n      jump\t// out\n        /* \"#utility.yul\":18640:19059   */\n    tag_150:\n        /* \"#utility.yul\":18806:18810   */\n      0x00\n        /* \"#utility.yul\":18844:18846   */\n      0x20\n        /* \"#utility.yul\":18833:18842   */\n      dup3\n        /* \"#utility.yul\":18829:18847   */\n      add\n        /* \"#utility.yul\":18821:18847   */\n      swap1\n      pop\n        /* \"#utility.yul\":18893:18902   */\n      dup2\n        /* \"#utility.yul\":18887:18891   */\n      dup2\n        /* \"#utility.yul\":18883:18903   */\n      sub\n        /* \"#utility.yul\":18879:18880   */\n      0x00\n        /* \"#utility.yul\":18868:18877   */\n      dup4\n        /* \"#utility.yul\":18864:18881   */\n      add\n        /* \"#utility.yul\":18857:18904   */\n      mstore\n        /* \"#utility.yul\":18921:19052   */\n      tag_541\n        /* \"#utility.yul\":19047:19051   */\n      dup2\n        /* \"#utility.yul\":18921:19052   */\n      tag_465\n      jump\t// in\n    tag_541:\n        /* \"#utility.yul\":18913:19052   */\n      swap1\n      pop\n        /* \"#utility.yul\":18811:19059   */\n      swap2\n      swap1\n      pop\n      jump\t// out\n        /* \"#utility.yul\":19065:19484   */\n    tag_199:\n        /* \"#utility.yul\":19231:19235   */\n      0x00\n        /* \"#utility.yul\":19269:19271   */\n      0x20\n        /* \"#utility.yul\":19258:19267   */\n      dup3\n        /* \"#utility.yul\":19254:19272   */\n      add\n        /* \"#utility.yul\":19246:19272   */\n      swap1\n      pop\n        /* \"#utility.yul\":19318:19327   */\n      dup2\n        /* \"#utility.yul\":19312:19316   */\n      dup2\n        /* \"#utility.yul\":19308:19328   */\n      sub\n        /* \"#utility.yul\":19304:19305   */\n      0x00\n        /* \"#utility.yul\":19293:19302   */\n      dup4\n        /* \"#utility.yul\":19289:19306   */\n      add\n        /* \"#utility.yul\":19282:19329   */\n      mstore\n        /* \"#utility.yul\":19346:19477   */\n      tag_543\n        /* \"#utility.yul\":19472:19476   */\n      dup2\n        /* \"#utility.yul\":19346:19477   */\n      tag_475\n      jump\t// in\n    tag_543:\n        /* \"#utility.yul\":19338:19477   */\n      swap1\n      pop\n        /* \"#utility.yul\":19236:19484   */\n      swap2\n      swap1\n      pop\n      jump\t// out\n        /* \"#utility.yul\":19490:19909   */\n    tag_154:\n        /* \"#utility.yul\":19656:19660   */\n      0x00\n        /* \"#utility.yul\":19694:19696   */\n      0x20\n        /* \"#utility.yul\":19683:19692   */\n      dup3\n        /* \"#utility.yul\":19679:19697   */\n      add\n        /* \"#utility.yul\":19671:19697   */\n      swap1\n      pop\n        /* \"#utility.yul\":19743:19752   */\n      dup2\n        /* \"#utility.yul\":19737:19741   */\n      dup2\n        /* \"#utility.yul\":19733:19753   */\n      sub\n        /* \"#utility.yul\":19729:19730   */\n      0x00\n        /* \"#utility.yul\":19718:19727   */\n      dup4\n        /* \"#utility.yul\":19714:19731   */\n      add\n        /* \"#utility.yul\":19707:19754   */\n      mstore\n        /* \"#utility.yul\":19771:19902   */\n      tag_545\n        /* \"#utility.yul\":19897:19901   */\n      dup2\n        /* \"#utility.yul\":19771:19902   */\n      tag_480\n      jump\t// in\n    tag_545:\n        /* \"#utility.yul\":19763:19902   */\n      swap1\n      pop\n        /* \"#utility.yul\":19661:19909   */\n      swap2\n      swap1\n      pop\n      jump\t// out\n        /* \"#utility.yul\":19915:20334   */\n    tag_128:\n        /* \"#utility.yul\":20081:20085   */\n      0x00\n        /* \"#utility.yul\":20119:20121   */\n      0x20\n        /* \"#utility.yul\":20108:20117   */\n      dup3\n        /* \"#utility.yul\":20104:20122   */\n      add\n        /* \"#utility.yul\":20096:20122   */\n      swap1\n      pop\n        /* \"#utility.yul\":20168:20177   */\n      dup2\n        /* \"#utility.yul\":20162:20166   */\n      dup2\n        /* \"#utility.yul\":20158:20178   */\n      sub\n        /* \"#utility.yul\":20154:20155   */\n      0x00\n        /* \"#utility.yul\":20143:20152   */\n      dup4\n        /* \"#utility.yul\":20139:20156   */\n      add\n        /* \"#utility.yul\":20132:20179   */\n      mstore\n        /* \"#utility.yul\":20196:20327   */\n      tag_547\n        /* \"#utility.yul\":20322:20326   */\n      dup2\n        /* \"#utility.yul\":20196:20327   */\n      tag_490\n      jump\t// in\n    tag_547:\n        /* \"#utility.yul\":20188:20327   */\n      swap1\n      pop\n        /* \"#utility.yul\":20086:20334   */\n      swap2\n      swap1\n      pop\n      jump\t// out\n        /* \"#utility.yul\":20340:20562   */\n    tag_72:\n        /* \"#utility.yul\":20433:20437   */\n      0x00\n        /* \"#utility.yul\":20471:20473   */\n      0x20\n        /* \"#utility.yul\":20460:20469   */\n      dup3\n        /* \"#utility.yul\":20456:20474   */\n      add\n        /* \"#utility.yul\":20448:20474   */\n      swap1\n      pop\n        /* \"#utility.yul\":20484:20555   */\n      tag_549\n        /* \"#utility.yul\":20552:20553   */\n      0x00\n        /* \"#utility.yul\":20541:20550   */\n      dup4\n        /* \"#utility.yul\":20537:20554   */\n      add\n        /* \"#utility.yul\":20528:20534   */\n      dup5\n        /* \"#utility.yul\":20484:20555   */\n      tag_495\n      jump\t// in\n    tag_549:\n        /* \"#utility.yul\":20438:20562   */\n      swap3\n      swap2\n      pop\n      pop\n      jump\t// out\n        /* \"#utility.yul\":20568:20697   */\n    tag_309:\n        /* \"#utility.yul\":20602:20608   */\n      0x00\n        /* \"#utility.yul\":20629:20649   */\n      tag_551\n      tag_552\n      jump\t// in\n    tag_551:\n        /* \"#utility.yul\":20619:20649   */\n      swap1\n      pop\n        /* \"#utility.yul\":20658:20691   */\n      tag_553\n        /* \"#utility.yul\":20686:20690   */\n      dup3\n        /* \"#utility.yul\":20678:20684   */\n      dup3\n        /* \"#utility.yul\":20658:20691   */\n      tag_554\n      jump\t// in\n    tag_553:\n        /* \"#utility.yul\":20609:20697   */\n      swap2\n      swap1\n      pop\n      jump\t// out\n        /* \"#utility.yul\":20703:20778   */\n    tag_552:\n        /* \"#utility.yul\":20736:20742   */\n      0x00\n        /* \"#utility.yul\":20769:20771   */\n      0x40\n        /* \"#utility.yul\":20763:20772   */\n      mload\n        /* \"#utility.yul\":20753:20772   */\n      swap1\n      pop\n        /* \"#utility.yul\":20743:20778   */\n      swap1\n      jump\t// out\n        /* \"#utility.yul\":20784:21091   */\n    tag_308:\n        /* \"#utility.yul\":20845:20849   */\n      0x00\n        /* \"#utility.yul\":20935:20953   */\n      0xffffffffffffffff\n        /* \"#utility.yul\":20927:20933   */\n      dup3\n        /* \"#utility.yul\":20924:20954   */\n      gt\n        /* \"#utility.yul\":20921:20923   */\n      iszero\n      tag_557\n      jumpi\n        /* \"#utility.yul\":20957:20975   */\n      tag_558\n      tag_559\n      jump\t// in\n    tag_558:\n        /* \"#utility.yul\":20921:20923   */\n    tag_557:\n        /* \"#utility.yul\":20995:21024   */\n      tag_560\n        /* \"#utility.yul\":21017:21023   */\n      dup3\n        /* \"#utility.yul\":20995:21024   */\n      tag_419\n      jump\t// in\n    tag_560:\n        /* \"#utility.yul\":20987:21024   */\n      swap1\n      pop\n        /* \"#utility.yul\":21079:21083   */\n      0x20\n        /* \"#utility.yul\":21073:21077   */\n      dup2\n        /* \"#utility.yul\":21069:21084   */\n      add\n        /* \"#utility.yul\":21061:21084   */\n      swap1\n      pop\n        /* \"#utility.yul\":20850:21091   */\n      swap2\n      swap1\n      pop\n      jump\t// out\n        /* \"#utility.yul\":21097:21195   */\n    tag_414:\n        /* \"#utility.yul\":21148:21154   */\n      0x00\n        /* \"#utility.yul\":21182:21187   */\n      dup2\n        /* \"#utility.yul\":21176:21188   */\n      mload\n        /* \"#utility.yul\":21166:21188   */\n      swap1\n      pop\n        /* \"#utility.yul\":21155:21195   */\n      swap2\n      swap1\n      pop\n      jump\t// out\n        /* \"#utility.yul\":21201:21300   */\n    tag_429:\n        /* \"#utility.yul\":21253:21259   */\n      0x00\n        /* \"#utility.yul\":21287:21292   */\n      dup2\n        /* \"#utility.yul\":21281:21293   */\n      mload\n        /* \"#utility.yul\":21271:21293   */\n      swap1\n      pop\n        /* \"#utility.yul\":21260:21300   */\n      swap2\n      swap1\n      pop\n      jump\t// out\n        /* \"#utility.yul\":21306:21474   */\n    tag_416:\n        /* \"#utility.yul\":21389:21400   */\n      0x00\n        /* \"#utility.yul\":21423:21429   */\n      dup3\n        /* \"#utility.yul\":21418:21421   */\n      dup3\n        /* \"#utility.yul\":21411:21430   */\n      mstore\n        /* \"#utility.yul\":21463:21467   */\n      0x20\n        /* \"#utility.yul\":21458:21461   */\n      dup3\n        /* \"#utility.yul\":21454:21468   */\n      add\n        /* \"#utility.yul\":21439:21468   */\n      swap1\n      pop\n        /* \"#utility.yul\":21401:21474   */\n      swap3\n      swap2\n      pop\n      pop\n      jump\t// out\n        /* \"#utility.yul\":21480:21627   */\n    tag_424:\n        /* \"#utility.yul\":21581:21592   */\n      0x00\n        /* \"#utility.yul\":21618:21621   */\n      dup2\n        /* \"#utility.yul\":21603:21621   */\n      swap1\n      pop\n        /* \"#utility.yul\":21593:21627   */\n      swap3\n      swap2\n      pop\n      pop\n      jump\t// out\n        /* \"#utility.yul\":21633:21802   */\n    tag_431:\n        /* \"#utility.yul\":21717:21728   */\n      0x00\n        /* \"#utility.yul\":21751:21757   */\n      dup3\n        /* \"#utility.yul\":21746:21749   */\n      dup3\n        /* \"#utility.yul\":21739:21758   */\n      mstore\n        /* \"#utility.yul\":21791:21795   */\n      0x20\n        /* \"#utility.yul\":21786:21789   */\n      dup3\n        /* \"#utility.yul\":21782:21796   */\n      add\n        /* \"#utility.yul\":21767:21796   */\n      swap1\n      pop\n        /* \"#utility.yul\":21729:21802   */\n      swap3\n      swap2\n      pop\n      pop\n      jump\t// out\n        /* \"#utility.yul\":21808:21956   */\n    tag_438:\n        /* \"#utility.yul\":21910:21921   */\n      0x00\n        /* \"#utility.yul\":21947:21950   */\n      dup2\n        /* \"#utility.yul\":21932:21950   */\n      swap1\n      pop\n        /* \"#utility.yul\":21922:21956   */\n      swap3\n      swap2\n      pop\n      pop\n      jump\t// out\n        /* \"#utility.yul\":21962:22267   */\n    tag_105:\n        /* \"#utility.yul\":22002:22005   */\n      0x00\n        /* \"#utility.yul\":22021:22041   */\n      tag_568\n        /* \"#utility.yul\":22039:22040   */\n      dup3\n        /* \"#utility.yul\":22021:22041   */\n      tag_498\n      jump\t// in\n    tag_568:\n        /* \"#utility.yul\":22016:22041   */\n      swap2\n      pop\n        /* \"#utility.yul\":22055:22075   */\n      tag_569\n        /* \"#utility.yul\":22073:22074   */\n      dup4\n        /* \"#utility.yul\":22055:22075   */\n      tag_498\n      jump\t// in\n    tag_569:\n        /* \"#utility.yul\":22050:22075   */\n      swap3\n      pop\n        /* \"#utility.yul\":22209:22210   */\n      dup3\n        /* \"#utility.yul\":22141:22207   */\n      0xffffffffffffffffffffffffffffffffffffffffffffffffffffffffffffffff\n        /* \"#utility.yul\":22137:22211   */\n      sub\n        /* \"#utility.yul\":22134:22135   */\n      dup3\n        /* \"#utility.yul\":22131:22212   */\n      gt\n        /* \"#utility.yul\":22128:22130   */\n      iszero\n      tag_570\n      jumpi\n        /* \"#utility.yul\":22215:22233   */\n      tag_571\n      tag_572\n      jump\t// in\n    tag_571:\n        /* \"#utility.yul\":22128:22130   */\n    tag_570:\n        /* \"#utility.yul\":22259:22260   */\n      dup3\n        /* \"#utility.yul\":22256:22257   */\n      dup3\n        /* \"#utility.yul\":22252:22261   */\n      add\n        /* \"#utility.yul\":22245:22261   */\n      swap1\n      pop\n        /* \"#utility.yul\":22006:22267   */\n      swap3\n      swap2\n      pop\n      pop\n      jump\t// out\n        /* \"#utility.yul\":22273:22621   */\n    tag_285:\n        /* \"#utility.yul\":22313:22320   */\n      0x00\n        /* \"#utility.yul\":22336:22356   */\n      tag_574\n        /* \"#utility.yul\":22354:22355   */\n      dup3\n        /* \"#utility.yul\":22336:22356   */\n      tag_498\n      jump\t// in\n    tag_574:\n        /* \"#utility.yul\":22331:22356   */\n      swap2\n      pop\n        /* \"#utility.yul\":22370:22390   */\n      tag_575\n        /* \"#utility.yul\":22388:22389   */\n      dup4\n        /* \"#utility.yul\":22370:22390   */\n      tag_498\n      jump\t// in\n    tag_575:\n        /* \"#utility.yul\":22365:22390   */\n      swap3\n      pop\n        /* \"#utility.yul\":22558:22559   */\n      dup2\n        /* \"#utility.yul\":22490:22556   */\n      0xffffffffffffffffffffffffffffffffffffffffffffffffffffffffffffffff\n        /* \"#utility.yul\":22486:22560   */\n      div\n        /* \"#utility.yul\":22483:22484   */\n      dup4\n        /* \"#utility.yul\":22480:22561   */\n      gt\n        /* \"#utility.yul\":22475:22476   */\n      dup3\n        /* \"#utility.yul\":22468:22477   */\n      iszero\n        /* \"#utility.yul\":22461:22478   */\n      iszero\n        /* \"#utility.yul\":22457:22562   */\n      and\n        /* \"#utility.yul\":22454:22456   */\n      iszero\n      tag_576\n      jumpi\n        /* \"#utility.yul\":22565:22583   */\n      tag_577\n      tag_572\n      jump\t// in\n    tag_577:\n        /* \"#utility.yul\":22454:22456   */\n    tag_576:\n        /* \"#utility.yul\":22613:22614   */\n      dup3\n        /* \"#utility.yul\":22610:22611   */\n      dup3\n        /* \"#utility.yul\":22606:22615   */\n      mul\n        /* \"#utility.yul\":22595:22615   */\n      swap1\n      pop\n        /* \"#utility.yul\":22321:22621   */\n      swap3\n      swap2\n      pop\n      pop\n      jump\t// out\n        /* \"#utility.yul\":22627:22818   */\n    tag_222:\n        /* \"#utility.yul\":22667:22671   */\n      0x00\n        /* \"#utility.yul\":22687:22707   */\n      tag_579\n        /* \"#utility.yul\":22705:22706   */\n      dup3\n        /* \"#utility.yul\":22687:22707   */\n      tag_498\n      jump\t// in\n    tag_579:\n        /* \"#utility.yul\":22682:22707   */\n      swap2\n      pop\n        /* \"#utility.yul\":22721:22741   */\n      tag_580\n        /* \"#utility.yul\":22739:22740   */\n      dup4\n        /* \"#utility.yul\":22721:22741   */\n      tag_498\n      jump\t// in\n    tag_580:\n        /* \"#utility.yul\":22716:22741   */\n      swap3\n      pop\n        /* \"#utility.yul\":22760:22761   */\n      dup3\n        /* \"#utility.yul\":22757:22758   */\n      dup3\n        /* \"#utility.yul\":22754:22762   */\n      lt\n        /* \"#utility.yul\":22751:22753   */\n      iszero\n      tag_581\n      jumpi\n        /* \"#utility.yul\":22765:22783   */\n      tag_582\n      tag_572\n      jump\t// in\n    tag_582:\n        /* \"#utility.yul\":22751:22753   */\n    tag_581:\n        /* \"#utility.yul\":22810:22811   */\n      dup3\n        /* \"#utility.yul\":22807:22808   */\n      dup3\n        /* \"#utility.yul\":22803:22812   */\n      sub\n        /* \"#utility.yul\":22795:22812   */\n      swap1\n      pop\n        /* \"#utility.yul\":22672:22818   */\n      swap3\n      swap2\n      pop\n      pop\n      jump\t// out\n        /* \"#utility.yul\":22824:22920   */\n    tag_385:\n        /* \"#utility.yul\":22861:22868   */\n      0x00\n        /* \"#utility.yul\":22890:22914   */\n      tag_584\n        /* \"#utility.yul\":22908:22913   */\n      dup3\n        /* \"#utility.yul\":22890:22914   */\n      tag_585\n      jump\t// in\n    tag_584:\n        /* \"#utility.yul\":22879:22914   */\n      swap1\n      pop\n        /* \"#utility.yul\":22869:22920   */\n      swap2\n      swap1\n      pop\n      jump\t// out\n        /* \"#utility.yul\":22926:23016   */\n    tag_389:\n        /* \"#utility.yul\":22960:22967   */\n      0x00\n        /* \"#utility.yul\":23003:23008   */\n      dup2\n        /* \"#utility.yul\":22996:23009   */\n      iszero\n        /* \"#utility.yul\":22989:23010   */\n      iszero\n        /* \"#utility.yul\":22978:23010   */\n      swap1\n      pop\n        /* \"#utility.yul\":22968:23016   */\n      swap2\n      swap1\n      pop\n      jump\t// out\n        /* \"#utility.yul\":23022:23171   */\n    tag_394:\n        /* \"#utility.yul\":23058:23065   */\n      0x00\n        /* \"#utility.yul\":23098:23164   */\n      0xff00000000000000000000000000000000000000000000000000000000000000\n        /* \"#utility.yul\":23091:23096   */\n      dup3\n        /* \"#utility.yul\":23087:23165   */\n      and\n        /* \"#utility.yul\":23076:23165   */\n      swap1\n      pop\n        /* \"#utility.yul\":23066:23171   */\n      swap2\n      swap1\n      pop\n      jump\t// out\n        /* \"#utility.yul\":23177:23327   */\n    tag_400:\n        /* \"#utility.yul\":23214:23221   */\n      0x00\n        /* \"#utility.yul\":23254:23320   */\n      0xffffffffffffffffffffffffffffffffffffffff000000000000000000000000\n        /* \"#utility.yul\":23247:23252   */\n      dup3\n        /* \"#utility.yul\":23243:23321   */\n      and\n        /* \"#utility.yul\":23232:23321   */\n      swap1\n      pop\n        /* \"#utility.yul\":23222:23327   */\n      swap2\n      swap1\n      pop\n      jump\t// out\n        /* \"#utility.yul\":23333:23410   */\n    tag_405:\n        /* \"#utility.yul\":23370:23377   */\n      0x00\n        /* \"#utility.yul\":23399:23404   */\n      dup2\n        /* \"#utility.yul\":23388:23404   */\n      swap1\n      pop\n        /* \"#utility.yul\":23378:23410   */\n      swap2\n      swap1\n      pop\n      jump\t// out\n        /* \"#utility.yul\":23416:23565   */\n    tag_590:\n        /* \"#utility.yul\":23452:23459   */\n      0x00\n        /* \"#utility.yul\":23492:23558   */\n      0xffffffff00000000000000000000000000000000000000000000000000000000\n        /* \"#utility.yul\":23485:23490   */\n      dup3\n        /* \"#utility.yul\":23481:23559   */\n      and\n        /* \"#utility.yul\":23470:23559   */\n      swap1\n      pop\n        /* \"#utility.yul\":23460:23565   */\n      swap2\n      swap1\n      pop\n      jump\t// out\n        /* \"#utility.yul\":23571:23697   */\n    tag_585:\n        /* \"#utility.yul\":23608:23615   */\n      0x00\n        /* \"#utility.yul\":23648:23690   */\n      0xffffffffffffffffffffffffffffffffffffffff\n        /* \"#utility.yul\":23641:23646   */\n      dup3\n        /* \"#utility.yul\":23637:23691   */\n      and\n        /* \"#utility.yul\":23626:23691   */\n      swap1\n      pop\n        /* \"#utility.yul\":23616:23697   */\n      swap2\n      swap1\n      pop\n      jump\t// out\n        /* \"#utility.yul\":23703:23780   */\n    tag_498:\n        /* \"#utility.yul\":23740:23747   */\n      0x00\n        /* \"#utility.yul\":23769:23774   */\n      dup2\n        /* \"#utility.yul\":23758:23774   */\n      swap1\n      pop\n        /* \"#utility.yul\":23748:23780   */\n      swap2\n      swap1\n      pop\n      jump\t// out\n        /* \"#utility.yul\":23786:23940   */\n    tag_312:\n        /* \"#utility.yul\":23870:23876   */\n      dup3\n        /* \"#utility.yul\":23865:23868   */\n      dup2\n        /* \"#utility.yul\":23860:23863   */\n      dup4\n        /* \"#utility.yul\":23847:23877   */\n      calldatacopy\n        /* \"#utility.yul\":23932:23933   */\n      0x00\n        /* \"#utility.yul\":23923:23929   */\n      dup4\n        /* \"#utility.yul\":23918:23921   */\n      dup4\n        /* \"#utility.yul\":23914:23930   */\n      add\n        /* \"#utility.yul\":23907:23934   */\n      mstore\n        /* \"#utility.yul\":23837:23940   */\n      pop\n      pop\n      pop\n      jump\t// out\n        /* \"#utility.yul\":23946:24253   */\n    tag_319:\n        /* \"#utility.yul\":24014:24015   */\n      0x00\n        /* \"#utility.yul\":24024:24137   */\n    tag_596:\n        /* \"#utility.yul\":24038:24044   */\n      dup4\n        /* \"#utility.yul\":24035:24036   */\n      dup2\n        /* \"#utility.yul\":24032:24045   */\n      lt\n        /* \"#utility.yul\":24024:24137   */\n      iszero\n      tag_598\n      jumpi\n        /* \"#utility.yul\":24123:24124   */\n      dup1\n        /* \"#utility.yul\":24118:24121   */\n      dup3\n        /* \"#utility.yul\":24114:24125   */\n      add\n        /* \"#utility.yul\":24108:24126   */\n      mload\n        /* \"#utility.yul\":24104:24105   */\n      dup2\n        /* \"#utility.yul\":24099:24102   */\n      dup5\n        /* \"#utility.yul\":24095:24106   */\n      add\n        /* \"#utility.yul\":24088:24127   */\n      mstore\n        /* \"#utility.yul\":24060:24062   */\n      0x20\n        /* \"#utility.yul\":24057:24058   */\n      dup2\n        /* \"#utility.yul\":24053:24063   */\n      add\n        /* \"#utility.yul\":24048:24063   */\n      swap1\n      pop\n        /* \"#utility.yul\":24024:24137   */\n      jump(tag_596)\n    tag_598:\n        /* \"#utility.yul\":24155:24161   */\n      dup4\n        /* \"#utility.yul\":24152:24153   */\n      dup2\n        /* \"#utility.yul\":24149:24162   */\n      gt\n        /* \"#utility.yul\":24146:24148   */\n      iszero\n      tag_599\n      jumpi\n        /* \"#utility.yul\":24235:24236   */\n      0x00\n        /* \"#utility.yul\":24226:24232   */\n      dup5\n        /* \"#utility.yul\":24221:24224   */\n      dup5\n        /* \"#utility.yul\":24217:24233   */\n      add\n        /* \"#utility.yul\":24210:24237   */\n      mstore\n        /* \"#utility.yul\":24146:24148   */\n    tag_599:\n        /* \"#utility.yul\":23995:24253   */\n      pop\n      pop\n      pop\n      pop\n      jump\t// out\n        /* \"#utility.yul\":24259:24430   */\n    tag_299:\n        /* \"#utility.yul\":24298:24301   */\n      0x00\n        /* \"#utility.yul\":24321:24345   */\n      tag_601\n        /* \"#utility.yul\":24339:24344   */\n      dup3\n        /* \"#utility.yul\":24321:24345   */\n      tag_498\n      jump\t// in\n    tag_601:\n        /* \"#utility.yul\":24312:24345   */\n      swap2\n      pop\n        /* \"#utility.yul\":24367:24371   */\n      0x00\n        /* \"#utility.yul\":24360:24365   */\n      dup3\n        /* \"#utility.yul\":24357:24372   */\n      eq\n        /* \"#utility.yul\":24354:24356   */\n      iszero\n      tag_602\n      jumpi\n        /* \"#utility.yul\":24375:24393   */\n      tag_603\n      tag_572\n      jump\t// in\n    tag_603:\n        /* \"#utility.yul\":24354:24356   */\n    tag_602:\n        /* \"#utility.yul\":24422:24423   */\n      0x01\n        /* \"#utility.yul\":24415:24420   */\n      dup3\n        /* \"#utility.yul\":24411:24424   */\n      sub\n        /* \"#utility.yul\":24404:24424   */\n      swap1\n      pop\n        /* \"#utility.yul\":24302:24430   */\n      swap2\n      swap1\n      pop\n      jump\t// out\n        /* \"#utility.yul\":24436:24717   */\n    tag_554:\n        /* \"#utility.yul\":24519:24546   */\n      tag_605\n        /* \"#utility.yul\":24541:24545   */\n      dup3\n        /* \"#utility.yul\":24519:24546   */\n      tag_419\n      jump\t// in\n    tag_605:\n        /* \"#utility.yul\":24511:24517   */\n      dup2\n        /* \"#utility.yul\":24507:24547   */\n      add\n        /* \"#utility.yul\":24649:24655   */\n      dup2\n        /* \"#utility.yul\":24637:24647   */\n      dup2\n        /* \"#utility.yul\":24634:24656   */\n      lt\n        /* \"#utility.yul\":24613:24631   */\n      0xffffffffffffffff\n        /* \"#utility.yul\":24601:24611   */\n      dup3\n        /* \"#utility.yul\":24598:24632   */\n      gt\n        /* \"#utility.yul\":24595:24657   */\n      or\n        /* \"#utility.yul\":24592:24594   */\n      iszero\n      tag_606\n      jumpi\n        /* \"#utility.yul\":24660:24678   */\n      tag_607\n      tag_559\n      jump\t// in\n    tag_607:\n        /* \"#utility.yul\":24592:24594   */\n    tag_606:\n        /* \"#utility.yul\":24700:24710   */\n      dup1\n        /* \"#utility.yul\":24696:24698   */\n      0x40\n        /* \"#utility.yul\":24689:24711   */\n      mstore\n        /* \"#utility.yul\":24479:24717   */\n      pop\n      pop\n      pop\n      jump\t// out\n        /* \"#utility.yul\":24723:24956   */\n    tag_275:\n        /* \"#utility.yul\":24762:24765   */\n      0x00\n        /* \"#utility.yul\":24785:24809   */\n      tag_609\n        /* \"#utility.yul\":24803:24808   */\n      dup3\n        /* \"#utility.yul\":24785:24809   */\n      tag_498\n      jump\t// in\n    tag_609:\n        /* \"#utility.yul\":24776:24809   */\n      swap2\n      pop\n        /* \"#utility.yul\":24831:24897   */\n      0xffffffffffffffffffffffffffffffffffffffffffffffffffffffffffffffff\n        /* \"#utility.yul\":24824:24829   */\n      dup3\n        /* \"#utility.yul\":24821:24898   */\n      eq\n        /* \"#utility.yul\":24818:24820   */\n      iszero\n      tag_610\n      jumpi\n        /* \"#utility.yul\":24901:24919   */\n      tag_611\n      tag_572\n      jump\t// in\n    tag_611:\n        /* \"#utility.yul\":24818:24820   */\n    tag_610:\n        /* \"#utility.yul\":24948:24949   */\n      0x01\n        /* \"#utility.yul\":24941:24946   */\n      dup3\n        /* \"#utility.yul\":24937:24950   */\n      add\n        /* \"#utility.yul\":24930:24950   */\n      swap1\n      pop\n        /* \"#utility.yul\":24766:24956   */\n      swap2\n      swap1\n      pop\n      jump\t// out\n        /* \"#utility.yul\":24962:25040   */\n    tag_395:\n        /* \"#utility.yul\":25000:25007   */\n      0x00\n        /* \"#utility.yul\":25029:25034   */\n      dup2\n        /* \"#utility.yul\":25018:25034   */\n      swap1\n      pop\n        /* \"#utility.yul\":25008:25040   */\n      swap2\n      swap1\n      pop\n      jump\t// out\n        /* \"#utility.yul\":25046:25125   */\n    tag_401:\n        /* \"#utility.yul\":25085:25092   */\n      0x00\n        /* \"#utility.yul\":25114:25119   */\n      dup2\n        /* \"#utility.yul\":25103:25119   */\n      swap1\n      pop\n        /* \"#utility.yul\":25093:25125   */\n      swap2\n      swap1\n      pop\n      jump\t// out\n        /* \"#utility.yul\":25131:25210   */\n    tag_410:\n        /* \"#utility.yul\":25170:25177   */\n      0x00\n        /* \"#utility.yul\":25199:25204   */\n      dup2\n        /* \"#utility.yul\":25188:25204   */\n      swap1\n      pop\n        /* \"#utility.yul\":25178:25210   */\n      swap2\n      swap1\n      pop\n      jump\t// out\n        /* \"#utility.yul\":25216:25396   */\n    tag_572:\n        /* \"#utility.yul\":25264:25341   */\n      0x4e487b7100000000000000000000000000000000000000000000000000000000\n        /* \"#utility.yul\":25261:25262   */\n      0x00\n        /* \"#utility.yul\":25254:25342   */\n      mstore\n        /* \"#utility.yul\":25361:25365   */\n      0x11\n        /* \"#utility.yul\":25358:25359   */\n      0x04\n        /* \"#utility.yul\":25351:25366   */\n      mstore\n        /* \"#utility.yul\":25385:25389   */\n      0x24\n        /* \"#utility.yul\":25382:25383   */\n      0x00\n        /* \"#utility.yul\":25375:25390   */\n      revert\n        /* \"#utility.yul\":25402:25582   */\n    tag_559:\n        /* \"#utility.yul\":25450:25527   */\n      0x4e487b7100000000000000000000000000000000000000000000000000000000\n        /* \"#utility.yul\":25447:25448   */\n      0x00\n        /* \"#utility.yul\":25440:25528   */\n      mstore\n        /* \"#utility.yul\":25547:25551   */\n      0x41\n        /* \"#utility.yul\":25544:25545   */\n      0x04\n        /* \"#utility.yul\":25537:25552   */\n      mstore\n        /* \"#utility.yul\":25571:25575   */\n      0x24\n        /* \"#utility.yul\":25568:25569   */\n      0x00\n        /* \"#utility.yul\":25561:25576   */\n      revert\n        /* \"#utility.yul\":25588:25690   */\n    tag_419:\n        /* \"#utility.yul\":25629:25635   */\n      0x00\n        /* \"#utility.yul\":25680:25682   */\n      0x1f\n        /* \"#utility.yul\":25676:25683   */\n      not\n        /* \"#utility.yul\":25671:25673   */\n      0x1f\n        /* \"#utility.yul\":25664:25669   */\n      dup4\n        /* \"#utility.yul\":25660:25674   */\n      add\n        /* \"#utility.yul\":25656:25684   */\n      and\n        /* \"#utility.yul\":25646:25684   */\n      swap1\n      pop\n        /* \"#utility.yul\":25636:25690   */\n      swap2\n      swap1\n      pop\n      jump\t// out\n        /* \"#utility.yul\":25696:25878   */\n    tag_444:\n        /* \"#utility.yul\":25836:25870   */\n      0x537472696e67733a20686578206c656e67746820696e73756666696369656e74\n        /* \"#utility.yul\":25832:25833   */\n      0x00\n        /* \"#utility.yul\":25824:25830   */\n      dup3\n        /* \"#utility.yul\":25820:25834   */\n      add\n        /* \"#utility.yul\":25813:25871   */\n      mstore\n        /* \"#utility.yul\":25802:25878   */\n      pop\n      jump\t// out\n        /* \"#utility.yul\":25884:26054   */\n    tag_449:\n        /* \"#utility.yul\":26024:26046   */\n      0x5061757361626c653a206e6f7420706175736564000000000000000000000000\n        /* \"#utility.yul\":26020:26021   */\n      0x00\n        /* \"#utility.yul\":26012:26018   */\n      dup3\n        /* \"#utility.yul\":26008:26022   */\n      add\n        /* \"#utility.yul\":26001:26047   */\n      mstore\n        /* \"#utility.yul\":25990:26054   */\n      pop\n      jump\t// out\n        /* \"#utility.yul\":26060:26363   */\n    tag_454:\n        /* \"#utility.yul\":26200:26234   */\n      0x46696e61537761703a636c61696d20496e76616c6964207369676e6174757265\n        /* \"#utility.yul\":26196:26197   */\n      0x00\n        /* \"#utility.yul\":26188:26194   */\n      dup3\n        /* \"#utility.yul\":26184:26198   */\n      add\n        /* \"#utility.yul\":26177:26235   */\n      mstore\n        /* \"#utility.yul\":26269:26303   */\n      0x206c656e6774682e20546865207369676e6174757265206d7573742062652065\n        /* \"#utility.yul\":26264:26266   */\n      0x20\n        /* \"#utility.yul\":26256:26262   */\n      dup3\n        /* \"#utility.yul\":26252:26267   */\n      add\n        /* \"#utility.yul\":26245:26304   */\n      mstore\n        /* \"#utility.yul\":26338:26355   */\n      0x786163746c792036352062797465730000000000000000000000000000000000\n        /* \"#utility.yul\":26333:26335   */\n      0x40\n        /* \"#utility.yul\":26325:26331   */\n      dup3\n        /* \"#utility.yul\":26321:26336   */\n      add\n        /* \"#utility.yul\":26314:26356   */\n      mstore\n        /* \"#utility.yul\":26166:26363   */\n      pop\n      jump\t// out\n        /* \"#utility.yul\":26369:26535   */\n    tag_459:\n        /* \"#utility.yul\":26509:26527   */\n      0x5061757361626c653a2070617573656400000000000000000000000000000000\n        /* \"#utility.yul\":26505:26506   */\n      0x00\n        /* \"#utility.yul\":26497:26503   */\n      dup3\n        /* \"#utility.yul\":26493:26507   */\n      add\n        /* \"#utility.yul\":26486:26528   */\n      mstore\n        /* \"#utility.yul\":26475:26535   */\n      pop\n      jump\t// out\n        /* \"#utility.yul\":26541:26848   */\n    tag_464:\n        /* \"#utility.yul\":26681:26715   */\n      0x46696e61537761703a636c61696d20496e76616c6964207369676e6174757265\n        /* \"#utility.yul\":26677:26678   */\n      0x00\n        /* \"#utility.yul\":26669:26675   */\n      dup3\n        /* \"#utility.yul\":26665:26679   */\n      add\n        /* \"#utility.yul\":26658:26716   */\n      mstore\n        /* \"#utility.yul\":26750:26784   */\n      0x2e20546865207265636f7665726564207075626c6963206b6579206d75737420\n        /* \"#utility.yul\":26745:26747   */\n      0x20\n        /* \"#utility.yul\":26737:26743   */\n      dup3\n        /* \"#utility.yul\":26733:26748   */\n      add\n        /* \"#utility.yul\":26726:26785   */\n      mstore\n        /* \"#utility.yul\":26819:26840   */\n      0x62652065786163746c7920333320627974657300000000000000000000000000\n        /* \"#utility.yul\":26814:26816   */\n      0x40\n        /* \"#utility.yul\":26806:26812   */\n      dup3\n        /* \"#utility.yul\":26802:26817   */\n      add\n        /* \"#utility.yul\":26795:26841   */\n      mstore\n        /* \"#utility.yul\":26647:26848   */\n      pop\n      jump\t// out\n        /* \"#utility.yul\":26854:27085   */\n    tag_469:\n        /* \"#utility.yul\":26994:27028   */\n      0x46696e61537761703a636c61696d205461726765742061646472657373206361\n        /* \"#utility.yul\":26990:26991   */\n      0x00\n        /* \"#utility.yul\":26982:26988   */\n      dup3\n        /* \"#utility.yul\":26978:26992   */\n      add\n        /* \"#utility.yul\":26971:27029   */\n      mstore\n        /* \"#utility.yul\":27063:27077   */\n      0x6e6e6f74206265207a65726f0000000000000000000000000000000000000000\n        /* \"#utility.yul\":27058:27060   */\n      0x20\n        /* \"#utility.yul\":27050:27056   */\n      dup3\n        /* \"#utility.yul\":27046:27061   */\n      add\n        /* \"#utility.yul\":27039:27078   */\n      mstore\n        /* \"#utility.yul\":26960:27085   */\n      pop\n      jump\t// out\n        /* \"#utility.yul\":27091:27264   */\n    tag_474:\n        /* \"#utility.yul\":27231:27256   */\n      0x416363657373436f6e74726f6c3a206163636f756e7420000000000000000000\n        /* \"#utility.yul\":27227:27228   */\n      0x00\n        /* \"#utility.yul\":27219:27225   */\n      dup3\n        /* \"#utility.yul\":27215:27229   */\n      add\n        /* \"#utility.yul\":27208:27257   */\n      mstore\n        /* \"#utility.yul\":27197:27264   */\n      pop\n      jump\t// out\n        /* \"#utility.yul\":27270:27450   */\n    tag_479:\n        /* \"#utility.yul\":27410:27442   */\n      0x46696e61537761703a636c61696d20616c726561647920737761707065640000\n        /* \"#utility.yul\":27406:27407   */\n      0x00\n        /* \"#utility.yul\":27398:27404   */\n      dup3\n        /* \"#utility.yul\":27394:27408   */\n      add\n        /* \"#utility.yul\":27387:27443   */\n      mstore\n        /* \"#utility.yul\":27376:27450   */\n      pop\n      jump\t// out\n        /* \"#utility.yul\":27456:27684   */\n    tag_484:\n        /* \"#utility.yul\":27596:27630   */\n      0x46696e61537761703a636c61696d205369676e61747572652068617368206973\n        /* \"#utility.yul\":27592:27593   */\n      0x00\n        /* \"#utility.yul\":27584:27590   */\n      dup3\n        /* \"#utility.yul\":27580:27594   */\n      add\n        /* \"#utility.yul\":27573:27631   */\n      mstore\n        /* \"#utility.yul\":27665:27676   */\n      0x2072657175697265640000000000000000000000000000000000000000000000\n        /* \"#utility.yul\":27660:27662   */\n      0x20\n        /* \"#utility.yul\":27652:27658   */\n      dup3\n        /* \"#utility.yul\":27648:27663   */\n      add\n        /* \"#utility.yul\":27641:27677   */\n      mstore\n        /* \"#utility.yul\":27562:27684   */\n      pop\n      jump\t// out\n        /* \"#utility.yul\":27690:27857   */\n    tag_489:\n        /* \"#utility.yul\":27830:27849   */\n      0x206973206d697373696e6720726f6c6520000000000000000000000000000000\n        /* \"#utility.yul\":27826:27827   */\n      0x00\n        /* \"#utility.yul\":27818:27824   */\n      dup3\n        /* \"#utility.yul\":27814:27828   */\n      add\n        /* \"#utility.yul\":27807:27850   */\n      mstore\n        /* \"#utility.yul\":27796:27857   */\n      pop\n      jump\t// out\n        /* \"#utility.yul\":27863:28097   */\n    tag_494:\n        /* \"#utility.yul\":28003:28037   */\n      0x416363657373436f6e74726f6c3a2063616e206f6e6c792072656e6f756e6365\n        /* \"#utility.yul\":27999:28000   */\n      0x00\n        /* \"#utility.yul\":27991:27997   */\n      dup3\n        /* \"#utility.yul\":27987:28001   */\n      add\n        /* \"#utility.yul\":27980:28038   */\n      mstore\n        /* \"#utility.yul\":28072:28089   */\n      0x20726f6c657320666f722073656c660000000000000000000000000000000000\n        /* \"#utility.yul\":28067:28069   */\n      0x20\n        /* \"#utility.yul\":28059:28065   */\n      dup3\n        /* \"#utility.yul\":28055:28070   */\n      add\n        /* \"#utility.yul\":28048:28090   */\n      mstore\n        /* \"#utility.yul\":27969:28097   */\n      pop\n      jump\t// out\n        /* \"#utility.yul\":28103:28225   */\n    tag_323:\n        /* \"#utility.yul\":28176:28200   */\n      tag_630\n        /* \"#utility.yul\":28194:28199   */\n      dup2\n        /* \"#utility.yul\":28176:28200   */\n      tag_385\n      jump\t// in\n    tag_630:\n        /* \"#utility.yul\":28169:28174   */\n      dup2\n        /* \"#utility.yul\":28166:28201   */\n      eq\n        /* \"#utility.yul\":28156:28158   */\n      tag_631\n      jumpi\n        /* \"#utility.yul\":28215:28216   */\n      0x00\n        /* \"#utility.yul\":28212:28213   */\n      dup1\n        /* \"#utility.yul\":28205:28217   */\n      revert\n        /* \"#utility.yul\":28156:28158   */\n    tag_631:\n        /* \"#utility.yul\":28146:28225   */\n      pop\n      jump\t// out\n        /* \"#utility.yul\":28231:28353   */\n    tag_327:\n        /* \"#utility.yul\":28304:28328   */\n      tag_633\n        /* \"#utility.yul\":28322:28327   */\n      dup2\n        /* \"#utility.yul\":28304:28328   */\n      tag_405\n      jump\t// in\n    tag_633:\n        /* \"#utility.yul\":28297:28302   */\n      dup2\n        /* \"#utility.yul\":28294:28329   */\n      eq\n        /* \"#utility.yul\":28284:28286   */\n      tag_634\n      jumpi\n        /* \"#utility.yul\":28343:28344   */\n      0x00\n        /* \"#utility.yul\":28340:28341   */\n      dup1\n        /* \"#utility.yul\":28333:28345   */\n      revert\n        /* \"#utility.yul\":28284:28286   */\n    tag_634:\n        /* \"#utility.yul\":28274:28353   */\n      pop\n      jump\t// out\n        /* \"#utility.yul\":28359:28479   */\n    tag_334:\n        /* \"#utility.yul\":28431:28454   */\n      tag_636\n        /* \"#utility.yul\":28448:28453   */\n      dup2\n        /* \"#utility.yul\":28431:28454   */\n      tag_590\n      jump\t// in\n    tag_636:\n        /* \"#utility.yul\":28424:28429   */\n      dup2\n        /* \"#utility.yul\":28421:28455   */\n      eq\n        /* \"#utility.yul\":28411:28413   */\n      tag_637\n      jumpi\n        /* \"#utility.yul\":28469:28470   */\n      0x00\n        /* \"#utility.yul\":28466:28467   */\n      dup1\n        /* \"#utility.yul\":28459:28471   */\n      revert\n        /* \"#utility.yul\":28411:28413   */\n    tag_637:\n        /* \"#utility.yul\":28401:28479   */\n      pop\n      jump\t// out\n        /* \"#utility.yul\":28485:28607   */\n    tag_346:\n        /* \"#utility.yul\":28558:28582   */\n      tag_639\n        /* \"#utility.yul\":28576:28581   */\n      dup2\n        /* \"#utility.yul\":28558:28582   */\n      tag_498\n      jump\t// in\n    tag_639:\n        /* \"#utility.yul\":28551:28556   */\n      dup2\n        /* \"#utility.yul\":28548:28583   */\n      eq\n        /* \"#utility.yul\":28538:28540   */\n      tag_640\n      jumpi\n        /* \"#utility.yul\":28597:28598   */\n      0x00\n        /* \"#utility.yul\":28594:28595   */\n      dup1\n        /* \"#utility.yul\":28587:28599   */\n      revert\n        /* \"#utility.yul\":28538:28540   */\n    tag_640:\n        /* \"#utility.yul\":28528:28607   */\n      pop\n      jump\t// out\n\n    auxdata: 0xa2646970667358221220dfa5242eb316dead5632c15cded84076828deb0f29a2662de9572b6837d85fb264736f6c63430008040033\n}\n",
				"bytecode": {
					"linkReferences": {},
					"object": "60e06040523480156200001157600080fd5b5060405162002b4f38038062002b4f833981810160405281019062000037919062000329565b60008060006101000a81548160ff0219169083151502179055508373ffffffffffffffffffffffffffffffffffffffff1660808173ffffffffffffffffffffffffffffffffffffffff1660601b815250508273ffffffffffffffffffffffffffffffffffffffff1660a08173ffffffffffffffffffffffffffffffffffffffff1660601b81525050817effffffffffffffffffffffffffffffffffffffffffffffffffffffffffffff191660c0817effffffffffffffffffffffffffffffffffffffffffffffffffffffffffffff19168152505080600281905550620001447fa49807205ce4d355092ef5a8a18f56e8913cf4a201fbe287825b095693c21775336200018060201b60201c565b620001767f65d7a28e3265b37a6474929f336521b332c1681b933f6cb9f3376673440d862a336200018060201b60201c565b505050506200044d565b6200019282826200027160201b60201c565b6200026d57600180600084815260200190815260200160002060000160008373ffffffffffffffffffffffffffffffffffffffff1673ffffffffffffffffffffffffffffffffffffffff16815260200190815260200160002060006101000a81548160ff02191690831515021790555062000212620002dc60201b60201c565b73ffffffffffffffffffffffffffffffffffffffff168173ffffffffffffffffffffffffffffffffffffffff16837f2f8788117e7eff1d82e926ec794901d17c78024a50270940304540a733656f0d60405160405180910390a45b5050565b60006001600084815260200190815260200160002060000160008373ffffffffffffffffffffffffffffffffffffffff1673ffffffffffffffffffffffffffffffffffffffff16815260200190815260200160002060009054906101000a900460ff16905092915050565b600033905090565b600081519050620002f581620003ff565b92915050565b6000815190506200030c8162000419565b92915050565b600081519050620003238162000433565b92915050565b600080600080608085870312156200034057600080fd5b60006200035087828801620002e4565b94505060206200036387828801620002e4565b93505060406200037687828801620002fb565b9250506060620003898782880162000312565b91505092959194509250565b6000620003a282620003d5565b9050919050565b60007fff0000000000000000000000000000000000000000000000000000000000000082169050919050565b600073ffffffffffffffffffffffffffffffffffffffff82169050919050565b6000819050919050565b6200040a8162000395565b81146200041657600080fd5b50565b6200042481620003a9565b81146200043057600080fd5b50565b6200043e81620003f5565b81146200044a57600080fd5b50565b60805160601c60a05160601c60c05160f81c60f81b6126c662000489600039600061098101526000610b7f015260006107bc01526126c66000f3fe608060405234801561001057600080fd5b506004361061012c5760003560e01c806375b238fc116100ad578063a217fddf11610071578063a217fddf14610307578063c6afe01e14610325578063c71c649014610341578063d547741f1461035d578063e63ab1e9146103795761012c565b806375b238fc14610261578063784153651461027f5780638456cb59146102af57806391d14854146102b9578063a0d5680f146102e95761012c565b806336568abe116100f457806336568abe146101e55780633f4ba83a146102015780635b06a1d51461020b5780635c975abb14610227578063736c76ee146102455761012c565b80630112f5411461013157806301ffc9a71461014d578063248a9ca31461017d5780632f2ff15d146101ad5780633636f669146101c9575b600080fd5b61014b600480360381019061014691906119bd565b610397565b005b610167600480360381019061016291906118be565b6103e6565b6040516101749190611dd3565b60405180910390f35b61019760048036038101906101929190611830565b610460565b6040516101a49190611dee565b60405180910390f35b6101c760048036038101906101c29190611882565b610480565b005b6101e360048036038101906101de91906118e7565b6104a9565b005b6101ff60048036038101906101fa9190611882565b610503565b005b610209610586565b005b610225600480360381019061022091906119bd565b6105c3565b005b61022f610600565b60405161023c9190611dd3565b60405180910390f35b61025f600480360381019061025a91906117c9565b610616565b005b610269610c17565b6040516102769190611dee565b60405180910390f35b610299600480360381019061029491906118e7565b610c3b565b6040516102a69190611f7b565b60405180910390f35b6102b7610c63565b005b6102d360048036038101906102ce9190611882565b610ca0565b6040516102e09190611dd3565b60405180910390f35b6102f1610d0b565b6040516102fe9190611f7b565b60405180910390f35b61030f610d15565b60405161031c9190611dee565b60405180910390f35b61033f600480360381019061033a91906119bd565b610d1c565b005b61035b60048036038101906103569190611969565b610d6b565b005b61037760048036038101906103729190611882565b610dc5565b005b610381610dee565b60405161038e9190611dee565b60405180910390f35b7fa49807205ce4d355092ef5a8a18f56e8913cf4a201fbe287825b095693c217756103c9816103c4610e12565b610e1a565b81600460008282546103db919061203a565b925050819055505050565b60007f7965db0b000000000000000000000000000000000000000000000000000000007bffffffffffffffffffffffffffffffffffffffffffffffffffffffff1916827bffffffffffffffffffffffffffffffffffffffffffffffffffffffff19161480610459575061045882610eb7565b5b9050919050565b600060016000838152602001908152602001600020600101549050919050565b61048982610460565b61049a81610495610e12565b610e1a565b6104a48383610f21565b505050565b7fa49807205ce4d355092ef5a8a18f56e8913cf4a201fbe287825b095693c217756104db816104d6610e12565b610e1a565b60006003836040516104ed9190611d1a565b9081526020016040518091039020819055505050565b61050b610e12565b73ffffffffffffffffffffffffffffffffffffffff168173ffffffffffffffffffffffffffffffffffffffff1614610578576040517f08c379a000000000000000000000000000000000000000000000000000000000815260040161056f90611f5b565b60405180910390fd5b6105828282611001565b5050565b7f65d7a28e3265b37a6474929f336521b332c1681b933f6cb9f3376673440d862a6105b8816105b3610e12565b610e1a565b6105c06110e3565b50565b7fa49807205ce4d355092ef5a8a18f56e8913cf4a201fbe287825b095693c217756105f5816105f0610e12565b610e1a565b816002819055505050565b60008060009054906101000a900460ff16905090565b61061e610600565b1561065e576040517f08c379a000000000000000000000000000000000000000000000000000000000815260040161065590611ebb565b60405180910390fd5b600073ffffffffffffffffffffffffffffffffffffffff168373ffffffffffffffffffffffffffffffffffffffff1614156106ce576040517f08c379a00000000000000000000000000000000000000000000000000000000081526004016106c590611efb565b60405180910390fd5b600060f81b8260006020811061070d577f4e487b7100000000000000000000000000000000000000000000000000000000600052603260045260246000fd5b1a60f81b7effffffffffffffffffffffffffffffffffffffffffffffffffffffffffffff19161415610774576040517f08c379a000000000000000000000000000000000000000000000000000000000815260040161076b90611f3b565b60405180910390fd5b60418151146107b8576040517f08c379a00000000000000000000000000000000000000000000000000000000081526004016107af90611e9b565b60405180910390fd5b60007f000000000000000000000000000000000000000000000000000000000000000073ffffffffffffffffffffffffffffffffffffffff166319045a2584846040518363ffffffff1660e01b8152600401610815929190611e09565b60006040518083038186803b15801561082d57600080fd5b505afa158015610841573d6000803e3d6000fd5b505050506040513d6000823e3d601f19601f8201168201806040525081019061086a9190611928565b905060218151146108b0576040517f08c379a00000000000000000000000000000000000000000000000000000000081526004016108a790611edb565b60405180910390fd5b60006002826040516108c29190611d1a565b602060405180830381855afa1580156108df573d6000803e3d6000fd5b5050506040513d601f19601f820116820180604052508101906109029190611859565b905060006003826040516020016109199190611cff565b6040516020818303038152906040526040516109359190611d1a565b602060405180830381855afa158015610952573d6000803e3d6000fd5b5050506040515160601b60405160200161096c9190611ce4565b604051602081830303815290604052905060007f0000000000000000000000000000000000000000000000000000000000000000826040516020016109b2929190611cbc565b60405160208183030381529060405290506000600280836040516109d69190611d1a565b602060405180830381855afa1580156109f3573d6000803e3d6000fd5b5050506040513d601f19601f82011682018060405250810190610a169190611859565b604051602001610a269190611cff565b604051602081830303815290604052604051610a429190611d1a565b602060405180830381855afa158015610a5f573d6000803e3d6000fd5b5050506040513d601f19601f82011682018060405250810190610a829190611859565b604051602001610a929190611cff565b60405160208183030381529060405290506000610ab28260006004611184565b905060008382604051602001610ac9929190611d31565b60405160208183030381529060405290506000600382604051610aec9190611d1a565b908152602001604051809103902054905060008111610b40576040517f08c379a0000000000000000000000000000000000000000000000000000000008152600401610b3790611f1b565b60405180910390fd5b6000600383604051610b529190611d1a565b9081526020016040518091039020819055508060046000828254610b76919061203a565b925050819055507f000000000000000000000000000000000000000000000000000000000000000073ffffffffffffffffffffffffffffffffffffffff166340c10f198c836040518363ffffffff1660e01b8152600401610bd8929190611daa565b600060405180830381600087803b158015610bf257600080fd5b505af1158015610c06573d6000803e3d6000fd5b505050505050505050505050505050565b7fa49807205ce4d355092ef5a8a18f56e8913cf4a201fbe287825b095693c2177581565b6000600382604051610c4d9190611d1a565b9081526020016040518091039020549050919050565b7f65d7a28e3265b37a6474929f336521b332c1681b933f6cb9f3376673440d862a610c9581610c90610e12565b610e1a565b610c9d6112f4565b50565b60006001600084815260200190815260200160002060000160008373ffffffffffffffffffffffffffffffffffffffff1673ffffffffffffffffffffffffffffffffffffffff16815260200190815260200160002060009054906101000a900460ff16905092915050565b6000600454905090565b6000801b81565b7fa49807205ce4d355092ef5a8a18f56e8913cf4a201fbe287825b095693c21775610d4e81610d49610e12565b610e1a565b8160046000828254610d6091906120ea565b925050819055505050565b7fa49807205ce4d355092ef5a8a18f56e8913cf4a201fbe287825b095693c21775610d9d81610d98610e12565b610e1a565b81600384604051610dae9190611d1a565b908152602001604051809103902081905550505050565b610dce82610460565b610ddf81610dda610e12565b610e1a565b610de98383611001565b505050565b7f65d7a28e3265b37a6474929f336521b332c1681b933f6cb9f3376673440d862a81565b600033905090565b610e248282610ca0565b610eb357610e498173ffffffffffffffffffffffffffffffffffffffff166014611396565b610e578360001c6020611396565b604051602001610e68929190611d55565b6040516020818303038152906040526040517f08c379a0000000000000000000000000000000000000000000000000000000008152600401610eaa9190611e39565b60405180910390fd5b5050565b60007f01ffc9a7000000000000000000000000000000000000000000000000000000007bffffffffffffffffffffffffffffffffffffffffffffffffffffffff1916827bffffffffffffffffffffffffffffffffffffffffffffffffffffffff1916149050919050565b610f2b8282610ca0565b610ffd57600180600084815260200190815260200160002060000160008373ffffffffffffffffffffffffffffffffffffffff1673ffffffffffffffffffffffffffffffffffffffff16815260200190815260200160002060006101000a81548160ff021916908315150217905550610fa2610e12565b73ffffffffffffffffffffffffffffffffffffffff168173ffffffffffffffffffffffffffffffffffffffff16837f2f8788117e7eff1d82e926ec794901d17c78024a50270940304540a733656f0d60405160405180910390a45b5050565b61100b8282610ca0565b156110df5760006001600084815260200190815260200160002060000160008373ffffffffffffffffffffffffffffffffffffffff1673ffffffffffffffffffffffffffffffffffffffff16815260200190815260200160002060006101000a81548160ff021916908315150217905550611084610e12565b73ffffffffffffffffffffffffffffffffffffffff168173ffffffffffffffffffffffffffffffffffffffff16837ff6391f5c32d9c69d2a47ea670b442974b53935d1edc7fd64eb21e047a839171b60405160405180910390a45b5050565b6110eb610600565b61112a576040517f08c379a000000000000000000000000000000000000000000000000000000000815260040161112190611e7b565b60405180910390fd5b60008060006101000a81548160ff0219169083151502179055507f5db9ee0a495bf2e6ff9c91a7834c1ba4fdd244a5e8aa4e537bd38aeae4b073aa61116d610e12565b60405161117a9190611d8f565b60405180910390a1565b60606000838361119491906120ea565b67ffffffffffffffff8111156111d3577f4e487b7100000000000000000000000000000000000000000000000000000000600052604160045260246000fd5b6040519080825280601f01601f1916602001820160405280156112055781602001600182028036833780820191505090505b50905060005b6001858561121991906120ea565b61122391906120ea565b81116112e857858181518110611262577f4e487b7100000000000000000000000000000000000000000000000000000000600052603260045260246000fd5b602001015160f81c60f81b8282815181106112a6577f4e487b7100000000000000000000000000000000000000000000000000000000600052603260045260246000fd5b60200101907effffffffffffffffffffffffffffffffffffffffffffffffffffffffffffff1916908160001a90535080806112e090612291565b91505061120b565b50809150509392505050565b6112fc610600565b1561133c576040517f08c379a000000000000000000000000000000000000000000000000000000000815260040161133390611ebb565b60405180910390fd5b60016000806101000a81548160ff0219169083151502179055507f62e78cea01bee320cd4e420270b5ea74000d11b0c9f74754ebdbfc544b05a25861137f610e12565b60405161138c9190611d8f565b60405180910390a1565b6060600060028360026113a99190612090565b6113b3919061203a565b67ffffffffffffffff8111156113f2577f4e487b7100000000000000000000000000000000000000000000000000000000600052604160045260246000fd5b6040519080825280601f01601f1916602001820160405280156114245781602001600182028036833780820191505090505b5090507f300000000000000000000000000000000000000000000000000000000000000081600081518110611482577f4e487b7100000000000000000000000000000000000000000000000000000000600052603260045260246000fd5b60200101907effffffffffffffffffffffffffffffffffffffffffffffffffffffffffffff1916908160001a9053507f78000000000000000000000000000000000000000000000000000000000000008160018151811061150c577f4e487b7100000000000000000000000000000000000000000000000000000000600052603260045260246000fd5b60200101907effffffffffffffffffffffffffffffffffffffffffffffffffffffffffffff1916908160001a9053506000600184600261154c9190612090565b611556919061203a565b90505b6001811115611642577f3031323334353637383961626364656600000000000000000000000000000000600f8616601081106115be577f4e487b7100000000000000000000000000000000000000000000000000000000600052603260045260246000fd5b1a60f81b8282815181106115fb577f4e487b7100000000000000000000000000000000000000000000000000000000600052603260045260246000fd5b60200101907effffffffffffffffffffffffffffffffffffffffffffffffffffffffffffff1916908160001a905350600485901c94508061163b90612236565b9050611559565b5060008414611686576040517f08c379a000000000000000000000000000000000000000000000000000000000815260040161167d90611e5b565b60405180910390fd5b8091505092915050565b60006116a361169e84611fbb565b611f96565b9050828152602081018484840111156116bb57600080fd5b6116c68482856121f4565b509392505050565b60006116e16116dc84611fbb565b611f96565b9050828152602081018484840111156116f957600080fd5b611704848285612203565b509392505050565b60008135905061171b81612634565b92915050565b6000813590506117308161264b565b92915050565b6000815190506117458161264b565b92915050565b60008135905061175a81612662565b92915050565b600082601f83011261177157600080fd5b8135611781848260208601611690565b91505092915050565b600082601f83011261179b57600080fd5b81516117ab8482602086016116ce565b91505092915050565b6000813590506117c381612679565b92915050565b6000806000606084860312156117de57600080fd5b60006117ec8682870161170c565b93505060206117fd86828701611721565b925050604084013567ffffffffffffffff81111561181a57600080fd5b61182686828701611760565b9150509250925092565b60006020828403121561184257600080fd5b600061185084828501611721565b91505092915050565b60006020828403121561186b57600080fd5b600061187984828501611736565b91505092915050565b6000806040838503121561189557600080fd5b60006118a385828601611721565b92505060206118b48582860161170c565b9150509250929050565b6000602082840312156118d057600080fd5b60006118de8482850161174b565b91505092915050565b6000602082840312156118f957600080fd5b600082013567ffffffffffffffff81111561191357600080fd5b61191f84828501611760565b91505092915050565b60006020828403121561193a57600080fd5b600082015167ffffffffffffffff81111561195457600080fd5b6119608482850161178a565b91505092915050565b6000806040838503121561197c57600080fd5b600083013567ffffffffffffffff81111561199657600080fd5b6119a285828601611760565b92505060206119b3858286016117b4565b9150509250929050565b6000602082840312156119cf57600080fd5b60006119dd848285016117b4565b91505092915050565b6119ef8161211e565b82525050565b6119fe81612130565b82525050565b611a15611a108261213c565b6122da565b82525050565b611a2c611a2782612168565b6122e4565b82525050565b611a3b81612194565b82525050565b611a52611a4d82612194565b6122ee565b82525050565b6000611a6382611fec565b611a6d8185612002565b9350611a7d818560208601612203565b611a8681612356565b840191505092915050565b6000611a9c82611fec565b611aa68185612013565b9350611ab6818560208601612203565b80840191505092915050565b6000611acd82611ff7565b611ad7818561201e565b9350611ae7818560208601612203565b611af081612356565b840191505092915050565b6000611b0682611ff7565b611b10818561202f565b9350611b20818560208601612203565b80840191505092915050565b6000611b3960208361201e565b9150611b4482612367565b602082019050919050565b6000611b5c60148361201e565b9150611b6782612390565b602082019050919050565b6000611b7f604f8361201e565b9150611b8a826123b9565b606082019050919050565b6000611ba260108361201e565b9150611bad8261242e565b602082019050919050565b6000611bc560538361201e565b9150611bd082612457565b606082019050919050565b6000611be8602c8361201e565b9150611bf3826124cc565b604082019050919050565b6000611c0b60178361202f565b9150611c168261251b565b601782019050919050565b6000611c2e601e8361201e565b9150611c3982612544565b602082019050919050565b6000611c5160298361201e565b9150611c5c8261256d565b604082019050919050565b6000611c7460118361202f565b9150611c7f826125bc565b601182019050919050565b6000611c97602f8361201e565b9150611ca2826125e5565b604082019050919050565b611cb6816121ea565b82525050565b6000611cc88285611a04565b600182019150611cd88284611a91565b91508190509392505050565b6000611cf08284611a1b565b60148201915081905092915050565b6000611d0b8284611a41565b60208201915081905092915050565b6000611d268284611a91565b915081905092915050565b6000611d3d8285611a91565b9150611d498284611a91565b91508190509392505050565b6000611d6082611bfe565b9150611d6c8285611afb565b9150611d7782611c67565b9150611d838284611afb565b91508190509392505050565b6000602082019050611da460008301846119e6565b92915050565b6000604082019050611dbf60008301856119e6565b611dcc6020830184611cad565b9392505050565b6000602082019050611de860008301846119f5565b92915050565b6000602082019050611e036000830184611a32565b92915050565b6000604082019050611e1e6000830185611a32565b8181036020830152611e308184611a58565b90509392505050565b60006020820190508181036000830152611e538184611ac2565b905092915050565b60006020820190508181036000830152611e7481611b2c565b9050919050565b60006020820190508181036000830152611e9481611b4f565b9050919050565b60006020820190508181036000830152611eb481611b72565b9050919050565b60006020820190508181036000830152611ed481611b95565b9050919050565b60006020820190508181036000830152611ef481611bb8565b9050919050565b60006020820190508181036000830152611f1481611bdb565b9050919050565b60006020820190508181036000830152611f3481611c21565b9050919050565b60006020820190508181036000830152611f5481611c44565b9050919050565b60006020820190508181036000830152611f7481611c8a565b9050919050565b6000602082019050611f906000830184611cad565b92915050565b6000611fa0611fb1565b9050611fac8282612260565b919050565b6000604051905090565b600067ffffffffffffffff821115611fd657611fd5612327565b5b611fdf82612356565b9050602081019050919050565b600081519050919050565b600081519050919050565b600082825260208201905092915050565b600081905092915050565b600082825260208201905092915050565b600081905092915050565b6000612045826121ea565b9150612050836121ea565b9250827fffffffffffffffffffffffffffffffffffffffffffffffffffffffffffffffff03821115612085576120846122f8565b5b828201905092915050565b600061209b826121ea565b91506120a6836121ea565b9250817fffffffffffffffffffffffffffffffffffffffffffffffffffffffffffffffff04831182151516156120df576120de6122f8565b5b828202905092915050565b60006120f5826121ea565b9150612100836121ea565b925082821015612113576121126122f8565b5b828203905092915050565b6000612129826121ca565b9050919050565b60008115159050919050565b60007fff0000000000000000000000000000000000000000000000000000000000000082169050919050565b60007fffffffffffffffffffffffffffffffffffffffff00000000000000000000000082169050919050565b6000819050919050565b60007fffffffff0000000000000000000000000000000000000000000000000000000082169050919050565b600073ffffffffffffffffffffffffffffffffffffffff82169050919050565b6000819050919050565b82818337600083830152505050565b60005b83811015612221578082015181840152602081019050612206565b83811115612230576000848401525b50505050565b6000612241826121ea565b91506000821415612255576122546122f8565b5b600182039050919050565b61226982612356565b810181811067ffffffffffffffff8211171561228857612287612327565b5b80604052505050565b600061229c826121ea565b91507fffffffffffffffffffffffffffffffffffffffffffffffffffffffffffffffff8214156122cf576122ce6122f8565b5b600182019050919050565b6000819050919050565b6000819050919050565b6000819050919050565b7f4e487b7100000000000000000000000000000000000000000000000000000000600052601160045260246000fd5b7f4e487b7100000000000000000000000000000000000000000000000000000000600052604160045260246000fd5b6000601f19601f8301169050919050565b7f537472696e67733a20686578206c656e67746820696e73756666696369656e74600082015250565b7f5061757361626c653a206e6f7420706175736564000000000000000000000000600082015250565b7f46696e61537761703a636c61696d20496e76616c6964207369676e617475726560008201527f206c656e6774682e20546865207369676e6174757265206d757374206265206560208201527f786163746c792036352062797465730000000000000000000000000000000000604082015250565b7f5061757361626c653a2070617573656400000000000000000000000000000000600082015250565b7f46696e61537761703a636c61696d20496e76616c6964207369676e617475726560008201527f2e20546865207265636f7665726564207075626c6963206b6579206d7573742060208201527f62652065786163746c7920333320627974657300000000000000000000000000604082015250565b7f46696e61537761703a636c61696d20546172676574206164647265737320636160008201527f6e6e6f74206265207a65726f0000000000000000000000000000000000000000602082015250565b7f416363657373436f6e74726f6c3a206163636f756e7420000000000000000000600082015250565b7f46696e61537761703a636c61696d20616c726561647920737761707065640000600082015250565b7f46696e61537761703a636c61696d205369676e6174757265206861736820697360008201527f2072657175697265640000000000000000000000000000000000000000000000602082015250565b7f206973206d697373696e6720726f6c6520000000000000000000000000000000600082015250565b7f416363657373436f6e74726f6c3a2063616e206f6e6c792072656e6f756e636560008201527f20726f6c657320666f722073656c660000000000000000000000000000000000602082015250565b61263d8161211e565b811461264857600080fd5b50565b61265481612194565b811461265f57600080fd5b50565b61266b8161219e565b811461267657600080fd5b50565b612682816121ea565b811461268d57600080fd5b5056fea2646970667358221220dfa5242eb316dead5632c15cded84076828deb0f29a2662de9572b6837d85fb264736f6c63430008040033",
					"opcodes": "PUSH1 0xE0 PUSH1 0x40 MSTORE CALLVALUE DUP1 ISZERO PUSH3 0x11 JUMPI PUSH1 0x0 DUP1 REVERT JUMPDEST POP PUSH1 0x40 MLOAD PUSH3 0x2B4F CODESIZE SUB DUP1 PUSH3 0x2B4F DUP4 CODECOPY DUP2 DUP2 ADD PUSH1 0x40 MSTORE DUP2 ADD SWAP1 PUSH3 0x37 SWAP2 SWAP1 PUSH3 0x329 JUMP JUMPDEST PUSH1 0x0 DUP1 PUSH1 0x0 PUSH2 0x100 EXP DUP2 SLOAD DUP2 PUSH1 0xFF MUL NOT AND SWAP1 DUP4 ISZERO ISZERO MUL OR SWAP1 SSTORE POP DUP4 PUSH20 0xFFFFFFFFFFFFFFFFFFFFFFFFFFFFFFFFFFFFFFFF AND PUSH1 0x80 DUP2 PUSH20 0xFFFFFFFFFFFFFFFFFFFFFFFFFFFFFFFFFFFFFFFF AND PUSH1 0x60 SHL DUP2 MSTORE POP POP DUP3 PUSH20 0xFFFFFFFFFFFFFFFFFFFFFFFFFFFFFFFFFFFFFFFF AND PUSH1 0xA0 DUP2 PUSH20 0xFFFFFFFFFFFFFFFFFFFFFFFFFFFFFFFFFFFFFFFF AND PUSH1 0x60 SHL DUP2 MSTORE POP POP DUP2 PUSH31 0xFFFFFFFFFFFFFFFFFFFFFFFFFFFFFFFFFFFFFFFFFFFFFFFFFFFFFFFFFFFFFF NOT AND PUSH1 0xC0 DUP2 PUSH31 0xFFFFFFFFFFFFFFFFFFFFFFFFFFFFFFFFFFFFFFFFFFFFFFFFFFFFFFFFFFFFFF NOT AND DUP2 MSTORE POP POP DUP1 PUSH1 0x2 DUP2 SWAP1 SSTORE POP PUSH3 0x144 PUSH32 0xA49807205CE4D355092EF5A8A18F56E8913CF4A201FBE287825B095693C21775 CALLER PUSH3 0x180 PUSH1 0x20 SHL PUSH1 0x20 SHR JUMP JUMPDEST PUSH3 0x176 PUSH32 0x65D7A28E3265B37A6474929F336521B332C1681B933F6CB9F3376673440D862A CALLER PUSH3 0x180 PUSH1 0x20 SHL PUSH1 0x20 SHR JUMP JUMPDEST POP POP POP POP PUSH3 0x44D JUMP JUMPDEST PUSH3 0x192 DUP3 DUP3 PUSH3 0x271 PUSH1 0x20 SHL PUSH1 0x20 SHR JUMP JUMPDEST PUSH3 0x26D JUMPI PUSH1 0x1 DUP1 PUSH1 0x0 DUP5 DUP2 MSTORE PUSH1 0x20 ADD SWAP1 DUP2 MSTORE PUSH1 0x20 ADD PUSH1 0x0 KECCAK256 PUSH1 0x0 ADD PUSH1 0x0 DUP4 PUSH20 0xFFFFFFFFFFFFFFFFFFFFFFFFFFFFFFFFFFFFFFFF AND PUSH20 0xFFFFFFFFFFFFFFFFFFFFFFFFFFFFFFFFFFFFFFFF AND DUP2 MSTORE PUSH1 0x20 ADD SWAP1 DUP2 MSTORE PUSH1 0x20 ADD PUSH1 0x0 KECCAK256 PUSH1 0x0 PUSH2 0x100 EXP DUP2 SLOAD DUP2 PUSH1 0xFF MUL NOT AND SWAP1 DUP4 ISZERO ISZERO MUL OR SWAP1 SSTORE POP PUSH3 0x212 PUSH3 0x2DC PUSH1 0x20 SHL PUSH1 0x20 SHR JUMP JUMPDEST PUSH20 0xFFFFFFFFFFFFFFFFFFFFFFFFFFFFFFFFFFFFFFFF AND DUP2 PUSH20 0xFFFFFFFFFFFFFFFFFFFFFFFFFFFFFFFFFFFFFFFF AND DUP4 PUSH32 0x2F8788117E7EFF1D82E926EC794901D17C78024A50270940304540A733656F0D PUSH1 0x40 MLOAD PUSH1 0x40 MLOAD DUP1 SWAP2 SUB SWAP1 LOG4 JUMPDEST POP POP JUMP JUMPDEST PUSH1 0x0 PUSH1 0x1 PUSH1 0x0 DUP5 DUP2 MSTORE PUSH1 0x20 ADD SWAP1 DUP2 MSTORE PUSH1 0x20 ADD PUSH1 0x0 KECCAK256 PUSH1 0x0 ADD PUSH1 0x0 DUP4 PUSH20 0xFFFFFFFFFFFFFFFFFFFFFFFFFFFFFFFFFFFFFFFF AND PUSH20 0xFFFFFFFFFFFFFFFFFFFFFFFFFFFFFFFFFFFFFFFF AND DUP2 MSTORE PUSH1 0x20 ADD SWAP1 DUP2 MSTORE PUSH1 0x20 ADD PUSH1 0x0 KECCAK256 PUSH1 0x0 SWAP1 SLOAD SWAP1 PUSH2 0x100 EXP SWAP1 DIV PUSH1 0xFF AND SWAP1 POP SWAP3 SWAP2 POP POP JUMP JUMPDEST PUSH1 0x0 CALLER SWAP1 POP SWAP1 JUMP JUMPDEST PUSH1 0x0 DUP2 MLOAD SWAP1 POP PUSH3 0x2F5 DUP2 PUSH3 0x3FF JUMP JUMPDEST SWAP3 SWAP2 POP POP JUMP JUMPDEST PUSH1 0x0 DUP2 MLOAD SWAP1 POP PUSH3 0x30C DUP2 PUSH3 0x419 JUMP JUMPDEST SWAP3 SWAP2 POP POP JUMP JUMPDEST PUSH1 0x0 DUP2 MLOAD SWAP1 POP PUSH3 0x323 DUP2 PUSH3 0x433 JUMP JUMPDEST SWAP3 SWAP2 POP POP JUMP JUMPDEST PUSH1 0x0 DUP1 PUSH1 0x0 DUP1 PUSH1 0x80 DUP6 DUP8 SUB SLT ISZERO PUSH3 0x340 JUMPI PUSH1 0x0 DUP1 REVERT JUMPDEST PUSH1 0x0 PUSH3 0x350 DUP8 DUP3 DUP9 ADD PUSH3 0x2E4 JUMP JUMPDEST SWAP5 POP POP PUSH1 0x20 PUSH3 0x363 DUP8 DUP3 DUP9 ADD PUSH3 0x2E4 JUMP JUMPDEST SWAP4 POP POP PUSH1 0x40 PUSH3 0x376 DUP8 DUP3 DUP9 ADD PUSH3 0x2FB JUMP JUMPDEST SWAP3 POP POP PUSH1 0x60 PUSH3 0x389 DUP8 DUP3 DUP9 ADD PUSH3 0x312 JUMP JUMPDEST SWAP2 POP POP SWAP3 SWAP6 SWAP2 SWAP5 POP SWAP3 POP JUMP JUMPDEST PUSH1 0x0 PUSH3 0x3A2 DUP3 PUSH3 0x3D5 JUMP JUMPDEST SWAP1 POP SWAP2 SWAP1 POP JUMP JUMPDEST PUSH1 0x0 PUSH32 0xFF00000000000000000000000000000000000000000000000000000000000000 DUP3 AND SWAP1 POP SWAP2 SWAP1 POP JUMP JUMPDEST PUSH1 0x0 PUSH20 0xFFFFFFFFFFFFFFFFFFFFFFFFFFFFFFFFFFFFFFFF DUP3 AND SWAP1 POP SWAP2 SWAP1 POP JUMP JUMPDEST PUSH1 0x0 DUP2 SWAP1 POP SWAP2 SWAP1 POP JUMP JUMPDEST PUSH3 0x40A DUP2 PUSH3 0x395 JUMP JUMPDEST DUP2 EQ PUSH3 0x416 JUMPI PUSH1 0x0 DUP1 REVERT JUMPDEST POP JUMP JUMPDEST PUSH3 0x424 DUP2 PUSH3 0x3A9 JUMP JUMPDEST DUP2 EQ PUSH3 0x430 JUMPI PUSH1 0x0 DUP1 REVERT JUMPDEST POP JUMP JUMPDEST PUSH3 0x43E DUP2 PUSH3 0x3F5 JUMP JUMPDEST DUP2 EQ PUSH3 0x44A JUMPI PUSH1 0x0 DUP1 REVERT JUMPDEST POP JUMP JUMPDEST PUSH1 0x80 MLOAD PUSH1 0x60 SHR PUSH1 0xA0 MLOAD PUSH1 0x60 SHR PUSH1 0xC0 MLOAD PUSH1 0xF8 SHR PUSH1 0xF8 SHL PUSH2 0x26C6 PUSH3 0x489 PUSH1 0x0 CODECOPY PUSH1 0x0 PUSH2 0x981 ADD MSTORE PUSH1 0x0 PUSH2 0xB7F ADD MSTORE PUSH1 0x0 PUSH2 0x7BC ADD MSTORE PUSH2 0x26C6 PUSH1 0x0 RETURN INVALID PUSH1 0x80 PUSH1 0x40 MSTORE CALLVALUE DUP1 ISZERO PUSH2 0x10 JUMPI PUSH1 0x0 DUP1 REVERT JUMPDEST POP PUSH1 0x4 CALLDATASIZE LT PUSH2 0x12C JUMPI PUSH1 0x0 CALLDATALOAD PUSH1 0xE0 SHR DUP1 PUSH4 0x75B238FC GT PUSH2 0xAD JUMPI DUP1 PUSH4 0xA217FDDF GT PUSH2 0x71 JUMPI DUP1 PUSH4 0xA217FDDF EQ PUSH2 0x307 JUMPI DUP1 PUSH4 0xC6AFE01E EQ PUSH2 0x325 JUMPI DUP1 PUSH4 0xC71C6490 EQ PUSH2 0x341 JUMPI DUP1 PUSH4 0xD547741F EQ PUSH2 0x35D JUMPI DUP1 PUSH4 0xE63AB1E9 EQ PUSH2 0x379 JUMPI PUSH2 0x12C JUMP JUMPDEST DUP1 PUSH4 0x75B238FC EQ PUSH2 0x261 JUMPI DUP1 PUSH4 0x78415365 EQ PUSH2 0x27F JUMPI DUP1 PUSH4 0x8456CB59 EQ PUSH2 0x2AF JUMPI DUP1 PUSH4 0x91D14854 EQ PUSH2 0x2B9 JUMPI DUP1 PUSH4 0xA0D5680F EQ PUSH2 0x2E9 JUMPI PUSH2 0x12C JUMP JUMPDEST DUP1 PUSH4 0x36568ABE GT PUSH2 0xF4 JUMPI DUP1 PUSH4 0x36568ABE EQ PUSH2 0x1E5 JUMPI DUP1 PUSH4 0x3F4BA83A EQ PUSH2 0x201 JUMPI DUP1 PUSH4 0x5B06A1D5 EQ PUSH2 0x20B JUMPI DUP1 PUSH4 0x5C975ABB EQ PUSH2 0x227 JUMPI DUP1 PUSH4 0x736C76EE EQ PUSH2 0x245 JUMPI PUSH2 0x12C JUMP JUMPDEST DUP1 PUSH4 0x112F541 EQ PUSH2 0x131 JUMPI DUP1 PUSH4 0x1FFC9A7 EQ PUSH2 0x14D JUMPI DUP1 PUSH4 0x248A9CA3 EQ PUSH2 0x17D JUMPI DUP1 PUSH4 0x2F2FF15D EQ PUSH2 0x1AD JUMPI DUP1 PUSH4 0x3636F669 EQ PUSH2 0x1C9 JUMPI JUMPDEST PUSH1 0x0 DUP1 REVERT JUMPDEST PUSH2 0x14B PUSH1 0x4 DUP1 CALLDATASIZE SUB DUP2 ADD SWAP1 PUSH2 0x146 SWAP2 SWAP1 PUSH2 0x19BD JUMP JUMPDEST PUSH2 0x397 JUMP JUMPDEST STOP JUMPDEST PUSH2 0x167 PUSH1 0x4 DUP1 CALLDATASIZE SUB DUP2 ADD SWAP1 PUSH2 0x162 SWAP2 SWAP1 PUSH2 0x18BE JUMP JUMPDEST PUSH2 0x3E6 JUMP JUMPDEST PUSH1 0x40 MLOAD PUSH2 0x174 SWAP2 SWAP1 PUSH2 0x1DD3 JUMP JUMPDEST PUSH1 0x40 MLOAD DUP1 SWAP2 SUB SWAP1 RETURN JUMPDEST PUSH2 0x197 PUSH1 0x4 DUP1 CALLDATASIZE SUB DUP2 ADD SWAP1 PUSH2 0x192 SWAP2 SWAP1 PUSH2 0x1830 JUMP JUMPDEST PUSH2 0x460 JUMP JUMPDEST PUSH1 0x40 MLOAD PUSH2 0x1A4 SWAP2 SWAP1 PUSH2 0x1DEE JUMP JUMPDEST PUSH1 0x40 MLOAD DUP1 SWAP2 SUB SWAP1 RETURN JUMPDEST PUSH2 0x1C7 PUSH1 0x4 DUP1 CALLDATASIZE SUB DUP2 ADD SWAP1 PUSH2 0x1C2 SWAP2 SWAP1 PUSH2 0x1882 JUMP JUMPDEST PUSH2 0x480 JUMP JUMPDEST STOP JUMPDEST PUSH2 0x1E3 PUSH1 0x4 DUP1 CALLDATASIZE SUB DUP2 ADD SWAP1 PUSH2 0x1DE SWAP2 SWAP1 PUSH2 0x18E7 JUMP JUMPDEST PUSH2 0x4A9 JUMP JUMPDEST STOP JUMPDEST PUSH2 0x1FF PUSH1 0x4 DUP1 CALLDATASIZE SUB DUP2 ADD SWAP1 PUSH2 0x1FA SWAP2 SWAP1 PUSH2 0x1882 JUMP JUMPDEST PUSH2 0x503 JUMP JUMPDEST STOP JUMPDEST PUSH2 0x209 PUSH2 0x586 JUMP JUMPDEST STOP JUMPDEST PUSH2 0x225 PUSH1 0x4 DUP1 CALLDATASIZE SUB DUP2 ADD SWAP1 PUSH2 0x220 SWAP2 SWAP1 PUSH2 0x19BD JUMP JUMPDEST PUSH2 0x5C3 JUMP JUMPDEST STOP JUMPDEST PUSH2 0x22F PUSH2 0x600 JUMP JUMPDEST PUSH1 0x40 MLOAD PUSH2 0x23C SWAP2 SWAP1 PUSH2 0x1DD3 JUMP JUMPDEST PUSH1 0x40 MLOAD DUP1 SWAP2 SUB SWAP1 RETURN JUMPDEST PUSH2 0x25F PUSH1 0x4 DUP1 CALLDATASIZE SUB DUP2 ADD SWAP1 PUSH2 0x25A SWAP2 SWAP1 PUSH2 0x17C9 JUMP JUMPDEST PUSH2 0x616 JUMP JUMPDEST STOP JUMPDEST PUSH2 0x269 PUSH2 0xC17 JUMP JUMPDEST PUSH1 0x40 MLOAD PUSH2 0x276 SWAP2 SWAP1 PUSH2 0x1DEE JUMP JUMPDEST PUSH1 0x40 MLOAD DUP1 SWAP2 SUB SWAP1 RETURN JUMPDEST PUSH2 0x299 PUSH1 0x4 DUP1 CALLDATASIZE SUB DUP2 ADD SWAP1 PUSH2 0x294 SWAP2 SWAP1 PUSH2 0x18E7 JUMP JUMPDEST PUSH2 0xC3B JUMP JUMPDEST PUSH1 0x40 MLOAD PUSH2 0x2A6 SWAP2 SWAP1 PUSH2 0x1F7B JUMP JUMPDEST PUSH1 0x40 MLOAD DUP1 SWAP2 SUB SWAP1 RETURN JUMPDEST PUSH2 0x2B7 PUSH2 0xC63 JUMP JUMPDEST STOP JUMPDEST PUSH2 0x2D3 PUSH1 0x4 DUP1 CALLDATASIZE SUB DUP2 ADD SWAP1 PUSH2 0x2CE SWAP2 SWAP1 PUSH2 0x1882 JUMP JUMPDEST PUSH2 0xCA0 JUMP JUMPDEST PUSH1 0x40 MLOAD PUSH2 0x2E0 SWAP2 SWAP1 PUSH2 0x1DD3 JUMP JUMPDEST PUSH1 0x40 MLOAD DUP1 SWAP2 SUB SWAP1 RETURN JUMPDEST PUSH2 0x2F1 PUSH2 0xD0B JUMP JUMPDEST PUSH1 0x40 MLOAD PUSH2 0x2FE SWAP2 SWAP1 PUSH2 0x1F7B JUMP JUMPDEST PUSH1 0x40 MLOAD DUP1 SWAP2 SUB SWAP1 RETURN JUMPDEST PUSH2 0x30F PUSH2 0xD15 JUMP JUMPDEST PUSH1 0x40 MLOAD PUSH2 0x31C SWAP2 SWAP1 PUSH2 0x1DEE JUMP JUMPDEST PUSH1 0x40 MLOAD DUP1 SWAP2 SUB SWAP1 RETURN JUMPDEST PUSH2 0x33F PUSH1 0x4 DUP1 CALLDATASIZE SUB DUP2 ADD SWAP1 PUSH2 0x33A SWAP2 SWAP1 PUSH2 0x19BD JUMP JUMPDEST PUSH2 0xD1C JUMP JUMPDEST STOP JUMPDEST PUSH2 0x35B PUSH1 0x4 DUP1 CALLDATASIZE SUB DUP2 ADD SWAP1 PUSH2 0x356 SWAP2 SWAP1 PUSH2 0x1969 JUMP JUMPDEST PUSH2 0xD6B JUMP JUMPDEST STOP JUMPDEST PUSH2 0x377 PUSH1 0x4 DUP1 CALLDATASIZE SUB DUP2 ADD SWAP1 PUSH2 0x372 SWAP2 SWAP1 PUSH2 0x1882 JUMP JUMPDEST PUSH2 0xDC5 JUMP JUMPDEST STOP JUMPDEST PUSH2 0x381 PUSH2 0xDEE JUMP JUMPDEST PUSH1 0x40 MLOAD PUSH2 0x38E SWAP2 SWAP1 PUSH2 0x1DEE JUMP JUMPDEST PUSH1 0x40 MLOAD DUP1 SWAP2 SUB SWAP1 RETURN JUMPDEST PUSH32 0xA49807205CE4D355092EF5A8A18F56E8913CF4A201FBE287825B095693C21775 PUSH2 0x3C9 DUP2 PUSH2 0x3C4 PUSH2 0xE12 JUMP JUMPDEST PUSH2 0xE1A JUMP JUMPDEST DUP2 PUSH1 0x4 PUSH1 0x0 DUP3 DUP3 SLOAD PUSH2 0x3DB SWAP2 SWAP1 PUSH2 0x203A JUMP JUMPDEST SWAP3 POP POP DUP2 SWAP1 SSTORE POP POP POP JUMP JUMPDEST PUSH1 0x0 PUSH32 0x7965DB0B00000000000000000000000000000000000000000000000000000000 PUSH28 0xFFFFFFFFFFFFFFFFFFFFFFFFFFFFFFFFFFFFFFFFFFFFFFFFFFFFFFFF NOT AND DUP3 PUSH28 0xFFFFFFFFFFFFFFFFFFFFFFFFFFFFFFFFFFFFFFFFFFFFFFFFFFFFFFFF NOT AND EQ DUP1 PUSH2 0x459 JUMPI POP PUSH2 0x458 DUP3 PUSH2 0xEB7 JUMP JUMPDEST JUMPDEST SWAP1 POP SWAP2 SWAP1 POP JUMP JUMPDEST PUSH1 0x0 PUSH1 0x1 PUSH1 0x0 DUP4 DUP2 MSTORE PUSH1 0x20 ADD SWAP1 DUP2 MSTORE PUSH1 0x20 ADD PUSH1 0x0 KECCAK256 PUSH1 0x1 ADD SLOAD SWAP1 POP SWAP2 SWAP1 POP JUMP JUMPDEST PUSH2 0x489 DUP3 PUSH2 0x460 JUMP JUMPDEST PUSH2 0x49A DUP2 PUSH2 0x495 PUSH2 0xE12 JUMP JUMPDEST PUSH2 0xE1A JUMP JUMPDEST PUSH2 0x4A4 DUP4 DUP4 PUSH2 0xF21 JUMP JUMPDEST POP POP POP JUMP JUMPDEST PUSH32 0xA49807205CE4D355092EF5A8A18F56E8913CF4A201FBE287825B095693C21775 PUSH2 0x4DB DUP2 PUSH2 0x4D6 PUSH2 0xE12 JUMP JUMPDEST PUSH2 0xE1A JUMP JUMPDEST PUSH1 0x0 PUSH1 0x3 DUP4 PUSH1 0x40 MLOAD PUSH2 0x4ED SWAP2 SWAP1 PUSH2 0x1D1A JUMP JUMPDEST SWAP1 DUP2 MSTORE PUSH1 0x20 ADD PUSH1 0x40 MLOAD DUP1 SWAP2 SUB SWAP1 KECCAK256 DUP2 SWAP1 SSTORE POP POP POP JUMP JUMPDEST PUSH2 0x50B PUSH2 0xE12 JUMP JUMPDEST PUSH20 0xFFFFFFFFFFFFFFFFFFFFFFFFFFFFFFFFFFFFFFFF AND DUP2 PUSH20 0xFFFFFFFFFFFFFFFFFFFFFFFFFFFFFFFFFFFFFFFF AND EQ PUSH2 0x578 JUMPI PUSH1 0x40 MLOAD PUSH32 0x8C379A000000000000000000000000000000000000000000000000000000000 DUP2 MSTORE PUSH1 0x4 ADD PUSH2 0x56F SWAP1 PUSH2 0x1F5B JUMP JUMPDEST PUSH1 0x40 MLOAD DUP1 SWAP2 SUB SWAP1 REVERT JUMPDEST PUSH2 0x582 DUP3 DUP3 PUSH2 0x1001 JUMP JUMPDEST POP POP JUMP JUMPDEST PUSH32 0x65D7A28E3265B37A6474929F336521B332C1681B933F6CB9F3376673440D862A PUSH2 0x5B8 DUP2 PUSH2 0x5B3 PUSH2 0xE12 JUMP JUMPDEST PUSH2 0xE1A JUMP JUMPDEST PUSH2 0x5C0 PUSH2 0x10E3 JUMP JUMPDEST POP JUMP JUMPDEST PUSH32 0xA49807205CE4D355092EF5A8A18F56E8913CF4A201FBE287825B095693C21775 PUSH2 0x5F5 DUP2 PUSH2 0x5F0 PUSH2 0xE12 JUMP JUMPDEST PUSH2 0xE1A JUMP JUMPDEST DUP2 PUSH1 0x2 DUP2 SWAP1 SSTORE POP POP POP JUMP JUMPDEST PUSH1 0x0 DUP1 PUSH1 0x0 SWAP1 SLOAD SWAP1 PUSH2 0x100 EXP SWAP1 DIV PUSH1 0xFF AND SWAP1 POP SWAP1 JUMP JUMPDEST PUSH2 0x61E PUSH2 0x600 JUMP JUMPDEST ISZERO PUSH2 0x65E JUMPI PUSH1 0x40 MLOAD PUSH32 0x8C379A000000000000000000000000000000000000000000000000000000000 DUP2 MSTORE PUSH1 0x4 ADD PUSH2 0x655 SWAP1 PUSH2 0x1EBB JUMP JUMPDEST PUSH1 0x40 MLOAD DUP1 SWAP2 SUB SWAP1 REVERT JUMPDEST PUSH1 0x0 PUSH20 0xFFFFFFFFFFFFFFFFFFFFFFFFFFFFFFFFFFFFFFFF AND DUP4 PUSH20 0xFFFFFFFFFFFFFFFFFFFFFFFFFFFFFFFFFFFFFFFF AND EQ ISZERO PUSH2 0x6CE JUMPI PUSH1 0x40 MLOAD PUSH32 0x8C379A000000000000000000000000000000000000000000000000000000000 DUP2 MSTORE PUSH1 0x4 ADD PUSH2 0x6C5 SWAP1 PUSH2 0x1EFB JUMP JUMPDEST PUSH1 0x40 MLOAD DUP1 SWAP2 SUB SWAP1 REVERT JUMPDEST PUSH1 0x0 PUSH1 0xF8 SHL DUP3 PUSH1 0x0 PUSH1 0x20 DUP2 LT PUSH2 0x70D JUMPI PUSH32 0x4E487B7100000000000000000000000000000000000000000000000000000000 PUSH1 0x0 MSTORE PUSH1 0x32 PUSH1 0x4 MSTORE PUSH1 0x24 PUSH1 0x0 REVERT JUMPDEST BYTE PUSH1 0xF8 SHL PUSH31 0xFFFFFFFFFFFFFFFFFFFFFFFFFFFFFFFFFFFFFFFFFFFFFFFFFFFFFFFFFFFFFF NOT AND EQ ISZERO PUSH2 0x774 JUMPI PUSH1 0x40 MLOAD PUSH32 0x8C379A000000000000000000000000000000000000000000000000000000000 DUP2 MSTORE PUSH1 0x4 ADD PUSH2 0x76B SWAP1 PUSH2 0x1F3B JUMP JUMPDEST PUSH1 0x40 MLOAD DUP1 SWAP2 SUB SWAP1 REVERT JUMPDEST PUSH1 0x41 DUP2 MLOAD EQ PUSH2 0x7B8 JUMPI PUSH1 0x40 MLOAD PUSH32 0x8C379A000000000000000000000000000000000000000000000000000000000 DUP2 MSTORE PUSH1 0x4 ADD PUSH2 0x7AF SWAP1 PUSH2 0x1E9B JUMP JUMPDEST PUSH1 0x40 MLOAD DUP1 SWAP2 SUB SWAP1 REVERT JUMPDEST PUSH1 0x0 PUSH32 0x0 PUSH20 0xFFFFFFFFFFFFFFFFFFFFFFFFFFFFFFFFFFFFFFFF AND PUSH4 0x19045A25 DUP5 DUP5 PUSH1 0x40 MLOAD DUP4 PUSH4 0xFFFFFFFF AND PUSH1 0xE0 SHL DUP2 MSTORE PUSH1 0x4 ADD PUSH2 0x815 SWAP3 SWAP2 SWAP1 PUSH2 0x1E09 JUMP JUMPDEST PUSH1 0x0 PUSH1 0x40 MLOAD DUP1 DUP4 SUB DUP2 DUP7 DUP1 EXTCODESIZE ISZERO DUP1 ISZERO PUSH2 0x82D JUMPI PUSH1 0x0 DUP1 REVERT JUMPDEST POP GAS STATICCALL ISZERO DUP1 ISZERO PUSH2 0x841 JUMPI RETURNDATASIZE PUSH1 0x0 DUP1 RETURNDATACOPY RETURNDATASIZE PUSH1 0x0 REVERT JUMPDEST POP POP POP POP PUSH1 0x40 MLOAD RETURNDATASIZE PUSH1 0x0 DUP3 RETURNDATACOPY RETURNDATASIZE PUSH1 0x1F NOT PUSH1 0x1F DUP3 ADD AND DUP3 ADD DUP1 PUSH1 0x40 MSTORE POP DUP2 ADD SWAP1 PUSH2 0x86A SWAP2 SWAP1 PUSH2 0x1928 JUMP JUMPDEST SWAP1 POP PUSH1 0x21 DUP2 MLOAD EQ PUSH2 0x8B0 JUMPI PUSH1 0x40 MLOAD PUSH32 0x8C379A000000000000000000000000000000000000000000000000000000000 DUP2 MSTORE PUSH1 0x4 ADD PUSH2 0x8A7 SWAP1 PUSH2 0x1EDB JUMP JUMPDEST PUSH1 0x40 MLOAD DUP1 SWAP2 SUB SWAP1 REVERT JUMPDEST PUSH1 0x0 PUSH1 0x2 DUP3 PUSH1 0x40 MLOAD PUSH2 0x8C2 SWAP2 SWAP1 PUSH2 0x1D1A JUMP JUMPDEST PUSH1 0x20 PUSH1 0x40 MLOAD DUP1 DUP4 SUB DUP2 DUP6 GAS STATICCALL ISZERO DUP1 ISZERO PUSH2 0x8DF JUMPI RETURNDATASIZE PUSH1 0x0 DUP1 RETURNDATACOPY RETURNDATASIZE PUSH1 0x0 REVERT JUMPDEST POP POP POP PUSH1 0x40 MLOAD RETURNDATASIZE PUSH1 0x1F NOT PUSH1 0x1F DUP3 ADD AND DUP3 ADD DUP1 PUSH1 0x40 MSTORE POP DUP2 ADD SWAP1 PUSH2 0x902 SWAP2 SWAP1 PUSH2 0x1859 JUMP JUMPDEST SWAP1 POP PUSH1 0x0 PUSH1 0x3 DUP3 PUSH1 0x40 MLOAD PUSH1 0x20 ADD PUSH2 0x919 SWAP2 SWAP1 PUSH2 0x1CFF JUMP JUMPDEST PUSH1 0x40 MLOAD PUSH1 0x20 DUP2 DUP4 SUB SUB DUP2 MSTORE SWAP1 PUSH1 0x40 MSTORE PUSH1 0x40 MLOAD PUSH2 0x935 SWAP2 SWAP1 PUSH2 0x1D1A JUMP JUMPDEST PUSH1 0x20 PUSH1 0x40 MLOAD DUP1 DUP4 SUB DUP2 DUP6 GAS STATICCALL ISZERO DUP1 ISZERO PUSH2 0x952 JUMPI RETURNDATASIZE PUSH1 0x0 DUP1 RETURNDATACOPY RETURNDATASIZE PUSH1 0x0 REVERT JUMPDEST POP POP POP PUSH1 0x40 MLOAD MLOAD PUSH1 0x60 SHL PUSH1 0x40 MLOAD PUSH1 0x20 ADD PUSH2 0x96C SWAP2 SWAP1 PUSH2 0x1CE4 JUMP JUMPDEST PUSH1 0x40 MLOAD PUSH1 0x20 DUP2 DUP4 SUB SUB DUP2 MSTORE SWAP1 PUSH1 0x40 MSTORE SWAP1 POP PUSH1 0x0 PUSH32 0x0 DUP3 PUSH1 0x40 MLOAD PUSH1 0x20 ADD PUSH2 0x9B2 SWAP3 SWAP2 SWAP1 PUSH2 0x1CBC JUMP JUMPDEST PUSH1 0x40 MLOAD PUSH1 0x20 DUP2 DUP4 SUB SUB DUP2 MSTORE SWAP1 PUSH1 0x40 MSTORE SWAP1 POP PUSH1 0x0 PUSH1 0x2 DUP1 DUP4 PUSH1 0x40 MLOAD PUSH2 0x9D6 SWAP2 SWAP1 PUSH2 0x1D1A JUMP JUMPDEST PUSH1 0x20 PUSH1 0x40 MLOAD DUP1 DUP4 SUB DUP2 DUP6 GAS STATICCALL ISZERO DUP1 ISZERO PUSH2 0x9F3 JUMPI RETURNDATASIZE PUSH1 0x0 DUP1 RETURNDATACOPY RETURNDATASIZE PUSH1 0x0 REVERT JUMPDEST POP POP POP PUSH1 0x40 MLOAD RETURNDATASIZE PUSH1 0x1F NOT PUSH1 0x1F DUP3 ADD AND DUP3 ADD DUP1 PUSH1 0x40 MSTORE POP DUP2 ADD SWAP1 PUSH2 0xA16 SWAP2 SWAP1 PUSH2 0x1859 JUMP JUMPDEST PUSH1 0x40 MLOAD PUSH1 0x20 ADD PUSH2 0xA26 SWAP2 SWAP1 PUSH2 0x1CFF JUMP JUMPDEST PUSH1 0x40 MLOAD PUSH1 0x20 DUP2 DUP4 SUB SUB DUP2 MSTORE SWAP1 PUSH1 0x40 MSTORE PUSH1 0x40 MLOAD PUSH2 0xA42 SWAP2 SWAP1 PUSH2 0x1D1A JUMP JUMPDEST PUSH1 0x20 PUSH1 0x40 MLOAD DUP1 DUP4 SUB DUP2 DUP6 GAS STATICCALL ISZERO DUP1 ISZERO PUSH2 0xA5F JUMPI RETURNDATASIZE PUSH1 0x0 DUP1 RETURNDATACOPY RETURNDATASIZE PUSH1 0x0 REVERT JUMPDEST POP POP POP PUSH1 0x40 MLOAD RETURNDATASIZE PUSH1 0x1F NOT PUSH1 0x1F DUP3 ADD AND DUP3 ADD DUP1 PUSH1 0x40 MSTORE POP DUP2 ADD SWAP1 PUSH2 0xA82 SWAP2 SWAP1 PUSH2 0x1859 JUMP JUMPDEST PUSH1 0x40 MLOAD PUSH1 0x20 ADD PUSH2 0xA92 SWAP2 SWAP1 PUSH2 0x1CFF JUMP JUMPDEST PUSH1 0x40 MLOAD PUSH1 0x20 DUP2 DUP4 SUB SUB DUP2 MSTORE SWAP1 PUSH1 0x40 MSTORE SWAP1 POP PUSH1 0x0 PUSH2 0xAB2 DUP3 PUSH1 0x0 PUSH1 0x4 PUSH2 0x1184 JUMP JUMPDEST SWAP1 POP PUSH1 0x0 DUP4 DUP3 PUSH1 0x40 MLOAD PUSH1 0x20 ADD PUSH2 0xAC9 SWAP3 SWAP2 SWAP1 PUSH2 0x1D31 JUMP JUMPDEST PUSH1 0x40 MLOAD PUSH1 0x20 DUP2 DUP4 SUB SUB DUP2 MSTORE SWAP1 PUSH1 0x40 MSTORE SWAP1 POP PUSH1 0x0 PUSH1 0x3 DUP3 PUSH1 0x40 MLOAD PUSH2 0xAEC SWAP2 SWAP1 PUSH2 0x1D1A JUMP JUMPDEST SWAP1 DUP2 MSTORE PUSH1 0x20 ADD PUSH1 0x40 MLOAD DUP1 SWAP2 SUB SWAP1 KECCAK256 SLOAD SWAP1 POP PUSH1 0x0 DUP2 GT PUSH2 0xB40 JUMPI PUSH1 0x40 MLOAD PUSH32 0x8C379A000000000000000000000000000000000000000000000000000000000 DUP2 MSTORE PUSH1 0x4 ADD PUSH2 0xB37 SWAP1 PUSH2 0x1F1B JUMP JUMPDEST PUSH1 0x40 MLOAD DUP1 SWAP2 SUB SWAP1 REVERT JUMPDEST PUSH1 0x0 PUSH1 0x3 DUP4 PUSH1 0x40 MLOAD PUSH2 0xB52 SWAP2 SWAP1 PUSH2 0x1D1A JUMP JUMPDEST SWAP1 DUP2 MSTORE PUSH1 0x20 ADD PUSH1 0x40 MLOAD DUP1 SWAP2 SUB SWAP1 KECCAK256 DUP2 SWAP1 SSTORE POP DUP1 PUSH1 0x4 PUSH1 0x0 DUP3 DUP3 SLOAD PUSH2 0xB76 SWAP2 SWAP1 PUSH2 0x203A JUMP JUMPDEST SWAP3 POP POP DUP2 SWAP1 SSTORE POP PUSH32 0x0 PUSH20 0xFFFFFFFFFFFFFFFFFFFFFFFFFFFFFFFFFFFFFFFF AND PUSH4 0x40C10F19 DUP13 DUP4 PUSH1 0x40 MLOAD DUP4 PUSH4 0xFFFFFFFF AND PUSH1 0xE0 SHL DUP2 MSTORE PUSH1 0x4 ADD PUSH2 0xBD8 SWAP3 SWAP2 SWAP1 PUSH2 0x1DAA JUMP JUMPDEST PUSH1 0x0 PUSH1 0x40 MLOAD DUP1 DUP4 SUB DUP2 PUSH1 0x0 DUP8 DUP1 EXTCODESIZE ISZERO DUP1 ISZERO PUSH2 0xBF2 JUMPI PUSH1 0x0 DUP1 REVERT JUMPDEST POP GAS CALL ISZERO DUP1 ISZERO PUSH2 0xC06 JUMPI RETURNDATASIZE PUSH1 0x0 DUP1 RETURNDATACOPY RETURNDATASIZE PUSH1 0x0 REVERT JUMPDEST POP POP POP POP POP POP POP POP POP POP POP POP POP POP POP JUMP JUMPDEST PUSH32 0xA49807205CE4D355092EF5A8A18F56E8913CF4A201FBE287825B095693C21775 DUP2 JUMP JUMPDEST PUSH1 0x0 PUSH1 0x3 DUP3 PUSH1 0x40 MLOAD PUSH2 0xC4D SWAP2 SWAP1 PUSH2 0x1D1A JUMP JUMPDEST SWAP1 DUP2 MSTORE PUSH1 0x20 ADD PUSH1 0x40 MLOAD DUP1 SWAP2 SUB SWAP1 KECCAK256 SLOAD SWAP1 POP SWAP2 SWAP1 POP JUMP JUMPDEST PUSH32 0x65D7A28E3265B37A6474929F336521B332C1681B933F6CB9F3376673440D862A PUSH2 0xC95 DUP2 PUSH2 0xC90 PUSH2 0xE12 JUMP JUMPDEST PUSH2 0xE1A JUMP JUMPDEST PUSH2 0xC9D PUSH2 0x12F4 JUMP JUMPDEST POP JUMP JUMPDEST PUSH1 0x0 PUSH1 0x1 PUSH1 0x0 DUP5 DUP2 MSTORE PUSH1 0x20 ADD SWAP1 DUP2 MSTORE PUSH1 0x20 ADD PUSH1 0x0 KECCAK256 PUSH1 0x0 ADD PUSH1 0x0 DUP4 PUSH20 0xFFFFFFFFFFFFFFFFFFFFFFFFFFFFFFFFFFFFFFFF AND PUSH20 0xFFFFFFFFFFFFFFFFFFFFFFFFFFFFFFFFFFFFFFFF AND DUP2 MSTORE PUSH1 0x20 ADD SWAP1 DUP2 MSTORE PUSH1 0x20 ADD PUSH1 0x0 KECCAK256 PUSH1 0x0 SWAP1 SLOAD SWAP1 PUSH2 0x100 EXP SWAP1 DIV PUSH1 0xFF AND SWAP1 POP SWAP3 SWAP2 POP POP JUMP JUMPDEST PUSH1 0x0 PUSH1 0x4 SLOAD SWAP1 POP SWAP1 JUMP JUMPDEST PUSH1 0x0 DUP1 SHL DUP2 JUMP JUMPDEST PUSH32 0xA49807205CE4D355092EF5A8A18F56E8913CF4A201FBE287825B095693C21775 PUSH2 0xD4E DUP2 PUSH2 0xD49 PUSH2 0xE12 JUMP JUMPDEST PUSH2 0xE1A JUMP JUMPDEST DUP2 PUSH1 0x4 PUSH1 0x0 DUP3 DUP3 SLOAD PUSH2 0xD60 SWAP2 SWAP1 PUSH2 0x20EA JUMP JUMPDEST SWAP3 POP POP DUP2 SWAP1 SSTORE POP POP POP JUMP JUMPDEST PUSH32 0xA49807205CE4D355092EF5A8A18F56E8913CF4A201FBE287825B095693C21775 PUSH2 0xD9D DUP2 PUSH2 0xD98 PUSH2 0xE12 JUMP JUMPDEST PUSH2 0xE1A JUMP JUMPDEST DUP2 PUSH1 0x3 DUP5 PUSH1 0x40 MLOAD PUSH2 0xDAE SWAP2 SWAP1 PUSH2 0x1D1A JUMP JUMPDEST SWAP1 DUP2 MSTORE PUSH1 0x20 ADD PUSH1 0x40 MLOAD DUP1 SWAP2 SUB SWAP1 KECCAK256 DUP2 SWAP1 SSTORE POP POP POP POP JUMP JUMPDEST PUSH2 0xDCE DUP3 PUSH2 0x460 JUMP JUMPDEST PUSH2 0xDDF DUP2 PUSH2 0xDDA PUSH2 0xE12 JUMP JUMPDEST PUSH2 0xE1A JUMP JUMPDEST PUSH2 0xDE9 DUP4 DUP4 PUSH2 0x1001 JUMP JUMPDEST POP POP POP JUMP JUMPDEST PUSH32 0x65D7A28E3265B37A6474929F336521B332C1681B933F6CB9F3376673440D862A DUP2 JUMP JUMPDEST PUSH1 0x0 CALLER SWAP1 POP SWAP1 JUMP JUMPDEST PUSH2 0xE24 DUP3 DUP3 PUSH2 0xCA0 JUMP JUMPDEST PUSH2 0xEB3 JUMPI PUSH2 0xE49 DUP2 PUSH20 0xFFFFFFFFFFFFFFFFFFFFFFFFFFFFFFFFFFFFFFFF AND PUSH1 0x14 PUSH2 0x1396 JUMP JUMPDEST PUSH2 0xE57 DUP4 PUSH1 0x0 SHR PUSH1 0x20 PUSH2 0x1396 JUMP JUMPDEST PUSH1 0x40 MLOAD PUSH1 0x20 ADD PUSH2 0xE68 SWAP3 SWAP2 SWAP1 PUSH2 0x1D55 JUMP JUMPDEST PUSH1 0x40 MLOAD PUSH1 0x20 DUP2 DUP4 SUB SUB DUP2 MSTORE SWAP1 PUSH1 0x40 MSTORE PUSH1 0x40 MLOAD PUSH32 0x8C379A000000000000000000000000000000000000000000000000000000000 DUP2 MSTORE PUSH1 0x4 ADD PUSH2 0xEAA SWAP2 SWAP1 PUSH2 0x1E39 JUMP JUMPDEST PUSH1 0x40 MLOAD DUP1 SWAP2 SUB SWAP1 REVERT JUMPDEST POP POP JUMP JUMPDEST PUSH1 0x0 PUSH32 0x1FFC9A700000000000000000000000000000000000000000000000000000000 PUSH28 0xFFFFFFFFFFFFFFFFFFFFFFFFFFFFFFFFFFFFFFFFFFFFFFFFFFFFFFFF NOT AND DUP3 PUSH28 0xFFFFFFFFFFFFFFFFFFFFFFFFFFFFFFFFFFFFFFFFFFFFFFFFFFFFFFFF NOT AND EQ SWAP1 POP SWAP2 SWAP1 POP JUMP JUMPDEST PUSH2 0xF2B DUP3 DUP3 PUSH2 0xCA0 JUMP JUMPDEST PUSH2 0xFFD JUMPI PUSH1 0x1 DUP1 PUSH1 0x0 DUP5 DUP2 MSTORE PUSH1 0x20 ADD SWAP1 DUP2 MSTORE PUSH1 0x20 ADD PUSH1 0x0 KECCAK256 PUSH1 0x0 ADD PUSH1 0x0 DUP4 PUSH20 0xFFFFFFFFFFFFFFFFFFFFFFFFFFFFFFFFFFFFFFFF AND PUSH20 0xFFFFFFFFFFFFFFFFFFFFFFFFFFFFFFFFFFFFFFFF AND DUP2 MSTORE PUSH1 0x20 ADD SWAP1 DUP2 MSTORE PUSH1 0x20 ADD PUSH1 0x0 KECCAK256 PUSH1 0x0 PUSH2 0x100 EXP DUP2 SLOAD DUP2 PUSH1 0xFF MUL NOT AND SWAP1 DUP4 ISZERO ISZERO MUL OR SWAP1 SSTORE POP PUSH2 0xFA2 PUSH2 0xE12 JUMP JUMPDEST PUSH20 0xFFFFFFFFFFFFFFFFFFFFFFFFFFFFFFFFFFFFFFFF AND DUP2 PUSH20 0xFFFFFFFFFFFFFFFFFFFFFFFFFFFFFFFFFFFFFFFF AND DUP4 PUSH32 0x2F8788117E7EFF1D82E926EC794901D17C78024A50270940304540A733656F0D PUSH1 0x40 MLOAD PUSH1 0x40 MLOAD DUP1 SWAP2 SUB SWAP1 LOG4 JUMPDEST POP POP JUMP JUMPDEST PUSH2 0x100B DUP3 DUP3 PUSH2 0xCA0 JUMP JUMPDEST ISZERO PUSH2 0x10DF JUMPI PUSH1 0x0 PUSH1 0x1 PUSH1 0x0 DUP5 DUP2 MSTORE PUSH1 0x20 ADD SWAP1 DUP2 MSTORE PUSH1 0x20 ADD PUSH1 0x0 KECCAK256 PUSH1 0x0 ADD PUSH1 0x0 DUP4 PUSH20 0xFFFFFFFFFFFFFFFFFFFFFFFFFFFFFFFFFFFFFFFF AND PUSH20 0xFFFFFFFFFFFFFFFFFFFFFFFFFFFFFFFFFFFFFFFF AND DUP2 MSTORE PUSH1 0x20 ADD SWAP1 DUP2 MSTORE PUSH1 0x20 ADD PUSH1 0x0 KECCAK256 PUSH1 0x0 PUSH2 0x100 EXP DUP2 SLOAD DUP2 PUSH1 0xFF MUL NOT AND SWAP1 DUP4 ISZERO ISZERO MUL OR SWAP1 SSTORE POP PUSH2 0x1084 PUSH2 0xE12 JUMP JUMPDEST PUSH20 0xFFFFFFFFFFFFFFFFFFFFFFFFFFFFFFFFFFFFFFFF AND DUP2 PUSH20 0xFFFFFFFFFFFFFFFFFFFFFFFFFFFFFFFFFFFFFFFF AND DUP4 PUSH32 0xF6391F5C32D9C69D2A47EA670B442974B53935D1EDC7FD64EB21E047A839171B PUSH1 0x40 MLOAD PUSH1 0x40 MLOAD DUP1 SWAP2 SUB SWAP1 LOG4 JUMPDEST POP POP JUMP JUMPDEST PUSH2 0x10EB PUSH2 0x600 JUMP JUMPDEST PUSH2 0x112A JUMPI PUSH1 0x40 MLOAD PUSH32 0x8C379A000000000000000000000000000000000000000000000000000000000 DUP2 MSTORE PUSH1 0x4 ADD PUSH2 0x1121 SWAP1 PUSH2 0x1E7B JUMP JUMPDEST PUSH1 0x40 MLOAD DUP1 SWAP2 SUB SWAP1 REVERT JUMPDEST PUSH1 0x0 DUP1 PUSH1 0x0 PUSH2 0x100 EXP DUP2 SLOAD DUP2 PUSH1 0xFF MUL NOT AND SWAP1 DUP4 ISZERO ISZERO MUL OR SWAP1 SSTORE POP PUSH32 0x5DB9EE0A495BF2E6FF9C91A7834C1BA4FDD244A5E8AA4E537BD38AEAE4B073AA PUSH2 0x116D PUSH2 0xE12 JUMP JUMPDEST PUSH1 0x40 MLOAD PUSH2 0x117A SWAP2 SWAP1 PUSH2 0x1D8F JUMP JUMPDEST PUSH1 0x40 MLOAD DUP1 SWAP2 SUB SWAP1 LOG1 JUMP JUMPDEST PUSH1 0x60 PUSH1 0x0 DUP4 DUP4 PUSH2 0x1194 SWAP2 SWAP1 PUSH2 0x20EA JUMP JUMPDEST PUSH8 0xFFFFFFFFFFFFFFFF DUP2 GT ISZERO PUSH2 0x11D3 JUMPI PUSH32 0x4E487B7100000000000000000000000000000000000000000000000000000000 PUSH1 0x0 MSTORE PUSH1 0x41 PUSH1 0x4 MSTORE PUSH1 0x24 PUSH1 0x0 REVERT JUMPDEST PUSH1 0x40 MLOAD SWAP1 DUP1 DUP3 MSTORE DUP1 PUSH1 0x1F ADD PUSH1 0x1F NOT AND PUSH1 0x20 ADD DUP3 ADD PUSH1 0x40 MSTORE DUP1 ISZERO PUSH2 0x1205 JUMPI DUP2 PUSH1 0x20 ADD PUSH1 0x1 DUP3 MUL DUP1 CALLDATASIZE DUP4 CALLDATACOPY DUP1 DUP3 ADD SWAP2 POP POP SWAP1 POP JUMPDEST POP SWAP1 POP PUSH1 0x0 JUMPDEST PUSH1 0x1 DUP6 DUP6 PUSH2 0x1219 SWAP2 SWAP1 PUSH2 0x20EA JUMP JUMPDEST PUSH2 0x1223 SWAP2 SWAP1 PUSH2 0x20EA JUMP JUMPDEST DUP2 GT PUSH2 0x12E8 JUMPI DUP6 DUP2 DUP2 MLOAD DUP2 LT PUSH2 0x1262 JUMPI PUSH32 0x4E487B7100000000000000000000000000000000000000000000000000000000 PUSH1 0x0 MSTORE PUSH1 0x32 PUSH1 0x4 MSTORE PUSH1 0x24 PUSH1 0x0 REVERT JUMPDEST PUSH1 0x20 ADD ADD MLOAD PUSH1 0xF8 SHR PUSH1 0xF8 SHL DUP3 DUP3 DUP2 MLOAD DUP2 LT PUSH2 0x12A6 JUMPI PUSH32 0x4E487B7100000000000000000000000000000000000000000000000000000000 PUSH1 0x0 MSTORE PUSH1 0x32 PUSH1 0x4 MSTORE PUSH1 0x24 PUSH1 0x0 REVERT JUMPDEST PUSH1 0x20 ADD ADD SWAP1 PUSH31 0xFFFFFFFFFFFFFFFFFFFFFFFFFFFFFFFFFFFFFFFFFFFFFFFFFFFFFFFFFFFFFF NOT AND SWAP1 DUP2 PUSH1 0x0 BYTE SWAP1 MSTORE8 POP DUP1 DUP1 PUSH2 0x12E0 SWAP1 PUSH2 0x2291 JUMP JUMPDEST SWAP2 POP POP PUSH2 0x120B JUMP JUMPDEST POP DUP1 SWAP2 POP POP SWAP4 SWAP3 POP POP POP JUMP JUMPDEST PUSH2 0x12FC PUSH2 0x600 JUMP JUMPDEST ISZERO PUSH2 0x133C JUMPI PUSH1 0x40 MLOAD PUSH32 0x8C379A000000000000000000000000000000000000000000000000000000000 DUP2 MSTORE PUSH1 0x4 ADD PUSH2 0x1333 SWAP1 PUSH2 0x1EBB JUMP JUMPDEST PUSH1 0x40 MLOAD DUP1 SWAP2 SUB SWAP1 REVERT JUMPDEST PUSH1 0x1 PUSH1 0x0 DUP1 PUSH2 0x100 EXP DUP2 SLOAD DUP2 PUSH1 0xFF MUL NOT AND SWAP1 DUP4 ISZERO ISZERO MUL OR SWAP1 SSTORE POP PUSH32 0x62E78CEA01BEE320CD4E420270B5EA74000D11B0C9F74754EBDBFC544B05A258 PUSH2 0x137F PUSH2 0xE12 JUMP JUMPDEST PUSH1 0x40 MLOAD PUSH2 0x138C SWAP2 SWAP1 PUSH2 0x1D8F JUMP JUMPDEST PUSH1 0x40 MLOAD DUP1 SWAP2 SUB SWAP1 LOG1 JUMP JUMPDEST PUSH1 0x60 PUSH1 0x0 PUSH1 0x2 DUP4 PUSH1 0x2 PUSH2 0x13A9 SWAP2 SWAP1 PUSH2 0x2090 JUMP JUMPDEST PUSH2 0x13B3 SWAP2 SWAP1 PUSH2 0x203A JUMP JUMPDEST PUSH8 0xFFFFFFFFFFFFFFFF DUP2 GT ISZERO PUSH2 0x13F2 JUMPI PUSH32 0x4E487B7100000000000000000000000000000000000000000000000000000000 PUSH1 0x0 MSTORE PUSH1 0x41 PUSH1 0x4 MSTORE PUSH1 0x24 PUSH1 0x0 REVERT JUMPDEST PUSH1 0x40 MLOAD SWAP1 DUP1 DUP3 MSTORE DUP1 PUSH1 0x1F ADD PUSH1 0x1F NOT AND PUSH1 0x20 ADD DUP3 ADD PUSH1 0x40 MSTORE DUP1 ISZERO PUSH2 0x1424 JUMPI DUP2 PUSH1 0x20 ADD PUSH1 0x1 DUP3 MUL DUP1 CALLDATASIZE DUP4 CALLDATACOPY DUP1 DUP3 ADD SWAP2 POP POP SWAP1 POP JUMPDEST POP SWAP1 POP PUSH32 0x3000000000000000000000000000000000000000000000000000000000000000 DUP2 PUSH1 0x0 DUP2 MLOAD DUP2 LT PUSH2 0x1482 JUMPI PUSH32 0x4E487B7100000000000000000000000000000000000000000000000000000000 PUSH1 0x0 MSTORE PUSH1 0x32 PUSH1 0x4 MSTORE PUSH1 0x24 PUSH1 0x0 REVERT JUMPDEST PUSH1 0x20 ADD ADD SWAP1 PUSH31 0xFFFFFFFFFFFFFFFFFFFFFFFFFFFFFFFFFFFFFFFFFFFFFFFFFFFFFFFFFFFFFF NOT AND SWAP1 DUP2 PUSH1 0x0 BYTE SWAP1 MSTORE8 POP PUSH32 0x7800000000000000000000000000000000000000000000000000000000000000 DUP2 PUSH1 0x1 DUP2 MLOAD DUP2 LT PUSH2 0x150C JUMPI PUSH32 0x4E487B7100000000000000000000000000000000000000000000000000000000 PUSH1 0x0 MSTORE PUSH1 0x32 PUSH1 0x4 MSTORE PUSH1 0x24 PUSH1 0x0 REVERT JUMPDEST PUSH1 0x20 ADD ADD SWAP1 PUSH31 0xFFFFFFFFFFFFFFFFFFFFFFFFFFFFFFFFFFFFFFFFFFFFFFFFFFFFFFFFFFFFFF NOT AND SWAP1 DUP2 PUSH1 0x0 BYTE SWAP1 MSTORE8 POP PUSH1 0x0 PUSH1 0x1 DUP5 PUSH1 0x2 PUSH2 0x154C SWAP2 SWAP1 PUSH2 0x2090 JUMP JUMPDEST PUSH2 0x1556 SWAP2 SWAP1 PUSH2 0x203A JUMP JUMPDEST SWAP1 POP JUMPDEST PUSH1 0x1 DUP2 GT ISZERO PUSH2 0x1642 JUMPI PUSH32 0x3031323334353637383961626364656600000000000000000000000000000000 PUSH1 0xF DUP7 AND PUSH1 0x10 DUP2 LT PUSH2 0x15BE JUMPI PUSH32 0x4E487B7100000000000000000000000000000000000000000000000000000000 PUSH1 0x0 MSTORE PUSH1 0x32 PUSH1 0x4 MSTORE PUSH1 0x24 PUSH1 0x0 REVERT JUMPDEST BYTE PUSH1 0xF8 SHL DUP3 DUP3 DUP2 MLOAD DUP2 LT PUSH2 0x15FB JUMPI PUSH32 0x4E487B7100000000000000000000000000000000000000000000000000000000 PUSH1 0x0 MSTORE PUSH1 0x32 PUSH1 0x4 MSTORE PUSH1 0x24 PUSH1 0x0 REVERT JUMPDEST PUSH1 0x20 ADD ADD SWAP1 PUSH31 0xFFFFFFFFFFFFFFFFFFFFFFFFFFFFFFFFFFFFFFFFFFFFFFFFFFFFFFFFFFFFFF NOT AND SWAP1 DUP2 PUSH1 0x0 BYTE SWAP1 MSTORE8 POP PUSH1 0x4 DUP6 SWAP1 SHR SWAP5 POP DUP1 PUSH2 0x163B SWAP1 PUSH2 0x2236 JUMP JUMPDEST SWAP1 POP PUSH2 0x1559 JUMP JUMPDEST POP PUSH1 0x0 DUP5 EQ PUSH2 0x1686 JUMPI PUSH1 0x40 MLOAD PUSH32 0x8C379A000000000000000000000000000000000000000000000000000000000 DUP2 MSTORE PUSH1 0x4 ADD PUSH2 0x167D SWAP1 PUSH2 0x1E5B JUMP JUMPDEST PUSH1 0x40 MLOAD DUP1 SWAP2 SUB SWAP1 REVERT JUMPDEST DUP1 SWAP2 POP POP SWAP3 SWAP2 POP POP JUMP JUMPDEST PUSH1 0x0 PUSH2 0x16A3 PUSH2 0x169E DUP5 PUSH2 0x1FBB JUMP JUMPDEST PUSH2 0x1F96 JUMP JUMPDEST SWAP1 POP DUP3 DUP2 MSTORE PUSH1 0x20 DUP2 ADD DUP5 DUP5 DUP5 ADD GT ISZERO PUSH2 0x16BB JUMPI PUSH1 0x0 DUP1 REVERT JUMPDEST PUSH2 0x16C6 DUP5 DUP3 DUP6 PUSH2 0x21F4 JUMP JUMPDEST POP SWAP4 SWAP3 POP POP POP JUMP JUMPDEST PUSH1 0x0 PUSH2 0x16E1 PUSH2 0x16DC DUP5 PUSH2 0x1FBB JUMP JUMPDEST PUSH2 0x1F96 JUMP JUMPDEST SWAP1 POP DUP3 DUP2 MSTORE PUSH1 0x20 DUP2 ADD DUP5 DUP5 DUP5 ADD GT ISZERO PUSH2 0x16F9 JUMPI PUSH1 0x0 DUP1 REVERT JUMPDEST PUSH2 0x1704 DUP5 DUP3 DUP6 PUSH2 0x2203 JUMP JUMPDEST POP SWAP4 SWAP3 POP POP POP JUMP JUMPDEST PUSH1 0x0 DUP2 CALLDATALOAD SWAP1 POP PUSH2 0x171B DUP2 PUSH2 0x2634 JUMP JUMPDEST SWAP3 SWAP2 POP POP JUMP JUMPDEST PUSH1 0x0 DUP2 CALLDATALOAD SWAP1 POP PUSH2 0x1730 DUP2 PUSH2 0x264B JUMP JUMPDEST SWAP3 SWAP2 POP POP JUMP JUMPDEST PUSH1 0x0 DUP2 MLOAD SWAP1 POP PUSH2 0x1745 DUP2 PUSH2 0x264B JUMP JUMPDEST SWAP3 SWAP2 POP POP JUMP JUMPDEST PUSH1 0x0 DUP2 CALLDATALOAD SWAP1 POP PUSH2 0x175A DUP2 PUSH2 0x2662 JUMP JUMPDEST SWAP3 SWAP2 POP POP JUMP JUMPDEST PUSH1 0x0 DUP3 PUSH1 0x1F DUP4 ADD SLT PUSH2 0x1771 JUMPI PUSH1 0x0 DUP1 REVERT JUMPDEST DUP2 CALLDATALOAD PUSH2 0x1781 DUP5 DUP3 PUSH1 0x20 DUP7 ADD PUSH2 0x1690 JUMP JUMPDEST SWAP2 POP POP SWAP3 SWAP2 POP POP JUMP JUMPDEST PUSH1 0x0 DUP3 PUSH1 0x1F DUP4 ADD SLT PUSH2 0x179B JUMPI PUSH1 0x0 DUP1 REVERT JUMPDEST DUP2 MLOAD PUSH2 0x17AB DUP5 DUP3 PUSH1 0x20 DUP7 ADD PUSH2 0x16CE JUMP JUMPDEST SWAP2 POP POP SWAP3 SWAP2 POP POP JUMP JUMPDEST PUSH1 0x0 DUP2 CALLDATALOAD SWAP1 POP PUSH2 0x17C3 DUP2 PUSH2 0x2679 JUMP JUMPDEST SWAP3 SWAP2 POP POP JUMP JUMPDEST PUSH1 0x0 DUP1 PUSH1 0x0 PUSH1 0x60 DUP5 DUP7 SUB SLT ISZERO PUSH2 0x17DE JUMPI PUSH1 0x0 DUP1 REVERT JUMPDEST PUSH1 0x0 PUSH2 0x17EC DUP7 DUP3 DUP8 ADD PUSH2 0x170C JUMP JUMPDEST SWAP4 POP POP PUSH1 0x20 PUSH2 0x17FD DUP7 DUP3 DUP8 ADD PUSH2 0x1721 JUMP JUMPDEST SWAP3 POP POP PUSH1 0x40 DUP5 ADD CALLDATALOAD PUSH8 0xFFFFFFFFFFFFFFFF DUP2 GT ISZERO PUSH2 0x181A JUMPI PUSH1 0x0 DUP1 REVERT JUMPDEST PUSH2 0x1826 DUP7 DUP3 DUP8 ADD PUSH2 0x1760 JUMP JUMPDEST SWAP2 POP POP SWAP3 POP SWAP3 POP SWAP3 JUMP JUMPDEST PUSH1 0x0 PUSH1 0x20 DUP3 DUP5 SUB SLT ISZERO PUSH2 0x1842 JUMPI PUSH1 0x0 DUP1 REVERT JUMPDEST PUSH1 0x0 PUSH2 0x1850 DUP5 DUP3 DUP6 ADD PUSH2 0x1721 JUMP JUMPDEST SWAP2 POP POP SWAP3 SWAP2 POP POP JUMP JUMPDEST PUSH1 0x0 PUSH1 0x20 DUP3 DUP5 SUB SLT ISZERO PUSH2 0x186B JUMPI PUSH1 0x0 DUP1 REVERT JUMPDEST PUSH1 0x0 PUSH2 0x1879 DUP5 DUP3 DUP6 ADD PUSH2 0x1736 JUMP JUMPDEST SWAP2 POP POP SWAP3 SWAP2 POP POP JUMP JUMPDEST PUSH1 0x0 DUP1 PUSH1 0x40 DUP4 DUP6 SUB SLT ISZERO PUSH2 0x1895 JUMPI PUSH1 0x0 DUP1 REVERT JUMPDEST PUSH1 0x0 PUSH2 0x18A3 DUP6 DUP3 DUP7 ADD PUSH2 0x1721 JUMP JUMPDEST SWAP3 POP POP PUSH1 0x20 PUSH2 0x18B4 DUP6 DUP3 DUP7 ADD PUSH2 0x170C JUMP JUMPDEST SWAP2 POP POP SWAP3 POP SWAP3 SWAP1 POP JUMP JUMPDEST PUSH1 0x0 PUSH1 0x20 DUP3 DUP5 SUB SLT ISZERO PUSH2 0x18D0 JUMPI PUSH1 0x0 DUP1 REVERT JUMPDEST PUSH1 0x0 PUSH2 0x18DE DUP5 DUP3 DUP6 ADD PUSH2 0x174B JUMP JUMPDEST SWAP2 POP POP SWAP3 SWAP2 POP POP JUMP JUMPDEST PUSH1 0x0 PUSH1 0x20 DUP3 DUP5 SUB SLT ISZERO PUSH2 0x18F9 JUMPI PUSH1 0x0 DUP1 REVERT JUMPDEST PUSH1 0x0 DUP3 ADD CALLDATALOAD PUSH8 0xFFFFFFFFFFFFFFFF DUP2 GT ISZERO PUSH2 0x1913 JUMPI PUSH1 0x0 DUP1 REVERT JUMPDEST PUSH2 0x191F DUP5 DUP3 DUP6 ADD PUSH2 0x1760 JUMP JUMPDEST SWAP2 POP POP SWAP3 SWAP2 POP POP JUMP JUMPDEST PUSH1 0x0 PUSH1 0x20 DUP3 DUP5 SUB SLT ISZERO PUSH2 0x193A JUMPI PUSH1 0x0 DUP1 REVERT JUMPDEST PUSH1 0x0 DUP3 ADD MLOAD PUSH8 0xFFFFFFFFFFFFFFFF DUP2 GT ISZERO PUSH2 0x1954 JUMPI PUSH1 0x0 DUP1 REVERT JUMPDEST PUSH2 0x1960 DUP5 DUP3 DUP6 ADD PUSH2 0x178A JUMP JUMPDEST SWAP2 POP POP SWAP3 SWAP2 POP POP JUMP JUMPDEST PUSH1 0x0 DUP1 PUSH1 0x40 DUP4 DUP6 SUB SLT ISZERO PUSH2 0x197C JUMPI PUSH1 0x0 DUP1 REVERT JUMPDEST PUSH1 0x0 DUP4 ADD CALLDATALOAD PUSH8 0xFFFFFFFFFFFFFFFF DUP2 GT ISZERO PUSH2 0x1996 JUMPI PUSH1 0x0 DUP1 REVERT JUMPDEST PUSH2 0x19A2 DUP6 DUP3 DUP7 ADD PUSH2 0x1760 JUMP JUMPDEST SWAP3 POP POP PUSH1 0x20 PUSH2 0x19B3 DUP6 DUP3 DUP7 ADD PUSH2 0x17B4 JUMP JUMPDEST SWAP2 POP POP SWAP3 POP SWAP3 SWAP1 POP JUMP JUMPDEST PUSH1 0x0 PUSH1 0x20 DUP3 DUP5 SUB SLT ISZERO PUSH2 0x19CF JUMPI PUSH1 0x0 DUP1 REVERT JUMPDEST PUSH1 0x0 PUSH2 0x19DD DUP5 DUP3 DUP6 ADD PUSH2 0x17B4 JUMP JUMPDEST SWAP2 POP POP SWAP3 SWAP2 POP POP JUMP JUMPDEST PUSH2 0x19EF DUP2 PUSH2 0x211E JUMP JUMPDEST DUP3 MSTORE POP POP JUMP JUMPDEST PUSH2 0x19FE DUP2 PUSH2 0x2130 JUMP JUMPDEST DUP3 MSTORE POP POP JUMP JUMPDEST PUSH2 0x1A15 PUSH2 0x1A10 DUP3 PUSH2 0x213C JUMP JUMPDEST PUSH2 0x22DA JUMP JUMPDEST DUP3 MSTORE POP POP JUMP JUMPDEST PUSH2 0x1A2C PUSH2 0x1A27 DUP3 PUSH2 0x2168 JUMP JUMPDEST PUSH2 0x22E4 JUMP JUMPDEST DUP3 MSTORE POP POP JUMP JUMPDEST PUSH2 0x1A3B DUP2 PUSH2 0x2194 JUMP JUMPDEST DUP3 MSTORE POP POP JUMP JUMPDEST PUSH2 0x1A52 PUSH2 0x1A4D DUP3 PUSH2 0x2194 JUMP JUMPDEST PUSH2 0x22EE JUMP JUMPDEST DUP3 MSTORE POP POP JUMP JUMPDEST PUSH1 0x0 PUSH2 0x1A63 DUP3 PUSH2 0x1FEC JUMP JUMPDEST PUSH2 0x1A6D DUP2 DUP6 PUSH2 0x2002 JUMP JUMPDEST SWAP4 POP PUSH2 0x1A7D DUP2 DUP6 PUSH1 0x20 DUP7 ADD PUSH2 0x2203 JUMP JUMPDEST PUSH2 0x1A86 DUP2 PUSH2 0x2356 JUMP JUMPDEST DUP5 ADD SWAP2 POP POP SWAP3 SWAP2 POP POP JUMP JUMPDEST PUSH1 0x0 PUSH2 0x1A9C DUP3 PUSH2 0x1FEC JUMP JUMPDEST PUSH2 0x1AA6 DUP2 DUP6 PUSH2 0x2013 JUMP JUMPDEST SWAP4 POP PUSH2 0x1AB6 DUP2 DUP6 PUSH1 0x20 DUP7 ADD PUSH2 0x2203 JUMP JUMPDEST DUP1 DUP5 ADD SWAP2 POP POP SWAP3 SWAP2 POP POP JUMP JUMPDEST PUSH1 0x0 PUSH2 0x1ACD DUP3 PUSH2 0x1FF7 JUMP JUMPDEST PUSH2 0x1AD7 DUP2 DUP6 PUSH2 0x201E JUMP JUMPDEST SWAP4 POP PUSH2 0x1AE7 DUP2 DUP6 PUSH1 0x20 DUP7 ADD PUSH2 0x2203 JUMP JUMPDEST PUSH2 0x1AF0 DUP2 PUSH2 0x2356 JUMP JUMPDEST DUP5 ADD SWAP2 POP POP SWAP3 SWAP2 POP POP JUMP JUMPDEST PUSH1 0x0 PUSH2 0x1B06 DUP3 PUSH2 0x1FF7 JUMP JUMPDEST PUSH2 0x1B10 DUP2 DUP6 PUSH2 0x202F JUMP JUMPDEST SWAP4 POP PUSH2 0x1B20 DUP2 DUP6 PUSH1 0x20 DUP7 ADD PUSH2 0x2203 JUMP JUMPDEST DUP1 DUP5 ADD SWAP2 POP POP SWAP3 SWAP2 POP POP JUMP JUMPDEST PUSH1 0x0 PUSH2 0x1B39 PUSH1 0x20 DUP4 PUSH2 0x201E JUMP JUMPDEST SWAP2 POP PUSH2 0x1B44 DUP3 PUSH2 0x2367 JUMP JUMPDEST PUSH1 0x20 DUP3 ADD SWAP1 POP SWAP2 SWAP1 POP JUMP JUMPDEST PUSH1 0x0 PUSH2 0x1B5C PUSH1 0x14 DUP4 PUSH2 0x201E JUMP JUMPDEST SWAP2 POP PUSH2 0x1B67 DUP3 PUSH2 0x2390 JUMP JUMPDEST PUSH1 0x20 DUP3 ADD SWAP1 POP SWAP2 SWAP1 POP JUMP JUMPDEST PUSH1 0x0 PUSH2 0x1B7F PUSH1 0x4F DUP4 PUSH2 0x201E JUMP JUMPDEST SWAP2 POP PUSH2 0x1B8A DUP3 PUSH2 0x23B9 JUMP JUMPDEST PUSH1 0x60 DUP3 ADD SWAP1 POP SWAP2 SWAP1 POP JUMP JUMPDEST PUSH1 0x0 PUSH2 0x1BA2 PUSH1 0x10 DUP4 PUSH2 0x201E JUMP JUMPDEST SWAP2 POP PUSH2 0x1BAD DUP3 PUSH2 0x242E JUMP JUMPDEST PUSH1 0x20 DUP3 ADD SWAP1 POP SWAP2 SWAP1 POP JUMP JUMPDEST PUSH1 0x0 PUSH2 0x1BC5 PUSH1 0x53 DUP4 PUSH2 0x201E JUMP JUMPDEST SWAP2 POP PUSH2 0x1BD0 DUP3 PUSH2 0x2457 JUMP JUMPDEST PUSH1 0x60 DUP3 ADD SWAP1 POP SWAP2 SWAP1 POP JUMP JUMPDEST PUSH1 0x0 PUSH2 0x1BE8 PUSH1 0x2C DUP4 PUSH2 0x201E JUMP JUMPDEST SWAP2 POP PUSH2 0x1BF3 DUP3 PUSH2 0x24CC JUMP JUMPDEST PUSH1 0x40 DUP3 ADD SWAP1 POP SWAP2 SWAP1 POP JUMP JUMPDEST PUSH1 0x0 PUSH2 0x1C0B PUSH1 0x17 DUP4 PUSH2 0x202F JUMP JUMPDEST SWAP2 POP PUSH2 0x1C16 DUP3 PUSH2 0x251B JUMP JUMPDEST PUSH1 0x17 DUP3 ADD SWAP1 POP SWAP2 SWAP1 POP JUMP JUMPDEST PUSH1 0x0 PUSH2 0x1C2E PUSH1 0x1E DUP4 PUSH2 0x201E JUMP JUMPDEST SWAP2 POP PUSH2 0x1C39 DUP3 PUSH2 0x2544 JUMP JUMPDEST PUSH1 0x20 DUP3 ADD SWAP1 POP SWAP2 SWAP1 POP JUMP JUMPDEST PUSH1 0x0 PUSH2 0x1C51 PUSH1 0x29 DUP4 PUSH2 0x201E JUMP JUMPDEST SWAP2 POP PUSH2 0x1C5C DUP3 PUSH2 0x256D JUMP JUMPDEST PUSH1 0x40 DUP3 ADD SWAP1 POP SWAP2 SWAP1 POP JUMP JUMPDEST PUSH1 0x0 PUSH2 0x1C74 PUSH1 0x11 DUP4 PUSH2 0x202F JUMP JUMPDEST SWAP2 POP PUSH2 0x1C7F DUP3 PUSH2 0x25BC JUMP JUMPDEST PUSH1 0x11 DUP3 ADD SWAP1 POP SWAP2 SWAP1 POP JUMP JUMPDEST PUSH1 0x0 PUSH2 0x1C97 PUSH1 0x2F DUP4 PUSH2 0x201E JUMP JUMPDEST SWAP2 POP PUSH2 0x1CA2 DUP3 PUSH2 0x25E5 JUMP JUMPDEST PUSH1 0x40 DUP3 ADD SWAP1 POP SWAP2 SWAP1 POP JUMP JUMPDEST PUSH2 0x1CB6 DUP2 PUSH2 0x21EA JUMP JUMPDEST DUP3 MSTORE POP POP JUMP JUMPDEST PUSH1 0x0 PUSH2 0x1CC8 DUP3 DUP6 PUSH2 0x1A04 JUMP JUMPDEST PUSH1 0x1 DUP3 ADD SWAP2 POP PUSH2 0x1CD8 DUP3 DUP5 PUSH2 0x1A91 JUMP JUMPDEST SWAP2 POP DUP2 SWAP1 POP SWAP4 SWAP3 POP POP POP JUMP JUMPDEST PUSH1 0x0 PUSH2 0x1CF0 DUP3 DUP5 PUSH2 0x1A1B JUMP JUMPDEST PUSH1 0x14 DUP3 ADD SWAP2 POP DUP2 SWAP1 POP SWAP3 SWAP2 POP POP JUMP JUMPDEST PUSH1 0x0 PUSH2 0x1D0B DUP3 DUP5 PUSH2 0x1A41 JUMP JUMPDEST PUSH1 0x20 DUP3 ADD SWAP2 POP DUP2 SWAP1 POP SWAP3 SWAP2 POP POP JUMP JUMPDEST PUSH1 0x0 PUSH2 0x1D26 DUP3 DUP5 PUSH2 0x1A91 JUMP JUMPDEST SWAP2 POP DUP2 SWAP1 POP SWAP3 SWAP2 POP POP JUMP JUMPDEST PUSH1 0x0 PUSH2 0x1D3D DUP3 DUP6 PUSH2 0x1A91 JUMP JUMPDEST SWAP2 POP PUSH2 0x1D49 DUP3 DUP5 PUSH2 0x1A91 JUMP JUMPDEST SWAP2 POP DUP2 SWAP1 POP SWAP4 SWAP3 POP POP POP JUMP JUMPDEST PUSH1 0x0 PUSH2 0x1D60 DUP3 PUSH2 0x1BFE JUMP JUMPDEST SWAP2 POP PUSH2 0x1D6C DUP3 DUP6 PUSH2 0x1AFB JUMP JUMPDEST SWAP2 POP PUSH2 0x1D77 DUP3 PUSH2 0x1C67 JUMP JUMPDEST SWAP2 POP PUSH2 0x1D83 DUP3 DUP5 PUSH2 0x1AFB JUMP JUMPDEST SWAP2 POP DUP2 SWAP1 POP SWAP4 SWAP3 POP POP POP JUMP JUMPDEST PUSH1 0x0 PUSH1 0x20 DUP3 ADD SWAP1 POP PUSH2 0x1DA4 PUSH1 0x0 DUP4 ADD DUP5 PUSH2 0x19E6 JUMP JUMPDEST SWAP3 SWAP2 POP POP JUMP JUMPDEST PUSH1 0x0 PUSH1 0x40 DUP3 ADD SWAP1 POP PUSH2 0x1DBF PUSH1 0x0 DUP4 ADD DUP6 PUSH2 0x19E6 JUMP JUMPDEST PUSH2 0x1DCC PUSH1 0x20 DUP4 ADD DUP5 PUSH2 0x1CAD JUMP JUMPDEST SWAP4 SWAP3 POP POP POP JUMP JUMPDEST PUSH1 0x0 PUSH1 0x20 DUP3 ADD SWAP1 POP PUSH2 0x1DE8 PUSH1 0x0 DUP4 ADD DUP5 PUSH2 0x19F5 JUMP JUMPDEST SWAP3 SWAP2 POP POP JUMP JUMPDEST PUSH1 0x0 PUSH1 0x20 DUP3 ADD SWAP1 POP PUSH2 0x1E03 PUSH1 0x0 DUP4 ADD DUP5 PUSH2 0x1A32 JUMP JUMPDEST SWAP3 SWAP2 POP POP JUMP JUMPDEST PUSH1 0x0 PUSH1 0x40 DUP3 ADD SWAP1 POP PUSH2 0x1E1E PUSH1 0x0 DUP4 ADD DUP6 PUSH2 0x1A32 JUMP JUMPDEST DUP2 DUP2 SUB PUSH1 0x20 DUP4 ADD MSTORE PUSH2 0x1E30 DUP2 DUP5 PUSH2 0x1A58 JUMP JUMPDEST SWAP1 POP SWAP4 SWAP3 POP POP POP JUMP JUMPDEST PUSH1 0x0 PUSH1 0x20 DUP3 ADD SWAP1 POP DUP2 DUP2 SUB PUSH1 0x0 DUP4 ADD MSTORE PUSH2 0x1E53 DUP2 DUP5 PUSH2 0x1AC2 JUMP JUMPDEST SWAP1 POP SWAP3 SWAP2 POP POP JUMP JUMPDEST PUSH1 0x0 PUSH1 0x20 DUP3 ADD SWAP1 POP DUP2 DUP2 SUB PUSH1 0x0 DUP4 ADD MSTORE PUSH2 0x1E74 DUP2 PUSH2 0x1B2C JUMP JUMPDEST SWAP1 POP SWAP2 SWAP1 POP JUMP JUMPDEST PUSH1 0x0 PUSH1 0x20 DUP3 ADD SWAP1 POP DUP2 DUP2 SUB PUSH1 0x0 DUP4 ADD MSTORE PUSH2 0x1E94 DUP2 PUSH2 0x1B4F JUMP JUMPDEST SWAP1 POP SWAP2 SWAP1 POP JUMP JUMPDEST PUSH1 0x0 PUSH1 0x20 DUP3 ADD SWAP1 POP DUP2 DUP2 SUB PUSH1 0x0 DUP4 ADD MSTORE PUSH2 0x1EB4 DUP2 PUSH2 0x1B72 JUMP JUMPDEST SWAP1 POP SWAP2 SWAP1 POP JUMP JUMPDEST PUSH1 0x0 PUSH1 0x20 DUP3 ADD SWAP1 POP DUP2 DUP2 SUB PUSH1 0x0 DUP4 ADD MSTORE PUSH2 0x1ED4 DUP2 PUSH2 0x1B95 JUMP JUMPDEST SWAP1 POP SWAP2 SWAP1 POP JUMP JUMPDEST PUSH1 0x0 PUSH1 0x20 DUP3 ADD SWAP1 POP DUP2 DUP2 SUB PUSH1 0x0 DUP4 ADD MSTORE PUSH2 0x1EF4 DUP2 PUSH2 0x1BB8 JUMP JUMPDEST SWAP1 POP SWAP2 SWAP1 POP JUMP JUMPDEST PUSH1 0x0 PUSH1 0x20 DUP3 ADD SWAP1 POP DUP2 DUP2 SUB PUSH1 0x0 DUP4 ADD MSTORE PUSH2 0x1F14 DUP2 PUSH2 0x1BDB JUMP JUMPDEST SWAP1 POP SWAP2 SWAP1 POP JUMP JUMPDEST PUSH1 0x0 PUSH1 0x20 DUP3 ADD SWAP1 POP DUP2 DUP2 SUB PUSH1 0x0 DUP4 ADD MSTORE PUSH2 0x1F34 DUP2 PUSH2 0x1C21 JUMP JUMPDEST SWAP1 POP SWAP2 SWAP1 POP JUMP JUMPDEST PUSH1 0x0 PUSH1 0x20 DUP3 ADD SWAP1 POP DUP2 DUP2 SUB PUSH1 0x0 DUP4 ADD MSTORE PUSH2 0x1F54 DUP2 PUSH2 0x1C44 JUMP JUMPDEST SWAP1 POP SWAP2 SWAP1 POP JUMP JUMPDEST PUSH1 0x0 PUSH1 0x20 DUP3 ADD SWAP1 POP DUP2 DUP2 SUB PUSH1 0x0 DUP4 ADD MSTORE PUSH2 0x1F74 DUP2 PUSH2 0x1C8A JUMP JUMPDEST SWAP1 POP SWAP2 SWAP1 POP JUMP JUMPDEST PUSH1 0x0 PUSH1 0x20 DUP3 ADD SWAP1 POP PUSH2 0x1F90 PUSH1 0x0 DUP4 ADD DUP5 PUSH2 0x1CAD JUMP JUMPDEST SWAP3 SWAP2 POP POP JUMP JUMPDEST PUSH1 0x0 PUSH2 0x1FA0 PUSH2 0x1FB1 JUMP JUMPDEST SWAP1 POP PUSH2 0x1FAC DUP3 DUP3 PUSH2 0x2260 JUMP JUMPDEST SWAP2 SWAP1 POP JUMP JUMPDEST PUSH1 0x0 PUSH1 0x40 MLOAD SWAP1 POP SWAP1 JUMP JUMPDEST PUSH1 0x0 PUSH8 0xFFFFFFFFFFFFFFFF DUP3 GT ISZERO PUSH2 0x1FD6 JUMPI PUSH2 0x1FD5 PUSH2 0x2327 JUMP JUMPDEST JUMPDEST PUSH2 0x1FDF DUP3 PUSH2 0x2356 JUMP JUMPDEST SWAP1 POP PUSH1 0x20 DUP2 ADD SWAP1 POP SWAP2 SWAP1 POP JUMP JUMPDEST PUSH1 0x0 DUP2 MLOAD SWAP1 POP SWAP2 SWAP1 POP JUMP JUMPDEST PUSH1 0x0 DUP2 MLOAD SWAP1 POP SWAP2 SWAP1 POP JUMP JUMPDEST PUSH1 0x0 DUP3 DUP3 MSTORE PUSH1 0x20 DUP3 ADD SWAP1 POP SWAP3 SWAP2 POP POP JUMP JUMPDEST PUSH1 0x0 DUP2 SWAP1 POP SWAP3 SWAP2 POP POP JUMP JUMPDEST PUSH1 0x0 DUP3 DUP3 MSTORE PUSH1 0x20 DUP3 ADD SWAP1 POP SWAP3 SWAP2 POP POP JUMP JUMPDEST PUSH1 0x0 DUP2 SWAP1 POP SWAP3 SWAP2 POP POP JUMP JUMPDEST PUSH1 0x0 PUSH2 0x2045 DUP3 PUSH2 0x21EA JUMP JUMPDEST SWAP2 POP PUSH2 0x2050 DUP4 PUSH2 0x21EA JUMP JUMPDEST SWAP3 POP DUP3 PUSH32 0xFFFFFFFFFFFFFFFFFFFFFFFFFFFFFFFFFFFFFFFFFFFFFFFFFFFFFFFFFFFFFFFF SUB DUP3 GT ISZERO PUSH2 0x2085 JUMPI PUSH2 0x2084 PUSH2 0x22F8 JUMP JUMPDEST JUMPDEST DUP3 DUP3 ADD SWAP1 POP SWAP3 SWAP2 POP POP JUMP JUMPDEST PUSH1 0x0 PUSH2 0x209B DUP3 PUSH2 0x21EA JUMP JUMPDEST SWAP2 POP PUSH2 0x20A6 DUP4 PUSH2 0x21EA JUMP JUMPDEST SWAP3 POP DUP2 PUSH32 0xFFFFFFFFFFFFFFFFFFFFFFFFFFFFFFFFFFFFFFFFFFFFFFFFFFFFFFFFFFFFFFFF DIV DUP4 GT DUP3 ISZERO ISZERO AND ISZERO PUSH2 0x20DF JUMPI PUSH2 0x20DE PUSH2 0x22F8 JUMP JUMPDEST JUMPDEST DUP3 DUP3 MUL SWAP1 POP SWAP3 SWAP2 POP POP JUMP JUMPDEST PUSH1 0x0 PUSH2 0x20F5 DUP3 PUSH2 0x21EA JUMP JUMPDEST SWAP2 POP PUSH2 0x2100 DUP4 PUSH2 0x21EA JUMP JUMPDEST SWAP3 POP DUP3 DUP3 LT ISZERO PUSH2 0x2113 JUMPI PUSH2 0x2112 PUSH2 0x22F8 JUMP JUMPDEST JUMPDEST DUP3 DUP3 SUB SWAP1 POP SWAP3 SWAP2 POP POP JUMP JUMPDEST PUSH1 0x0 PUSH2 0x2129 DUP3 PUSH2 0x21CA JUMP JUMPDEST SWAP1 POP SWAP2 SWAP1 POP JUMP JUMPDEST PUSH1 0x0 DUP2 ISZERO ISZERO SWAP1 POP SWAP2 SWAP1 POP JUMP JUMPDEST PUSH1 0x0 PUSH32 0xFF00000000000000000000000000000000000000000000000000000000000000 DUP3 AND SWAP1 POP SWAP2 SWAP1 POP JUMP JUMPDEST PUSH1 0x0 PUSH32 0xFFFFFFFFFFFFFFFFFFFFFFFFFFFFFFFFFFFFFFFF000000000000000000000000 DUP3 AND SWAP1 POP SWAP2 SWAP1 POP JUMP JUMPDEST PUSH1 0x0 DUP2 SWAP1 POP SWAP2 SWAP1 POP JUMP JUMPDEST PUSH1 0x0 PUSH32 0xFFFFFFFF00000000000000000000000000000000000000000000000000000000 DUP3 AND SWAP1 POP SWAP2 SWAP1 POP JUMP JUMPDEST PUSH1 0x0 PUSH20 0xFFFFFFFFFFFFFFFFFFFFFFFFFFFFFFFFFFFFFFFF DUP3 AND SWAP1 POP SWAP2 SWAP1 POP JUMP JUMPDEST PUSH1 0x0 DUP2 SWAP1 POP SWAP2 SWAP1 POP JUMP JUMPDEST DUP3 DUP2 DUP4 CALLDATACOPY PUSH1 0x0 DUP4 DUP4 ADD MSTORE POP POP POP JUMP JUMPDEST PUSH1 0x0 JUMPDEST DUP4 DUP2 LT ISZERO PUSH2 0x2221 JUMPI DUP1 DUP3 ADD MLOAD DUP2 DUP5 ADD MSTORE PUSH1 0x20 DUP2 ADD SWAP1 POP PUSH2 0x2206 JUMP JUMPDEST DUP4 DUP2 GT ISZERO PUSH2 0x2230 JUMPI PUSH1 0x0 DUP5 DUP5 ADD MSTORE JUMPDEST POP POP POP POP JUMP JUMPDEST PUSH1 0x0 PUSH2 0x2241 DUP3 PUSH2 0x21EA JUMP JUMPDEST SWAP2 POP PUSH1 0x0 DUP3 EQ ISZERO PUSH2 0x2255 JUMPI PUSH2 0x2254 PUSH2 0x22F8 JUMP JUMPDEST JUMPDEST PUSH1 0x1 DUP3 SUB SWAP1 POP SWAP2 SWAP1 POP JUMP JUMPDEST PUSH2 0x2269 DUP3 PUSH2 0x2356 JUMP JUMPDEST DUP2 ADD DUP2 DUP2 LT PUSH8 0xFFFFFFFFFFFFFFFF DUP3 GT OR ISZERO PUSH2 0x2288 JUMPI PUSH2 0x2287 PUSH2 0x2327 JUMP JUMPDEST JUMPDEST DUP1 PUSH1 0x40 MSTORE POP POP POP JUMP JUMPDEST PUSH1 0x0 PUSH2 0x229C DUP3 PUSH2 0x21EA JUMP JUMPDEST SWAP2 POP PUSH32 0xFFFFFFFFFFFFFFFFFFFFFFFFFFFFFFFFFFFFFFFFFFFFFFFFFFFFFFFFFFFFFFFF DUP3 EQ ISZERO PUSH2 0x22CF JUMPI PUSH2 0x22CE PUSH2 0x22F8 JUMP JUMPDEST JUMPDEST PUSH1 0x1 DUP3 ADD SWAP1 POP SWAP2 SWAP1 POP JUMP JUMPDEST PUSH1 0x0 DUP2 SWAP1 POP SWAP2 SWAP1 POP JUMP JUMPDEST PUSH1 0x0 DUP2 SWAP1 POP SWAP2 SWAP1 POP JUMP JUMPDEST PUSH1 0x0 DUP2 SWAP1 POP SWAP2 SWAP1 POP JUMP JUMPDEST PUSH32 0x4E487B7100000000000000000000000000000000000000000000000000000000 PUSH1 0x0 MSTORE PUSH1 0x11 PUSH1 0x4 MSTORE PUSH1 0x24 PUSH1 0x0 REVERT JUMPDEST PUSH32 0x4E487B7100000000000000000000000000000000000000000000000000000000 PUSH1 0x0 MSTORE PUSH1 0x41 PUSH1 0x4 MSTORE PUSH1 0x24 PUSH1 0x0 REVERT JUMPDEST PUSH1 0x0 PUSH1 0x1F NOT PUSH1 0x1F DUP4 ADD AND SWAP1 POP SWAP2 SWAP1 POP JUMP JUMPDEST PUSH32 0x537472696E67733A20686578206C656E67746820696E73756666696369656E74 PUSH1 0x0 DUP3 ADD MSTORE POP JUMP JUMPDEST PUSH32 0x5061757361626C653A206E6F7420706175736564000000000000000000000000 PUSH1 0x0 DUP3 ADD MSTORE POP JUMP JUMPDEST PUSH32 0x46696E61537761703A636C61696D20496E76616C6964207369676E6174757265 PUSH1 0x0 DUP3 ADD MSTORE PUSH32 0x206C656E6774682E20546865207369676E6174757265206D7573742062652065 PUSH1 0x20 DUP3 ADD MSTORE PUSH32 0x786163746C792036352062797465730000000000000000000000000000000000 PUSH1 0x40 DUP3 ADD MSTORE POP JUMP JUMPDEST PUSH32 0x5061757361626C653A2070617573656400000000000000000000000000000000 PUSH1 0x0 DUP3 ADD MSTORE POP JUMP JUMPDEST PUSH32 0x46696E61537761703A636C61696D20496E76616C6964207369676E6174757265 PUSH1 0x0 DUP3 ADD MSTORE PUSH32 0x2E20546865207265636F7665726564207075626C6963206B6579206D75737420 PUSH1 0x20 DUP3 ADD MSTORE PUSH32 0x62652065786163746C7920333320627974657300000000000000000000000000 PUSH1 0x40 DUP3 ADD MSTORE POP JUMP JUMPDEST PUSH32 0x46696E61537761703A636C61696D205461726765742061646472657373206361 PUSH1 0x0 DUP3 ADD MSTORE PUSH32 0x6E6E6F74206265207A65726F0000000000000000000000000000000000000000 PUSH1 0x20 DUP3 ADD MSTORE POP JUMP JUMPDEST PUSH32 0x416363657373436F6E74726F6C3A206163636F756E7420000000000000000000 PUSH1 0x0 DUP3 ADD MSTORE POP JUMP JUMPDEST PUSH32 0x46696E61537761703A636C61696D20616C726561647920737761707065640000 PUSH1 0x0 DUP3 ADD MSTORE POP JUMP JUMPDEST PUSH32 0x46696E61537761703A636C61696D205369676E61747572652068617368206973 PUSH1 0x0 DUP3 ADD MSTORE PUSH32 0x2072657175697265640000000000000000000000000000000000000000000000 PUSH1 0x20 DUP3 ADD MSTORE POP JUMP JUMPDEST PUSH32 0x206973206D697373696E6720726F6C6520000000000000000000000000000000 PUSH1 0x0 DUP3 ADD MSTORE POP JUMP JUMPDEST PUSH32 0x416363657373436F6E74726F6C3A2063616E206F6E6C792072656E6F756E6365 PUSH1 0x0 DUP3 ADD MSTORE PUSH32 0x20726F6C657320666F722073656C660000000000000000000000000000000000 PUSH1 0x20 DUP3 ADD MSTORE POP JUMP JUMPDEST PUSH2 0x263D DUP2 PUSH2 0x211E JUMP JUMPDEST DUP2 EQ PUSH2 0x2648 JUMPI PUSH1 0x0 DUP1 REVERT JUMPDEST POP JUMP JUMPDEST PUSH2 0x2654 DUP2 PUSH2 0x2194 JUMP JUMPDEST DUP2 EQ PUSH2 0x265F JUMPI PUSH1 0x0 DUP1 REVERT JUMPDEST POP JUMP JUMPDEST PUSH2 0x266B DUP2 PUSH2 0x219E JUMP JUMPDEST DUP2 EQ PUSH2 0x2676 JUMPI PUSH1 0x0 DUP1 REVERT JUMPDEST POP JUMP JUMPDEST PUSH2 0x2682 DUP2 PUSH2 0x21EA JUMP JUMPDEST DUP2 EQ PUSH2 0x268D JUMPI PUSH1 0x0 DUP1 REVERT JUMPDEST POP JUMP INVALID LOG2 PUSH5 0x6970667358 0x22 SLT KECCAK256 0xDF 0xA5 0x24 0x2E 0xB3 AND 0xDE 0xAD JUMP ORIGIN 0xC1 0x5C 0xDE 0xD8 BLOCKHASH PUSH23 0x828DEB0F29A2662DE9572B6837D85FB264736F6C634300 ADDMOD DIV STOP CALLER "
				},
				"gasEstimates": {
					"creation": {
						"codeDepositCost": "1985200",
						"executionCost": "infinite",
						"totalCost": "infinite"
					},
					"external": {
						"ADMIN_ROLE()": "352",
						"DEFAULT_ADMIN_ROLE()": "357",
						"PAUSER_ROLE()": "439",
						"addBalance(bytes,uint256)": "infinite",
						"addSwappedBalance(uint256)": "infinite",
						"balanceOf(bytes)": "infinite",
						"claim(address,bytes32,bytes)": "infinite",
						"getRoleAdmin(bytes32)": "infinite",
						"getSwappedBalance()": "1248",
						"grantRole(bytes32,address)": "infinite",
						"hasRole(bytes32,address)": "1929",
						"pause()": "infinite",
						"paused()": "1268",
						"removeBalance(bytes)": "infinite",
						"removeSwappedBalance(uint256)": "infinite",
						"renounceRole(bytes32,address)": "infinite",
						"revokeRole(bytes32,address)": "infinite",
						"setNativeValue(uint256)": "infinite",
						"supportsInterface(bytes4)": "773",
						"unpause()": "infinite"
					}
				},
				"methodIdentifiers": {
					"ADMIN_ROLE()": "75b238fc",
					"DEFAULT_ADMIN_ROLE()": "a217fddf",
					"PAUSER_ROLE()": "e63ab1e9",
					"addBalance(bytes,uint256)": "c71c6490",
					"addSwappedBalance(uint256)": "0112f541",
					"balanceOf(bytes)": "78415365",
					"claim(address,bytes32,bytes)": "736c76ee",
					"getRoleAdmin(bytes32)": "248a9ca3",
					"getSwappedBalance()": "a0d5680f",
					"grantRole(bytes32,address)": "2f2ff15d",
					"hasRole(bytes32,address)": "91d14854",
					"pause()": "8456cb59",
					"paused()": "5c975abb",
					"removeBalance(bytes)": "3636f669",
					"removeSwappedBalance(uint256)": "c6afe01e",
					"renounceRole(bytes32,address)": "36568abe",
					"revokeRole(bytes32,address)": "d547741f",
					"setNativeValue(uint256)": "5b06a1d5",
					"supportsInterface(bytes4)": "01ffc9a7",
					"unpause()": "3f4ba83a"
				}
			},
			"userdoc": {
				"kind": "user",
				"methods": {},
				"version": 1
			}
		}
	}
}