{
	"contracts/FinaSwap.sol": {
		"FinaSwap": {
			"abi": [
				{
					"inputs": [
						{
							"internalType": "address",
							"name": "ecdsa",
							"type": "address"
						},
						{
							"internalType": "address",
							"name": "token",
							"type": "address"
						},
						{
							"internalType": "bytes1",
							"name": "prefix",
							"type": "bytes1"
						},
						{
							"internalType": "uint256",
							"name": "nativeValue",
							"type": "uint256"
						}
					],
					"stateMutability": "nonpayable",
					"type": "constructor"
				},
				{
					"anonymous": false,
					"inputs": [
						{
							"indexed": false,
							"internalType": "address",
							"name": "account",
							"type": "address"
						}
					],
					"name": "Paused",
					"type": "event"
				},
				{
					"anonymous": false,
					"inputs": [
						{
							"indexed": true,
							"internalType": "bytes32",
							"name": "role",
							"type": "bytes32"
						},
						{
							"indexed": true,
							"internalType": "bytes32",
							"name": "previousAdminRole",
							"type": "bytes32"
						},
						{
							"indexed": true,
							"internalType": "bytes32",
							"name": "newAdminRole",
							"type": "bytes32"
						}
					],
					"name": "RoleAdminChanged",
					"type": "event"
				},
				{
					"anonymous": false,
					"inputs": [
						{
							"indexed": true,
							"internalType": "bytes32",
							"name": "role",
							"type": "bytes32"
						},
						{
							"indexed": true,
							"internalType": "address",
							"name": "account",
							"type": "address"
						},
						{
							"indexed": true,
							"internalType": "address",
							"name": "sender",
							"type": "address"
						}
					],
					"name": "RoleGranted",
					"type": "event"
				},
				{
					"anonymous": false,
					"inputs": [
						{
							"indexed": true,
							"internalType": "bytes32",
							"name": "role",
							"type": "bytes32"
						},
						{
							"indexed": true,
							"internalType": "address",
							"name": "account",
							"type": "address"
						},
						{
							"indexed": true,
							"internalType": "address",
							"name": "sender",
							"type": "address"
						}
					],
					"name": "RoleRevoked",
					"type": "event"
				},
				{
					"anonymous": false,
					"inputs": [
						{
							"indexed": false,
							"internalType": "address",
							"name": "account",
							"type": "address"
						}
					],
					"name": "Unpaused",
					"type": "event"
				},
				{
					"inputs": [],
					"name": "ADMIN_ROLE",
					"outputs": [
						{
							"internalType": "bytes32",
							"name": "",
							"type": "bytes32"
						}
					],
					"stateMutability": "view",
					"type": "function"
				},
				{
					"inputs": [],
					"name": "DEFAULT_ADMIN_ROLE",
					"outputs": [
						{
							"internalType": "bytes32",
							"name": "",
							"type": "bytes32"
						}
					],
					"stateMutability": "view",
					"type": "function"
				},
				{
					"inputs": [],
					"name": "PAUSER_ROLE",
					"outputs": [
						{
							"internalType": "bytes32",
							"name": "",
							"type": "bytes32"
						}
					],
					"stateMutability": "view",
					"type": "function"
				},
				{
					"inputs": [
						{
							"internalType": "bytes",
							"name": "source",
							"type": "bytes"
						},
						{
							"internalType": "uint256",
							"name": "balance",
							"type": "uint256"
						}
					],
					"name": "addBalance",
					"outputs": [],
					"stateMutability": "nonpayable",
					"type": "function"
				},
				{
					"inputs": [
						{
							"internalType": "uint256",
							"name": "balance",
							"type": "uint256"
						}
					],
					"name": "addSwappedBalance",
					"outputs": [],
					"stateMutability": "nonpayable",
					"type": "function"
				},
				{
					"inputs": [
						{
							"internalType": "bytes",
							"name": "source",
							"type": "bytes"
						}
					],
					"name": "balanceOf",
					"outputs": [
						{
							"internalType": "uint256",
							"name": "",
							"type": "uint256"
						}
					],
					"stateMutability": "view",
					"type": "function"
				},
				{
					"inputs": [
						{
							"internalType": "address",
							"name": "target",
							"type": "address"
						},
						{
							"internalType": "bytes32",
							"name": "hash",
							"type": "bytes32"
						},
						{
							"internalType": "bytes",
							"name": "signature",
							"type": "bytes"
						}
					],
					"name": "claim",
					"outputs": [],
					"stateMutability": "nonpayable",
					"type": "function"
				},
				{
					"inputs": [
						{
							"internalType": "bytes32",
							"name": "role",
							"type": "bytes32"
						}
					],
					"name": "getRoleAdmin",
					"outputs": [
						{
							"internalType": "bytes32",
							"name": "",
							"type": "bytes32"
						}
					],
					"stateMutability": "view",
					"type": "function"
				},
				{
					"inputs": [],
					"name": "getSwappedBalance",
					"outputs": [
						{
							"internalType": "uint256",
							"name": "",
							"type": "uint256"
						}
					],
					"stateMutability": "view",
					"type": "function"
				},
				{
					"inputs": [
						{
							"internalType": "bytes32",
							"name": "role",
							"type": "bytes32"
						},
						{
							"internalType": "address",
							"name": "account",
							"type": "address"
						}
					],
					"name": "grantRole",
					"outputs": [],
					"stateMutability": "nonpayable",
					"type": "function"
				},
				{
					"inputs": [
						{
							"internalType": "bytes32",
							"name": "role",
							"type": "bytes32"
						},
						{
							"internalType": "address",
							"name": "account",
							"type": "address"
						}
					],
					"name": "hasRole",
					"outputs": [
						{
							"internalType": "bool",
							"name": "",
							"type": "bool"
						}
					],
					"stateMutability": "view",
					"type": "function"
				},
				{
					"inputs": [],
					"name": "pause",
					"outputs": [],
					"stateMutability": "nonpayable",
					"type": "function"
				},
				{
					"inputs": [],
					"name": "paused",
					"outputs": [
						{
							"internalType": "bool",
							"name": "",
							"type": "bool"
						}
					],
					"stateMutability": "view",
					"type": "function"
				},
				{
					"inputs": [
						{
							"internalType": "bytes",
							"name": "source",
							"type": "bytes"
						}
					],
					"name": "removeBalance",
					"outputs": [],
					"stateMutability": "nonpayable",
					"type": "function"
				},
				{
					"inputs": [
						{
							"internalType": "uint256",
							"name": "balance",
							"type": "uint256"
						}
					],
					"name": "removeSwappedBalance",
					"outputs": [],
					"stateMutability": "nonpayable",
					"type": "function"
				},
				{
					"inputs": [
						{
							"internalType": "bytes32",
							"name": "role",
							"type": "bytes32"
						},
						{
							"internalType": "address",
							"name": "account",
							"type": "address"
						}
					],
					"name": "renounceRole",
					"outputs": [],
					"stateMutability": "nonpayable",
					"type": "function"
				},
				{
					"inputs": [
						{
							"internalType": "bytes32",
							"name": "role",
							"type": "bytes32"
						},
						{
							"internalType": "address",
							"name": "account",
							"type": "address"
						}
					],
					"name": "revokeRole",
					"outputs": [],
					"stateMutability": "nonpayable",
					"type": "function"
				},
				{
					"inputs": [
						{
							"internalType": "uint256",
							"name": "nativeValue",
							"type": "uint256"
						}
					],
					"name": "setNativeValue",
					"outputs": [],
					"stateMutability": "nonpayable",
					"type": "function"
				},
				{
					"inputs": [
						{
							"internalType": "bytes4",
							"name": "interfaceId",
							"type": "bytes4"
						}
					],
					"name": "supportsInterface",
					"outputs": [
						{
							"internalType": "bool",
							"name": "",
							"type": "bool"
						}
					],
					"stateMutability": "view",
					"type": "function"
				},
				{
					"inputs": [],
					"name": "unpause",
					"outputs": [],
					"stateMutability": "nonpayable",
					"type": "function"
				}
			],
			"devdoc": {
				"kind": "dev",
				"methods": {
					"getRoleAdmin(bytes32)": {
						"details": "Returns the admin role that controls `role`. See {grantRole} and {revokeRole}. To change a role's admin, use {_setRoleAdmin}."
					},
					"grantRole(bytes32,address)": {
						"details": "Grants `role` to `account`. If `account` had not been already granted `role`, emits a {RoleGranted} event. Requirements: - the caller must have ``role``'s admin role."
					},
					"hasRole(bytes32,address)": {
						"details": "Returns `true` if `account` has been granted `role`."
					},
					"paused()": {
						"details": "Returns true if the contract is paused, and false otherwise."
					},
					"renounceRole(bytes32,address)": {
						"details": "Revokes `role` from the calling account. Roles are often managed via {grantRole} and {revokeRole}: this function's purpose is to provide a mechanism for accounts to lose their privileges if they are compromised (such as when a trusted device is misplaced). If the calling account had been revoked `role`, emits a {RoleRevoked} event. Requirements: - the caller must be `account`."
					},
					"revokeRole(bytes32,address)": {
						"details": "Revokes `role` from `account`. If `account` had been granted `role`, emits a {RoleRevoked} event. Requirements: - the caller must have ``role``'s admin role."
					},
					"supportsInterface(bytes4)": {
						"details": "See {IERC165-supportsInterface}."
					}
				},
				"version": 1
			},
			"evm": {
				"assembly": "    /* \"contracts/FinaSwap.sol\":295:4349  contract FinaSwap is Pausable, AccessControl {\r... */\n  mstore(0x40, 0xe0)\n    /* \"contracts/FinaSwap.sol\":739:1061  constructor(address ecdsa, address token, bytes1 prefix, uint256 nativeValue)\r... */\n  callvalue\n  dup1\n  iszero\n  tag_1\n  jumpi\n  0x00\n  dup1\n  revert\ntag_1:\n  pop\n  mload(0x40)\n  sub(codesize, bytecodeSize)\n  dup1\n  bytecodeSize\n  dup4\n  codecopy\n  dup2\n  dup2\n  add\n  0x40\n  mstore\n  dup2\n  add\n  swap1\n  tag_2\n  swap2\n  swap1\n  tag_3\n  jump\t// in\ntag_2:\n    /* \"@openzeppelin/contracts/security/Pausable.sol\":991:996  false */\n  0x00\n    /* \"@openzeppelin/contracts/security/Pausable.sol\":981:988  _paused */\n  dup1\n  0x00\n    /* \"@openzeppelin/contracts/security/Pausable.sol\":981:996  _paused = false */\n  0x0100\n  exp\n  dup2\n  sload\n  dup2\n  0xff\n  mul\n  not\n  and\n  swap1\n  dup4\n  iszero\n  iszero\n  mul\n  or\n  swap1\n  sstore\n  pop\n    /* \"contracts/FinaSwap.sol\":849:854  ecdsa */\n  dup4\n    /* \"contracts/FinaSwap.sol\":833:855  _ecdsa = IECDSA(ecdsa) */\n  0xffffffffffffffffffffffffffffffffffffffff\n  and\n  0x80\n  dup2\n  0xffffffffffffffffffffffffffffffffffffffff\n  and\n  0x60\n  shl\n  dup2\n  mstore\n  pop\n  pop\n    /* \"contracts/FinaSwap.sol\":890:895  token */\n  dup3\n    /* \"contracts/FinaSwap.sol\":866:896  _token = IERC20Mintable(token) */\n  0xffffffffffffffffffffffffffffffffffffffff\n  and\n  0xa0\n  dup2\n  0xffffffffffffffffffffffffffffffffffffffff\n  and\n  0x60\n  shl\n  dup2\n  mstore\n  pop\n  pop\n    /* \"contracts/FinaSwap.sol\":917:923  prefix */\n  dup2\n    /* \"contracts/FinaSwap.sol\":907:923  _prefix = prefix */\n  not(0xffffffffffffffffffffffffffffffffffffffffffffffffffffffffffffff)\n  and\n  0xc0\n  dup2\n  not(0xffffffffffffffffffffffffffffffffffffffffffffffffffffffffffffff)\n  and\n  dup2\n  mstore\n  pop\n  pop\n    /* \"contracts/FinaSwap.sol\":949:960  nativeValue */\n  dup1\n    /* \"contracts/FinaSwap.sol\":934:946  _nativeValue */\n  0x02\n    /* \"contracts/FinaSwap.sol\":934:960  _nativeValue = nativeValue */\n  dup2\n  swap1\n  sstore\n  pop\n    /* \"contracts/FinaSwap.sol\":973:1007  _grantRole(ADMIN_ROLE, msg.sender) */\n  tag_8\n    /* \"contracts/FinaSwap.sol\":384:407  keccak256(\"ADMIN_ROLE\") */\n  0xa49807205ce4d355092ef5a8a18f56e8913cf4a201fbe287825b095693c21775\n    /* \"contracts/FinaSwap.sol\":996:1006  msg.sender */\n  caller\n    /* \"contracts/FinaSwap.sol\":973:983  _grantRole */\n  shl(0x20, tag_9)\n    /* \"contracts/FinaSwap.sol\":973:1007  _grantRole(ADMIN_ROLE, msg.sender) */\n  0x20\n  shr\n  jump\t// in\ntag_8:\n    /* \"contracts/FinaSwap.sol\":1018:1053  _grantRole(PAUSER_ROLE, msg.sender) */\n  tag_10\n    /* \"contracts/FinaSwap.sol\":452:476  keccak256(\"PAUSER_ROLE\") */\n  0x65d7a28e3265b37a6474929f336521b332c1681b933f6cb9f3376673440d862a\n    /* \"contracts/FinaSwap.sol\":1042:1052  msg.sender */\n  caller\n    /* \"contracts/FinaSwap.sol\":1018:1028  _grantRole */\n  shl(0x20, tag_9)\n    /* \"contracts/FinaSwap.sol\":1018:1053  _grantRole(PAUSER_ROLE, msg.sender) */\n  0x20\n  shr\n  jump\t// in\ntag_10:\n    /* \"contracts/FinaSwap.sol\":739:1061  constructor(address ecdsa, address token, bytes1 prefix, uint256 nativeValue)\r... */\n  pop\n  pop\n  pop\n  pop\n    /* \"contracts/FinaSwap.sol\":295:4349  contract FinaSwap is Pausable, AccessControl {\r... */\n  jump(tag_11)\n    /* \"@openzeppelin/contracts/access/AccessControl.sol\":6861:7094  function _grantRole(bytes32 role, address account) internal virtual {... */\ntag_9:\n    /* \"@openzeppelin/contracts/access/AccessControl.sol\":6944:6966  hasRole(role, account) */\n  tag_13\n    /* \"@openzeppelin/contracts/access/AccessControl.sol\":6952:6956  role */\n  dup3\n    /* \"@openzeppelin/contracts/access/AccessControl.sol\":6958:6965  account */\n  dup3\n    /* \"@openzeppelin/contracts/access/AccessControl.sol\":6944:6951  hasRole */\n  shl(0x20, tag_14)\n    /* \"@openzeppelin/contracts/access/AccessControl.sol\":6944:6966  hasRole(role, account) */\n  0x20\n  shr\n  jump\t// in\ntag_13:\n    /* \"@openzeppelin/contracts/access/AccessControl.sol\":6939:7088  if (!hasRole(role, account)) {... */\n  tag_15\n  jumpi\n    /* \"@openzeppelin/contracts/access/AccessControl.sol\":7014:7018  true */\n  0x01\n    /* \"@openzeppelin/contracts/access/AccessControl.sol\":6982:6988  _roles */\n  dup1\n    /* \"@openzeppelin/contracts/access/AccessControl.sol\":6982:6994  _roles[role] */\n  0x00\n    /* \"@openzeppelin/contracts/access/AccessControl.sol\":6989:6993  role */\n  dup5\n    /* \"@openzeppelin/contracts/access/AccessControl.sol\":6982:6994  _roles[role] */\n  dup2\n  mstore\n  0x20\n  add\n  swap1\n  dup2\n  mstore\n  0x20\n  add\n  0x00\n  keccak256\n    /* \"@openzeppelin/contracts/access/AccessControl.sol\":6982:7002  _roles[role].members */\n  0x00\n  add\n    /* \"@openzeppelin/contracts/access/AccessControl.sol\":6982:7011  _roles[role].members[account] */\n  0x00\n    /* \"@openzeppelin/contracts/access/AccessControl.sol\":7003:7010  account */\n  dup4\n    /* \"@openzeppelin/contracts/access/AccessControl.sol\":6982:7011  _roles[role].members[account] */\n  0xffffffffffffffffffffffffffffffffffffffff\n  and\n  0xffffffffffffffffffffffffffffffffffffffff\n  and\n  dup2\n  mstore\n  0x20\n  add\n  swap1\n  dup2\n  mstore\n  0x20\n  add\n  0x00\n  keccak256\n  0x00\n    /* \"@openzeppelin/contracts/access/AccessControl.sol\":6982:7018  _roles[role].members[account] = true */\n  0x0100\n  exp\n  dup2\n  sload\n  dup2\n  0xff\n  mul\n  not\n  and\n  swap1\n  dup4\n  iszero\n  iszero\n  mul\n  or\n  swap1\n  sstore\n  pop\n    /* \"@openzeppelin/contracts/access/AccessControl.sol\":7064:7076  _msgSender() */\n  tag_16\n    /* \"@openzeppelin/contracts/access/AccessControl.sol\":7064:7074  _msgSender */\n  shl(0x20, tag_17)\n    /* \"@openzeppelin/contracts/access/AccessControl.sol\":7064:7076  _msgSender() */\n  0x20\n  shr\n  jump\t// in\ntag_16:\n    /* \"@openzeppelin/contracts/access/AccessControl.sol\":7037:7077  RoleGranted(role, account, _msgSender()) */\n  0xffffffffffffffffffffffffffffffffffffffff\n  and\n    /* \"@openzeppelin/contracts/access/AccessControl.sol\":7055:7062  account */\n  dup2\n    /* \"@openzeppelin/contracts/access/AccessControl.sol\":7037:7077  RoleGranted(role, account, _msgSender()) */\n  0xffffffffffffffffffffffffffffffffffffffff\n  and\n    /* \"@openzeppelin/contracts/access/AccessControl.sol\":7049:7053  role */\n  dup4\n    /* \"@openzeppelin/contracts/access/AccessControl.sol\":7037:7077  RoleGranted(role, account, _msgSender()) */\n  0x2f8788117e7eff1d82e926ec794901d17c78024a50270940304540a733656f0d\n  mload(0x40)\n  mload(0x40)\n  dup1\n  swap2\n  sub\n  swap1\n  log4\n    /* \"@openzeppelin/contracts/access/AccessControl.sol\":6939:7088  if (!hasRole(role, account)) {... */\ntag_15:\n    /* \"@openzeppelin/contracts/access/AccessControl.sol\":6861:7094  function _grantRole(bytes32 role, address account) internal virtual {... */\n  pop\n  pop\n  jump\t// out\n    /* \"@openzeppelin/contracts/access/AccessControl.sol\":2909:3054  function hasRole(bytes32 role, address account) public view virtual override returns (bool) {... */\ntag_14:\n    /* \"@openzeppelin/contracts/access/AccessControl.sol\":2995:2999  bool */\n  0x00\n    /* \"@openzeppelin/contracts/access/AccessControl.sol\":3018:3024  _roles */\n  0x01\n    /* \"@openzeppelin/contracts/access/AccessControl.sol\":3018:3030  _roles[role] */\n  0x00\n    /* \"@openzeppelin/contracts/access/AccessControl.sol\":3025:3029  role */\n  dup5\n    /* \"@openzeppelin/contracts/access/AccessControl.sol\":3018:3030  _roles[role] */\n  dup2\n  mstore\n  0x20\n  add\n  swap1\n  dup2\n  mstore\n  0x20\n  add\n  0x00\n  keccak256\n    /* \"@openzeppelin/contracts/access/AccessControl.sol\":3018:3038  _roles[role].members */\n  0x00\n  add\n    /* \"@openzeppelin/contracts/access/AccessControl.sol\":3018:3047  _roles[role].members[account] */\n  0x00\n    /* \"@openzeppelin/contracts/access/AccessControl.sol\":3039:3046  account */\n  dup4\n    /* \"@openzeppelin/contracts/access/AccessControl.sol\":3018:3047  _roles[role].members[account] */\n  0xffffffffffffffffffffffffffffffffffffffff\n  and\n  0xffffffffffffffffffffffffffffffffffffffff\n  and\n  dup2\n  mstore\n  0x20\n  add\n  swap1\n  dup2\n  mstore\n  0x20\n  add\n  0x00\n  keccak256\n  0x00\n  swap1\n  sload\n  swap1\n  0x0100\n  exp\n  swap1\n  div\n  0xff\n  and\n    /* \"@openzeppelin/contracts/access/AccessControl.sol\":3011:3047  return _roles[role].members[account] */\n  swap1\n  pop\n    /* \"@openzeppelin/contracts/access/AccessControl.sol\":2909:3054  function hasRole(bytes32 role, address account) public view virtual override returns (bool) {... */\n  swap3\n  swap2\n  pop\n  pop\n  jump\t// out\n    /* \"@openzeppelin/contracts/utils/Context.sol\":640:736  function _msgSender() internal view virtual returns (address) {... */\ntag_17:\n    /* \"@openzeppelin/contracts/utils/Context.sol\":693:700  address */\n  0x00\n    /* \"@openzeppelin/contracts/utils/Context.sol\":719:729  msg.sender */\n  caller\n    /* \"@openzeppelin/contracts/utils/Context.sol\":712:729  return msg.sender */\n  swap1\n  pop\n    /* \"@openzeppelin/contracts/utils/Context.sol\":640:736  function _msgSender() internal view virtual returns (address) {... */\n  swap1\n  jump\t// out\n    /* \"#utility.yul\":7:150   */\ntag_21:\n    /* \"#utility.yul\":64:69   */\n  0x00\n    /* \"#utility.yul\":95:101   */\n  dup2\n    /* \"#utility.yul\":89:102   */\n  mload\n    /* \"#utility.yul\":80:102   */\n  swap1\n  pop\n    /* \"#utility.yul\":111:144   */\n  tag_23\n    /* \"#utility.yul\":138:143   */\n  dup2\n    /* \"#utility.yul\":111:144   */\n  tag_24\n  jump\t// in\ntag_23:\n    /* \"#utility.yul\":70:150   */\n  swap3\n  swap2\n  pop\n  pop\n  jump\t// out\n    /* \"#utility.yul\":156:297   */\ntag_25:\n    /* \"#utility.yul\":212:217   */\n  0x00\n    /* \"#utility.yul\":243:249   */\n  dup2\n    /* \"#utility.yul\":237:250   */\n  mload\n    /* \"#utility.yul\":228:250   */\n  swap1\n  pop\n    /* \"#utility.yul\":259:291   */\n  tag_27\n    /* \"#utility.yul\":285:290   */\n  dup2\n    /* \"#utility.yul\":259:291   */\n  tag_28\n  jump\t// in\ntag_27:\n    /* \"#utility.yul\":218:297   */\n  swap3\n  swap2\n  pop\n  pop\n  jump\t// out\n    /* \"#utility.yul\":303:446   */\ntag_29:\n    /* \"#utility.yul\":360:365   */\n  0x00\n    /* \"#utility.yul\":391:397   */\n  dup2\n    /* \"#utility.yul\":385:398   */\n  mload\n    /* \"#utility.yul\":376:398   */\n  swap1\n  pop\n    /* \"#utility.yul\":407:440   */\n  tag_31\n    /* \"#utility.yul\":434:439   */\n  dup2\n    /* \"#utility.yul\":407:440   */\n  tag_32\n  jump\t// in\ntag_31:\n    /* \"#utility.yul\":366:446   */\n  swap3\n  swap2\n  pop\n  pop\n  jump\t// out\n    /* \"#utility.yul\":452:1203   */\ntag_3:\n    /* \"#utility.yul\":548:554   */\n  0x00\n    /* \"#utility.yul\":556:562   */\n  dup1\n    /* \"#utility.yul\":564:570   */\n  0x00\n    /* \"#utility.yul\":572:578   */\n  dup1\n    /* \"#utility.yul\":621:624   */\n  0x80\n    /* \"#utility.yul\":609:618   */\n  dup6\n    /* \"#utility.yul\":600:607   */\n  dup8\n    /* \"#utility.yul\":596:619   */\n  sub\n    /* \"#utility.yul\":592:625   */\n  slt\n    /* \"#utility.yul\":589:591   */\n  iszero\n  tag_34\n  jumpi\n    /* \"#utility.yul\":638:639   */\n  0x00\n    /* \"#utility.yul\":635:636   */\n  dup1\n    /* \"#utility.yul\":628:640   */\n  revert\n    /* \"#utility.yul\":589:591   */\ntag_34:\n    /* \"#utility.yul\":681:682   */\n  0x00\n    /* \"#utility.yul\":706:770   */\n  tag_35\n    /* \"#utility.yul\":762:769   */\n  dup8\n    /* \"#utility.yul\":753:759   */\n  dup3\n    /* \"#utility.yul\":742:751   */\n  dup9\n    /* \"#utility.yul\":738:760   */\n  add\n    /* \"#utility.yul\":706:770   */\n  tag_21\n  jump\t// in\ntag_35:\n    /* \"#utility.yul\":696:770   */\n  swap5\n  pop\n    /* \"#utility.yul\":652:780   */\n  pop\n    /* \"#utility.yul\":819:821   */\n  0x20\n    /* \"#utility.yul\":845:909   */\n  tag_36\n    /* \"#utility.yul\":901:908   */\n  dup8\n    /* \"#utility.yul\":892:898   */\n  dup3\n    /* \"#utility.yul\":881:890   */\n  dup9\n    /* \"#utility.yul\":877:899   */\n  add\n    /* \"#utility.yul\":845:909   */\n  tag_21\n  jump\t// in\ntag_36:\n    /* \"#utility.yul\":835:909   */\n  swap4\n  pop\n    /* \"#utility.yul\":790:919   */\n  pop\n    /* \"#utility.yul\":958:960   */\n  0x40\n    /* \"#utility.yul\":984:1047   */\n  tag_37\n    /* \"#utility.yul\":1039:1046   */\n  dup8\n    /* \"#utility.yul\":1030:1036   */\n  dup3\n    /* \"#utility.yul\":1019:1028   */\n  dup9\n    /* \"#utility.yul\":1015:1037   */\n  add\n    /* \"#utility.yul\":984:1047   */\n  tag_25\n  jump\t// in\ntag_37:\n    /* \"#utility.yul\":974:1047   */\n  swap3\n  pop\n    /* \"#utility.yul\":929:1057   */\n  pop\n    /* \"#utility.yul\":1096:1098   */\n  0x60\n    /* \"#utility.yul\":1122:1186   */\n  tag_38\n    /* \"#utility.yul\":1178:1185   */\n  dup8\n    /* \"#utility.yul\":1169:1175   */\n  dup3\n    /* \"#utility.yul\":1158:1167   */\n  dup9\n    /* \"#utility.yul\":1154:1176   */\n  add\n    /* \"#utility.yul\":1122:1186   */\n  tag_29\n  jump\t// in\ntag_38:\n    /* \"#utility.yul\":1112:1186   */\n  swap2\n  pop\n    /* \"#utility.yul\":1067:1196   */\n  pop\n    /* \"#utility.yul\":579:1203   */\n  swap3\n  swap6\n  swap2\n  swap5\n  pop\n  swap3\n  pop\n  jump\t// out\n    /* \"#utility.yul\":1209:1305   */\ntag_39:\n    /* \"#utility.yul\":1246:1253   */\n  0x00\n    /* \"#utility.yul\":1275:1299   */\n  tag_41\n    /* \"#utility.yul\":1293:1298   */\n  dup3\n    /* \"#utility.yul\":1275:1299   */\n  tag_42\n  jump\t// in\ntag_41:\n    /* \"#utility.yul\":1264:1299   */\n  swap1\n  pop\n    /* \"#utility.yul\":1254:1305   */\n  swap2\n  swap1\n  pop\n  jump\t// out\n    /* \"#utility.yul\":1311:1460   */\ntag_43:\n    /* \"#utility.yul\":1347:1354   */\n  0x00\n    /* \"#utility.yul\":1387:1453   */\n  0xff00000000000000000000000000000000000000000000000000000000000000\n    /* \"#utility.yul\":1380:1385   */\n  dup3\n    /* \"#utility.yul\":1376:1454   */\n  and\n    /* \"#utility.yul\":1365:1454   */\n  swap1\n  pop\n    /* \"#utility.yul\":1355:1460   */\n  swap2\n  swap1\n  pop\n  jump\t// out\n    /* \"#utility.yul\":1466:1592   */\ntag_42:\n    /* \"#utility.yul\":1503:1510   */\n  0x00\n    /* \"#utility.yul\":1543:1585   */\n  0xffffffffffffffffffffffffffffffffffffffff\n    /* \"#utility.yul\":1536:1541   */\n  dup3\n    /* \"#utility.yul\":1532:1586   */\n  and\n    /* \"#utility.yul\":1521:1586   */\n  swap1\n  pop\n    /* \"#utility.yul\":1511:1592   */\n  swap2\n  swap1\n  pop\n  jump\t// out\n    /* \"#utility.yul\":1598:1675   */\ntag_46:\n    /* \"#utility.yul\":1635:1642   */\n  0x00\n    /* \"#utility.yul\":1664:1669   */\n  dup2\n    /* \"#utility.yul\":1653:1669   */\n  swap1\n  pop\n    /* \"#utility.yul\":1643:1675   */\n  swap2\n  swap1\n  pop\n  jump\t// out\n    /* \"#utility.yul\":1681:1803   */\ntag_24:\n    /* \"#utility.yul\":1754:1778   */\n  tag_49\n    /* \"#utility.yul\":1772:1777   */\n  dup2\n    /* \"#utility.yul\":1754:1778   */\n  tag_39\n  jump\t// in\ntag_49:\n    /* \"#utility.yul\":1747:1752   */\n  dup2\n    /* \"#utility.yul\":1744:1779   */\n  eq\n    /* \"#utility.yul\":1734:1736   */\n  tag_50\n  jumpi\n    /* \"#utility.yul\":1793:1794   */\n  0x00\n    /* \"#utility.yul\":1790:1791   */\n  dup1\n    /* \"#utility.yul\":1783:1795   */\n  revert\n    /* \"#utility.yul\":1734:1736   */\ntag_50:\n    /* \"#utility.yul\":1724:1803   */\n  pop\n  jump\t// out\n    /* \"#utility.yul\":1809:1929   */\ntag_28:\n    /* \"#utility.yul\":1881:1904   */\n  tag_52\n    /* \"#utility.yul\":1898:1903   */\n  dup2\n    /* \"#utility.yul\":1881:1904   */\n  tag_43\n  jump\t// in\ntag_52:\n    /* \"#utility.yul\":1874:1879   */\n  dup2\n    /* \"#utility.yul\":1871:1905   */\n  eq\n    /* \"#utility.yul\":1861:1863   */\n  tag_53\n  jumpi\n    /* \"#utility.yul\":1919:1920   */\n  0x00\n    /* \"#utility.yul\":1916:1917   */\n  dup1\n    /* \"#utility.yul\":1909:1921   */\n  revert\n    /* \"#utility.yul\":1861:1863   */\ntag_53:\n    /* \"#utility.yul\":1851:1929   */\n  pop\n  jump\t// out\n    /* \"#utility.yul\":1935:2057   */\ntag_32:\n    /* \"#utility.yul\":2008:2032   */\n  tag_55\n    /* \"#utility.yul\":2026:2031   */\n  dup2\n    /* \"#utility.yul\":2008:2032   */\n  tag_46\n  jump\t// in\ntag_55:\n    /* \"#utility.yul\":2001:2006   */\n  dup2\n    /* \"#utility.yul\":1998:2033   */\n  eq\n    /* \"#utility.yul\":1988:1990   */\n  tag_56\n  jumpi\n    /* \"#utility.yul\":2047:2048   */\n  0x00\n    /* \"#utility.yul\":2044:2045   */\n  dup1\n    /* \"#utility.yul\":2037:2049   */\n  revert\n    /* \"#utility.yul\":1988:1990   */\ntag_56:\n    /* \"#utility.yul\":1978:2057   */\n  pop\n  jump\t// out\n    /* \"contracts/FinaSwap.sol\":295:4349  contract FinaSwap is Pausable, AccessControl {\r... */\ntag_11:\n  shr(0x60, mload(0x80))\n  shr(0x60, mload(0xa0))\n  shl(0xf8, shr(0xf8, mload(0xc0)))\n  codecopy(0x00, dataOffset(sub_0), dataSize(sub_0))\n  0x00\n  assignImmutable(\"0x9b0d5a2681b52b4560ba0a55dc00d44d52ed130b12e9b1ecacbe9f4e75788d40\")\n  0x00\n  assignImmutable(\"0xb0c7bc42bdbc6fc210fecd6a5f5b923061cceb0f8ca5c7d964d5c22fc0e4b0b6\")\n  0x00\n  assignImmutable(\"0x8aa1c539d88d2917ab61113c1a4fcdb5d84bdff1b85c257152c86b49e7f24537\")\n  return(0x00, dataSize(sub_0))\nstop\n\nsub_0: assembly {\n        /* \"contracts/FinaSwap.sol\":295:4349  contract FinaSwap is Pausable, AccessControl {\r... */\n      mstore(0x40, 0x80)\n      callvalue\n      dup1\n      iszero\n      tag_1\n      jumpi\n      0x00\n      dup1\n      revert\n    tag_1:\n      pop\n      jumpi(tag_2, lt(calldatasize, 0x04))\n      shr(0xe0, calldataload(0x00))\n      dup1\n      0x75b238fc\n      gt\n      tag_23\n      jumpi\n      dup1\n      0xa217fddf\n      gt\n      tag_24\n      jumpi\n      dup1\n      0xa217fddf\n      eq\n      tag_18\n      jumpi\n      dup1\n      0xc6afe01e\n      eq\n      tag_19\n      jumpi\n      dup1\n      0xc71c6490\n      eq\n      tag_20\n      jumpi\n      dup1\n      0xd547741f\n      eq\n      tag_21\n      jumpi\n      dup1\n      0xe63ab1e9\n      eq\n      tag_22\n      jumpi\n      jump(tag_2)\n    tag_24:\n      dup1\n      0x75b238fc\n      eq\n      tag_13\n      jumpi\n      dup1\n      0x78415365\n      eq\n      tag_14\n      jumpi\n      dup1\n      0x8456cb59\n      eq\n      tag_15\n      jumpi\n      dup1\n      0x91d14854\n      eq\n      tag_16\n      jumpi\n      dup1\n      0xa0d5680f\n      eq\n      tag_17\n      jumpi\n      jump(tag_2)\n    tag_23:\n      dup1\n      0x36568abe\n      gt\n      tag_25\n      jumpi\n      dup1\n      0x36568abe\n      eq\n      tag_8\n      jumpi\n      dup1\n      0x3f4ba83a\n      eq\n      tag_9\n      jumpi\n      dup1\n      0x5b06a1d5\n      eq\n      tag_10\n      jumpi\n      dup1\n      0x5c975abb\n      eq\n      tag_11\n      jumpi\n      dup1\n      0x736c76ee\n      eq\n      tag_12\n      jumpi\n      jump(tag_2)\n    tag_25:\n      dup1\n      0x0112f541\n      eq\n      tag_3\n      jumpi\n      dup1\n      0x01ffc9a7\n      eq\n      tag_4\n      jumpi\n      dup1\n      0x248a9ca3\n      eq\n      tag_5\n      jumpi\n      dup1\n      0x2f2ff15d\n      eq\n      tag_6\n      jumpi\n      dup1\n      0x3636f669\n      eq\n      tag_7\n      jumpi\n    tag_2:\n      0x00\n      dup1\n      revert\n        /* \"contracts/FinaSwap.sol\":3909:4031  function addSwappedBalance(uint256 balance) public onlyRole(ADMIN_ROLE)\r... */\n    tag_3:\n      tag_26\n      0x04\n      dup1\n      calldatasize\n      sub\n      dup2\n      add\n      swap1\n      tag_27\n      swap2\n      swap1\n      tag_28\n      jump\t// in\n    tag_27:\n      tag_29\n      jump\t// in\n    tag_26:\n      stop\n        /* \"@openzeppelin/contracts/access/AccessControl.sol\":2620:2822  function supportsInterface(bytes4 interfaceId) public view virtual override returns (bool) {... */\n    tag_4:\n      tag_30\n      0x04\n      dup1\n      calldatasize\n      sub\n      dup2\n      add\n      swap1\n      tag_31\n      swap2\n      swap1\n      tag_32\n      jump\t// in\n    tag_31:\n      tag_33\n      jump\t// in\n    tag_30:\n      mload(0x40)\n      tag_34\n      swap2\n      swap1\n      tag_35\n      jump\t// in\n    tag_34:\n      mload(0x40)\n      dup1\n      swap2\n      sub\n      swap1\n      return\n        /* \"@openzeppelin/contracts/access/AccessControl.sol\":4008:4137  function getRoleAdmin(bytes32 role) public view virtual override returns (bytes32) {... */\n    tag_5:\n      tag_36\n      0x04\n      dup1\n      calldatasize\n      sub\n      dup2\n      add\n      swap1\n      tag_37\n      swap2\n      swap1\n      tag_38\n      jump\t// in\n    tag_37:\n      tag_39\n      jump\t// in\n    tag_36:\n      mload(0x40)\n      tag_40\n      swap2\n      swap1\n      tag_41\n      jump\t// in\n    tag_40:\n      mload(0x40)\n      dup1\n      swap2\n      sub\n      swap1\n      return\n        /* \"@openzeppelin/contracts/access/AccessControl.sol\":4387:4532  function grantRole(bytes32 role, address account) public virtual override onlyRole(getRoleAdmin(role)) {... */\n    tag_6:\n      tag_42\n      0x04\n      dup1\n      calldatasize\n      sub\n      dup2\n      add\n      swap1\n      tag_43\n      swap2\n      swap1\n      tag_44\n      jump\t// in\n    tag_43:\n      tag_45\n      jump\t// in\n    tag_42:\n      stop\n        /* \"contracts/FinaSwap.sol\":3414:3531  function removeBalance(bytes memory source) public onlyRole(ADMIN_ROLE)\r... */\n    tag_7:\n      tag_46\n      0x04\n      dup1\n      calldatasize\n      sub\n      dup2\n      add\n      swap1\n      tag_47\n      swap2\n      swap1\n      tag_48\n      jump\t// in\n    tag_47:\n      tag_49\n      jump\t// in\n    tag_46:\n      stop\n        /* \"@openzeppelin/contracts/access/AccessControl.sol\":5404:5618  function renounceRole(bytes32 role, address account) public virtual override {... */\n    tag_8:\n      tag_50\n      0x04\n      dup1\n      calldatasize\n      sub\n      dup2\n      add\n      swap1\n      tag_51\n      swap2\n      swap1\n      tag_44\n      jump\t// in\n    tag_51:\n      tag_52\n      jump\t// in\n    tag_50:\n      stop\n        /* \"contracts/FinaSwap.sol\":4265:4342  function unpause() public onlyRole(PAUSER_ROLE) {\r... */\n    tag_9:\n      tag_53\n      tag_54\n      jump\t// in\n    tag_53:\n      stop\n        /* \"contracts/FinaSwap.sol\":3539:3662  function setNativeValue(uint256 nativeValue) public onlyRole(ADMIN_ROLE)\r... */\n    tag_10:\n      tag_55\n      0x04\n      dup1\n      calldatasize\n      sub\n      dup2\n      add\n      swap1\n      tag_56\n      swap2\n      swap1\n      tag_28\n      jump\t// in\n    tag_56:\n      tag_57\n      jump\t// in\n    tag_55:\n      stop\n        /* \"@openzeppelin/contracts/security/Pausable.sol\":1098:1182  function paused() public view virtual returns (bool) {... */\n    tag_11:\n      tag_58\n      tag_59\n      jump\t// in\n    tag_58:\n      mload(0x40)\n      tag_60\n      swap2\n      swap1\n      tag_35\n      jump\t// in\n    tag_60:\n      mload(0x40)\n      dup1\n      swap2\n      sub\n      swap1\n      return\n        /* \"contracts/FinaSwap.sol\":1069:3261  function claim(address target, bytes32 hash, bytes memory signature) public whenNotPaused\r... */\n    tag_12:\n      tag_61\n      0x04\n      dup1\n      calldatasize\n      sub\n      dup2\n      add\n      swap1\n      tag_62\n      swap2\n      swap1\n      tag_63\n      jump\t// in\n    tag_62:\n      tag_64\n      jump\t// in\n    tag_61:\n      stop\n        /* \"contracts/FinaSwap.sol\":347:407  bytes32 public constant ADMIN_ROLE = keccak256(\"ADMIN_ROLE\") */\n    tag_13:\n      tag_65\n      tag_66\n      jump\t// in\n    tag_65:\n      mload(0x40)\n      tag_67\n      swap2\n      swap1\n      tag_41\n      jump\t// in\n    tag_67:\n      mload(0x40)\n      dup1\n      swap2\n      sub\n      swap1\n      return\n        /* \"contracts/FinaSwap.sol\":3670:3788  function balanceOf(bytes memory source) public view returns (uint256)\r... */\n    tag_14:\n      tag_68\n      0x04\n      dup1\n      calldatasize\n      sub\n      dup2\n      add\n      swap1\n      tag_69\n      swap2\n      swap1\n      tag_48\n      jump\t// in\n    tag_69:\n      tag_70\n      jump\t// in\n    tag_68:\n      mload(0x40)\n      tag_71\n      swap2\n      swap1\n      tag_72\n      jump\t// in\n    tag_71:\n      mload(0x40)\n      dup1\n      swap2\n      sub\n      swap1\n      return\n        /* \"contracts/FinaSwap.sol\":4184:4257  function pause() public onlyRole(PAUSER_ROLE) {\r... */\n    tag_15:\n      tag_73\n      tag_74\n      jump\t// in\n    tag_73:\n      stop\n        /* \"@openzeppelin/contracts/access/AccessControl.sol\":2909:3054  function hasRole(bytes32 role, address account) public view virtual override returns (bool) {... */\n    tag_16:\n      tag_75\n      0x04\n      dup1\n      calldatasize\n      sub\n      dup2\n      add\n      swap1\n      tag_76\n      swap2\n      swap1\n      tag_44\n      jump\t// in\n    tag_76:\n      tag_77\n      jump\t// in\n    tag_75:\n      mload(0x40)\n      tag_78\n      swap2\n      swap1\n      tag_35\n      jump\t// in\n    tag_78:\n      mload(0x40)\n      dup1\n      swap2\n      sub\n      swap1\n      return\n        /* \"contracts/FinaSwap.sol\":3796:3901  function getSwappedBalance() public view returns (uint256)\r... */\n    tag_17:\n      tag_79\n      tag_80\n      jump\t// in\n    tag_79:\n      mload(0x40)\n      tag_81\n      swap2\n      swap1\n      tag_72\n      jump\t// in\n    tag_81:\n      mload(0x40)\n      dup1\n      swap2\n      sub\n      swap1\n      return\n        /* \"@openzeppelin/contracts/access/AccessControl.sol\":2027:2076  bytes32 public constant DEFAULT_ADMIN_ROLE = 0x00 */\n    tag_18:\n      tag_82\n      tag_83\n      jump\t// in\n    tag_82:\n      mload(0x40)\n      tag_84\n      swap2\n      swap1\n      tag_41\n      jump\t// in\n    tag_84:\n      mload(0x40)\n      dup1\n      swap2\n      sub\n      swap1\n      return\n        /* \"contracts/FinaSwap.sol\":4043:4168  function removeSwappedBalance(uint256 balance) public onlyRole(ADMIN_ROLE)\r... */\n    tag_19:\n      tag_85\n      0x04\n      dup1\n      calldatasize\n      sub\n      dup2\n      add\n      swap1\n      tag_86\n      swap2\n      swap1\n      tag_28\n      jump\t// in\n    tag_86:\n      tag_87\n      jump\t// in\n    tag_85:\n      stop\n        /* \"contracts/FinaSwap.sol\":3269:3406  function addBalance(bytes memory source, uint256 balance) public onlyRole(ADMIN_ROLE)\r... */\n    tag_20:\n      tag_88\n      0x04\n      dup1\n      calldatasize\n      sub\n      dup2\n      add\n      swap1\n      tag_89\n      swap2\n      swap1\n      tag_90\n      jump\t// in\n    tag_89:\n      tag_91\n      jump\t// in\n    tag_88:\n      stop\n        /* \"@openzeppelin/contracts/access/AccessControl.sol\":4766:4913  function revokeRole(bytes32 role, address account) public virtual override onlyRole(getRoleAdmin(role)) {... */\n    tag_21:\n      tag_92\n      0x04\n      dup1\n      calldatasize\n      sub\n      dup2\n      add\n      swap1\n      tag_93\n      swap2\n      swap1\n      tag_44\n      jump\t// in\n    tag_93:\n      tag_94\n      jump\t// in\n    tag_92:\n      stop\n        /* \"contracts/FinaSwap.sol\":414:476  bytes32 public constant PAUSER_ROLE = keccak256(\"PAUSER_ROLE\") */\n    tag_22:\n      tag_95\n      tag_96\n      jump\t// in\n    tag_95:\n      mload(0x40)\n      tag_97\n      swap2\n      swap1\n      tag_41\n      jump\t// in\n    tag_97:\n      mload(0x40)\n      dup1\n      swap2\n      sub\n      swap1\n      return\n        /* \"contracts/FinaSwap.sol\":3909:4031  function addSwappedBalance(uint256 balance) public onlyRole(ADMIN_ROLE)\r... */\n    tag_29:\n        /* \"contracts/FinaSwap.sol\":384:407  keccak256(\"ADMIN_ROLE\") */\n      0xa49807205ce4d355092ef5a8a18f56e8913cf4a201fbe287825b095693c21775\n        /* \"@openzeppelin/contracts/access/AccessControl.sol\":2505:2535  _checkRole(role, _msgSender()) */\n      tag_99\n        /* \"@openzeppelin/contracts/access/AccessControl.sol\":2516:2520  role */\n      dup2\n        /* \"@openzeppelin/contracts/access/AccessControl.sol\":2522:2534  _msgSender() */\n      tag_100\n        /* \"@openzeppelin/contracts/access/AccessControl.sol\":2522:2532  _msgSender */\n      tag_101\n        /* \"@openzeppelin/contracts/access/AccessControl.sol\":2522:2534  _msgSender() */\n      jump\t// in\n    tag_100:\n        /* \"@openzeppelin/contracts/access/AccessControl.sol\":2505:2515  _checkRole */\n      tag_102\n        /* \"@openzeppelin/contracts/access/AccessControl.sol\":2505:2535  _checkRole(role, _msgSender()) */\n      jump\t// in\n    tag_99:\n        /* \"contracts/FinaSwap.sol\":4016:4023  balance */\n      dup2\n        /* \"contracts/FinaSwap.sol\":3997:4012  _swappedBalance */\n      0x04\n      0x00\n        /* \"contracts/FinaSwap.sol\":3997:4023  _swappedBalance += balance */\n      dup3\n      dup3\n      sload\n      tag_104\n      swap2\n      swap1\n      tag_105\n      jump\t// in\n    tag_104:\n      swap3\n      pop\n      pop\n      dup2\n      swap1\n      sstore\n      pop\n        /* \"contracts/FinaSwap.sol\":3909:4031  function addSwappedBalance(uint256 balance) public onlyRole(ADMIN_ROLE)\r... */\n      pop\n      pop\n      jump\t// out\n        /* \"@openzeppelin/contracts/access/AccessControl.sol\":2620:2822  function supportsInterface(bytes4 interfaceId) public view virtual override returns (bool) {... */\n    tag_33:\n        /* \"@openzeppelin/contracts/access/AccessControl.sol\":2705:2709  bool */\n      0x00\n        /* \"@openzeppelin/contracts/access/AccessControl.sol\":2743:2775  type(IAccessControl).interfaceId */\n      0x7965db0b00000000000000000000000000000000000000000000000000000000\n        /* \"@openzeppelin/contracts/access/AccessControl.sol\":2728:2775  interfaceId == type(IAccessControl).interfaceId */\n      not(0xffffffffffffffffffffffffffffffffffffffffffffffffffffffff)\n      and\n        /* \"@openzeppelin/contracts/access/AccessControl.sol\":2728:2739  interfaceId */\n      dup3\n        /* \"@openzeppelin/contracts/access/AccessControl.sol\":2728:2775  interfaceId == type(IAccessControl).interfaceId */\n      not(0xffffffffffffffffffffffffffffffffffffffffffffffffffffffff)\n      and\n      eq\n        /* \"@openzeppelin/contracts/access/AccessControl.sol\":2728:2815  interfaceId == type(IAccessControl).interfaceId || super.supportsInterface(interfaceId) */\n      dup1\n      tag_107\n      jumpi\n      pop\n        /* \"@openzeppelin/contracts/access/AccessControl.sol\":2779:2815  super.supportsInterface(interfaceId) */\n      tag_108\n        /* \"@openzeppelin/contracts/access/AccessControl.sol\":2803:2814  interfaceId */\n      dup3\n        /* \"@openzeppelin/contracts/access/AccessControl.sol\":2779:2802  super.supportsInterface */\n      tag_109\n        /* \"@openzeppelin/contracts/access/AccessControl.sol\":2779:2815  super.supportsInterface(interfaceId) */\n      jump\t// in\n    tag_108:\n        /* \"@openzeppelin/contracts/access/AccessControl.sol\":2728:2815  interfaceId == type(IAccessControl).interfaceId || super.supportsInterface(interfaceId) */\n    tag_107:\n        /* \"@openzeppelin/contracts/access/AccessControl.sol\":2721:2815  return interfaceId == type(IAccessControl).interfaceId || super.supportsInterface(interfaceId) */\n      swap1\n      pop\n        /* \"@openzeppelin/contracts/access/AccessControl.sol\":2620:2822  function supportsInterface(bytes4 interfaceId) public view virtual override returns (bool) {... */\n      swap2\n      swap1\n      pop\n      jump\t// out\n        /* \"@openzeppelin/contracts/access/AccessControl.sol\":4008:4137  function getRoleAdmin(bytes32 role) public view virtual override returns (bytes32) {... */\n    tag_39:\n        /* \"@openzeppelin/contracts/access/AccessControl.sol\":4082:4089  bytes32 */\n      0x00\n        /* \"@openzeppelin/contracts/access/AccessControl.sol\":4108:4114  _roles */\n      0x01\n        /* \"@openzeppelin/contracts/access/AccessControl.sol\":4108:4120  _roles[role] */\n      0x00\n        /* \"@openzeppelin/contracts/access/AccessControl.sol\":4115:4119  role */\n      dup4\n        /* \"@openzeppelin/contracts/access/AccessControl.sol\":4108:4120  _roles[role] */\n      dup2\n      mstore\n      0x20\n      add\n      swap1\n      dup2\n      mstore\n      0x20\n      add\n      0x00\n      keccak256\n        /* \"@openzeppelin/contracts/access/AccessControl.sol\":4108:4130  _roles[role].adminRole */\n      0x01\n      add\n      sload\n        /* \"@openzeppelin/contracts/access/AccessControl.sol\":4101:4130  return _roles[role].adminRole */\n      swap1\n      pop\n        /* \"@openzeppelin/contracts/access/AccessControl.sol\":4008:4137  function getRoleAdmin(bytes32 role) public view virtual override returns (bytes32) {... */\n      swap2\n      swap1\n      pop\n      jump\t// out\n        /* \"@openzeppelin/contracts/access/AccessControl.sol\":4387:4532  function grantRole(bytes32 role, address account) public virtual override onlyRole(getRoleAdmin(role)) {... */\n    tag_45:\n        /* \"@openzeppelin/contracts/access/AccessControl.sol\":4470:4488  getRoleAdmin(role) */\n      tag_111\n        /* \"@openzeppelin/contracts/access/AccessControl.sol\":4483:4487  role */\n      dup3\n        /* \"@openzeppelin/contracts/access/AccessControl.sol\":4470:4482  getRoleAdmin */\n      tag_39\n        /* \"@openzeppelin/contracts/access/AccessControl.sol\":4470:4488  getRoleAdmin(role) */\n      jump\t// in\n    tag_111:\n        /* \"@openzeppelin/contracts/access/AccessControl.sol\":2505:2535  _checkRole(role, _msgSender()) */\n      tag_113\n        /* \"@openzeppelin/contracts/access/AccessControl.sol\":2516:2520  role */\n      dup2\n        /* \"@openzeppelin/contracts/access/AccessControl.sol\":2522:2534  _msgSender() */\n      tag_114\n        /* \"@openzeppelin/contracts/access/AccessControl.sol\":2522:2532  _msgSender */\n      tag_101\n        /* \"@openzeppelin/contracts/access/AccessControl.sol\":2522:2534  _msgSender() */\n      jump\t// in\n    tag_114:\n        /* \"@openzeppelin/contracts/access/AccessControl.sol\":2505:2515  _checkRole */\n      tag_102\n        /* \"@openzeppelin/contracts/access/AccessControl.sol\":2505:2535  _checkRole(role, _msgSender()) */\n      jump\t// in\n    tag_113:\n        /* \"@openzeppelin/contracts/access/AccessControl.sol\":4500:4525  _grantRole(role, account) */\n      tag_116\n        /* \"@openzeppelin/contracts/access/AccessControl.sol\":4511:4515  role */\n      dup4\n        /* \"@openzeppelin/contracts/access/AccessControl.sol\":4517:4524  account */\n      dup4\n        /* \"@openzeppelin/contracts/access/AccessControl.sol\":4500:4510  _grantRole */\n      tag_117\n        /* \"@openzeppelin/contracts/access/AccessControl.sol\":4500:4525  _grantRole(role, account) */\n      jump\t// in\n    tag_116:\n        /* \"@openzeppelin/contracts/access/AccessControl.sol\":4387:4532  function grantRole(bytes32 role, address account) public virtual override onlyRole(getRoleAdmin(role)) {... */\n      pop\n      pop\n      pop\n      jump\t// out\n        /* \"contracts/FinaSwap.sol\":3414:3531  function removeBalance(bytes memory source) public onlyRole(ADMIN_ROLE)\r... */\n    tag_49:\n        /* \"contracts/FinaSwap.sol\":384:407  keccak256(\"ADMIN_ROLE\") */\n      0xa49807205ce4d355092ef5a8a18f56e8913cf4a201fbe287825b095693c21775\n        /* \"@openzeppelin/contracts/access/AccessControl.sol\":2505:2535  _checkRole(role, _msgSender()) */\n      tag_119\n        /* \"@openzeppelin/contracts/access/AccessControl.sol\":2516:2520  role */\n      dup2\n        /* \"@openzeppelin/contracts/access/AccessControl.sol\":2522:2534  _msgSender() */\n      tag_120\n        /* \"@openzeppelin/contracts/access/AccessControl.sol\":2522:2532  _msgSender */\n      tag_101\n        /* \"@openzeppelin/contracts/access/AccessControl.sol\":2522:2534  _msgSender() */\n      jump\t// in\n    tag_120:\n        /* \"@openzeppelin/contracts/access/AccessControl.sol\":2505:2515  _checkRole */\n      tag_102\n        /* \"@openzeppelin/contracts/access/AccessControl.sol\":2505:2535  _checkRole(role, _msgSender()) */\n      jump\t// in\n    tag_119:\n        /* \"contracts/FinaSwap.sol\":3522:3523  0 */\n      0x00\n        /* \"contracts/FinaSwap.sol\":3502:3511  _balances */\n      0x03\n        /* \"contracts/FinaSwap.sol\":3512:3518  source */\n      dup4\n        /* \"contracts/FinaSwap.sol\":3502:3519  _balances[source] */\n      mload(0x40)\n      tag_122\n      swap2\n      swap1\n      tag_123\n      jump\t// in\n    tag_122:\n      swap1\n      dup2\n      mstore\n      0x20\n      add\n      mload(0x40)\n      dup1\n      swap2\n      sub\n      swap1\n      keccak256\n        /* \"contracts/FinaSwap.sol\":3502:3523  _balances[source] = 0 */\n      dup2\n      swap1\n      sstore\n      pop\n        /* \"contracts/FinaSwap.sol\":3414:3531  function removeBalance(bytes memory source) public onlyRole(ADMIN_ROLE)\r... */\n      pop\n      pop\n      jump\t// out\n        /* \"@openzeppelin/contracts/access/AccessControl.sol\":5404:5618  function renounceRole(bytes32 role, address account) public virtual override {... */\n    tag_52:\n        /* \"@openzeppelin/contracts/access/AccessControl.sol\":5510:5522  _msgSender() */\n      tag_125\n        /* \"@openzeppelin/contracts/access/AccessControl.sol\":5510:5520  _msgSender */\n      tag_101\n        /* \"@openzeppelin/contracts/access/AccessControl.sol\":5510:5522  _msgSender() */\n      jump\t// in\n    tag_125:\n        /* \"@openzeppelin/contracts/access/AccessControl.sol\":5499:5522  account == _msgSender() */\n      0xffffffffffffffffffffffffffffffffffffffff\n      and\n        /* \"@openzeppelin/contracts/access/AccessControl.sol\":5499:5506  account */\n      dup2\n        /* \"@openzeppelin/contracts/access/AccessControl.sol\":5499:5522  account == _msgSender() */\n      0xffffffffffffffffffffffffffffffffffffffff\n      and\n      eq\n        /* \"@openzeppelin/contracts/access/AccessControl.sol\":5491:5574  require(account == _msgSender(), \"AccessControl: can only renounce roles for self\") */\n      tag_126\n      jumpi\n      mload(0x40)\n      0x08c379a000000000000000000000000000000000000000000000000000000000\n      dup2\n      mstore\n      0x04\n      add\n      tag_127\n      swap1\n      tag_128\n      jump\t// in\n    tag_127:\n      mload(0x40)\n      dup1\n      swap2\n      sub\n      swap1\n      revert\n    tag_126:\n        /* \"@openzeppelin/contracts/access/AccessControl.sol\":5585:5611  _revokeRole(role, account) */\n      tag_129\n        /* \"@openzeppelin/contracts/access/AccessControl.sol\":5597:5601  role */\n      dup3\n        /* \"@openzeppelin/contracts/access/AccessControl.sol\":5603:5610  account */\n      dup3\n        /* \"@openzeppelin/contracts/access/AccessControl.sol\":5585:5596  _revokeRole */\n      tag_130\n        /* \"@openzeppelin/contracts/access/AccessControl.sol\":5585:5611  _revokeRole(role, account) */\n      jump\t// in\n    tag_129:\n        /* \"@openzeppelin/contracts/access/AccessControl.sol\":5404:5618  function renounceRole(bytes32 role, address account) public virtual override {... */\n      pop\n      pop\n      jump\t// out\n        /* \"contracts/FinaSwap.sol\":4265:4342  function unpause() public onlyRole(PAUSER_ROLE) {\r... */\n    tag_54:\n        /* \"contracts/FinaSwap.sol\":452:476  keccak256(\"PAUSER_ROLE\") */\n      0x65d7a28e3265b37a6474929f336521b332c1681b933f6cb9f3376673440d862a\n        /* \"@openzeppelin/contracts/access/AccessControl.sol\":2505:2535  _checkRole(role, _msgSender()) */\n      tag_132\n        /* \"@openzeppelin/contracts/access/AccessControl.sol\":2516:2520  role */\n      dup2\n        /* \"@openzeppelin/contracts/access/AccessControl.sol\":2522:2534  _msgSender() */\n      tag_133\n        /* \"@openzeppelin/contracts/access/AccessControl.sol\":2522:2532  _msgSender */\n      tag_101\n        /* \"@openzeppelin/contracts/access/AccessControl.sol\":2522:2534  _msgSender() */\n      jump\t// in\n    tag_133:\n        /* \"@openzeppelin/contracts/access/AccessControl.sol\":2505:2515  _checkRole */\n      tag_102\n        /* \"@openzeppelin/contracts/access/AccessControl.sol\":2505:2535  _checkRole(role, _msgSender()) */\n      jump\t// in\n    tag_132:\n        /* \"contracts/FinaSwap.sol\":4324:4334  _unpause() */\n      tag_135\n        /* \"contracts/FinaSwap.sol\":4324:4332  _unpause */\n      tag_136\n        /* \"contracts/FinaSwap.sol\":4324:4334  _unpause() */\n      jump\t// in\n    tag_135:\n        /* \"contracts/FinaSwap.sol\":4265:4342  function unpause() public onlyRole(PAUSER_ROLE) {\r... */\n      pop\n      jump\t// out\n        /* \"contracts/FinaSwap.sol\":3539:3662  function setNativeValue(uint256 nativeValue) public onlyRole(ADMIN_ROLE)\r... */\n    tag_57:\n        /* \"contracts/FinaSwap.sol\":384:407  keccak256(\"ADMIN_ROLE\") */\n      0xa49807205ce4d355092ef5a8a18f56e8913cf4a201fbe287825b095693c21775\n        /* \"@openzeppelin/contracts/access/AccessControl.sol\":2505:2535  _checkRole(role, _msgSender()) */\n      tag_138\n        /* \"@openzeppelin/contracts/access/AccessControl.sol\":2516:2520  role */\n      dup2\n        /* \"@openzeppelin/contracts/access/AccessControl.sol\":2522:2534  _msgSender() */\n      tag_139\n        /* \"@openzeppelin/contracts/access/AccessControl.sol\":2522:2532  _msgSender */\n      tag_101\n        /* \"@openzeppelin/contracts/access/AccessControl.sol\":2522:2534  _msgSender() */\n      jump\t// in\n    tag_139:\n        /* \"@openzeppelin/contracts/access/AccessControl.sol\":2505:2515  _checkRole */\n      tag_102\n        /* \"@openzeppelin/contracts/access/AccessControl.sol\":2505:2535  _checkRole(role, _msgSender()) */\n      jump\t// in\n    tag_138:\n        /* \"contracts/FinaSwap.sol\":3643:3654  nativeValue */\n      dup2\n        /* \"contracts/FinaSwap.sol\":3628:3640  _nativeValue */\n      0x02\n        /* \"contracts/FinaSwap.sol\":3628:3654  _nativeValue = nativeValue */\n      dup2\n      swap1\n      sstore\n      pop\n        /* \"contracts/FinaSwap.sol\":3539:3662  function setNativeValue(uint256 nativeValue) public onlyRole(ADMIN_ROLE)\r... */\n      pop\n      pop\n      jump\t// out\n        /* \"@openzeppelin/contracts/security/Pausable.sol\":1098:1182  function paused() public view virtual returns (bool) {... */\n    tag_59:\n        /* \"@openzeppelin/contracts/security/Pausable.sol\":1145:1149  bool */\n      0x00\n        /* \"@openzeppelin/contracts/security/Pausable.sol\":1168:1175  _paused */\n      dup1\n      0x00\n      swap1\n      sload\n      swap1\n      0x0100\n      exp\n      swap1\n      div\n      0xff\n      and\n        /* \"@openzeppelin/contracts/security/Pausable.sol\":1161:1175  return _paused */\n      swap1\n      pop\n        /* \"@openzeppelin/contracts/security/Pausable.sol\":1098:1182  function paused() public view virtual returns (bool) {... */\n      swap1\n      jump\t// out\n        /* \"contracts/FinaSwap.sol\":1069:3261  function claim(address target, bytes32 hash, bytes memory signature) public whenNotPaused\r... */\n    tag_64:\n        /* \"@openzeppelin/contracts/security/Pausable.sol\":1412:1420  paused() */\n      tag_143\n        /* \"@openzeppelin/contracts/security/Pausable.sol\":1412:1418  paused */\n      tag_59\n        /* \"@openzeppelin/contracts/security/Pausable.sol\":1412:1420  paused() */\n      jump\t// in\n    tag_143:\n        /* \"@openzeppelin/contracts/security/Pausable.sol\":1411:1420  !paused() */\n      iszero\n        /* \"@openzeppelin/contracts/security/Pausable.sol\":1403:1441  require(!paused(), \"Pausable: paused\") */\n      tag_144\n      jumpi\n      mload(0x40)\n      0x08c379a000000000000000000000000000000000000000000000000000000000\n      dup2\n      mstore\n      0x04\n      add\n      tag_145\n      swap1\n      tag_146\n      jump\t// in\n    tag_145:\n      mload(0x40)\n      dup1\n      swap2\n      sub\n      swap1\n      revert\n    tag_144:\n        /* \"contracts/FinaSwap.sol\":1201:1202  0 */\n      0x00\n        /* \"contracts/FinaSwap.sol\":1183:1203  target != address(0) */\n      0xffffffffffffffffffffffffffffffffffffffff\n      and\n        /* \"contracts/FinaSwap.sol\":1183:1189  target */\n      dup4\n        /* \"contracts/FinaSwap.sol\":1183:1203  target != address(0) */\n      0xffffffffffffffffffffffffffffffffffffffff\n      and\n      eq\n      iszero\n        /* \"contracts/FinaSwap.sol\":1175:1252  require(target != address(0), \"FinaSwap:claim Target address cannot be zero\") */\n      tag_148\n      jumpi\n      mload(0x40)\n      0x08c379a000000000000000000000000000000000000000000000000000000000\n      dup2\n      mstore\n      0x04\n      add\n      tag_149\n      swap1\n      tag_150\n      jump\t// in\n    tag_149:\n      mload(0x40)\n      dup1\n      swap2\n      sub\n      swap1\n      revert\n    tag_148:\n        /* \"contracts/FinaSwap.sol\":1282:1283  0 */\n      0x00\n        /* \"contracts/FinaSwap.sol\":1271:1283  hash[0] != 0 */\n      0xf8\n      shl\n        /* \"contracts/FinaSwap.sol\":1271:1275  hash */\n      dup3\n        /* \"contracts/FinaSwap.sol\":1276:1277  0 */\n      0x00\n        /* \"contracts/FinaSwap.sol\":1271:1278  hash[0] */\n      0x20\n      dup2\n      lt\n      tag_151\n      jumpi\n      mstore(0x00, 0x4e487b7100000000000000000000000000000000000000000000000000000000)\n      mstore(0x04, 0x32)\n      revert(0x00, 0x24)\n    tag_151:\n      byte\n      0xf8\n      shl\n        /* \"contracts/FinaSwap.sol\":1271:1283  hash[0] != 0 */\n      not(0xffffffffffffffffffffffffffffffffffffffffffffffffffffffffffffff)\n      and\n      eq\n      iszero\n        /* \"contracts/FinaSwap.sol\":1263:1329  require(hash[0] != 0, \"FinaSwap:claim Signature hash is required\") */\n      tag_152\n      jumpi\n      mload(0x40)\n      0x08c379a000000000000000000000000000000000000000000000000000000000\n      dup2\n      mstore\n      0x04\n      add\n      tag_153\n      swap1\n      tag_154\n      jump\t// in\n    tag_153:\n      mload(0x40)\n      dup1\n      swap2\n      sub\n      swap1\n      revert\n    tag_152:\n        /* \"contracts/FinaSwap.sol\":1368:1370  65 */\n      0x41\n        /* \"contracts/FinaSwap.sol\":1348:1357  signature */\n      dup2\n        /* \"contracts/FinaSwap.sol\":1348:1364  signature.length */\n      mload\n        /* \"contracts/FinaSwap.sol\":1348:1370  signature.length == 65 */\n      eq\n        /* \"contracts/FinaSwap.sol\":1340:1454  require(signature.length == 65, \"FinaSwap:claim Invalid signature length. The signature must be exactly 65 bytes\") */\n      tag_155\n      jumpi\n      mload(0x40)\n      0x08c379a000000000000000000000000000000000000000000000000000000000\n      dup2\n      mstore\n      0x04\n      add\n      tag_156\n      swap1\n      tag_157\n      jump\t// in\n    tag_156:\n      mload(0x40)\n      dup1\n      swap2\n      sub\n      swap1\n      revert\n    tag_155:\n        /* \"contracts/FinaSwap.sol\":1520:1542  bytes memory publicKey */\n      0x00\n        /* \"contracts/FinaSwap.sol\":1545:1551  _ecdsa */\n      immutable(\"0x8aa1c539d88d2917ab61113c1a4fcdb5d84bdff1b85c257152c86b49e7f24537\")\n        /* \"contracts/FinaSwap.sol\":1545:1559  _ecdsa.recover */\n      0xffffffffffffffffffffffffffffffffffffffff\n      and\n      0x19045a25\n        /* \"contracts/FinaSwap.sol\":1560:1564  hash */\n      dup5\n        /* \"contracts/FinaSwap.sol\":1566:1575  signature */\n      dup5\n        /* \"contracts/FinaSwap.sol\":1545:1576  _ecdsa.recover(hash, signature) */\n      mload(0x40)\n      dup4\n      0xffffffff\n      and\n      0xe0\n      shl\n      dup2\n      mstore\n      0x04\n      add\n      tag_158\n      swap3\n      swap2\n      swap1\n      tag_159\n      jump\t// in\n    tag_158:\n      0x00\n      mload(0x40)\n      dup1\n      dup4\n      sub\n      dup2\n      dup7\n      dup1\n      extcodesize\n      iszero\n      dup1\n      iszero\n      tag_160\n      jumpi\n      0x00\n      dup1\n      revert\n    tag_160:\n      pop\n      gas\n      staticcall\n      iszero\n      dup1\n      iszero\n      tag_162\n      jumpi\n      returndatasize\n      0x00\n      dup1\n      returndatacopy\n      revert(0x00, returndatasize)\n    tag_162:\n      pop\n      pop\n      pop\n      pop\n      mload(0x40)\n      returndatasize\n      0x00\n      dup3\n      returndatacopy\n      returndatasize\n      not(0x1f)\n      0x1f\n      dup3\n      add\n      and\n      dup3\n      add\n      dup1\n      0x40\n      mstore\n      pop\n      dup2\n      add\n      swap1\n      tag_163\n      swap2\n      swap1\n      tag_164\n      jump\t// in\n    tag_163:\n        /* \"contracts/FinaSwap.sol\":1520:1576  bytes memory publicKey = _ecdsa.recover(hash, signature) */\n      swap1\n      pop\n        /* \"contracts/FinaSwap.sol\":1687:1689  33 */\n      0x21\n        /* \"contracts/FinaSwap.sol\":1667:1676  publicKey */\n      dup2\n        /* \"contracts/FinaSwap.sol\":1667:1683  publicKey.length */\n      mload\n        /* \"contracts/FinaSwap.sol\":1667:1689  publicKey.length == 33 */\n      eq\n        /* \"contracts/FinaSwap.sol\":1659:1777  require(publicKey.length == 33, \"FinaSwap:claim Invalid signature. The recovered public key must be exactly 33 bytes\") */\n      tag_165\n      jumpi\n      mload(0x40)\n      0x08c379a000000000000000000000000000000000000000000000000000000000\n      dup2\n      mstore\n      0x04\n      add\n      tag_166\n      swap1\n      tag_167\n      jump\t// in\n    tag_166:\n      mload(0x40)\n      dup1\n      swap2\n      sub\n      swap1\n      revert\n    tag_165:\n        /* \"contracts/FinaSwap.sol\":1851:1878  bytes32 publicKeySha256Hash */\n      0x00\n        /* \"contracts/FinaSwap.sol\":1881:1898  sha256(publicKey) */\n      0x02\n        /* \"contracts/FinaSwap.sol\":1888:1897  publicKey */\n      dup3\n        /* \"contracts/FinaSwap.sol\":1881:1898  sha256(publicKey) */\n      mload(0x40)\n      tag_168\n      swap2\n      swap1\n      tag_123\n      jump\t// in\n    tag_168:\n      0x20\n      mload(0x40)\n      dup1\n      dup4\n      sub\n      dup2\n      dup6\n      gas\n      staticcall\n      iszero\n      dup1\n      iszero\n      tag_170\n      jumpi\n      returndatasize\n      0x00\n      dup1\n      returndatacopy\n      revert(0x00, returndatasize)\n    tag_170:\n      pop\n      pop\n      pop\n      mload(0x40)\n      returndatasize\n      not(0x1f)\n      0x1f\n      dup3\n      add\n      and\n      dup3\n      add\n      dup1\n      0x40\n      mstore\n      pop\n      dup2\n      add\n      swap1\n      tag_171\n      swap2\n      swap1\n      tag_172\n      jump\t// in\n    tag_171:\n        /* \"contracts/FinaSwap.sol\":1851:1898  bytes32 publicKeySha256Hash = sha256(publicKey) */\n      swap1\n      pop\n        /* \"contracts/FinaSwap.sol\":1995:2028  bytes memory publicKeyRipe160Hash */\n      0x00\n        /* \"contracts/FinaSwap.sol\":2048:2096  ripemd160(abi.encodePacked(publicKeySha256Hash)) */\n      0x03\n        /* \"contracts/FinaSwap.sol\":2075:2094  publicKeySha256Hash */\n      dup3\n        /* \"contracts/FinaSwap.sol\":2058:2095  abi.encodePacked(publicKeySha256Hash) */\n      add(0x20, mload(0x40))\n      tag_173\n      swap2\n      swap1\n      tag_174\n      jump\t// in\n    tag_173:\n      mload(0x40)\n      0x20\n      dup2\n      dup4\n      sub\n      sub\n      dup2\n      mstore\n      swap1\n      0x40\n      mstore\n        /* \"contracts/FinaSwap.sol\":2048:2096  ripemd160(abi.encodePacked(publicKeySha256Hash)) */\n      mload(0x40)\n      tag_175\n      swap2\n      swap1\n      tag_123\n      jump\t// in\n    tag_175:\n      0x20\n      mload(0x40)\n      dup1\n      dup4\n      sub\n      dup2\n      dup6\n      gas\n      staticcall\n      iszero\n      dup1\n      iszero\n      tag_177\n      jumpi\n      returndatasize\n      0x00\n      dup1\n      returndatacopy\n      revert(0x00, returndatasize)\n    tag_177:\n      pop\n      pop\n      pop\n      shl(0x60, mload(mload(0x40)))\n        /* \"contracts/FinaSwap.sol\":2031:2097  abi.encodePacked(ripemd160(abi.encodePacked(publicKeySha256Hash))) */\n      add(0x20, mload(0x40))\n      tag_178\n      swap2\n      swap1\n      tag_179\n      jump\t// in\n    tag_178:\n      mload(0x40)\n      0x20\n      dup2\n      dup4\n      sub\n      sub\n      dup2\n      mstore\n      swap1\n      0x40\n      mstore\n        /* \"contracts/FinaSwap.sol\":1995:2097  bytes memory publicKeyRipe160Hash = abi.encodePacked(ripemd160(abi.encodePacked(publicKeySha256Hash))) */\n      swap1\n      pop\n        /* \"contracts/FinaSwap.sol\":2165:2199  bytes memory publicKeyPrefixedHash */\n      0x00\n        /* \"contracts/FinaSwap.sol\":2215:2222  _prefix */\n      immutable(\"0x9b0d5a2681b52b4560ba0a55dc00d44d52ed130b12e9b1ecacbe9f4e75788d40\")\n        /* \"contracts/FinaSwap.sol\":2224:2244  publicKeyRipe160Hash */\n      dup3\n        /* \"contracts/FinaSwap.sol\":2202:2245  bytes.concat(_prefix, publicKeyRipe160Hash) */\n      add(0x20, mload(0x40))\n      tag_180\n      swap3\n      swap2\n      swap1\n      tag_181\n      jump\t// in\n    tag_180:\n      mload(0x40)\n      0x20\n      dup2\n      dup4\n      sub\n      sub\n      dup2\n      mstore\n      swap1\n      0x40\n      mstore\n        /* \"contracts/FinaSwap.sol\":2165:2245  bytes memory publicKeyPrefixedHash = bytes.concat(_prefix, publicKeyRipe160Hash) */\n      swap1\n      pop\n        /* \"contracts/FinaSwap.sol\":2339:2377  bytes memory publicKeyDoubleSha256Hash */\n      0x00\n        /* \"contracts/FinaSwap.sol\":2397:2452  sha256(abi.encodePacked(sha256(publicKeyPrefixedHash))) */\n      0x02\n        /* \"contracts/FinaSwap.sol\":2421:2450  sha256(publicKeyPrefixedHash) */\n      dup1\n        /* \"contracts/FinaSwap.sol\":2428:2449  publicKeyPrefixedHash */\n      dup4\n        /* \"contracts/FinaSwap.sol\":2421:2450  sha256(publicKeyPrefixedHash) */\n      mload(0x40)\n      tag_182\n      swap2\n      swap1\n      tag_123\n      jump\t// in\n    tag_182:\n      0x20\n      mload(0x40)\n      dup1\n      dup4\n      sub\n      dup2\n      dup6\n      gas\n      staticcall\n      iszero\n      dup1\n      iszero\n      tag_184\n      jumpi\n      returndatasize\n      0x00\n      dup1\n      returndatacopy\n      revert(0x00, returndatasize)\n    tag_184:\n      pop\n      pop\n      pop\n      mload(0x40)\n      returndatasize\n      not(0x1f)\n      0x1f\n      dup3\n      add\n      and\n      dup3\n      add\n      dup1\n      0x40\n      mstore\n      pop\n      dup2\n      add\n      swap1\n      tag_185\n      swap2\n      swap1\n      tag_172\n      jump\t// in\n    tag_185:\n        /* \"contracts/FinaSwap.sol\":2404:2451  abi.encodePacked(sha256(publicKeyPrefixedHash)) */\n      add(0x20, mload(0x40))\n      tag_186\n      swap2\n      swap1\n      tag_174\n      jump\t// in\n    tag_186:\n      mload(0x40)\n      0x20\n      dup2\n      dup4\n      sub\n      sub\n      dup2\n      mstore\n      swap1\n      0x40\n      mstore\n        /* \"contracts/FinaSwap.sol\":2397:2452  sha256(abi.encodePacked(sha256(publicKeyPrefixedHash))) */\n      mload(0x40)\n      tag_187\n      swap2\n      swap1\n      tag_123\n      jump\t// in\n    tag_187:\n      0x20\n      mload(0x40)\n      dup1\n      dup4\n      sub\n      dup2\n      dup6\n      gas\n      staticcall\n      iszero\n      dup1\n      iszero\n      tag_189\n      jumpi\n      returndatasize\n      0x00\n      dup1\n      returndatacopy\n      revert(0x00, returndatasize)\n    tag_189:\n      pop\n      pop\n      pop\n      mload(0x40)\n      returndatasize\n      not(0x1f)\n      0x1f\n      dup3\n      add\n      and\n      dup3\n      add\n      dup1\n      0x40\n      mstore\n      pop\n      dup2\n      add\n      swap1\n      tag_190\n      swap2\n      swap1\n      tag_172\n      jump\t// in\n    tag_190:\n        /* \"contracts/FinaSwap.sol\":2380:2453  abi.encodePacked(sha256(abi.encodePacked(sha256(publicKeyPrefixedHash)))) */\n      add(0x20, mload(0x40))\n      tag_191\n      swap2\n      swap1\n      tag_174\n      jump\t// in\n    tag_191:\n      mload(0x40)\n      0x20\n      dup2\n      dup4\n      sub\n      sub\n      dup2\n      mstore\n      swap1\n      0x40\n      mstore\n        /* \"contracts/FinaSwap.sol\":2339:2453  bytes memory publicKeyDoubleSha256Hash = abi.encodePacked(sha256(abi.encodePacked(sha256(publicKeyPrefixedHash)))) */\n      swap1\n      pop\n        /* \"contracts/FinaSwap.sol\":2534:2560  bytes memory publicKeyPart */\n      0x00\n        /* \"contracts/FinaSwap.sol\":2563:2612  BytesUtils.slice(publicKeyDoubleSha256Hash, 0, 4) */\n      tag_192\n        /* \"contracts/FinaSwap.sol\":2580:2605  publicKeyDoubleSha256Hash */\n      dup3\n        /* \"contracts/FinaSwap.sol\":2607:2608  0 */\n      0x00\n        /* \"contracts/FinaSwap.sol\":2610:2611  4 */\n      0x04\n        /* \"contracts/FinaSwap.sol\":2563:2579  BytesUtils.slice */\n      tag_193\n        /* \"contracts/FinaSwap.sol\":2563:2612  BytesUtils.slice(publicKeyDoubleSha256Hash, 0, 4) */\n      jump\t// in\n    tag_192:\n        /* \"contracts/FinaSwap.sol\":2534:2612  bytes memory publicKeyPart = BytesUtils.slice(publicKeyDoubleSha256Hash, 0, 4) */\n      swap1\n      pop\n        /* \"contracts/FinaSwap.sol\":2731:2760  bytes memory publicKeyAddress */\n      0x00\n        /* \"contracts/FinaSwap.sol\":2776:2797  publicKeyPrefixedHash */\n      dup4\n        /* \"contracts/FinaSwap.sol\":2799:2812  publicKeyPart */\n      dup3\n        /* \"contracts/FinaSwap.sol\":2763:2813  bytes.concat(publicKeyPrefixedHash, publicKeyPart) */\n      add(0x20, mload(0x40))\n      tag_194\n      swap3\n      swap2\n      swap1\n      tag_195\n      jump\t// in\n    tag_194:\n      mload(0x40)\n      0x20\n      dup2\n      dup4\n      sub\n      sub\n      dup2\n      mstore\n      swap1\n      0x40\n      mstore\n        /* \"contracts/FinaSwap.sol\":2731:2813  bytes memory publicKeyAddress = bytes.concat(publicKeyPrefixedHash, publicKeyPart) */\n      swap1\n      pop\n        /* \"contracts/FinaSwap.sol\":2826:2841  uint256 balance */\n      0x00\n        /* \"contracts/FinaSwap.sol\":2844:2853  _balances */\n      0x03\n        /* \"contracts/FinaSwap.sol\":2854:2870  publicKeyAddress */\n      dup3\n        /* \"contracts/FinaSwap.sol\":2844:2871  _balances[publicKeyAddress] */\n      mload(0x40)\n      tag_196\n      swap2\n      swap1\n      tag_123\n      jump\t// in\n    tag_196:\n      swap1\n      dup2\n      mstore\n      0x20\n      add\n      mload(0x40)\n      dup1\n      swap2\n      sub\n      swap1\n      keccak256\n      sload\n        /* \"contracts/FinaSwap.sol\":2826:2871  uint256 balance = _balances[publicKeyAddress] */\n      swap1\n      pop\n        /* \"contracts/FinaSwap.sol\":2900:2901  0 */\n      0x00\n        /* \"contracts/FinaSwap.sol\":2890:2897  balance */\n      dup2\n        /* \"contracts/FinaSwap.sol\":2890:2901  balance > 0 */\n      gt\n        /* \"contracts/FinaSwap.sol\":2882:2936  require(balance > 0, \"FinaSwap:claim already swapped\") */\n      tag_197\n      jumpi\n      mload(0x40)\n      0x08c379a000000000000000000000000000000000000000000000000000000000\n      dup2\n      mstore\n      0x04\n      add\n      tag_198\n      swap1\n      tag_199\n      jump\t// in\n    tag_198:\n      mload(0x40)\n      dup1\n      swap2\n      sub\n      swap1\n      revert\n    tag_197:\n        /* \"contracts/FinaSwap.sol\":2979:2980  0 */\n      0x00\n        /* \"contracts/FinaSwap.sol\":2949:2958  _balances */\n      0x03\n        /* \"contracts/FinaSwap.sol\":2959:2975  publicKeyAddress */\n      dup4\n        /* \"contracts/FinaSwap.sol\":2949:2976  _balances[publicKeyAddress] */\n      mload(0x40)\n      tag_200\n      swap2\n      swap1\n      tag_123\n      jump\t// in\n    tag_200:\n      swap1\n      dup2\n      mstore\n      0x20\n      add\n      mload(0x40)\n      dup1\n      swap2\n      sub\n      swap1\n      keccak256\n        /* \"contracts/FinaSwap.sol\":2949:2980  _balances[publicKeyAddress] = 0 */\n      dup2\n      swap1\n      sstore\n      pop\n        /* \"contracts/FinaSwap.sol\":3010:3017  balance */\n      dup1\n        /* \"contracts/FinaSwap.sol\":2991:3006  _swappedBalance */\n      0x04\n      0x00\n        /* \"contracts/FinaSwap.sol\":2991:3017  _swappedBalance += balance */\n      dup3\n      dup3\n      sload\n      tag_201\n      swap2\n      swap1\n      tag_105\n      jump\t// in\n    tag_201:\n      swap3\n      pop\n      pop\n      dup2\n      swap1\n      sstore\n      pop\n        /* \"@openzeppelin/contracts/security/Pausable.sol\":1451:1452  _ */\n      pop\n      pop\n      pop\n      pop\n      pop\n      pop\n      pop\n      pop\n        /* \"contracts/FinaSwap.sol\":1069:3261  function claim(address target, bytes32 hash, bytes memory signature) public whenNotPaused\r... */\n      pop\n      pop\n      pop\n      jump\t// out\n        /* \"contracts/FinaSwap.sol\":347:407  bytes32 public constant ADMIN_ROLE = keccak256(\"ADMIN_ROLE\") */\n    tag_66:\n        /* \"contracts/FinaSwap.sol\":384:407  keccak256(\"ADMIN_ROLE\") */\n      0xa49807205ce4d355092ef5a8a18f56e8913cf4a201fbe287825b095693c21775\n        /* \"contracts/FinaSwap.sol\":347:407  bytes32 public constant ADMIN_ROLE = keccak256(\"ADMIN_ROLE\") */\n      dup2\n      jump\t// out\n        /* \"contracts/FinaSwap.sol\":3670:3788  function balanceOf(bytes memory source) public view returns (uint256)\r... */\n    tag_70:\n        /* \"contracts/FinaSwap.sol\":3731:3738  uint256 */\n      0x00\n        /* \"contracts/FinaSwap.sol\":3763:3772  _balances */\n      0x03\n        /* \"contracts/FinaSwap.sol\":3773:3779  source */\n      dup3\n        /* \"contracts/FinaSwap.sol\":3763:3780  _balances[source] */\n      mload(0x40)\n      tag_203\n      swap2\n      swap1\n      tag_123\n      jump\t// in\n    tag_203:\n      swap1\n      dup2\n      mstore\n      0x20\n      add\n      mload(0x40)\n      dup1\n      swap2\n      sub\n      swap1\n      keccak256\n      sload\n        /* \"contracts/FinaSwap.sol\":3756:3780  return _balances[source] */\n      swap1\n      pop\n        /* \"contracts/FinaSwap.sol\":3670:3788  function balanceOf(bytes memory source) public view returns (uint256)\r... */\n      swap2\n      swap1\n      pop\n      jump\t// out\n        /* \"contracts/FinaSwap.sol\":4184:4257  function pause() public onlyRole(PAUSER_ROLE) {\r... */\n    tag_74:\n        /* \"contracts/FinaSwap.sol\":452:476  keccak256(\"PAUSER_ROLE\") */\n      0x65d7a28e3265b37a6474929f336521b332c1681b933f6cb9f3376673440d862a\n        /* \"@openzeppelin/contracts/access/AccessControl.sol\":2505:2535  _checkRole(role, _msgSender()) */\n      tag_205\n        /* \"@openzeppelin/contracts/access/AccessControl.sol\":2516:2520  role */\n      dup2\n        /* \"@openzeppelin/contracts/access/AccessControl.sol\":2522:2534  _msgSender() */\n      tag_206\n        /* \"@openzeppelin/contracts/access/AccessControl.sol\":2522:2532  _msgSender */\n      tag_101\n        /* \"@openzeppelin/contracts/access/AccessControl.sol\":2522:2534  _msgSender() */\n      jump\t// in\n    tag_206:\n        /* \"@openzeppelin/contracts/access/AccessControl.sol\":2505:2515  _checkRole */\n      tag_102\n        /* \"@openzeppelin/contracts/access/AccessControl.sol\":2505:2535  _checkRole(role, _msgSender()) */\n      jump\t// in\n    tag_205:\n        /* \"contracts/FinaSwap.sol\":4241:4249  _pause() */\n      tag_208\n        /* \"contracts/FinaSwap.sol\":4241:4247  _pause */\n      tag_209\n        /* \"contracts/FinaSwap.sol\":4241:4249  _pause() */\n      jump\t// in\n    tag_208:\n        /* \"contracts/FinaSwap.sol\":4184:4257  function pause() public onlyRole(PAUSER_ROLE) {\r... */\n      pop\n      jump\t// out\n        /* \"@openzeppelin/contracts/access/AccessControl.sol\":2909:3054  function hasRole(bytes32 role, address account) public view virtual override returns (bool) {... */\n    tag_77:\n        /* \"@openzeppelin/contracts/access/AccessControl.sol\":2995:2999  bool */\n      0x00\n        /* \"@openzeppelin/contracts/access/AccessControl.sol\":3018:3024  _roles */\n      0x01\n        /* \"@openzeppelin/contracts/access/AccessControl.sol\":3018:3030  _roles[role] */\n      0x00\n        /* \"@openzeppelin/contracts/access/AccessControl.sol\":3025:3029  role */\n      dup5\n        /* \"@openzeppelin/contracts/access/AccessControl.sol\":3018:3030  _roles[role] */\n      dup2\n      mstore\n      0x20\n      add\n      swap1\n      dup2\n      mstore\n      0x20\n      add\n      0x00\n      keccak256\n        /* \"@openzeppelin/contracts/access/AccessControl.sol\":3018:3038  _roles[role].members */\n      0x00\n      add\n        /* \"@openzeppelin/contracts/access/AccessControl.sol\":3018:3047  _roles[role].members[account] */\n      0x00\n        /* \"@openzeppelin/contracts/access/AccessControl.sol\":3039:3046  account */\n      dup4\n        /* \"@openzeppelin/contracts/access/AccessControl.sol\":3018:3047  _roles[role].members[account] */\n      0xffffffffffffffffffffffffffffffffffffffff\n      and\n      0xffffffffffffffffffffffffffffffffffffffff\n      and\n      dup2\n      mstore\n      0x20\n      add\n      swap1\n      dup2\n      mstore\n      0x20\n      add\n      0x00\n      keccak256\n      0x00\n      swap1\n      sload\n      swap1\n      0x0100\n      exp\n      swap1\n      div\n      0xff\n      and\n        /* \"@openzeppelin/contracts/access/AccessControl.sol\":3011:3047  return _roles[role].members[account] */\n      swap1\n      pop\n        /* \"@openzeppelin/contracts/access/AccessControl.sol\":2909:3054  function hasRole(bytes32 role, address account) public view virtual override returns (bool) {... */\n      swap3\n      swap2\n      pop\n      pop\n      jump\t// out\n        /* \"contracts/FinaSwap.sol\":3796:3901  function getSwappedBalance() public view returns (uint256)\r... */\n    tag_80:\n        /* \"contracts/FinaSwap.sol\":3846:3853  uint256 */\n      0x00\n        /* \"contracts/FinaSwap.sol\":3878:3893  _swappedBalance */\n      sload(0x04)\n        /* \"contracts/FinaSwap.sol\":3871:3893  return _swappedBalance */\n      swap1\n      pop\n        /* \"contracts/FinaSwap.sol\":3796:3901  function getSwappedBalance() public view returns (uint256)\r... */\n      swap1\n      jump\t// out\n        /* \"@openzeppelin/contracts/access/AccessControl.sol\":2027:2076  bytes32 public constant DEFAULT_ADMIN_ROLE = 0x00 */\n    tag_83:\n        /* \"@openzeppelin/contracts/access/AccessControl.sol\":2072:2076  0x00 */\n      0x00\n        /* \"@openzeppelin/contracts/access/AccessControl.sol\":2027:2076  bytes32 public constant DEFAULT_ADMIN_ROLE = 0x00 */\n      dup1\n      shl\n      dup2\n      jump\t// out\n        /* \"contracts/FinaSwap.sol\":4043:4168  function removeSwappedBalance(uint256 balance) public onlyRole(ADMIN_ROLE)\r... */\n    tag_87:\n        /* \"contracts/FinaSwap.sol\":384:407  keccak256(\"ADMIN_ROLE\") */\n      0xa49807205ce4d355092ef5a8a18f56e8913cf4a201fbe287825b095693c21775\n        /* \"@openzeppelin/contracts/access/AccessControl.sol\":2505:2535  _checkRole(role, _msgSender()) */\n      tag_213\n        /* \"@openzeppelin/contracts/access/AccessControl.sol\":2516:2520  role */\n      dup2\n        /* \"@openzeppelin/contracts/access/AccessControl.sol\":2522:2534  _msgSender() */\n      tag_214\n        /* \"@openzeppelin/contracts/access/AccessControl.sol\":2522:2532  _msgSender */\n      tag_101\n        /* \"@openzeppelin/contracts/access/AccessControl.sol\":2522:2534  _msgSender() */\n      jump\t// in\n    tag_214:\n        /* \"@openzeppelin/contracts/access/AccessControl.sol\":2505:2515  _checkRole */\n      tag_102\n        /* \"@openzeppelin/contracts/access/AccessControl.sol\":2505:2535  _checkRole(role, _msgSender()) */\n      jump\t// in\n    tag_213:\n        /* \"contracts/FinaSwap.sol\":4153:4160  balance */\n      dup2\n        /* \"contracts/FinaSwap.sol\":4134:4149  _swappedBalance */\n      0x04\n      0x00\n        /* \"contracts/FinaSwap.sol\":4134:4160  _swappedBalance -= balance */\n      dup3\n      dup3\n      sload\n      tag_216\n      swap2\n      swap1\n      tag_217\n      jump\t// in\n    tag_216:\n      swap3\n      pop\n      pop\n      dup2\n      swap1\n      sstore\n      pop\n        /* \"contracts/FinaSwap.sol\":4043:4168  function removeSwappedBalance(uint256 balance) public onlyRole(ADMIN_ROLE)\r... */\n      pop\n      pop\n      jump\t// out\n        /* \"contracts/FinaSwap.sol\":3269:3406  function addBalance(bytes memory source, uint256 balance) public onlyRole(ADMIN_ROLE)\r... */\n    tag_91:\n        /* \"contracts/FinaSwap.sol\":384:407  keccak256(\"ADMIN_ROLE\") */\n      0xa49807205ce4d355092ef5a8a18f56e8913cf4a201fbe287825b095693c21775\n        /* \"@openzeppelin/contracts/access/AccessControl.sol\":2505:2535  _checkRole(role, _msgSender()) */\n      tag_219\n        /* \"@openzeppelin/contracts/access/AccessControl.sol\":2516:2520  role */\n      dup2\n        /* \"@openzeppelin/contracts/access/AccessControl.sol\":2522:2534  _msgSender() */\n      tag_220\n        /* \"@openzeppelin/contracts/access/AccessControl.sol\":2522:2532  _msgSender */\n      tag_101\n        /* \"@openzeppelin/contracts/access/AccessControl.sol\":2522:2534  _msgSender() */\n      jump\t// in\n    tag_220:\n        /* \"@openzeppelin/contracts/access/AccessControl.sol\":2505:2515  _checkRole */\n      tag_102\n        /* \"@openzeppelin/contracts/access/AccessControl.sol\":2505:2535  _checkRole(role, _msgSender()) */\n      jump\t// in\n    tag_219:\n        /* \"contracts/FinaSwap.sol\":3391:3398  balance */\n      dup2\n        /* \"contracts/FinaSwap.sol\":3371:3380  _balances */\n      0x03\n        /* \"contracts/FinaSwap.sol\":3381:3387  source */\n      dup5\n        /* \"contracts/FinaSwap.sol\":3371:3388  _balances[source] */\n      mload(0x40)\n      tag_222\n      swap2\n      swap1\n      tag_123\n      jump\t// in\n    tag_222:\n      swap1\n      dup2\n      mstore\n      0x20\n      add\n      mload(0x40)\n      dup1\n      swap2\n      sub\n      swap1\n      keccak256\n        /* \"contracts/FinaSwap.sol\":3371:3398  _balances[source] = balance */\n      dup2\n      swap1\n      sstore\n      pop\n        /* \"contracts/FinaSwap.sol\":3269:3406  function addBalance(bytes memory source, uint256 balance) public onlyRole(ADMIN_ROLE)\r... */\n      pop\n      pop\n      pop\n      jump\t// out\n        /* \"@openzeppelin/contracts/access/AccessControl.sol\":4766:4913  function revokeRole(bytes32 role, address account) public virtual override onlyRole(getRoleAdmin(role)) {... */\n    tag_94:\n        /* \"@openzeppelin/contracts/access/AccessControl.sol\":4850:4868  getRoleAdmin(role) */\n      tag_223\n        /* \"@openzeppelin/contracts/access/AccessControl.sol\":4863:4867  role */\n      dup3\n        /* \"@openzeppelin/contracts/access/AccessControl.sol\":4850:4862  getRoleAdmin */\n      tag_39\n        /* \"@openzeppelin/contracts/access/AccessControl.sol\":4850:4868  getRoleAdmin(role) */\n      jump\t// in\n    tag_223:\n        /* \"@openzeppelin/contracts/access/AccessControl.sol\":2505:2535  _checkRole(role, _msgSender()) */\n      tag_225\n        /* \"@openzeppelin/contracts/access/AccessControl.sol\":2516:2520  role */\n      dup2\n        /* \"@openzeppelin/contracts/access/AccessControl.sol\":2522:2534  _msgSender() */\n      tag_226\n        /* \"@openzeppelin/contracts/access/AccessControl.sol\":2522:2532  _msgSender */\n      tag_101\n        /* \"@openzeppelin/contracts/access/AccessControl.sol\":2522:2534  _msgSender() */\n      jump\t// in\n    tag_226:\n        /* \"@openzeppelin/contracts/access/AccessControl.sol\":2505:2515  _checkRole */\n      tag_102\n        /* \"@openzeppelin/contracts/access/AccessControl.sol\":2505:2535  _checkRole(role, _msgSender()) */\n      jump\t// in\n    tag_225:\n        /* \"@openzeppelin/contracts/access/AccessControl.sol\":4880:4906  _revokeRole(role, account) */\n      tag_228\n        /* \"@openzeppelin/contracts/access/AccessControl.sol\":4892:4896  role */\n      dup4\n        /* \"@openzeppelin/contracts/access/AccessControl.sol\":4898:4905  account */\n      dup4\n        /* \"@openzeppelin/contracts/access/AccessControl.sol\":4880:4891  _revokeRole */\n      tag_130\n        /* \"@openzeppelin/contracts/access/AccessControl.sol\":4880:4906  _revokeRole(role, account) */\n      jump\t// in\n    tag_228:\n        /* \"@openzeppelin/contracts/access/AccessControl.sol\":4766:4913  function revokeRole(bytes32 role, address account) public virtual override onlyRole(getRoleAdmin(role)) {... */\n      pop\n      pop\n      pop\n      jump\t// out\n        /* \"contracts/FinaSwap.sol\":414:476  bytes32 public constant PAUSER_ROLE = keccak256(\"PAUSER_ROLE\") */\n    tag_96:\n        /* \"contracts/FinaSwap.sol\":452:476  keccak256(\"PAUSER_ROLE\") */\n      0x65d7a28e3265b37a6474929f336521b332c1681b933f6cb9f3376673440d862a\n        /* \"contracts/FinaSwap.sol\":414:476  bytes32 public constant PAUSER_ROLE = keccak256(\"PAUSER_ROLE\") */\n      dup2\n      jump\t// out\n        /* \"@openzeppelin/contracts/utils/Context.sol\":640:736  function _msgSender() internal view virtual returns (address) {... */\n    tag_101:\n        /* \"@openzeppelin/contracts/utils/Context.sol\":693:700  address */\n      0x00\n        /* \"@openzeppelin/contracts/utils/Context.sol\":719:729  msg.sender */\n      caller\n        /* \"@openzeppelin/contracts/utils/Context.sol\":712:729  return msg.sender */\n      swap1\n      pop\n        /* \"@openzeppelin/contracts/utils/Context.sol\":640:736  function _msgSender() internal view virtual returns (address) {... */\n      swap1\n      jump\t// out\n        /* \"@openzeppelin/contracts/access/AccessControl.sol\":3335:3827  function _checkRole(bytes32 role, address account) internal view virtual {... */\n    tag_102:\n        /* \"@openzeppelin/contracts/access/AccessControl.sol\":3423:3445  hasRole(role, account) */\n      tag_231\n        /* \"@openzeppelin/contracts/access/AccessControl.sol\":3431:3435  role */\n      dup3\n        /* \"@openzeppelin/contracts/access/AccessControl.sol\":3437:3444  account */\n      dup3\n        /* \"@openzeppelin/contracts/access/AccessControl.sol\":3423:3430  hasRole */\n      tag_77\n        /* \"@openzeppelin/contracts/access/AccessControl.sol\":3423:3445  hasRole(role, account) */\n      jump\t// in\n    tag_231:\n        /* \"@openzeppelin/contracts/access/AccessControl.sol\":3418:3821  if (!hasRole(role, account)) {... */\n      tag_232\n      jumpi\n        /* \"@openzeppelin/contracts/access/AccessControl.sol\":3606:3647  Strings.toHexString(uint160(account), 20) */\n      tag_233\n        /* \"@openzeppelin/contracts/access/AccessControl.sol\":3634:3641  account */\n      dup2\n        /* \"@openzeppelin/contracts/access/AccessControl.sol\":3606:3647  Strings.toHexString(uint160(account), 20) */\n      0xffffffffffffffffffffffffffffffffffffffff\n      and\n        /* \"@openzeppelin/contracts/access/AccessControl.sol\":3644:3646  20 */\n      0x14\n        /* \"@openzeppelin/contracts/access/AccessControl.sol\":3606:3625  Strings.toHexString */\n      tag_234\n        /* \"@openzeppelin/contracts/access/AccessControl.sol\":3606:3647  Strings.toHexString(uint160(account), 20) */\n      jump\t// in\n    tag_233:\n        /* \"@openzeppelin/contracts/access/AccessControl.sol\":3718:3756  Strings.toHexString(uint256(role), 32) */\n      tag_235\n        /* \"@openzeppelin/contracts/access/AccessControl.sol\":3746:3750  role */\n      dup4\n        /* \"@openzeppelin/contracts/access/AccessControl.sol\":3738:3751  uint256(role) */\n      0x00\n      shr\n        /* \"@openzeppelin/contracts/access/AccessControl.sol\":3753:3755  32 */\n      0x20\n        /* \"@openzeppelin/contracts/access/AccessControl.sol\":3718:3737  Strings.toHexString */\n      tag_234\n        /* \"@openzeppelin/contracts/access/AccessControl.sol\":3718:3756  Strings.toHexString(uint256(role), 32) */\n      jump\t// in\n    tag_235:\n        /* \"@openzeppelin/contracts/access/AccessControl.sol\":3513:3778  abi.encodePacked(... */\n      add(0x20, mload(0x40))\n      tag_236\n      swap3\n      swap2\n      swap1\n      tag_237\n      jump\t// in\n    tag_236:\n      mload(0x40)\n      0x20\n      dup2\n      dup4\n      sub\n      sub\n      dup2\n      mstore\n      swap1\n      0x40\n      mstore\n        /* \"@openzeppelin/contracts/access/AccessControl.sol\":3461:3810  revert(... */\n      mload(0x40)\n      0x08c379a000000000000000000000000000000000000000000000000000000000\n      dup2\n      mstore\n      0x04\n      add\n      tag_238\n      swap2\n      swap1\n      tag_239\n      jump\t// in\n    tag_238:\n      mload(0x40)\n      dup1\n      swap2\n      sub\n      swap1\n      revert\n        /* \"@openzeppelin/contracts/access/AccessControl.sol\":3418:3821  if (!hasRole(role, account)) {... */\n    tag_232:\n        /* \"@openzeppelin/contracts/access/AccessControl.sol\":3335:3827  function _checkRole(bytes32 role, address account) internal view virtual {... */\n      pop\n      pop\n      jump\t// out\n        /* \"@openzeppelin/contracts/utils/introspection/ERC165.sol\":829:984  function supportsInterface(bytes4 interfaceId) public view virtual override returns (bool) {... */\n    tag_109:\n        /* \"@openzeppelin/contracts/utils/introspection/ERC165.sol\":914:918  bool */\n      0x00\n        /* \"@openzeppelin/contracts/utils/introspection/ERC165.sol\":952:977  type(IERC165).interfaceId */\n      0x01ffc9a700000000000000000000000000000000000000000000000000000000\n        /* \"@openzeppelin/contracts/utils/introspection/ERC165.sol\":937:977  interfaceId == type(IERC165).interfaceId */\n      not(0xffffffffffffffffffffffffffffffffffffffffffffffffffffffff)\n      and\n        /* \"@openzeppelin/contracts/utils/introspection/ERC165.sol\":937:948  interfaceId */\n      dup3\n        /* \"@openzeppelin/contracts/utils/introspection/ERC165.sol\":937:977  interfaceId == type(IERC165).interfaceId */\n      not(0xffffffffffffffffffffffffffffffffffffffffffffffffffffffff)\n      and\n      eq\n        /* \"@openzeppelin/contracts/utils/introspection/ERC165.sol\":930:977  return interfaceId == type(IERC165).interfaceId */\n      swap1\n      pop\n        /* \"@openzeppelin/contracts/utils/introspection/ERC165.sol\":829:984  function supportsInterface(bytes4 interfaceId) public view virtual override returns (bool) {... */\n      swap2\n      swap1\n      pop\n      jump\t// out\n        /* \"@openzeppelin/contracts/access/AccessControl.sol\":6861:7094  function _grantRole(bytes32 role, address account) internal virtual {... */\n    tag_117:\n        /* \"@openzeppelin/contracts/access/AccessControl.sol\":6944:6966  hasRole(role, account) */\n      tag_242\n        /* \"@openzeppelin/contracts/access/AccessControl.sol\":6952:6956  role */\n      dup3\n        /* \"@openzeppelin/contracts/access/AccessControl.sol\":6958:6965  account */\n      dup3\n        /* \"@openzeppelin/contracts/access/AccessControl.sol\":6944:6951  hasRole */\n      tag_77\n        /* \"@openzeppelin/contracts/access/AccessControl.sol\":6944:6966  hasRole(role, account) */\n      jump\t// in\n    tag_242:\n        /* \"@openzeppelin/contracts/access/AccessControl.sol\":6939:7088  if (!hasRole(role, account)) {... */\n      tag_243\n      jumpi\n        /* \"@openzeppelin/contracts/access/AccessControl.sol\":7014:7018  true */\n      0x01\n        /* \"@openzeppelin/contracts/access/AccessControl.sol\":6982:6988  _roles */\n      dup1\n        /* \"@openzeppelin/contracts/access/AccessControl.sol\":6982:6994  _roles[role] */\n      0x00\n        /* \"@openzeppelin/contracts/access/AccessControl.sol\":6989:6993  role */\n      dup5\n        /* \"@openzeppelin/contracts/access/AccessControl.sol\":6982:6994  _roles[role] */\n      dup2\n      mstore\n      0x20\n      add\n      swap1\n      dup2\n      mstore\n      0x20\n      add\n      0x00\n      keccak256\n        /* \"@openzeppelin/contracts/access/AccessControl.sol\":6982:7002  _roles[role].members */\n      0x00\n      add\n        /* \"@openzeppelin/contracts/access/AccessControl.sol\":6982:7011  _roles[role].members[account] */\n      0x00\n        /* \"@openzeppelin/contracts/access/AccessControl.sol\":7003:7010  account */\n      dup4\n        /* \"@openzeppelin/contracts/access/AccessControl.sol\":6982:7011  _roles[role].members[account] */\n      0xffffffffffffffffffffffffffffffffffffffff\n      and\n      0xffffffffffffffffffffffffffffffffffffffff\n      and\n      dup2\n      mstore\n      0x20\n      add\n      swap1\n      dup2\n      mstore\n      0x20\n      add\n      0x00\n      keccak256\n      0x00\n        /* \"@openzeppelin/contracts/access/AccessControl.sol\":6982:7018  _roles[role].members[account] = true */\n      0x0100\n      exp\n      dup2\n      sload\n      dup2\n      0xff\n      mul\n      not\n      and\n      swap1\n      dup4\n      iszero\n      iszero\n      mul\n      or\n      swap1\n      sstore\n      pop\n        /* \"@openzeppelin/contracts/access/AccessControl.sol\":7064:7076  _msgSender() */\n      tag_244\n        /* \"@openzeppelin/contracts/access/AccessControl.sol\":7064:7074  _msgSender */\n      tag_101\n        /* \"@openzeppelin/contracts/access/AccessControl.sol\":7064:7076  _msgSender() */\n      jump\t// in\n    tag_244:\n        /* \"@openzeppelin/contracts/access/AccessControl.sol\":7037:7077  RoleGranted(role, account, _msgSender()) */\n      0xffffffffffffffffffffffffffffffffffffffff\n      and\n        /* \"@openzeppelin/contracts/access/AccessControl.sol\":7055:7062  account */\n      dup2\n        /* \"@openzeppelin/contracts/access/AccessControl.sol\":7037:7077  RoleGranted(role, account, _msgSender()) */\n      0xffffffffffffffffffffffffffffffffffffffff\n      and\n        /* \"@openzeppelin/contracts/access/AccessControl.sol\":7049:7053  role */\n      dup4\n        /* \"@openzeppelin/contracts/access/AccessControl.sol\":7037:7077  RoleGranted(role, account, _msgSender()) */\n      0x2f8788117e7eff1d82e926ec794901d17c78024a50270940304540a733656f0d\n      mload(0x40)\n      mload(0x40)\n      dup1\n      swap2\n      sub\n      swap1\n      log4\n        /* \"@openzeppelin/contracts/access/AccessControl.sol\":6939:7088  if (!hasRole(role, account)) {... */\n    tag_243:\n        /* \"@openzeppelin/contracts/access/AccessControl.sol\":6861:7094  function _grantRole(bytes32 role, address account) internal virtual {... */\n      pop\n      pop\n      jump\t// out\n        /* \"@openzeppelin/contracts/access/AccessControl.sol\":7219:7453  function _revokeRole(bytes32 role, address account) internal virtual {... */\n    tag_130:\n        /* \"@openzeppelin/contracts/access/AccessControl.sol\":7302:7324  hasRole(role, account) */\n      tag_246\n        /* \"@openzeppelin/contracts/access/AccessControl.sol\":7310:7314  role */\n      dup3\n        /* \"@openzeppelin/contracts/access/AccessControl.sol\":7316:7323  account */\n      dup3\n        /* \"@openzeppelin/contracts/access/AccessControl.sol\":7302:7309  hasRole */\n      tag_77\n        /* \"@openzeppelin/contracts/access/AccessControl.sol\":7302:7324  hasRole(role, account) */\n      jump\t// in\n    tag_246:\n        /* \"@openzeppelin/contracts/access/AccessControl.sol\":7298:7447  if (hasRole(role, account)) {... */\n      iszero\n      tag_247\n      jumpi\n        /* \"@openzeppelin/contracts/access/AccessControl.sol\":7372:7377  false */\n      0x00\n        /* \"@openzeppelin/contracts/access/AccessControl.sol\":7340:7346  _roles */\n      0x01\n        /* \"@openzeppelin/contracts/access/AccessControl.sol\":7340:7352  _roles[role] */\n      0x00\n        /* \"@openzeppelin/contracts/access/AccessControl.sol\":7347:7351  role */\n      dup5\n        /* \"@openzeppelin/contracts/access/AccessControl.sol\":7340:7352  _roles[role] */\n      dup2\n      mstore\n      0x20\n      add\n      swap1\n      dup2\n      mstore\n      0x20\n      add\n      0x00\n      keccak256\n        /* \"@openzeppelin/contracts/access/AccessControl.sol\":7340:7360  _roles[role].members */\n      0x00\n      add\n        /* \"@openzeppelin/contracts/access/AccessControl.sol\":7340:7369  _roles[role].members[account] */\n      0x00\n        /* \"@openzeppelin/contracts/access/AccessControl.sol\":7361:7368  account */\n      dup4\n        /* \"@openzeppelin/contracts/access/AccessControl.sol\":7340:7369  _roles[role].members[account] */\n      0xffffffffffffffffffffffffffffffffffffffff\n      and\n      0xffffffffffffffffffffffffffffffffffffffff\n      and\n      dup2\n      mstore\n      0x20\n      add\n      swap1\n      dup2\n      mstore\n      0x20\n      add\n      0x00\n      keccak256\n      0x00\n        /* \"@openzeppelin/contracts/access/AccessControl.sol\":7340:7377  _roles[role].members[account] = false */\n      0x0100\n      exp\n      dup2\n      sload\n      dup2\n      0xff\n      mul\n      not\n      and\n      swap1\n      dup4\n      iszero\n      iszero\n      mul\n      or\n      swap1\n      sstore\n      pop\n        /* \"@openzeppelin/contracts/access/AccessControl.sol\":7423:7435  _msgSender() */\n      tag_248\n        /* \"@openzeppelin/contracts/access/AccessControl.sol\":7423:7433  _msgSender */\n      tag_101\n        /* \"@openzeppelin/contracts/access/AccessControl.sol\":7423:7435  _msgSender() */\n      jump\t// in\n    tag_248:\n        /* \"@openzeppelin/contracts/access/AccessControl.sol\":7396:7436  RoleRevoked(role, account, _msgSender()) */\n      0xffffffffffffffffffffffffffffffffffffffff\n      and\n        /* \"@openzeppelin/contracts/access/AccessControl.sol\":7414:7421  account */\n      dup2\n        /* \"@openzeppelin/contracts/access/AccessControl.sol\":7396:7436  RoleRevoked(role, account, _msgSender()) */\n      0xffffffffffffffffffffffffffffffffffffffff\n      and\n        /* \"@openzeppelin/contracts/access/AccessControl.sol\":7408:7412  role */\n      dup4\n        /* \"@openzeppelin/contracts/access/AccessControl.sol\":7396:7436  RoleRevoked(role, account, _msgSender()) */\n      0xf6391f5c32d9c69d2a47ea670b442974b53935d1edc7fd64eb21e047a839171b\n      mload(0x40)\n      mload(0x40)\n      dup1\n      swap2\n      sub\n      swap1\n      log4\n        /* \"@openzeppelin/contracts/access/AccessControl.sol\":7298:7447  if (hasRole(role, account)) {... */\n    tag_247:\n        /* \"@openzeppelin/contracts/access/AccessControl.sol\":7219:7453  function _revokeRole(bytes32 role, address account) internal virtual {... */\n      pop\n      pop\n      jump\t// out\n        /* \"@openzeppelin/contracts/security/Pausable.sol\":2110:2227  function _unpause() internal virtual whenPaused {... */\n    tag_136:\n        /* \"@openzeppelin/contracts/security/Pausable.sol\":1677:1685  paused() */\n      tag_250\n        /* \"@openzeppelin/contracts/security/Pausable.sol\":1677:1683  paused */\n      tag_59\n        /* \"@openzeppelin/contracts/security/Pausable.sol\":1677:1685  paused() */\n      jump\t// in\n    tag_250:\n        /* \"@openzeppelin/contracts/security/Pausable.sol\":1669:1710  require(paused(), \"Pausable: not paused\") */\n      tag_251\n      jumpi\n      mload(0x40)\n      0x08c379a000000000000000000000000000000000000000000000000000000000\n      dup2\n      mstore\n      0x04\n      add\n      tag_252\n      swap1\n      tag_253\n      jump\t// in\n    tag_252:\n      mload(0x40)\n      dup1\n      swap2\n      sub\n      swap1\n      revert\n    tag_251:\n        /* \"@openzeppelin/contracts/security/Pausable.sol\":2178:2183  false */\n      0x00\n        /* \"@openzeppelin/contracts/security/Pausable.sol\":2168:2175  _paused */\n      dup1\n      0x00\n        /* \"@openzeppelin/contracts/security/Pausable.sol\":2168:2183  _paused = false */\n      0x0100\n      exp\n      dup2\n      sload\n      dup2\n      0xff\n      mul\n      not\n      and\n      swap1\n      dup4\n      iszero\n      iszero\n      mul\n      or\n      swap1\n      sstore\n      pop\n        /* \"@openzeppelin/contracts/security/Pausable.sol\":2198:2220  Unpaused(_msgSender()) */\n      0x5db9ee0a495bf2e6ff9c91a7834c1ba4fdd244a5e8aa4e537bd38aeae4b073aa\n        /* \"@openzeppelin/contracts/security/Pausable.sol\":2207:2219  _msgSender() */\n      tag_255\n        /* \"@openzeppelin/contracts/security/Pausable.sol\":2207:2217  _msgSender */\n      tag_101\n        /* \"@openzeppelin/contracts/security/Pausable.sol\":2207:2219  _msgSender() */\n      jump\t// in\n    tag_255:\n        /* \"@openzeppelin/contracts/security/Pausable.sol\":2198:2220  Unpaused(_msgSender()) */\n      mload(0x40)\n      tag_256\n      swap2\n      swap1\n      tag_257\n      jump\t// in\n    tag_256:\n      mload(0x40)\n      dup1\n      swap2\n      sub\n      swap1\n      log1\n        /* \"@openzeppelin/contracts/security/Pausable.sol\":2110:2227  function _unpause() internal virtual whenPaused {... */\n      jump\t// out\n        /* \"contracts/utils/BytesUtils.sol\":86:349  function slice(bytes memory source, uint256 start, uint256 end) internal pure returns (bytes memory) {\r... */\n    tag_193:\n        /* \"contracts/utils/BytesUtils.sol\":173:185  bytes memory */\n      0x60\n        /* \"contracts/utils/BytesUtils.sol\":198:212  bytes memory a */\n      0x00\n        /* \"contracts/utils/BytesUtils.sol\":231:236  start */\n      dup4\n        /* \"contracts/utils/BytesUtils.sol\":225:228  end */\n      dup4\n        /* \"contracts/utils/BytesUtils.sol\":225:236  end - start */\n      tag_259\n      swap2\n      swap1\n      tag_217\n      jump\t// in\n    tag_259:\n        /* \"contracts/utils/BytesUtils.sol\":215:237  new bytes(end - start) */\n      0xffffffffffffffff\n      dup2\n      gt\n      iszero\n      tag_260\n      jumpi\n      mstore(0x00, 0x4e487b7100000000000000000000000000000000000000000000000000000000)\n      mstore(0x04, 0x41)\n      revert(0x00, 0x24)\n    tag_260:\n      mload(0x40)\n      swap1\n      dup1\n      dup3\n      mstore\n      dup1\n      0x1f\n      add\n      not(0x1f)\n      and\n      0x20\n      add\n      dup3\n      add\n      0x40\n      mstore\n      dup1\n      iszero\n      tag_261\n      jumpi\n      dup2\n      0x20\n      add\n      0x01\n      dup3\n      mul\n      dup1\n      calldatasize\n      dup4\n      calldatacopy\n      dup1\n      dup3\n      add\n      swap2\n      pop\n      pop\n      swap1\n      pop\n    tag_261:\n      pop\n        /* \"contracts/utils/BytesUtils.sol\":198:237  bytes memory a = new bytes(end - start) */\n      swap1\n      pop\n        /* \"contracts/utils/BytesUtils.sol\":252:258  uint i */\n      0x00\n        /* \"contracts/utils/BytesUtils.sol\":248:323  for(uint i=0;i<=end-start-1;i++){\r... */\n    tag_262:\n        /* \"contracts/utils/BytesUtils.sol\":274:275  1 */\n      0x01\n        /* \"contracts/utils/BytesUtils.sol\":268:273  start */\n      dup6\n        /* \"contracts/utils/BytesUtils.sol\":264:267  end */\n      dup6\n        /* \"contracts/utils/BytesUtils.sol\":264:273  end-start */\n      tag_265\n      swap2\n      swap1\n      tag_217\n      jump\t// in\n    tag_265:\n        /* \"contracts/utils/BytesUtils.sol\":264:275  end-start-1 */\n      tag_266\n      swap2\n      swap1\n      tag_217\n      jump\t// in\n    tag_266:\n        /* \"contracts/utils/BytesUtils.sol\":261:262  i */\n      dup2\n        /* \"contracts/utils/BytesUtils.sol\":261:275  i<=end-start-1 */\n      gt\n        /* \"contracts/utils/BytesUtils.sol\":248:323  for(uint i=0;i<=end-start-1;i++){\r... */\n      tag_263\n      jumpi\n        /* \"contracts/utils/BytesUtils.sol\":302:308  source */\n      dup6\n        /* \"contracts/utils/BytesUtils.sol\":309:310  i */\n      dup2\n        /* \"contracts/utils/BytesUtils.sol\":302:311  source[i] */\n      dup2\n      mload\n      dup2\n      lt\n      tag_267\n      jumpi\n      mstore(0x00, 0x4e487b7100000000000000000000000000000000000000000000000000000000)\n      mstore(0x04, 0x32)\n      revert(0x00, 0x24)\n    tag_267:\n      0x20\n      add\n      add\n      mload\n      0xf8\n      shr\n      0xf8\n      shl\n        /* \"contracts/utils/BytesUtils.sol\":295:296  a */\n      dup3\n        /* \"contracts/utils/BytesUtils.sol\":297:298  i */\n      dup3\n        /* \"contracts/utils/BytesUtils.sol\":295:299  a[i] */\n      dup2\n      mload\n      dup2\n      lt\n      tag_268\n      jumpi\n      mstore(0x00, 0x4e487b7100000000000000000000000000000000000000000000000000000000)\n      mstore(0x04, 0x32)\n      revert(0x00, 0x24)\n    tag_268:\n      0x20\n      add\n      add\n        /* \"contracts/utils/BytesUtils.sol\":295:311  a[i] = source[i] */\n      swap1\n      not(0xffffffffffffffffffffffffffffffffffffffffffffffffffffffffffffff)\n      and\n      swap1\n      dup2\n      0x00\n      byte\n      swap1\n      mstore8\n      pop\n        /* \"contracts/utils/BytesUtils.sol\":276:279  i++ */\n      dup1\n      dup1\n      tag_269\n      swap1\n      tag_270\n      jump\t// in\n    tag_269:\n      swap2\n      pop\n      pop\n        /* \"contracts/utils/BytesUtils.sol\":248:323  for(uint i=0;i<=end-start-1;i++){\r... */\n      jump(tag_262)\n    tag_263:\n      pop\n        /* \"contracts/utils/BytesUtils.sol\":340:341  a */\n      dup1\n        /* \"contracts/utils/BytesUtils.sol\":333:341  return a */\n      swap2\n      pop\n      pop\n        /* \"contracts/utils/BytesUtils.sol\":86:349  function slice(bytes memory source, uint256 start, uint256 end) internal pure returns (bytes memory) {\r... */\n      swap4\n      swap3\n      pop\n      pop\n      pop\n      jump\t// out\n        /* \"@openzeppelin/contracts/security/Pausable.sol\":1863:1978  function _pause() internal virtual whenNotPaused {... */\n    tag_209:\n        /* \"@openzeppelin/contracts/security/Pausable.sol\":1412:1420  paused() */\n      tag_272\n        /* \"@openzeppelin/contracts/security/Pausable.sol\":1412:1418  paused */\n      tag_59\n        /* \"@openzeppelin/contracts/security/Pausable.sol\":1412:1420  paused() */\n      jump\t// in\n    tag_272:\n        /* \"@openzeppelin/contracts/security/Pausable.sol\":1411:1420  !paused() */\n      iszero\n        /* \"@openzeppelin/contracts/security/Pausable.sol\":1403:1441  require(!paused(), \"Pausable: paused\") */\n      tag_273\n      jumpi\n      mload(0x40)\n      0x08c379a000000000000000000000000000000000000000000000000000000000\n      dup2\n      mstore\n      0x04\n      add\n      tag_274\n      swap1\n      tag_146\n      jump\t// in\n    tag_274:\n      mload(0x40)\n      dup1\n      swap2\n      sub\n      swap1\n      revert\n    tag_273:\n        /* \"@openzeppelin/contracts/security/Pausable.sol\":1932:1936  true */\n      0x01\n        /* \"@openzeppelin/contracts/security/Pausable.sol\":1922:1929  _paused */\n      0x00\n      dup1\n        /* \"@openzeppelin/contracts/security/Pausable.sol\":1922:1936  _paused = true */\n      0x0100\n      exp\n      dup2\n      sload\n      dup2\n      0xff\n      mul\n      not\n      and\n      swap1\n      dup4\n      iszero\n      iszero\n      mul\n      or\n      swap1\n      sstore\n      pop\n        /* \"@openzeppelin/contracts/security/Pausable.sol\":1951:1971  Paused(_msgSender()) */\n      0x62e78cea01bee320cd4e420270b5ea74000d11b0c9f74754ebdbfc544b05a258\n        /* \"@openzeppelin/contracts/security/Pausable.sol\":1958:1970  _msgSender() */\n      tag_276\n        /* \"@openzeppelin/contracts/security/Pausable.sol\":1958:1968  _msgSender */\n      tag_101\n        /* \"@openzeppelin/contracts/security/Pausable.sol\":1958:1970  _msgSender() */\n      jump\t// in\n    tag_276:\n        /* \"@openzeppelin/contracts/security/Pausable.sol\":1951:1971  Paused(_msgSender()) */\n      mload(0x40)\n      tag_277\n      swap2\n      swap1\n      tag_257\n      jump\t// in\n    tag_277:\n      mload(0x40)\n      dup1\n      swap2\n      sub\n      swap1\n      log1\n        /* \"@openzeppelin/contracts/security/Pausable.sol\":1863:1978  function _pause() internal virtual whenNotPaused {... */\n      jump\t// out\n        /* \"@openzeppelin/contracts/utils/Strings.sol\":1588:2029  function toHexString(uint256 value, uint256 length) internal pure returns (string memory) {... */\n    tag_234:\n        /* \"@openzeppelin/contracts/utils/Strings.sol\":1663:1676  string memory */\n      0x60\n        /* \"@openzeppelin/contracts/utils/Strings.sol\":1688:1707  bytes memory buffer */\n      0x00\n        /* \"@openzeppelin/contracts/utils/Strings.sol\":1733:1734  2 */\n      0x02\n        /* \"@openzeppelin/contracts/utils/Strings.sol\":1724:1730  length */\n      dup4\n        /* \"@openzeppelin/contracts/utils/Strings.sol\":1720:1721  2 */\n      0x02\n        /* \"@openzeppelin/contracts/utils/Strings.sol\":1720:1730  2 * length */\n      tag_279\n      swap2\n      swap1\n      tag_280\n      jump\t// in\n    tag_279:\n        /* \"@openzeppelin/contracts/utils/Strings.sol\":1720:1734  2 * length + 2 */\n      tag_281\n      swap2\n      swap1\n      tag_105\n      jump\t// in\n    tag_281:\n        /* \"@openzeppelin/contracts/utils/Strings.sol\":1710:1735  new bytes(2 * length + 2) */\n      0xffffffffffffffff\n      dup2\n      gt\n      iszero\n      tag_282\n      jumpi\n      mstore(0x00, 0x4e487b7100000000000000000000000000000000000000000000000000000000)\n      mstore(0x04, 0x41)\n      revert(0x00, 0x24)\n    tag_282:\n      mload(0x40)\n      swap1\n      dup1\n      dup3\n      mstore\n      dup1\n      0x1f\n      add\n      not(0x1f)\n      and\n      0x20\n      add\n      dup3\n      add\n      0x40\n      mstore\n      dup1\n      iszero\n      tag_283\n      jumpi\n      dup2\n      0x20\n      add\n      0x01\n      dup3\n      mul\n      dup1\n      calldatasize\n      dup4\n      calldatacopy\n      dup1\n      dup3\n      add\n      swap2\n      pop\n      pop\n      swap1\n      pop\n    tag_283:\n      pop\n        /* \"@openzeppelin/contracts/utils/Strings.sol\":1688:1735  bytes memory buffer = new bytes(2 * length + 2) */\n      swap1\n      pop\n        /* \"@openzeppelin/contracts/utils/Strings.sol\":1745:1760  buffer[0] = \"0\" */\n      0x3000000000000000000000000000000000000000000000000000000000000000\n        /* \"@openzeppelin/contracts/utils/Strings.sol\":1745:1751  buffer */\n      dup2\n        /* \"@openzeppelin/contracts/utils/Strings.sol\":1752:1753  0 */\n      0x00\n        /* \"@openzeppelin/contracts/utils/Strings.sol\":1745:1754  buffer[0] */\n      dup2\n      mload\n      dup2\n      lt\n      tag_284\n      jumpi\n      mstore(0x00, 0x4e487b7100000000000000000000000000000000000000000000000000000000)\n      mstore(0x04, 0x32)\n      revert(0x00, 0x24)\n    tag_284:\n      0x20\n      add\n      add\n        /* \"@openzeppelin/contracts/utils/Strings.sol\":1745:1760  buffer[0] = \"0\" */\n      swap1\n      not(0xffffffffffffffffffffffffffffffffffffffffffffffffffffffffffffff)\n      and\n      swap1\n      dup2\n      0x00\n      byte\n      swap1\n      mstore8\n      pop\n        /* \"@openzeppelin/contracts/utils/Strings.sol\":1770:1785  buffer[1] = \"x\" */\n      0x7800000000000000000000000000000000000000000000000000000000000000\n        /* \"@openzeppelin/contracts/utils/Strings.sol\":1770:1776  buffer */\n      dup2\n        /* \"@openzeppelin/contracts/utils/Strings.sol\":1777:1778  1 */\n      0x01\n        /* \"@openzeppelin/contracts/utils/Strings.sol\":1770:1779  buffer[1] */\n      dup2\n      mload\n      dup2\n      lt\n      tag_285\n      jumpi\n      mstore(0x00, 0x4e487b7100000000000000000000000000000000000000000000000000000000)\n      mstore(0x04, 0x32)\n      revert(0x00, 0x24)\n    tag_285:\n      0x20\n      add\n      add\n        /* \"@openzeppelin/contracts/utils/Strings.sol\":1770:1785  buffer[1] = \"x\" */\n      swap1\n      not(0xffffffffffffffffffffffffffffffffffffffffffffffffffffffffffffff)\n      and\n      swap1\n      dup2\n      0x00\n      byte\n      swap1\n      mstore8\n      pop\n        /* \"@openzeppelin/contracts/utils/Strings.sol\":1800:1809  uint256 i */\n      0x00\n        /* \"@openzeppelin/contracts/utils/Strings.sol\":1825:1826  1 */\n      0x01\n        /* \"@openzeppelin/contracts/utils/Strings.sol\":1816:1822  length */\n      dup5\n        /* \"@openzeppelin/contracts/utils/Strings.sol\":1812:1813  2 */\n      0x02\n        /* \"@openzeppelin/contracts/utils/Strings.sol\":1812:1822  2 * length */\n      tag_289\n      swap2\n      swap1\n      tag_280\n      jump\t// in\n    tag_289:\n        /* \"@openzeppelin/contracts/utils/Strings.sol\":1812:1826  2 * length + 1 */\n      tag_290\n      swap2\n      swap1\n      tag_105\n      jump\t// in\n    tag_290:\n        /* \"@openzeppelin/contracts/utils/Strings.sol\":1800:1826  uint256 i = 2 * length + 1 */\n      swap1\n      pop\n        /* \"@openzeppelin/contracts/utils/Strings.sol\":1795:1927  for (uint256 i = 2 * length + 1; i > 1; --i) {... */\n    tag_286:\n        /* \"@openzeppelin/contracts/utils/Strings.sol\":1832:1833  1 */\n      0x01\n        /* \"@openzeppelin/contracts/utils/Strings.sol\":1828:1829  i */\n      dup2\n        /* \"@openzeppelin/contracts/utils/Strings.sol\":1828:1833  i > 1 */\n      gt\n        /* \"@openzeppelin/contracts/utils/Strings.sol\":1795:1927  for (uint256 i = 2 * length + 1; i > 1; --i) {... */\n      iszero\n      tag_287\n      jumpi\n        /* \"@openzeppelin/contracts/utils/Strings.sol\":1866:1878  _HEX_SYMBOLS */\n      0x3031323334353637383961626364656600000000000000000000000000000000\n        /* \"@openzeppelin/contracts/utils/Strings.sol\":1887:1890  0xf */\n      0x0f\n        /* \"@openzeppelin/contracts/utils/Strings.sol\":1879:1884  value */\n      dup7\n        /* \"@openzeppelin/contracts/utils/Strings.sol\":1879:1890  value & 0xf */\n      and\n        /* \"@openzeppelin/contracts/utils/Strings.sol\":1866:1891  _HEX_SYMBOLS[value & 0xf] */\n      0x10\n      dup2\n      lt\n      tag_291\n      jumpi\n      mstore(0x00, 0x4e487b7100000000000000000000000000000000000000000000000000000000)\n      mstore(0x04, 0x32)\n      revert(0x00, 0x24)\n    tag_291:\n      byte\n      0xf8\n      shl\n        /* \"@openzeppelin/contracts/utils/Strings.sol\":1854:1860  buffer */\n      dup3\n        /* \"@openzeppelin/contracts/utils/Strings.sol\":1861:1862  i */\n      dup3\n        /* \"@openzeppelin/contracts/utils/Strings.sol\":1854:1863  buffer[i] */\n      dup2\n      mload\n      dup2\n      lt\n      tag_292\n      jumpi\n      mstore(0x00, 0x4e487b7100000000000000000000000000000000000000000000000000000000)\n      mstore(0x04, 0x32)\n      revert(0x00, 0x24)\n    tag_292:\n      0x20\n      add\n      add\n        /* \"@openzeppelin/contracts/utils/Strings.sol\":1854:1891  buffer[i] = _HEX_SYMBOLS[value & 0xf] */\n      swap1\n      not(0xffffffffffffffffffffffffffffffffffffffffffffffffffffffffffffff)\n      and\n      swap1\n      dup2\n      0x00\n      byte\n      swap1\n      mstore8\n      pop\n        /* \"@openzeppelin/contracts/utils/Strings.sol\":1915:1916  4 */\n      0x04\n        /* \"@openzeppelin/contracts/utils/Strings.sol\":1905:1916  value >>= 4 */\n      dup6\n      swap1\n      shr\n      swap5\n      pop\n        /* \"@openzeppelin/contracts/utils/Strings.sol\":1835:1838  --i */\n      dup1\n      tag_293\n      swap1\n      tag_294\n      jump\t// in\n    tag_293:\n      swap1\n      pop\n        /* \"@openzeppelin/contracts/utils/Strings.sol\":1795:1927  for (uint256 i = 2 * length + 1; i > 1; --i) {... */\n      jump(tag_286)\n    tag_287:\n      pop\n        /* \"@openzeppelin/contracts/utils/Strings.sol\":1953:1954  0 */\n      0x00\n        /* \"@openzeppelin/contracts/utils/Strings.sol\":1944:1949  value */\n      dup5\n        /* \"@openzeppelin/contracts/utils/Strings.sol\":1944:1954  value == 0 */\n      eq\n        /* \"@openzeppelin/contracts/utils/Strings.sol\":1936:1991  require(value == 0, \"Strings: hex length insufficient\") */\n      tag_295\n      jumpi\n      mload(0x40)\n      0x08c379a000000000000000000000000000000000000000000000000000000000\n      dup2\n      mstore\n      0x04\n      add\n      tag_296\n      swap1\n      tag_297\n      jump\t// in\n    tag_296:\n      mload(0x40)\n      dup1\n      swap2\n      sub\n      swap1\n      revert\n    tag_295:\n        /* \"@openzeppelin/contracts/utils/Strings.sol\":2015:2021  buffer */\n      dup1\n        /* \"@openzeppelin/contracts/utils/Strings.sol\":2001:2022  return string(buffer) */\n      swap2\n      pop\n      pop\n        /* \"@openzeppelin/contracts/utils/Strings.sol\":1588:2029  function toHexString(uint256 value, uint256 length) internal pure returns (string memory) {... */\n      swap3\n      swap2\n      pop\n      pop\n      jump\t// out\n        /* \"#utility.yul\":7:350   */\n    tag_299:\n        /* \"#utility.yul\":84:89   */\n      0x00\n        /* \"#utility.yul\":109:174   */\n      tag_301\n        /* \"#utility.yul\":125:173   */\n      tag_302\n        /* \"#utility.yul\":166:172   */\n      dup5\n        /* \"#utility.yul\":125:173   */\n      tag_303\n      jump\t// in\n    tag_302:\n        /* \"#utility.yul\":109:174   */\n      tag_304\n      jump\t// in\n    tag_301:\n        /* \"#utility.yul\":100:174   */\n      swap1\n      pop\n        /* \"#utility.yul\":197:203   */\n      dup3\n        /* \"#utility.yul\":190:195   */\n      dup2\n        /* \"#utility.yul\":183:204   */\n      mstore\n        /* \"#utility.yul\":235:239   */\n      0x20\n        /* \"#utility.yul\":228:233   */\n      dup2\n        /* \"#utility.yul\":224:240   */\n      add\n        /* \"#utility.yul\":273:276   */\n      dup5\n        /* \"#utility.yul\":264:270   */\n      dup5\n        /* \"#utility.yul\":259:262   */\n      dup5\n        /* \"#utility.yul\":255:271   */\n      add\n        /* \"#utility.yul\":252:277   */\n      gt\n        /* \"#utility.yul\":249:251   */\n      iszero\n      tag_305\n      jumpi\n        /* \"#utility.yul\":290:291   */\n      0x00\n        /* \"#utility.yul\":287:288   */\n      dup1\n        /* \"#utility.yul\":280:292   */\n      revert\n        /* \"#utility.yul\":249:251   */\n    tag_305:\n        /* \"#utility.yul\":303:344   */\n      tag_306\n        /* \"#utility.yul\":337:343   */\n      dup5\n        /* \"#utility.yul\":332:335   */\n      dup3\n        /* \"#utility.yul\":327:330   */\n      dup6\n        /* \"#utility.yul\":303:344   */\n      tag_307\n      jump\t// in\n    tag_306:\n        /* \"#utility.yul\":90:350   */\n      pop\n      swap4\n      swap3\n      pop\n      pop\n      pop\n      jump\t// out\n        /* \"#utility.yul\":356:708   */\n    tag_308:\n        /* \"#utility.yul\":444:449   */\n      0x00\n        /* \"#utility.yul\":469:534   */\n      tag_310\n        /* \"#utility.yul\":485:533   */\n      tag_311\n        /* \"#utility.yul\":526:532   */\n      dup5\n        /* \"#utility.yul\":485:533   */\n      tag_303\n      jump\t// in\n    tag_311:\n        /* \"#utility.yul\":469:534   */\n      tag_304\n      jump\t// in\n    tag_310:\n        /* \"#utility.yul\":460:534   */\n      swap1\n      pop\n        /* \"#utility.yul\":557:563   */\n      dup3\n        /* \"#utility.yul\":550:555   */\n      dup2\n        /* \"#utility.yul\":543:564   */\n      mstore\n        /* \"#utility.yul\":595:599   */\n      0x20\n        /* \"#utility.yul\":588:593   */\n      dup2\n        /* \"#utility.yul\":584:600   */\n      add\n        /* \"#utility.yul\":633:636   */\n      dup5\n        /* \"#utility.yul\":624:630   */\n      dup5\n        /* \"#utility.yul\":619:622   */\n      dup5\n        /* \"#utility.yul\":615:631   */\n      add\n        /* \"#utility.yul\":612:637   */\n      gt\n        /* \"#utility.yul\":609:611   */\n      iszero\n      tag_312\n      jumpi\n        /* \"#utility.yul\":650:651   */\n      0x00\n        /* \"#utility.yul\":647:648   */\n      dup1\n        /* \"#utility.yul\":640:652   */\n      revert\n        /* \"#utility.yul\":609:611   */\n    tag_312:\n        /* \"#utility.yul\":663:702   */\n      tag_313\n        /* \"#utility.yul\":695:701   */\n      dup5\n        /* \"#utility.yul\":690:693   */\n      dup3\n        /* \"#utility.yul\":685:688   */\n      dup6\n        /* \"#utility.yul\":663:702   */\n      tag_314\n      jump\t// in\n    tag_313:\n        /* \"#utility.yul\":450:708   */\n      pop\n      swap4\n      swap3\n      pop\n      pop\n      pop\n      jump\t// out\n        /* \"#utility.yul\":714:853   */\n    tag_315:\n        /* \"#utility.yul\":760:765   */\n      0x00\n        /* \"#utility.yul\":798:804   */\n      dup2\n        /* \"#utility.yul\":785:805   */\n      calldataload\n        /* \"#utility.yul\":776:805   */\n      swap1\n      pop\n        /* \"#utility.yul\":814:847   */\n      tag_317\n        /* \"#utility.yul\":841:846   */\n      dup2\n        /* \"#utility.yul\":814:847   */\n      tag_318\n      jump\t// in\n    tag_317:\n        /* \"#utility.yul\":766:853   */\n      swap3\n      swap2\n      pop\n      pop\n      jump\t// out\n        /* \"#utility.yul\":859:998   */\n    tag_319:\n        /* \"#utility.yul\":905:910   */\n      0x00\n        /* \"#utility.yul\":943:949   */\n      dup2\n        /* \"#utility.yul\":930:950   */\n      calldataload\n        /* \"#utility.yul\":921:950   */\n      swap1\n      pop\n        /* \"#utility.yul\":959:992   */\n      tag_321\n        /* \"#utility.yul\":986:991   */\n      dup2\n        /* \"#utility.yul\":959:992   */\n      tag_322\n      jump\t// in\n    tag_321:\n        /* \"#utility.yul\":911:998   */\n      swap3\n      swap2\n      pop\n      pop\n      jump\t// out\n        /* \"#utility.yul\":1004:1147   */\n    tag_323:\n        /* \"#utility.yul\":1061:1066   */\n      0x00\n        /* \"#utility.yul\":1092:1098   */\n      dup2\n        /* \"#utility.yul\":1086:1099   */\n      mload\n        /* \"#utility.yul\":1077:1099   */\n      swap1\n      pop\n        /* \"#utility.yul\":1108:1141   */\n      tag_325\n        /* \"#utility.yul\":1135:1140   */\n      dup2\n        /* \"#utility.yul\":1108:1141   */\n      tag_322\n      jump\t// in\n    tag_325:\n        /* \"#utility.yul\":1067:1147   */\n      swap3\n      swap2\n      pop\n      pop\n      jump\t// out\n        /* \"#utility.yul\":1153:1290   */\n    tag_326:\n        /* \"#utility.yul\":1198:1203   */\n      0x00\n        /* \"#utility.yul\":1236:1242   */\n      dup2\n        /* \"#utility.yul\":1223:1243   */\n      calldataload\n        /* \"#utility.yul\":1214:1243   */\n      swap1\n      pop\n        /* \"#utility.yul\":1252:1284   */\n      tag_328\n        /* \"#utility.yul\":1278:1283   */\n      dup2\n        /* \"#utility.yul\":1252:1284   */\n      tag_329\n      jump\t// in\n    tag_328:\n        /* \"#utility.yul\":1204:1290   */\n      swap3\n      swap2\n      pop\n      pop\n      jump\t// out\n        /* \"#utility.yul\":1309:1580   */\n    tag_330:\n        /* \"#utility.yul\":1364:1369   */\n      0x00\n        /* \"#utility.yul\":1413:1416   */\n      dup3\n        /* \"#utility.yul\":1406:1410   */\n      0x1f\n        /* \"#utility.yul\":1398:1404   */\n      dup4\n        /* \"#utility.yul\":1394:1411   */\n      add\n        /* \"#utility.yul\":1390:1417   */\n      slt\n        /* \"#utility.yul\":1380:1382   */\n      tag_332\n      jumpi\n        /* \"#utility.yul\":1431:1432   */\n      0x00\n        /* \"#utility.yul\":1428:1429   */\n      dup1\n        /* \"#utility.yul\":1421:1433   */\n      revert\n        /* \"#utility.yul\":1380:1382   */\n    tag_332:\n        /* \"#utility.yul\":1471:1477   */\n      dup2\n        /* \"#utility.yul\":1458:1478   */\n      calldataload\n        /* \"#utility.yul\":1496:1574   */\n      tag_333\n        /* \"#utility.yul\":1570:1573   */\n      dup5\n        /* \"#utility.yul\":1562:1568   */\n      dup3\n        /* \"#utility.yul\":1555:1559   */\n      0x20\n        /* \"#utility.yul\":1547:1553   */\n      dup7\n        /* \"#utility.yul\":1543:1560   */\n      add\n        /* \"#utility.yul\":1496:1574   */\n      tag_299\n      jump\t// in\n    tag_333:\n        /* \"#utility.yul\":1487:1574   */\n      swap2\n      pop\n        /* \"#utility.yul\":1370:1580   */\n      pop\n      swap3\n      swap2\n      pop\n      pop\n      jump\t// out\n        /* \"#utility.yul\":1599:1885   */\n    tag_334:\n        /* \"#utility.yul\":1665:1670   */\n      0x00\n        /* \"#utility.yul\":1714:1717   */\n      dup3\n        /* \"#utility.yul\":1707:1711   */\n      0x1f\n        /* \"#utility.yul\":1699:1705   */\n      dup4\n        /* \"#utility.yul\":1695:1712   */\n      add\n        /* \"#utility.yul\":1691:1718   */\n      slt\n        /* \"#utility.yul\":1681:1683   */\n      tag_336\n      jumpi\n        /* \"#utility.yul\":1732:1733   */\n      0x00\n        /* \"#utility.yul\":1729:1730   */\n      dup1\n        /* \"#utility.yul\":1722:1734   */\n      revert\n        /* \"#utility.yul\":1681:1683   */\n    tag_336:\n        /* \"#utility.yul\":1765:1771   */\n      dup2\n        /* \"#utility.yul\":1759:1772   */\n      mload\n        /* \"#utility.yul\":1790:1879   */\n      tag_337\n        /* \"#utility.yul\":1875:1878   */\n      dup5\n        /* \"#utility.yul\":1867:1873   */\n      dup3\n        /* \"#utility.yul\":1860:1864   */\n      0x20\n        /* \"#utility.yul\":1852:1858   */\n      dup7\n        /* \"#utility.yul\":1848:1865   */\n      add\n        /* \"#utility.yul\":1790:1879   */\n      tag_308\n      jump\t// in\n    tag_337:\n        /* \"#utility.yul\":1781:1879   */\n      swap2\n      pop\n        /* \"#utility.yul\":1671:1885   */\n      pop\n      swap3\n      swap2\n      pop\n      pop\n      jump\t// out\n        /* \"#utility.yul\":1891:2030   */\n    tag_338:\n        /* \"#utility.yul\":1937:1942   */\n      0x00\n        /* \"#utility.yul\":1975:1981   */\n      dup2\n        /* \"#utility.yul\":1962:1982   */\n      calldataload\n        /* \"#utility.yul\":1953:1982   */\n      swap1\n      pop\n        /* \"#utility.yul\":1991:2024   */\n      tag_340\n        /* \"#utility.yul\":2018:2023   */\n      dup2\n        /* \"#utility.yul\":1991:2024   */\n      tag_341\n      jump\t// in\n    tag_340:\n        /* \"#utility.yul\":1943:2030   */\n      swap3\n      swap2\n      pop\n      pop\n      jump\t// out\n        /* \"#utility.yul\":2036:2699   */\n    tag_63:\n        /* \"#utility.yul\":2122:2128   */\n      0x00\n        /* \"#utility.yul\":2130:2136   */\n      dup1\n        /* \"#utility.yul\":2138:2144   */\n      0x00\n        /* \"#utility.yul\":2187:2189   */\n      0x60\n        /* \"#utility.yul\":2175:2184   */\n      dup5\n        /* \"#utility.yul\":2166:2173   */\n      dup7\n        /* \"#utility.yul\":2162:2185   */\n      sub\n        /* \"#utility.yul\":2158:2190   */\n      slt\n        /* \"#utility.yul\":2155:2157   */\n      iszero\n      tag_343\n      jumpi\n        /* \"#utility.yul\":2203:2204   */\n      0x00\n        /* \"#utility.yul\":2200:2201   */\n      dup1\n        /* \"#utility.yul\":2193:2205   */\n      revert\n        /* \"#utility.yul\":2155:2157   */\n    tag_343:\n        /* \"#utility.yul\":2246:2247   */\n      0x00\n        /* \"#utility.yul\":2271:2324   */\n      tag_344\n        /* \"#utility.yul\":2316:2323   */\n      dup7\n        /* \"#utility.yul\":2307:2313   */\n      dup3\n        /* \"#utility.yul\":2296:2305   */\n      dup8\n        /* \"#utility.yul\":2292:2314   */\n      add\n        /* \"#utility.yul\":2271:2324   */\n      tag_315\n      jump\t// in\n    tag_344:\n        /* \"#utility.yul\":2261:2324   */\n      swap4\n      pop\n        /* \"#utility.yul\":2217:2334   */\n      pop\n        /* \"#utility.yul\":2373:2375   */\n      0x20\n        /* \"#utility.yul\":2399:2452   */\n      tag_345\n        /* \"#utility.yul\":2444:2451   */\n      dup7\n        /* \"#utility.yul\":2435:2441   */\n      dup3\n        /* \"#utility.yul\":2424:2433   */\n      dup8\n        /* \"#utility.yul\":2420:2442   */\n      add\n        /* \"#utility.yul\":2399:2452   */\n      tag_319\n      jump\t// in\n    tag_345:\n        /* \"#utility.yul\":2389:2452   */\n      swap3\n      pop\n        /* \"#utility.yul\":2344:2462   */\n      pop\n        /* \"#utility.yul\":2529:2531   */\n      0x40\n        /* \"#utility.yul\":2518:2527   */\n      dup5\n        /* \"#utility.yul\":2514:2532   */\n      add\n        /* \"#utility.yul\":2501:2533   */\n      calldataload\n        /* \"#utility.yul\":2560:2578   */\n      0xffffffffffffffff\n        /* \"#utility.yul\":2552:2558   */\n      dup2\n        /* \"#utility.yul\":2549:2579   */\n      gt\n        /* \"#utility.yul\":2546:2548   */\n      iszero\n      tag_346\n      jumpi\n        /* \"#utility.yul\":2592:2593   */\n      0x00\n        /* \"#utility.yul\":2589:2590   */\n      dup1\n        /* \"#utility.yul\":2582:2594   */\n      revert\n        /* \"#utility.yul\":2546:2548   */\n    tag_346:\n        /* \"#utility.yul\":2620:2682   */\n      tag_347\n        /* \"#utility.yul\":2674:2681   */\n      dup7\n        /* \"#utility.yul\":2665:2671   */\n      dup3\n        /* \"#utility.yul\":2654:2663   */\n      dup8\n        /* \"#utility.yul\":2650:2672   */\n      add\n        /* \"#utility.yul\":2620:2682   */\n      tag_330\n      jump\t// in\n    tag_347:\n        /* \"#utility.yul\":2610:2682   */\n      swap2\n      pop\n        /* \"#utility.yul\":2472:2692   */\n      pop\n        /* \"#utility.yul\":2145:2699   */\n      swap3\n      pop\n      swap3\n      pop\n      swap3\n      jump\t// out\n        /* \"#utility.yul\":2705:2967   */\n    tag_38:\n        /* \"#utility.yul\":2764:2770   */\n      0x00\n        /* \"#utility.yul\":2813:2815   */\n      0x20\n        /* \"#utility.yul\":2801:2810   */\n      dup3\n        /* \"#utility.yul\":2792:2799   */\n      dup5\n        /* \"#utility.yul\":2788:2811   */\n      sub\n        /* \"#utility.yul\":2784:2816   */\n      slt\n        /* \"#utility.yul\":2781:2783   */\n      iszero\n      tag_349\n      jumpi\n        /* \"#utility.yul\":2829:2830   */\n      0x00\n        /* \"#utility.yul\":2826:2827   */\n      dup1\n        /* \"#utility.yul\":2819:2831   */\n      revert\n        /* \"#utility.yul\":2781:2783   */\n    tag_349:\n        /* \"#utility.yul\":2872:2873   */\n      0x00\n        /* \"#utility.yul\":2897:2950   */\n      tag_350\n        /* \"#utility.yul\":2942:2949   */\n      dup5\n        /* \"#utility.yul\":2933:2939   */\n      dup3\n        /* \"#utility.yul\":2922:2931   */\n      dup6\n        /* \"#utility.yul\":2918:2940   */\n      add\n        /* \"#utility.yul\":2897:2950   */\n      tag_319\n      jump\t// in\n    tag_350:\n        /* \"#utility.yul\":2887:2950   */\n      swap2\n      pop\n        /* \"#utility.yul\":2843:2960   */\n      pop\n        /* \"#utility.yul\":2771:2967   */\n      swap3\n      swap2\n      pop\n      pop\n      jump\t// out\n        /* \"#utility.yul\":2973:3257   */\n    tag_172:\n        /* \"#utility.yul\":3043:3049   */\n      0x00\n        /* \"#utility.yul\":3092:3094   */\n      0x20\n        /* \"#utility.yul\":3080:3089   */\n      dup3\n        /* \"#utility.yul\":3071:3078   */\n      dup5\n        /* \"#utility.yul\":3067:3090   */\n      sub\n        /* \"#utility.yul\":3063:3095   */\n      slt\n        /* \"#utility.yul\":3060:3062   */\n      iszero\n      tag_352\n      jumpi\n        /* \"#utility.yul\":3108:3109   */\n      0x00\n        /* \"#utility.yul\":3105:3106   */\n      dup1\n        /* \"#utility.yul\":3098:3110   */\n      revert\n        /* \"#utility.yul\":3060:3062   */\n    tag_352:\n        /* \"#utility.yul\":3151:3152   */\n      0x00\n        /* \"#utility.yul\":3176:3240   */\n      tag_353\n        /* \"#utility.yul\":3232:3239   */\n      dup5\n        /* \"#utility.yul\":3223:3229   */\n      dup3\n        /* \"#utility.yul\":3212:3221   */\n      dup6\n        /* \"#utility.yul\":3208:3230   */\n      add\n        /* \"#utility.yul\":3176:3240   */\n      tag_323\n      jump\t// in\n    tag_353:\n        /* \"#utility.yul\":3166:3240   */\n      swap2\n      pop\n        /* \"#utility.yul\":3122:3250   */\n      pop\n        /* \"#utility.yul\":3050:3257   */\n      swap3\n      swap2\n      pop\n      pop\n      jump\t// out\n        /* \"#utility.yul\":3263:3670   */\n    tag_44:\n        /* \"#utility.yul\":3331:3337   */\n      0x00\n        /* \"#utility.yul\":3339:3345   */\n      dup1\n        /* \"#utility.yul\":3388:3390   */\n      0x40\n        /* \"#utility.yul\":3376:3385   */\n      dup4\n        /* \"#utility.yul\":3367:3374   */\n      dup6\n        /* \"#utility.yul\":3363:3386   */\n      sub\n        /* \"#utility.yul\":3359:3391   */\n      slt\n        /* \"#utility.yul\":3356:3358   */\n      iszero\n      tag_355\n      jumpi\n        /* \"#utility.yul\":3404:3405   */\n      0x00\n        /* \"#utility.yul\":3401:3402   */\n      dup1\n        /* \"#utility.yul\":3394:3406   */\n      revert\n        /* \"#utility.yul\":3356:3358   */\n    tag_355:\n        /* \"#utility.yul\":3447:3448   */\n      0x00\n        /* \"#utility.yul\":3472:3525   */\n      tag_356\n        /* \"#utility.yul\":3517:3524   */\n      dup6\n        /* \"#utility.yul\":3508:3514   */\n      dup3\n        /* \"#utility.yul\":3497:3506   */\n      dup7\n        /* \"#utility.yul\":3493:3515   */\n      add\n        /* \"#utility.yul\":3472:3525   */\n      tag_319\n      jump\t// in\n    tag_356:\n        /* \"#utility.yul\":3462:3525   */\n      swap3\n      pop\n        /* \"#utility.yul\":3418:3535   */\n      pop\n        /* \"#utility.yul\":3574:3576   */\n      0x20\n        /* \"#utility.yul\":3600:3653   */\n      tag_357\n        /* \"#utility.yul\":3645:3652   */\n      dup6\n        /* \"#utility.yul\":3636:3642   */\n      dup3\n        /* \"#utility.yul\":3625:3634   */\n      dup7\n        /* \"#utility.yul\":3621:3643   */\n      add\n        /* \"#utility.yul\":3600:3653   */\n      tag_315\n      jump\t// in\n    tag_357:\n        /* \"#utility.yul\":3590:3653   */\n      swap2\n      pop\n        /* \"#utility.yul\":3545:3663   */\n      pop\n        /* \"#utility.yul\":3346:3670   */\n      swap3\n      pop\n      swap3\n      swap1\n      pop\n      jump\t// out\n        /* \"#utility.yul\":3676:3936   */\n    tag_32:\n        /* \"#utility.yul\":3734:3740   */\n      0x00\n        /* \"#utility.yul\":3783:3785   */\n      0x20\n        /* \"#utility.yul\":3771:3780   */\n      dup3\n        /* \"#utility.yul\":3762:3769   */\n      dup5\n        /* \"#utility.yul\":3758:3781   */\n      sub\n        /* \"#utility.yul\":3754:3786   */\n      slt\n        /* \"#utility.yul\":3751:3753   */\n      iszero\n      tag_359\n      jumpi\n        /* \"#utility.yul\":3799:3800   */\n      0x00\n        /* \"#utility.yul\":3796:3797   */\n      dup1\n        /* \"#utility.yul\":3789:3801   */\n      revert\n        /* \"#utility.yul\":3751:3753   */\n    tag_359:\n        /* \"#utility.yul\":3842:3843   */\n      0x00\n        /* \"#utility.yul\":3867:3919   */\n      tag_360\n        /* \"#utility.yul\":3911:3918   */\n      dup5\n        /* \"#utility.yul\":3902:3908   */\n      dup3\n        /* \"#utility.yul\":3891:3900   */\n      dup6\n        /* \"#utility.yul\":3887:3909   */\n      add\n        /* \"#utility.yul\":3867:3919   */\n      tag_326\n      jump\t// in\n    tag_360:\n        /* \"#utility.yul\":3857:3919   */\n      swap2\n      pop\n        /* \"#utility.yul\":3813:3929   */\n      pop\n        /* \"#utility.yul\":3741:3936   */\n      swap3\n      swap2\n      pop\n      pop\n      jump\t// out\n        /* \"#utility.yul\":3942:4315   */\n    tag_48:\n        /* \"#utility.yul\":4010:4016   */\n      0x00\n        /* \"#utility.yul\":4059:4061   */\n      0x20\n        /* \"#utility.yul\":4047:4056   */\n      dup3\n        /* \"#utility.yul\":4038:4045   */\n      dup5\n        /* \"#utility.yul\":4034:4057   */\n      sub\n        /* \"#utility.yul\":4030:4062   */\n      slt\n        /* \"#utility.yul\":4027:4029   */\n      iszero\n      tag_362\n      jumpi\n        /* \"#utility.yul\":4075:4076   */\n      0x00\n        /* \"#utility.yul\":4072:4073   */\n      dup1\n        /* \"#utility.yul\":4065:4077   */\n      revert\n        /* \"#utility.yul\":4027:4029   */\n    tag_362:\n        /* \"#utility.yul\":4146:4147   */\n      0x00\n        /* \"#utility.yul\":4135:4144   */\n      dup3\n        /* \"#utility.yul\":4131:4148   */\n      add\n        /* \"#utility.yul\":4118:4149   */\n      calldataload\n        /* \"#utility.yul\":4176:4194   */\n      0xffffffffffffffff\n        /* \"#utility.yul\":4168:4174   */\n      dup2\n        /* \"#utility.yul\":4165:4195   */\n      gt\n        /* \"#utility.yul\":4162:4164   */\n      iszero\n      tag_363\n      jumpi\n        /* \"#utility.yul\":4208:4209   */\n      0x00\n        /* \"#utility.yul\":4205:4206   */\n      dup1\n        /* \"#utility.yul\":4198:4210   */\n      revert\n        /* \"#utility.yul\":4162:4164   */\n    tag_363:\n        /* \"#utility.yul\":4236:4298   */\n      tag_364\n        /* \"#utility.yul\":4290:4297   */\n      dup5\n        /* \"#utility.yul\":4281:4287   */\n      dup3\n        /* \"#utility.yul\":4270:4279   */\n      dup6\n        /* \"#utility.yul\":4266:4288   */\n      add\n        /* \"#utility.yul\":4236:4298   */\n      tag_330\n      jump\t// in\n    tag_364:\n        /* \"#utility.yul\":4226:4298   */\n      swap2\n      pop\n        /* \"#utility.yul\":4089:4308   */\n      pop\n        /* \"#utility.yul\":4017:4315   */\n      swap3\n      swap2\n      pop\n      pop\n      jump\t// out\n        /* \"#utility.yul\":4321:4709   */\n    tag_164:\n        /* \"#utility.yul\":4400:4406   */\n      0x00\n        /* \"#utility.yul\":4449:4451   */\n      0x20\n        /* \"#utility.yul\":4437:4446   */\n      dup3\n        /* \"#utility.yul\":4428:4435   */\n      dup5\n        /* \"#utility.yul\":4424:4447   */\n      sub\n        /* \"#utility.yul\":4420:4452   */\n      slt\n        /* \"#utility.yul\":4417:4419   */\n      iszero\n      tag_366\n      jumpi\n        /* \"#utility.yul\":4465:4466   */\n      0x00\n        /* \"#utility.yul\":4462:4463   */\n      dup1\n        /* \"#utility.yul\":4455:4467   */\n      revert\n        /* \"#utility.yul\":4417:4419   */\n    tag_366:\n        /* \"#utility.yul\":4529:4530   */\n      0x00\n        /* \"#utility.yul\":4518:4527   */\n      dup3\n        /* \"#utility.yul\":4514:4531   */\n      add\n        /* \"#utility.yul\":4508:4532   */\n      mload\n        /* \"#utility.yul\":4559:4577   */\n      0xffffffffffffffff\n        /* \"#utility.yul\":4551:4557   */\n      dup2\n        /* \"#utility.yul\":4548:4578   */\n      gt\n        /* \"#utility.yul\":4545:4547   */\n      iszero\n      tag_367\n      jumpi\n        /* \"#utility.yul\":4591:4592   */\n      0x00\n        /* \"#utility.yul\":4588:4589   */\n      dup1\n        /* \"#utility.yul\":4581:4593   */\n      revert\n        /* \"#utility.yul\":4545:4547   */\n    tag_367:\n        /* \"#utility.yul\":4619:4692   */\n      tag_368\n        /* \"#utility.yul\":4684:4691   */\n      dup5\n        /* \"#utility.yul\":4675:4681   */\n      dup3\n        /* \"#utility.yul\":4664:4673   */\n      dup6\n        /* \"#utility.yul\":4660:4682   */\n      add\n        /* \"#utility.yul\":4619:4692   */\n      tag_334\n      jump\t// in\n    tag_368:\n        /* \"#utility.yul\":4609:4692   */\n      swap2\n      pop\n        /* \"#utility.yul\":4479:4702   */\n      pop\n        /* \"#utility.yul\":4407:4709   */\n      swap3\n      swap2\n      pop\n      pop\n      jump\t// out\n        /* \"#utility.yul\":4715:5233   */\n    tag_90:\n        /* \"#utility.yul\":4792:4798   */\n      0x00\n        /* \"#utility.yul\":4800:4806   */\n      dup1\n        /* \"#utility.yul\":4849:4851   */\n      0x40\n        /* \"#utility.yul\":4837:4846   */\n      dup4\n        /* \"#utility.yul\":4828:4835   */\n      dup6\n        /* \"#utility.yul\":4824:4847   */\n      sub\n        /* \"#utility.yul\":4820:4852   */\n      slt\n        /* \"#utility.yul\":4817:4819   */\n      iszero\n      tag_370\n      jumpi\n        /* \"#utility.yul\":4865:4866   */\n      0x00\n        /* \"#utility.yul\":4862:4863   */\n      dup1\n        /* \"#utility.yul\":4855:4867   */\n      revert\n        /* \"#utility.yul\":4817:4819   */\n    tag_370:\n        /* \"#utility.yul\":4936:4937   */\n      0x00\n        /* \"#utility.yul\":4925:4934   */\n      dup4\n        /* \"#utility.yul\":4921:4938   */\n      add\n        /* \"#utility.yul\":4908:4939   */\n      calldataload\n        /* \"#utility.yul\":4966:4984   */\n      0xffffffffffffffff\n        /* \"#utility.yul\":4958:4964   */\n      dup2\n        /* \"#utility.yul\":4955:4985   */\n      gt\n        /* \"#utility.yul\":4952:4954   */\n      iszero\n      tag_371\n      jumpi\n        /* \"#utility.yul\":4998:4999   */\n      0x00\n        /* \"#utility.yul\":4995:4996   */\n      dup1\n        /* \"#utility.yul\":4988:5000   */\n      revert\n        /* \"#utility.yul\":4952:4954   */\n    tag_371:\n        /* \"#utility.yul\":5026:5088   */\n      tag_372\n        /* \"#utility.yul\":5080:5087   */\n      dup6\n        /* \"#utility.yul\":5071:5077   */\n      dup3\n        /* \"#utility.yul\":5060:5069   */\n      dup7\n        /* \"#utility.yul\":5056:5078   */\n      add\n        /* \"#utility.yul\":5026:5088   */\n      tag_330\n      jump\t// in\n    tag_372:\n        /* \"#utility.yul\":5016:5088   */\n      swap3\n      pop\n        /* \"#utility.yul\":4879:5098   */\n      pop\n        /* \"#utility.yul\":5137:5139   */\n      0x20\n        /* \"#utility.yul\":5163:5216   */\n      tag_373\n        /* \"#utility.yul\":5208:5215   */\n      dup6\n        /* \"#utility.yul\":5199:5205   */\n      dup3\n        /* \"#utility.yul\":5188:5197   */\n      dup7\n        /* \"#utility.yul\":5184:5206   */\n      add\n        /* \"#utility.yul\":5163:5216   */\n      tag_338\n      jump\t// in\n    tag_373:\n        /* \"#utility.yul\":5153:5216   */\n      swap2\n      pop\n        /* \"#utility.yul\":5108:5226   */\n      pop\n        /* \"#utility.yul\":4807:5233   */\n      swap3\n      pop\n      swap3\n      swap1\n      pop\n      jump\t// out\n        /* \"#utility.yul\":5239:5501   */\n    tag_28:\n        /* \"#utility.yul\":5298:5304   */\n      0x00\n        /* \"#utility.yul\":5347:5349   */\n      0x20\n        /* \"#utility.yul\":5335:5344   */\n      dup3\n        /* \"#utility.yul\":5326:5333   */\n      dup5\n        /* \"#utility.yul\":5322:5345   */\n      sub\n        /* \"#utility.yul\":5318:5350   */\n      slt\n        /* \"#utility.yul\":5315:5317   */\n      iszero\n      tag_375\n      jumpi\n        /* \"#utility.yul\":5363:5364   */\n      0x00\n        /* \"#utility.yul\":5360:5361   */\n      dup1\n        /* \"#utility.yul\":5353:5365   */\n      revert\n        /* \"#utility.yul\":5315:5317   */\n    tag_375:\n        /* \"#utility.yul\":5406:5407   */\n      0x00\n        /* \"#utility.yul\":5431:5484   */\n      tag_376\n        /* \"#utility.yul\":5476:5483   */\n      dup5\n        /* \"#utility.yul\":5467:5473   */\n      dup3\n        /* \"#utility.yul\":5456:5465   */\n      dup6\n        /* \"#utility.yul\":5452:5474   */\n      add\n        /* \"#utility.yul\":5431:5484   */\n      tag_338\n      jump\t// in\n    tag_376:\n        /* \"#utility.yul\":5421:5484   */\n      swap2\n      pop\n        /* \"#utility.yul\":5377:5494   */\n      pop\n        /* \"#utility.yul\":5305:5501   */\n      swap3\n      swap2\n      pop\n      pop\n      jump\t// out\n        /* \"#utility.yul\":5507:5625   */\n    tag_377:\n        /* \"#utility.yul\":5594:5618   */\n      tag_379\n        /* \"#utility.yul\":5612:5617   */\n      dup2\n        /* \"#utility.yul\":5594:5618   */\n      tag_380\n      jump\t// in\n    tag_379:\n        /* \"#utility.yul\":5589:5592   */\n      dup3\n        /* \"#utility.yul\":5582:5619   */\n      mstore\n        /* \"#utility.yul\":5572:5625   */\n      pop\n      pop\n      jump\t// out\n        /* \"#utility.yul\":5631:5740   */\n    tag_381:\n        /* \"#utility.yul\":5712:5733   */\n      tag_383\n        /* \"#utility.yul\":5727:5732   */\n      dup2\n        /* \"#utility.yul\":5712:5733   */\n      tag_384\n      jump\t// in\n    tag_383:\n        /* \"#utility.yul\":5707:5710   */\n      dup3\n        /* \"#utility.yul\":5700:5734   */\n      mstore\n        /* \"#utility.yul\":5690:5740   */\n      pop\n      pop\n      jump\t// out\n        /* \"#utility.yul\":5746:5899   */\n    tag_385:\n        /* \"#utility.yul\":5849:5892   */\n      tag_387\n        /* \"#utility.yul\":5868:5891   */\n      tag_388\n        /* \"#utility.yul\":5885:5890   */\n      dup3\n        /* \"#utility.yul\":5868:5891   */\n      tag_389\n      jump\t// in\n    tag_388:\n        /* \"#utility.yul\":5849:5892   */\n      tag_390\n      jump\t// in\n    tag_387:\n        /* \"#utility.yul\":5844:5847   */\n      dup3\n        /* \"#utility.yul\":5837:5893   */\n      mstore\n        /* \"#utility.yul\":5827:5899   */\n      pop\n      pop\n      jump\t// out\n        /* \"#utility.yul\":5905:6062   */\n    tag_391:\n        /* \"#utility.yul\":6010:6055   */\n      tag_393\n        /* \"#utility.yul\":6030:6054   */\n      tag_394\n        /* \"#utility.yul\":6048:6053   */\n      dup3\n        /* \"#utility.yul\":6030:6054   */\n      tag_395\n      jump\t// in\n    tag_394:\n        /* \"#utility.yul\":6010:6055   */\n      tag_396\n      jump\t// in\n    tag_393:\n        /* \"#utility.yul\":6005:6008   */\n      dup3\n        /* \"#utility.yul\":5998:6056   */\n      mstore\n        /* \"#utility.yul\":5988:6062   */\n      pop\n      pop\n      jump\t// out\n        /* \"#utility.yul\":6068:6186   */\n    tag_397:\n        /* \"#utility.yul\":6155:6179   */\n      tag_399\n        /* \"#utility.yul\":6173:6178   */\n      dup2\n        /* \"#utility.yul\":6155:6179   */\n      tag_400\n      jump\t// in\n    tag_399:\n        /* \"#utility.yul\":6150:6153   */\n      dup3\n        /* \"#utility.yul\":6143:6180   */\n      mstore\n        /* \"#utility.yul\":6133:6186   */\n      pop\n      pop\n      jump\t// out\n        /* \"#utility.yul\":6192:6349   */\n    tag_401:\n        /* \"#utility.yul\":6297:6342   */\n      tag_403\n        /* \"#utility.yul\":6317:6341   */\n      tag_404\n        /* \"#utility.yul\":6335:6340   */\n      dup3\n        /* \"#utility.yul\":6317:6341   */\n      tag_400\n      jump\t// in\n    tag_404:\n        /* \"#utility.yul\":6297:6342   */\n      tag_405\n      jump\t// in\n    tag_403:\n        /* \"#utility.yul\":6292:6295   */\n      dup3\n        /* \"#utility.yul\":6285:6343   */\n      mstore\n        /* \"#utility.yul\":6275:6349   */\n      pop\n      pop\n      jump\t// out\n        /* \"#utility.yul\":6355:6715   */\n    tag_406:\n        /* \"#utility.yul\":6441:6444   */\n      0x00\n        /* \"#utility.yul\":6469:6507   */\n      tag_408\n        /* \"#utility.yul\":6501:6506   */\n      dup3\n        /* \"#utility.yul\":6469:6507   */\n      tag_409\n      jump\t// in\n    tag_408:\n        /* \"#utility.yul\":6523:6593   */\n      tag_410\n        /* \"#utility.yul\":6586:6592   */\n      dup2\n        /* \"#utility.yul\":6581:6584   */\n      dup6\n        /* \"#utility.yul\":6523:6593   */\n      tag_411\n      jump\t// in\n    tag_410:\n        /* \"#utility.yul\":6516:6593   */\n      swap4\n      pop\n        /* \"#utility.yul\":6602:6654   */\n      tag_412\n        /* \"#utility.yul\":6647:6653   */\n      dup2\n        /* \"#utility.yul\":6642:6645   */\n      dup6\n        /* \"#utility.yul\":6635:6639   */\n      0x20\n        /* \"#utility.yul\":6628:6633   */\n      dup7\n        /* \"#utility.yul\":6624:6640   */\n      add\n        /* \"#utility.yul\":6602:6654   */\n      tag_314\n      jump\t// in\n    tag_412:\n        /* \"#utility.yul\":6679:6708   */\n      tag_413\n        /* \"#utility.yul\":6701:6707   */\n      dup2\n        /* \"#utility.yul\":6679:6708   */\n      tag_414\n      jump\t// in\n    tag_413:\n        /* \"#utility.yul\":6674:6677   */\n      dup5\n        /* \"#utility.yul\":6670:6709   */\n      add\n        /* \"#utility.yul\":6663:6709   */\n      swap2\n      pop\n        /* \"#utility.yul\":6445:6715   */\n      pop\n      swap3\n      swap2\n      pop\n      pop\n      jump\t// out\n        /* \"#utility.yul\":6721:7094   */\n    tag_415:\n        /* \"#utility.yul\":6825:6828   */\n      0x00\n        /* \"#utility.yul\":6853:6891   */\n      tag_417\n        /* \"#utility.yul\":6885:6890   */\n      dup3\n        /* \"#utility.yul\":6853:6891   */\n      tag_409\n      jump\t// in\n    tag_417:\n        /* \"#utility.yul\":6907:6995   */\n      tag_418\n        /* \"#utility.yul\":6988:6994   */\n      dup2\n        /* \"#utility.yul\":6983:6986   */\n      dup6\n        /* \"#utility.yul\":6907:6995   */\n      tag_419\n      jump\t// in\n    tag_418:\n        /* \"#utility.yul\":6900:6995   */\n      swap4\n      pop\n        /* \"#utility.yul\":7004:7056   */\n      tag_420\n        /* \"#utility.yul\":7049:7055   */\n      dup2\n        /* \"#utility.yul\":7044:7047   */\n      dup6\n        /* \"#utility.yul\":7037:7041   */\n      0x20\n        /* \"#utility.yul\":7030:7035   */\n      dup7\n        /* \"#utility.yul\":7026:7042   */\n      add\n        /* \"#utility.yul\":7004:7056   */\n      tag_314\n      jump\t// in\n    tag_420:\n        /* \"#utility.yul\":7081:7087   */\n      dup1\n        /* \"#utility.yul\":7076:7079   */\n      dup5\n        /* \"#utility.yul\":7072:7088   */\n      add\n        /* \"#utility.yul\":7065:7088   */\n      swap2\n      pop\n        /* \"#utility.yul\":6829:7094   */\n      pop\n      swap3\n      swap2\n      pop\n      pop\n      jump\t// out\n        /* \"#utility.yul\":7100:7464   */\n    tag_421:\n        /* \"#utility.yul\":7188:7191   */\n      0x00\n        /* \"#utility.yul\":7216:7255   */\n      tag_423\n        /* \"#utility.yul\":7249:7254   */\n      dup3\n        /* \"#utility.yul\":7216:7255   */\n      tag_424\n      jump\t// in\n    tag_423:\n        /* \"#utility.yul\":7271:7342   */\n      tag_425\n        /* \"#utility.yul\":7335:7341   */\n      dup2\n        /* \"#utility.yul\":7330:7333   */\n      dup6\n        /* \"#utility.yul\":7271:7342   */\n      tag_426\n      jump\t// in\n    tag_425:\n        /* \"#utility.yul\":7264:7342   */\n      swap4\n      pop\n        /* \"#utility.yul\":7351:7403   */\n      tag_427\n        /* \"#utility.yul\":7396:7402   */\n      dup2\n        /* \"#utility.yul\":7391:7394   */\n      dup6\n        /* \"#utility.yul\":7384:7388   */\n      0x20\n        /* \"#utility.yul\":7377:7382   */\n      dup7\n        /* \"#utility.yul\":7373:7389   */\n      add\n        /* \"#utility.yul\":7351:7403   */\n      tag_314\n      jump\t// in\n    tag_427:\n        /* \"#utility.yul\":7428:7457   */\n      tag_428\n        /* \"#utility.yul\":7450:7456   */\n      dup2\n        /* \"#utility.yul\":7428:7457   */\n      tag_414\n      jump\t// in\n    tag_428:\n        /* \"#utility.yul\":7423:7426   */\n      dup5\n        /* \"#utility.yul\":7419:7458   */\n      add\n        /* \"#utility.yul\":7412:7458   */\n      swap2\n      pop\n        /* \"#utility.yul\":7192:7464   */\n      pop\n      swap3\n      swap2\n      pop\n      pop\n      jump\t// out\n        /* \"#utility.yul\":7470:7847   */\n    tag_429:\n        /* \"#utility.yul\":7576:7579   */\n      0x00\n        /* \"#utility.yul\":7604:7643   */\n      tag_431\n        /* \"#utility.yul\":7637:7642   */\n      dup3\n        /* \"#utility.yul\":7604:7643   */\n      tag_424\n      jump\t// in\n    tag_431:\n        /* \"#utility.yul\":7659:7748   */\n      tag_432\n        /* \"#utility.yul\":7741:7747   */\n      dup2\n        /* \"#utility.yul\":7736:7739   */\n      dup6\n        /* \"#utility.yul\":7659:7748   */\n      tag_433\n      jump\t// in\n    tag_432:\n        /* \"#utility.yul\":7652:7748   */\n      swap4\n      pop\n        /* \"#utility.yul\":7757:7809   */\n      tag_434\n        /* \"#utility.yul\":7802:7808   */\n      dup2\n        /* \"#utility.yul\":7797:7800   */\n      dup6\n        /* \"#utility.yul\":7790:7794   */\n      0x20\n        /* \"#utility.yul\":7783:7788   */\n      dup7\n        /* \"#utility.yul\":7779:7795   */\n      add\n        /* \"#utility.yul\":7757:7809   */\n      tag_314\n      jump\t// in\n    tag_434:\n        /* \"#utility.yul\":7834:7840   */\n      dup1\n        /* \"#utility.yul\":7829:7832   */\n      dup5\n        /* \"#utility.yul\":7825:7841   */\n      add\n        /* \"#utility.yul\":7818:7841   */\n      swap2\n      pop\n        /* \"#utility.yul\":7580:7847   */\n      pop\n      swap3\n      swap2\n      pop\n      pop\n      jump\t// out\n        /* \"#utility.yul\":7853:8219   */\n    tag_435:\n        /* \"#utility.yul\":7995:7998   */\n      0x00\n        /* \"#utility.yul\":8016:8083   */\n      tag_437\n        /* \"#utility.yul\":8080:8082   */\n      0x20\n        /* \"#utility.yul\":8075:8078   */\n      dup4\n        /* \"#utility.yul\":8016:8083   */\n      tag_426\n      jump\t// in\n    tag_437:\n        /* \"#utility.yul\":8009:8083   */\n      swap2\n      pop\n        /* \"#utility.yul\":8092:8185   */\n      tag_438\n        /* \"#utility.yul\":8181:8184   */\n      dup3\n        /* \"#utility.yul\":8092:8185   */\n      tag_439\n      jump\t// in\n    tag_438:\n        /* \"#utility.yul\":8210:8212   */\n      0x20\n        /* \"#utility.yul\":8205:8208   */\n      dup3\n        /* \"#utility.yul\":8201:8213   */\n      add\n        /* \"#utility.yul\":8194:8213   */\n      swap1\n      pop\n        /* \"#utility.yul\":7999:8219   */\n      swap2\n      swap1\n      pop\n      jump\t// out\n        /* \"#utility.yul\":8225:8591   */\n    tag_440:\n        /* \"#utility.yul\":8367:8370   */\n      0x00\n        /* \"#utility.yul\":8388:8455   */\n      tag_442\n        /* \"#utility.yul\":8452:8454   */\n      0x14\n        /* \"#utility.yul\":8447:8450   */\n      dup4\n        /* \"#utility.yul\":8388:8455   */\n      tag_426\n      jump\t// in\n    tag_442:\n        /* \"#utility.yul\":8381:8455   */\n      swap2\n      pop\n        /* \"#utility.yul\":8464:8557   */\n      tag_443\n        /* \"#utility.yul\":8553:8556   */\n      dup3\n        /* \"#utility.yul\":8464:8557   */\n      tag_444\n      jump\t// in\n    tag_443:\n        /* \"#utility.yul\":8582:8584   */\n      0x20\n        /* \"#utility.yul\":8577:8580   */\n      dup3\n        /* \"#utility.yul\":8573:8585   */\n      add\n        /* \"#utility.yul\":8566:8585   */\n      swap1\n      pop\n        /* \"#utility.yul\":8371:8591   */\n      swap2\n      swap1\n      pop\n      jump\t// out\n        /* \"#utility.yul\":8597:8963   */\n    tag_445:\n        /* \"#utility.yul\":8739:8742   */\n      0x00\n        /* \"#utility.yul\":8760:8827   */\n      tag_447\n        /* \"#utility.yul\":8824:8826   */\n      0x4f\n        /* \"#utility.yul\":8819:8822   */\n      dup4\n        /* \"#utility.yul\":8760:8827   */\n      tag_426\n      jump\t// in\n    tag_447:\n        /* \"#utility.yul\":8753:8827   */\n      swap2\n      pop\n        /* \"#utility.yul\":8836:8929   */\n      tag_448\n        /* \"#utility.yul\":8925:8928   */\n      dup3\n        /* \"#utility.yul\":8836:8929   */\n      tag_449\n      jump\t// in\n    tag_448:\n        /* \"#utility.yul\":8954:8956   */\n      0x60\n        /* \"#utility.yul\":8949:8952   */\n      dup3\n        /* \"#utility.yul\":8945:8957   */\n      add\n        /* \"#utility.yul\":8938:8957   */\n      swap1\n      pop\n        /* \"#utility.yul\":8743:8963   */\n      swap2\n      swap1\n      pop\n      jump\t// out\n        /* \"#utility.yul\":8969:9335   */\n    tag_450:\n        /* \"#utility.yul\":9111:9114   */\n      0x00\n        /* \"#utility.yul\":9132:9199   */\n      tag_452\n        /* \"#utility.yul\":9196:9198   */\n      0x10\n        /* \"#utility.yul\":9191:9194   */\n      dup4\n        /* \"#utility.yul\":9132:9199   */\n      tag_426\n      jump\t// in\n    tag_452:\n        /* \"#utility.yul\":9125:9199   */\n      swap2\n      pop\n        /* \"#utility.yul\":9208:9301   */\n      tag_453\n        /* \"#utility.yul\":9297:9300   */\n      dup3\n        /* \"#utility.yul\":9208:9301   */\n      tag_454\n      jump\t// in\n    tag_453:\n        /* \"#utility.yul\":9326:9328   */\n      0x20\n        /* \"#utility.yul\":9321:9324   */\n      dup3\n        /* \"#utility.yul\":9317:9329   */\n      add\n        /* \"#utility.yul\":9310:9329   */\n      swap1\n      pop\n        /* \"#utility.yul\":9115:9335   */\n      swap2\n      swap1\n      pop\n      jump\t// out\n        /* \"#utility.yul\":9341:9707   */\n    tag_455:\n        /* \"#utility.yul\":9483:9486   */\n      0x00\n        /* \"#utility.yul\":9504:9571   */\n      tag_457\n        /* \"#utility.yul\":9568:9570   */\n      0x53\n        /* \"#utility.yul\":9563:9566   */\n      dup4\n        /* \"#utility.yul\":9504:9571   */\n      tag_426\n      jump\t// in\n    tag_457:\n        /* \"#utility.yul\":9497:9571   */\n      swap2\n      pop\n        /* \"#utility.yul\":9580:9673   */\n      tag_458\n        /* \"#utility.yul\":9669:9672   */\n      dup3\n        /* \"#utility.yul\":9580:9673   */\n      tag_459\n      jump\t// in\n    tag_458:\n        /* \"#utility.yul\":9698:9700   */\n      0x60\n        /* \"#utility.yul\":9693:9696   */\n      dup3\n        /* \"#utility.yul\":9689:9701   */\n      add\n        /* \"#utility.yul\":9682:9701   */\n      swap1\n      pop\n        /* \"#utility.yul\":9487:9707   */\n      swap2\n      swap1\n      pop\n      jump\t// out\n        /* \"#utility.yul\":9713:10079   */\n    tag_460:\n        /* \"#utility.yul\":9855:9858   */\n      0x00\n        /* \"#utility.yul\":9876:9943   */\n      tag_462\n        /* \"#utility.yul\":9940:9942   */\n      0x2c\n        /* \"#utility.yul\":9935:9938   */\n      dup4\n        /* \"#utility.yul\":9876:9943   */\n      tag_426\n      jump\t// in\n    tag_462:\n        /* \"#utility.yul\":9869:9943   */\n      swap2\n      pop\n        /* \"#utility.yul\":9952:10045   */\n      tag_463\n        /* \"#utility.yul\":10041:10044   */\n      dup3\n        /* \"#utility.yul\":9952:10045   */\n      tag_464\n      jump\t// in\n    tag_463:\n        /* \"#utility.yul\":10070:10072   */\n      0x40\n        /* \"#utility.yul\":10065:10068   */\n      dup3\n        /* \"#utility.yul\":10061:10073   */\n      add\n        /* \"#utility.yul\":10054:10073   */\n      swap1\n      pop\n        /* \"#utility.yul\":9859:10079   */\n      swap2\n      swap1\n      pop\n      jump\t// out\n        /* \"#utility.yul\":10085:10487   */\n    tag_465:\n        /* \"#utility.yul\":10245:10248   */\n      0x00\n        /* \"#utility.yul\":10266:10351   */\n      tag_467\n        /* \"#utility.yul\":10348:10350   */\n      0x17\n        /* \"#utility.yul\":10343:10346   */\n      dup4\n        /* \"#utility.yul\":10266:10351   */\n      tag_433\n      jump\t// in\n    tag_467:\n        /* \"#utility.yul\":10259:10351   */\n      swap2\n      pop\n        /* \"#utility.yul\":10360:10453   */\n      tag_468\n        /* \"#utility.yul\":10449:10452   */\n      dup3\n        /* \"#utility.yul\":10360:10453   */\n      tag_469\n      jump\t// in\n    tag_468:\n        /* \"#utility.yul\":10478:10480   */\n      0x17\n        /* \"#utility.yul\":10473:10476   */\n      dup3\n        /* \"#utility.yul\":10469:10481   */\n      add\n        /* \"#utility.yul\":10462:10481   */\n      swap1\n      pop\n        /* \"#utility.yul\":10249:10487   */\n      swap2\n      swap1\n      pop\n      jump\t// out\n        /* \"#utility.yul\":10493:10859   */\n    tag_470:\n        /* \"#utility.yul\":10635:10638   */\n      0x00\n        /* \"#utility.yul\":10656:10723   */\n      tag_472\n        /* \"#utility.yul\":10720:10722   */\n      0x1e\n        /* \"#utility.yul\":10715:10718   */\n      dup4\n        /* \"#utility.yul\":10656:10723   */\n      tag_426\n      jump\t// in\n    tag_472:\n        /* \"#utility.yul\":10649:10723   */\n      swap2\n      pop\n        /* \"#utility.yul\":10732:10825   */\n      tag_473\n        /* \"#utility.yul\":10821:10824   */\n      dup3\n        /* \"#utility.yul\":10732:10825   */\n      tag_474\n      jump\t// in\n    tag_473:\n        /* \"#utility.yul\":10850:10852   */\n      0x20\n        /* \"#utility.yul\":10845:10848   */\n      dup3\n        /* \"#utility.yul\":10841:10853   */\n      add\n        /* \"#utility.yul\":10834:10853   */\n      swap1\n      pop\n        /* \"#utility.yul\":10639:10859   */\n      swap2\n      swap1\n      pop\n      jump\t// out\n        /* \"#utility.yul\":10865:11231   */\n    tag_475:\n        /* \"#utility.yul\":11007:11010   */\n      0x00\n        /* \"#utility.yul\":11028:11095   */\n      tag_477\n        /* \"#utility.yul\":11092:11094   */\n      0x29\n        /* \"#utility.yul\":11087:11090   */\n      dup4\n        /* \"#utility.yul\":11028:11095   */\n      tag_426\n      jump\t// in\n    tag_477:\n        /* \"#utility.yul\":11021:11095   */\n      swap2\n      pop\n        /* \"#utility.yul\":11104:11197   */\n      tag_478\n        /* \"#utility.yul\":11193:11196   */\n      dup3\n        /* \"#utility.yul\":11104:11197   */\n      tag_479\n      jump\t// in\n    tag_478:\n        /* \"#utility.yul\":11222:11224   */\n      0x40\n        /* \"#utility.yul\":11217:11220   */\n      dup3\n        /* \"#utility.yul\":11213:11225   */\n      add\n        /* \"#utility.yul\":11206:11225   */\n      swap1\n      pop\n        /* \"#utility.yul\":11011:11231   */\n      swap2\n      swap1\n      pop\n      jump\t// out\n        /* \"#utility.yul\":11237:11639   */\n    tag_480:\n        /* \"#utility.yul\":11397:11400   */\n      0x00\n        /* \"#utility.yul\":11418:11503   */\n      tag_482\n        /* \"#utility.yul\":11500:11502   */\n      0x11\n        /* \"#utility.yul\":11495:11498   */\n      dup4\n        /* \"#utility.yul\":11418:11503   */\n      tag_433\n      jump\t// in\n    tag_482:\n        /* \"#utility.yul\":11411:11503   */\n      swap2\n      pop\n        /* \"#utility.yul\":11512:11605   */\n      tag_483\n        /* \"#utility.yul\":11601:11604   */\n      dup3\n        /* \"#utility.yul\":11512:11605   */\n      tag_484\n      jump\t// in\n    tag_483:\n        /* \"#utility.yul\":11630:11632   */\n      0x11\n        /* \"#utility.yul\":11625:11628   */\n      dup3\n        /* \"#utility.yul\":11621:11633   */\n      add\n        /* \"#utility.yul\":11614:11633   */\n      swap1\n      pop\n        /* \"#utility.yul\":11401:11639   */\n      swap2\n      swap1\n      pop\n      jump\t// out\n        /* \"#utility.yul\":11645:12011   */\n    tag_485:\n        /* \"#utility.yul\":11787:11790   */\n      0x00\n        /* \"#utility.yul\":11808:11875   */\n      tag_487\n        /* \"#utility.yul\":11872:11874   */\n      0x2f\n        /* \"#utility.yul\":11867:11870   */\n      dup4\n        /* \"#utility.yul\":11808:11875   */\n      tag_426\n      jump\t// in\n    tag_487:\n        /* \"#utility.yul\":11801:11875   */\n      swap2\n      pop\n        /* \"#utility.yul\":11884:11977   */\n      tag_488\n        /* \"#utility.yul\":11973:11976   */\n      dup3\n        /* \"#utility.yul\":11884:11977   */\n      tag_489\n      jump\t// in\n    tag_488:\n        /* \"#utility.yul\":12002:12004   */\n      0x40\n        /* \"#utility.yul\":11997:12000   */\n      dup3\n        /* \"#utility.yul\":11993:12005   */\n      add\n        /* \"#utility.yul\":11986:12005   */\n      swap1\n      pop\n        /* \"#utility.yul\":11791:12011   */\n      swap2\n      swap1\n      pop\n      jump\t// out\n        /* \"#utility.yul\":12017:12135   */\n    tag_490:\n        /* \"#utility.yul\":12104:12128   */\n      tag_492\n        /* \"#utility.yul\":12122:12127   */\n      dup2\n        /* \"#utility.yul\":12104:12128   */\n      tag_493\n      jump\t// in\n    tag_492:\n        /* \"#utility.yul\":12099:12102   */\n      dup3\n        /* \"#utility.yul\":12092:12129   */\n      mstore\n        /* \"#utility.yul\":12082:12135   */\n      pop\n      pop\n      jump\t// out\n        /* \"#utility.yul\":12141:12548   */\n    tag_181:\n        /* \"#utility.yul\":12297:12300   */\n      0x00\n        /* \"#utility.yul\":12312:12385   */\n      tag_495\n        /* \"#utility.yul\":12381:12384   */\n      dup3\n        /* \"#utility.yul\":12372:12378   */\n      dup6\n        /* \"#utility.yul\":12312:12385   */\n      tag_385\n      jump\t// in\n    tag_495:\n        /* \"#utility.yul\":12410:12411   */\n      0x01\n        /* \"#utility.yul\":12405:12408   */\n      dup3\n        /* \"#utility.yul\":12401:12412   */\n      add\n        /* \"#utility.yul\":12394:12412   */\n      swap2\n      pop\n        /* \"#utility.yul\":12429:12522   */\n      tag_496\n        /* \"#utility.yul\":12518:12521   */\n      dup3\n        /* \"#utility.yul\":12509:12515   */\n      dup5\n        /* \"#utility.yul\":12429:12522   */\n      tag_415\n      jump\t// in\n    tag_496:\n        /* \"#utility.yul\":12422:12522   */\n      swap2\n      pop\n        /* \"#utility.yul\":12539:12542   */\n      dup2\n        /* \"#utility.yul\":12532:12542   */\n      swap1\n      pop\n        /* \"#utility.yul\":12301:12548   */\n      swap4\n      swap3\n      pop\n      pop\n      pop\n      jump\t// out\n        /* \"#utility.yul\":12554:12810   */\n    tag_179:\n        /* \"#utility.yul\":12666:12669   */\n      0x00\n        /* \"#utility.yul\":12681:12756   */\n      tag_498\n        /* \"#utility.yul\":12752:12755   */\n      dup3\n        /* \"#utility.yul\":12743:12749   */\n      dup5\n        /* \"#utility.yul\":12681:12756   */\n      tag_391\n      jump\t// in\n    tag_498:\n        /* \"#utility.yul\":12781:12783   */\n      0x14\n        /* \"#utility.yul\":12776:12779   */\n      dup3\n        /* \"#utility.yul\":12772:12784   */\n      add\n        /* \"#utility.yul\":12765:12784   */\n      swap2\n      pop\n        /* \"#utility.yul\":12801:12804   */\n      dup2\n        /* \"#utility.yul\":12794:12804   */\n      swap1\n      pop\n        /* \"#utility.yul\":12670:12810   */\n      swap3\n      swap2\n      pop\n      pop\n      jump\t// out\n        /* \"#utility.yul\":12816:13072   */\n    tag_174:\n        /* \"#utility.yul\":12928:12931   */\n      0x00\n        /* \"#utility.yul\":12943:13018   */\n      tag_500\n        /* \"#utility.yul\":13014:13017   */\n      dup3\n        /* \"#utility.yul\":13005:13011   */\n      dup5\n        /* \"#utility.yul\":12943:13018   */\n      tag_401\n      jump\t// in\n    tag_500:\n        /* \"#utility.yul\":13043:13045   */\n      0x20\n        /* \"#utility.yul\":13038:13041   */\n      dup3\n        /* \"#utility.yul\":13034:13046   */\n      add\n        /* \"#utility.yul\":13027:13046   */\n      swap2\n      pop\n        /* \"#utility.yul\":13063:13066   */\n      dup2\n        /* \"#utility.yul\":13056:13066   */\n      swap1\n      pop\n        /* \"#utility.yul\":12932:13072   */\n      swap3\n      swap2\n      pop\n      pop\n      jump\t// out\n        /* \"#utility.yul\":13078:13349   */\n    tag_123:\n        /* \"#utility.yul\":13208:13211   */\n      0x00\n        /* \"#utility.yul\":13230:13323   */\n      tag_502\n        /* \"#utility.yul\":13319:13322   */\n      dup3\n        /* \"#utility.yul\":13310:13316   */\n      dup5\n        /* \"#utility.yul\":13230:13323   */\n      tag_415\n      jump\t// in\n    tag_502:\n        /* \"#utility.yul\":13223:13323   */\n      swap2\n      pop\n        /* \"#utility.yul\":13340:13343   */\n      dup2\n        /* \"#utility.yul\":13333:13343   */\n      swap1\n      pop\n        /* \"#utility.yul\":13212:13349   */\n      swap3\n      swap2\n      pop\n      pop\n      jump\t// out\n        /* \"#utility.yul\":13355:13782   */\n    tag_195:\n        /* \"#utility.yul\":13531:13534   */\n      0x00\n        /* \"#utility.yul\":13553:13646   */\n      tag_504\n        /* \"#utility.yul\":13642:13645   */\n      dup3\n        /* \"#utility.yul\":13633:13639   */\n      dup6\n        /* \"#utility.yul\":13553:13646   */\n      tag_415\n      jump\t// in\n    tag_504:\n        /* \"#utility.yul\":13546:13646   */\n      swap2\n      pop\n        /* \"#utility.yul\":13663:13756   */\n      tag_505\n        /* \"#utility.yul\":13752:13755   */\n      dup3\n        /* \"#utility.yul\":13743:13749   */\n      dup5\n        /* \"#utility.yul\":13663:13756   */\n      tag_415\n      jump\t// in\n    tag_505:\n        /* \"#utility.yul\":13656:13756   */\n      swap2\n      pop\n        /* \"#utility.yul\":13773:13776   */\n      dup2\n        /* \"#utility.yul\":13766:13776   */\n      swap1\n      pop\n        /* \"#utility.yul\":13535:13782   */\n      swap4\n      swap3\n      pop\n      pop\n      pop\n      jump\t// out\n        /* \"#utility.yul\":13788:14755   */\n    tag_237:\n        /* \"#utility.yul\":14170:14173   */\n      0x00\n        /* \"#utility.yul\":14192:14340   */\n      tag_507\n        /* \"#utility.yul\":14336:14339   */\n      dup3\n        /* \"#utility.yul\":14192:14340   */\n      tag_465\n      jump\t// in\n    tag_507:\n        /* \"#utility.yul\":14185:14340   */\n      swap2\n      pop\n        /* \"#utility.yul\":14357:14452   */\n      tag_508\n        /* \"#utility.yul\":14448:14451   */\n      dup3\n        /* \"#utility.yul\":14439:14445   */\n      dup6\n        /* \"#utility.yul\":14357:14452   */\n      tag_429\n      jump\t// in\n    tag_508:\n        /* \"#utility.yul\":14350:14452   */\n      swap2\n      pop\n        /* \"#utility.yul\":14469:14617   */\n      tag_509\n        /* \"#utility.yul\":14613:14616   */\n      dup3\n        /* \"#utility.yul\":14469:14617   */\n      tag_480\n      jump\t// in\n    tag_509:\n        /* \"#utility.yul\":14462:14617   */\n      swap2\n      pop\n        /* \"#utility.yul\":14634:14729   */\n      tag_510\n        /* \"#utility.yul\":14725:14728   */\n      dup3\n        /* \"#utility.yul\":14716:14722   */\n      dup5\n        /* \"#utility.yul\":14634:14729   */\n      tag_429\n      jump\t// in\n    tag_510:\n        /* \"#utility.yul\":14627:14729   */\n      swap2\n      pop\n        /* \"#utility.yul\":14746:14749   */\n      dup2\n        /* \"#utility.yul\":14739:14749   */\n      swap1\n      pop\n        /* \"#utility.yul\":14174:14755   */\n      swap4\n      swap3\n      pop\n      pop\n      pop\n      jump\t// out\n        /* \"#utility.yul\":14761:14983   */\n    tag_257:\n        /* \"#utility.yul\":14854:14858   */\n      0x00\n        /* \"#utility.yul\":14892:14894   */\n      0x20\n        /* \"#utility.yul\":14881:14890   */\n      dup3\n        /* \"#utility.yul\":14877:14895   */\n      add\n        /* \"#utility.yul\":14869:14895   */\n      swap1\n      pop\n        /* \"#utility.yul\":14905:14976   */\n      tag_512\n        /* \"#utility.yul\":14973:14974   */\n      0x00\n        /* \"#utility.yul\":14962:14971   */\n      dup4\n        /* \"#utility.yul\":14958:14975   */\n      add\n        /* \"#utility.yul\":14949:14955   */\n      dup5\n        /* \"#utility.yul\":14905:14976   */\n      tag_377\n      jump\t// in\n    tag_512:\n        /* \"#utility.yul\":14859:14983   */\n      swap3\n      swap2\n      pop\n      pop\n      jump\t// out\n        /* \"#utility.yul\":14989:15199   */\n    tag_35:\n        /* \"#utility.yul\":15076:15080   */\n      0x00\n        /* \"#utility.yul\":15114:15116   */\n      0x20\n        /* \"#utility.yul\":15103:15112   */\n      dup3\n        /* \"#utility.yul\":15099:15117   */\n      add\n        /* \"#utility.yul\":15091:15117   */\n      swap1\n      pop\n        /* \"#utility.yul\":15127:15192   */\n      tag_514\n        /* \"#utility.yul\":15189:15190   */\n      0x00\n        /* \"#utility.yul\":15178:15187   */\n      dup4\n        /* \"#utility.yul\":15174:15191   */\n      add\n        /* \"#utility.yul\":15165:15171   */\n      dup5\n        /* \"#utility.yul\":15127:15192   */\n      tag_381\n      jump\t// in\n    tag_514:\n        /* \"#utility.yul\":15081:15199   */\n      swap3\n      swap2\n      pop\n      pop\n      jump\t// out\n        /* \"#utility.yul\":15205:15427   */\n    tag_41:\n        /* \"#utility.yul\":15298:15302   */\n      0x00\n        /* \"#utility.yul\":15336:15338   */\n      0x20\n        /* \"#utility.yul\":15325:15334   */\n      dup3\n        /* \"#utility.yul\":15321:15339   */\n      add\n        /* \"#utility.yul\":15313:15339   */\n      swap1\n      pop\n        /* \"#utility.yul\":15349:15420   */\n      tag_516\n        /* \"#utility.yul\":15417:15418   */\n      0x00\n        /* \"#utility.yul\":15406:15415   */\n      dup4\n        /* \"#utility.yul\":15402:15419   */\n      add\n        /* \"#utility.yul\":15393:15399   */\n      dup5\n        /* \"#utility.yul\":15349:15420   */\n      tag_397\n      jump\t// in\n    tag_516:\n        /* \"#utility.yul\":15303:15427   */\n      swap3\n      swap2\n      pop\n      pop\n      jump\t// out\n        /* \"#utility.yul\":15433:15852   */\n    tag_159:\n        /* \"#utility.yul\":15572:15576   */\n      0x00\n        /* \"#utility.yul\":15610:15612   */\n      0x40\n        /* \"#utility.yul\":15599:15608   */\n      dup3\n        /* \"#utility.yul\":15595:15613   */\n      add\n        /* \"#utility.yul\":15587:15613   */\n      swap1\n      pop\n        /* \"#utility.yul\":15623:15694   */\n      tag_518\n        /* \"#utility.yul\":15691:15692   */\n      0x00\n        /* \"#utility.yul\":15680:15689   */\n      dup4\n        /* \"#utility.yul\":15676:15693   */\n      add\n        /* \"#utility.yul\":15667:15673   */\n      dup6\n        /* \"#utility.yul\":15623:15694   */\n      tag_397\n      jump\t// in\n    tag_518:\n        /* \"#utility.yul\":15741:15750   */\n      dup2\n        /* \"#utility.yul\":15735:15739   */\n      dup2\n        /* \"#utility.yul\":15731:15751   */\n      sub\n        /* \"#utility.yul\":15726:15728   */\n      0x20\n        /* \"#utility.yul\":15715:15724   */\n      dup4\n        /* \"#utility.yul\":15711:15729   */\n      add\n        /* \"#utility.yul\":15704:15752   */\n      mstore\n        /* \"#utility.yul\":15769:15845   */\n      tag_519\n        /* \"#utility.yul\":15840:15844   */\n      dup2\n        /* \"#utility.yul\":15831:15837   */\n      dup5\n        /* \"#utility.yul\":15769:15845   */\n      tag_406\n      jump\t// in\n    tag_519:\n        /* \"#utility.yul\":15761:15845   */\n      swap1\n      pop\n        /* \"#utility.yul\":15577:15852   */\n      swap4\n      swap3\n      pop\n      pop\n      pop\n      jump\t// out\n        /* \"#utility.yul\":15858:16171   */\n    tag_239:\n        /* \"#utility.yul\":15971:15975   */\n      0x00\n        /* \"#utility.yul\":16009:16011   */\n      0x20\n        /* \"#utility.yul\":15998:16007   */\n      dup3\n        /* \"#utility.yul\":15994:16012   */\n      add\n        /* \"#utility.yul\":15986:16012   */\n      swap1\n      pop\n        /* \"#utility.yul\":16058:16067   */\n      dup2\n        /* \"#utility.yul\":16052:16056   */\n      dup2\n        /* \"#utility.yul\":16048:16068   */\n      sub\n        /* \"#utility.yul\":16044:16045   */\n      0x00\n        /* \"#utility.yul\":16033:16042   */\n      dup4\n        /* \"#utility.yul\":16029:16046   */\n      add\n        /* \"#utility.yul\":16022:16069   */\n      mstore\n        /* \"#utility.yul\":16086:16164   */\n      tag_521\n        /* \"#utility.yul\":16159:16163   */\n      dup2\n        /* \"#utility.yul\":16150:16156   */\n      dup5\n        /* \"#utility.yul\":16086:16164   */\n      tag_421\n      jump\t// in\n    tag_521:\n        /* \"#utility.yul\":16078:16164   */\n      swap1\n      pop\n        /* \"#utility.yul\":15976:16171   */\n      swap3\n      swap2\n      pop\n      pop\n      jump\t// out\n        /* \"#utility.yul\":16177:16596   */\n    tag_297:\n        /* \"#utility.yul\":16343:16347   */\n      0x00\n        /* \"#utility.yul\":16381:16383   */\n      0x20\n        /* \"#utility.yul\":16370:16379   */\n      dup3\n        /* \"#utility.yul\":16366:16384   */\n      add\n        /* \"#utility.yul\":16358:16384   */\n      swap1\n      pop\n        /* \"#utility.yul\":16430:16439   */\n      dup2\n        /* \"#utility.yul\":16424:16428   */\n      dup2\n        /* \"#utility.yul\":16420:16440   */\n      sub\n        /* \"#utility.yul\":16416:16417   */\n      0x00\n        /* \"#utility.yul\":16405:16414   */\n      dup4\n        /* \"#utility.yul\":16401:16418   */\n      add\n        /* \"#utility.yul\":16394:16441   */\n      mstore\n        /* \"#utility.yul\":16458:16589   */\n      tag_523\n        /* \"#utility.yul\":16584:16588   */\n      dup2\n        /* \"#utility.yul\":16458:16589   */\n      tag_435\n      jump\t// in\n    tag_523:\n        /* \"#utility.yul\":16450:16589   */\n      swap1\n      pop\n        /* \"#utility.yul\":16348:16596   */\n      swap2\n      swap1\n      pop\n      jump\t// out\n        /* \"#utility.yul\":16602:17021   */\n    tag_253:\n        /* \"#utility.yul\":16768:16772   */\n      0x00\n        /* \"#utility.yul\":16806:16808   */\n      0x20\n        /* \"#utility.yul\":16795:16804   */\n      dup3\n        /* \"#utility.yul\":16791:16809   */\n      add\n        /* \"#utility.yul\":16783:16809   */\n      swap1\n      pop\n        /* \"#utility.yul\":16855:16864   */\n      dup2\n        /* \"#utility.yul\":16849:16853   */\n      dup2\n        /* \"#utility.yul\":16845:16865   */\n      sub\n        /* \"#utility.yul\":16841:16842   */\n      0x00\n        /* \"#utility.yul\":16830:16839   */\n      dup4\n        /* \"#utility.yul\":16826:16843   */\n      add\n        /* \"#utility.yul\":16819:16866   */\n      mstore\n        /* \"#utility.yul\":16883:17014   */\n      tag_525\n        /* \"#utility.yul\":17009:17013   */\n      dup2\n        /* \"#utility.yul\":16883:17014   */\n      tag_440\n      jump\t// in\n    tag_525:\n        /* \"#utility.yul\":16875:17014   */\n      swap1\n      pop\n        /* \"#utility.yul\":16773:17021   */\n      swap2\n      swap1\n      pop\n      jump\t// out\n        /* \"#utility.yul\":17027:17446   */\n    tag_157:\n        /* \"#utility.yul\":17193:17197   */\n      0x00\n        /* \"#utility.yul\":17231:17233   */\n      0x20\n        /* \"#utility.yul\":17220:17229   */\n      dup3\n        /* \"#utility.yul\":17216:17234   */\n      add\n        /* \"#utility.yul\":17208:17234   */\n      swap1\n      pop\n        /* \"#utility.yul\":17280:17289   */\n      dup2\n        /* \"#utility.yul\":17274:17278   */\n      dup2\n        /* \"#utility.yul\":17270:17290   */\n      sub\n        /* \"#utility.yul\":17266:17267   */\n      0x00\n        /* \"#utility.yul\":17255:17264   */\n      dup4\n        /* \"#utility.yul\":17251:17268   */\n      add\n        /* \"#utility.yul\":17244:17291   */\n      mstore\n        /* \"#utility.yul\":17308:17439   */\n      tag_527\n        /* \"#utility.yul\":17434:17438   */\n      dup2\n        /* \"#utility.yul\":17308:17439   */\n      tag_445\n      jump\t// in\n    tag_527:\n        /* \"#utility.yul\":17300:17439   */\n      swap1\n      pop\n        /* \"#utility.yul\":17198:17446   */\n      swap2\n      swap1\n      pop\n      jump\t// out\n        /* \"#utility.yul\":17452:17871   */\n    tag_146:\n        /* \"#utility.yul\":17618:17622   */\n      0x00\n        /* \"#utility.yul\":17656:17658   */\n      0x20\n        /* \"#utility.yul\":17645:17654   */\n      dup3\n        /* \"#utility.yul\":17641:17659   */\n      add\n        /* \"#utility.yul\":17633:17659   */\n      swap1\n      pop\n        /* \"#utility.yul\":17705:17714   */\n      dup2\n        /* \"#utility.yul\":17699:17703   */\n      dup2\n        /* \"#utility.yul\":17695:17715   */\n      sub\n        /* \"#utility.yul\":17691:17692   */\n      0x00\n        /* \"#utility.yul\":17680:17689   */\n      dup4\n        /* \"#utility.yul\":17676:17693   */\n      add\n        /* \"#utility.yul\":17669:17716   */\n      mstore\n        /* \"#utility.yul\":17733:17864   */\n      tag_529\n        /* \"#utility.yul\":17859:17863   */\n      dup2\n        /* \"#utility.yul\":17733:17864   */\n      tag_450\n      jump\t// in\n    tag_529:\n        /* \"#utility.yul\":17725:17864   */\n      swap1\n      pop\n        /* \"#utility.yul\":17623:17871   */\n      swap2\n      swap1\n      pop\n      jump\t// out\n        /* \"#utility.yul\":17877:18296   */\n    tag_167:\n        /* \"#utility.yul\":18043:18047   */\n      0x00\n        /* \"#utility.yul\":18081:18083   */\n      0x20\n        /* \"#utility.yul\":18070:18079   */\n      dup3\n        /* \"#utility.yul\":18066:18084   */\n      add\n        /* \"#utility.yul\":18058:18084   */\n      swap1\n      pop\n        /* \"#utility.yul\":18130:18139   */\n      dup2\n        /* \"#utility.yul\":18124:18128   */\n      dup2\n        /* \"#utility.yul\":18120:18140   */\n      sub\n        /* \"#utility.yul\":18116:18117   */\n      0x00\n        /* \"#utility.yul\":18105:18114   */\n      dup4\n        /* \"#utility.yul\":18101:18118   */\n      add\n        /* \"#utility.yul\":18094:18141   */\n      mstore\n        /* \"#utility.yul\":18158:18289   */\n      tag_531\n        /* \"#utility.yul\":18284:18288   */\n      dup2\n        /* \"#utility.yul\":18158:18289   */\n      tag_455\n      jump\t// in\n    tag_531:\n        /* \"#utility.yul\":18150:18289   */\n      swap1\n      pop\n        /* \"#utility.yul\":18048:18296   */\n      swap2\n      swap1\n      pop\n      jump\t// out\n        /* \"#utility.yul\":18302:18721   */\n    tag_150:\n        /* \"#utility.yul\":18468:18472   */\n      0x00\n        /* \"#utility.yul\":18506:18508   */\n      0x20\n        /* \"#utility.yul\":18495:18504   */\n      dup3\n        /* \"#utility.yul\":18491:18509   */\n      add\n        /* \"#utility.yul\":18483:18509   */\n      swap1\n      pop\n        /* \"#utility.yul\":18555:18564   */\n      dup2\n        /* \"#utility.yul\":18549:18553   */\n      dup2\n        /* \"#utility.yul\":18545:18565   */\n      sub\n        /* \"#utility.yul\":18541:18542   */\n      0x00\n        /* \"#utility.yul\":18530:18539   */\n      dup4\n        /* \"#utility.yul\":18526:18543   */\n      add\n        /* \"#utility.yul\":18519:18566   */\n      mstore\n        /* \"#utility.yul\":18583:18714   */\n      tag_533\n        /* \"#utility.yul\":18709:18713   */\n      dup2\n        /* \"#utility.yul\":18583:18714   */\n      tag_460\n      jump\t// in\n    tag_533:\n        /* \"#utility.yul\":18575:18714   */\n      swap1\n      pop\n        /* \"#utility.yul\":18473:18721   */\n      swap2\n      swap1\n      pop\n      jump\t// out\n        /* \"#utility.yul\":18727:19146   */\n    tag_199:\n        /* \"#utility.yul\":18893:18897   */\n      0x00\n        /* \"#utility.yul\":18931:18933   */\n      0x20\n        /* \"#utility.yul\":18920:18929   */\n      dup3\n        /* \"#utility.yul\":18916:18934   */\n      add\n        /* \"#utility.yul\":18908:18934   */\n      swap1\n      pop\n        /* \"#utility.yul\":18980:18989   */\n      dup2\n        /* \"#utility.yul\":18974:18978   */\n      dup2\n        /* \"#utility.yul\":18970:18990   */\n      sub\n        /* \"#utility.yul\":18966:18967   */\n      0x00\n        /* \"#utility.yul\":18955:18964   */\n      dup4\n        /* \"#utility.yul\":18951:18968   */\n      add\n        /* \"#utility.yul\":18944:18991   */\n      mstore\n        /* \"#utility.yul\":19008:19139   */\n      tag_535\n        /* \"#utility.yul\":19134:19138   */\n      dup2\n        /* \"#utility.yul\":19008:19139   */\n      tag_470\n      jump\t// in\n    tag_535:\n        /* \"#utility.yul\":19000:19139   */\n      swap1\n      pop\n        /* \"#utility.yul\":18898:19146   */\n      swap2\n      swap1\n      pop\n      jump\t// out\n        /* \"#utility.yul\":19152:19571   */\n    tag_154:\n        /* \"#utility.yul\":19318:19322   */\n      0x00\n        /* \"#utility.yul\":19356:19358   */\n      0x20\n        /* \"#utility.yul\":19345:19354   */\n      dup3\n        /* \"#utility.yul\":19341:19359   */\n      add\n        /* \"#utility.yul\":19333:19359   */\n      swap1\n      pop\n        /* \"#utility.yul\":19405:19414   */\n      dup2\n        /* \"#utility.yul\":19399:19403   */\n      dup2\n        /* \"#utility.yul\":19395:19415   */\n      sub\n        /* \"#utility.yul\":19391:19392   */\n      0x00\n        /* \"#utility.yul\":19380:19389   */\n      dup4\n        /* \"#utility.yul\":19376:19393   */\n      add\n        /* \"#utility.yul\":19369:19416   */\n      mstore\n        /* \"#utility.yul\":19433:19564   */\n      tag_537\n        /* \"#utility.yul\":19559:19563   */\n      dup2\n        /* \"#utility.yul\":19433:19564   */\n      tag_475\n      jump\t// in\n    tag_537:\n        /* \"#utility.yul\":19425:19564   */\n      swap1\n      pop\n        /* \"#utility.yul\":19323:19571   */\n      swap2\n      swap1\n      pop\n      jump\t// out\n        /* \"#utility.yul\":19577:19996   */\n    tag_128:\n        /* \"#utility.yul\":19743:19747   */\n      0x00\n        /* \"#utility.yul\":19781:19783   */\n      0x20\n        /* \"#utility.yul\":19770:19779   */\n      dup3\n        /* \"#utility.yul\":19766:19784   */\n      add\n        /* \"#utility.yul\":19758:19784   */\n      swap1\n      pop\n        /* \"#utility.yul\":19830:19839   */\n      dup2\n        /* \"#utility.yul\":19824:19828   */\n      dup2\n        /* \"#utility.yul\":19820:19840   */\n      sub\n        /* \"#utility.yul\":19816:19817   */\n      0x00\n        /* \"#utility.yul\":19805:19814   */\n      dup4\n        /* \"#utility.yul\":19801:19818   */\n      add\n        /* \"#utility.yul\":19794:19841   */\n      mstore\n        /* \"#utility.yul\":19858:19989   */\n      tag_539\n        /* \"#utility.yul\":19984:19988   */\n      dup2\n        /* \"#utility.yul\":19858:19989   */\n      tag_485\n      jump\t// in\n    tag_539:\n        /* \"#utility.yul\":19850:19989   */\n      swap1\n      pop\n        /* \"#utility.yul\":19748:19996   */\n      swap2\n      swap1\n      pop\n      jump\t// out\n        /* \"#utility.yul\":20002:20224   */\n    tag_72:\n        /* \"#utility.yul\":20095:20099   */\n      0x00\n        /* \"#utility.yul\":20133:20135   */\n      0x20\n        /* \"#utility.yul\":20122:20131   */\n      dup3\n        /* \"#utility.yul\":20118:20136   */\n      add\n        /* \"#utility.yul\":20110:20136   */\n      swap1\n      pop\n        /* \"#utility.yul\":20146:20217   */\n      tag_541\n        /* \"#utility.yul\":20214:20215   */\n      0x00\n        /* \"#utility.yul\":20203:20212   */\n      dup4\n        /* \"#utility.yul\":20199:20216   */\n      add\n        /* \"#utility.yul\":20190:20196   */\n      dup5\n        /* \"#utility.yul\":20146:20217   */\n      tag_490\n      jump\t// in\n    tag_541:\n        /* \"#utility.yul\":20100:20224   */\n      swap3\n      swap2\n      pop\n      pop\n      jump\t// out\n        /* \"#utility.yul\":20230:20359   */\n    tag_304:\n        /* \"#utility.yul\":20264:20270   */\n      0x00\n        /* \"#utility.yul\":20291:20311   */\n      tag_543\n      tag_544\n      jump\t// in\n    tag_543:\n        /* \"#utility.yul\":20281:20311   */\n      swap1\n      pop\n        /* \"#utility.yul\":20320:20353   */\n      tag_545\n        /* \"#utility.yul\":20348:20352   */\n      dup3\n        /* \"#utility.yul\":20340:20346   */\n      dup3\n        /* \"#utility.yul\":20320:20353   */\n      tag_546\n      jump\t// in\n    tag_545:\n        /* \"#utility.yul\":20271:20359   */\n      swap2\n      swap1\n      pop\n      jump\t// out\n        /* \"#utility.yul\":20365:20440   */\n    tag_544:\n        /* \"#utility.yul\":20398:20404   */\n      0x00\n        /* \"#utility.yul\":20431:20433   */\n      0x40\n        /* \"#utility.yul\":20425:20434   */\n      mload\n        /* \"#utility.yul\":20415:20434   */\n      swap1\n      pop\n        /* \"#utility.yul\":20405:20440   */\n      swap1\n      jump\t// out\n        /* \"#utility.yul\":20446:20753   */\n    tag_303:\n        /* \"#utility.yul\":20507:20511   */\n      0x00\n        /* \"#utility.yul\":20597:20615   */\n      0xffffffffffffffff\n        /* \"#utility.yul\":20589:20595   */\n      dup3\n        /* \"#utility.yul\":20586:20616   */\n      gt\n        /* \"#utility.yul\":20583:20585   */\n      iszero\n      tag_549\n      jumpi\n        /* \"#utility.yul\":20619:20637   */\n      tag_550\n      tag_551\n      jump\t// in\n    tag_550:\n        /* \"#utility.yul\":20583:20585   */\n    tag_549:\n        /* \"#utility.yul\":20657:20686   */\n      tag_552\n        /* \"#utility.yul\":20679:20685   */\n      dup3\n        /* \"#utility.yul\":20657:20686   */\n      tag_414\n      jump\t// in\n    tag_552:\n        /* \"#utility.yul\":20649:20686   */\n      swap1\n      pop\n        /* \"#utility.yul\":20741:20745   */\n      0x20\n        /* \"#utility.yul\":20735:20739   */\n      dup2\n        /* \"#utility.yul\":20731:20746   */\n      add\n        /* \"#utility.yul\":20723:20746   */\n      swap1\n      pop\n        /* \"#utility.yul\":20512:20753   */\n      swap2\n      swap1\n      pop\n      jump\t// out\n        /* \"#utility.yul\":20759:20857   */\n    tag_409:\n        /* \"#utility.yul\":20810:20816   */\n      0x00\n        /* \"#utility.yul\":20844:20849   */\n      dup2\n        /* \"#utility.yul\":20838:20850   */\n      mload\n        /* \"#utility.yul\":20828:20850   */\n      swap1\n      pop\n        /* \"#utility.yul\":20817:20857   */\n      swap2\n      swap1\n      pop\n      jump\t// out\n        /* \"#utility.yul\":20863:20962   */\n    tag_424:\n        /* \"#utility.yul\":20915:20921   */\n      0x00\n        /* \"#utility.yul\":20949:20954   */\n      dup2\n        /* \"#utility.yul\":20943:20955   */\n      mload\n        /* \"#utility.yul\":20933:20955   */\n      swap1\n      pop\n        /* \"#utility.yul\":20922:20962   */\n      swap2\n      swap1\n      pop\n      jump\t// out\n        /* \"#utility.yul\":20968:21136   */\n    tag_411:\n        /* \"#utility.yul\":21051:21062   */\n      0x00\n        /* \"#utility.yul\":21085:21091   */\n      dup3\n        /* \"#utility.yul\":21080:21083   */\n      dup3\n        /* \"#utility.yul\":21073:21092   */\n      mstore\n        /* \"#utility.yul\":21125:21129   */\n      0x20\n        /* \"#utility.yul\":21120:21123   */\n      dup3\n        /* \"#utility.yul\":21116:21130   */\n      add\n        /* \"#utility.yul\":21101:21130   */\n      swap1\n      pop\n        /* \"#utility.yul\":21063:21136   */\n      swap3\n      swap2\n      pop\n      pop\n      jump\t// out\n        /* \"#utility.yul\":21142:21289   */\n    tag_419:\n        /* \"#utility.yul\":21243:21254   */\n      0x00\n        /* \"#utility.yul\":21280:21283   */\n      dup2\n        /* \"#utility.yul\":21265:21283   */\n      swap1\n      pop\n        /* \"#utility.yul\":21255:21289   */\n      swap3\n      swap2\n      pop\n      pop\n      jump\t// out\n        /* \"#utility.yul\":21295:21464   */\n    tag_426:\n        /* \"#utility.yul\":21379:21390   */\n      0x00\n        /* \"#utility.yul\":21413:21419   */\n      dup3\n        /* \"#utility.yul\":21408:21411   */\n      dup3\n        /* \"#utility.yul\":21401:21420   */\n      mstore\n        /* \"#utility.yul\":21453:21457   */\n      0x20\n        /* \"#utility.yul\":21448:21451   */\n      dup3\n        /* \"#utility.yul\":21444:21458   */\n      add\n        /* \"#utility.yul\":21429:21458   */\n      swap1\n      pop\n        /* \"#utility.yul\":21391:21464   */\n      swap3\n      swap2\n      pop\n      pop\n      jump\t// out\n        /* \"#utility.yul\":21470:21618   */\n    tag_433:\n        /* \"#utility.yul\":21572:21583   */\n      0x00\n        /* \"#utility.yul\":21609:21612   */\n      dup2\n        /* \"#utility.yul\":21594:21612   */\n      swap1\n      pop\n        /* \"#utility.yul\":21584:21618   */\n      swap3\n      swap2\n      pop\n      pop\n      jump\t// out\n        /* \"#utility.yul\":21624:21929   */\n    tag_105:\n        /* \"#utility.yul\":21664:21667   */\n      0x00\n        /* \"#utility.yul\":21683:21703   */\n      tag_560\n        /* \"#utility.yul\":21701:21702   */\n      dup3\n        /* \"#utility.yul\":21683:21703   */\n      tag_493\n      jump\t// in\n    tag_560:\n        /* \"#utility.yul\":21678:21703   */\n      swap2\n      pop\n        /* \"#utility.yul\":21717:21737   */\n      tag_561\n        /* \"#utility.yul\":21735:21736   */\n      dup4\n        /* \"#utility.yul\":21717:21737   */\n      tag_493\n      jump\t// in\n    tag_561:\n        /* \"#utility.yul\":21712:21737   */\n      swap3\n      pop\n        /* \"#utility.yul\":21871:21872   */\n      dup3\n        /* \"#utility.yul\":21803:21869   */\n      0xffffffffffffffffffffffffffffffffffffffffffffffffffffffffffffffff\n        /* \"#utility.yul\":21799:21873   */\n      sub\n        /* \"#utility.yul\":21796:21797   */\n      dup3\n        /* \"#utility.yul\":21793:21874   */\n      gt\n        /* \"#utility.yul\":21790:21792   */\n      iszero\n      tag_562\n      jumpi\n        /* \"#utility.yul\":21877:21895   */\n      tag_563\n      tag_564\n      jump\t// in\n    tag_563:\n        /* \"#utility.yul\":21790:21792   */\n    tag_562:\n        /* \"#utility.yul\":21921:21922   */\n      dup3\n        /* \"#utility.yul\":21918:21919   */\n      dup3\n        /* \"#utility.yul\":21914:21923   */\n      add\n        /* \"#utility.yul\":21907:21923   */\n      swap1\n      pop\n        /* \"#utility.yul\":21668:21929   */\n      swap3\n      swap2\n      pop\n      pop\n      jump\t// out\n        /* \"#utility.yul\":21935:22283   */\n    tag_280:\n        /* \"#utility.yul\":21975:21982   */\n      0x00\n        /* \"#utility.yul\":21998:22018   */\n      tag_566\n        /* \"#utility.yul\":22016:22017   */\n      dup3\n        /* \"#utility.yul\":21998:22018   */\n      tag_493\n      jump\t// in\n    tag_566:\n        /* \"#utility.yul\":21993:22018   */\n      swap2\n      pop\n        /* \"#utility.yul\":22032:22052   */\n      tag_567\n        /* \"#utility.yul\":22050:22051   */\n      dup4\n        /* \"#utility.yul\":22032:22052   */\n      tag_493\n      jump\t// in\n    tag_567:\n        /* \"#utility.yul\":22027:22052   */\n      swap3\n      pop\n        /* \"#utility.yul\":22220:22221   */\n      dup2\n        /* \"#utility.yul\":22152:22218   */\n      0xffffffffffffffffffffffffffffffffffffffffffffffffffffffffffffffff\n        /* \"#utility.yul\":22148:22222   */\n      div\n        /* \"#utility.yul\":22145:22146   */\n      dup4\n        /* \"#utility.yul\":22142:22223   */\n      gt\n        /* \"#utility.yul\":22137:22138   */\n      dup3\n        /* \"#utility.yul\":22130:22139   */\n      iszero\n        /* \"#utility.yul\":22123:22140   */\n      iszero\n        /* \"#utility.yul\":22119:22224   */\n      and\n        /* \"#utility.yul\":22116:22118   */\n      iszero\n      tag_568\n      jumpi\n        /* \"#utility.yul\":22227:22245   */\n      tag_569\n      tag_564\n      jump\t// in\n    tag_569:\n        /* \"#utility.yul\":22116:22118   */\n    tag_568:\n        /* \"#utility.yul\":22275:22276   */\n      dup3\n        /* \"#utility.yul\":22272:22273   */\n      dup3\n        /* \"#utility.yul\":22268:22277   */\n      mul\n        /* \"#utility.yul\":22257:22277   */\n      swap1\n      pop\n        /* \"#utility.yul\":21983:22283   */\n      swap3\n      swap2\n      pop\n      pop\n      jump\t// out\n        /* \"#utility.yul\":22289:22480   */\n    tag_217:\n        /* \"#utility.yul\":22329:22333   */\n      0x00\n        /* \"#utility.yul\":22349:22369   */\n      tag_571\n        /* \"#utility.yul\":22367:22368   */\n      dup3\n        /* \"#utility.yul\":22349:22369   */\n      tag_493\n      jump\t// in\n    tag_571:\n        /* \"#utility.yul\":22344:22369   */\n      swap2\n      pop\n        /* \"#utility.yul\":22383:22403   */\n      tag_572\n        /* \"#utility.yul\":22401:22402   */\n      dup4\n        /* \"#utility.yul\":22383:22403   */\n      tag_493\n      jump\t// in\n    tag_572:\n        /* \"#utility.yul\":22378:22403   */\n      swap3\n      pop\n        /* \"#utility.yul\":22422:22423   */\n      dup3\n        /* \"#utility.yul\":22419:22420   */\n      dup3\n        /* \"#utility.yul\":22416:22424   */\n      lt\n        /* \"#utility.yul\":22413:22415   */\n      iszero\n      tag_573\n      jumpi\n        /* \"#utility.yul\":22427:22445   */\n      tag_574\n      tag_564\n      jump\t// in\n    tag_574:\n        /* \"#utility.yul\":22413:22415   */\n    tag_573:\n        /* \"#utility.yul\":22472:22473   */\n      dup3\n        /* \"#utility.yul\":22469:22470   */\n      dup3\n        /* \"#utility.yul\":22465:22474   */\n      sub\n        /* \"#utility.yul\":22457:22474   */\n      swap1\n      pop\n        /* \"#utility.yul\":22334:22480   */\n      swap3\n      swap2\n      pop\n      pop\n      jump\t// out\n        /* \"#utility.yul\":22486:22582   */\n    tag_380:\n        /* \"#utility.yul\":22523:22530   */\n      0x00\n        /* \"#utility.yul\":22552:22576   */\n      tag_576\n        /* \"#utility.yul\":22570:22575   */\n      dup3\n        /* \"#utility.yul\":22552:22576   */\n      tag_577\n      jump\t// in\n    tag_576:\n        /* \"#utility.yul\":22541:22576   */\n      swap1\n      pop\n        /* \"#utility.yul\":22531:22582   */\n      swap2\n      swap1\n      pop\n      jump\t// out\n        /* \"#utility.yul\":22588:22678   */\n    tag_384:\n        /* \"#utility.yul\":22622:22629   */\n      0x00\n        /* \"#utility.yul\":22665:22670   */\n      dup2\n        /* \"#utility.yul\":22658:22671   */\n      iszero\n        /* \"#utility.yul\":22651:22672   */\n      iszero\n        /* \"#utility.yul\":22640:22672   */\n      swap1\n      pop\n        /* \"#utility.yul\":22630:22678   */\n      swap2\n      swap1\n      pop\n      jump\t// out\n        /* \"#utility.yul\":22684:22833   */\n    tag_389:\n        /* \"#utility.yul\":22720:22727   */\n      0x00\n        /* \"#utility.yul\":22760:22826   */\n      0xff00000000000000000000000000000000000000000000000000000000000000\n        /* \"#utility.yul\":22753:22758   */\n      dup3\n        /* \"#utility.yul\":22749:22827   */\n      and\n        /* \"#utility.yul\":22738:22827   */\n      swap1\n      pop\n        /* \"#utility.yul\":22728:22833   */\n      swap2\n      swap1\n      pop\n      jump\t// out\n        /* \"#utility.yul\":22839:22989   */\n    tag_395:\n        /* \"#utility.yul\":22876:22883   */\n      0x00\n        /* \"#utility.yul\":22916:22982   */\n      0xffffffffffffffffffffffffffffffffffffffff000000000000000000000000\n        /* \"#utility.yul\":22909:22914   */\n      dup3\n        /* \"#utility.yul\":22905:22983   */\n      and\n        /* \"#utility.yul\":22894:22983   */\n      swap1\n      pop\n        /* \"#utility.yul\":22884:22989   */\n      swap2\n      swap1\n      pop\n      jump\t// out\n        /* \"#utility.yul\":22995:23072   */\n    tag_400:\n        /* \"#utility.yul\":23032:23039   */\n      0x00\n        /* \"#utility.yul\":23061:23066   */\n      dup2\n        /* \"#utility.yul\":23050:23066   */\n      swap1\n      pop\n        /* \"#utility.yul\":23040:23072   */\n      swap2\n      swap1\n      pop\n      jump\t// out\n        /* \"#utility.yul\":23078:23227   */\n    tag_582:\n        /* \"#utility.yul\":23114:23121   */\n      0x00\n        /* \"#utility.yul\":23154:23220   */\n      0xffffffff00000000000000000000000000000000000000000000000000000000\n        /* \"#utility.yul\":23147:23152   */\n      dup3\n        /* \"#utility.yul\":23143:23221   */\n      and\n        /* \"#utility.yul\":23132:23221   */\n      swap1\n      pop\n        /* \"#utility.yul\":23122:23227   */\n      swap2\n      swap1\n      pop\n      jump\t// out\n        /* \"#utility.yul\":23233:23359   */\n    tag_577:\n        /* \"#utility.yul\":23270:23277   */\n      0x00\n        /* \"#utility.yul\":23310:23352   */\n      0xffffffffffffffffffffffffffffffffffffffff\n        /* \"#utility.yul\":23303:23308   */\n      dup3\n        /* \"#utility.yul\":23299:23353   */\n      and\n        /* \"#utility.yul\":23288:23353   */\n      swap1\n      pop\n        /* \"#utility.yul\":23278:23359   */\n      swap2\n      swap1\n      pop\n      jump\t// out\n        /* \"#utility.yul\":23365:23442   */\n    tag_493:\n        /* \"#utility.yul\":23402:23409   */\n      0x00\n        /* \"#utility.yul\":23431:23436   */\n      dup2\n        /* \"#utility.yul\":23420:23436   */\n      swap1\n      pop\n        /* \"#utility.yul\":23410:23442   */\n      swap2\n      swap1\n      pop\n      jump\t// out\n        /* \"#utility.yul\":23448:23602   */\n    tag_307:\n        /* \"#utility.yul\":23532:23538   */\n      dup3\n        /* \"#utility.yul\":23527:23530   */\n      dup2\n        /* \"#utility.yul\":23522:23525   */\n      dup4\n        /* \"#utility.yul\":23509:23539   */\n      calldatacopy\n        /* \"#utility.yul\":23594:23595   */\n      0x00\n        /* \"#utility.yul\":23585:23591   */\n      dup4\n        /* \"#utility.yul\":23580:23583   */\n      dup4\n        /* \"#utility.yul\":23576:23592   */\n      add\n        /* \"#utility.yul\":23569:23596   */\n      mstore\n        /* \"#utility.yul\":23499:23602   */\n      pop\n      pop\n      pop\n      jump\t// out\n        /* \"#utility.yul\":23608:23915   */\n    tag_314:\n        /* \"#utility.yul\":23676:23677   */\n      0x00\n        /* \"#utility.yul\":23686:23799   */\n    tag_588:\n        /* \"#utility.yul\":23700:23706   */\n      dup4\n        /* \"#utility.yul\":23697:23698   */\n      dup2\n        /* \"#utility.yul\":23694:23707   */\n      lt\n        /* \"#utility.yul\":23686:23799   */\n      iszero\n      tag_590\n      jumpi\n        /* \"#utility.yul\":23785:23786   */\n      dup1\n        /* \"#utility.yul\":23780:23783   */\n      dup3\n        /* \"#utility.yul\":23776:23787   */\n      add\n        /* \"#utility.yul\":23770:23788   */\n      mload\n        /* \"#utility.yul\":23766:23767   */\n      dup2\n        /* \"#utility.yul\":23761:23764   */\n      dup5\n        /* \"#utility.yul\":23757:23768   */\n      add\n        /* \"#utility.yul\":23750:23789   */\n      mstore\n        /* \"#utility.yul\":23722:23724   */\n      0x20\n        /* \"#utility.yul\":23719:23720   */\n      dup2\n        /* \"#utility.yul\":23715:23725   */\n      add\n        /* \"#utility.yul\":23710:23725   */\n      swap1\n      pop\n        /* \"#utility.yul\":23686:23799   */\n      jump(tag_588)\n    tag_590:\n        /* \"#utility.yul\":23817:23823   */\n      dup4\n        /* \"#utility.yul\":23814:23815   */\n      dup2\n        /* \"#utility.yul\":23811:23824   */\n      gt\n        /* \"#utility.yul\":23808:23810   */\n      iszero\n      tag_591\n      jumpi\n        /* \"#utility.yul\":23897:23898   */\n      0x00\n        /* \"#utility.yul\":23888:23894   */\n      dup5\n        /* \"#utility.yul\":23883:23886   */\n      dup5\n        /* \"#utility.yul\":23879:23895   */\n      add\n        /* \"#utility.yul\":23872:23899   */\n      mstore\n        /* \"#utility.yul\":23808:23810   */\n    tag_591:\n        /* \"#utility.yul\":23657:23915   */\n      pop\n      pop\n      pop\n      pop\n      jump\t// out\n        /* \"#utility.yul\":23921:24092   */\n    tag_294:\n        /* \"#utility.yul\":23960:23963   */\n      0x00\n        /* \"#utility.yul\":23983:24007   */\n      tag_593\n        /* \"#utility.yul\":24001:24006   */\n      dup3\n        /* \"#utility.yul\":23983:24007   */\n      tag_493\n      jump\t// in\n    tag_593:\n        /* \"#utility.yul\":23974:24007   */\n      swap2\n      pop\n        /* \"#utility.yul\":24029:24033   */\n      0x00\n        /* \"#utility.yul\":24022:24027   */\n      dup3\n        /* \"#utility.yul\":24019:24034   */\n      eq\n        /* \"#utility.yul\":24016:24018   */\n      iszero\n      tag_594\n      jumpi\n        /* \"#utility.yul\":24037:24055   */\n      tag_595\n      tag_564\n      jump\t// in\n    tag_595:\n        /* \"#utility.yul\":24016:24018   */\n    tag_594:\n        /* \"#utility.yul\":24084:24085   */\n      0x01\n        /* \"#utility.yul\":24077:24082   */\n      dup3\n        /* \"#utility.yul\":24073:24086   */\n      sub\n        /* \"#utility.yul\":24066:24086   */\n      swap1\n      pop\n        /* \"#utility.yul\":23964:24092   */\n      swap2\n      swap1\n      pop\n      jump\t// out\n        /* \"#utility.yul\":24098:24379   */\n    tag_546:\n        /* \"#utility.yul\":24181:24208   */\n      tag_597\n        /* \"#utility.yul\":24203:24207   */\n      dup3\n        /* \"#utility.yul\":24181:24208   */\n      tag_414\n      jump\t// in\n    tag_597:\n        /* \"#utility.yul\":24173:24179   */\n      dup2\n        /* \"#utility.yul\":24169:24209   */\n      add\n        /* \"#utility.yul\":24311:24317   */\n      dup2\n        /* \"#utility.yul\":24299:24309   */\n      dup2\n        /* \"#utility.yul\":24296:24318   */\n      lt\n        /* \"#utility.yul\":24275:24293   */\n      0xffffffffffffffff\n        /* \"#utility.yul\":24263:24273   */\n      dup3\n        /* \"#utility.yul\":24260:24294   */\n      gt\n        /* \"#utility.yul\":24257:24319   */\n      or\n        /* \"#utility.yul\":24254:24256   */\n      iszero\n      tag_598\n      jumpi\n        /* \"#utility.yul\":24322:24340   */\n      tag_599\n      tag_551\n      jump\t// in\n    tag_599:\n        /* \"#utility.yul\":24254:24256   */\n    tag_598:\n        /* \"#utility.yul\":24362:24372   */\n      dup1\n        /* \"#utility.yul\":24358:24360   */\n      0x40\n        /* \"#utility.yul\":24351:24373   */\n      mstore\n        /* \"#utility.yul\":24141:24379   */\n      pop\n      pop\n      pop\n      jump\t// out\n        /* \"#utility.yul\":24385:24618   */\n    tag_270:\n        /* \"#utility.yul\":24424:24427   */\n      0x00\n        /* \"#utility.yul\":24447:24471   */\n      tag_601\n        /* \"#utility.yul\":24465:24470   */\n      dup3\n        /* \"#utility.yul\":24447:24471   */\n      tag_493\n      jump\t// in\n    tag_601:\n        /* \"#utility.yul\":24438:24471   */\n      swap2\n      pop\n        /* \"#utility.yul\":24493:24559   */\n      0xffffffffffffffffffffffffffffffffffffffffffffffffffffffffffffffff\n        /* \"#utility.yul\":24486:24491   */\n      dup3\n        /* \"#utility.yul\":24483:24560   */\n      eq\n        /* \"#utility.yul\":24480:24482   */\n      iszero\n      tag_602\n      jumpi\n        /* \"#utility.yul\":24563:24581   */\n      tag_603\n      tag_564\n      jump\t// in\n    tag_603:\n        /* \"#utility.yul\":24480:24482   */\n    tag_602:\n        /* \"#utility.yul\":24610:24611   */\n      0x01\n        /* \"#utility.yul\":24603:24608   */\n      dup3\n        /* \"#utility.yul\":24599:24612   */\n      add\n        /* \"#utility.yul\":24592:24612   */\n      swap1\n      pop\n        /* \"#utility.yul\":24428:24618   */\n      swap2\n      swap1\n      pop\n      jump\t// out\n        /* \"#utility.yul\":24624:24702   */\n    tag_390:\n        /* \"#utility.yul\":24662:24669   */\n      0x00\n        /* \"#utility.yul\":24691:24696   */\n      dup2\n        /* \"#utility.yul\":24680:24696   */\n      swap1\n      pop\n        /* \"#utility.yul\":24670:24702   */\n      swap2\n      swap1\n      pop\n      jump\t// out\n        /* \"#utility.yul\":24708:24787   */\n    tag_396:\n        /* \"#utility.yul\":24747:24754   */\n      0x00\n        /* \"#utility.yul\":24776:24781   */\n      dup2\n        /* \"#utility.yul\":24765:24781   */\n      swap1\n      pop\n        /* \"#utility.yul\":24755:24787   */\n      swap2\n      swap1\n      pop\n      jump\t// out\n        /* \"#utility.yul\":24793:24872   */\n    tag_405:\n        /* \"#utility.yul\":24832:24839   */\n      0x00\n        /* \"#utility.yul\":24861:24866   */\n      dup2\n        /* \"#utility.yul\":24850:24866   */\n      swap1\n      pop\n        /* \"#utility.yul\":24840:24872   */\n      swap2\n      swap1\n      pop\n      jump\t// out\n        /* \"#utility.yul\":24878:25058   */\n    tag_564:\n        /* \"#utility.yul\":24926:25003   */\n      0x4e487b7100000000000000000000000000000000000000000000000000000000\n        /* \"#utility.yul\":24923:24924   */\n      0x00\n        /* \"#utility.yul\":24916:25004   */\n      mstore\n        /* \"#utility.yul\":25023:25027   */\n      0x11\n        /* \"#utility.yul\":25020:25021   */\n      0x04\n        /* \"#utility.yul\":25013:25028   */\n      mstore\n        /* \"#utility.yul\":25047:25051   */\n      0x24\n        /* \"#utility.yul\":25044:25045   */\n      0x00\n        /* \"#utility.yul\":25037:25052   */\n      revert\n        /* \"#utility.yul\":25064:25244   */\n    tag_551:\n        /* \"#utility.yul\":25112:25189   */\n      0x4e487b7100000000000000000000000000000000000000000000000000000000\n        /* \"#utility.yul\":25109:25110   */\n      0x00\n        /* \"#utility.yul\":25102:25190   */\n      mstore\n        /* \"#utility.yul\":25209:25213   */\n      0x41\n        /* \"#utility.yul\":25206:25207   */\n      0x04\n        /* \"#utility.yul\":25199:25214   */\n      mstore\n        /* \"#utility.yul\":25233:25237   */\n      0x24\n        /* \"#utility.yul\":25230:25231   */\n      0x00\n        /* \"#utility.yul\":25223:25238   */\n      revert\n        /* \"#utility.yul\":25250:25352   */\n    tag_414:\n        /* \"#utility.yul\":25291:25297   */\n      0x00\n        /* \"#utility.yul\":25342:25344   */\n      0x1f\n        /* \"#utility.yul\":25338:25345   */\n      not\n        /* \"#utility.yul\":25333:25335   */\n      0x1f\n        /* \"#utility.yul\":25326:25331   */\n      dup4\n        /* \"#utility.yul\":25322:25336   */\n      add\n        /* \"#utility.yul\":25318:25346   */\n      and\n        /* \"#utility.yul\":25308:25346   */\n      swap1\n      pop\n        /* \"#utility.yul\":25298:25352   */\n      swap2\n      swap1\n      pop\n      jump\t// out\n        /* \"#utility.yul\":25358:25540   */\n    tag_439:\n        /* \"#utility.yul\":25498:25532   */\n      0x537472696e67733a20686578206c656e67746820696e73756666696369656e74\n        /* \"#utility.yul\":25494:25495   */\n      0x00\n        /* \"#utility.yul\":25486:25492   */\n      dup3\n        /* \"#utility.yul\":25482:25496   */\n      add\n        /* \"#utility.yul\":25475:25533   */\n      mstore\n        /* \"#utility.yul\":25464:25540   */\n      pop\n      jump\t// out\n        /* \"#utility.yul\":25546:25716   */\n    tag_444:\n        /* \"#utility.yul\":25686:25708   */\n      0x5061757361626c653a206e6f7420706175736564000000000000000000000000\n        /* \"#utility.yul\":25682:25683   */\n      0x00\n        /* \"#utility.yul\":25674:25680   */\n      dup3\n        /* \"#utility.yul\":25670:25684   */\n      add\n        /* \"#utility.yul\":25663:25709   */\n      mstore\n        /* \"#utility.yul\":25652:25716   */\n      pop\n      jump\t// out\n        /* \"#utility.yul\":25722:26025   */\n    tag_449:\n        /* \"#utility.yul\":25862:25896   */\n      0x46696e61537761703a636c61696d20496e76616c6964207369676e6174757265\n        /* \"#utility.yul\":25858:25859   */\n      0x00\n        /* \"#utility.yul\":25850:25856   */\n      dup3\n        /* \"#utility.yul\":25846:25860   */\n      add\n        /* \"#utility.yul\":25839:25897   */\n      mstore\n        /* \"#utility.yul\":25931:25965   */\n      0x206c656e6774682e20546865207369676e6174757265206d7573742062652065\n        /* \"#utility.yul\":25926:25928   */\n      0x20\n        /* \"#utility.yul\":25918:25924   */\n      dup3\n        /* \"#utility.yul\":25914:25929   */\n      add\n        /* \"#utility.yul\":25907:25966   */\n      mstore\n        /* \"#utility.yul\":26000:26017   */\n      0x786163746c792036352062797465730000000000000000000000000000000000\n        /* \"#utility.yul\":25995:25997   */\n      0x40\n        /* \"#utility.yul\":25987:25993   */\n      dup3\n        /* \"#utility.yul\":25983:25998   */\n      add\n        /* \"#utility.yul\":25976:26018   */\n      mstore\n        /* \"#utility.yul\":25828:26025   */\n      pop\n      jump\t// out\n        /* \"#utility.yul\":26031:26197   */\n    tag_454:\n        /* \"#utility.yul\":26171:26189   */\n      0x5061757361626c653a2070617573656400000000000000000000000000000000\n        /* \"#utility.yul\":26167:26168   */\n      0x00\n        /* \"#utility.yul\":26159:26165   */\n      dup3\n        /* \"#utility.yul\":26155:26169   */\n      add\n        /* \"#utility.yul\":26148:26190   */\n      mstore\n        /* \"#utility.yul\":26137:26197   */\n      pop\n      jump\t// out\n        /* \"#utility.yul\":26203:26510   */\n    tag_459:\n        /* \"#utility.yul\":26343:26377   */\n      0x46696e61537761703a636c61696d20496e76616c6964207369676e6174757265\n        /* \"#utility.yul\":26339:26340   */\n      0x00\n        /* \"#utility.yul\":26331:26337   */\n      dup3\n        /* \"#utility.yul\":26327:26341   */\n      add\n        /* \"#utility.yul\":26320:26378   */\n      mstore\n        /* \"#utility.yul\":26412:26446   */\n      0x2e20546865207265636f7665726564207075626c6963206b6579206d75737420\n        /* \"#utility.yul\":26407:26409   */\n      0x20\n        /* \"#utility.yul\":26399:26405   */\n      dup3\n        /* \"#utility.yul\":26395:26410   */\n      add\n        /* \"#utility.yul\":26388:26447   */\n      mstore\n        /* \"#utility.yul\":26481:26502   */\n      0x62652065786163746c7920333320627974657300000000000000000000000000\n        /* \"#utility.yul\":26476:26478   */\n      0x40\n        /* \"#utility.yul\":26468:26474   */\n      dup3\n        /* \"#utility.yul\":26464:26479   */\n      add\n        /* \"#utility.yul\":26457:26503   */\n      mstore\n        /* \"#utility.yul\":26309:26510   */\n      pop\n      jump\t// out\n        /* \"#utility.yul\":26516:26747   */\n    tag_464:\n        /* \"#utility.yul\":26656:26690   */\n      0x46696e61537761703a636c61696d205461726765742061646472657373206361\n        /* \"#utility.yul\":26652:26653   */\n      0x00\n        /* \"#utility.yul\":26644:26650   */\n      dup3\n        /* \"#utility.yul\":26640:26654   */\n      add\n        /* \"#utility.yul\":26633:26691   */\n      mstore\n        /* \"#utility.yul\":26725:26739   */\n      0x6e6e6f74206265207a65726f0000000000000000000000000000000000000000\n        /* \"#utility.yul\":26720:26722   */\n      0x20\n        /* \"#utility.yul\":26712:26718   */\n      dup3\n        /* \"#utility.yul\":26708:26723   */\n      add\n        /* \"#utility.yul\":26701:26740   */\n      mstore\n        /* \"#utility.yul\":26622:26747   */\n      pop\n      jump\t// out\n        /* \"#utility.yul\":26753:26926   */\n    tag_469:\n        /* \"#utility.yul\":26893:26918   */\n      0x416363657373436f6e74726f6c3a206163636f756e7420000000000000000000\n        /* \"#utility.yul\":26889:26890   */\n      0x00\n        /* \"#utility.yul\":26881:26887   */\n      dup3\n        /* \"#utility.yul\":26877:26891   */\n      add\n        /* \"#utility.yul\":26870:26919   */\n      mstore\n        /* \"#utility.yul\":26859:26926   */\n      pop\n      jump\t// out\n        /* \"#utility.yul\":26932:27112   */\n    tag_474:\n        /* \"#utility.yul\":27072:27104   */\n      0x46696e61537761703a636c61696d20616c726561647920737761707065640000\n        /* \"#utility.yul\":27068:27069   */\n      0x00\n        /* \"#utility.yul\":27060:27066   */\n      dup3\n        /* \"#utility.yul\":27056:27070   */\n      add\n        /* \"#utility.yul\":27049:27105   */\n      mstore\n        /* \"#utility.yul\":27038:27112   */\n      pop\n      jump\t// out\n        /* \"#utility.yul\":27118:27346   */\n    tag_479:\n        /* \"#utility.yul\":27258:27292   */\n      0x46696e61537761703a636c61696d205369676e61747572652068617368206973\n        /* \"#utility.yul\":27254:27255   */\n      0x00\n        /* \"#utility.yul\":27246:27252   */\n      dup3\n        /* \"#utility.yul\":27242:27256   */\n      add\n        /* \"#utility.yul\":27235:27293   */\n      mstore\n        /* \"#utility.yul\":27327:27338   */\n      0x2072657175697265640000000000000000000000000000000000000000000000\n        /* \"#utility.yul\":27322:27324   */\n      0x20\n        /* \"#utility.yul\":27314:27320   */\n      dup3\n        /* \"#utility.yul\":27310:27325   */\n      add\n        /* \"#utility.yul\":27303:27339   */\n      mstore\n        /* \"#utility.yul\":27224:27346   */\n      pop\n      jump\t// out\n        /* \"#utility.yul\":27352:27519   */\n    tag_484:\n        /* \"#utility.yul\":27492:27511   */\n      0x206973206d697373696e6720726f6c6520000000000000000000000000000000\n        /* \"#utility.yul\":27488:27489   */\n      0x00\n        /* \"#utility.yul\":27480:27486   */\n      dup3\n        /* \"#utility.yul\":27476:27490   */\n      add\n        /* \"#utility.yul\":27469:27512   */\n      mstore\n        /* \"#utility.yul\":27458:27519   */\n      pop\n      jump\t// out\n        /* \"#utility.yul\":27525:27759   */\n    tag_489:\n        /* \"#utility.yul\":27665:27699   */\n      0x416363657373436f6e74726f6c3a2063616e206f6e6c792072656e6f756e6365\n        /* \"#utility.yul\":27661:27662   */\n      0x00\n        /* \"#utility.yul\":27653:27659   */\n      dup3\n        /* \"#utility.yul\":27649:27663   */\n      add\n        /* \"#utility.yul\":27642:27700   */\n      mstore\n        /* \"#utility.yul\":27734:27751   */\n      0x20726f6c657320666f722073656c660000000000000000000000000000000000\n        /* \"#utility.yul\":27729:27731   */\n      0x20\n        /* \"#utility.yul\":27721:27727   */\n      dup3\n        /* \"#utility.yul\":27717:27732   */\n      add\n        /* \"#utility.yul\":27710:27752   */\n      mstore\n        /* \"#utility.yul\":27631:27759   */\n      pop\n      jump\t// out\n        /* \"#utility.yul\":27765:27887   */\n    tag_318:\n        /* \"#utility.yul\":27838:27862   */\n      tag_622\n        /* \"#utility.yul\":27856:27861   */\n      dup2\n        /* \"#utility.yul\":27838:27862   */\n      tag_380\n      jump\t// in\n    tag_622:\n        /* \"#utility.yul\":27831:27836   */\n      dup2\n        /* \"#utility.yul\":27828:27863   */\n      eq\n        /* \"#utility.yul\":27818:27820   */\n      tag_623\n      jumpi\n        /* \"#utility.yul\":27877:27878   */\n      0x00\n        /* \"#utility.yul\":27874:27875   */\n      dup1\n        /* \"#utility.yul\":27867:27879   */\n      revert\n        /* \"#utility.yul\":27818:27820   */\n    tag_623:\n        /* \"#utility.yul\":27808:27887   */\n      pop\n      jump\t// out\n        /* \"#utility.yul\":27893:28015   */\n    tag_322:\n        /* \"#utility.yul\":27966:27990   */\n      tag_625\n        /* \"#utility.yul\":27984:27989   */\n      dup2\n        /* \"#utility.yul\":27966:27990   */\n      tag_400\n      jump\t// in\n    tag_625:\n        /* \"#utility.yul\":27959:27964   */\n      dup2\n        /* \"#utility.yul\":27956:27991   */\n      eq\n        /* \"#utility.yul\":27946:27948   */\n      tag_626\n      jumpi\n        /* \"#utility.yul\":28005:28006   */\n      0x00\n        /* \"#utility.yul\":28002:28003   */\n      dup1\n        /* \"#utility.yul\":27995:28007   */\n      revert\n        /* \"#utility.yul\":27946:27948   */\n    tag_626:\n        /* \"#utility.yul\":27936:28015   */\n      pop\n      jump\t// out\n        /* \"#utility.yul\":28021:28141   */\n    tag_329:\n        /* \"#utility.yul\":28093:28116   */\n      tag_628\n        /* \"#utility.yul\":28110:28115   */\n      dup2\n        /* \"#utility.yul\":28093:28116   */\n      tag_582\n      jump\t// in\n    tag_628:\n        /* \"#utility.yul\":28086:28091   */\n      dup2\n        /* \"#utility.yul\":28083:28117   */\n      eq\n        /* \"#utility.yul\":28073:28075   */\n      tag_629\n      jumpi\n        /* \"#utility.yul\":28131:28132   */\n      0x00\n        /* \"#utility.yul\":28128:28129   */\n      dup1\n        /* \"#utility.yul\":28121:28133   */\n      revert\n        /* \"#utility.yul\":28073:28075   */\n    tag_629:\n        /* \"#utility.yul\":28063:28141   */\n      pop\n      jump\t// out\n        /* \"#utility.yul\":28147:28269   */\n    tag_341:\n        /* \"#utility.yul\":28220:28244   */\n      tag_631\n        /* \"#utility.yul\":28238:28243   */\n      dup2\n        /* \"#utility.yul\":28220:28244   */\n      tag_493\n      jump\t// in\n    tag_631:\n        /* \"#utility.yul\":28213:28218   */\n      dup2\n        /* \"#utility.yul\":28210:28245   */\n      eq\n        /* \"#utility.yul\":28200:28202   */\n      tag_632\n      jumpi\n        /* \"#utility.yul\":28259:28260   */\n      0x00\n        /* \"#utility.yul\":28256:28257   */\n      dup1\n        /* \"#utility.yul\":28249:28261   */\n      revert\n        /* \"#utility.yul\":28200:28202   */\n    tag_632:\n        /* \"#utility.yul\":28190:28269   */\n      pop\n      jump\t// out\n\n    auxdata: 0xa2646970667358221220d1249892d4a45f2f3953c6556cef639fa4ef909fd1f796a556dd220a08df164e64736f6c63430008040033\n}\n",
				"bytecode": {
					"linkReferences": {},
					"object": "60e06040523480156200001157600080fd5b5060405162002a9638038062002a96833981810160405281019062000037919062000329565b60008060006101000a81548160ff0219169083151502179055508373ffffffffffffffffffffffffffffffffffffffff1660808173ffffffffffffffffffffffffffffffffffffffff1660601b815250508273ffffffffffffffffffffffffffffffffffffffff1660a08173ffffffffffffffffffffffffffffffffffffffff1660601b81525050817effffffffffffffffffffffffffffffffffffffffffffffffffffffffffffff191660c0817effffffffffffffffffffffffffffffffffffffffffffffffffffffffffffff19168152505080600281905550620001447fa49807205ce4d355092ef5a8a18f56e8913cf4a201fbe287825b095693c21775336200018060201b60201c565b620001767f65d7a28e3265b37a6474929f336521b332c1681b933f6cb9f3376673440d862a336200018060201b60201c565b505050506200044d565b6200019282826200027160201b60201c565b6200026d57600180600084815260200190815260200160002060000160008373ffffffffffffffffffffffffffffffffffffffff1673ffffffffffffffffffffffffffffffffffffffff16815260200190815260200160002060006101000a81548160ff02191690831515021790555062000212620002dc60201b60201c565b73ffffffffffffffffffffffffffffffffffffffff168173ffffffffffffffffffffffffffffffffffffffff16837f2f8788117e7eff1d82e926ec794901d17c78024a50270940304540a733656f0d60405160405180910390a45b5050565b60006001600084815260200190815260200160002060000160008373ffffffffffffffffffffffffffffffffffffffff1673ffffffffffffffffffffffffffffffffffffffff16815260200190815260200160002060009054906101000a900460ff16905092915050565b600033905090565b600081519050620002f581620003ff565b92915050565b6000815190506200030c8162000419565b92915050565b600081519050620003238162000433565b92915050565b600080600080608085870312156200034057600080fd5b60006200035087828801620002e4565b94505060206200036387828801620002e4565b93505060406200037687828801620002fb565b9250506060620003898782880162000312565b91505092959194509250565b6000620003a282620003d5565b9050919050565b60007fff0000000000000000000000000000000000000000000000000000000000000082169050919050565b600073ffffffffffffffffffffffffffffffffffffffff82169050919050565b6000819050919050565b6200040a8162000395565b81146200041657600080fd5b50565b6200042481620003a9565b81146200043057600080fd5b50565b6200043e81620003f5565b81146200044a57600080fd5b50565b60805160601c60a05160601c60c05160f81c60f81b61261062000486600039600061098101526000505060006107bc01526126106000f3fe608060405234801561001057600080fd5b506004361061012c5760003560e01c806375b238fc116100ad578063a217fddf11610071578063a217fddf14610307578063c6afe01e14610325578063c71c649014610341578063d547741f1461035d578063e63ab1e9146103795761012c565b806375b238fc14610261578063784153651461027f5780638456cb59146102af57806391d14854146102b9578063a0d5680f146102e95761012c565b806336568abe116100f457806336568abe146101e55780633f4ba83a146102015780635b06a1d51461020b5780635c975abb14610227578063736c76ee146102455761012c565b80630112f5411461013157806301ffc9a71461014d578063248a9ca31461017d5780632f2ff15d146101ad5780633636f669146101c9575b600080fd5b61014b60048036038101906101469190611930565b610397565b005b61016760048036038101906101629190611831565b6103e6565b6040516101749190611d1d565b60405180910390f35b610197600480360381019061019291906117a3565b610460565b6040516101a49190611d38565b60405180910390f35b6101c760048036038101906101c291906117f5565b610480565b005b6101e360048036038101906101de919061185a565b6104a9565b005b6101ff60048036038101906101fa91906117f5565b610503565b005b610209610586565b005b61022560048036038101906102209190611930565b6105c3565b005b61022f610600565b60405161023c9190611d1d565b60405180910390f35b61025f600480360381019061025a919061173c565b610616565b005b610269610b8a565b6040516102769190611d38565b60405180910390f35b6102996004803603810190610294919061185a565b610bae565b6040516102a69190611ec5565b60405180910390f35b6102b7610bd6565b005b6102d360048036038101906102ce91906117f5565b610c13565b6040516102e09190611d1d565b60405180910390f35b6102f1610c7e565b6040516102fe9190611ec5565b60405180910390f35b61030f610c88565b60405161031c9190611d38565b60405180910390f35b61033f600480360381019061033a9190611930565b610c8f565b005b61035b600480360381019061035691906118dc565b610cde565b005b610377600480360381019061037291906117f5565b610d38565b005b610381610d61565b60405161038e9190611d38565b60405180910390f35b7fa49807205ce4d355092ef5a8a18f56e8913cf4a201fbe287825b095693c217756103c9816103c4610d85565b610d8d565b81600460008282546103db9190611f84565b925050819055505050565b60007f7965db0b000000000000000000000000000000000000000000000000000000007bffffffffffffffffffffffffffffffffffffffffffffffffffffffff1916827bffffffffffffffffffffffffffffffffffffffffffffffffffffffff19161480610459575061045882610e2a565b5b9050919050565b600060016000838152602001908152602001600020600101549050919050565b61048982610460565b61049a81610495610d85565b610d8d565b6104a48383610e94565b505050565b7fa49807205ce4d355092ef5a8a18f56e8913cf4a201fbe287825b095693c217756104db816104d6610d85565b610d8d565b60006003836040516104ed9190611c8d565b9081526020016040518091039020819055505050565b61050b610d85565b73ffffffffffffffffffffffffffffffffffffffff168173ffffffffffffffffffffffffffffffffffffffff1614610578576040517f08c379a000000000000000000000000000000000000000000000000000000000815260040161056f90611ea5565b60405180910390fd5b6105828282610f74565b5050565b7f65d7a28e3265b37a6474929f336521b332c1681b933f6cb9f3376673440d862a6105b8816105b3610d85565b610d8d565b6105c0611056565b50565b7fa49807205ce4d355092ef5a8a18f56e8913cf4a201fbe287825b095693c217756105f5816105f0610d85565b610d8d565b816002819055505050565b60008060009054906101000a900460ff16905090565b61061e610600565b1561065e576040517f08c379a000000000000000000000000000000000000000000000000000000000815260040161065590611e05565b60405180910390fd5b600073ffffffffffffffffffffffffffffffffffffffff168373ffffffffffffffffffffffffffffffffffffffff1614156106ce576040517f08c379a00000000000000000000000000000000000000000000000000000000081526004016106c590611e45565b60405180910390fd5b600060f81b8260006020811061070d577f4e487b7100000000000000000000000000000000000000000000000000000000600052603260045260246000fd5b1a60f81b7effffffffffffffffffffffffffffffffffffffffffffffffffffffffffffff19161415610774576040517f08c379a000000000000000000000000000000000000000000000000000000000815260040161076b90611e85565b60405180910390fd5b60418151146107b8576040517f08c379a00000000000000000000000000000000000000000000000000000000081526004016107af90611de5565b60405180910390fd5b60007f000000000000000000000000000000000000000000000000000000000000000073ffffffffffffffffffffffffffffffffffffffff166319045a2584846040518363ffffffff1660e01b8152600401610815929190611d53565b60006040518083038186803b15801561082d57600080fd5b505afa158015610841573d6000803e3d6000fd5b505050506040513d6000823e3d601f19601f8201168201806040525081019061086a919061189b565b905060218151146108b0576040517f08c379a00000000000000000000000000000000000000000000000000000000081526004016108a790611e25565b60405180910390fd5b60006002826040516108c29190611c8d565b602060405180830381855afa1580156108df573d6000803e3d6000fd5b5050506040513d601f19601f8201168201806040525081019061090291906117cc565b905060006003826040516020016109199190611c72565b6040516020818303038152906040526040516109359190611c8d565b602060405180830381855afa158015610952573d6000803e3d6000fd5b5050506040515160601b60405160200161096c9190611c57565b604051602081830303815290604052905060007f0000000000000000000000000000000000000000000000000000000000000000826040516020016109b2929190611c2f565b60405160208183030381529060405290506000600280836040516109d69190611c8d565b602060405180830381855afa1580156109f3573d6000803e3d6000fd5b5050506040513d601f19601f82011682018060405250810190610a1691906117cc565b604051602001610a269190611c72565b604051602081830303815290604052604051610a429190611c8d565b602060405180830381855afa158015610a5f573d6000803e3d6000fd5b5050506040513d601f19601f82011682018060405250810190610a8291906117cc565b604051602001610a929190611c72565b60405160208183030381529060405290506000610ab282600060046110f7565b905060008382604051602001610ac9929190611ca4565b60405160208183030381529060405290506000600382604051610aec9190611c8d565b908152602001604051809103902054905060008111610b40576040517f08c379a0000000000000000000000000000000000000000000000000000000008152600401610b3790611e65565b60405180910390fd5b6000600383604051610b529190611c8d565b9081526020016040518091039020819055508060046000828254610b769190611f84565b925050819055505050505050505050505050565b7fa49807205ce4d355092ef5a8a18f56e8913cf4a201fbe287825b095693c2177581565b6000600382604051610bc09190611c8d565b9081526020016040518091039020549050919050565b7f65d7a28e3265b37a6474929f336521b332c1681b933f6cb9f3376673440d862a610c0881610c03610d85565b610d8d565b610c10611267565b50565b60006001600084815260200190815260200160002060000160008373ffffffffffffffffffffffffffffffffffffffff1673ffffffffffffffffffffffffffffffffffffffff16815260200190815260200160002060009054906101000a900460ff16905092915050565b6000600454905090565b6000801b81565b7fa49807205ce4d355092ef5a8a18f56e8913cf4a201fbe287825b095693c21775610cc181610cbc610d85565b610d8d565b8160046000828254610cd39190612034565b925050819055505050565b7fa49807205ce4d355092ef5a8a18f56e8913cf4a201fbe287825b095693c21775610d1081610d0b610d85565b610d8d565b81600384604051610d219190611c8d565b908152602001604051809103902081905550505050565b610d4182610460565b610d5281610d4d610d85565b610d8d565b610d5c8383610f74565b505050565b7f65d7a28e3265b37a6474929f336521b332c1681b933f6cb9f3376673440d862a81565b600033905090565b610d978282610c13565b610e2657610dbc8173ffffffffffffffffffffffffffffffffffffffff166014611309565b610dca8360001c6020611309565b604051602001610ddb929190611cc8565b6040516020818303038152906040526040517f08c379a0000000000000000000000000000000000000000000000000000000008152600401610e1d9190611d83565b60405180910390fd5b5050565b60007f01ffc9a7000000000000000000000000000000000000000000000000000000007bffffffffffffffffffffffffffffffffffffffffffffffffffffffff1916827bffffffffffffffffffffffffffffffffffffffffffffffffffffffff1916149050919050565b610e9e8282610c13565b610f7057600180600084815260200190815260200160002060000160008373ffffffffffffffffffffffffffffffffffffffff1673ffffffffffffffffffffffffffffffffffffffff16815260200190815260200160002060006101000a81548160ff021916908315150217905550610f15610d85565b73ffffffffffffffffffffffffffffffffffffffff168173ffffffffffffffffffffffffffffffffffffffff16837f2f8788117e7eff1d82e926ec794901d17c78024a50270940304540a733656f0d60405160405180910390a45b5050565b610f7e8282610c13565b156110525760006001600084815260200190815260200160002060000160008373ffffffffffffffffffffffffffffffffffffffff1673ffffffffffffffffffffffffffffffffffffffff16815260200190815260200160002060006101000a81548160ff021916908315150217905550610ff7610d85565b73ffffffffffffffffffffffffffffffffffffffff168173ffffffffffffffffffffffffffffffffffffffff16837ff6391f5c32d9c69d2a47ea670b442974b53935d1edc7fd64eb21e047a839171b60405160405180910390a45b5050565b61105e610600565b61109d576040517f08c379a000000000000000000000000000000000000000000000000000000000815260040161109490611dc5565b60405180910390fd5b60008060006101000a81548160ff0219169083151502179055507f5db9ee0a495bf2e6ff9c91a7834c1ba4fdd244a5e8aa4e537bd38aeae4b073aa6110e0610d85565b6040516110ed9190611d02565b60405180910390a1565b6060600083836111079190612034565b67ffffffffffffffff811115611146577f4e487b7100000000000000000000000000000000000000000000000000000000600052604160045260246000fd5b6040519080825280601f01601f1916602001820160405280156111785781602001600182028036833780820191505090505b50905060005b6001858561118c9190612034565b6111969190612034565b811161125b578581815181106111d5577f4e487b7100000000000000000000000000000000000000000000000000000000600052603260045260246000fd5b602001015160f81c60f81b828281518110611219577f4e487b7100000000000000000000000000000000000000000000000000000000600052603260045260246000fd5b60200101907effffffffffffffffffffffffffffffffffffffffffffffffffffffffffffff1916908160001a9053508080611253906121db565b91505061117e565b50809150509392505050565b61126f610600565b156112af576040517f08c379a00000000000000000000000000000000000000000000000000000000081526004016112a690611e05565b60405180910390fd5b60016000806101000a81548160ff0219169083151502179055507f62e78cea01bee320cd4e420270b5ea74000d11b0c9f74754ebdbfc544b05a2586112f2610d85565b6040516112ff9190611d02565b60405180910390a1565b60606000600283600261131c9190611fda565b6113269190611f84565b67ffffffffffffffff811115611365577f4e487b7100000000000000000000000000000000000000000000000000000000600052604160045260246000fd5b6040519080825280601f01601f1916602001820160405280156113975781602001600182028036833780820191505090505b5090507f3000000000000000000000000000000000000000000000000000000000000000816000815181106113f5577f4e487b7100000000000000000000000000000000000000000000000000000000600052603260045260246000fd5b60200101907effffffffffffffffffffffffffffffffffffffffffffffffffffffffffffff1916908160001a9053507f78000000000000000000000000000000000000000000000000000000000000008160018151811061147f577f4e487b7100000000000000000000000000000000000000000000000000000000600052603260045260246000fd5b60200101907effffffffffffffffffffffffffffffffffffffffffffffffffffffffffffff1916908160001a905350600060018460026114bf9190611fda565b6114c99190611f84565b90505b60018111156115b5577f3031323334353637383961626364656600000000000000000000000000000000600f861660108110611531577f4e487b7100000000000000000000000000000000000000000000000000000000600052603260045260246000fd5b1a60f81b82828151811061156e577f4e487b7100000000000000000000000000000000000000000000000000000000600052603260045260246000fd5b60200101907effffffffffffffffffffffffffffffffffffffffffffffffffffffffffffff1916908160001a905350600485901c9450806115ae90612180565b90506114cc565b50600084146115f9576040517f08c379a00000000000000000000000000000000000000000000000000000000081526004016115f090611da5565b60405180910390fd5b8091505092915050565b600061161661161184611f05565b611ee0565b90508281526020810184848401111561162e57600080fd5b61163984828561213e565b509392505050565b600061165461164f84611f05565b611ee0565b90508281526020810184848401111561166c57600080fd5b61167784828561214d565b509392505050565b60008135905061168e8161257e565b92915050565b6000813590506116a381612595565b92915050565b6000815190506116b881612595565b92915050565b6000813590506116cd816125ac565b92915050565b600082601f8301126116e457600080fd5b81356116f4848260208601611603565b91505092915050565b600082601f83011261170e57600080fd5b815161171e848260208601611641565b91505092915050565b600081359050611736816125c3565b92915050565b60008060006060848603121561175157600080fd5b600061175f8682870161167f565b935050602061177086828701611694565b925050604084013567ffffffffffffffff81111561178d57600080fd5b611799868287016116d3565b9150509250925092565b6000602082840312156117b557600080fd5b60006117c384828501611694565b91505092915050565b6000602082840312156117de57600080fd5b60006117ec848285016116a9565b91505092915050565b6000806040838503121561180857600080fd5b600061181685828601611694565b92505060206118278582860161167f565b9150509250929050565b60006020828403121561184357600080fd5b6000611851848285016116be565b91505092915050565b60006020828403121561186c57600080fd5b600082013567ffffffffffffffff81111561188657600080fd5b611892848285016116d3565b91505092915050565b6000602082840312156118ad57600080fd5b600082015167ffffffffffffffff8111156118c757600080fd5b6118d3848285016116fd565b91505092915050565b600080604083850312156118ef57600080fd5b600083013567ffffffffffffffff81111561190957600080fd5b611915858286016116d3565b925050602061192685828601611727565b9150509250929050565b60006020828403121561194257600080fd5b600061195084828501611727565b91505092915050565b61196281612068565b82525050565b6119718161207a565b82525050565b61198861198382612086565b612224565b82525050565b61199f61199a826120b2565b61222e565b82525050565b6119ae816120de565b82525050565b6119c56119c0826120de565b612238565b82525050565b60006119d682611f36565b6119e08185611f4c565b93506119f081856020860161214d565b6119f9816122a0565b840191505092915050565b6000611a0f82611f36565b611a198185611f5d565b9350611a2981856020860161214d565b80840191505092915050565b6000611a4082611f41565b611a4a8185611f68565b9350611a5a81856020860161214d565b611a63816122a0565b840191505092915050565b6000611a7982611f41565b611a838185611f79565b9350611a9381856020860161214d565b80840191505092915050565b6000611aac602083611f68565b9150611ab7826122b1565b602082019050919050565b6000611acf601483611f68565b9150611ada826122da565b602082019050919050565b6000611af2604f83611f68565b9150611afd82612303565b606082019050919050565b6000611b15601083611f68565b9150611b2082612378565b602082019050919050565b6000611b38605383611f68565b9150611b43826123a1565b606082019050919050565b6000611b5b602c83611f68565b9150611b6682612416565b604082019050919050565b6000611b7e601783611f79565b9150611b8982612465565b601782019050919050565b6000611ba1601e83611f68565b9150611bac8261248e565b602082019050919050565b6000611bc4602983611f68565b9150611bcf826124b7565b604082019050919050565b6000611be7601183611f79565b9150611bf282612506565b601182019050919050565b6000611c0a602f83611f68565b9150611c158261252f565b604082019050919050565b611c2981612134565b82525050565b6000611c3b8285611977565b600182019150611c4b8284611a04565b91508190509392505050565b6000611c63828461198e565b60148201915081905092915050565b6000611c7e82846119b4565b60208201915081905092915050565b6000611c998284611a04565b915081905092915050565b6000611cb08285611a04565b9150611cbc8284611a04565b91508190509392505050565b6000611cd382611b71565b9150611cdf8285611a6e565b9150611cea82611bda565b9150611cf68284611a6e565b91508190509392505050565b6000602082019050611d176000830184611959565b92915050565b6000602082019050611d326000830184611968565b92915050565b6000602082019050611d4d60008301846119a5565b92915050565b6000604082019050611d6860008301856119a5565b8181036020830152611d7a81846119cb565b90509392505050565b60006020820190508181036000830152611d9d8184611a35565b905092915050565b60006020820190508181036000830152611dbe81611a9f565b9050919050565b60006020820190508181036000830152611dde81611ac2565b9050919050565b60006020820190508181036000830152611dfe81611ae5565b9050919050565b60006020820190508181036000830152611e1e81611b08565b9050919050565b60006020820190508181036000830152611e3e81611b2b565b9050919050565b60006020820190508181036000830152611e5e81611b4e565b9050919050565b60006020820190508181036000830152611e7e81611b94565b9050919050565b60006020820190508181036000830152611e9e81611bb7565b9050919050565b60006020820190508181036000830152611ebe81611bfd565b9050919050565b6000602082019050611eda6000830184611c20565b92915050565b6000611eea611efb565b9050611ef682826121aa565b919050565b6000604051905090565b600067ffffffffffffffff821115611f2057611f1f612271565b5b611f29826122a0565b9050602081019050919050565b600081519050919050565b600081519050919050565b600082825260208201905092915050565b600081905092915050565b600082825260208201905092915050565b600081905092915050565b6000611f8f82612134565b9150611f9a83612134565b9250827fffffffffffffffffffffffffffffffffffffffffffffffffffffffffffffffff03821115611fcf57611fce612242565b5b828201905092915050565b6000611fe582612134565b9150611ff083612134565b9250817fffffffffffffffffffffffffffffffffffffffffffffffffffffffffffffffff048311821515161561202957612028612242565b5b828202905092915050565b600061203f82612134565b915061204a83612134565b92508282101561205d5761205c612242565b5b828203905092915050565b600061207382612114565b9050919050565b60008115159050919050565b60007fff0000000000000000000000000000000000000000000000000000000000000082169050919050565b60007fffffffffffffffffffffffffffffffffffffffff00000000000000000000000082169050919050565b6000819050919050565b60007fffffffff0000000000000000000000000000000000000000000000000000000082169050919050565b600073ffffffffffffffffffffffffffffffffffffffff82169050919050565b6000819050919050565b82818337600083830152505050565b60005b8381101561216b578082015181840152602081019050612150565b8381111561217a576000848401525b50505050565b600061218b82612134565b9150600082141561219f5761219e612242565b5b600182039050919050565b6121b3826122a0565b810181811067ffffffffffffffff821117156121d2576121d1612271565b5b80604052505050565b60006121e682612134565b91507fffffffffffffffffffffffffffffffffffffffffffffffffffffffffffffffff82141561221957612218612242565b5b600182019050919050565b6000819050919050565b6000819050919050565b6000819050919050565b7f4e487b7100000000000000000000000000000000000000000000000000000000600052601160045260246000fd5b7f4e487b7100000000000000000000000000000000000000000000000000000000600052604160045260246000fd5b6000601f19601f8301169050919050565b7f537472696e67733a20686578206c656e67746820696e73756666696369656e74600082015250565b7f5061757361626c653a206e6f7420706175736564000000000000000000000000600082015250565b7f46696e61537761703a636c61696d20496e76616c6964207369676e617475726560008201527f206c656e6774682e20546865207369676e6174757265206d757374206265206560208201527f786163746c792036352062797465730000000000000000000000000000000000604082015250565b7f5061757361626c653a2070617573656400000000000000000000000000000000600082015250565b7f46696e61537761703a636c61696d20496e76616c6964207369676e617475726560008201527f2e20546865207265636f7665726564207075626c6963206b6579206d7573742060208201527f62652065786163746c7920333320627974657300000000000000000000000000604082015250565b7f46696e61537761703a636c61696d20546172676574206164647265737320636160008201527f6e6e6f74206265207a65726f0000000000000000000000000000000000000000602082015250565b7f416363657373436f6e74726f6c3a206163636f756e7420000000000000000000600082015250565b7f46696e61537761703a636c61696d20616c726561647920737761707065640000600082015250565b7f46696e61537761703a636c61696d205369676e6174757265206861736820697360008201527f2072657175697265640000000000000000000000000000000000000000000000602082015250565b7f206973206d697373696e6720726f6c6520000000000000000000000000000000600082015250565b7f416363657373436f6e74726f6c3a2063616e206f6e6c792072656e6f756e636560008201527f20726f6c657320666f722073656c660000000000000000000000000000000000602082015250565b61258781612068565b811461259257600080fd5b50565b61259e816120de565b81146125a957600080fd5b50565b6125b5816120e8565b81146125c057600080fd5b50565b6125cc81612134565b81146125d757600080fd5b5056fea2646970667358221220d1249892d4a45f2f3953c6556cef639fa4ef909fd1f796a556dd220a08df164e64736f6c63430008040033",
					"opcodes": "PUSH1 0xE0 PUSH1 0x40 MSTORE CALLVALUE DUP1 ISZERO PUSH3 0x11 JUMPI PUSH1 0x0 DUP1 REVERT JUMPDEST POP PUSH1 0x40 MLOAD PUSH3 0x2A96 CODESIZE SUB DUP1 PUSH3 0x2A96 DUP4 CODECOPY DUP2 DUP2 ADD PUSH1 0x40 MSTORE DUP2 ADD SWAP1 PUSH3 0x37 SWAP2 SWAP1 PUSH3 0x329 JUMP JUMPDEST PUSH1 0x0 DUP1 PUSH1 0x0 PUSH2 0x100 EXP DUP2 SLOAD DUP2 PUSH1 0xFF MUL NOT AND SWAP1 DUP4 ISZERO ISZERO MUL OR SWAP1 SSTORE POP DUP4 PUSH20 0xFFFFFFFFFFFFFFFFFFFFFFFFFFFFFFFFFFFFFFFF AND PUSH1 0x80 DUP2 PUSH20 0xFFFFFFFFFFFFFFFFFFFFFFFFFFFFFFFFFFFFFFFF AND PUSH1 0x60 SHL DUP2 MSTORE POP POP DUP3 PUSH20 0xFFFFFFFFFFFFFFFFFFFFFFFFFFFFFFFFFFFFFFFF AND PUSH1 0xA0 DUP2 PUSH20 0xFFFFFFFFFFFFFFFFFFFFFFFFFFFFFFFFFFFFFFFF AND PUSH1 0x60 SHL DUP2 MSTORE POP POP DUP2 PUSH31 0xFFFFFFFFFFFFFFFFFFFFFFFFFFFFFFFFFFFFFFFFFFFFFFFFFFFFFFFFFFFFFF NOT AND PUSH1 0xC0 DUP2 PUSH31 0xFFFFFFFFFFFFFFFFFFFFFFFFFFFFFFFFFFFFFFFFFFFFFFFFFFFFFFFFFFFFFF NOT AND DUP2 MSTORE POP POP DUP1 PUSH1 0x2 DUP2 SWAP1 SSTORE POP PUSH3 0x144 PUSH32 0xA49807205CE4D355092EF5A8A18F56E8913CF4A201FBE287825B095693C21775 CALLER PUSH3 0x180 PUSH1 0x20 SHL PUSH1 0x20 SHR JUMP JUMPDEST PUSH3 0x176 PUSH32 0x65D7A28E3265B37A6474929F336521B332C1681B933F6CB9F3376673440D862A CALLER PUSH3 0x180 PUSH1 0x20 SHL PUSH1 0x20 SHR JUMP JUMPDEST POP POP POP POP PUSH3 0x44D JUMP JUMPDEST PUSH3 0x192 DUP3 DUP3 PUSH3 0x271 PUSH1 0x20 SHL PUSH1 0x20 SHR JUMP JUMPDEST PUSH3 0x26D JUMPI PUSH1 0x1 DUP1 PUSH1 0x0 DUP5 DUP2 MSTORE PUSH1 0x20 ADD SWAP1 DUP2 MSTORE PUSH1 0x20 ADD PUSH1 0x0 KECCAK256 PUSH1 0x0 ADD PUSH1 0x0 DUP4 PUSH20 0xFFFFFFFFFFFFFFFFFFFFFFFFFFFFFFFFFFFFFFFF AND PUSH20 0xFFFFFFFFFFFFFFFFFFFFFFFFFFFFFFFFFFFFFFFF AND DUP2 MSTORE PUSH1 0x20 ADD SWAP1 DUP2 MSTORE PUSH1 0x20 ADD PUSH1 0x0 KECCAK256 PUSH1 0x0 PUSH2 0x100 EXP DUP2 SLOAD DUP2 PUSH1 0xFF MUL NOT AND SWAP1 DUP4 ISZERO ISZERO MUL OR SWAP1 SSTORE POP PUSH3 0x212 PUSH3 0x2DC PUSH1 0x20 SHL PUSH1 0x20 SHR JUMP JUMPDEST PUSH20 0xFFFFFFFFFFFFFFFFFFFFFFFFFFFFFFFFFFFFFFFF AND DUP2 PUSH20 0xFFFFFFFFFFFFFFFFFFFFFFFFFFFFFFFFFFFFFFFF AND DUP4 PUSH32 0x2F8788117E7EFF1D82E926EC794901D17C78024A50270940304540A733656F0D PUSH1 0x40 MLOAD PUSH1 0x40 MLOAD DUP1 SWAP2 SUB SWAP1 LOG4 JUMPDEST POP POP JUMP JUMPDEST PUSH1 0x0 PUSH1 0x1 PUSH1 0x0 DUP5 DUP2 MSTORE PUSH1 0x20 ADD SWAP1 DUP2 MSTORE PUSH1 0x20 ADD PUSH1 0x0 KECCAK256 PUSH1 0x0 ADD PUSH1 0x0 DUP4 PUSH20 0xFFFFFFFFFFFFFFFFFFFFFFFFFFFFFFFFFFFFFFFF AND PUSH20 0xFFFFFFFFFFFFFFFFFFFFFFFFFFFFFFFFFFFFFFFF AND DUP2 MSTORE PUSH1 0x20 ADD SWAP1 DUP2 MSTORE PUSH1 0x20 ADD PUSH1 0x0 KECCAK256 PUSH1 0x0 SWAP1 SLOAD SWAP1 PUSH2 0x100 EXP SWAP1 DIV PUSH1 0xFF AND SWAP1 POP SWAP3 SWAP2 POP POP JUMP JUMPDEST PUSH1 0x0 CALLER SWAP1 POP SWAP1 JUMP JUMPDEST PUSH1 0x0 DUP2 MLOAD SWAP1 POP PUSH3 0x2F5 DUP2 PUSH3 0x3FF JUMP JUMPDEST SWAP3 SWAP2 POP POP JUMP JUMPDEST PUSH1 0x0 DUP2 MLOAD SWAP1 POP PUSH3 0x30C DUP2 PUSH3 0x419 JUMP JUMPDEST SWAP3 SWAP2 POP POP JUMP JUMPDEST PUSH1 0x0 DUP2 MLOAD SWAP1 POP PUSH3 0x323 DUP2 PUSH3 0x433 JUMP JUMPDEST SWAP3 SWAP2 POP POP JUMP JUMPDEST PUSH1 0x0 DUP1 PUSH1 0x0 DUP1 PUSH1 0x80 DUP6 DUP8 SUB SLT ISZERO PUSH3 0x340 JUMPI PUSH1 0x0 DUP1 REVERT JUMPDEST PUSH1 0x0 PUSH3 0x350 DUP8 DUP3 DUP9 ADD PUSH3 0x2E4 JUMP JUMPDEST SWAP5 POP POP PUSH1 0x20 PUSH3 0x363 DUP8 DUP3 DUP9 ADD PUSH3 0x2E4 JUMP JUMPDEST SWAP4 POP POP PUSH1 0x40 PUSH3 0x376 DUP8 DUP3 DUP9 ADD PUSH3 0x2FB JUMP JUMPDEST SWAP3 POP POP PUSH1 0x60 PUSH3 0x389 DUP8 DUP3 DUP9 ADD PUSH3 0x312 JUMP JUMPDEST SWAP2 POP POP SWAP3 SWAP6 SWAP2 SWAP5 POP SWAP3 POP JUMP JUMPDEST PUSH1 0x0 PUSH3 0x3A2 DUP3 PUSH3 0x3D5 JUMP JUMPDEST SWAP1 POP SWAP2 SWAP1 POP JUMP JUMPDEST PUSH1 0x0 PUSH32 0xFF00000000000000000000000000000000000000000000000000000000000000 DUP3 AND SWAP1 POP SWAP2 SWAP1 POP JUMP JUMPDEST PUSH1 0x0 PUSH20 0xFFFFFFFFFFFFFFFFFFFFFFFFFFFFFFFFFFFFFFFF DUP3 AND SWAP1 POP SWAP2 SWAP1 POP JUMP JUMPDEST PUSH1 0x0 DUP2 SWAP1 POP SWAP2 SWAP1 POP JUMP JUMPDEST PUSH3 0x40A DUP2 PUSH3 0x395 JUMP JUMPDEST DUP2 EQ PUSH3 0x416 JUMPI PUSH1 0x0 DUP1 REVERT JUMPDEST POP JUMP JUMPDEST PUSH3 0x424 DUP2 PUSH3 0x3A9 JUMP JUMPDEST DUP2 EQ PUSH3 0x430 JUMPI PUSH1 0x0 DUP1 REVERT JUMPDEST POP JUMP JUMPDEST PUSH3 0x43E DUP2 PUSH3 0x3F5 JUMP JUMPDEST DUP2 EQ PUSH3 0x44A JUMPI PUSH1 0x0 DUP1 REVERT JUMPDEST POP JUMP JUMPDEST PUSH1 0x80 MLOAD PUSH1 0x60 SHR PUSH1 0xA0 MLOAD PUSH1 0x60 SHR PUSH1 0xC0 MLOAD PUSH1 0xF8 SHR PUSH1 0xF8 SHL PUSH2 0x2610 PUSH3 0x486 PUSH1 0x0 CODECOPY PUSH1 0x0 PUSH2 0x981 ADD MSTORE PUSH1 0x0 POP POP PUSH1 0x0 PUSH2 0x7BC ADD MSTORE PUSH2 0x2610 PUSH1 0x0 RETURN INVALID PUSH1 0x80 PUSH1 0x40 MSTORE CALLVALUE DUP1 ISZERO PUSH2 0x10 JUMPI PUSH1 0x0 DUP1 REVERT JUMPDEST POP PUSH1 0x4 CALLDATASIZE LT PUSH2 0x12C JUMPI PUSH1 0x0 CALLDATALOAD PUSH1 0xE0 SHR DUP1 PUSH4 0x75B238FC GT PUSH2 0xAD JUMPI DUP1 PUSH4 0xA217FDDF GT PUSH2 0x71 JUMPI DUP1 PUSH4 0xA217FDDF EQ PUSH2 0x307 JUMPI DUP1 PUSH4 0xC6AFE01E EQ PUSH2 0x325 JUMPI DUP1 PUSH4 0xC71C6490 EQ PUSH2 0x341 JUMPI DUP1 PUSH4 0xD547741F EQ PUSH2 0x35D JUMPI DUP1 PUSH4 0xE63AB1E9 EQ PUSH2 0x379 JUMPI PUSH2 0x12C JUMP JUMPDEST DUP1 PUSH4 0x75B238FC EQ PUSH2 0x261 JUMPI DUP1 PUSH4 0x78415365 EQ PUSH2 0x27F JUMPI DUP1 PUSH4 0x8456CB59 EQ PUSH2 0x2AF JUMPI DUP1 PUSH4 0x91D14854 EQ PUSH2 0x2B9 JUMPI DUP1 PUSH4 0xA0D5680F EQ PUSH2 0x2E9 JUMPI PUSH2 0x12C JUMP JUMPDEST DUP1 PUSH4 0x36568ABE GT PUSH2 0xF4 JUMPI DUP1 PUSH4 0x36568ABE EQ PUSH2 0x1E5 JUMPI DUP1 PUSH4 0x3F4BA83A EQ PUSH2 0x201 JUMPI DUP1 PUSH4 0x5B06A1D5 EQ PUSH2 0x20B JUMPI DUP1 PUSH4 0x5C975ABB EQ PUSH2 0x227 JUMPI DUP1 PUSH4 0x736C76EE EQ PUSH2 0x245 JUMPI PUSH2 0x12C JUMP JUMPDEST DUP1 PUSH4 0x112F541 EQ PUSH2 0x131 JUMPI DUP1 PUSH4 0x1FFC9A7 EQ PUSH2 0x14D JUMPI DUP1 PUSH4 0x248A9CA3 EQ PUSH2 0x17D JUMPI DUP1 PUSH4 0x2F2FF15D EQ PUSH2 0x1AD JUMPI DUP1 PUSH4 0x3636F669 EQ PUSH2 0x1C9 JUMPI JUMPDEST PUSH1 0x0 DUP1 REVERT JUMPDEST PUSH2 0x14B PUSH1 0x4 DUP1 CALLDATASIZE SUB DUP2 ADD SWAP1 PUSH2 0x146 SWAP2 SWAP1 PUSH2 0x1930 JUMP JUMPDEST PUSH2 0x397 JUMP JUMPDEST STOP JUMPDEST PUSH2 0x167 PUSH1 0x4 DUP1 CALLDATASIZE SUB DUP2 ADD SWAP1 PUSH2 0x162 SWAP2 SWAP1 PUSH2 0x1831 JUMP JUMPDEST PUSH2 0x3E6 JUMP JUMPDEST PUSH1 0x40 MLOAD PUSH2 0x174 SWAP2 SWAP1 PUSH2 0x1D1D JUMP JUMPDEST PUSH1 0x40 MLOAD DUP1 SWAP2 SUB SWAP1 RETURN JUMPDEST PUSH2 0x197 PUSH1 0x4 DUP1 CALLDATASIZE SUB DUP2 ADD SWAP1 PUSH2 0x192 SWAP2 SWAP1 PUSH2 0x17A3 JUMP JUMPDEST PUSH2 0x460 JUMP JUMPDEST PUSH1 0x40 MLOAD PUSH2 0x1A4 SWAP2 SWAP1 PUSH2 0x1D38 JUMP JUMPDEST PUSH1 0x40 MLOAD DUP1 SWAP2 SUB SWAP1 RETURN JUMPDEST PUSH2 0x1C7 PUSH1 0x4 DUP1 CALLDATASIZE SUB DUP2 ADD SWAP1 PUSH2 0x1C2 SWAP2 SWAP1 PUSH2 0x17F5 JUMP JUMPDEST PUSH2 0x480 JUMP JUMPDEST STOP JUMPDEST PUSH2 0x1E3 PUSH1 0x4 DUP1 CALLDATASIZE SUB DUP2 ADD SWAP1 PUSH2 0x1DE SWAP2 SWAP1 PUSH2 0x185A JUMP JUMPDEST PUSH2 0x4A9 JUMP JUMPDEST STOP JUMPDEST PUSH2 0x1FF PUSH1 0x4 DUP1 CALLDATASIZE SUB DUP2 ADD SWAP1 PUSH2 0x1FA SWAP2 SWAP1 PUSH2 0x17F5 JUMP JUMPDEST PUSH2 0x503 JUMP JUMPDEST STOP JUMPDEST PUSH2 0x209 PUSH2 0x586 JUMP JUMPDEST STOP JUMPDEST PUSH2 0x225 PUSH1 0x4 DUP1 CALLDATASIZE SUB DUP2 ADD SWAP1 PUSH2 0x220 SWAP2 SWAP1 PUSH2 0x1930 JUMP JUMPDEST PUSH2 0x5C3 JUMP JUMPDEST STOP JUMPDEST PUSH2 0x22F PUSH2 0x600 JUMP JUMPDEST PUSH1 0x40 MLOAD PUSH2 0x23C SWAP2 SWAP1 PUSH2 0x1D1D JUMP JUMPDEST PUSH1 0x40 MLOAD DUP1 SWAP2 SUB SWAP1 RETURN JUMPDEST PUSH2 0x25F PUSH1 0x4 DUP1 CALLDATASIZE SUB DUP2 ADD SWAP1 PUSH2 0x25A SWAP2 SWAP1 PUSH2 0x173C JUMP JUMPDEST PUSH2 0x616 JUMP JUMPDEST STOP JUMPDEST PUSH2 0x269 PUSH2 0xB8A JUMP JUMPDEST PUSH1 0x40 MLOAD PUSH2 0x276 SWAP2 SWAP1 PUSH2 0x1D38 JUMP JUMPDEST PUSH1 0x40 MLOAD DUP1 SWAP2 SUB SWAP1 RETURN JUMPDEST PUSH2 0x299 PUSH1 0x4 DUP1 CALLDATASIZE SUB DUP2 ADD SWAP1 PUSH2 0x294 SWAP2 SWAP1 PUSH2 0x185A JUMP JUMPDEST PUSH2 0xBAE JUMP JUMPDEST PUSH1 0x40 MLOAD PUSH2 0x2A6 SWAP2 SWAP1 PUSH2 0x1EC5 JUMP JUMPDEST PUSH1 0x40 MLOAD DUP1 SWAP2 SUB SWAP1 RETURN JUMPDEST PUSH2 0x2B7 PUSH2 0xBD6 JUMP JUMPDEST STOP JUMPDEST PUSH2 0x2D3 PUSH1 0x4 DUP1 CALLDATASIZE SUB DUP2 ADD SWAP1 PUSH2 0x2CE SWAP2 SWAP1 PUSH2 0x17F5 JUMP JUMPDEST PUSH2 0xC13 JUMP JUMPDEST PUSH1 0x40 MLOAD PUSH2 0x2E0 SWAP2 SWAP1 PUSH2 0x1D1D JUMP JUMPDEST PUSH1 0x40 MLOAD DUP1 SWAP2 SUB SWAP1 RETURN JUMPDEST PUSH2 0x2F1 PUSH2 0xC7E JUMP JUMPDEST PUSH1 0x40 MLOAD PUSH2 0x2FE SWAP2 SWAP1 PUSH2 0x1EC5 JUMP JUMPDEST PUSH1 0x40 MLOAD DUP1 SWAP2 SUB SWAP1 RETURN JUMPDEST PUSH2 0x30F PUSH2 0xC88 JUMP JUMPDEST PUSH1 0x40 MLOAD PUSH2 0x31C SWAP2 SWAP1 PUSH2 0x1D38 JUMP JUMPDEST PUSH1 0x40 MLOAD DUP1 SWAP2 SUB SWAP1 RETURN JUMPDEST PUSH2 0x33F PUSH1 0x4 DUP1 CALLDATASIZE SUB DUP2 ADD SWAP1 PUSH2 0x33A SWAP2 SWAP1 PUSH2 0x1930 JUMP JUMPDEST PUSH2 0xC8F JUMP JUMPDEST STOP JUMPDEST PUSH2 0x35B PUSH1 0x4 DUP1 CALLDATASIZE SUB DUP2 ADD SWAP1 PUSH2 0x356 SWAP2 SWAP1 PUSH2 0x18DC JUMP JUMPDEST PUSH2 0xCDE JUMP JUMPDEST STOP JUMPDEST PUSH2 0x377 PUSH1 0x4 DUP1 CALLDATASIZE SUB DUP2 ADD SWAP1 PUSH2 0x372 SWAP2 SWAP1 PUSH2 0x17F5 JUMP JUMPDEST PUSH2 0xD38 JUMP JUMPDEST STOP JUMPDEST PUSH2 0x381 PUSH2 0xD61 JUMP JUMPDEST PUSH1 0x40 MLOAD PUSH2 0x38E SWAP2 SWAP1 PUSH2 0x1D38 JUMP JUMPDEST PUSH1 0x40 MLOAD DUP1 SWAP2 SUB SWAP1 RETURN JUMPDEST PUSH32 0xA49807205CE4D355092EF5A8A18F56E8913CF4A201FBE287825B095693C21775 PUSH2 0x3C9 DUP2 PUSH2 0x3C4 PUSH2 0xD85 JUMP JUMPDEST PUSH2 0xD8D JUMP JUMPDEST DUP2 PUSH1 0x4 PUSH1 0x0 DUP3 DUP3 SLOAD PUSH2 0x3DB SWAP2 SWAP1 PUSH2 0x1F84 JUMP JUMPDEST SWAP3 POP POP DUP2 SWAP1 SSTORE POP POP POP JUMP JUMPDEST PUSH1 0x0 PUSH32 0x7965DB0B00000000000000000000000000000000000000000000000000000000 PUSH28 0xFFFFFFFFFFFFFFFFFFFFFFFFFFFFFFFFFFFFFFFFFFFFFFFFFFFFFFFF NOT AND DUP3 PUSH28 0xFFFFFFFFFFFFFFFFFFFFFFFFFFFFFFFFFFFFFFFFFFFFFFFFFFFFFFFF NOT AND EQ DUP1 PUSH2 0x459 JUMPI POP PUSH2 0x458 DUP3 PUSH2 0xE2A JUMP JUMPDEST JUMPDEST SWAP1 POP SWAP2 SWAP1 POP JUMP JUMPDEST PUSH1 0x0 PUSH1 0x1 PUSH1 0x0 DUP4 DUP2 MSTORE PUSH1 0x20 ADD SWAP1 DUP2 MSTORE PUSH1 0x20 ADD PUSH1 0x0 KECCAK256 PUSH1 0x1 ADD SLOAD SWAP1 POP SWAP2 SWAP1 POP JUMP JUMPDEST PUSH2 0x489 DUP3 PUSH2 0x460 JUMP JUMPDEST PUSH2 0x49A DUP2 PUSH2 0x495 PUSH2 0xD85 JUMP JUMPDEST PUSH2 0xD8D JUMP JUMPDEST PUSH2 0x4A4 DUP4 DUP4 PUSH2 0xE94 JUMP JUMPDEST POP POP POP JUMP JUMPDEST PUSH32 0xA49807205CE4D355092EF5A8A18F56E8913CF4A201FBE287825B095693C21775 PUSH2 0x4DB DUP2 PUSH2 0x4D6 PUSH2 0xD85 JUMP JUMPDEST PUSH2 0xD8D JUMP JUMPDEST PUSH1 0x0 PUSH1 0x3 DUP4 PUSH1 0x40 MLOAD PUSH2 0x4ED SWAP2 SWAP1 PUSH2 0x1C8D JUMP JUMPDEST SWAP1 DUP2 MSTORE PUSH1 0x20 ADD PUSH1 0x40 MLOAD DUP1 SWAP2 SUB SWAP1 KECCAK256 DUP2 SWAP1 SSTORE POP POP POP JUMP JUMPDEST PUSH2 0x50B PUSH2 0xD85 JUMP JUMPDEST PUSH20 0xFFFFFFFFFFFFFFFFFFFFFFFFFFFFFFFFFFFFFFFF AND DUP2 PUSH20 0xFFFFFFFFFFFFFFFFFFFFFFFFFFFFFFFFFFFFFFFF AND EQ PUSH2 0x578 JUMPI PUSH1 0x40 MLOAD PUSH32 0x8C379A000000000000000000000000000000000000000000000000000000000 DUP2 MSTORE PUSH1 0x4 ADD PUSH2 0x56F SWAP1 PUSH2 0x1EA5 JUMP JUMPDEST PUSH1 0x40 MLOAD DUP1 SWAP2 SUB SWAP1 REVERT JUMPDEST PUSH2 0x582 DUP3 DUP3 PUSH2 0xF74 JUMP JUMPDEST POP POP JUMP JUMPDEST PUSH32 0x65D7A28E3265B37A6474929F336521B332C1681B933F6CB9F3376673440D862A PUSH2 0x5B8 DUP2 PUSH2 0x5B3 PUSH2 0xD85 JUMP JUMPDEST PUSH2 0xD8D JUMP JUMPDEST PUSH2 0x5C0 PUSH2 0x1056 JUMP JUMPDEST POP JUMP JUMPDEST PUSH32 0xA49807205CE4D355092EF5A8A18F56E8913CF4A201FBE287825B095693C21775 PUSH2 0x5F5 DUP2 PUSH2 0x5F0 PUSH2 0xD85 JUMP JUMPDEST PUSH2 0xD8D JUMP JUMPDEST DUP2 PUSH1 0x2 DUP2 SWAP1 SSTORE POP POP POP JUMP JUMPDEST PUSH1 0x0 DUP1 PUSH1 0x0 SWAP1 SLOAD SWAP1 PUSH2 0x100 EXP SWAP1 DIV PUSH1 0xFF AND SWAP1 POP SWAP1 JUMP JUMPDEST PUSH2 0x61E PUSH2 0x600 JUMP JUMPDEST ISZERO PUSH2 0x65E JUMPI PUSH1 0x40 MLOAD PUSH32 0x8C379A000000000000000000000000000000000000000000000000000000000 DUP2 MSTORE PUSH1 0x4 ADD PUSH2 0x655 SWAP1 PUSH2 0x1E05 JUMP JUMPDEST PUSH1 0x40 MLOAD DUP1 SWAP2 SUB SWAP1 REVERT JUMPDEST PUSH1 0x0 PUSH20 0xFFFFFFFFFFFFFFFFFFFFFFFFFFFFFFFFFFFFFFFF AND DUP4 PUSH20 0xFFFFFFFFFFFFFFFFFFFFFFFFFFFFFFFFFFFFFFFF AND EQ ISZERO PUSH2 0x6CE JUMPI PUSH1 0x40 MLOAD PUSH32 0x8C379A000000000000000000000000000000000000000000000000000000000 DUP2 MSTORE PUSH1 0x4 ADD PUSH2 0x6C5 SWAP1 PUSH2 0x1E45 JUMP JUMPDEST PUSH1 0x40 MLOAD DUP1 SWAP2 SUB SWAP1 REVERT JUMPDEST PUSH1 0x0 PUSH1 0xF8 SHL DUP3 PUSH1 0x0 PUSH1 0x20 DUP2 LT PUSH2 0x70D JUMPI PUSH32 0x4E487B7100000000000000000000000000000000000000000000000000000000 PUSH1 0x0 MSTORE PUSH1 0x32 PUSH1 0x4 MSTORE PUSH1 0x24 PUSH1 0x0 REVERT JUMPDEST BYTE PUSH1 0xF8 SHL PUSH31 0xFFFFFFFFFFFFFFFFFFFFFFFFFFFFFFFFFFFFFFFFFFFFFFFFFFFFFFFFFFFFFF NOT AND EQ ISZERO PUSH2 0x774 JUMPI PUSH1 0x40 MLOAD PUSH32 0x8C379A000000000000000000000000000000000000000000000000000000000 DUP2 MSTORE PUSH1 0x4 ADD PUSH2 0x76B SWAP1 PUSH2 0x1E85 JUMP JUMPDEST PUSH1 0x40 MLOAD DUP1 SWAP2 SUB SWAP1 REVERT JUMPDEST PUSH1 0x41 DUP2 MLOAD EQ PUSH2 0x7B8 JUMPI PUSH1 0x40 MLOAD PUSH32 0x8C379A000000000000000000000000000000000000000000000000000000000 DUP2 MSTORE PUSH1 0x4 ADD PUSH2 0x7AF SWAP1 PUSH2 0x1DE5 JUMP JUMPDEST PUSH1 0x40 MLOAD DUP1 SWAP2 SUB SWAP1 REVERT JUMPDEST PUSH1 0x0 PUSH32 0x0 PUSH20 0xFFFFFFFFFFFFFFFFFFFFFFFFFFFFFFFFFFFFFFFF AND PUSH4 0x19045A25 DUP5 DUP5 PUSH1 0x40 MLOAD DUP4 PUSH4 0xFFFFFFFF AND PUSH1 0xE0 SHL DUP2 MSTORE PUSH1 0x4 ADD PUSH2 0x815 SWAP3 SWAP2 SWAP1 PUSH2 0x1D53 JUMP JUMPDEST PUSH1 0x0 PUSH1 0x40 MLOAD DUP1 DUP4 SUB DUP2 DUP7 DUP1 EXTCODESIZE ISZERO DUP1 ISZERO PUSH2 0x82D JUMPI PUSH1 0x0 DUP1 REVERT JUMPDEST POP GAS STATICCALL ISZERO DUP1 ISZERO PUSH2 0x841 JUMPI RETURNDATASIZE PUSH1 0x0 DUP1 RETURNDATACOPY RETURNDATASIZE PUSH1 0x0 REVERT JUMPDEST POP POP POP POP PUSH1 0x40 MLOAD RETURNDATASIZE PUSH1 0x0 DUP3 RETURNDATACOPY RETURNDATASIZE PUSH1 0x1F NOT PUSH1 0x1F DUP3 ADD AND DUP3 ADD DUP1 PUSH1 0x40 MSTORE POP DUP2 ADD SWAP1 PUSH2 0x86A SWAP2 SWAP1 PUSH2 0x189B JUMP JUMPDEST SWAP1 POP PUSH1 0x21 DUP2 MLOAD EQ PUSH2 0x8B0 JUMPI PUSH1 0x40 MLOAD PUSH32 0x8C379A000000000000000000000000000000000000000000000000000000000 DUP2 MSTORE PUSH1 0x4 ADD PUSH2 0x8A7 SWAP1 PUSH2 0x1E25 JUMP JUMPDEST PUSH1 0x40 MLOAD DUP1 SWAP2 SUB SWAP1 REVERT JUMPDEST PUSH1 0x0 PUSH1 0x2 DUP3 PUSH1 0x40 MLOAD PUSH2 0x8C2 SWAP2 SWAP1 PUSH2 0x1C8D JUMP JUMPDEST PUSH1 0x20 PUSH1 0x40 MLOAD DUP1 DUP4 SUB DUP2 DUP6 GAS STATICCALL ISZERO DUP1 ISZERO PUSH2 0x8DF JUMPI RETURNDATASIZE PUSH1 0x0 DUP1 RETURNDATACOPY RETURNDATASIZE PUSH1 0x0 REVERT JUMPDEST POP POP POP PUSH1 0x40 MLOAD RETURNDATASIZE PUSH1 0x1F NOT PUSH1 0x1F DUP3 ADD AND DUP3 ADD DUP1 PUSH1 0x40 MSTORE POP DUP2 ADD SWAP1 PUSH2 0x902 SWAP2 SWAP1 PUSH2 0x17CC JUMP JUMPDEST SWAP1 POP PUSH1 0x0 PUSH1 0x3 DUP3 PUSH1 0x40 MLOAD PUSH1 0x20 ADD PUSH2 0x919 SWAP2 SWAP1 PUSH2 0x1C72 JUMP JUMPDEST PUSH1 0x40 MLOAD PUSH1 0x20 DUP2 DUP4 SUB SUB DUP2 MSTORE SWAP1 PUSH1 0x40 MSTORE PUSH1 0x40 MLOAD PUSH2 0x935 SWAP2 SWAP1 PUSH2 0x1C8D JUMP JUMPDEST PUSH1 0x20 PUSH1 0x40 MLOAD DUP1 DUP4 SUB DUP2 DUP6 GAS STATICCALL ISZERO DUP1 ISZERO PUSH2 0x952 JUMPI RETURNDATASIZE PUSH1 0x0 DUP1 RETURNDATACOPY RETURNDATASIZE PUSH1 0x0 REVERT JUMPDEST POP POP POP PUSH1 0x40 MLOAD MLOAD PUSH1 0x60 SHL PUSH1 0x40 MLOAD PUSH1 0x20 ADD PUSH2 0x96C SWAP2 SWAP1 PUSH2 0x1C57 JUMP JUMPDEST PUSH1 0x40 MLOAD PUSH1 0x20 DUP2 DUP4 SUB SUB DUP2 MSTORE SWAP1 PUSH1 0x40 MSTORE SWAP1 POP PUSH1 0x0 PUSH32 0x0 DUP3 PUSH1 0x40 MLOAD PUSH1 0x20 ADD PUSH2 0x9B2 SWAP3 SWAP2 SWAP1 PUSH2 0x1C2F JUMP JUMPDEST PUSH1 0x40 MLOAD PUSH1 0x20 DUP2 DUP4 SUB SUB DUP2 MSTORE SWAP1 PUSH1 0x40 MSTORE SWAP1 POP PUSH1 0x0 PUSH1 0x2 DUP1 DUP4 PUSH1 0x40 MLOAD PUSH2 0x9D6 SWAP2 SWAP1 PUSH2 0x1C8D JUMP JUMPDEST PUSH1 0x20 PUSH1 0x40 MLOAD DUP1 DUP4 SUB DUP2 DUP6 GAS STATICCALL ISZERO DUP1 ISZERO PUSH2 0x9F3 JUMPI RETURNDATASIZE PUSH1 0x0 DUP1 RETURNDATACOPY RETURNDATASIZE PUSH1 0x0 REVERT JUMPDEST POP POP POP PUSH1 0x40 MLOAD RETURNDATASIZE PUSH1 0x1F NOT PUSH1 0x1F DUP3 ADD AND DUP3 ADD DUP1 PUSH1 0x40 MSTORE POP DUP2 ADD SWAP1 PUSH2 0xA16 SWAP2 SWAP1 PUSH2 0x17CC JUMP JUMPDEST PUSH1 0x40 MLOAD PUSH1 0x20 ADD PUSH2 0xA26 SWAP2 SWAP1 PUSH2 0x1C72 JUMP JUMPDEST PUSH1 0x40 MLOAD PUSH1 0x20 DUP2 DUP4 SUB SUB DUP2 MSTORE SWAP1 PUSH1 0x40 MSTORE PUSH1 0x40 MLOAD PUSH2 0xA42 SWAP2 SWAP1 PUSH2 0x1C8D JUMP JUMPDEST PUSH1 0x20 PUSH1 0x40 MLOAD DUP1 DUP4 SUB DUP2 DUP6 GAS STATICCALL ISZERO DUP1 ISZERO PUSH2 0xA5F JUMPI RETURNDATASIZE PUSH1 0x0 DUP1 RETURNDATACOPY RETURNDATASIZE PUSH1 0x0 REVERT JUMPDEST POP POP POP PUSH1 0x40 MLOAD RETURNDATASIZE PUSH1 0x1F NOT PUSH1 0x1F DUP3 ADD AND DUP3 ADD DUP1 PUSH1 0x40 MSTORE POP DUP2 ADD SWAP1 PUSH2 0xA82 SWAP2 SWAP1 PUSH2 0x17CC JUMP JUMPDEST PUSH1 0x40 MLOAD PUSH1 0x20 ADD PUSH2 0xA92 SWAP2 SWAP1 PUSH2 0x1C72 JUMP JUMPDEST PUSH1 0x40 MLOAD PUSH1 0x20 DUP2 DUP4 SUB SUB DUP2 MSTORE SWAP1 PUSH1 0x40 MSTORE SWAP1 POP PUSH1 0x0 PUSH2 0xAB2 DUP3 PUSH1 0x0 PUSH1 0x4 PUSH2 0x10F7 JUMP JUMPDEST SWAP1 POP PUSH1 0x0 DUP4 DUP3 PUSH1 0x40 MLOAD PUSH1 0x20 ADD PUSH2 0xAC9 SWAP3 SWAP2 SWAP1 PUSH2 0x1CA4 JUMP JUMPDEST PUSH1 0x40 MLOAD PUSH1 0x20 DUP2 DUP4 SUB SUB DUP2 MSTORE SWAP1 PUSH1 0x40 MSTORE SWAP1 POP PUSH1 0x0 PUSH1 0x3 DUP3 PUSH1 0x40 MLOAD PUSH2 0xAEC SWAP2 SWAP1 PUSH2 0x1C8D JUMP JUMPDEST SWAP1 DUP2 MSTORE PUSH1 0x20 ADD PUSH1 0x40 MLOAD DUP1 SWAP2 SUB SWAP1 KECCAK256 SLOAD SWAP1 POP PUSH1 0x0 DUP2 GT PUSH2 0xB40 JUMPI PUSH1 0x40 MLOAD PUSH32 0x8C379A000000000000000000000000000000000000000000000000000000000 DUP2 MSTORE PUSH1 0x4 ADD PUSH2 0xB37 SWAP1 PUSH2 0x1E65 JUMP JUMPDEST PUSH1 0x40 MLOAD DUP1 SWAP2 SUB SWAP1 REVERT JUMPDEST PUSH1 0x0 PUSH1 0x3 DUP4 PUSH1 0x40 MLOAD PUSH2 0xB52 SWAP2 SWAP1 PUSH2 0x1C8D JUMP JUMPDEST SWAP1 DUP2 MSTORE PUSH1 0x20 ADD PUSH1 0x40 MLOAD DUP1 SWAP2 SUB SWAP1 KECCAK256 DUP2 SWAP1 SSTORE POP DUP1 PUSH1 0x4 PUSH1 0x0 DUP3 DUP3 SLOAD PUSH2 0xB76 SWAP2 SWAP1 PUSH2 0x1F84 JUMP JUMPDEST SWAP3 POP POP DUP2 SWAP1 SSTORE POP POP POP POP POP POP POP POP POP POP POP POP JUMP JUMPDEST PUSH32 0xA49807205CE4D355092EF5A8A18F56E8913CF4A201FBE287825B095693C21775 DUP2 JUMP JUMPDEST PUSH1 0x0 PUSH1 0x3 DUP3 PUSH1 0x40 MLOAD PUSH2 0xBC0 SWAP2 SWAP1 PUSH2 0x1C8D JUMP JUMPDEST SWAP1 DUP2 MSTORE PUSH1 0x20 ADD PUSH1 0x40 MLOAD DUP1 SWAP2 SUB SWAP1 KECCAK256 SLOAD SWAP1 POP SWAP2 SWAP1 POP JUMP JUMPDEST PUSH32 0x65D7A28E3265B37A6474929F336521B332C1681B933F6CB9F3376673440D862A PUSH2 0xC08 DUP2 PUSH2 0xC03 PUSH2 0xD85 JUMP JUMPDEST PUSH2 0xD8D JUMP JUMPDEST PUSH2 0xC10 PUSH2 0x1267 JUMP JUMPDEST POP JUMP JUMPDEST PUSH1 0x0 PUSH1 0x1 PUSH1 0x0 DUP5 DUP2 MSTORE PUSH1 0x20 ADD SWAP1 DUP2 MSTORE PUSH1 0x20 ADD PUSH1 0x0 KECCAK256 PUSH1 0x0 ADD PUSH1 0x0 DUP4 PUSH20 0xFFFFFFFFFFFFFFFFFFFFFFFFFFFFFFFFFFFFFFFF AND PUSH20 0xFFFFFFFFFFFFFFFFFFFFFFFFFFFFFFFFFFFFFFFF AND DUP2 MSTORE PUSH1 0x20 ADD SWAP1 DUP2 MSTORE PUSH1 0x20 ADD PUSH1 0x0 KECCAK256 PUSH1 0x0 SWAP1 SLOAD SWAP1 PUSH2 0x100 EXP SWAP1 DIV PUSH1 0xFF AND SWAP1 POP SWAP3 SWAP2 POP POP JUMP JUMPDEST PUSH1 0x0 PUSH1 0x4 SLOAD SWAP1 POP SWAP1 JUMP JUMPDEST PUSH1 0x0 DUP1 SHL DUP2 JUMP JUMPDEST PUSH32 0xA49807205CE4D355092EF5A8A18F56E8913CF4A201FBE287825B095693C21775 PUSH2 0xCC1 DUP2 PUSH2 0xCBC PUSH2 0xD85 JUMP JUMPDEST PUSH2 0xD8D JUMP JUMPDEST DUP2 PUSH1 0x4 PUSH1 0x0 DUP3 DUP3 SLOAD PUSH2 0xCD3 SWAP2 SWAP1 PUSH2 0x2034 JUMP JUMPDEST SWAP3 POP POP DUP2 SWAP1 SSTORE POP POP POP JUMP JUMPDEST PUSH32 0xA49807205CE4D355092EF5A8A18F56E8913CF4A201FBE287825B095693C21775 PUSH2 0xD10 DUP2 PUSH2 0xD0B PUSH2 0xD85 JUMP JUMPDEST PUSH2 0xD8D JUMP JUMPDEST DUP2 PUSH1 0x3 DUP5 PUSH1 0x40 MLOAD PUSH2 0xD21 SWAP2 SWAP1 PUSH2 0x1C8D JUMP JUMPDEST SWAP1 DUP2 MSTORE PUSH1 0x20 ADD PUSH1 0x40 MLOAD DUP1 SWAP2 SUB SWAP1 KECCAK256 DUP2 SWAP1 SSTORE POP POP POP POP JUMP JUMPDEST PUSH2 0xD41 DUP3 PUSH2 0x460 JUMP JUMPDEST PUSH2 0xD52 DUP2 PUSH2 0xD4D PUSH2 0xD85 JUMP JUMPDEST PUSH2 0xD8D JUMP JUMPDEST PUSH2 0xD5C DUP4 DUP4 PUSH2 0xF74 JUMP JUMPDEST POP POP POP JUMP JUMPDEST PUSH32 0x65D7A28E3265B37A6474929F336521B332C1681B933F6CB9F3376673440D862A DUP2 JUMP JUMPDEST PUSH1 0x0 CALLER SWAP1 POP SWAP1 JUMP JUMPDEST PUSH2 0xD97 DUP3 DUP3 PUSH2 0xC13 JUMP JUMPDEST PUSH2 0xE26 JUMPI PUSH2 0xDBC DUP2 PUSH20 0xFFFFFFFFFFFFFFFFFFFFFFFFFFFFFFFFFFFFFFFF AND PUSH1 0x14 PUSH2 0x1309 JUMP JUMPDEST PUSH2 0xDCA DUP4 PUSH1 0x0 SHR PUSH1 0x20 PUSH2 0x1309 JUMP JUMPDEST PUSH1 0x40 MLOAD PUSH1 0x20 ADD PUSH2 0xDDB SWAP3 SWAP2 SWAP1 PUSH2 0x1CC8 JUMP JUMPDEST PUSH1 0x40 MLOAD PUSH1 0x20 DUP2 DUP4 SUB SUB DUP2 MSTORE SWAP1 PUSH1 0x40 MSTORE PUSH1 0x40 MLOAD PUSH32 0x8C379A000000000000000000000000000000000000000000000000000000000 DUP2 MSTORE PUSH1 0x4 ADD PUSH2 0xE1D SWAP2 SWAP1 PUSH2 0x1D83 JUMP JUMPDEST PUSH1 0x40 MLOAD DUP1 SWAP2 SUB SWAP1 REVERT JUMPDEST POP POP JUMP JUMPDEST PUSH1 0x0 PUSH32 0x1FFC9A700000000000000000000000000000000000000000000000000000000 PUSH28 0xFFFFFFFFFFFFFFFFFFFFFFFFFFFFFFFFFFFFFFFFFFFFFFFFFFFFFFFF NOT AND DUP3 PUSH28 0xFFFFFFFFFFFFFFFFFFFFFFFFFFFFFFFFFFFFFFFFFFFFFFFFFFFFFFFF NOT AND EQ SWAP1 POP SWAP2 SWAP1 POP JUMP JUMPDEST PUSH2 0xE9E DUP3 DUP3 PUSH2 0xC13 JUMP JUMPDEST PUSH2 0xF70 JUMPI PUSH1 0x1 DUP1 PUSH1 0x0 DUP5 DUP2 MSTORE PUSH1 0x20 ADD SWAP1 DUP2 MSTORE PUSH1 0x20 ADD PUSH1 0x0 KECCAK256 PUSH1 0x0 ADD PUSH1 0x0 DUP4 PUSH20 0xFFFFFFFFFFFFFFFFFFFFFFFFFFFFFFFFFFFFFFFF AND PUSH20 0xFFFFFFFFFFFFFFFFFFFFFFFFFFFFFFFFFFFFFFFF AND DUP2 MSTORE PUSH1 0x20 ADD SWAP1 DUP2 MSTORE PUSH1 0x20 ADD PUSH1 0x0 KECCAK256 PUSH1 0x0 PUSH2 0x100 EXP DUP2 SLOAD DUP2 PUSH1 0xFF MUL NOT AND SWAP1 DUP4 ISZERO ISZERO MUL OR SWAP1 SSTORE POP PUSH2 0xF15 PUSH2 0xD85 JUMP JUMPDEST PUSH20 0xFFFFFFFFFFFFFFFFFFFFFFFFFFFFFFFFFFFFFFFF AND DUP2 PUSH20 0xFFFFFFFFFFFFFFFFFFFFFFFFFFFFFFFFFFFFFFFF AND DUP4 PUSH32 0x2F8788117E7EFF1D82E926EC794901D17C78024A50270940304540A733656F0D PUSH1 0x40 MLOAD PUSH1 0x40 MLOAD DUP1 SWAP2 SUB SWAP1 LOG4 JUMPDEST POP POP JUMP JUMPDEST PUSH2 0xF7E DUP3 DUP3 PUSH2 0xC13 JUMP JUMPDEST ISZERO PUSH2 0x1052 JUMPI PUSH1 0x0 PUSH1 0x1 PUSH1 0x0 DUP5 DUP2 MSTORE PUSH1 0x20 ADD SWAP1 DUP2 MSTORE PUSH1 0x20 ADD PUSH1 0x0 KECCAK256 PUSH1 0x0 ADD PUSH1 0x0 DUP4 PUSH20 0xFFFFFFFFFFFFFFFFFFFFFFFFFFFFFFFFFFFFFFFF AND PUSH20 0xFFFFFFFFFFFFFFFFFFFFFFFFFFFFFFFFFFFFFFFF AND DUP2 MSTORE PUSH1 0x20 ADD SWAP1 DUP2 MSTORE PUSH1 0x20 ADD PUSH1 0x0 KECCAK256 PUSH1 0x0 PUSH2 0x100 EXP DUP2 SLOAD DUP2 PUSH1 0xFF MUL NOT AND SWAP1 DUP4 ISZERO ISZERO MUL OR SWAP1 SSTORE POP PUSH2 0xFF7 PUSH2 0xD85 JUMP JUMPDEST PUSH20 0xFFFFFFFFFFFFFFFFFFFFFFFFFFFFFFFFFFFFFFFF AND DUP2 PUSH20 0xFFFFFFFFFFFFFFFFFFFFFFFFFFFFFFFFFFFFFFFF AND DUP4 PUSH32 0xF6391F5C32D9C69D2A47EA670B442974B53935D1EDC7FD64EB21E047A839171B PUSH1 0x40 MLOAD PUSH1 0x40 MLOAD DUP1 SWAP2 SUB SWAP1 LOG4 JUMPDEST POP POP JUMP JUMPDEST PUSH2 0x105E PUSH2 0x600 JUMP JUMPDEST PUSH2 0x109D JUMPI PUSH1 0x40 MLOAD PUSH32 0x8C379A000000000000000000000000000000000000000000000000000000000 DUP2 MSTORE PUSH1 0x4 ADD PUSH2 0x1094 SWAP1 PUSH2 0x1DC5 JUMP JUMPDEST PUSH1 0x40 MLOAD DUP1 SWAP2 SUB SWAP1 REVERT JUMPDEST PUSH1 0x0 DUP1 PUSH1 0x0 PUSH2 0x100 EXP DUP2 SLOAD DUP2 PUSH1 0xFF MUL NOT AND SWAP1 DUP4 ISZERO ISZERO MUL OR SWAP1 SSTORE POP PUSH32 0x5DB9EE0A495BF2E6FF9C91A7834C1BA4FDD244A5E8AA4E537BD38AEAE4B073AA PUSH2 0x10E0 PUSH2 0xD85 JUMP JUMPDEST PUSH1 0x40 MLOAD PUSH2 0x10ED SWAP2 SWAP1 PUSH2 0x1D02 JUMP JUMPDEST PUSH1 0x40 MLOAD DUP1 SWAP2 SUB SWAP1 LOG1 JUMP JUMPDEST PUSH1 0x60 PUSH1 0x0 DUP4 DUP4 PUSH2 0x1107 SWAP2 SWAP1 PUSH2 0x2034 JUMP JUMPDEST PUSH8 0xFFFFFFFFFFFFFFFF DUP2 GT ISZERO PUSH2 0x1146 JUMPI PUSH32 0x4E487B7100000000000000000000000000000000000000000000000000000000 PUSH1 0x0 MSTORE PUSH1 0x41 PUSH1 0x4 MSTORE PUSH1 0x24 PUSH1 0x0 REVERT JUMPDEST PUSH1 0x40 MLOAD SWAP1 DUP1 DUP3 MSTORE DUP1 PUSH1 0x1F ADD PUSH1 0x1F NOT AND PUSH1 0x20 ADD DUP3 ADD PUSH1 0x40 MSTORE DUP1 ISZERO PUSH2 0x1178 JUMPI DUP2 PUSH1 0x20 ADD PUSH1 0x1 DUP3 MUL DUP1 CALLDATASIZE DUP4 CALLDATACOPY DUP1 DUP3 ADD SWAP2 POP POP SWAP1 POP JUMPDEST POP SWAP1 POP PUSH1 0x0 JUMPDEST PUSH1 0x1 DUP6 DUP6 PUSH2 0x118C SWAP2 SWAP1 PUSH2 0x2034 JUMP JUMPDEST PUSH2 0x1196 SWAP2 SWAP1 PUSH2 0x2034 JUMP JUMPDEST DUP2 GT PUSH2 0x125B JUMPI DUP6 DUP2 DUP2 MLOAD DUP2 LT PUSH2 0x11D5 JUMPI PUSH32 0x4E487B7100000000000000000000000000000000000000000000000000000000 PUSH1 0x0 MSTORE PUSH1 0x32 PUSH1 0x4 MSTORE PUSH1 0x24 PUSH1 0x0 REVERT JUMPDEST PUSH1 0x20 ADD ADD MLOAD PUSH1 0xF8 SHR PUSH1 0xF8 SHL DUP3 DUP3 DUP2 MLOAD DUP2 LT PUSH2 0x1219 JUMPI PUSH32 0x4E487B7100000000000000000000000000000000000000000000000000000000 PUSH1 0x0 MSTORE PUSH1 0x32 PUSH1 0x4 MSTORE PUSH1 0x24 PUSH1 0x0 REVERT JUMPDEST PUSH1 0x20 ADD ADD SWAP1 PUSH31 0xFFFFFFFFFFFFFFFFFFFFFFFFFFFFFFFFFFFFFFFFFFFFFFFFFFFFFFFFFFFFFF NOT AND SWAP1 DUP2 PUSH1 0x0 BYTE SWAP1 MSTORE8 POP DUP1 DUP1 PUSH2 0x1253 SWAP1 PUSH2 0x21DB JUMP JUMPDEST SWAP2 POP POP PUSH2 0x117E JUMP JUMPDEST POP DUP1 SWAP2 POP POP SWAP4 SWAP3 POP POP POP JUMP JUMPDEST PUSH2 0x126F PUSH2 0x600 JUMP JUMPDEST ISZERO PUSH2 0x12AF JUMPI PUSH1 0x40 MLOAD PUSH32 0x8C379A000000000000000000000000000000000000000000000000000000000 DUP2 MSTORE PUSH1 0x4 ADD PUSH2 0x12A6 SWAP1 PUSH2 0x1E05 JUMP JUMPDEST PUSH1 0x40 MLOAD DUP1 SWAP2 SUB SWAP1 REVERT JUMPDEST PUSH1 0x1 PUSH1 0x0 DUP1 PUSH2 0x100 EXP DUP2 SLOAD DUP2 PUSH1 0xFF MUL NOT AND SWAP1 DUP4 ISZERO ISZERO MUL OR SWAP1 SSTORE POP PUSH32 0x62E78CEA01BEE320CD4E420270B5EA74000D11B0C9F74754EBDBFC544B05A258 PUSH2 0x12F2 PUSH2 0xD85 JUMP JUMPDEST PUSH1 0x40 MLOAD PUSH2 0x12FF SWAP2 SWAP1 PUSH2 0x1D02 JUMP JUMPDEST PUSH1 0x40 MLOAD DUP1 SWAP2 SUB SWAP1 LOG1 JUMP JUMPDEST PUSH1 0x60 PUSH1 0x0 PUSH1 0x2 DUP4 PUSH1 0x2 PUSH2 0x131C SWAP2 SWAP1 PUSH2 0x1FDA JUMP JUMPDEST PUSH2 0x1326 SWAP2 SWAP1 PUSH2 0x1F84 JUMP JUMPDEST PUSH8 0xFFFFFFFFFFFFFFFF DUP2 GT ISZERO PUSH2 0x1365 JUMPI PUSH32 0x4E487B7100000000000000000000000000000000000000000000000000000000 PUSH1 0x0 MSTORE PUSH1 0x41 PUSH1 0x4 MSTORE PUSH1 0x24 PUSH1 0x0 REVERT JUMPDEST PUSH1 0x40 MLOAD SWAP1 DUP1 DUP3 MSTORE DUP1 PUSH1 0x1F ADD PUSH1 0x1F NOT AND PUSH1 0x20 ADD DUP3 ADD PUSH1 0x40 MSTORE DUP1 ISZERO PUSH2 0x1397 JUMPI DUP2 PUSH1 0x20 ADD PUSH1 0x1 DUP3 MUL DUP1 CALLDATASIZE DUP4 CALLDATACOPY DUP1 DUP3 ADD SWAP2 POP POP SWAP1 POP JUMPDEST POP SWAP1 POP PUSH32 0x3000000000000000000000000000000000000000000000000000000000000000 DUP2 PUSH1 0x0 DUP2 MLOAD DUP2 LT PUSH2 0x13F5 JUMPI PUSH32 0x4E487B7100000000000000000000000000000000000000000000000000000000 PUSH1 0x0 MSTORE PUSH1 0x32 PUSH1 0x4 MSTORE PUSH1 0x24 PUSH1 0x0 REVERT JUMPDEST PUSH1 0x20 ADD ADD SWAP1 PUSH31 0xFFFFFFFFFFFFFFFFFFFFFFFFFFFFFFFFFFFFFFFFFFFFFFFFFFFFFFFFFFFFFF NOT AND SWAP1 DUP2 PUSH1 0x0 BYTE SWAP1 MSTORE8 POP PUSH32 0x7800000000000000000000000000000000000000000000000000000000000000 DUP2 PUSH1 0x1 DUP2 MLOAD DUP2 LT PUSH2 0x147F JUMPI PUSH32 0x4E487B7100000000000000000000000000000000000000000000000000000000 PUSH1 0x0 MSTORE PUSH1 0x32 PUSH1 0x4 MSTORE PUSH1 0x24 PUSH1 0x0 REVERT JUMPDEST PUSH1 0x20 ADD ADD SWAP1 PUSH31 0xFFFFFFFFFFFFFFFFFFFFFFFFFFFFFFFFFFFFFFFFFFFFFFFFFFFFFFFFFFFFFF NOT AND SWAP1 DUP2 PUSH1 0x0 BYTE SWAP1 MSTORE8 POP PUSH1 0x0 PUSH1 0x1 DUP5 PUSH1 0x2 PUSH2 0x14BF SWAP2 SWAP1 PUSH2 0x1FDA JUMP JUMPDEST PUSH2 0x14C9 SWAP2 SWAP1 PUSH2 0x1F84 JUMP JUMPDEST SWAP1 POP JUMPDEST PUSH1 0x1 DUP2 GT ISZERO PUSH2 0x15B5 JUMPI PUSH32 0x3031323334353637383961626364656600000000000000000000000000000000 PUSH1 0xF DUP7 AND PUSH1 0x10 DUP2 LT PUSH2 0x1531 JUMPI PUSH32 0x4E487B7100000000000000000000000000000000000000000000000000000000 PUSH1 0x0 MSTORE PUSH1 0x32 PUSH1 0x4 MSTORE PUSH1 0x24 PUSH1 0x0 REVERT JUMPDEST BYTE PUSH1 0xF8 SHL DUP3 DUP3 DUP2 MLOAD DUP2 LT PUSH2 0x156E JUMPI PUSH32 0x4E487B7100000000000000000000000000000000000000000000000000000000 PUSH1 0x0 MSTORE PUSH1 0x32 PUSH1 0x4 MSTORE PUSH1 0x24 PUSH1 0x0 REVERT JUMPDEST PUSH1 0x20 ADD ADD SWAP1 PUSH31 0xFFFFFFFFFFFFFFFFFFFFFFFFFFFFFFFFFFFFFFFFFFFFFFFFFFFFFFFFFFFFFF NOT AND SWAP1 DUP2 PUSH1 0x0 BYTE SWAP1 MSTORE8 POP PUSH1 0x4 DUP6 SWAP1 SHR SWAP5 POP DUP1 PUSH2 0x15AE SWAP1 PUSH2 0x2180 JUMP JUMPDEST SWAP1 POP PUSH2 0x14CC JUMP JUMPDEST POP PUSH1 0x0 DUP5 EQ PUSH2 0x15F9 JUMPI PUSH1 0x40 MLOAD PUSH32 0x8C379A000000000000000000000000000000000000000000000000000000000 DUP2 MSTORE PUSH1 0x4 ADD PUSH2 0x15F0 SWAP1 PUSH2 0x1DA5 JUMP JUMPDEST PUSH1 0x40 MLOAD DUP1 SWAP2 SUB SWAP1 REVERT JUMPDEST DUP1 SWAP2 POP POP SWAP3 SWAP2 POP POP JUMP JUMPDEST PUSH1 0x0 PUSH2 0x1616 PUSH2 0x1611 DUP5 PUSH2 0x1F05 JUMP JUMPDEST PUSH2 0x1EE0 JUMP JUMPDEST SWAP1 POP DUP3 DUP2 MSTORE PUSH1 0x20 DUP2 ADD DUP5 DUP5 DUP5 ADD GT ISZERO PUSH2 0x162E JUMPI PUSH1 0x0 DUP1 REVERT JUMPDEST PUSH2 0x1639 DUP5 DUP3 DUP6 PUSH2 0x213E JUMP JUMPDEST POP SWAP4 SWAP3 POP POP POP JUMP JUMPDEST PUSH1 0x0 PUSH2 0x1654 PUSH2 0x164F DUP5 PUSH2 0x1F05 JUMP JUMPDEST PUSH2 0x1EE0 JUMP JUMPDEST SWAP1 POP DUP3 DUP2 MSTORE PUSH1 0x20 DUP2 ADD DUP5 DUP5 DUP5 ADD GT ISZERO PUSH2 0x166C JUMPI PUSH1 0x0 DUP1 REVERT JUMPDEST PUSH2 0x1677 DUP5 DUP3 DUP6 PUSH2 0x214D JUMP JUMPDEST POP SWAP4 SWAP3 POP POP POP JUMP JUMPDEST PUSH1 0x0 DUP2 CALLDATALOAD SWAP1 POP PUSH2 0x168E DUP2 PUSH2 0x257E JUMP JUMPDEST SWAP3 SWAP2 POP POP JUMP JUMPDEST PUSH1 0x0 DUP2 CALLDATALOAD SWAP1 POP PUSH2 0x16A3 DUP2 PUSH2 0x2595 JUMP JUMPDEST SWAP3 SWAP2 POP POP JUMP JUMPDEST PUSH1 0x0 DUP2 MLOAD SWAP1 POP PUSH2 0x16B8 DUP2 PUSH2 0x2595 JUMP JUMPDEST SWAP3 SWAP2 POP POP JUMP JUMPDEST PUSH1 0x0 DUP2 CALLDATALOAD SWAP1 POP PUSH2 0x16CD DUP2 PUSH2 0x25AC JUMP JUMPDEST SWAP3 SWAP2 POP POP JUMP JUMPDEST PUSH1 0x0 DUP3 PUSH1 0x1F DUP4 ADD SLT PUSH2 0x16E4 JUMPI PUSH1 0x0 DUP1 REVERT JUMPDEST DUP2 CALLDATALOAD PUSH2 0x16F4 DUP5 DUP3 PUSH1 0x20 DUP7 ADD PUSH2 0x1603 JUMP JUMPDEST SWAP2 POP POP SWAP3 SWAP2 POP POP JUMP JUMPDEST PUSH1 0x0 DUP3 PUSH1 0x1F DUP4 ADD SLT PUSH2 0x170E JUMPI PUSH1 0x0 DUP1 REVERT JUMPDEST DUP2 MLOAD PUSH2 0x171E DUP5 DUP3 PUSH1 0x20 DUP7 ADD PUSH2 0x1641 JUMP JUMPDEST SWAP2 POP POP SWAP3 SWAP2 POP POP JUMP JUMPDEST PUSH1 0x0 DUP2 CALLDATALOAD SWAP1 POP PUSH2 0x1736 DUP2 PUSH2 0x25C3 JUMP JUMPDEST SWAP3 SWAP2 POP POP JUMP JUMPDEST PUSH1 0x0 DUP1 PUSH1 0x0 PUSH1 0x60 DUP5 DUP7 SUB SLT ISZERO PUSH2 0x1751 JUMPI PUSH1 0x0 DUP1 REVERT JUMPDEST PUSH1 0x0 PUSH2 0x175F DUP7 DUP3 DUP8 ADD PUSH2 0x167F JUMP JUMPDEST SWAP4 POP POP PUSH1 0x20 PUSH2 0x1770 DUP7 DUP3 DUP8 ADD PUSH2 0x1694 JUMP JUMPDEST SWAP3 POP POP PUSH1 0x40 DUP5 ADD CALLDATALOAD PUSH8 0xFFFFFFFFFFFFFFFF DUP2 GT ISZERO PUSH2 0x178D JUMPI PUSH1 0x0 DUP1 REVERT JUMPDEST PUSH2 0x1799 DUP7 DUP3 DUP8 ADD PUSH2 0x16D3 JUMP JUMPDEST SWAP2 POP POP SWAP3 POP SWAP3 POP SWAP3 JUMP JUMPDEST PUSH1 0x0 PUSH1 0x20 DUP3 DUP5 SUB SLT ISZERO PUSH2 0x17B5 JUMPI PUSH1 0x0 DUP1 REVERT JUMPDEST PUSH1 0x0 PUSH2 0x17C3 DUP5 DUP3 DUP6 ADD PUSH2 0x1694 JUMP JUMPDEST SWAP2 POP POP SWAP3 SWAP2 POP POP JUMP JUMPDEST PUSH1 0x0 PUSH1 0x20 DUP3 DUP5 SUB SLT ISZERO PUSH2 0x17DE JUMPI PUSH1 0x0 DUP1 REVERT JUMPDEST PUSH1 0x0 PUSH2 0x17EC DUP5 DUP3 DUP6 ADD PUSH2 0x16A9 JUMP JUMPDEST SWAP2 POP POP SWAP3 SWAP2 POP POP JUMP JUMPDEST PUSH1 0x0 DUP1 PUSH1 0x40 DUP4 DUP6 SUB SLT ISZERO PUSH2 0x1808 JUMPI PUSH1 0x0 DUP1 REVERT JUMPDEST PUSH1 0x0 PUSH2 0x1816 DUP6 DUP3 DUP7 ADD PUSH2 0x1694 JUMP JUMPDEST SWAP3 POP POP PUSH1 0x20 PUSH2 0x1827 DUP6 DUP3 DUP7 ADD PUSH2 0x167F JUMP JUMPDEST SWAP2 POP POP SWAP3 POP SWAP3 SWAP1 POP JUMP JUMPDEST PUSH1 0x0 PUSH1 0x20 DUP3 DUP5 SUB SLT ISZERO PUSH2 0x1843 JUMPI PUSH1 0x0 DUP1 REVERT JUMPDEST PUSH1 0x0 PUSH2 0x1851 DUP5 DUP3 DUP6 ADD PUSH2 0x16BE JUMP JUMPDEST SWAP2 POP POP SWAP3 SWAP2 POP POP JUMP JUMPDEST PUSH1 0x0 PUSH1 0x20 DUP3 DUP5 SUB SLT ISZERO PUSH2 0x186C JUMPI PUSH1 0x0 DUP1 REVERT JUMPDEST PUSH1 0x0 DUP3 ADD CALLDATALOAD PUSH8 0xFFFFFFFFFFFFFFFF DUP2 GT ISZERO PUSH2 0x1886 JUMPI PUSH1 0x0 DUP1 REVERT JUMPDEST PUSH2 0x1892 DUP5 DUP3 DUP6 ADD PUSH2 0x16D3 JUMP JUMPDEST SWAP2 POP POP SWAP3 SWAP2 POP POP JUMP JUMPDEST PUSH1 0x0 PUSH1 0x20 DUP3 DUP5 SUB SLT ISZERO PUSH2 0x18AD JUMPI PUSH1 0x0 DUP1 REVERT JUMPDEST PUSH1 0x0 DUP3 ADD MLOAD PUSH8 0xFFFFFFFFFFFFFFFF DUP2 GT ISZERO PUSH2 0x18C7 JUMPI PUSH1 0x0 DUP1 REVERT JUMPDEST PUSH2 0x18D3 DUP5 DUP3 DUP6 ADD PUSH2 0x16FD JUMP JUMPDEST SWAP2 POP POP SWAP3 SWAP2 POP POP JUMP JUMPDEST PUSH1 0x0 DUP1 PUSH1 0x40 DUP4 DUP6 SUB SLT ISZERO PUSH2 0x18EF JUMPI PUSH1 0x0 DUP1 REVERT JUMPDEST PUSH1 0x0 DUP4 ADD CALLDATALOAD PUSH8 0xFFFFFFFFFFFFFFFF DUP2 GT ISZERO PUSH2 0x1909 JUMPI PUSH1 0x0 DUP1 REVERT JUMPDEST PUSH2 0x1915 DUP6 DUP3 DUP7 ADD PUSH2 0x16D3 JUMP JUMPDEST SWAP3 POP POP PUSH1 0x20 PUSH2 0x1926 DUP6 DUP3 DUP7 ADD PUSH2 0x1727 JUMP JUMPDEST SWAP2 POP POP SWAP3 POP SWAP3 SWAP1 POP JUMP JUMPDEST PUSH1 0x0 PUSH1 0x20 DUP3 DUP5 SUB SLT ISZERO PUSH2 0x1942 JUMPI PUSH1 0x0 DUP1 REVERT JUMPDEST PUSH1 0x0 PUSH2 0x1950 DUP5 DUP3 DUP6 ADD PUSH2 0x1727 JUMP JUMPDEST SWAP2 POP POP SWAP3 SWAP2 POP POP JUMP JUMPDEST PUSH2 0x1962 DUP2 PUSH2 0x2068 JUMP JUMPDEST DUP3 MSTORE POP POP JUMP JUMPDEST PUSH2 0x1971 DUP2 PUSH2 0x207A JUMP JUMPDEST DUP3 MSTORE POP POP JUMP JUMPDEST PUSH2 0x1988 PUSH2 0x1983 DUP3 PUSH2 0x2086 JUMP JUMPDEST PUSH2 0x2224 JUMP JUMPDEST DUP3 MSTORE POP POP JUMP JUMPDEST PUSH2 0x199F PUSH2 0x199A DUP3 PUSH2 0x20B2 JUMP JUMPDEST PUSH2 0x222E JUMP JUMPDEST DUP3 MSTORE POP POP JUMP JUMPDEST PUSH2 0x19AE DUP2 PUSH2 0x20DE JUMP JUMPDEST DUP3 MSTORE POP POP JUMP JUMPDEST PUSH2 0x19C5 PUSH2 0x19C0 DUP3 PUSH2 0x20DE JUMP JUMPDEST PUSH2 0x2238 JUMP JUMPDEST DUP3 MSTORE POP POP JUMP JUMPDEST PUSH1 0x0 PUSH2 0x19D6 DUP3 PUSH2 0x1F36 JUMP JUMPDEST PUSH2 0x19E0 DUP2 DUP6 PUSH2 0x1F4C JUMP JUMPDEST SWAP4 POP PUSH2 0x19F0 DUP2 DUP6 PUSH1 0x20 DUP7 ADD PUSH2 0x214D JUMP JUMPDEST PUSH2 0x19F9 DUP2 PUSH2 0x22A0 JUMP JUMPDEST DUP5 ADD SWAP2 POP POP SWAP3 SWAP2 POP POP JUMP JUMPDEST PUSH1 0x0 PUSH2 0x1A0F DUP3 PUSH2 0x1F36 JUMP JUMPDEST PUSH2 0x1A19 DUP2 DUP6 PUSH2 0x1F5D JUMP JUMPDEST SWAP4 POP PUSH2 0x1A29 DUP2 DUP6 PUSH1 0x20 DUP7 ADD PUSH2 0x214D JUMP JUMPDEST DUP1 DUP5 ADD SWAP2 POP POP SWAP3 SWAP2 POP POP JUMP JUMPDEST PUSH1 0x0 PUSH2 0x1A40 DUP3 PUSH2 0x1F41 JUMP JUMPDEST PUSH2 0x1A4A DUP2 DUP6 PUSH2 0x1F68 JUMP JUMPDEST SWAP4 POP PUSH2 0x1A5A DUP2 DUP6 PUSH1 0x20 DUP7 ADD PUSH2 0x214D JUMP JUMPDEST PUSH2 0x1A63 DUP2 PUSH2 0x22A0 JUMP JUMPDEST DUP5 ADD SWAP2 POP POP SWAP3 SWAP2 POP POP JUMP JUMPDEST PUSH1 0x0 PUSH2 0x1A79 DUP3 PUSH2 0x1F41 JUMP JUMPDEST PUSH2 0x1A83 DUP2 DUP6 PUSH2 0x1F79 JUMP JUMPDEST SWAP4 POP PUSH2 0x1A93 DUP2 DUP6 PUSH1 0x20 DUP7 ADD PUSH2 0x214D JUMP JUMPDEST DUP1 DUP5 ADD SWAP2 POP POP SWAP3 SWAP2 POP POP JUMP JUMPDEST PUSH1 0x0 PUSH2 0x1AAC PUSH1 0x20 DUP4 PUSH2 0x1F68 JUMP JUMPDEST SWAP2 POP PUSH2 0x1AB7 DUP3 PUSH2 0x22B1 JUMP JUMPDEST PUSH1 0x20 DUP3 ADD SWAP1 POP SWAP2 SWAP1 POP JUMP JUMPDEST PUSH1 0x0 PUSH2 0x1ACF PUSH1 0x14 DUP4 PUSH2 0x1F68 JUMP JUMPDEST SWAP2 POP PUSH2 0x1ADA DUP3 PUSH2 0x22DA JUMP JUMPDEST PUSH1 0x20 DUP3 ADD SWAP1 POP SWAP2 SWAP1 POP JUMP JUMPDEST PUSH1 0x0 PUSH2 0x1AF2 PUSH1 0x4F DUP4 PUSH2 0x1F68 JUMP JUMPDEST SWAP2 POP PUSH2 0x1AFD DUP3 PUSH2 0x2303 JUMP JUMPDEST PUSH1 0x60 DUP3 ADD SWAP1 POP SWAP2 SWAP1 POP JUMP JUMPDEST PUSH1 0x0 PUSH2 0x1B15 PUSH1 0x10 DUP4 PUSH2 0x1F68 JUMP JUMPDEST SWAP2 POP PUSH2 0x1B20 DUP3 PUSH2 0x2378 JUMP JUMPDEST PUSH1 0x20 DUP3 ADD SWAP1 POP SWAP2 SWAP1 POP JUMP JUMPDEST PUSH1 0x0 PUSH2 0x1B38 PUSH1 0x53 DUP4 PUSH2 0x1F68 JUMP JUMPDEST SWAP2 POP PUSH2 0x1B43 DUP3 PUSH2 0x23A1 JUMP JUMPDEST PUSH1 0x60 DUP3 ADD SWAP1 POP SWAP2 SWAP1 POP JUMP JUMPDEST PUSH1 0x0 PUSH2 0x1B5B PUSH1 0x2C DUP4 PUSH2 0x1F68 JUMP JUMPDEST SWAP2 POP PUSH2 0x1B66 DUP3 PUSH2 0x2416 JUMP JUMPDEST PUSH1 0x40 DUP3 ADD SWAP1 POP SWAP2 SWAP1 POP JUMP JUMPDEST PUSH1 0x0 PUSH2 0x1B7E PUSH1 0x17 DUP4 PUSH2 0x1F79 JUMP JUMPDEST SWAP2 POP PUSH2 0x1B89 DUP3 PUSH2 0x2465 JUMP JUMPDEST PUSH1 0x17 DUP3 ADD SWAP1 POP SWAP2 SWAP1 POP JUMP JUMPDEST PUSH1 0x0 PUSH2 0x1BA1 PUSH1 0x1E DUP4 PUSH2 0x1F68 JUMP JUMPDEST SWAP2 POP PUSH2 0x1BAC DUP3 PUSH2 0x248E JUMP JUMPDEST PUSH1 0x20 DUP3 ADD SWAP1 POP SWAP2 SWAP1 POP JUMP JUMPDEST PUSH1 0x0 PUSH2 0x1BC4 PUSH1 0x29 DUP4 PUSH2 0x1F68 JUMP JUMPDEST SWAP2 POP PUSH2 0x1BCF DUP3 PUSH2 0x24B7 JUMP JUMPDEST PUSH1 0x40 DUP3 ADD SWAP1 POP SWAP2 SWAP1 POP JUMP JUMPDEST PUSH1 0x0 PUSH2 0x1BE7 PUSH1 0x11 DUP4 PUSH2 0x1F79 JUMP JUMPDEST SWAP2 POP PUSH2 0x1BF2 DUP3 PUSH2 0x2506 JUMP JUMPDEST PUSH1 0x11 DUP3 ADD SWAP1 POP SWAP2 SWAP1 POP JUMP JUMPDEST PUSH1 0x0 PUSH2 0x1C0A PUSH1 0x2F DUP4 PUSH2 0x1F68 JUMP JUMPDEST SWAP2 POP PUSH2 0x1C15 DUP3 PUSH2 0x252F JUMP JUMPDEST PUSH1 0x40 DUP3 ADD SWAP1 POP SWAP2 SWAP1 POP JUMP JUMPDEST PUSH2 0x1C29 DUP2 PUSH2 0x2134 JUMP JUMPDEST DUP3 MSTORE POP POP JUMP JUMPDEST PUSH1 0x0 PUSH2 0x1C3B DUP3 DUP6 PUSH2 0x1977 JUMP JUMPDEST PUSH1 0x1 DUP3 ADD SWAP2 POP PUSH2 0x1C4B DUP3 DUP5 PUSH2 0x1A04 JUMP JUMPDEST SWAP2 POP DUP2 SWAP1 POP SWAP4 SWAP3 POP POP POP JUMP JUMPDEST PUSH1 0x0 PUSH2 0x1C63 DUP3 DUP5 PUSH2 0x198E JUMP JUMPDEST PUSH1 0x14 DUP3 ADD SWAP2 POP DUP2 SWAP1 POP SWAP3 SWAP2 POP POP JUMP JUMPDEST PUSH1 0x0 PUSH2 0x1C7E DUP3 DUP5 PUSH2 0x19B4 JUMP JUMPDEST PUSH1 0x20 DUP3 ADD SWAP2 POP DUP2 SWAP1 POP SWAP3 SWAP2 POP POP JUMP JUMPDEST PUSH1 0x0 PUSH2 0x1C99 DUP3 DUP5 PUSH2 0x1A04 JUMP JUMPDEST SWAP2 POP DUP2 SWAP1 POP SWAP3 SWAP2 POP POP JUMP JUMPDEST PUSH1 0x0 PUSH2 0x1CB0 DUP3 DUP6 PUSH2 0x1A04 JUMP JUMPDEST SWAP2 POP PUSH2 0x1CBC DUP3 DUP5 PUSH2 0x1A04 JUMP JUMPDEST SWAP2 POP DUP2 SWAP1 POP SWAP4 SWAP3 POP POP POP JUMP JUMPDEST PUSH1 0x0 PUSH2 0x1CD3 DUP3 PUSH2 0x1B71 JUMP JUMPDEST SWAP2 POP PUSH2 0x1CDF DUP3 DUP6 PUSH2 0x1A6E JUMP JUMPDEST SWAP2 POP PUSH2 0x1CEA DUP3 PUSH2 0x1BDA JUMP JUMPDEST SWAP2 POP PUSH2 0x1CF6 DUP3 DUP5 PUSH2 0x1A6E JUMP JUMPDEST SWAP2 POP DUP2 SWAP1 POP SWAP4 SWAP3 POP POP POP JUMP JUMPDEST PUSH1 0x0 PUSH1 0x20 DUP3 ADD SWAP1 POP PUSH2 0x1D17 PUSH1 0x0 DUP4 ADD DUP5 PUSH2 0x1959 JUMP JUMPDEST SWAP3 SWAP2 POP POP JUMP JUMPDEST PUSH1 0x0 PUSH1 0x20 DUP3 ADD SWAP1 POP PUSH2 0x1D32 PUSH1 0x0 DUP4 ADD DUP5 PUSH2 0x1968 JUMP JUMPDEST SWAP3 SWAP2 POP POP JUMP JUMPDEST PUSH1 0x0 PUSH1 0x20 DUP3 ADD SWAP1 POP PUSH2 0x1D4D PUSH1 0x0 DUP4 ADD DUP5 PUSH2 0x19A5 JUMP JUMPDEST SWAP3 SWAP2 POP POP JUMP JUMPDEST PUSH1 0x0 PUSH1 0x40 DUP3 ADD SWAP1 POP PUSH2 0x1D68 PUSH1 0x0 DUP4 ADD DUP6 PUSH2 0x19A5 JUMP JUMPDEST DUP2 DUP2 SUB PUSH1 0x20 DUP4 ADD MSTORE PUSH2 0x1D7A DUP2 DUP5 PUSH2 0x19CB JUMP JUMPDEST SWAP1 POP SWAP4 SWAP3 POP POP POP JUMP JUMPDEST PUSH1 0x0 PUSH1 0x20 DUP3 ADD SWAP1 POP DUP2 DUP2 SUB PUSH1 0x0 DUP4 ADD MSTORE PUSH2 0x1D9D DUP2 DUP5 PUSH2 0x1A35 JUMP JUMPDEST SWAP1 POP SWAP3 SWAP2 POP POP JUMP JUMPDEST PUSH1 0x0 PUSH1 0x20 DUP3 ADD SWAP1 POP DUP2 DUP2 SUB PUSH1 0x0 DUP4 ADD MSTORE PUSH2 0x1DBE DUP2 PUSH2 0x1A9F JUMP JUMPDEST SWAP1 POP SWAP2 SWAP1 POP JUMP JUMPDEST PUSH1 0x0 PUSH1 0x20 DUP3 ADD SWAP1 POP DUP2 DUP2 SUB PUSH1 0x0 DUP4 ADD MSTORE PUSH2 0x1DDE DUP2 PUSH2 0x1AC2 JUMP JUMPDEST SWAP1 POP SWAP2 SWAP1 POP JUMP JUMPDEST PUSH1 0x0 PUSH1 0x20 DUP3 ADD SWAP1 POP DUP2 DUP2 SUB PUSH1 0x0 DUP4 ADD MSTORE PUSH2 0x1DFE DUP2 PUSH2 0x1AE5 JUMP JUMPDEST SWAP1 POP SWAP2 SWAP1 POP JUMP JUMPDEST PUSH1 0x0 PUSH1 0x20 DUP3 ADD SWAP1 POP DUP2 DUP2 SUB PUSH1 0x0 DUP4 ADD MSTORE PUSH2 0x1E1E DUP2 PUSH2 0x1B08 JUMP JUMPDEST SWAP1 POP SWAP2 SWAP1 POP JUMP JUMPDEST PUSH1 0x0 PUSH1 0x20 DUP3 ADD SWAP1 POP DUP2 DUP2 SUB PUSH1 0x0 DUP4 ADD MSTORE PUSH2 0x1E3E DUP2 PUSH2 0x1B2B JUMP JUMPDEST SWAP1 POP SWAP2 SWAP1 POP JUMP JUMPDEST PUSH1 0x0 PUSH1 0x20 DUP3 ADD SWAP1 POP DUP2 DUP2 SUB PUSH1 0x0 DUP4 ADD MSTORE PUSH2 0x1E5E DUP2 PUSH2 0x1B4E JUMP JUMPDEST SWAP1 POP SWAP2 SWAP1 POP JUMP JUMPDEST PUSH1 0x0 PUSH1 0x20 DUP3 ADD SWAP1 POP DUP2 DUP2 SUB PUSH1 0x0 DUP4 ADD MSTORE PUSH2 0x1E7E DUP2 PUSH2 0x1B94 JUMP JUMPDEST SWAP1 POP SWAP2 SWAP1 POP JUMP JUMPDEST PUSH1 0x0 PUSH1 0x20 DUP3 ADD SWAP1 POP DUP2 DUP2 SUB PUSH1 0x0 DUP4 ADD MSTORE PUSH2 0x1E9E DUP2 PUSH2 0x1BB7 JUMP JUMPDEST SWAP1 POP SWAP2 SWAP1 POP JUMP JUMPDEST PUSH1 0x0 PUSH1 0x20 DUP3 ADD SWAP1 POP DUP2 DUP2 SUB PUSH1 0x0 DUP4 ADD MSTORE PUSH2 0x1EBE DUP2 PUSH2 0x1BFD JUMP JUMPDEST SWAP1 POP SWAP2 SWAP1 POP JUMP JUMPDEST PUSH1 0x0 PUSH1 0x20 DUP3 ADD SWAP1 POP PUSH2 0x1EDA PUSH1 0x0 DUP4 ADD DUP5 PUSH2 0x1C20 JUMP JUMPDEST SWAP3 SWAP2 POP POP JUMP JUMPDEST PUSH1 0x0 PUSH2 0x1EEA PUSH2 0x1EFB JUMP JUMPDEST SWAP1 POP PUSH2 0x1EF6 DUP3 DUP3 PUSH2 0x21AA JUMP JUMPDEST SWAP2 SWAP1 POP JUMP JUMPDEST PUSH1 0x0 PUSH1 0x40 MLOAD SWAP1 POP SWAP1 JUMP JUMPDEST PUSH1 0x0 PUSH8 0xFFFFFFFFFFFFFFFF DUP3 GT ISZERO PUSH2 0x1F20 JUMPI PUSH2 0x1F1F PUSH2 0x2271 JUMP JUMPDEST JUMPDEST PUSH2 0x1F29 DUP3 PUSH2 0x22A0 JUMP JUMPDEST SWAP1 POP PUSH1 0x20 DUP2 ADD SWAP1 POP SWAP2 SWAP1 POP JUMP JUMPDEST PUSH1 0x0 DUP2 MLOAD SWAP1 POP SWAP2 SWAP1 POP JUMP JUMPDEST PUSH1 0x0 DUP2 MLOAD SWAP1 POP SWAP2 SWAP1 POP JUMP JUMPDEST PUSH1 0x0 DUP3 DUP3 MSTORE PUSH1 0x20 DUP3 ADD SWAP1 POP SWAP3 SWAP2 POP POP JUMP JUMPDEST PUSH1 0x0 DUP2 SWAP1 POP SWAP3 SWAP2 POP POP JUMP JUMPDEST PUSH1 0x0 DUP3 DUP3 MSTORE PUSH1 0x20 DUP3 ADD SWAP1 POP SWAP3 SWAP2 POP POP JUMP JUMPDEST PUSH1 0x0 DUP2 SWAP1 POP SWAP3 SWAP2 POP POP JUMP JUMPDEST PUSH1 0x0 PUSH2 0x1F8F DUP3 PUSH2 0x2134 JUMP JUMPDEST SWAP2 POP PUSH2 0x1F9A DUP4 PUSH2 0x2134 JUMP JUMPDEST SWAP3 POP DUP3 PUSH32 0xFFFFFFFFFFFFFFFFFFFFFFFFFFFFFFFFFFFFFFFFFFFFFFFFFFFFFFFFFFFFFFFF SUB DUP3 GT ISZERO PUSH2 0x1FCF JUMPI PUSH2 0x1FCE PUSH2 0x2242 JUMP JUMPDEST JUMPDEST DUP3 DUP3 ADD SWAP1 POP SWAP3 SWAP2 POP POP JUMP JUMPDEST PUSH1 0x0 PUSH2 0x1FE5 DUP3 PUSH2 0x2134 JUMP JUMPDEST SWAP2 POP PUSH2 0x1FF0 DUP4 PUSH2 0x2134 JUMP JUMPDEST SWAP3 POP DUP2 PUSH32 0xFFFFFFFFFFFFFFFFFFFFFFFFFFFFFFFFFFFFFFFFFFFFFFFFFFFFFFFFFFFFFFFF DIV DUP4 GT DUP3 ISZERO ISZERO AND ISZERO PUSH2 0x2029 JUMPI PUSH2 0x2028 PUSH2 0x2242 JUMP JUMPDEST JUMPDEST DUP3 DUP3 MUL SWAP1 POP SWAP3 SWAP2 POP POP JUMP JUMPDEST PUSH1 0x0 PUSH2 0x203F DUP3 PUSH2 0x2134 JUMP JUMPDEST SWAP2 POP PUSH2 0x204A DUP4 PUSH2 0x2134 JUMP JUMPDEST SWAP3 POP DUP3 DUP3 LT ISZERO PUSH2 0x205D JUMPI PUSH2 0x205C PUSH2 0x2242 JUMP JUMPDEST JUMPDEST DUP3 DUP3 SUB SWAP1 POP SWAP3 SWAP2 POP POP JUMP JUMPDEST PUSH1 0x0 PUSH2 0x2073 DUP3 PUSH2 0x2114 JUMP JUMPDEST SWAP1 POP SWAP2 SWAP1 POP JUMP JUMPDEST PUSH1 0x0 DUP2 ISZERO ISZERO SWAP1 POP SWAP2 SWAP1 POP JUMP JUMPDEST PUSH1 0x0 PUSH32 0xFF00000000000000000000000000000000000000000000000000000000000000 DUP3 AND SWAP1 POP SWAP2 SWAP1 POP JUMP JUMPDEST PUSH1 0x0 PUSH32 0xFFFFFFFFFFFFFFFFFFFFFFFFFFFFFFFFFFFFFFFF000000000000000000000000 DUP3 AND SWAP1 POP SWAP2 SWAP1 POP JUMP JUMPDEST PUSH1 0x0 DUP2 SWAP1 POP SWAP2 SWAP1 POP JUMP JUMPDEST PUSH1 0x0 PUSH32 0xFFFFFFFF00000000000000000000000000000000000000000000000000000000 DUP3 AND SWAP1 POP SWAP2 SWAP1 POP JUMP JUMPDEST PUSH1 0x0 PUSH20 0xFFFFFFFFFFFFFFFFFFFFFFFFFFFFFFFFFFFFFFFF DUP3 AND SWAP1 POP SWAP2 SWAP1 POP JUMP JUMPDEST PUSH1 0x0 DUP2 SWAP1 POP SWAP2 SWAP1 POP JUMP JUMPDEST DUP3 DUP2 DUP4 CALLDATACOPY PUSH1 0x0 DUP4 DUP4 ADD MSTORE POP POP POP JUMP JUMPDEST PUSH1 0x0 JUMPDEST DUP4 DUP2 LT ISZERO PUSH2 0x216B JUMPI DUP1 DUP3 ADD MLOAD DUP2 DUP5 ADD MSTORE PUSH1 0x20 DUP2 ADD SWAP1 POP PUSH2 0x2150 JUMP JUMPDEST DUP4 DUP2 GT ISZERO PUSH2 0x217A JUMPI PUSH1 0x0 DUP5 DUP5 ADD MSTORE JUMPDEST POP POP POP POP JUMP JUMPDEST PUSH1 0x0 PUSH2 0x218B DUP3 PUSH2 0x2134 JUMP JUMPDEST SWAP2 POP PUSH1 0x0 DUP3 EQ ISZERO PUSH2 0x219F JUMPI PUSH2 0x219E PUSH2 0x2242 JUMP JUMPDEST JUMPDEST PUSH1 0x1 DUP3 SUB SWAP1 POP SWAP2 SWAP1 POP JUMP JUMPDEST PUSH2 0x21B3 DUP3 PUSH2 0x22A0 JUMP JUMPDEST DUP2 ADD DUP2 DUP2 LT PUSH8 0xFFFFFFFFFFFFFFFF DUP3 GT OR ISZERO PUSH2 0x21D2 JUMPI PUSH2 0x21D1 PUSH2 0x2271 JUMP JUMPDEST JUMPDEST DUP1 PUSH1 0x40 MSTORE POP POP POP JUMP JUMPDEST PUSH1 0x0 PUSH2 0x21E6 DUP3 PUSH2 0x2134 JUMP JUMPDEST SWAP2 POP PUSH32 0xFFFFFFFFFFFFFFFFFFFFFFFFFFFFFFFFFFFFFFFFFFFFFFFFFFFFFFFFFFFFFFFF DUP3 EQ ISZERO PUSH2 0x2219 JUMPI PUSH2 0x2218 PUSH2 0x2242 JUMP JUMPDEST JUMPDEST PUSH1 0x1 DUP3 ADD SWAP1 POP SWAP2 SWAP1 POP JUMP JUMPDEST PUSH1 0x0 DUP2 SWAP1 POP SWAP2 SWAP1 POP JUMP JUMPDEST PUSH1 0x0 DUP2 SWAP1 POP SWAP2 SWAP1 POP JUMP JUMPDEST PUSH1 0x0 DUP2 SWAP1 POP SWAP2 SWAP1 POP JUMP JUMPDEST PUSH32 0x4E487B7100000000000000000000000000000000000000000000000000000000 PUSH1 0x0 MSTORE PUSH1 0x11 PUSH1 0x4 MSTORE PUSH1 0x24 PUSH1 0x0 REVERT JUMPDEST PUSH32 0x4E487B7100000000000000000000000000000000000000000000000000000000 PUSH1 0x0 MSTORE PUSH1 0x41 PUSH1 0x4 MSTORE PUSH1 0x24 PUSH1 0x0 REVERT JUMPDEST PUSH1 0x0 PUSH1 0x1F NOT PUSH1 0x1F DUP4 ADD AND SWAP1 POP SWAP2 SWAP1 POP JUMP JUMPDEST PUSH32 0x537472696E67733A20686578206C656E67746820696E73756666696369656E74 PUSH1 0x0 DUP3 ADD MSTORE POP JUMP JUMPDEST PUSH32 0x5061757361626C653A206E6F7420706175736564000000000000000000000000 PUSH1 0x0 DUP3 ADD MSTORE POP JUMP JUMPDEST PUSH32 0x46696E61537761703A636C61696D20496E76616C6964207369676E6174757265 PUSH1 0x0 DUP3 ADD MSTORE PUSH32 0x206C656E6774682E20546865207369676E6174757265206D7573742062652065 PUSH1 0x20 DUP3 ADD MSTORE PUSH32 0x786163746C792036352062797465730000000000000000000000000000000000 PUSH1 0x40 DUP3 ADD MSTORE POP JUMP JUMPDEST PUSH32 0x5061757361626C653A2070617573656400000000000000000000000000000000 PUSH1 0x0 DUP3 ADD MSTORE POP JUMP JUMPDEST PUSH32 0x46696E61537761703A636C61696D20496E76616C6964207369676E6174757265 PUSH1 0x0 DUP3 ADD MSTORE PUSH32 0x2E20546865207265636F7665726564207075626C6963206B6579206D75737420 PUSH1 0x20 DUP3 ADD MSTORE PUSH32 0x62652065786163746C7920333320627974657300000000000000000000000000 PUSH1 0x40 DUP3 ADD MSTORE POP JUMP JUMPDEST PUSH32 0x46696E61537761703A636C61696D205461726765742061646472657373206361 PUSH1 0x0 DUP3 ADD MSTORE PUSH32 0x6E6E6F74206265207A65726F0000000000000000000000000000000000000000 PUSH1 0x20 DUP3 ADD MSTORE POP JUMP JUMPDEST PUSH32 0x416363657373436F6E74726F6C3A206163636F756E7420000000000000000000 PUSH1 0x0 DUP3 ADD MSTORE POP JUMP JUMPDEST PUSH32 0x46696E61537761703A636C61696D20616C726561647920737761707065640000 PUSH1 0x0 DUP3 ADD MSTORE POP JUMP JUMPDEST PUSH32 0x46696E61537761703A636C61696D205369676E61747572652068617368206973 PUSH1 0x0 DUP3 ADD MSTORE PUSH32 0x2072657175697265640000000000000000000000000000000000000000000000 PUSH1 0x20 DUP3 ADD MSTORE POP JUMP JUMPDEST PUSH32 0x206973206D697373696E6720726F6C6520000000000000000000000000000000 PUSH1 0x0 DUP3 ADD MSTORE POP JUMP JUMPDEST PUSH32 0x416363657373436F6E74726F6C3A2063616E206F6E6C792072656E6F756E6365 PUSH1 0x0 DUP3 ADD MSTORE PUSH32 0x20726F6C657320666F722073656C660000000000000000000000000000000000 PUSH1 0x20 DUP3 ADD MSTORE POP JUMP JUMPDEST PUSH2 0x2587 DUP2 PUSH2 0x2068 JUMP JUMPDEST DUP2 EQ PUSH2 0x2592 JUMPI PUSH1 0x0 DUP1 REVERT JUMPDEST POP JUMP JUMPDEST PUSH2 0x259E DUP2 PUSH2 0x20DE JUMP JUMPDEST DUP2 EQ PUSH2 0x25A9 JUMPI PUSH1 0x0 DUP1 REVERT JUMPDEST POP JUMP JUMPDEST PUSH2 0x25B5 DUP2 PUSH2 0x20E8 JUMP JUMPDEST DUP2 EQ PUSH2 0x25C0 JUMPI PUSH1 0x0 DUP1 REVERT JUMPDEST POP JUMP JUMPDEST PUSH2 0x25CC DUP2 PUSH2 0x2134 JUMP JUMPDEST DUP2 EQ PUSH2 0x25D7 JUMPI PUSH1 0x0 DUP1 REVERT JUMPDEST POP JUMP INVALID LOG2 PUSH5 0x6970667358 0x22 SLT KECCAK256 0xD1 0x24 SWAP9 SWAP3 0xD4 LOG4 0x5F 0x2F CODECOPY MSTORE8 0xC6 SSTORE PUSH13 0xEF639FA4EF909FD1F796A556DD 0x22 EXP ADDMOD 0xDF AND 0x4E PUSH5 0x736F6C6343 STOP ADDMOD DIV STOP CALLER "
				},
				"gasEstimates": {
					"creation": {
						"codeDepositCost": "1948800",
						"executionCost": "infinite",
						"totalCost": "infinite"
					},
					"external": {
						"ADMIN_ROLE()": "352",
						"DEFAULT_ADMIN_ROLE()": "357",
						"PAUSER_ROLE()": "439",
						"addBalance(bytes,uint256)": "infinite",
						"addSwappedBalance(uint256)": "infinite",
						"balanceOf(bytes)": "infinite",
						"claim(address,bytes32,bytes)": "infinite",
						"getRoleAdmin(bytes32)": "infinite",
						"getSwappedBalance()": "1248",
						"grantRole(bytes32,address)": "infinite",
						"hasRole(bytes32,address)": "1929",
						"pause()": "infinite",
						"paused()": "1268",
						"removeBalance(bytes)": "infinite",
						"removeSwappedBalance(uint256)": "infinite",
						"renounceRole(bytes32,address)": "infinite",
						"revokeRole(bytes32,address)": "infinite",
						"setNativeValue(uint256)": "infinite",
						"supportsInterface(bytes4)": "773",
						"unpause()": "infinite"
					}
				},
				"methodIdentifiers": {
					"ADMIN_ROLE()": "75b238fc",
					"DEFAULT_ADMIN_ROLE()": "a217fddf",
					"PAUSER_ROLE()": "e63ab1e9",
					"addBalance(bytes,uint256)": "c71c6490",
					"addSwappedBalance(uint256)": "0112f541",
					"balanceOf(bytes)": "78415365",
					"claim(address,bytes32,bytes)": "736c76ee",
					"getRoleAdmin(bytes32)": "248a9ca3",
					"getSwappedBalance()": "a0d5680f",
					"grantRole(bytes32,address)": "2f2ff15d",
					"hasRole(bytes32,address)": "91d14854",
					"pause()": "8456cb59",
					"paused()": "5c975abb",
					"removeBalance(bytes)": "3636f669",
					"removeSwappedBalance(uint256)": "c6afe01e",
					"renounceRole(bytes32,address)": "36568abe",
					"revokeRole(bytes32,address)": "d547741f",
					"setNativeValue(uint256)": "5b06a1d5",
					"supportsInterface(bytes4)": "01ffc9a7",
					"unpause()": "3f4ba83a"
				}
			},
			"userdoc": {
				"kind": "user",
				"methods": {},
				"version": 1
			}
		}
	}
}